{
  "contractName": "TOTPWallet",
  "abi": [
    {
      "inputs": [],
      "stateMutability": "nonpayable",
      "type": "constructor"
    },
    {
      "anonymous": false,
      "inputs": [
        {
          "indexed": true,
          "internalType": "address",
          "name": "sender",
          "type": "address"
        },
        {
          "indexed": false,
          "internalType": "uint256",
          "name": "value",
          "type": "uint256"
        }
      ],
      "name": "Deposit",
      "type": "event"
    },
    {
      "anonymous": false,
      "inputs": [
        {
          "indexed": false,
          "internalType": "address",
          "name": "wallet",
          "type": "address"
        },
        {
          "indexed": false,
          "internalType": "address",
          "name": "refundAddress",
          "type": "address"
        },
        {
          "indexed": false,
          "internalType": "uint256",
          "name": "refundFee",
          "type": "uint256"
        }
      ],
      "name": "Initialized",
      "type": "event"
    },
    {
      "anonymous": false,
      "inputs": [
        {
          "indexed": true,
          "internalType": "address",
          "name": "target",
          "type": "address"
        },
        {
          "indexed": true,
          "internalType": "uint256",
          "name": "value",
          "type": "uint256"
        },
        {
          "indexed": false,
          "internalType": "bytes",
          "name": "data",
          "type": "bytes"
        },
        {
          "indexed": false,
          "internalType": "bool",
          "name": "success",
          "type": "bool"
        },
        {
          "indexed": false,
          "internalType": "bytes",
          "name": "returnData",
          "type": "bytes"
        }
      ],
      "name": "Invoked",
      "type": "event"
    },
    {
      "anonymous": false,
      "inputs": [
        {
          "indexed": true,
          "internalType": "bool",
          "name": "success",
          "type": "bool"
        },
        {
          "indexed": false,
          "internalType": "bytes",
          "name": "returnData",
          "type": "bytes"
        },
        {
          "indexed": false,
          "internalType": "bytes32",
          "name": "signedHash",
          "type": "bytes32"
        },
        {
          "indexed": false,
          "internalType": "address",
          "name": "refundAddress",
          "type": "address"
        },
        {
          "indexed": false,
          "internalType": "uint256",
          "name": "refundFee",
          "type": "uint256"
        }
      ],
      "name": "TransactionExecuted",
      "type": "event"
    },
    {
      "anonymous": false,
      "inputs": [
        {
          "indexed": false,
          "internalType": "address",
          "name": "newImpl",
          "type": "address"
        }
      ],
      "name": "WalletUpgraded",
      "type": "event"
    },
    {
      "inputs": [],
      "name": "version",
      "outputs": [
        {
          "internalType": "uint256",
          "name": "",
          "type": "uint256"
        }
      ],
      "stateMutability": "view",
      "type": "function",
      "constant": true
    },
    {
      "inputs": [],
      "name": "wallet",
      "outputs": [
        {
          "internalType": "address",
          "name": "owner",
          "type": "address"
        },
        {
          "internalType": "bool",
          "name": "locked",
          "type": "bool"
        },
        {
          "internalType": "uint8",
          "name": "merkelHeight",
          "type": "uint8"
        },
        {
          "internalType": "uint256",
          "name": "counter",
          "type": "uint256"
        },
        {
          "internalType": "address payable",
          "name": "drainAddr",
          "type": "address"
        },
        {
          "components": [
            {
              "internalType": "address",
              "name": "key",
              "type": "address"
            },
            {
              "internalType": "uint256",
              "name": "expires",
              "type": "uint256"
            }
          ],
          "internalType": "struct Core.Session",
          "name": "session",
          "type": "tuple"
        },
        {
          "components": [
            {
              "internalType": "uint256",
              "name": "limit",
              "type": "uint256"
            },
            {
              "internalType": "uint256",
              "name": "lastDay",
              "type": "uint256"
            },
            {
              "internalType": "uint256",
              "name": "spentToday",
              "type": "uint256"
            }
          ],
          "internalType": "struct Core.DailyLimit",
          "name": "dailyLimit",
          "type": "tuple"
        },
        {
          "internalType": "string",
          "name": "hashStorageID",
          "type": "string"
        },
        {
          "components": [
            {
              "internalType": "address",
              "name": "newOwner",
              "type": "address"
            },
            {
              "internalType": "uint256",
              "name": "expiration",
              "type": "uint256"
            }
          ],
          "internalType": "struct Core.RecoveryInfo",
          "name": "pendingRecovery",
          "type": "tuple"
        },
        {
          "internalType": "address",
          "name": "resolver",
          "type": "address"
        },
        {
          "internalType": "uint256",
          "name": "nonce",
          "type": "uint256"
        }
      ],
      "stateMutability": "view",
      "type": "function",
      "constant": true
    },
    {
      "stateMutability": "payable",
      "type": "receive",
      "payable": true
    },
    {
      "inputs": [
        {
          "internalType": "address",
          "name": "resolver_",
          "type": "address"
        },
        {
          "internalType": "string[3]",
          "name": "domainAndHashId_",
          "type": "string[3]"
        },
        {
          "internalType": "address",
          "name": "owner_",
          "type": "address"
        },
        {
          "internalType": "bytes32[]",
          "name": "rootHash_",
          "type": "bytes32[]"
        },
        {
          "internalType": "uint8",
          "name": "merkelHeight_",
          "type": "uint8"
        },
        {
          "internalType": "address payable",
          "name": "drainAddr_",
          "type": "address"
        },
        {
          "internalType": "uint256",
          "name": "dailyLimit_",
          "type": "uint256"
        },
        {
          "internalType": "address",
          "name": "feeRecipient",
          "type": "address"
        },
        {
          "internalType": "uint256",
          "name": "feeAmount",
          "type": "uint256"
        }
      ],
      "name": "initialize",
      "outputs": [],
      "stateMutability": "nonpayable",
      "type": "function"
    },
    {
      "inputs": [
        {
          "internalType": "string",
          "name": "subdomain",
          "type": "string"
        },
        {
          "internalType": "string",
          "name": "domain",
          "type": "string"
        },
        {
          "internalType": "uint256",
          "name": "duration",
          "type": "uint256"
        }
      ],
      "name": "registerENS",
      "outputs": [],
      "stateMutability": "nonpayable",
      "type": "function"
    },
    {
      "inputs": [
        {
          "internalType": "bytes",
          "name": "_data",
          "type": "bytes"
        }
      ],
      "name": "getRequiredSignatures",
      "outputs": [
        {
          "internalType": "uint8",
          "name": "",
          "type": "uint8"
        },
        {
          "internalType": "enum Core.OwnerSignature",
          "name": "",
          "type": "uint8"
        }
      ],
      "stateMutability": "view",
      "type": "function",
      "constant": true
    },
    {
      "inputs": [
        {
          "internalType": "bytes",
          "name": "data",
          "type": "bytes"
        },
        {
          "internalType": "bytes",
          "name": "signatures",
          "type": "bytes"
        },
        {
          "internalType": "uint256",
          "name": "nonce",
          "type": "uint256"
        },
        {
          "internalType": "uint256",
          "name": "gasPrice",
          "type": "uint256"
        },
        {
          "internalType": "uint256",
          "name": "gasLimit",
          "type": "uint256"
        },
        {
          "internalType": "address",
          "name": "",
          "type": "address"
        },
        {
          "internalType": "address payable",
          "name": "refundAddress",
          "type": "address"
        }
      ],
      "name": "executeMetaTx",
      "outputs": [],
      "stateMutability": "nonpayable",
      "type": "function"
    },
    {
      "inputs": [
        {
          "components": [
            {
              "internalType": "address",
              "name": "to",
              "type": "address"
            },
            {
              "internalType": "uint256",
              "name": "value",
              "type": "uint256"
            },
            {
              "internalType": "bytes",
              "name": "data",
              "type": "bytes"
            }
          ],
          "internalType": "struct TOTPWallet.Call[]",
          "name": "_transactions",
          "type": "tuple[]"
        }
      ],
      "name": "multiCall",
      "outputs": [
        {
          "internalType": "bytes[]",
          "name": "",
          "type": "bytes[]"
        }
      ],
      "stateMutability": "nonpayable",
      "type": "function"
    },
    {
      "inputs": [
        {
          "components": [
            {
              "internalType": "address",
              "name": "to",
              "type": "address"
            },
            {
              "internalType": "uint256",
              "name": "value",
              "type": "uint256"
            },
            {
              "internalType": "bytes",
              "name": "data",
              "type": "bytes"
            }
          ],
          "internalType": "struct TOTPWallet.Call[]",
          "name": "_transactions",
          "type": "tuple[]"
        }
      ],
      "name": "multiCallWithSession",
      "outputs": [
        {
          "internalType": "bytes[]",
          "name": "",
          "type": "bytes[]"
        }
      ],
      "stateMutability": "nonpayable",
      "type": "function"
    },
    {
      "inputs": [
        {
          "internalType": "uint256",
          "name": "duration",
          "type": "uint256"
        }
      ],
      "name": "startSession",
      "outputs": [],
      "stateMutability": "nonpayable",
      "type": "function"
    },
    {
      "inputs": [],
      "name": "clearSession",
      "outputs": [],
      "stateMutability": "nonpayable",
      "type": "function"
    },
    {
      "inputs": [],
      "name": "getOwner",
      "outputs": [
        {
          "internalType": "address",
          "name": "",
          "type": "address"
        }
      ],
      "stateMutability": "view",
      "type": "function",
      "constant": true
    },
    {
      "inputs": [],
      "name": "getCounter",
      "outputs": [
        {
          "internalType": "uint256",
          "name": "",
          "type": "uint256"
        }
      ],
      "stateMutability": "view",
      "type": "function",
      "constant": true
    },
    {
      "inputs": [
        {
          "internalType": "string",
          "name": "id",
          "type": "string"
        }
      ],
      "name": "setHashStorageId",
      "outputs": [],
      "stateMutability": "nonpayable",
      "type": "function"
    },
    {
      "inputs": [],
      "name": "getHashStorageId",
      "outputs": [
        {
          "internalType": "string",
          "name": "",
          "type": "string"
        }
      ],
      "stateMutability": "view",
      "type": "function",
      "constant": true
    },
    {
      "inputs": [],
      "name": "getRootHashes",
      "outputs": [
        {
          "internalType": "bytes32[]",
          "name": "",
          "type": "bytes32[]"
        }
      ],
      "stateMutability": "view",
      "type": "function",
      "constant": true
    },
    {
      "inputs": [
        {
          "internalType": "address payable",
          "name": "addr",
          "type": "address"
        }
      ],
      "name": "setDrainAddress",
      "outputs": [],
      "stateMutability": "nonpayable",
      "type": "function"
    },
    {
      "inputs": [
        {
          "internalType": "uint256",
          "name": "amount",
          "type": "uint256"
        }
      ],
      "name": "setDailyLimit",
      "outputs": [],
      "stateMutability": "nonpayable",
      "type": "function"
    },
    {
      "inputs": [
        {
          "internalType": "address",
          "name": "guardian",
          "type": "address"
        }
      ],
      "name": "addGuardian",
      "outputs": [],
      "stateMutability": "nonpayable",
      "type": "function"
    },
    {
      "inputs": [
        {
          "internalType": "address",
          "name": "guardian",
          "type": "address"
        }
      ],
      "name": "revokeGuardian",
      "outputs": [],
      "stateMutability": "nonpayable",
      "type": "function"
    },
    {
      "inputs": [
        {
          "internalType": "address",
          "name": "addr",
          "type": "address"
        }
      ],
      "name": "isGuardian",
      "outputs": [
        {
          "internalType": "bool",
          "name": "",
          "type": "bool"
        }
      ],
      "stateMutability": "view",
      "type": "function",
      "constant": true
    },
    {
      "inputs": [],
      "name": "getGuardians",
      "outputs": [
        {
          "internalType": "address[]",
          "name": "",
          "type": "address[]"
        }
      ],
      "stateMutability": "view",
      "type": "function",
      "constant": true
    },
    {
      "inputs": [
        {
          "internalType": "address",
          "name": "newOwner_",
          "type": "address"
        }
      ],
      "name": "startRecoverGuardianOnly",
      "outputs": [],
      "stateMutability": "nonpayable",
      "type": "function"
    },
    {
      "inputs": [
        {
          "internalType": "bytes32",
          "name": "secretHash",
          "type": "bytes32"
        },
        {
          "internalType": "bytes32",
          "name": "dataHash",
          "type": "bytes32"
        }
      ],
      "name": "startRecoverCommit",
      "outputs": [],
      "stateMutability": "nonpayable",
      "type": "function"
    },
    {
      "inputs": [
        {
          "internalType": "address",
          "name": "newOwner",
          "type": "address"
        },
        {
          "internalType": "bytes32[]",
          "name": "confirmMaterial",
          "type": "bytes32[]"
        }
      ],
      "name": "startRecoveryReveal",
      "outputs": [],
      "stateMutability": "nonpayable",
      "type": "function"
    },
    {
      "inputs": [
        {
          "internalType": "address",
          "name": "newMasterCopy",
          "type": "address"
        }
      ],
      "name": "upgradeMasterCopy",
      "outputs": [],
      "stateMutability": "nonpayable",
      "type": "function"
    },
    {
      "inputs": [],
      "name": "getMasterCopy",
      "outputs": [
        {
          "internalType": "address",
          "name": "",
          "type": "address"
        }
      ],
      "stateMutability": "view",
      "type": "function",
      "constant": true
    },
    {
      "inputs": [
        {
          "internalType": "address",
          "name": "",
          "type": "address"
        },
        {
          "internalType": "address",
          "name": "",
          "type": "address"
        },
        {
          "internalType": "uint256",
          "name": "",
          "type": "uint256"
        },
        {
          "internalType": "uint256",
          "name": "",
          "type": "uint256"
        },
        {
          "internalType": "bytes",
          "name": "",
          "type": "bytes"
        }
      ],
      "name": "onERC1155Received",
      "outputs": [
        {
          "internalType": "bytes4",
          "name": "",
          "type": "bytes4"
        }
      ],
      "stateMutability": "pure",
      "type": "function",
      "constant": true
    },
    {
      "inputs": [
        {
          "internalType": "address",
          "name": "operator",
          "type": "address"
        },
        {
          "internalType": "address",
          "name": "from",
          "type": "address"
        },
        {
          "internalType": "uint256[]",
          "name": "ids",
          "type": "uint256[]"
        },
        {
          "internalType": "uint256[]",
          "name": "values",
          "type": "uint256[]"
        },
        {
          "internalType": "bytes",
          "name": "data",
          "type": "bytes"
        }
      ],
      "name": "onERC1155BatchReceived",
      "outputs": [
        {
          "internalType": "bytes4",
          "name": "",
          "type": "bytes4"
        }
      ],
      "stateMutability": "view",
      "type": "function",
      "constant": true
    },
    {
      "inputs": [
        {
          "internalType": "bytes4",
          "name": "interfaceID",
          "type": "bytes4"
        }
      ],
      "name": "supportsInterface",
      "outputs": [
        {
          "internalType": "bool",
          "name": "",
          "type": "bool"
        }
      ],
      "stateMutability": "pure",
      "type": "function",
      "constant": true
    },
    {
      "inputs": [
        {
          "internalType": "address",
          "name": "",
          "type": "address"
        },
        {
          "internalType": "address",
          "name": "",
          "type": "address"
        },
        {
          "internalType": "uint256",
          "name": "",
          "type": "uint256"
        },
        {
          "internalType": "bytes",
          "name": "",
          "type": "bytes"
        }
      ],
      "name": "onERC721Received",
      "outputs": [
        {
          "internalType": "bytes4",
          "name": "",
          "type": "bytes4"
        }
      ],
      "stateMutability": "pure",
      "type": "function",
      "constant": true
    },
    {
      "inputs": [
        {
          "internalType": "bytes32",
          "name": "_msgHash",
          "type": "bytes32"
        },
        {
          "internalType": "bytes",
          "name": "_signature",
          "type": "bytes"
        }
      ],
      "name": "isValidSignature",
      "outputs": [
        {
          "internalType": "bytes4",
          "name": "",
          "type": "bytes4"
        }
      ],
      "stateMutability": "view",
      "type": "function",
      "constant": true
    }
  ],
  "bytecode": "0x608060405234801561001057600080fd5b506001601360006101000a81548160ff021916908315150217905550615edb806200003c6000396000f3fe6080604052600436106101dc5760003560e01c806379d3d98c11610102578063b6c3843211610095578063d86dde5011610064578063d86dde50146106f6578063de0337151461070d578063ef24c73614610736578063f23a6e611461075f576101e3565b8063b6c384321461063c578063bc197c8114610665578063c832fe5f146106a2578063cabd82c5146106cd576101e3565b80638df2730a116100d15780638df2730a14610598578063a526d83b146105c1578063af648c3d146105ea578063b20d30a914610613576101e3565b806379d3d98c146104dc57806383183a1b14610505578063893d20e8146105425780638ada066e1461056d576101e3565b8063248b17011161017a578063693b60a211610149578063693b60a21461042357806375a3f50d1461044c578063771276121461048a578063782c25bd146104b3576101e3565b8063248b17011461035d5780632f23a3ab1461039a578063521eb273146103c357806354fd4d50146103f8576101e3565b80630c68ba21116101b65780630c68ba211461027b578063150b7a02146102b85780631626ba7e146102f55780631f13938d14610332576101e3565b806301ffc9a7146101e857806304e80e90146102255780630665f04b14610250576101e3565b366101e357005b600080fd5b3480156101f457600080fd5b5061020f600480360381019061020a9190614244565b61079c565b60405161021c91906151bf565b60405180910390f35b34801561023157600080fd5b5061023a6108da565b6040516102479190614ff8565b60405180910390f35b34801561025c57600080fd5b50610265610903565b6040516102729190615159565b60405180910390f35b34801561028757600080fd5b506102a2600480360381019061029d9190613dc3565b610994565b6040516102af91906151bf565b60405180910390f35b3480156102c457600080fd5b506102df60048036038101906102da9190613ee1565b610a29565b6040516102ec919061521f565b60405180910390f35b34801561030157600080fd5b5061031c600480360381019061031791906141f0565b610a3e565b604051610329919061521f565b60405180910390f35b34801561033e57600080fd5b50610347610ae1565b604051610354919061531b565b60405180910390f35b34801561036957600080fd5b50610384600480360381019061037f9190614146565b610b76565b604051610391919061519d565b60405180910390f35b3480156103a657600080fd5b506103c160048036038101906103bc91906143f6565b610f58565b005b3480156103cf57600080fd5b506103d86110b8565b6040516103ef9b9a999897969594939291906150a6565b60405180910390f35b34801561040457600080fd5b5061040d6112fe565b60405161041a91906156dd565b60405180910390f35b34801561042f57600080fd5b5061044a600480360381019061044591906142db565b611303565b005b34801561045857600080fd5b50610473600480360381019061046e9190614296565b6115db565b6040516104819291906156f8565b60405180910390f35b34801561049657600080fd5b506104b160048036038101906104ac919061447f565b611a97565b005b3480156104bf57600080fd5b506104da60048036038101906104d5919061404b565b611b8c565b005b3480156104e857600080fd5b5061050360048036038101906104fe91906143b1565b612050565b005b34801561051157600080fd5b5061052c60048036038101906105279190614146565b61214e565b604051610539919061519d565b60405180910390f35b34801561054e57600080fd5b506105576123b7565b6040516105649190614ff8565b60405180910390f35b34801561057957600080fd5b506105826123e4565b60405161058f91906156dd565b60405180910390f35b3480156105a457600080fd5b506105bf60048036038101906105ba91906141b4565b6123f1565b005b3480156105cd57600080fd5b506105e860048036038101906105e39190613dc3565b61252a565b005b3480156105f657600080fd5b50610611600480360381019061060c9190613dc3565b61267e565b005b34801561061f57600080fd5b5061063a6004803603810190610635919061447f565b6127d2565b005b34801561064857600080fd5b50610663600480360381019061065e9190613dec565b612850565b005b34801561067157600080fd5b5061068c60048036038101906106879190613e15565b612905565b604051610699919061521f565b60405180910390f35b3480156106ae57600080fd5b506106b7612a66565b6040516106c4919061517b565b60405180910390f35b3480156106d957600080fd5b506106f460048036038101906106ef9190613ff3565b612ac0565b005b34801561070257600080fd5b5061070b612ed7565b005b34801561071957600080fd5b50610734600480360381019061072f9190613dc3565b612fcc565b005b34801561074257600080fd5b5061075d60048036038101906107589190613dc3565b6130b4565b005b34801561076b57600080fd5b5061078660048036038101906107819190613f61565b613191565b604051610793919061521f565b60405180910390f35b60006301ffc9a760e01b7bffffffffffffffffffffffffffffffffffffffffffffffffffffffff1916827bffffffffffffffffffffffffffffffffffffffffffffffffffffffff19161480610835575063f23a6e6160e01b7bffffffffffffffffffffffffffffffffffffffffffffffffffffffff1916827bffffffffffffffffffffffffffffffffffffffffffffffffffffffff1916145b80610884575063150b7a0260e01b7bffffffffffffffffffffffffffffffffffffffffffffffffffffffff1916827bffffffffffffffffffffffffffffffffffffffffffffffffffffffff1916145b806108d35750631626ba7e60e01b7bffffffffffffffffffffffffffffffffffffffffffffffffffffffff1916827bffffffffffffffffffffffffffffffffffffffffffffffffffffffff1916145b9050919050565b60008060009054906101000a900473ffffffffffffffffffffffffffffffffffffffff16905090565b6060600160050180548060200260200160405190810160405280929190818152602001828054801561098a57602002820191906000526020600020905b8160009054906101000a900473ffffffffffffffffffffffffffffffffffffffff1673ffffffffffffffffffffffffffffffffffffffff1681526020019060010190808311610940575b5050505050905090565b6000600173__Guardians_____________________________63121c95629091846040518363ffffffff1660e01b81526004016109d292919061559d565b60206040518083038186803b1580156109ea57600080fd5b505af41580156109fe573d6000803e3d6000fd5b505050506040513d601f19601f82011682018060405250810190610a22919061418b565b9050919050565b600063150b7a0260e01b905095945050505050565b60006041825114610a84576040517f08c379a0000000000000000000000000000000000000000000000000000000008152600401610a7b9061553d565b60405180910390fd5b610a926001848460016131a7565b610ad1576040517f08c379a0000000000000000000000000000000000000000000000000000000008152600401610ac89061557d565b60405180910390fd5b631626ba7e60e01b905092915050565b60606001600c018054610af390615bd3565b80601f0160208091040260200160405190810160405280929190818152602001828054610b1f90615bd3565b8015610b6c5780601f10610b4157610100808354040283529160200191610b6c565b820191906000526020600020905b815481529060010190602001808311610b4f57829003601f168201915b5050505050905090565b60603073ffffffffffffffffffffffffffffffffffffffff163373ffffffffffffffffffffffffffffffffffffffff161480610c1e5750600160000160009054906101000a900473ffffffffffffffffffffffffffffffffffffffff1673ffffffffffffffffffffffffffffffffffffffff163373ffffffffffffffffffffffffffffffffffffffff16148015610c1d5750600160000160149054906101000a900460ff16155b5b610c5d576040517f08c379a0000000000000000000000000000000000000000000000000000000008152600401610c54906154dd565b60405180910390fd5b60008383905067ffffffffffffffff811115610ca2577f4e487b7100000000000000000000000000000000000000000000000000000000600052604160045260246000fd5b604051908082528060200260200182016040528015610cd557816020015b6060815260200190600190039081610cc05790505b50905060005b84849050811015610f4d57366000868684818110610d22577f4e487b7100000000000000000000000000000000000000000000000000000000600052603260045260246000fd5b9050602002810190610d3491906157cf565b8060400190610d439190615721565b915091506000878785818110610d82577f4e487b7100000000000000000000000000000000000000000000000000000000600052603260045260246000fd5b9050602002810190610d9491906157cf565b60200135905060006001600501805490501115610e8b576004838390501080610e0f5750610e0d610e0884848080601f016020809104026020016040519081016040528093929190818152602001838380828437600081840152601f19601f82011690508083019250505050505050613433565b613486565b155b610e1857600080fd5b610e2c81600161357590919063ffffffff16565b610e6b576040517f08c379a0000000000000000000000000000000000000000000000000000000008152600401610e629061537d565b60405180910390fd5b8060016009016002016000828254610e839190615986565b925050819055505b610ef3888886818110610ec7577f4e487b7100000000000000000000000000000000000000000000000000000000600052603260045260246000fd5b9050602002810190610ed991906157cf565b6000016020810190610eeb9190613dc3565b828585613606565b858581518110610f2c577f4e487b7100000000000000000000000000000000000000000000000000000000600052603260045260246000fd5b60200260200101819052505050508080610f4590615c05565b915050610cdb565b508091505092915050565b3073ffffffffffffffffffffffffffffffffffffffff163373ffffffffffffffffffffffffffffffffffffffff161480610ffe5750600160000160009054906101000a900473ffffffffffffffffffffffffffffffffffffffff1673ffffffffffffffffffffffffffffffffffffffff163373ffffffffffffffffffffffffffffffffffffffff16148015610ffd5750600160000160149054906101000a900460ff16155b5b61103d576040517f08c379a0000000000000000000000000000000000000000000000000000000008152600401611034906154dd565b60405180910390fd5b600173__NameService___________________________63145f7620909187878787876040518763ffffffff1660e01b8152600401611081969594939291906155f6565b60006040518083038186803b15801561109957600080fd5b505af41580156110ad573d6000803e3d6000fd5b505050505050505050565b60018060000160009054906101000a900473ffffffffffffffffffffffffffffffffffffffff16908060000160149054906101000a900460ff16908060020160009054906101000a900460ff16908060030154908060040160009054906101000a900473ffffffffffffffffffffffffffffffffffffffff1690806007016040518060400160405290816000820160009054906101000a900473ffffffffffffffffffffffffffffffffffffffff1673ffffffffffffffffffffffffffffffffffffffff1673ffffffffffffffffffffffffffffffffffffffff168152602001600182015481525050908060090160405180606001604052908160008201548152602001600182015481526020016002820154815250509080600c0180546111df90615bd3565b80601f016020809104026020016040519081016040528092919081815260200182805461120b90615bd3565b80156112585780601f1061122d57610100808354040283529160200191611258565b820191906000526020600020905b81548152906001019060200180831161123b57829003601f168201915b50505050509080600d016040518060400160405290816000820160009054906101000a900473ffffffffffffffffffffffffffffffffffffffff1673ffffffffffffffffffffffffffffffffffffffff1673ffffffffffffffffffffffffffffffffffffffff168152602001600182015481525050908060100160009054906101000a900473ffffffffffffffffffffffffffffffffffffffff1690806011015490508b565b600281565b60005a9050611310613a2b565b61131a8b8b6115db565b826000018360200182600481111561135b577f4e487b7100000000000000000000000000000000000000000000000000000000600052602160045260246000fd5b6004811115611393577f4e487b7100000000000000000000000000000000000000000000000000000000600052602160045260246000fd5b8152508260ff1660ff16815250505073__MetaTx________________________________631815d80160018d8d8d8d8d8d8d8c8b6040518b63ffffffff1660e01b81526004016113ec9a9998979695949392919061564d565b60006040518083038186803b15801561140457600080fd5b505af4158015611418573d6000803e3d6000fd5b50505050600060603073ffffffffffffffffffffffffffffffffffffffff168d8d604051611447929190614fca565b6000604051808303816000865af19150503d8060008114611484576040519150601f19603f3d011682016040523d82523d6000602084013e611489565b606091505b50809250819350505060008811801561149f5750815b80156114d85750600073ffffffffffffffffffffffffffffffffffffffff168573ffffffffffffffffffffffffffffffffffffffff1614155b15611589576000620111705a866114ef9190615a0d565b6114f99190615986565b90508573ffffffffffffffffffffffffffffffffffffffff166108fc829081150290604051600060405180830381858888f19350505050158015611541573d6000803e3d6000fd5b508215157f83fbf939f72733e38e8b90fb507db5b3a43ce5c0967fac7f9bbd2d82f0c62afc836000898560405161157b9493929190615286565b60405180910390a2506115cc565b8115157f83fbf939f72733e38e8b90fb507db5b3a43ce5c0967fac7f9bbd2d82f0c62afc8260008860006040516115c3949392919061523a565b60405180910390a25b50505050505050505050505050565b600080600061162d85858080601f016020809104026020016040519081016040528093929190818152602001838380828437600081840152601f19601f82011690508083019250505050505050613433565b905063248b170160e01b7bffffffffffffffffffffffffffffffffffffffffffffffffffffffff1916817bffffffffffffffffffffffffffffffffffffffffffffffffffffffff191614806116c6575063a526d83b60e01b7bffffffffffffffffffffffffffffffffffffffffffffffffffffffff1916817bffffffffffffffffffffffffffffffffffffffffffffffffffffffff1916145b80611715575063af648c3d60e01b7bffffffffffffffffffffffffffffffffffffffffffffffffffffffff1916817bffffffffffffffffffffffffffffffffffffffffffffffffffffffff1916145b80611764575063d86dde5060e01b7bffffffffffffffffffffffffffffffffffffffffffffffffffffffff1916817bffffffffffffffffffffffffffffffffffffffffffffffffffffffff1916145b806117b357506379d3d98c60e01b7bffffffffffffffffffffffffffffffffffffffffffffffffffffffff1916817bffffffffffffffffffffffffffffffffffffffffffffffffffffffff1916145b156117c5576001809250925050611a90565b600060016005018054905014156117f6576117df81613486565b156117f1576001809250925050611a90565b6118ca565b637712761260e01b7bffffffffffffffffffffffffffffffffffffffffffffffffffffffff1916817bffffffffffffffffffffffffffffffffffffffffffffffffffffffff1916141561186e5760016118586001600501805490506002613695565b6118629190615986565b60019250925050611a90565b6383183a1b60e01b7bffffffffffffffffffffffffffffffffffffffffffffffffffffffff1916817bffffffffffffffffffffffffffffffffffffffffffffffffffffffff191614156118c957600160049250925050611a90565b5b63ef24c73660e01b7bffffffffffffffffffffffffffffffffffffffffffffffffffffffff1916817bffffffffffffffffffffffffffffffffffffffffffffffffffffffff191614156119885760026001600501805490501015611963576040517f08c379a000000000000000000000000000000000000000000000000000000000815260040161195a906153bd565b60405180910390fd5b60006119786001600501805490506002613695565b9050806003935093505050611a90565b638df2730a60e01b7bffffffffffffffffffffffffffffffffffffffffffffffffffffffff1916817bffffffffffffffffffffffffffffffffffffffffffffffffffffffff191614156119fa5760006119ea6001600501805490506002613695565b9050806003935093505050611a90565b63cabd82c560e01b7bffffffffffffffffffffffffffffffffffffffffffffffffffffffff1916817bffffffffffffffffffffffffffffffffffffffffffffffffffffffff19161415611a5557600060039250925050611a90565b6040517f08c379a0000000000000000000000000000000000000000000000000000000008152600401611a879061551d565b60405180910390fd5b9250929050565b3073ffffffffffffffffffffffffffffffffffffffff163373ffffffffffffffffffffffffffffffffffffffff1614611b05576040517f08c379a0000000000000000000000000000000000000000000000000000000008152600401611afc906154bd565b60405180910390fd5b600160000160009054906101000a900473ffffffffffffffffffffffffffffffffffffffff16600160070160000160006101000a81548173ffffffffffffffffffffffffffffffffffffffff021916908373ffffffffffffffffffffffffffffffffffffffff1602179055508042611b7d9190615986565b60016007016001018190555050565b89600160100160006101000a81548173ffffffffffffffffffffffffffffffffffffffff021916908373ffffffffffffffffffffffffffffffffffffffff160217905550600073ffffffffffffffffffffffffffffffffffffffff16600160000160009054906101000a900473ffffffffffffffffffffffffffffffffffffffff1673ffffffffffffffffffffffffffffffffffffffff1614611c64576040517f08c379a0000000000000000000000000000000000000000000000000000000008152600401611c5b9061547d565b60405180910390fd5b80471015611ca7576040517f08c379a0000000000000000000000000000000000000000000000000000000008152600401611c9e9061533d565b60405180910390fd5b87600160000160006101000a81548173ffffffffffffffffffffffffffffffffffffffff021916908373ffffffffffffffffffffffffffffffffffffffff16021790555060005b878790508163ffffffff161015611d82576001800188888363ffffffff16818110611d42577f4e487b7100000000000000000000000000000000000000000000000000000000600052603260045260246000fd5b9050602002013590806001815401808255809150506001900390600052602060002001600090919091909150558080611d7a90615c4e565b915050611cee565b5084600160020160006101000a81548160ff021916908360ff16021790555083600160040160006101000a81548173ffffffffffffffffffffffffffffffffffffffff021916908373ffffffffffffffffffffffffffffffffffffffff16021790555082600160090160000181905550600089600060038110611e2e577f4e487b7100000000000000000000000000000000000000000000000000000000600052603260045260246000fd5b602002810190611e3e9190615778565b90501115611f4e573073ffffffffffffffffffffffffffffffffffffffff16632f23a3ab8a600060038110611e9c577f4e487b7100000000000000000000000000000000000000000000000000000000600052603260045260246000fd5b602002810190611eac9190615778565b8c600160038110611ee6577f4e487b7100000000000000000000000000000000000000000000000000000000600052603260045260246000fd5b602002810190611ef69190615778565b6301e133806040518663ffffffff1660e01b8152600401611f1b9594939291906152d2565b600060405180830381600087803b158015611f3557600080fd5b505af1158015611f49573d6000803e3d6000fd5b505050505b600073ffffffffffffffffffffffffffffffffffffffff168273ffffffffffffffffffffffffffffffffffffffff1614611fe757611fab818373ffffffffffffffffffffffffffffffffffffffff166136da90919063ffffffff16565b7f10f27652c1015195ca7e6bc9b4c724cbf18e91c42117d92124703a3f49bb240f308383604051611fde93929190615013565b60405180910390a15b88600260038110612021577f4e487b7100000000000000000000000000000000000000000000000000000000600052603260045260246000fd5b6020028101906120319190615778565b6001600c019190612043929190613a80565b5050505050505050505050565b3073ffffffffffffffffffffffffffffffffffffffff163373ffffffffffffffffffffffffffffffffffffffff1614806120f65750600160000160009054906101000a900473ffffffffffffffffffffffffffffffffffffffff1673ffffffffffffffffffffffffffffffffffffffff163373ffffffffffffffffffffffffffffffffffffffff161480156120f55750600160000160149054906101000a900460ff16155b5b612135576040517f08c379a000000000000000000000000000000000000000000000000000000000815260040161212c906154dd565b60405180910390fd5b81816001600c019190612149929190613a80565b505050565b60603073ffffffffffffffffffffffffffffffffffffffff163373ffffffffffffffffffffffffffffffffffffffff16146121be576040517f08c379a00000000000000000000000000000000000000000000000000000000081526004016121b5906154bd565b60405180910390fd5b60008383905067ffffffffffffffff811115612203577f4e487b7100000000000000000000000000000000000000000000000000000000600052604160045260246000fd5b60405190808252806020026020018201604052801561223657816020015b60608152602001906001900390816122215790505b50905060005b848490508110156123ac57612355858583818110612283577f4e487b7100000000000000000000000000000000000000000000000000000000600052603260045260246000fd5b905060200281019061229591906157cf565b60000160208101906122a79190613dc3565b8686848181106122e0577f4e487b7100000000000000000000000000000000000000000000000000000000600052603260045260246000fd5b90506020028101906122f291906157cf565b6020013587878581811061232f577f4e487b7100000000000000000000000000000000000000000000000000000000600052603260045260246000fd5b905060200281019061234191906157cf565b80604001906123509190615721565b613606565b82828151811061238e577f4e487b7100000000000000000000000000000000000000000000000000000000600052603260045260246000fd5b602002602001018190525080806123a490615c05565b91505061223c565b508091505092915050565b6000600160000160009054906101000a900473ffffffffffffffffffffffffffffffffffffffff16905090565b6000600160030154905090565b3073ffffffffffffffffffffffffffffffffffffffff163373ffffffffffffffffffffffffffffffffffffffff161461245f576040517f08c379a0000000000000000000000000000000000000000000000000000000008152600401612456906154bd565b60405180910390fd5b60006001600f01600084815260200190815260200160002060010154146124bb576040517f08c379a00000000000000000000000000000000000000000000000000000000081526004016124b29061535d565b60405180910390fd5b6040518060600160405280828152602001438152602001600015158152506001600f016000848152602001908152602001600020600082015181600001556020820151816001015560408201518160020160006101000a81548160ff0219169083151502179055509050505050565b3073ffffffffffffffffffffffffffffffffffffffff163373ffffffffffffffffffffffffffffffffffffffff1614806125d05750600160000160009054906101000a900473ffffffffffffffffffffffffffffffffffffffff1673ffffffffffffffffffffffffffffffffffffffff163373ffffffffffffffffffffffffffffffffffffffff161480156125cf5750600160000160149054906101000a900460ff16155b5b61260f576040517f08c379a0000000000000000000000000000000000000000000000000000000008152600401612606906154dd565b60405180910390fd5b600173__Guardians_____________________________6397b9ce099091836040518363ffffffff1660e01b815260040161264b92919061559d565b60006040518083038186803b15801561266357600080fd5b505af4158015612677573d6000803e3d6000fd5b5050505050565b3073ffffffffffffffffffffffffffffffffffffffff163373ffffffffffffffffffffffffffffffffffffffff1614806127245750600160000160009054906101000a900473ffffffffffffffffffffffffffffffffffffffff1673ffffffffffffffffffffffffffffffffffffffff163373ffffffffffffffffffffffffffffffffffffffff161480156127235750600160000160149054906101000a900460ff16155b5b612763576040517f08c379a000000000000000000000000000000000000000000000000000000000815260040161275a906154dd565b60405180910390fd5b600173__Guardians_____________________________63e98ee0859091836040518363ffffffff1660e01b815260040161279f92919061559d565b60006040518083038186803b1580156127b757600080fd5b505af41580156127cb573d6000803e3d6000fd5b5050505050565b3073ffffffffffffffffffffffffffffffffffffffff163373ffffffffffffffffffffffffffffffffffffffff1614612840576040517f08c379a0000000000000000000000000000000000000000000000000000000008152600401612837906154bd565b60405180910390fd5b8060016009016000018190555050565b3073ffffffffffffffffffffffffffffffffffffffff163373ffffffffffffffffffffffffffffffffffffffff16146128be576040517f08c379a00000000000000000000000000000000000000000000000000000000081526004016128b5906154bd565b60405180910390fd5b80600160040160006101000a81548173ffffffffffffffffffffffffffffffffffffffff021916908373ffffffffffffffffffffffffffffffffffffffff16021790555050565b600080600090505b878790508163ffffffff161015612a4f573073ffffffffffffffffffffffffffffffffffffffff1663f23a6e618b8b8b8b8663ffffffff1681811061297b577f4e487b7100000000000000000000000000000000000000000000000000000000600052603260045260246000fd5b905060200201358a8a8763ffffffff168181106129c1577f4e487b7100000000000000000000000000000000000000000000000000000000600052603260045260246000fd5b9050602002013589896040518763ffffffff1660e01b81526004016129eb9695949392919061504a565b60206040518083038186803b158015612a0357600080fd5b505afa158015612a17573d6000803e3d6000fd5b505050506040513d601f19601f82011682018060405250810190612a3b919061426d565b508080612a4790615c4e565b91505061290d565b5063bc197c8160e01b905098975050505050505050565b606060018001805480602002602001604051908101604052809291908181526020018280548015612ab657602002820191906000526020600020905b815481526020019060010190808311612aa2575b5050505050905090565b3073ffffffffffffffffffffffffffffffffffffffff163373ffffffffffffffffffffffffffffffffffffffff1614612b2e576040517f08c379a0000000000000000000000000000000000000000000000000000000008152600401612b25906154bd565b60405180910390fd5b818180806020026020016040519081016040528093929190818152602001838360200280828437600081840152601f19601f82011690508083019250505050505050600173__Recovery______________________________6321ca866f9091836040518363ffffffff1660e01b8152600401612bac9291906155c6565b60006040518083038186803b158015612bc457600080fd5b505af4158015612bd8573d6000803e3d6000fd5b50505050600083836000818110612c18577f4e487b7100000000000000000000000000000000000000000000000000000000600052603260045260246000fd5b90506020020135604051602001612c2f9190614faf565b60405160208183030381529060405280519060200120905060006001600f016000838152602001908152602001600020600101541415612ca4576040517f08c379a0000000000000000000000000000000000000000000000000000000008152600401612c9b9061539d565b60405180910390fd5b600015156001600f01600083815260200190815260200160002060020160009054906101000a900460ff16151514612d11576040517f08c379a0000000000000000000000000000000000000000000000000000000008152600401612d089061541d565b60405180910390fd5b600f6001600f0160008381526020019081526020016000206001015443612d389190615a0d565b10612d78576040517f08c379a0000000000000000000000000000000000000000000000000000000008152600401612d6f906154fd565b60405180910390fd5b60008585856000818110612db5577f4e487b7100000000000000000000000000000000000000000000000000000000600052603260045260246000fd5b90506020020135604051602001612dcd929190614f83565b6040516020818303038152906040528051906020012090506001600f016000838152602001908152602001600020600001548114612e40576040517f08c379a0000000000000000000000000000000000000000000000000000000008152600401612e379061555d565b60405180910390fd5b600180600f01600084815260200190815260200160002060020160006101000a81548160ff02191690831515021790555085600160000160006101000a81548173ffffffffffffffffffffffffffffffffffffffff021916908373ffffffffffffffffffffffffffffffffffffffff16021790555060018060030154612ec69190615986565b600160030181905550505050505050565b3073ffffffffffffffffffffffffffffffffffffffff163373ffffffffffffffffffffffffffffffffffffffff161480612f7d5750600160000160009054906101000a900473ffffffffffffffffffffffffffffffffffffffff1673ffffffffffffffffffffffffffffffffffffffff163373ffffffffffffffffffffffffffffffffffffffff16148015612f7c5750600160000160149054906101000a900460ff16155b5b612fbc576040517f08c379a0000000000000000000000000000000000000000000000000000000008152600401612fb3906154dd565b60405180910390fd5b6000600160070160010181905550565b3073ffffffffffffffffffffffffffffffffffffffff163373ffffffffffffffffffffffffffffffffffffffff161461303a576040517f08c379a0000000000000000000000000000000000000000000000000000000008152600401613031906154bd565b60405180910390fd5b806000806101000a81548173ffffffffffffffffffffffffffffffffffffffff021916908373ffffffffffffffffffffffffffffffffffffffff1602179055507f8a5dcb0249bae905183e794960410c37563e6ab514b1add384425d153972118d816040516130a99190614ff8565b60405180910390a150565b3073ffffffffffffffffffffffffffffffffffffffff163373ffffffffffffffffffffffffffffffffffffffff1614613122576040517f08c379a0000000000000000000000000000000000000000000000000000000008152600401613119906154bd565b60405180910390fd5b600173__Recovery______________________________636ffc1c629091836040518363ffffffff1660e01b815260040161315e92919061559d565b60006040518083038186803b15801561317657600080fd5b505af415801561318a573d6000803e3d6000fd5b5050505050565b600063f23a6e6160e01b90509695505050505050565b600080835114156131bb576001905061342b565b6000808660050180548060200260200160405190810160405280929190818152602001828054801561324257602002820191906000526020600020905b8160009054906101000a900473ffffffffffffffffffffffffffffffffffffffff1673ffffffffffffffffffffffffffffffffffffffff16815260200190600101908083116131f8575b50505050509050600080600090505b6041875161325f91906159dc565b8110156134225760006132738989846137ce565b905060008214156133aa57600160048111156132b8577f4e487b7100000000000000000000000000000000000000000000000000000000600052602160045260246000fd5b8760048111156132f1577f4e487b7100000000000000000000000000000000000000000000000000000000600052602160045260246000fd5b141561331a576133018a82613920565b1561330c575061340f565b60009550505050505061342b565b60026004811115613354577f4e487b7100000000000000000000000000000000000000000000000000000000600052602160045260246000fd5b87600481111561338d577f4e487b7100000000000000000000000000000000000000000000000000000000600052602160045260246000fd5b14156133a95761339d8a82613920565b156133a8575061340f565b5b5b8473ffffffffffffffffffffffffffffffffffffffff168173ffffffffffffffffffffffffffffffffffffffff16116133eb5760009550505050505061342b565b8094506133f8848261397d565b92508261340d5760009550505050505061342b565b505b808061341a90615c05565b915050613251565b50600193505050505b949350505050565b600060048251101561347a576040517f08c379a0000000000000000000000000000000000000000000000000000000008152600401613471906153fd565b60405180910390fd5b60208201519050919050565b600063de03371560e01b7bffffffffffffffffffffffffffffffffffffffffffffffffffffffff1916827bffffffffffffffffffffffffffffffffffffffffffffffffffffffff1916148061351f575063b20d30a960e01b7bffffffffffffffffffffffffffffffffffffffffffffffffffffffff1916827bffffffffffffffffffffffffffffffffffffffffffffffffffffffff1916145b8061356e575063b6c3843260e01b7bffffffffffffffffffffffffffffffffffffffffffffffffffffffff1916827bffffffffffffffffffffffffffffffffffffffffffffffffffffffff1916145b9050919050565b600062015180836009016001015461358d9190615986565b4211156135ae57428360090160010181905550600083600901600201819055505b82600901600001548284600901600201546135c99190615986565b11806135ed575082600901600201548284600901600201546135eb9190615986565b105b156135fb5760009050613600565b600190505b92915050565b606060008573ffffffffffffffffffffffffffffffffffffffff16858585604051613632929190614fca565b60006040518083038185875af1925050503d806000811461366f576040519150601f19603f3d011682016040523d82523d6000602084013e613674565b606091505b5080935081925050508061368c573d6000803e3d6000fd5b50949350505050565b60008082846136a491906159dc565b9050600083856136b49190615ca9565b14156136c357809150506136d4565b6001816136d09190615986565b9150505b92915050565b8047101561371d576040517f08c379a00000000000000000000000000000000000000000000000000000000081526004016137149061545d565b60405180910390fd5b60008273ffffffffffffffffffffffffffffffffffffffff168260405161374390614fe3565b60006040518083038185875af1925050503d8060008114613780576040519150601f19603f3d011682016040523d82523d6000602084013e613785565b606091505b50509050806137c9576040517f08c379a00000000000000000000000000000000000000000000000000000000081526004016137c09061543d565b60405180910390fd5b505050565b60008060008084604102602001860151915084604102604001860151905060ff85604102604101870151169250601b8360ff1614806138105750601c8360ff16145b61384f576040517f08c379a00000000000000000000000000000000000000000000000000000000081526004016138469061549d565b60405180910390fd5b60006001888585856040516000815260200160405260405161387494939291906151da565b6020604051602081039080840390855afa158015613896573d6000803e3d6000fd5b505050602060405103519050600073ffffffffffffffffffffffffffffffffffffffff168173ffffffffffffffffffffffffffffffffffffffff161415613912576040517f08c379a0000000000000000000000000000000000000000000000000000000008152600401613909906153dd565b60405180910390fd5b809450505050509392505050565b60008173ffffffffffffffffffffffffffffffffffffffff168360000160009054906101000a900473ffffffffffffffffffffffffffffffffffffffff1673ffffffffffffffffffffffffffffffffffffffff1614905092915050565b600080600090505b8351811015613a1f578381815181106139c7577f4e487b7100000000000000000000000000000000000000000000000000000000600052603260045260246000fd5b602002602001015173ffffffffffffffffffffffffffffffffffffffff168373ffffffffffffffffffffffffffffffffffffffff161415613a0c576001915050613a25565b8080613a1790615c05565b915050613985565b50600090505b92915050565b6040518060400160405280600060ff16815260200160006004811115613a7a577f4e487b7100000000000000000000000000000000000000000000000000000000600052602160045260246000fd5b81525090565b828054613a8c90615bd3565b90600052602060002090601f016020900481019282613aae5760008555613af5565b82601f10613ac757803560ff1916838001178555613af5565b82800160010185558215613af5579182015b82811115613af4578235825591602001919060010190613ad9565b5b509050613b029190613b06565b5090565b5b80821115613b1f576000816000905550600101613b07565b5090565b6000613b36613b3184615824565b6157f3565b905082815260208101848484011115613b4e57600080fd5b613b59848285615b91565b509392505050565b600081359050613b7081615e04565b92915050565b600081359050613b8581615e1b565b92915050565b60008083601f840112613b9d57600080fd5b8235905067ffffffffffffffff811115613bb657600080fd5b602083019150836020820283011115613bce57600080fd5b9250929050565b600081905082602060030282011115613bed57600080fd5b92915050565b60008083601f840112613c0557600080fd5b8235905067ffffffffffffffff811115613c1e57600080fd5b602083019150836020820283011115613c3657600080fd5b9250929050565b60008083601f840112613c4f57600080fd5b8235905067ffffffffffffffff811115613c6857600080fd5b602083019150836020820283011115613c8057600080fd5b9250929050565b600081519050613c9681615e32565b92915050565b600081359050613cab81615e49565b92915050565b600081359050613cc081615e60565b92915050565b600081519050613cd581615e60565b92915050565b60008083601f840112613ced57600080fd5b8235905067ffffffffffffffff811115613d0657600080fd5b602083019150836001820283011115613d1e57600080fd5b9250929050565b600082601f830112613d3657600080fd5b8135613d46848260208601613b23565b91505092915050565b60008083601f840112613d6157600080fd5b8235905067ffffffffffffffff811115613d7a57600080fd5b602083019150836001820283011115613d9257600080fd5b9250929050565b600081359050613da881615e77565b92915050565b600081359050613dbd81615e8e565b92915050565b600060208284031215613dd557600080fd5b6000613de384828501613b61565b91505092915050565b600060208284031215613dfe57600080fd5b6000613e0c84828501613b76565b91505092915050565b60008060008060008060008060a0898b031215613e3157600080fd5b6000613e3f8b828c01613b61565b9850506020613e508b828c01613b61565b975050604089013567ffffffffffffffff811115613e6d57600080fd5b613e798b828c01613c3d565b9650965050606089013567ffffffffffffffff811115613e9857600080fd5b613ea48b828c01613c3d565b9450945050608089013567ffffffffffffffff811115613ec357600080fd5b613ecf8b828c01613cdb565b92509250509295985092959890939650565b600080600080600060808688031215613ef957600080fd5b6000613f0788828901613b61565b9550506020613f1888828901613b61565b9450506040613f2988828901613d99565b935050606086013567ffffffffffffffff811115613f4657600080fd5b613f5288828901613cdb565b92509250509295509295909350565b60008060008060008060a08789031215613f7a57600080fd5b6000613f8889828a01613b61565b9650506020613f9989828a01613b61565b9550506040613faa89828a01613d99565b9450506060613fbb89828a01613d99565b935050608087013567ffffffffffffffff811115613fd857600080fd5b613fe489828a01613cdb565b92509250509295509295509295565b60008060006040848603121561400857600080fd5b600061401686828701613b61565b935050602084013567ffffffffffffffff81111561403357600080fd5b61403f86828701613b8b565b92509250509250925092565b6000806000806000806000806000806101208b8d03121561406b57600080fd5b60006140798d828e01613b61565b9a505060208b013567ffffffffffffffff81111561409657600080fd5b6140a28d828e01613bd5565b99505060406140b38d828e01613b61565b98505060608b013567ffffffffffffffff8111156140d057600080fd5b6140dc8d828e01613b8b565b975097505060806140ef8d828e01613dae565b95505060a06141008d828e01613b76565b94505060c06141118d828e01613d99565b93505060e06141228d828e01613b61565b9250506101006141348d828e01613d99565b9150509295989b9194979a5092959850565b6000806020838503121561415957600080fd5b600083013567ffffffffffffffff81111561417357600080fd5b61417f85828601613bf3565b92509250509250929050565b60006020828403121561419d57600080fd5b60006141ab84828501613c87565b91505092915050565b600080604083850312156141c757600080fd5b60006141d585828601613c9c565b92505060206141e685828601613c9c565b9150509250929050565b6000806040838503121561420357600080fd5b600061421185828601613c9c565b925050602083013567ffffffffffffffff81111561422e57600080fd5b61423a85828601613d25565b9150509250929050565b60006020828403121561425657600080fd5b600061426484828501613cb1565b91505092915050565b60006020828403121561427f57600080fd5b600061428d84828501613cc6565b91505092915050565b600080602083850312156142a957600080fd5b600083013567ffffffffffffffff8111156142c357600080fd5b6142cf85828601613cdb565b92509250509250929050565b600080600080600080600080600060e08a8c0312156142f957600080fd5b60008a013567ffffffffffffffff81111561431357600080fd5b61431f8c828d01613cdb565b995099505060208a013567ffffffffffffffff81111561433e57600080fd5b61434a8c828d01613cdb565b9750975050604061435d8c828d01613d99565b955050606061436e8c828d01613d99565b945050608061437f8c828d01613d99565b93505060a06143908c828d01613b61565b92505060c06143a18c828d01613b76565b9150509295985092959850929598565b600080602083850312156143c457600080fd5b600083013567ffffffffffffffff8111156143de57600080fd5b6143ea85828601613d4f565b92509250509250929050565b60008060008060006060868803121561440e57600080fd5b600086013567ffffffffffffffff81111561442857600080fd5b61443488828901613d4f565b9550955050602086013567ffffffffffffffff81111561445357600080fd5b61445f88828901613d4f565b9350935050604061447288828901613d99565b9150509295509295909350565b60006020828403121561449157600080fd5b600061449f84828501613d99565b91505092915050565b60006144b48383614531565b60208301905092915050565b60006144cc8383614713565b60208301905092915050565b60006144e48383614731565b60208301905092915050565b60006144fc83836147e5565b905092915050565b61450d81615b0b565b82525050565b61451c81615b0b565b82525050565b61452b81615a53565b82525050565b61453a81615a41565b82525050565b61454981615a41565b82525050565b61455881615a41565b82525050565b61456f61456a82615a41565b615c7b565b82525050565b600061458082615884565b61458a81856158e2565b935061459583615854565b8060005b838110156145c65781516145ad88826144a8565b97506145b8836158bb565b925050600181019050614599565b5085935050505092915050565b60006145de8261588f565b6145e881856158f3565b93506145f383615864565b8060005b8381101561462457815161460b88826144c0565b9750614616836158c8565b9250506001810190506145f7565b5085935050505092915050565b600061463c8261588f565b6146468185615904565b935061465183615864565b8060005b8381101561468257815161466988826144d8565b9750614674836158c8565b925050600181019050614655565b5085935050505092915050565b600061469a8261589a565b6146a48185615915565b9350836020820285016146b685615874565b8060005b858110156146f257848403895281516146d385826144f0565b94506146de836158d5565b925060208a019950506001810190506146ba565b50829750879550505050505092915050565b61470d81615a65565b82525050565b61471c81615a71565b82525050565b61472b81615a71565b82525050565b61473a81615a71565b82525050565b61475161474c82615a71565b615c8d565b82525050565b61476081615a7b565b82525050565b60006147728385615937565b935061477f838584615b91565b61478883615dc5565b840190509392505050565b600061479f8385615948565b93506147ac838584615b91565b6147b583615dc5565b840190509392505050565b60006147cc8385615959565b93506147d9838584615b91565b82840190509392505050565b60006147f0826158a5565b6147fa8185615926565b935061480a818560208601615ba0565b61481381615dc5565b840191505092915050565b6000614829826158a5565b6148338185615937565b9350614843818560208601615ba0565b61484c81615dc5565b840191505092915050565b61486081615b1d565b82525050565b61486f81615b1d565b82525050565b61487e81615b2f565b82525050565b61488d81615b49565b82525050565b61489c81615b5b565b82525050565b60006148ae8385615964565b93506148bb838584615b91565b6148c483615dc5565b840190509392505050565b60006148db8385615975565b93506148e8838584615b91565b6148f183615dc5565b840190509392505050565b6000614907826158b0565b6149118185615964565b9350614921818560208601615ba0565b61492a81615dc5565b840191505092915050565b6000614942601583615964565b91507f4e4f545f454e4f5547485f544f5f5041595f46454500000000000000000000006000830152602082019050919050565b6000614982601483615964565b91507f434f4d4d495420414c52454144592045584953540000000000000000000000006000830152602082019050919050565b60006149c2600a83615964565b91507f6f766572206c696d6974000000000000000000000000000000000000000000006000830152602082019050919050565b6000614a02600983615964565b91507f4e4f20434f4d4d495400000000000000000000000000000000000000000000006000830152602082019050919050565b6000614a42601a83615964565b91507f4e4f545f4d4545545f4d494e494d554d5f475541524449414e530000000000006000830152602082019050919050565b6000614a82601b83615964565b91507f5574696c733a2065637265636f7665722072657475726e6564203000000000006000830152602082019050919050565b6000614ac2601d83615964565b91507f5574696c733a20496e76616c69642066756e6374696f6e5072656669780000006000830152602082019050919050565b6000614b02601783615964565b91507f434f4d4d495420414c52454144592052455645414c45440000000000000000006000830152602082019050919050565b6000614b42603a83615964565b91507f416464726573733a20756e61626c6520746f2073656e642076616c75652c207260008301527f6563697069656e74206d617920686176652072657665727465640000000000006020830152604082019050919050565b6000614ba8601d83615964565b91507f416464726573733a20696e73756666696369656e742062616c616e63650000006000830152602082019050919050565b6000614be8600b83615964565b91507f4e4f545f414c4c4f5745440000000000000000000000000000000000000000006000830152602082019050919050565b6000614c28601f83615964565b91507f5574696c733a2062616420762076616c756520696e207369676e6174757265006000830152602082019050919050565b6000614c68600e83615964565b91507f6d757374206265206d65746174780000000000000000000000000000000000006000830152602082019050919050565b6000614ca8602983615964565b91507f4e4f545f46524f4d5f57414c4c45545f4f525f4f574e45525f4f525f57414c4c60008301527f45545f4c4f434b454400000000000000000000000000000000000000000000006020830152604082019050919050565b6000614d0e601183615964565b91507f436f6d6d697420697320746f6f206f6c640000000000000000000000000000006000830152602082019050919050565b6000614d4e600e83615964565b91507f756e6b6e6f776e206d6574686f640000000000000000000000000000000000006000830152602082019050919050565b6000614d8e601c83615964565b91507f544d3a20696e76616c6964207369676e6174757265206c656e677468000000006000830152602082019050919050565b6000614dce600083615959565b9150600082019050919050565b6000614de8601783615964565b91507f446174616861736820646f6573206e6f74206d617463680000000000000000006000830152602082019050919050565b6000614e28601783615964565b91507f496e76616c6964206f776e6572207369676e61747572650000000000000000006000830152602082019050919050565b606082016000820151614e716000850182614f38565b506020820151614e846020850182614f38565b506040820151614e976040850182614f38565b50505050565b604082016000820151614eb36000850182614531565b506020820151614ec66020850182614f38565b50505050565b604082016000820151614ee26000850182614531565b506020820151614ef56020850182614f38565b50505050565b604082016000820151614f116000850182614f74565b506020820151614f246020850182614866565b50505050565b8082525050565b8082525050565b614f4181615ae4565b82525050565b614f5081615ae4565b82525050565b614f5f81615ae4565b82525050565b614f6e81615afe565b82525050565b614f7d81615afe565b82525050565b6000614f8f828561455e565b601482019150614f9f8284614740565b6020820191508190509392505050565b6000614fbb8284614740565b60208201915081905092915050565b6000614fd78284866147c0565b91508190509392505050565b6000614fee82614dc1565b9150819050919050565b600060208201905061500d6000830184614540565b92915050565b60006060820190506150286000830186614540565b6150356020830185614540565b6150426040830184614f47565b949350505050565b600060a08201905061505f6000830189614540565b61506c6020830188614540565b6150796040830187614f47565b6150866060830186614f47565b8181036080830152615099818486614766565b9050979650505050505050565b60006101e0820190506150bc600083018e614540565b6150c9602083018d614704565b6150d6604083018c614f65565b6150e3606083018b614f47565b6150f0608083018a614522565b6150fd60a0830189614ecc565b61510a60e0830188614e5b565b81810361014083015261511d81876148fc565b905061512d610160830186614e9d565b61513b6101a0830185614540565b6151496101c0830184614f47565b9c9b505050505050505050505050565b600060208201905081810360008301526151738184614575565b905092915050565b6000602082019050818103600083015261519581846145d3565b905092915050565b600060208201905081810360008301526151b7818461468f565b905092915050565b60006020820190506151d46000830184614704565b92915050565b60006080820190506151ef6000830187614722565b6151fc6020830186614f65565b6152096040830185614722565b6152166060830184614722565b95945050505050565b60006020820190506152346000830184614757565b92915050565b60006080820190508181036000830152615254818761481e565b90506152636020830186614875565b6152706040830185614504565b61527d6060830184614884565b95945050505050565b600060808201905081810360008301526152a0818761481e565b90506152af6020830186614875565b6152bc6040830185614504565b6152c96060830184614f47565b95945050505050565b600060608201905081810360008301526152ed8187896148a2565b905081810360208301526153028185876148a2565b90506153116040830184614893565b9695505050505050565b6000602082019050818103600083015261533581846148fc565b905092915050565b6000602082019050818103600083015261535681614935565b9050919050565b6000602082019050818103600083015261537681614975565b9050919050565b60006020820190508181036000830152615396816149b5565b9050919050565b600060208201905081810360008301526153b6816149f5565b9050919050565b600060208201905081810360008301526153d681614a35565b9050919050565b600060208201905081810360008301526153f681614a75565b9050919050565b6000602082019050818103600083015261541681614ab5565b9050919050565b6000602082019050818103600083015261543681614af5565b9050919050565b6000602082019050818103600083015261545681614b35565b9050919050565b6000602082019050818103600083015261547681614b9b565b9050919050565b6000602082019050818103600083015261549681614bdb565b9050919050565b600060208201905081810360008301526154b681614c1b565b9050919050565b600060208201905081810360008301526154d681614c5b565b9050919050565b600060208201905081810360008301526154f681614c9b565b9050919050565b6000602082019050818103600083015261551681614d01565b9050919050565b6000602082019050818103600083015261553681614d41565b9050919050565b6000602082019050818103600083015261555681614d81565b9050919050565b6000602082019050818103600083015261557681614ddb565b9050919050565b6000602082019050818103600083015261559681614e1b565b9050919050565b60006040820190506155b26000830185614f2a565b6155bf602083018461454f565b9392505050565b60006040820190506155db6000830185614f2a565b81810360208301526155ed8184614631565b90509392505050565b600060808201905061560b6000830189614f2a565b818103602083015261561e8187896148cf565b905081810360408301526156338185876148cf565b90506156426060830184614f56565b979650505050505050565b600061012082019050615663600083018d614f31565b8181036020830152615676818b8d614793565b9050818103604083015261568b81898b614793565b905061569a6060830188614f56565b6156a76080830187614f56565b6156b460a0830186614f56565b6156c160c0830185614513565b6156ce60e0830184614efb565b9b9a5050505050505050505050565b60006020820190506156f26000830184614f47565b92915050565b600060408201905061570d6000830185614f65565b61571a6020830184614857565b9392505050565b6000808335600160200384360303811261573a57600080fd5b80840192508235915067ffffffffffffffff82111561575857600080fd5b60208301925060018202360383131561577057600080fd5b509250929050565b6000808335600160200384360303811261579157600080fd5b80840192508235915067ffffffffffffffff8211156157af57600080fd5b6020830192506001820236038313156157c757600080fd5b509250929050565b6000823560016060038336030381126157e757600080fd5b80830191505092915050565b6000604051905081810181811067ffffffffffffffff8211171561581a57615819615d96565b5b8060405250919050565b600067ffffffffffffffff82111561583f5761583e615d96565b5b601f19601f8301169050602081019050919050565b6000819050602082019050919050565b6000819050602082019050919050565b6000819050602082019050919050565b600081519050919050565b600081519050919050565b600081519050919050565b600081519050919050565b600081519050919050565b6000602082019050919050565b6000602082019050919050565b6000602082019050919050565b600082825260208201905092915050565b600082825260208201905092915050565b600082825260208201905092915050565b600082825260208201905092915050565b600082825260208201905092915050565b600082825260208201905092915050565b600082825260208201905092915050565b600081905092915050565b600082825260208201905092915050565b600082825260208201905092915050565b600061599182615ae4565b915061599c83615ae4565b9250827fffffffffffffffffffffffffffffffffffffffffffffffffffffffffffffffff038211156159d1576159d0615cda565b5b828201905092915050565b60006159e782615ae4565b91506159f283615ae4565b925082615a0257615a01615d09565b5b828204905092915050565b6000615a1882615ae4565b9150615a2383615ae4565b925082821015615a3657615a35615cda565b5b828203905092915050565b6000615a4c82615ac4565b9050919050565b6000615a5e82615ac4565b9050919050565b60008115159050919050565b6000819050919050565b60007fffffffff0000000000000000000000000000000000000000000000000000000082169050919050565b6000819050615ab582615df0565b919050565b6000819050919050565b600073ffffffffffffffffffffffffffffffffffffffff82169050919050565b6000819050919050565b600063ffffffff82169050919050565b600060ff82169050919050565b6000615b1682615b6d565b9050919050565b6000615b2882615aa7565b9050919050565b6000615b42615b3d83615aba565b615dd6565b9050919050565b6000615b5482615ae4565b9050919050565b6000615b6682615ae4565b9050919050565b6000615b7882615b7f565b9050919050565b6000615b8a82615ac4565b9050919050565b82818337600083830152505050565b60005b83811015615bbe578082015181840152602081019050615ba3565b83811115615bcd576000848401525b50505050565b60006002820490506001821680615beb57607f821691505b60208210811415615bff57615bfe615d67565b5b50919050565b6000615c1082615ae4565b91507fffffffffffffffffffffffffffffffffffffffffffffffffffffffffffffffff821415615c4357615c42615cda565b5b600182019050919050565b6000615c5982615aee565b915063ffffffff821415615c7057615c6f615cda565b5b600182019050919050565b6000615c8682615c97565b9050919050565b6000819050919050565b6000615ca282615de3565b9050919050565b6000615cb482615ae4565b9150615cbf83615ae4565b925082615ccf57615cce615d09565b5b828206905092915050565b7f4e487b7100000000000000000000000000000000000000000000000000000000600052601160045260246000fd5b7f4e487b7100000000000000000000000000000000000000000000000000000000600052601260045260246000fd5b7f4e487b7100000000000000000000000000000000000000000000000000000000600052602160045260246000fd5b7f4e487b7100000000000000000000000000000000000000000000000000000000600052602260045260246000fd5b7f4e487b7100000000000000000000000000000000000000000000000000000000600052604160045260246000fd5b6000601f19601f8301169050919050565b60008160001b9050919050565b60008160601b9050919050565b60058110615e0157615e00615d38565b5b50565b615e0d81615a41565b8114615e1857600080fd5b50565b615e2481615a53565b8114615e2f57600080fd5b50565b615e3b81615a65565b8114615e4657600080fd5b50565b615e5281615a71565b8114615e5d57600080fd5b50565b615e6981615a7b565b8114615e7457600080fd5b50565b615e8081615ae4565b8114615e8b57600080fd5b50565b615e9781615afe565b8114615ea257600080fd5b5056fea2646970667358221220ff5fff2df95391b0bd6f7376a96d928178108f98202e6c884eed7abcbfedf4f264736f6c63430008000033",
  "immutableReferences": {},
  "source": "// SPDX-License-Identifier: GPL-3.0-only\n\npragma solidity >=0.7.6;\npragma experimental ABIEncoderV2;\n\nimport \"@openzeppelin/contracts/token/ERC721/IERC721Receiver.sol\";\nimport \"@openzeppelin/contracts/token/ERC1155/IERC1155Receiver.sol\";\nimport \"@openzeppelin/contracts/utils/Address.sol\";\n\nimport \"./core/wallet_data.sol\";\nimport \"./features/guardians.sol\";\nimport \"./features/daily_limit.sol\";\nimport \"./features/recovery.sol\";\nimport \"./features/metatx.sol\";\nimport \"./features/name_service.sol\";\n\ncontract TOTPWallet is IERC721Receiver, IERC1155Receiver {\n\n    using Address for address payable;\n    using Guardians for Core.Wallet;\n    using DailyLimit for Core.Wallet;\n    using Recovery for Core.Wallet;\n    using MetaTx for Core.Wallet;\n    using NameService for Core.Wallet;\n\n    // DATA LAYOUT - ALWAYS ADD NEW VAR TO LAST\n\n    address masterCopy;\n    Core.Wallet public wallet;\n    bool internal isImplementationContract;\n    uint public constant version = 2;\n    bytes4 private constant _INTERFACE_ID_ERC1271 = 0x1626ba7e;\n\n    // END OF DATA LAYOUT\n    struct Call {\n        address to;\n        uint256 value;\n        bytes data;\n    }\n\n    event Deposit(address indexed sender, uint value);\n    event WalletUpgraded(address newImpl);\n    event Initialized(address wallet, address refundAddress, uint refundFee);\n    event TransactionExecuted(bool indexed success, bytes returnData, bytes32 signedHash, address refundAddress, uint refundFee);\n    event Invoked(address indexed target, uint indexed value, bytes data, bool success, bytes returnData);\n\n    constructor() {\n        isImplementationContract = true;\n    }\n\n    modifier disableInImplementationContract\n    {\n        require(!isImplementationContract, \"DISALLOWED\");\n        _;\n    }\n\n    // keep methods <= 8 parameters of get stack to deep\n    function initialize(\n        address              resolver_,\n        string[3]   calldata domainAndHashId_, // empty means no registration\n        address             owner_, \n        bytes32[] calldata    rootHash_, \n        uint8               merkelHeight_, \n        address payable     drainAddr_, \n        uint                dailyLimit_,\n        address             feeRecipient,\n        uint                feeAmount\n        ) external \n        // disableInImplementationContract()\n    {\n        wallet.resolver = resolver_;\n\n        //emit DebugEvent256(address(this).balance);\n        require(wallet.owner == address(0), \"NOT_ALLOWED\");\n        require(address(this).balance >= feeAmount, \"NOT_ENOUGH_TO_PAY_FEE\");\n\n        wallet.owner = owner_;\n        for (uint32 i = 0; i < rootHash_.length; i++) {\n             wallet.rootHash.push(rootHash_[i]);\n        }        \n        wallet.merkelHeight = merkelHeight_;\n        wallet.drainAddr = drainAddr_;\n        wallet.dailyLimit.limit = dailyLimit_;\n\n        // STACK TOO DEEP\n        if(bytes(domainAndHashId_[0]).length > 0) {\n            this.registerENS(domainAndHashId_[0], domainAndHashId_[1], 60 * 60 * 24 * 365);\n        }\n\n        if (feeRecipient != address(0)) {\n            payable(feeRecipient).sendValue(feeAmount);\n            emit Initialized(address(this), feeRecipient, feeAmount);\n        }  \n        \n        wallet.hashStorageID = domainAndHashId_[2];        \n    }   \n\n    function registerENS(string calldata subdomain, string calldata domain, uint duration) external onlyFromWalletOrOwnerWhenUnlocked() {\n        wallet.registerENS(subdomain, domain, duration);\n    }\n\n    modifier onlyFromWalletOrOwnerWhenUnlocked()\n    {\n        require(\n            msg.sender == address(this) ||\n            (msg.sender == wallet.owner && !wallet.locked),\n             \"NOT_FROM_WALLET_OR_OWNER_OR_WALLET_LOCKED\"\n        );\n        _;\n    }\n\n    modifier onlySelf() {\n        require(msg.sender == address(this), \"must be metatx\");\n        _;\n    }\n\n    // confirmMaterial contains OTP + intermediatory hashes + sides\n    modifier onlyValidTOTP(bytes32[] memory confirmMaterial) \n    {\n        // revert if false\n        wallet.isValidHOTP(confirmMaterial);\n        _;\n    }\n\n    function isRestrictedMethod(bytes4 methodId) internal pure returns (bool) {\n        return (methodId == TOTPWallet.upgradeMasterCopy.selector ||\n            methodId == TOTPWallet.setDailyLimit.selector ||\n            methodId == TOTPWallet.setDrainAddress.selector);\n    }\n\n    function getRequiredSignatures(bytes calldata _data) public view returns (uint8, Core.OwnerSignature) {\n        bytes4 methodId = MetaTx.functionPrefix(_data);\n\n        if(methodId == TOTPWallet.multiCall.selector ||\n            methodId == TOTPWallet.addGuardian.selector ||\n            methodId == TOTPWallet.revokeGuardian.selector||\n            methodId == TOTPWallet.clearSession.selector||\n            methodId == TOTPWallet.setHashStorageId.selector) {\n            return (1, Core.OwnerSignature.Required);\n        }\n\n        // these will be called on multiCallWithSession with guardians\n        if(wallet.guardians.length == 0) {\n            if(isRestrictedMethod(methodId)) {\n                return (1, Core.OwnerSignature.Required); \n            }\n        } else {\n            if(methodId == TOTPWallet.startSession.selector) {          \n                // owner + 1 guardian   => require 2\n                // owner + 2 guardian   => require 2\n                // owner + 3 guardian   => require 3            \n                return (uint8(MetaTx.ceil(wallet.guardians.length, 2) + 1), Core.OwnerSignature.Required);  \n            }\n            if(methodId == TOTPWallet.multiCallWithSession.selector) {\n                return (1, Core.OwnerSignature.Session); \n            }\n        }\n\n        if(methodId == TOTPWallet.startRecoverGuardianOnly.selector) {\n            require(wallet.guardians.length >= 2, \"NOT_MEET_MINIMUM_GUARDIANS\");\n            uint requiredSignatures = MetaTx.ceil(wallet.guardians.length, 2);\n            return (uint8(requiredSignatures), Core.OwnerSignature.Disallowed);            \n        }\n\n        // 1 of 1 = 0 sig\n        // 2 of 2 = 1 sig + HOTP\n        // 2 of 3 = 1 sig + HOTP\n        if(methodId == TOTPWallet.startRecoverCommit.selector) {\n            uint requiredSignatures = MetaTx.ceil(wallet.guardians.length, 2);\n            return (uint8(requiredSignatures), Core.OwnerSignature.Disallowed);            \n        }\n        if(methodId == TOTPWallet.startRecoveryReveal.selector) {\n            return (0, Core.OwnerSignature.Disallowed);            \n        }\n        \n        revert(\"unknown method\");\n    }    \n\n    function executeMetaTx(\n            bytes   calldata data,\n            bytes   calldata signatures, \n            uint256 nonce,\n            uint256 gasPrice,\n            uint256 gasLimit,\n            address /*refundToken*/,\n            address payable refundAddress            \n        ) external \n    {\n        uint gasLeft = gasleft();        \n        Core.SignatureRequirement memory sigRequirement;        \n        (sigRequirement.requiredSignatures, sigRequirement.ownerSignatureRequirement) = getRequiredSignatures(data);        \n\n        MetaTx.validateTx(wallet, data, signatures, nonce, gasPrice, gasLimit, refundAddress, sigRequirement);\n\n        bool success;\n        bytes memory returnData;\n        (success, returnData) = address(this).call(data);\n\n        if(gasPrice > 0 && success && refundAddress != address(0x0)) {\n            uint gasUsed = gasLeft - gasleft() + 70000; //35k overhead\n            refundAddress.transfer(gasUsed);\n            emit TransactionExecuted(success, returnData, 0x0, refundAddress, gasUsed);\n        } else {\n            emit TransactionExecuted(success, returnData, 0x0, refundAddress, 0);        \n        }\n    }\n\n    function multiCall(Call[] calldata _transactions) external onlyFromWalletOrOwnerWhenUnlocked() returns (bytes[] memory) {\n        bytes[] memory results = new bytes[](_transactions.length);\n        for(uint i = 0; i < _transactions.length; i++) {\n            bytes calldata data = _transactions[i].data;\n            uint value = _transactions[i].value;\n            \n            if(wallet.guardians.length > 0) {\n                require(data.length < 4 || !isRestrictedMethod(MetaTx.functionPrefix(data))); \n                require(wallet.isUnderLimit(value), \"over limit\");\n                wallet.dailyLimit.spentToday += value;\n            }\n            results[i] = MetaTx.invoke(_transactions[i].to, value, data);\n        }\n        return results;\n    }\n\n    function multiCallWithSession(Call[] calldata _transactions) external onlySelf() returns (bytes[] memory) {\n        bytes[] memory results = new bytes[](_transactions.length);\n        for(uint i = 0; i < _transactions.length; i++) {\n            results[i] = MetaTx.invoke(_transactions[i].to, _transactions[i].value, _transactions[i].data);\n        }\n        return results;\n    }\n\n    /**\n     * startSession can only be started by majority of guardians\n     */\n    function startSession(uint duration) external onlySelf() {\n        wallet.session.key = wallet.owner;\n        wallet.session.expires = uint(block.timestamp + duration);\n    }\n\n    function clearSession()  external onlyFromWalletOrOwnerWhenUnlocked() {\n        wallet.session.expires = 0;\n    }\n\n    function getOwner()  public\n        view\n        returns (address) \n    {\n        return wallet.owner;  \n    }\n\n    function getCounter()  public\n        view\n        returns (uint) \n    {\n        return wallet.counter;\n    }    \n\n    function setHashStorageId(string calldata id) external  onlyFromWalletOrOwnerWhenUnlocked()  {\n        wallet.hashStorageID = id;\n    }\n\n    function getHashStorageId() public view  returns (string memory){\n        return wallet.hashStorageID;\n    }\n    \n    function getRootHashes()\n         public\n         view\n         returns (bytes32[] memory )\n     {\n         return wallet.rootHash;\n     }\n\n    function setDrainAddress(address payable addr) external onlySelf() {\n        wallet.drainAddr = addr;\n    }\n\n    function setDailyLimit(uint amount) external onlySelf() {\n        wallet.dailyLimit.limit = amount;\n    }\n    //\n    // Guardians functions\n    //\n    function addGuardian(address guardian)\n        external\n        onlyFromWalletOrOwnerWhenUnlocked()\n    {\n        wallet.addGuardian(guardian);\n    }\n\n    function revokeGuardian(address guardian)\n        external\n        onlyFromWalletOrOwnerWhenUnlocked()\n    {\n        wallet.revokeGuardian(guardian);\n    }\n\n    function isGuardian(address addr)\n         public\n         view\n         returns (bool)\n     {\n         return wallet.isGuardian(addr);\n     }\n\n     function getGuardians()\n         public\n         view\n         returns (address[] memory )\n     {\n         return wallet.guardians;\n     }\n\n    //\n    // Recovery functions\n    //\n    // In default setup with only HOTP setup, wallet recovery is done on its own.\n    // In a more secure setup with HOTP + guardians, HOTP is considered as 1 guardian.\n    //\n    // Relay/or other coordinating system will coordinate the signatures collections \n    // from guardian and submit along with the HOTP together. In rare case, HOTP may be ommitted\n    // when greater than 2 guardians can recover without HOTP.\n    function startRecoverGuardianOnly(address newOwner_) onlySelf() external {\n        // move into recovery state\n        wallet.startRecovery(newOwner_);\n    }\n\n    // recover with combination of commithash and signatures\n    function startRecoverCommit(bytes32 secretHash, bytes32 dataHash)  onlySelf() external {\n        require(wallet.commitHash[secretHash].blockNumber == 0, \"COMMIT ALREADY EXIST\");\n        wallet.commitHash[secretHash] = Core.CommitInfo(dataHash, block.number, false);\n    }\n\n    function startRecoveryReveal(address newOwner, bytes32[] calldata confirmMaterial)  onlySelf() onlyValidTOTP(confirmMaterial) external {\n        bytes32 secretHash = keccak256(abi.encodePacked(confirmMaterial[0]));\n        require(wallet.commitHash[secretHash].blockNumber != 0, \"NO COMMIT\");\n        require(wallet.commitHash[secretHash].revealed == false, \"COMMIT ALREADY REVEALED\");\n        require(block.number - wallet.commitHash[secretHash].blockNumber < 15, \"Commit is too old\");\n\n        bytes32 hash = keccak256(abi.encodePacked(newOwner, confirmMaterial[0]));\n        require(hash == wallet.commitHash[secretHash].dataHash, \"Datahash does not match\");\n\n        wallet.commitHash[secretHash].revealed = true;\n        wallet.owner = newOwner;\n        wallet.counter = wallet.counter + 1;\n    }\n\n    function upgradeMasterCopy(address newMasterCopy) external onlySelf() {\n        masterCopy = newMasterCopy;\n        emit WalletUpgraded(newMasterCopy);\n    }\n\n    function getMasterCopy() public view returns (address) {\n        return masterCopy;\n    }\n\n    //\n    // ERC1155 support\n    //\n    function onERC1155Received(\n        address,\n        address,\n        uint256,\n        uint256,\n        bytes calldata\n    ) external pure override returns (bytes4){\n        return this.onERC1155Received.selector;\n    }\n\n    function onERC1155BatchReceived(address operator, address from, uint256[] calldata ids, uint256[] calldata values, bytes calldata data) external view override returns (bytes4){\n        for (uint32 i = 0; i < ids.length; i++) {\n            this.onERC1155Received(operator, from, ids[i], values[i], data);\n        }\n        return this.onERC1155BatchReceived.selector;\n    }\n\n    function supportsInterface(bytes4 interfaceID) external override pure returns (bool) {\n        return interfaceID == this.supportsInterface.selector ||\n        interfaceID == this.onERC1155Received.selector ||\n        interfaceID == this.onERC721Received.selector ||\n        interfaceID == _INTERFACE_ID_ERC1271;\n    }\n\n    function onERC721Received(\n        address,\n        address,\n        uint256,\n        bytes calldata\n    ) external pure override returns (bytes4){\n        return this.onERC721Received.selector;\n    }\n\n    /**\n    * @notice Implementation of EIP 1271.\n    * Should return whether the signature provided is valid for the provided data.\n    * @param _msgHash Hash of a message signed on the behalf of address(this)\n    * @param _signature Signature byte array associated with _msgHash\n    */\n    function isValidSignature(bytes32 _msgHash, bytes memory _signature) external view returns (bytes4) {\n        require(_signature.length == 65, \"TM: invalid signature length\");\n        require(MetaTx.validateSignatures(wallet, _msgHash, _signature, Core.OwnerSignature.Required), \"Invalid owner signature\");\n        return _INTERFACE_ID_ERC1271;\n    }\n\n    //\n    // Utility functions\n    //\n\n    /// @dev Fallback function allows to deposit ether.\n    receive() external payable {\n        /*\n        if (msg.value > 0) {\n            if(msg.sender == wallet.drainAddr && msg.value == 1 ether) {\n                uint amount = address(this).balance;\n                (bool success,) = wallet.drainAddr.call{value: amount, gas: 100000}(\"\");\n                require(success, \"Receive: External call failed\");\n            }\n            emit Deposit(msg.sender, msg.value);\n        }*/\n    }\n\n}\n",
  "sourcePath": "/home/quoc/Projects/harmony-totp-pure/contracts/otp_wallet.sol",
  "compiler": {
    "name": "solc",
    "version": "0.8.0+commit.c7dfd78e.Emscripten.clang"
  },
  "schemaVersion": "3.3.4",
  "updatedAt": "2021-10-15T16:49:20.757Z",
  "networkType": "ethereum",
  "devdoc": {
    "kind": "dev",
    "methods": {
      "isValidSignature(bytes32,bytes)": {
        "params": {
          "_msgHash": "Hash of a message signed on the behalf of address(this)",
          "_signature": "Signature byte array associated with _msgHash"
        }
      },
      "onERC1155BatchReceived(address,address,uint256[],uint256[],bytes)": {
        "details": "Handles the receipt of a multiple ERC1155 token types. This function is called at the end of a `safeBatchTransferFrom` after the balances have been updated. To accept the transfer(s), this must return `bytes4(keccak256(\"onERC1155BatchReceived(address,address,uint256[],uint256[],bytes)\"))` (i.e. 0xbc197c81, or its own function selector).",
        "params": {
          "data": "Additional data with no specified format",
          "from": "The address which previously owned the token",
          "ids": "An array containing ids of each token being transferred (order and length must match values array)",
          "operator": "The address which initiated the batch transfer (i.e. msg.sender)",
          "values": "An array containing amounts of each token being transferred (order and length must match ids array)"
        },
        "returns": {
          "_0": "`bytes4(keccak256(\"onERC1155BatchReceived(address,address,uint256[],uint256[],bytes)\"))` if transfer is allowed"
        }
      }
    },
    "version": 1
  },
  "userdoc": {
    "kind": "user",
    "methods": {
      "isValidSignature(bytes32,bytes)": {
        "notice": "Implementation of EIP 1271. Should return whether the signature provided is valid for the provided data."
      },
      "startSession(uint256)": {
        "notice": "startSession can only be started by majority of guardians"
      }
    },
    "version": 1
  }
}