{
  "contractName": "ERC1155SampleToken",
  "abi": [
    {
      "inputs": [],
      "stateMutability": "nonpayable",
      "type": "constructor"
    },
    {
      "anonymous": false,
      "inputs": [
        {
          "indexed": true,
          "internalType": "address",
          "name": "account",
          "type": "address"
        },
        {
          "indexed": true,
          "internalType": "address",
          "name": "operator",
          "type": "address"
        },
        {
          "indexed": false,
          "internalType": "bool",
          "name": "approved",
          "type": "bool"
        }
      ],
      "name": "ApprovalForAll",
      "type": "event"
    },
    {
      "anonymous": false,
      "inputs": [
        {
          "indexed": true,
          "internalType": "address",
          "name": "operator",
          "type": "address"
        },
        {
          "indexed": true,
          "internalType": "address",
          "name": "from",
          "type": "address"
        },
        {
          "indexed": true,
          "internalType": "address",
          "name": "to",
          "type": "address"
        },
        {
          "indexed": false,
          "internalType": "uint256[]",
          "name": "ids",
          "type": "uint256[]"
        },
        {
          "indexed": false,
          "internalType": "uint256[]",
          "name": "values",
          "type": "uint256[]"
        }
      ],
      "name": "TransferBatch",
      "type": "event"
    },
    {
      "anonymous": false,
      "inputs": [
        {
          "indexed": true,
          "internalType": "address",
          "name": "operator",
          "type": "address"
        },
        {
          "indexed": true,
          "internalType": "address",
          "name": "from",
          "type": "address"
        },
        {
          "indexed": true,
          "internalType": "address",
          "name": "to",
          "type": "address"
        },
        {
          "indexed": false,
          "internalType": "uint256",
          "name": "id",
          "type": "uint256"
        },
        {
          "indexed": false,
          "internalType": "uint256",
          "name": "value",
          "type": "uint256"
        }
      ],
      "name": "TransferSingle",
      "type": "event"
    },
    {
      "anonymous": false,
      "inputs": [
        {
          "indexed": false,
          "internalType": "string",
          "name": "value",
          "type": "string"
        },
        {
          "indexed": true,
          "internalType": "uint256",
          "name": "id",
          "type": "uint256"
        }
      ],
      "name": "URI",
      "type": "event"
    },
    {
      "inputs": [],
      "name": "GOLD",
      "outputs": [
        {
          "internalType": "uint256",
          "name": "",
          "type": "uint256"
        }
      ],
      "stateMutability": "view",
      "type": "function"
    },
    {
      "inputs": [],
      "name": "SHIELD",
      "outputs": [
        {
          "internalType": "uint256",
          "name": "",
          "type": "uint256"
        }
      ],
      "stateMutability": "view",
      "type": "function"
    },
    {
      "inputs": [],
      "name": "SILVER",
      "outputs": [
        {
          "internalType": "uint256",
          "name": "",
          "type": "uint256"
        }
      ],
      "stateMutability": "view",
      "type": "function"
    },
    {
      "inputs": [],
      "name": "SWORD",
      "outputs": [
        {
          "internalType": "uint256",
          "name": "",
          "type": "uint256"
        }
      ],
      "stateMutability": "view",
      "type": "function"
    },
    {
      "inputs": [],
      "name": "THORS_HAMMER",
      "outputs": [
        {
          "internalType": "uint256",
          "name": "",
          "type": "uint256"
        }
      ],
      "stateMutability": "view",
      "type": "function"
    },
    {
      "inputs": [
        {
          "internalType": "address",
          "name": "account",
          "type": "address"
        },
        {
          "internalType": "uint256",
          "name": "id",
          "type": "uint256"
        }
      ],
      "name": "balanceOf",
      "outputs": [
        {
          "internalType": "uint256",
          "name": "",
          "type": "uint256"
        }
      ],
      "stateMutability": "view",
      "type": "function"
    },
    {
      "inputs": [
        {
          "internalType": "address[]",
          "name": "accounts",
          "type": "address[]"
        },
        {
          "internalType": "uint256[]",
          "name": "ids",
          "type": "uint256[]"
        }
      ],
      "name": "balanceOfBatch",
      "outputs": [
        {
          "internalType": "uint256[]",
          "name": "",
          "type": "uint256[]"
        }
      ],
      "stateMutability": "view",
      "type": "function"
    },
    {
      "inputs": [
        {
          "internalType": "address",
          "name": "account",
          "type": "address"
        },
        {
          "internalType": "address",
          "name": "operator",
          "type": "address"
        }
      ],
      "name": "isApprovedForAll",
      "outputs": [
        {
          "internalType": "bool",
          "name": "",
          "type": "bool"
        }
      ],
      "stateMutability": "view",
      "type": "function"
    },
    {
      "inputs": [
        {
          "internalType": "address",
          "name": "from",
          "type": "address"
        },
        {
          "internalType": "address",
          "name": "to",
          "type": "address"
        },
        {
          "internalType": "uint256[]",
          "name": "ids",
          "type": "uint256[]"
        },
        {
          "internalType": "uint256[]",
          "name": "amounts",
          "type": "uint256[]"
        },
        {
          "internalType": "bytes",
          "name": "data",
          "type": "bytes"
        }
      ],
      "name": "safeBatchTransferFrom",
      "outputs": [],
      "stateMutability": "nonpayable",
      "type": "function"
    },
    {
      "inputs": [
        {
          "internalType": "address",
          "name": "from",
          "type": "address"
        },
        {
          "internalType": "address",
          "name": "to",
          "type": "address"
        },
        {
          "internalType": "uint256",
          "name": "id",
          "type": "uint256"
        },
        {
          "internalType": "uint256",
          "name": "amount",
          "type": "uint256"
        },
        {
          "internalType": "bytes",
          "name": "data",
          "type": "bytes"
        }
      ],
      "name": "safeTransferFrom",
      "outputs": [],
      "stateMutability": "nonpayable",
      "type": "function"
    },
    {
      "inputs": [
        {
          "internalType": "address",
          "name": "operator",
          "type": "address"
        },
        {
          "internalType": "bool",
          "name": "approved",
          "type": "bool"
        }
      ],
      "name": "setApprovalForAll",
      "outputs": [],
      "stateMutability": "nonpayable",
      "type": "function"
    },
    {
      "inputs": [
        {
          "internalType": "bytes4",
          "name": "interfaceId",
          "type": "bytes4"
        }
      ],
      "name": "supportsInterface",
      "outputs": [
        {
          "internalType": "bool",
          "name": "",
          "type": "bool"
        }
      ],
      "stateMutability": "view",
      "type": "function"
    },
    {
      "inputs": [
        {
          "internalType": "uint256",
          "name": "",
          "type": "uint256"
        }
      ],
      "name": "uri",
      "outputs": [
        {
          "internalType": "string",
          "name": "",
          "type": "string"
        }
      ],
      "stateMutability": "view",
      "type": "function"
    },
    {
      "inputs": [
        {
          "internalType": "address",
          "name": "to",
          "type": "address"
        },
        {
          "internalType": "uint256",
          "name": "tokenId",
          "type": "uint256"
        },
        {
          "internalType": "uint256",
          "name": "amount",
          "type": "uint256"
        }
      ],
      "name": "mint",
      "outputs": [],
      "stateMutability": "nonpayable",
      "type": "function"
    }
  ],
  "bytecode": "0x60806040523480156200001157600080fd5b5060405180606001604052806027815260200162002aaf602791396200003d816200004460201b60201c565b5062000175565b80600290805190602001906200005c92919062000060565b5050565b8280546200006e9062000110565b90600052602060002090601f016020900481019282620000925760008555620000de565b82601f10620000ad57805160ff1916838001178555620000de565b82800160010185558215620000de579182015b82811115620000dd578251825591602001919060010190620000c0565b5b509050620000ed9190620000f1565b5090565b5b808211156200010c576000816000905550600101620000f2565b5090565b600060028204905060018216806200012957607f821691505b6020821081141562000140576200013f62000146565b5b50919050565b7f4e487b7100000000000000000000000000000000000000000000000000000000600052602260045260246000fd5b61292a80620001856000396000f3fe608060405234801561001057600080fd5b50600436106100e95760003560e01c80634e1273f41161008c578063d562e20411610066578063d562e2041461025c578063e3e55f081461027a578063e985e9c514610298578063f242432a146102c8576100e9565b80634e1273f4146101f25780635b2725ed14610222578063a22cb46514610240576100e9565b806313dc989f116100c857806313dc989f1461017e578063156e29f61461019c5780632eb2c2d6146101b85780633e4bee38146101d4576100e9565b8062fdd58e146100ee57806301ffc9a71461011e5780630e89341c1461014e575b600080fd5b61010860048036038101906101039190611a92565b6102e4565b6040516101159190612442565b60405180910390f35b61013860048036038101906101339190611b89565b6103ad565b60405161014591906122a5565b60405180910390f35b61016860048036038101906101639190611bdb565b61048f565b60405161017591906122c0565b60405180910390f35b610186610523565b6040516101939190612442565b60405180910390f35b6101b660048036038101906101b19190611ace565b610528565b005b6101d260048036038101906101cd9190611908565b610548565b005b6101dc6105e9565b6040516101e99190612442565b60405180910390f35b61020c60048036038101906102079190611b1d565b6105ee565b604051610219919061224c565b60405180910390f35b61022a61079f565b6040516102379190612442565b60405180910390f35b61025a60048036038101906102559190611a56565b6107a4565b005b610264610925565b6040516102719190612442565b60405180910390f35b61028261092a565b60405161028f9190612442565b60405180910390f35b6102b260048036038101906102ad91906118cc565b61092f565b6040516102bf91906122a5565b60405180910390f35b6102e260048036038101906102dd91906119c7565b6109c3565b005b60008073ffffffffffffffffffffffffffffffffffffffff168373ffffffffffffffffffffffffffffffffffffffff161415610355576040517f08c379a000000000000000000000000000000000000000000000000000000000815260040161034c90612322565b60405180910390fd5b60008083815260200190815260200160002060008473ffffffffffffffffffffffffffffffffffffffff1673ffffffffffffffffffffffffffffffffffffffff16815260200190815260200160002054905092915050565b60007fd9b67a26000000000000000000000000000000000000000000000000000000007bffffffffffffffffffffffffffffffffffffffffffffffffffffffff1916827bffffffffffffffffffffffffffffffffffffffffffffffffffffffff1916148061047857507f0e89341c000000000000000000000000000000000000000000000000000000007bffffffffffffffffffffffffffffffffffffffffffffffffffffffff1916827bffffffffffffffffffffffffffffffffffffffffffffffffffffffff1916145b80610488575061048782610a64565b5b9050919050565b60606002805461049e906126bc565b80601f01602080910402602001604051908101604052809291908181526020018280546104ca906126bc565b80156105175780601f106104ec57610100808354040283529160200191610517565b820191906000526020600020905b8154815290600101906020018083116104fa57829003601f168201915b50505050509050919050565b600381565b61054383838360405180602001604052806000815250610ace565b505050565b610550610c64565b73ffffffffffffffffffffffffffffffffffffffff168573ffffffffffffffffffffffffffffffffffffffff161480610596575061059585610590610c64565b61092f565b5b6105d5576040517f08c379a00000000000000000000000000000000000000000000000000000000081526004016105cc90612382565b60405180910390fd5b6105e28585858585610c6c565b5050505050565b600081565b60608151835114610634576040517f08c379a000000000000000000000000000000000000000000000000000000000815260040161062b906123e2565b60405180910390fd5b6000835167ffffffffffffffff811115610677577f4e487b7100000000000000000000000000000000000000000000000000000000600052604160045260246000fd5b6040519080825280602002602001820160405280156106a55781602001602082028036833780820191505090505b50905060005b84518110156107945761073e8582815181106106f0577f4e487b7100000000000000000000000000000000000000000000000000000000600052603260045260246000fd5b6020026020010151858381518110610731577f4e487b7100000000000000000000000000000000000000000000000000000000600052603260045260246000fd5b60200260200101516102e4565b828281518110610777577f4e487b7100000000000000000000000000000000000000000000000000000000600052603260045260246000fd5b6020026020010181815250508061078d906126ee565b90506106ab565b508091505092915050565b600481565b8173ffffffffffffffffffffffffffffffffffffffff166107c3610c64565b73ffffffffffffffffffffffffffffffffffffffff16141561081a576040517f08c379a0000000000000000000000000000000000000000000000000000000008152600401610811906123c2565b60405180910390fd5b8060016000610827610c64565b73ffffffffffffffffffffffffffffffffffffffff1673ffffffffffffffffffffffffffffffffffffffff16815260200190815260200160002060008473ffffffffffffffffffffffffffffffffffffffff1673ffffffffffffffffffffffffffffffffffffffff16815260200190815260200160002060006101000a81548160ff0219169083151502179055508173ffffffffffffffffffffffffffffffffffffffff166108d4610c64565b73ffffffffffffffffffffffffffffffffffffffff167f17307eab39ab6107e8899845ad3d59bd9653f200f220920489ca2b5937696c318360405161091991906122a5565b60405180910390a35050565b600281565b600181565b6000600160008473ffffffffffffffffffffffffffffffffffffffff1673ffffffffffffffffffffffffffffffffffffffff16815260200190815260200160002060008373ffffffffffffffffffffffffffffffffffffffff1673ffffffffffffffffffffffffffffffffffffffff16815260200190815260200160002060009054906101000a900460ff16905092915050565b6109cb610c64565b73ffffffffffffffffffffffffffffffffffffffff168573ffffffffffffffffffffffffffffffffffffffff161480610a115750610a1085610a0b610c64565b61092f565b5b610a50576040517f08c379a0000000000000000000000000000000000000000000000000000000008152600401610a4790612342565b60405180910390fd5b610a5d8585858585610fcc565b5050505050565b60007f01ffc9a7000000000000000000000000000000000000000000000000000000007bffffffffffffffffffffffffffffffffffffffffffffffffffffffff1916827bffffffffffffffffffffffffffffffffffffffffffffffffffffffff1916149050919050565b600073ffffffffffffffffffffffffffffffffffffffff168473ffffffffffffffffffffffffffffffffffffffff161415610b3e576040517f08c379a0000000000000000000000000000000000000000000000000000000008152600401610b3590612422565b60405180910390fd5b6000610b48610c64565b9050610b6981600087610b5a8861124e565b610b638861124e565b87611314565b8260008086815260200190815260200160002060008773ffffffffffffffffffffffffffffffffffffffff1673ffffffffffffffffffffffffffffffffffffffff1681526020019081526020016000206000828254610bc891906125b0565b925050819055508473ffffffffffffffffffffffffffffffffffffffff16600073ffffffffffffffffffffffffffffffffffffffff168273ffffffffffffffffffffffffffffffffffffffff167fc3d58168c5ae7397731d063d5bbf3d657854427343f4c083240f7aacaa2d0f628787604051610c4692919061245d565b60405180910390a4610c5d8160008787878761131c565b5050505050565b600033905090565b8151835114610cb0576040517f08c379a0000000000000000000000000000000000000000000000000000000008152600401610ca790612402565b60405180910390fd5b600073ffffffffffffffffffffffffffffffffffffffff168473ffffffffffffffffffffffffffffffffffffffff161415610d20576040517f08c379a0000000000000000000000000000000000000000000000000000000008152600401610d1790612362565b60405180910390fd5b6000610d2a610c64565b9050610d3a818787878787611314565b60005b8451811015610f37576000858281518110610d81577f4e487b7100000000000000000000000000000000000000000000000000000000600052603260045260246000fd5b602002602001015190506000858381518110610dc6577f4e487b7100000000000000000000000000000000000000000000000000000000600052603260045260246000fd5b60200260200101519050600080600084815260200190815260200160002060008b73ffffffffffffffffffffffffffffffffffffffff1673ffffffffffffffffffffffffffffffffffffffff16815260200190815260200160002054905081811015610e67576040517f08c379a0000000000000000000000000000000000000000000000000000000008152600401610e5e906123a2565b60405180910390fd5b81810360008085815260200190815260200160002060008c73ffffffffffffffffffffffffffffffffffffffff1673ffffffffffffffffffffffffffffffffffffffff168152602001908152602001600020819055508160008085815260200190815260200160002060008b73ffffffffffffffffffffffffffffffffffffffff1673ffffffffffffffffffffffffffffffffffffffff1681526020019081526020016000206000828254610f1c91906125b0565b9250508190555050505080610f30906126ee565b9050610d3d565b508473ffffffffffffffffffffffffffffffffffffffff168673ffffffffffffffffffffffffffffffffffffffff168273ffffffffffffffffffffffffffffffffffffffff167f4a39dc06d4c0dbc64b70af90fd698a233a518aa5d07e595d983b8c0526c8f7fb8787604051610fae92919061226e565b60405180910390a4610fc48187878787876114ec565b505050505050565b600073ffffffffffffffffffffffffffffffffffffffff168473ffffffffffffffffffffffffffffffffffffffff16141561103c576040517f08c379a000000000000000000000000000000000000000000000000000000000815260040161103390612362565b60405180910390fd5b6000611046610c64565b90506110668187876110578861124e565b6110608861124e565b87611314565b600080600086815260200190815260200160002060008873ffffffffffffffffffffffffffffffffffffffff1673ffffffffffffffffffffffffffffffffffffffff168152602001908152602001600020549050838110156110fd576040517f08c379a00000000000000000000000000000000000000000000000000000000081526004016110f4906123a2565b60405180910390fd5b83810360008087815260200190815260200160002060008973ffffffffffffffffffffffffffffffffffffffff1673ffffffffffffffffffffffffffffffffffffffff168152602001908152602001600020819055508360008087815260200190815260200160002060008873ffffffffffffffffffffffffffffffffffffffff1673ffffffffffffffffffffffffffffffffffffffff16815260200190815260200160002060008282546111b291906125b0565b925050819055508573ffffffffffffffffffffffffffffffffffffffff168773ffffffffffffffffffffffffffffffffffffffff168373ffffffffffffffffffffffffffffffffffffffff167fc3d58168c5ae7397731d063d5bbf3d657854427343f4c083240f7aacaa2d0f62888860405161122f92919061245d565b60405180910390a461124582888888888861131c565b50505050505050565b60606000600167ffffffffffffffff811115611293577f4e487b7100000000000000000000000000000000000000000000000000000000600052604160045260246000fd5b6040519080825280602002602001820160405280156112c15781602001602082028036833780820191505090505b50905082816000815181106112ff577f4e487b7100000000000000000000000000000000000000000000000000000000600052603260045260246000fd5b60200260200101818152505080915050919050565b505050505050565b61133b8473ffffffffffffffffffffffffffffffffffffffff166116bc565b156114e4578373ffffffffffffffffffffffffffffffffffffffff1663f23a6e6187878686866040518663ffffffff1660e01b81526004016113819594939291906121f2565b602060405180830381600087803b15801561139b57600080fd5b505af19250505080156113cc57506040513d601f19601f820116820180604052508101906113c99190611bb2565b60015b61145b576113d86127e2565b806113e35750611420565b806040517f08c379a000000000000000000000000000000000000000000000000000000000815260040161141791906122c0565b60405180910390fd5b6040517f08c379a0000000000000000000000000000000000000000000000000000000008152600401611452906122e2565b60405180910390fd5b63f23a6e6160e01b7bffffffffffffffffffffffffffffffffffffffffffffffffffffffff1916817bffffffffffffffffffffffffffffffffffffffffffffffffffffffff1916146114e2576040517f08c379a00000000000000000000000000000000000000000000000000000000081526004016114d990612302565b60405180910390fd5b505b505050505050565b61150b8473ffffffffffffffffffffffffffffffffffffffff166116bc565b156116b4578373ffffffffffffffffffffffffffffffffffffffff1663bc197c8187878686866040518663ffffffff1660e01b815260040161155195949392919061218a565b602060405180830381600087803b15801561156b57600080fd5b505af192505050801561159c57506040513d601f19601f820116820180604052508101906115999190611bb2565b60015b61162b576115a86127e2565b806115b357506115f0565b806040517f08c379a00000000000000000000000000000000000000000000000000000000081526004016115e791906122c0565b60405180910390fd5b6040517f08c379a0000000000000000000000000000000000000000000000000000000008152600401611622906122e2565b60405180910390fd5b63bc197c8160e01b7bffffffffffffffffffffffffffffffffffffffffffffffffffffffff1916817bffffffffffffffffffffffffffffffffffffffffffffffffffffffff1916146116b2576040517f08c379a00000000000000000000000000000000000000000000000000000000081526004016116a990612302565b60405180910390fd5b505b505050505050565b600080823b905060008111915050919050565b60006116e26116dd846124b7565b612486565b9050808382526020820190508285602086028201111561170157600080fd5b60005b85811015611731578161171788826117e5565b845260208401935060208301925050600181019050611704565b5050509392505050565b600061174e611749846124e3565b612486565b9050808382526020820190508285602086028201111561176d57600080fd5b60005b8581101561179d578161178388826118b7565b845260208401935060208301925050600181019050611770565b5050509392505050565b60006117ba6117b58461250f565b612486565b9050828152602081018484840111156117d257600080fd5b6117dd84828561267a565b509392505050565b6000813590506117f481612898565b92915050565b600082601f83011261180b57600080fd5b813561181b8482602086016116cf565b91505092915050565b600082601f83011261183557600080fd5b813561184584826020860161173b565b91505092915050565b60008135905061185d816128af565b92915050565b600081359050611872816128c6565b92915050565b600081519050611887816128c6565b92915050565b600082601f83011261189e57600080fd5b81356118ae8482602086016117a7565b91505092915050565b6000813590506118c6816128dd565b92915050565b600080604083850312156118df57600080fd5b60006118ed858286016117e5565b92505060206118fe858286016117e5565b9150509250929050565b600080600080600060a0868803121561192057600080fd5b600061192e888289016117e5565b955050602061193f888289016117e5565b945050604086013567ffffffffffffffff81111561195c57600080fd5b61196888828901611824565b935050606086013567ffffffffffffffff81111561198557600080fd5b61199188828901611824565b925050608086013567ffffffffffffffff8111156119ae57600080fd5b6119ba8882890161188d565b9150509295509295909350565b600080600080600060a086880312156119df57600080fd5b60006119ed888289016117e5565b95505060206119fe888289016117e5565b9450506040611a0f888289016118b7565b9350506060611a20888289016118b7565b925050608086013567ffffffffffffffff811115611a3d57600080fd5b611a498882890161188d565b9150509295509295909350565b60008060408385031215611a6957600080fd5b6000611a77858286016117e5565b9250506020611a888582860161184e565b9150509250929050565b60008060408385031215611aa557600080fd5b6000611ab3858286016117e5565b9250506020611ac4858286016118b7565b9150509250929050565b600080600060608486031215611ae357600080fd5b6000611af1868287016117e5565b9350506020611b02868287016118b7565b9250506040611b13868287016118b7565b9150509250925092565b60008060408385031215611b3057600080fd5b600083013567ffffffffffffffff811115611b4a57600080fd5b611b56858286016117fa565b925050602083013567ffffffffffffffff811115611b7357600080fd5b611b7f85828601611824565b9150509250929050565b600060208284031215611b9b57600080fd5b6000611ba984828501611863565b91505092915050565b600060208284031215611bc457600080fd5b6000611bd284828501611878565b91505092915050565b600060208284031215611bed57600080fd5b6000611bfb848285016118b7565b91505092915050565b6000611c10838361216c565b60208301905092915050565b611c2581612606565b82525050565b6000611c368261254f565b611c40818561257d565b9350611c4b8361253f565b8060005b83811015611c7c578151611c638882611c04565b9750611c6e83612570565b925050600181019050611c4f565b5085935050505092915050565b611c9281612618565b82525050565b6000611ca38261255a565b611cad818561258e565b9350611cbd818560208601612689565b611cc6816127c4565b840191505092915050565b6000611cdc82612565565b611ce6818561259f565b9350611cf6818560208601612689565b611cff816127c4565b840191505092915050565b6000611d1760348361259f565b91507f455243313135353a207472616e7366657220746f206e6f6e204552433131353560008301527f526563656976657220696d706c656d656e7465720000000000000000000000006020830152604082019050919050565b6000611d7d60288361259f565b91507f455243313135353a204552433131353552656365697665722072656a6563746560008301527f6420746f6b656e730000000000000000000000000000000000000000000000006020830152604082019050919050565b6000611de3602b8361259f565b91507f455243313135353a2062616c616e636520717565727920666f7220746865207a60008301527f65726f20616464726573730000000000000000000000000000000000000000006020830152604082019050919050565b6000611e4960298361259f565b91507f455243313135353a2063616c6c6572206973206e6f74206f776e6572206e6f7260008301527f20617070726f76656400000000000000000000000000000000000000000000006020830152604082019050919050565b6000611eaf60258361259f565b91507f455243313135353a207472616e7366657220746f20746865207a65726f20616460008301527f64726573730000000000000000000000000000000000000000000000000000006020830152604082019050919050565b6000611f1560328361259f565b91507f455243313135353a207472616e736665722063616c6c6572206973206e6f742060008301527f6f776e6572206e6f7220617070726f76656400000000000000000000000000006020830152604082019050919050565b6000611f7b602a8361259f565b91507f455243313135353a20696e73756666696369656e742062616c616e636520666f60008301527f72207472616e73666572000000000000000000000000000000000000000000006020830152604082019050919050565b6000611fe160298361259f565b91507f455243313135353a2073657474696e6720617070726f76616c2073746174757360008301527f20666f722073656c6600000000000000000000000000000000000000000000006020830152604082019050919050565b600061204760298361259f565b91507f455243313135353a206163636f756e747320616e6420696473206c656e67746860008301527f206d69736d6174636800000000000000000000000000000000000000000000006020830152604082019050919050565b60006120ad60288361259f565b91507f455243313135353a2069647320616e6420616d6f756e7473206c656e6774682060008301527f6d69736d617463680000000000000000000000000000000000000000000000006020830152604082019050919050565b600061211360218361259f565b91507f455243313135353a206d696e7420746f20746865207a65726f2061646472657360008301527f73000000000000000000000000000000000000000000000000000000000000006020830152604082019050919050565b61217581612670565b82525050565b61218481612670565b82525050565b600060a08201905061219f6000830188611c1c565b6121ac6020830187611c1c565b81810360408301526121be8186611c2b565b905081810360608301526121d28185611c2b565b905081810360808301526121e68184611c98565b90509695505050505050565b600060a0820190506122076000830188611c1c565b6122146020830187611c1c565b612221604083018661217b565b61222e606083018561217b565b81810360808301526122408184611c98565b90509695505050505050565b600060208201905081810360008301526122668184611c2b565b905092915050565b600060408201905081810360008301526122888185611c2b565b9050818103602083015261229c8184611c2b565b90509392505050565b60006020820190506122ba6000830184611c89565b92915050565b600060208201905081810360008301526122da8184611cd1565b905092915050565b600060208201905081810360008301526122fb81611d0a565b9050919050565b6000602082019050818103600083015261231b81611d70565b9050919050565b6000602082019050818103600083015261233b81611dd6565b9050919050565b6000602082019050818103600083015261235b81611e3c565b9050919050565b6000602082019050818103600083015261237b81611ea2565b9050919050565b6000602082019050818103600083015261239b81611f08565b9050919050565b600060208201905081810360008301526123bb81611f6e565b9050919050565b600060208201905081810360008301526123db81611fd4565b9050919050565b600060208201905081810360008301526123fb8161203a565b9050919050565b6000602082019050818103600083015261241b816120a0565b9050919050565b6000602082019050818103600083015261243b81612106565b9050919050565b6000602082019050612457600083018461217b565b92915050565b6000604082019050612472600083018561217b565b61247f602083018461217b565b9392505050565b6000604051905081810181811067ffffffffffffffff821117156124ad576124ac612795565b5b8060405250919050565b600067ffffffffffffffff8211156124d2576124d1612795565b5b602082029050602081019050919050565b600067ffffffffffffffff8211156124fe576124fd612795565b5b602082029050602081019050919050565b600067ffffffffffffffff82111561252a57612529612795565b5b601f19601f8301169050602081019050919050565b6000819050602082019050919050565b600081519050919050565b600081519050919050565b600081519050919050565b6000602082019050919050565b600082825260208201905092915050565b600082825260208201905092915050565b600082825260208201905092915050565b60006125bb82612670565b91506125c683612670565b9250827fffffffffffffffffffffffffffffffffffffffffffffffffffffffffffffffff038211156125fb576125fa612737565b5b828201905092915050565b600061261182612650565b9050919050565b60008115159050919050565b60007fffffffff0000000000000000000000000000000000000000000000000000000082169050919050565b600073ffffffffffffffffffffffffffffffffffffffff82169050919050565b6000819050919050565b82818337600083830152505050565b60005b838110156126a757808201518184015260208101905061268c565b838111156126b6576000848401525b50505050565b600060028204905060018216806126d457607f821691505b602082108114156126e8576126e7612766565b5b50919050565b60006126f982612670565b91507fffffffffffffffffffffffffffffffffffffffffffffffffffffffffffffffff82141561272c5761272b612737565b5b600182019050919050565b7f4e487b7100000000000000000000000000000000000000000000000000000000600052601160045260246000fd5b7f4e487b7100000000000000000000000000000000000000000000000000000000600052602260045260246000fd5b7f4e487b7100000000000000000000000000000000000000000000000000000000600052604160045260246000fd5b6000601f19601f8301169050919050565b60008160e01c9050919050565b600060443d10156127f257612895565b60046000803e6128036000516127d5565b6308c379a081146128145750612895565b60405160043d036004823e80513d602482011167ffffffffffffffff8211171561284057505050612895565b808201805167ffffffffffffffff81111561285f575050505050612895565b8060208301013d850181111561287a57505050505050612895565b612883826127c4565b60208401016040528296505050505050505b90565b6128a181612606565b81146128ac57600080fd5b50565b6128b881612618565b81146128c357600080fd5b50565b6128cf81612624565b81146128da57600080fd5b50565b6128e681612670565b81146128f157600080fd5b5056fea2646970667358221220a4facf3de1e2609f0b68f5620eaeaaa19bb3eb5eb5c476f936b9fae9f887cd3d64736f6c6343000800003368747470733a2f2f67616d652e6578616d706c652f6170692f6974656d2f7b69647d2e6a736f6e",
  "immutableReferences": {},
  "source": "// contracts/GameItems.sol\n// SPDX-License-Identifier: MIT\npragma solidity >=0.7.6;\n\nimport \"@openzeppelin/contracts/token/ERC1155/ERC1155.sol\";\n\ncontract ERC1155SampleToken is ERC1155 {\n    uint256 public constant GOLD = 0;\n    uint256 public constant SILVER = 1;\n    uint256 public constant THORS_HAMMER = 2;\n    uint256 public constant SWORD = 3;\n    uint256 public constant SHIELD = 4;\n\n    constructor() ERC1155(\"https://game.example/api/item/{id}.json\") {\n        // _mint(msg.sender, GOLD, 10**18, \"\");\n        // _mint(msg.sender, SILVER, 10**27, \"\");\n        // _mint(msg.sender, THORS_HAMMER, 1, \"\");\n        // _mint(msg.sender, SWORD, 10**9, \"\");\n        // _mint(msg.sender, SHIELD, 10**9, \"\");\n    }\n    function mint(address to, uint256 tokenId, uint256 amount) public {\n        _mint(to, tokenId, amount, \"\");\n    }\n}",
  "sourcePath": "/home/quoc/Projects/harmony-totp-pure/contracts/test/erc1155_sample.sol",
  "compiler": {
    "name": "solc",
    "version": "0.8.0+commit.c7dfd78e.Emscripten.clang"
  },
  "schemaVersion": "3.3.4",
  "updatedAt": "2021-08-19T15:04:07.402Z",
  "devdoc": {
    "kind": "dev",
    "methods": {
      "balanceOf(address,uint256)": {
        "details": "See {IERC1155-balanceOf}. Requirements: - `account` cannot be the zero address."
      },
      "balanceOfBatch(address[],uint256[])": {
        "details": "See {IERC1155-balanceOfBatch}. Requirements: - `accounts` and `ids` must have the same length."
      },
      "isApprovedForAll(address,address)": {
        "details": "See {IERC1155-isApprovedForAll}."
      },
      "safeBatchTransferFrom(address,address,uint256[],uint256[],bytes)": {
        "details": "See {IERC1155-safeBatchTransferFrom}."
      },
      "safeTransferFrom(address,address,uint256,uint256,bytes)": {
        "details": "See {IERC1155-safeTransferFrom}."
      },
      "setApprovalForAll(address,bool)": {
        "details": "See {IERC1155-setApprovalForAll}."
      },
      "supportsInterface(bytes4)": {
        "details": "See {IERC165-supportsInterface}."
      },
      "uri(uint256)": {
        "details": "See {IERC1155MetadataURI-uri}. This implementation returns the same URI for *all* token types. It relies on the token type ID substitution mechanism https://eips.ethereum.org/EIPS/eip-1155#metadata[defined in the EIP]. Clients calling this function must replace the `\\{id\\}` substring with the actual token type ID."
      }
    },
    "version": 1
  },
  "userdoc": {
    "kind": "user",
    "methods": {},
    "version": 1
  }
}