{
  "contractName": "Forwarder",
  "abi": [
    {
      "stateMutability": "payable",
      "type": "receive"
    },
    {
      "inputs": [
        {
          "internalType": "address payable",
          "name": "_wallet",
          "type": "address"
        }
      ],
      "name": "init",
      "outputs": [],
      "stateMutability": "nonpayable",
      "type": "function"
    }
  ],
  "bytecode": "0x608060405234801561001057600080fd5b5061019a806100206000396000f3fe6080604052600436106100225760003560e01c806319ab453c146100d0576100cb565b366100cb5760008054906101000a900473ffffffffffffffffffffffffffffffffffffffff1673ffffffffffffffffffffffffffffffffffffffff166396cb1cfe34336040518363ffffffff1660e01b8152600401808273ffffffffffffffffffffffffffffffffffffffff1681526020019150506000604051808303818588803b1580156100b057600080fd5b505af11580156100c4573d6000803e3d6000fd5b5050505050005b600080fd5b3480156100dc57600080fd5b5061011f600480360360208110156100f357600080fd5b81019080803573ffffffffffffffffffffffffffffffffffffffff169060200190929190505050610121565b005b806000806101000a81548173ffffffffffffffffffffffffffffffffffffffff021916908373ffffffffffffffffffffffffffffffffffffffff1602179055505056fea26469706673582212201f538028d66ad58bf9e2dd54ac9c6fba091edf1396cfaf6ed3e0d2ef17e7eb4f64736f6c63430007060033",
  "immutableReferences": {},
  "source": "pragma solidity ^0.7.0;\n\n// import \"../IERC20.sol\";\nimport \"./relayer.sol\";\n\ncontract Forwarder {\n\n    address payable wallet;\n\n    function init(address payable _wallet) external {\n        wallet = _wallet;\n    }\n\n    /// @dev Fallback function allows to deposit ether.\n    receive() external payable {\n        //wallet.transfer(msg.value);\n        Relayer(wallet).processDeposit{value:msg.value}(msg.sender);\n\n    }\n}",
  "sourcePath": "/home/quoc/Projects/harmony-totp-pure/contracts/_deprecated/forwarder.sol",
  "compiler": {
    "name": "solc",
    "version": "0.7.6+commit.7338295f.Emscripten.clang"
  },
  "schemaVersion": "3.3.4",
  "updatedAt": "2021-06-30T20:15:36.599Z",
  "devdoc": {
    "kind": "dev",
    "methods": {},
    "version": 1
  },
  "userdoc": {
    "kind": "user",
    "methods": {},
    "version": 1
  }
}