{
  "contractName": "Forwarder",
  "abi": [
    {
      "stateMutability": "payable",
      "type": "receive"
    },
    {
      "inputs": [
        {
          "internalType": "address payable",
          "name": "_wallet",
          "type": "address"
        }
      ],
      "name": "init",
      "outputs": [],
      "stateMutability": "nonpayable",
      "type": "function"
    }
  ],
  "bytecode": "0x608060405234801561001057600080fd5b506101d8806100206000396000f3fe6080604052600436106100225760003560e01c806319ab453c146100af576100aa565b366100aa5760008054906101000a900473ffffffffffffffffffffffffffffffffffffffff1673ffffffffffffffffffffffffffffffffffffffff16638f70bfa0346040518263ffffffff1660e01b81526004016000604051808303818588803b15801561008f57600080fd5b505af11580156100a3573d6000803e3d6000fd5b5050505050005b600080fd5b3480156100bb57600080fd5b506100d660048036038101906100d19190610130565b6100d8565b005b806000806101000a81548173ffffffffffffffffffffffffffffffffffffffff021916908373ffffffffffffffffffffffffffffffffffffffff16021790555050565b60008135905061012a8161018b565b92915050565b60006020828403121561014257600080fd5b60006101508482850161011b565b91505092915050565b60006101648261016b565b9050919050565b600073ffffffffffffffffffffffffffffffffffffffff82169050919050565b61019481610159565b811461019f57600080fd5b5056fea26469706673582212201d16c691bfe1e19da441601afd17c7c424de2dbeb31359ab35a5859f3bafbf3364736f6c63430008000033",
  "immutableReferences": {},
  "source": "// SPDX-License-Identifier: GPL-2.0-or-later\npragma solidity >=0.7.0;\n\n// import \"../IERC20.sol\";\nimport \"./relayer.sol\";\n\ncontract Forwarder {\n\n    address payable wallet;\n\n    function init(address payable _wallet) external {\n        wallet = _wallet;\n    }\n\n    /// @dev Fallback function allows to deposit ether.\n    receive() external payable {\n        //wallet.transfer(msg.value);\n        Relayer(wallet).processDeposit{value:msg.value}();\n\n    }\n}",
  "sourcePath": "/Users/andreashejj/Development/Harmony/harmony-totp/contracts/_deprecated/forwarder.sol",
  "compiler": {
    "name": "solc",
    "version": "0.8.0+commit.c7dfd78e.Emscripten.clang"
  },
  "schemaVersion": "3.4.3",
  "updatedAt": "2021-09-10T20:11:07.419Z",
  "devdoc": {
    "kind": "dev",
    "methods": {},
    "version": 1
  },
  "userdoc": {
    "kind": "user",
    "methods": {},
    "version": 1
  }
}