{
  "contractName": "GuardianCoordinator",
  "abi": [
    {
      "anonymous": false,
      "inputs": [
        {
          "indexed": false,
          "internalType": "bytes32",
          "name": "signHash",
          "type": "bytes32"
        },
        {
          "indexed": false,
          "internalType": "address",
          "name": "addr",
          "type": "address"
        }
      ],
      "name": "Debug",
      "type": "event"
    },
    {
      "inputs": [],
      "name": "CANCEL_RECOVERY_TYPEHASH",
      "outputs": [
        {
          "internalType": "bytes4",
          "name": "",
          "type": "bytes4"
        }
      ],
      "stateMutability": "view",
      "type": "function"
    },
    {
      "inputs": [],
      "name": "START_RECOVERY_TYPEHASH",
      "outputs": [
        {
          "internalType": "bytes4",
          "name": "",
          "type": "bytes4"
        }
      ],
      "stateMutability": "view",
      "type": "function"
    },
    {
      "inputs": [],
      "name": "START_SESSION_TYPEHASH",
      "outputs": [
        {
          "internalType": "bytes4",
          "name": "",
          "type": "bytes4"
        }
      ],
      "stateMutability": "view",
      "type": "function"
    },
    {
      "inputs": [
        {
          "internalType": "address",
          "name": "wallet",
          "type": "address"
        },
        {
          "internalType": "bytes32",
          "name": "secretHash",
          "type": "bytes32"
        },
        {
          "internalType": "bytes32",
          "name": "dataHash",
          "type": "bytes32"
        },
        {
          "internalType": "uint256",
          "name": "nonce",
          "type": "uint256"
        }
      ],
      "name": "startRecovery",
      "outputs": [],
      "stateMutability": "nonpayable",
      "type": "function"
    },
    {
      "inputs": [
        {
          "internalType": "address",
          "name": "wallet",
          "type": "address"
        },
        {
          "internalType": "bytes32",
          "name": "signHash",
          "type": "bytes32"
        },
        {
          "internalType": "bytes",
          "name": "sig",
          "type": "bytes"
        }
      ],
      "name": "validGuardian",
      "outputs": [
        {
          "internalType": "bool",
          "name": "",
          "type": "bool"
        }
      ],
      "stateMutability": "view",
      "type": "function"
    },
    {
      "inputs": [
        {
          "internalType": "address",
          "name": "wallet",
          "type": "address"
        },
        {
          "internalType": "bytes",
          "name": "sig",
          "type": "bytes"
        }
      ],
      "name": "submitRecoverySig",
      "outputs": [],
      "stateMutability": "nonpayable",
      "type": "function"
    },
    {
      "inputs": [
        {
          "internalType": "address",
          "name": "wallet",
          "type": "address"
        },
        {
          "internalType": "bytes",
          "name": "sig",
          "type": "bytes"
        }
      ],
      "name": "cancelRecovery",
      "outputs": [],
      "stateMutability": "nonpayable",
      "type": "function"
    },
    {
      "inputs": [
        {
          "internalType": "address",
          "name": "wallet",
          "type": "address"
        }
      ],
      "name": "getRecoverySigs",
      "outputs": [
        {
          "internalType": "bytes[]",
          "name": "",
          "type": "bytes[]"
        }
      ],
      "stateMutability": "view",
      "type": "function"
    },
    {
      "inputs": [
        {
          "internalType": "address",
          "name": "wallet",
          "type": "address"
        }
      ],
      "name": "hasEnoughRecoverySigs",
      "outputs": [
        {
          "internalType": "bool",
          "name": "",
          "type": "bool"
        }
      ],
      "stateMutability": "view",
      "type": "function"
    },
    {
      "inputs": [
        {
          "internalType": "address",
          "name": "wallet",
          "type": "address"
        },
        {
          "internalType": "uint256",
          "name": "duration",
          "type": "uint256"
        },
        {
          "internalType": "uint256",
          "name": "nonce",
          "type": "uint256"
        },
        {
          "internalType": "bytes",
          "name": "sig",
          "type": "bytes"
        }
      ],
      "name": "startSession",
      "outputs": [],
      "stateMutability": "nonpayable",
      "type": "function"
    },
    {
      "inputs": [
        {
          "internalType": "address",
          "name": "wallet",
          "type": "address"
        },
        {
          "internalType": "bytes",
          "name": "sig",
          "type": "bytes"
        }
      ],
      "name": "submitSessionSig",
      "outputs": [],
      "stateMutability": "nonpayable",
      "type": "function"
    },
    {
      "inputs": [
        {
          "internalType": "address",
          "name": "wallet",
          "type": "address"
        }
      ],
      "name": "getSessionSigs",
      "outputs": [
        {
          "internalType": "bytes[]",
          "name": "",
          "type": "bytes[]"
        }
      ],
      "stateMutability": "view",
      "type": "function"
    },
    {
      "inputs": [
        {
          "internalType": "address",
          "name": "wallet",
          "type": "address"
        }
      ],
      "name": "hasEnoughSessionSigs",
      "outputs": [
        {
          "internalType": "bool",
          "name": "",
          "type": "bool"
        }
      ],
      "stateMutability": "view",
      "type": "function"
    }
  ],
  "bytecode": "0x608060405234801561001057600080fd5b5061266e806100206000396000f3fe608060405234801561001057600080fd5b50600436106100cf5760003560e01c80636e52dfa71161008c5780639a3d9374116100665780639a3d937414610212578063b546d05f1461022e578063e870e8391461025e578063ff8a4ac21461027a576100cf565b80636e52dfa7146101a857806370680a65146101c457806378a278df146101f4576100cf565b806302356653146100d4578063157c330a146100f257806339548e531461010e57806341ba12b31461012a57806350fa6db9146101485780636746463a14610178575b600080fd5b6100dc6102aa565b6040516100e99190612060565b60405180910390f35b61010c60048036038101906101079190611940565b6102ce565b005b61012860048036038101906101239190611940565b61045c565b005b61013261067f565b60405161013f9190612060565b60405180910390f35b610162600480360381019061015d9190611848565b6106a3565b60405161016f9190611fa5565b60405180910390f35b610192600480360381019061018d91906118d4565b61078c565b60405161019f9190611fa5565b60405180910390f35b6101c260048036038101906101bd9190611940565b610921565b005b6101de60048036038101906101d99190611848565b610b06565b6040516101eb9190611f83565b60405180910390f35b6101fc610c20565b6040516102099190612060565b60405180910390f35b61022c60048036038101906102279190611998565b610c44565b005b61024860048036038101906102439190611848565b610f39565b6040516102559190611fa5565b60405180910390f35b61027860048036038101906102739190611871565b611021565b005b610294600480360381019061028f9190611848565b6111cf565b6040516102a19190611f83565b60405180910390f35b7fc90db447b29ec18977c69f29a69741f3223fa05ad4e45dd7a709161b851987bd81565b60007fc90db447b29ec18977c69f29a69741f3223fa05ad4e45dd7a709161b851987bd84604051602001610303929190611f09565b604051602081830303815290604052805190602001209050631626ba7e60e01b8473ffffffffffffffffffffffffffffffffffffffff16631626ba7e8386866040518463ffffffff1660e01b815260040161036093929190611fe9565b60206040518083038186803b15801561037857600080fd5b505afa15801561038c573d6000803e3d6000fd5b505050506040513d601f19601f820116820180604052508101906103b09190611a59565b7bffffffffffffffffffffffffffffffffffffffffffffffffffffffff19161461040f576040517f08c379a00000000000000000000000000000000000000000000000000000000081526004016104069061215b565b60405180910390fd5b60008060008673ffffffffffffffffffffffffffffffffffffffff1673ffffffffffffffffffffffffffffffffffffffff1681526020019081526020016000206004018190555050505050565b426000808573ffffffffffffffffffffffffffffffffffffffff1673ffffffffffffffffffffffffffffffffffffffff16815260200190815260200160002060040154116104df576040517f08c379a00000000000000000000000000000000000000000000000000000000081526004016104d6906120fb565b60405180910390fd5b60006105af6000808673ffffffffffffffffffffffffffffffffffffffff1673ffffffffffffffffffffffffffffffffffffffff168152602001908152602001600020600001546000808773ffffffffffffffffffffffffffffffffffffffff1673ffffffffffffffffffffffffffffffffffffffff168152602001908152602001600020600101546000808873ffffffffffffffffffffffffffffffffffffffff1673ffffffffffffffffffffffffffffffffffffffff168152602001908152602001600020600301546112ea565b90506105bd8482858561078c565b6105fc576040517f08c379a00000000000000000000000000000000000000000000000000000000081526004016105f3906120bb565b60405180910390fd5b6000808573ffffffffffffffffffffffffffffffffffffffff1673ffffffffffffffffffffffffffffffffffffffff16815260200190815260200160002060020183839091806001815401808255809150506001900390600052602060002001600090919290919290919290919250919061067892919061165c565b5050505050565b7f77127612561bbee86f1f0faf0943bd9ad63450b782ece7cbc20119c57f37ba7781565b6000808273ffffffffffffffffffffffffffffffffffffffff16630665f04b6040518163ffffffff1660e01b815260040160006040518083038186803b1580156106ec57600080fd5b505afa158015610700573d6000803e3d6000fd5b505050506040513d6000823e3d601f19601f820116820180604052508101906107299190611a18565b51905060006107398260026113d9565b9050600160008573ffffffffffffffffffffffffffffffffffffffff1673ffffffffffffffffffffffffffffffffffffffff16815260200190815260200160002060010180549050811492505050919050565b6000806107e984848080601f016020809104026020016040519081016040528093929190818152602001838380828437600081840152601f19601f8201169050808301925050505050505060008761141e9092919063ffffffff16565b905060008673ffffffffffffffffffffffffffffffffffffffff16630665f04b6040518163ffffffff1660e01b815260040160006040518083038186803b15801561083357600080fd5b505afa158015610847573d6000803e3d6000fd5b505050506040513d6000823e3d601f19601f820116820180604052508101906108709190611a18565b905060005b8151811015610911578273ffffffffffffffffffffffffffffffffffffffff168282815181106108ce577f4e487b7100000000000000000000000000000000000000000000000000000000600052603260045260246000fd5b602002602001015173ffffffffffffffffffffffffffffffffffffffff1614156108fe5760019350505050610919565b808061090990612446565b915050610875565b506000925050505b949350505050565b42600160008573ffffffffffffffffffffffffffffffffffffffff1673ffffffffffffffffffffffffffffffffffffffff16815260200190815260200160002060030154116109a5576040517f08c379a000000000000000000000000000000000000000000000000000000000815260040161099c9061213b565b60405180910390fd5b6000610a35600160008673ffffffffffffffffffffffffffffffffffffffff1673ffffffffffffffffffffffffffffffffffffffff16815260200190815260200160002060000154600160008773ffffffffffffffffffffffffffffffffffffffff1673ffffffffffffffffffffffffffffffffffffffff16815260200190815260200160002060020154611570565b9050610a438482858561078c565b610a82576040517f08c379a0000000000000000000000000000000000000000000000000000000008152600401610a79906120bb565b60405180910390fd5b600160008573ffffffffffffffffffffffffffffffffffffffff1673ffffffffffffffffffffffffffffffffffffffff168152602001908152602001600020600101838390918060018154018082558091505060019003906000526020600020016000909192909192909192909192509190610aff92919061165c565b5050505050565b60606000808373ffffffffffffffffffffffffffffffffffffffff1673ffffffffffffffffffffffffffffffffffffffff168152602001908152602001600020600201805480602002602001604051908101604052809291908181526020016000905b82821015610c15578382906000526020600020018054610b8890612414565b80601f0160208091040260200160405190810160405280929190818152602001828054610bb490612414565b8015610c015780601f10610bd657610100808354040283529160200191610c01565b820191906000526020600020905b815481529060010190602001808311610be457829003601f168201915b505050505081526020019060010190610b69565b505050509050919050565b7f8df2730a1e24c92bbc0b453320a1cec5944985be7b11b04c7db57f57ebcf7aa581565b42600160008773ffffffffffffffffffffffffffffffffffffffff1673ffffffffffffffffffffffffffffffffffffffff1681526020019081526020016000206003015410610cc8576040517f08c379a0000000000000000000000000000000000000000000000000000000008152600401610cbf9061219b565b60405180910390fd5b82600160008773ffffffffffffffffffffffffffffffffffffffff1673ffffffffffffffffffffffffffffffffffffffff1681526020019081526020016000206002015410610d4c576040517f08c379a0000000000000000000000000000000000000000000000000000000008152600401610d43906120db565b60405180910390fd5b6000610d588585611570565b9050631626ba7e60e01b8673ffffffffffffffffffffffffffffffffffffffff16631626ba7e8386866040518463ffffffff1660e01b8152600401610d9f93929190611fe9565b60206040518083038186803b158015610db757600080fd5b505afa158015610dcb573d6000803e3d6000fd5b505050506040513d601f19601f82011682018060405250810190610def9190611a59565b7bffffffffffffffffffffffffffffffffffffffffffffffffffffffff191614610e4e576040517f08c379a0000000000000000000000000000000000000000000000000000000008152600401610e459061217b565b60405180910390fd5b83600160008873ffffffffffffffffffffffffffffffffffffffff1673ffffffffffffffffffffffffffffffffffffffff1681526020019081526020016000206002018190555084600160008873ffffffffffffffffffffffffffffffffffffffff1673ffffffffffffffffffffffffffffffffffffffff168152602001908152602001600020600001819055506201518042610eeb91906122c0565b600160008873ffffffffffffffffffffffffffffffffffffffff1673ffffffffffffffffffffffffffffffffffffffff16815260200190815260200160002060030181905550505050505050565b6000808273ffffffffffffffffffffffffffffffffffffffff16630665f04b6040518163ffffffff1660e01b815260040160006040518083038186803b158015610f8257600080fd5b505afa158015610f96573d6000803e3d6000fd5b505050506040513d6000823e3d601f19601f82011682018060405250810190610fbf9190611a18565b5190506000610fcf8260026113d9565b90506000808573ffffffffffffffffffffffffffffffffffffffff1673ffffffffffffffffffffffffffffffffffffffff16815260200190815260200160002060020180549050811492505050919050565b426000808673ffffffffffffffffffffffffffffffffffffffff1673ffffffffffffffffffffffffffffffffffffffff16815260200190815260200160002060040154106110a4576040517f08c379a000000000000000000000000000000000000000000000000000000000815260040161109b9061209b565b60405180910390fd5b806000808673ffffffffffffffffffffffffffffffffffffffff1673ffffffffffffffffffffffffffffffffffffffff16815260200190815260200160002060030181905550826000808673ffffffffffffffffffffffffffffffffffffffff1673ffffffffffffffffffffffffffffffffffffffff16815260200190815260200160002060000181905550816000808673ffffffffffffffffffffffffffffffffffffffff1673ffffffffffffffffffffffffffffffffffffffff168152602001908152602001600020600101819055506138404261118491906122c0565b6000808673ffffffffffffffffffffffffffffffffffffffff1673ffffffffffffffffffffffffffffffffffffffff1681526020019081526020016000206004018190555050505050565b6060600160008373ffffffffffffffffffffffffffffffffffffffff1673ffffffffffffffffffffffffffffffffffffffff168152602001908152602001600020600101805480602002602001604051908101604052809291908181526020016000905b828210156112df57838290600052602060002001805461125290612414565b80601f016020809104026020016040519081016040528092919081815260200182805461127e90612414565b80156112cb5780601f106112a0576101008083540402835291602001916112cb565b820191906000526020600020905b8154815290600101906020018083116112ae57829003601f168201915b505050505081526020019060010190611233565b505050509050919050565b600080827f8df2730a1e24c92bbc0b453320a1cec5944985be7b11b04c7db57f57ebcf7aa58686604051602401611322929190611fc0565b604051602081830303815290604052907bffffffffffffffffffffffffffffffffffffffffffffffffffffffff19166020820180517bffffffffffffffffffffffffffffffffffffffffffffffffffffffff8381831617835250505050604051602001611390929190611f5b565b604051602081830303815290604052805190602001206040516020016113b69190611f35565b604051602081830303815290604052805190602001209050809150509392505050565b60008082846113e89190612316565b9050600083856113f891906124d1565b14156114075780915050611418565b60018161141491906122c0565b9150505b92915050565b60008060008084604102602001860151915084604102604001860151905060ff85604102604101870151169250601b8360ff1614806114605750601c8360ff16145b61149f576040517f08c379a00000000000000000000000000000000000000000000000000000000081526004016114969061211b565b60405180910390fd5b6000600188858585604051600081526020016040526040516114c4949392919061201b565b6020604051602081039080840390855afa1580156114e6573d6000803e3d6000fd5b505050602060405103519050600073ffffffffffffffffffffffffffffffffffffffff168173ffffffffffffffffffffffffffffffffffffffff161415611562576040517f08c379a00000000000000000000000000000000000000000000000000000000081526004016115599061207b565b60405180910390fd5b809450505050509392505050565b600080827f77127612561bbee86f1f0faf0943bd9ad63450b782ece7cbc20119c57f37ba77856040516024016115a691906121bb565b604051602081830303815290604052907bffffffffffffffffffffffffffffffffffffffffffffffffffffffff19166020820180517bffffffffffffffffffffffffffffffffffffffffffffffffffffffff8381831617835250505050604051602001611614929190611f5b565b6040516020818303038152906040528051906020012060405160200161163a9190611f35565b6040516020818303038152906040528051906020012090508091505092915050565b82805461166890612414565b90600052602060002090601f01602090048101928261168a57600085556116d1565b82601f106116a357803560ff19168380011785556116d1565b828001600101855582156116d1579182015b828111156116d05782358255916020019190600101906116b5565b5b5090506116de91906116e2565b5090565b5b808211156116fb5760008160009055506001016116e3565b5090565b600061171261170d84612207565b6121d6565b9050808382526020820190508285602086028201111561173157600080fd5b60005b8581101561176157816117478882611780565b845260208401935060208301925050600181019050611734565b5050509392505050565b60008135905061177a816125dc565b92915050565b60008151905061178f816125dc565b92915050565b600082601f8301126117a657600080fd5b81516117b68482602086016116ff565b91505092915050565b6000813590506117ce816125f3565b92915050565b6000815190506117e38161260a565b92915050565b60008083601f8401126117fb57600080fd5b8235905067ffffffffffffffff81111561181457600080fd5b60208301915083600182028301111561182c57600080fd5b9250929050565b60008135905061184281612621565b92915050565b60006020828403121561185a57600080fd5b60006118688482850161176b565b91505092915050565b6000806000806080858703121561188757600080fd5b60006118958782880161176b565b94505060206118a6878288016117bf565b93505060406118b7878288016117bf565b92505060606118c887828801611833565b91505092959194509250565b600080600080606085870312156118ea57600080fd5b60006118f88782880161176b565b9450506020611909878288016117bf565b935050604085013567ffffffffffffffff81111561192657600080fd5b611932878288016117e9565b925092505092959194509250565b60008060006040848603121561195557600080fd5b60006119638682870161176b565b935050602084013567ffffffffffffffff81111561198057600080fd5b61198c868287016117e9565b92509250509250925092565b6000806000806000608086880312156119b057600080fd5b60006119be8882890161176b565b95505060206119cf88828901611833565b94505060406119e088828901611833565b935050606086013567ffffffffffffffff8111156119fd57600080fd5b611a09888289016117e9565b92509250509295509295909350565b600060208284031215611a2a57600080fd5b600082015167ffffffffffffffff811115611a4457600080fd5b611a5084828501611795565b91505092915050565b600060208284031215611a6b57600080fd5b6000611a79848285016117d4565b91505092915050565b6000611a8e8383611baa565b905092915050565b611aa7611aa282612347565b61248f565b82525050565b6000611ab882612243565b611ac28185612266565b935083602082028501611ad485612233565b8060005b85811015611b105784840389528151611af18582611a82565b9450611afc83612259565b925060208a01995050600181019050611ad8565b50829750879550505050505092915050565b611b2b81612359565b82525050565b611b3a81612365565b82525050565b611b51611b4c82612365565b6124a1565b82525050565b611b608161236f565b82525050565b611b77611b728261236f565b6124ab565b82525050565b6000611b898385612288565b9350611b968385846123d2565b611b9f836125be565b840190509392505050565b6000611bb58261224e565b611bbf8185612277565b9350611bcf8185602086016123e1565b611bd8816125be565b840191505092915050565b6000611bee8261224e565b611bf88185612299565b9350611c088185602086016123e1565b80840191505092915050565b6000611c21601c836122b5565b91507f19457468657265756d205369676e6564204d6573736167653a0a3332000000006000830152601c82019050919050565b6000611c61601b836122a4565b91507f5574696c733a2065637265636f7665722072657475726e6564203000000000006000830152602082019050919050565b6000611ca1601c836122a4565b91507f616e6f74686572207265636f7665727920696e2070726f6772657373000000006000830152602082019050919050565b6000611ce1601a836122a4565b91507f526571756972652076616c696420677561726469616e207369670000000000006000830152602082019050919050565b6000611d216014836122a4565b91507f6e6f6e6365206d757374206265206c61726765720000000000000000000000006000830152602082019050919050565b6000611d616011836122a4565b91507f6e6f207265636f7665727920666f756e640000000000000000000000000000006000830152602082019050919050565b6000611da1601f836122a4565b91507f5574696c733a2062616420762076616c756520696e207369676e6174757265006000830152602082019050919050565b6000611de16010836122a4565b91507f6e6f2073657373696f6e20666f756e64000000000000000000000000000000006000830152602082019050919050565b6000611e21601e836122a4565b91507f4f6e6c79206f776e65722063616e2063616e63656c207265636f7665727900006000830152602082019050919050565b6000611e61601d836122a4565b91507f4f6e6c79206f776e65722063616e207374617274207265636f766572790000006000830152602082019050919050565b6000611ea1601b836122a4565b91507f616e6f746865722073657373696f6e20696e2070726f677265737300000000006000830152602082019050919050565b611edd816123bb565b82525050565b611ef4611eef826123bb565b6124c7565b82525050565b611f03816123c5565b82525050565b6000611f158285611b66565b600482019150611f258284611a96565b6014820191508190509392505050565b6000611f4082611c14565b9150611f4c8284611b40565b60208201915081905092915050565b6000611f678285611ee3565b602082019150611f778284611be3565b91508190509392505050565b60006020820190508181036000830152611f9d8184611aad565b905092915050565b6000602082019050611fba6000830184611b22565b92915050565b6000604082019050611fd56000830185611b31565b611fe26020830184611b31565b9392505050565b6000604082019050611ffe6000830186611b31565b8181036020830152612011818486611b7d565b9050949350505050565b60006080820190506120306000830187611b31565b61203d6020830186611efa565b61204a6040830185611b31565b6120576060830184611b31565b95945050505050565b60006020820190506120756000830184611b57565b92915050565b6000602082019050818103600083015261209481611c54565b9050919050565b600060208201905081810360008301526120b481611c94565b9050919050565b600060208201905081810360008301526120d481611cd4565b9050919050565b600060208201905081810360008301526120f481611d14565b9050919050565b6000602082019050818103600083015261211481611d54565b9050919050565b6000602082019050818103600083015261213481611d94565b9050919050565b6000602082019050818103600083015261215481611dd4565b9050919050565b6000602082019050818103600083015261217481611e14565b9050919050565b6000602082019050818103600083015261219481611e54565b9050919050565b600060208201905081810360008301526121b481611e94565b9050919050565b60006020820190506121d06000830184611ed4565b92915050565b6000604051905081810181811067ffffffffffffffff821117156121fd576121fc61258f565b5b8060405250919050565b600067ffffffffffffffff8211156122225761222161258f565b5b602082029050602081019050919050565b6000819050602082019050919050565b600081519050919050565b600081519050919050565b6000602082019050919050565b600082825260208201905092915050565b600082825260208201905092915050565b600082825260208201905092915050565b600081905092915050565b600082825260208201905092915050565b600081905092915050565b60006122cb826123bb565b91506122d6836123bb565b9250827fffffffffffffffffffffffffffffffffffffffffffffffffffffffffffffffff0382111561230b5761230a612502565b5b828201905092915050565b6000612321826123bb565b915061232c836123bb565b92508261233c5761233b612531565b5b828204905092915050565b60006123528261239b565b9050919050565b60008115159050919050565b6000819050919050565b60007fffffffff0000000000000000000000000000000000000000000000000000000082169050919050565b600073ffffffffffffffffffffffffffffffffffffffff82169050919050565b6000819050919050565b600060ff82169050919050565b82818337600083830152505050565b60005b838110156123ff5780820151818401526020810190506123e4565b8381111561240e576000848401525b50505050565b6000600282049050600182168061242c57607f821691505b602082108114156124405761243f612560565b5b50919050565b6000612451826123bb565b91507fffffffffffffffffffffffffffffffffffffffffffffffffffffffffffffffff82141561248457612483612502565b5b600182019050919050565b600061249a826124b5565b9050919050565b6000819050919050565b6000819050919050565b60006124c0826125cf565b9050919050565b6000819050919050565b60006124dc826123bb565b91506124e7836123bb565b9250826124f7576124f6612531565b5b828206905092915050565b7f4e487b7100000000000000000000000000000000000000000000000000000000600052601160045260246000fd5b7f4e487b7100000000000000000000000000000000000000000000000000000000600052601260045260246000fd5b7f4e487b7100000000000000000000000000000000000000000000000000000000600052602260045260246000fd5b7f4e487b7100000000000000000000000000000000000000000000000000000000600052604160045260246000fd5b6000601f19601f8301169050919050565b60008160601b9050919050565b6125e581612347565b81146125f057600080fd5b50565b6125fc81612365565b811461260757600080fd5b50565b6126138161236f565b811461261e57600080fd5b50565b61262a816123bb565b811461263557600080fd5b5056fea264697066735822122093e14c6f8eeebd3e5f8a9483dd8ef719ff36a1ce8e360deb82d244329399750b64736f6c63430008000033",
  "immutableReferences": {},
  "source": "// contracts/GLDToken.sol\n// SPDX-License-Identifier: MIT\n\npragma solidity >=0.7.6;\n\nimport \"./external/signatureutil.sol\";\nimport \"./otp_wallet.sol\";\n\ncontract GuardianCoordinator {\n   struct StartRecoverCommit{\n       bytes32 secretHash;\n       bytes32 dataHash;\n       bytes[] sigs;\n       uint nonce;\n       uint expires;\n   }\n    struct StartSession{\n       uint duration;\n       bytes[] sigs;\n       uint nonce;\n       uint expires;\n   }\n\n    event Debug(bytes32 signHash, address addr);\n\n    using SignatureUtil for bytes32;\n    bytes4 public constant START_RECOVERY_TYPEHASH = bytes4(keccak256(\n        \"startRecoverCommit(bytes32,bytes32)\"\n    ));\n    bytes4 public constant START_SESSION_TYPEHASH = bytes4(keccak256(\n        \"startSession(uint256)\"\n    ));\n\n    bytes4 public constant CANCEL_RECOVERY_TYPEHASH = bytes4(keccak256(\n        \"cancelRecovery(address)\"\n    ));\n\n    // wallet address to operation\n    mapping (address => StartRecoverCommit) recoveries;\n\n    // wallet address to start session request\n    mapping (address => StartSession) sessions;\n\n    // comes from relayer - so check sig on chain\n    function startRecovery(address wallet, bytes32 secretHash, bytes32 dataHash, uint nonce) external {\n        require(recoveries[wallet].expires < block.timestamp, \"another recovery in progress\");\n        \n        recoveries[wallet].nonce = nonce;\n        recoveries[wallet].secretHash = secretHash;\n        recoveries[wallet].dataHash = dataHash;\n        recoveries[wallet].expires = block.timestamp + (4 hours);\n    }\n\n    function getSignRecoveryHash(bytes32 secretHash, bytes32 dataHash, uint nonce) internal pure returns (bytes32) {\n        bytes32 signHash = keccak256(abi.encodePacked(\"\\x19Ethereum Signed Message:\\n32\", keccak256(abi.encodePacked(nonce, abi.encodeWithSelector(START_RECOVERY_TYPEHASH, secretHash, dataHash)))));\n        return signHash;\n    }\n\n    function validGuardian(address wallet, bytes32 signHash, bytes calldata sig) public view returns (bool) {\n        address signer = signHash.recoverSigner(sig, 0);\n\n        address[] memory guardians = TOTPWallet(payable(wallet)).getGuardians();\n        \n        for(uint i=0; i < guardians.length; i++) {\n            if(guardians[i] == signer) {\n                return true;\n            }\n        }\n        return false;     \n    }\n\n    function submitRecoverySig(address wallet, bytes calldata sig) external {\n        require(recoveries[wallet].expires > block.timestamp, \"no recovery found\");\n        bytes32 signHash = getSignRecoveryHash(recoveries[wallet].secretHash, recoveries[wallet].dataHash, recoveries[wallet].nonce);\n        require(validGuardian(wallet, signHash, sig), \"Require valid guardian sig\");\n        recoveries[wallet].sigs.push(sig);        \n    }\n\n    function cancelRecovery(address wallet, bytes calldata sig) external {\n        // if it's the owner, cancel it\n        bytes32 signHash = keccak256(abi.encodePacked(CANCEL_RECOVERY_TYPEHASH, wallet));\n        require(TOTPWallet(payable(wallet)).isValidSignature(signHash, sig) == 0x1626ba7e, \"Only owner can cancel recovery\");\n        recoveries[wallet].expires = 0;\n    }\n\n    function getRecoverySigs(address wallet) public view returns (bytes[] memory) {\n        return recoveries[wallet].sigs;\n    }\n\n    function hasEnoughRecoverySigs(address wallet) public view returns (bool) {\n        uint guardians = TOTPWallet(payable(wallet)).getGuardians().length;\n        uint requiredSignatures = MetaTx.ceil(guardians, 2);\n        return requiredSignatures == recoveries[wallet].sigs.length;\n    }\n\n    //\n    // SESSIONS REQUESTS\n    // \n\n    function getSignSessionHash(uint duration, uint nonce) internal pure returns (bytes32) {\n        bytes32 signHash = keccak256(abi.encodePacked(\"\\x19Ethereum Signed Message:\\n32\", keccak256(abi.encodePacked(nonce, abi.encodeWithSelector(START_SESSION_TYPEHASH, duration)))));\n        return signHash;\n    }\n\n    function startSession(address wallet, uint duration, uint nonce, bytes calldata sig) external {\n        require(sessions[wallet].expires < block.timestamp, \"another session in progress\");\n        require(sessions[wallet].nonce < nonce, \"nonce must be larger\");\n        bytes32 signHash = getSignSessionHash(duration,nonce);\n\n        require(TOTPWallet(payable(wallet)).isValidSignature(signHash, sig) == 0x1626ba7e, \"Only owner can start recovery\");\n\n        sessions[wallet].nonce = nonce;\n        sessions[wallet].duration = duration;\n        sessions[wallet].expires = block.timestamp + (24 hours);\n    }    \n\n    function submitSessionSig(address wallet, bytes calldata sig) external {\n        require(sessions[wallet].expires > block.timestamp, \"no session found\");\n        bytes32 signHash = getSignSessionHash(sessions[wallet].duration, sessions[wallet].nonce);\n        require(validGuardian(wallet, signHash, sig), \"Require valid guardian sig\");\n        sessions[wallet].sigs.push(sig);  \n    }\n\n\n    function getSessionSigs(address wallet) public view returns (bytes[] memory) {\n        return sessions[wallet].sigs;\n    }\n\n    function hasEnoughSessionSigs(address wallet) public view returns (bool) {\n        uint guardians = TOTPWallet(payable(wallet)).getGuardians().length;\n        uint requiredSignatures = MetaTx.ceil(guardians, 2);\n        return requiredSignatures == sessions[wallet].sigs.length;\n    }    \n}",
  "sourcePath": "/home/quoc/Projects/harmony-totp-pure/contracts/guardian_coord.sol",
  "compiler": {
    "name": "solc",
    "version": "0.8.0+commit.c7dfd78e.Emscripten.clang"
  },
  "schemaVersion": "3.3.3",
  "updatedAt": "2021-11-16T17:05:01.354Z",
  "devdoc": {
    "kind": "dev",
    "methods": {},
    "version": 1
  },
  "userdoc": {
    "kind": "user",
    "methods": {},
    "version": 1
  }
}