{
  "contractName": "NameService",
  "abi": [
    {
      "inputs": [],
      "name": "TLD_NODE",
      "outputs": [
        {
          "internalType": "bytes32",
          "name": "",
          "type": "bytes32"
        }
      ],
      "stateMutability": "view",
      "type": "function"
    }
  ],
  "bytecode": "0x6107fd610053600b82828239805160001a607314610046577f4e487b7100000000000000000000000000000000000000000000000000000000600052600060045260246000fd5b30600052607381538281f3fe73000000000000000000000000000000000000000030146080604052600436106100405760003560e01c8063145f76201461004557806396df35401461006e575b600080fd5b81801561005157600080fd5b5061006c600480360381019061006791906103ed565b61008c565b005b6100766102ff565b60405161008391906105f5565b60405180910390f35b6000838360405161009e9291906105dc565b60405180910390209050600087600e0160009054906101000a900473ffffffffffffffffffffffffffffffffffffffff16905060008173ffffffffffffffffffffffffffffffffffffffff16633b3b57de7f30f9ae3b1c4766476d11e2bacd21f9dff2c59670d8b8a74a88ebc22aec7020b960001b856040516020016101259291906105b0565b604051602081830303815290604052805190602001206040518263ffffffff1660e01b81526004016101579190610610565b60206040518083038186803b15801561016f57600080fd5b505afa158015610183573d6000803e3d6000fd5b505050506040513d601f19601f820116820180604052508101906101a791906103c4565b905060008173ffffffffffffffffffffffffffffffffffffffff166383e7f6ff8a8a886040518463ffffffff1660e01b81526004016101e89392919061069a565b60206040518083038186803b15801561020057600080fd5b505afa158015610214573d6000803e3d6000fd5b505050506040513d601f19601f820116820180604052508101906102389190610488565b90508047101561027d576040517f08c379a0000000000000000000000000000000000000000000000000000000008152600401610274906106cc565b60405180910390fd5b8173ffffffffffffffffffffffffffffffffffffffff1663eab585b082868c8c308b8a6040518863ffffffff1660e01b81526004016102c19695949392919061062b565b6000604051808303818588803b1580156102da57600080fd5b505af11580156102ee573d6000803e3d6000fd5b505050505050505050505050505050565b7f30f9ae3b1c4766476d11e2bacd21f9dff2c59670d8b8a74a88ebc22aec7020b960001b81565b60008151905061033581610782565b92915050565b60008083601f84011261034d57600080fd5b8235905067ffffffffffffffff81111561036657600080fd5b60208301915083600182028301111561037e57600080fd5b9250929050565b60008135905061039481610799565b92915050565b6000813590506103a9816107b0565b92915050565b6000815190506103be816107b0565b92915050565b6000602082840312156103d657600080fd5b60006103e484828501610326565b91505092915050565b6000806000806000806080878903121561040657600080fd5b600061041489828a01610385565b965050602087013567ffffffffffffffff81111561043157600080fd5b61043d89828a0161033b565b9550955050604087013567ffffffffffffffff81111561045c57600080fd5b61046889828a0161033b565b9350935050606061047b89828a0161039a565b9150509295509295509295565b60006020828403121561049a57600080fd5b60006104a8848285016103af565b91505092915050565b6104ba81610708565b82525050565b6104c98161071a565b82525050565b6104d88161071a565b82525050565b6104ef6104ea8261071a565b610767565b82525050565b600061050183856106ec565b935061050e838584610758565b82840190509392505050565b600061052683856106f7565b9350610533838584610758565b61053c83610771565b840190509392505050565b60006105546000836106f7565b9150600082019050919050565b600061056e601b836106f7565b91507f4e4f5420454e4f55474820544f205245474953544552204e414d4500000000006000830152602082019050919050565b6105aa8161074e565b82525050565b60006105bc82856104de565b6020820191506105cc82846104de565b6020820191508190509392505050565b60006105e98284866104f5565b91508190509392505050565b600060208201905061060a60008301846104cf565b92915050565b600060208201905061062560008301846104c0565b92915050565b600060c08201905061064060008301896104c0565b818103602083015261065381878961051a565b905061066260408301866104b1565b61066f60608301856105a1565b818103608083015261068081610547565b905061068f60a08301846104b1565b979650505050505050565b600060408201905081810360008301526106b581858761051a565b90506106c460208301846105a1565b949350505050565b600060208201905081810360008301526106e581610561565b9050919050565b600081905092915050565b600082825260208201905092915050565b60006107138261072e565b9050919050565b6000819050919050565b6000819050919050565b600073ffffffffffffffffffffffffffffffffffffffff82169050919050565b6000819050919050565b82818337600083830152505050565b6000819050919050565b6000601f19601f8301169050919050565b61078b81610708565b811461079657600080fd5b50565b6107a281610724565b81146107ad57600080fd5b50565b6107b98161074e565b81146107c457600080fd5b5056fea2646970667358221220b0fff36b3d045e9bcb0210ca7c99facc833d772d6dd945d97fb0c93bb6fba55a64736f6c63430008000033",
  "immutableReferences": {},
  "source": "// SPDX-License-Identifier: GPL-3.0-only\n\npragma solidity >=0.7.6;\npragma experimental ABIEncoderV2;\n\nimport \"../core/wallet_data.sol\";\nimport \"../ens/ens_resolver.sol\";\nimport \"../ens/registrar_interface.sol\";\n\nlibrary NameService {\n    // event NameRegistered(string subdomain, string domain, uint cost);\n\n    // namehash('one')\n    bytes32 constant public TLD_NODE = 0x30f9ae3b1c4766476d11e2bacd21f9dff2c59670d8b8a74a88ebc22aec7020b9;\n\n    function registerENS(Core.Wallet storage wallet, string calldata subdomain, string calldata domain, uint duration) public {\n        bytes32 label = keccak256(bytes(domain));\n        address resolver = wallet.resolver;\n        address resolved = Resolver(resolver).addr(keccak256(abi.encodePacked(TLD_NODE, label)));\n\n        uint rentPriceSub = RegistrarInterface(resolved).rentPrice(subdomain, duration);\n        require(address(this).balance >= rentPriceSub, \"NOT ENOUGH TO REGISTER NAME\");\n\n        RegistrarInterface(resolved).register{value:rentPriceSub}(label, subdomain, address(this), duration, '', resolver);\n    }\n}",
  "sourcePath": "/Users/andreashejj/Development/Harmony/harmony-totp/contracts/features/name_service.sol",
  "compiler": {
    "name": "solc",
    "version": "0.8.0+commit.c7dfd78e.Emscripten.clang"
  },
  "schemaVersion": "3.4.3",
  "updatedAt": "2021-09-08T10:27:01.068Z",
  "devdoc": {
    "kind": "dev",
    "methods": {},
    "version": 1
  },
  "userdoc": {
    "kind": "user",
    "methods": {},
    "version": 1
  }
}