{
  "contractName": "NameRegistry",
  "abi": [
    {
      "inputs": [
        {
          "internalType": "string",
          "name": "name",
          "type": "string"
        },
        {
          "internalType": "address",
          "name": "addr",
          "type": "address"
        },
        {
          "internalType": "uint16",
          "name": "ver",
          "type": "uint16"
        }
      ],
      "name": "registerName",
      "outputs": [
        {
          "internalType": "bool",
          "name": "",
          "type": "bool"
        }
      ],
      "stateMutability": "nonpayable",
      "type": "function"
    },
    {
      "inputs": [
        {
          "internalType": "string",
          "name": "name",
          "type": "string"
        }
      ],
      "name": "getContractDetails",
      "outputs": [
        {
          "internalType": "address",
          "name": "",
          "type": "address"
        },
        {
          "internalType": "uint16",
          "name": "",
          "type": "uint16"
        }
      ],
      "stateMutability": "view",
      "type": "function"
    }
  ],
  "bytecode": "0x608060405234801561001057600080fd5b50610686806100206000396000f3fe608060405234801561001057600080fd5b50600436106100365760003560e01c8063be3f4a5b1461003b578063bfafff5b1461006b575b600080fd5b610055600480360381019061005091906104a1565b61009c565b60405161006291906105a1565b60405180910390f35b6100856004803603810190610080919061045c565b610364565b604051610093929190610578565b60405180910390f35b600060018261ffff1610156100b057600080fd5b60008086866040516100c392919061055f565b90815260200160405180910390206040518060600160405290816000820160009054906101000a900473ffffffffffffffffffffffffffffffffffffffff1673ffffffffffffffffffffffffffffffffffffffff1673ffffffffffffffffffffffffffffffffffffffff1681526020016001820160009054906101000a900473ffffffffffffffffffffffffffffffffffffffff1673ffffffffffffffffffffffffffffffffffffffff1673ffffffffffffffffffffffffffffffffffffffff1681526020016001820160149054906101000a900461ffff1661ffff1661ffff16815250509050600073ffffffffffffffffffffffffffffffffffffffff16816020015173ffffffffffffffffffffffffffffffffffffffff1614156102355760405180606001604052803373ffffffffffffffffffffffffffffffffffffffff1681526020018573ffffffffffffffffffffffffffffffffffffffff1681526020018461ffff168152509050610282565b82816040019061ffff16908161ffff168152505083816020019073ffffffffffffffffffffffffffffffffffffffff16908173ffffffffffffffffffffffffffffffffffffffff16815250505b806000878760405161029592919061055f565b908152602001604051809103902060008201518160000160006101000a81548173ffffffffffffffffffffffffffffffffffffffff021916908373ffffffffffffffffffffffffffffffffffffffff16021790555060208201518160010160006101000a81548173ffffffffffffffffffffffffffffffffffffffff021916908373ffffffffffffffffffffffffffffffffffffffff16021790555060408201518160010160146101000a81548161ffff021916908361ffff1602179055509050506001915050949350505050565b6000806000848460405161037992919061055f565b908152602001604051809103902060010160009054906101000a900473ffffffffffffffffffffffffffffffffffffffff16600085856040516103bd92919061055f565b908152602001604051809103902060010160149054906101000a900461ffff16915091509250929050565b6000813590506103f781610622565b92915050565b60008083601f84011261040f57600080fd5b8235905067ffffffffffffffff81111561042857600080fd5b60208301915083600182028301111561044057600080fd5b9250929050565b60008135905061045681610639565b92915050565b6000806020838503121561046f57600080fd5b600083013567ffffffffffffffff81111561048957600080fd5b610495858286016103fd565b92509250509250929050565b600080600080606085870312156104b757600080fd5b600085013567ffffffffffffffff8111156104d157600080fd5b6104dd878288016103fd565b945094505060206104f0878288016103e8565b925050604061050187828801610447565b91505092959194509250565b610516816105c7565b82525050565b610525816105d9565b82525050565b600061053783856105bc565b9350610544838584610613565b82840190509392505050565b610559816105e5565b82525050565b600061056c82848661052b565b91508190509392505050565b600060408201905061058d600083018561050d565b61059a6020830184610550565b9392505050565b60006020820190506105b6600083018461051c565b92915050565b600081905092915050565b60006105d2826105f3565b9050919050565b60008115159050919050565b600061ffff82169050919050565b600073ffffffffffffffffffffffffffffffffffffffff82169050919050565b82818337600083830152505050565b61062b816105c7565b811461063657600080fd5b50565b610642816105e5565b811461064d57600080fd5b5056fea2646970667358221220b280da214c6e83486761719f3311ccd4811b7b61bc1d453343bf53d889a0c57d64736f6c63430007060033",
  "source": "// SPDX-License-Identifier: GPL-3.0-only\n\npragma solidity ^0.7.6;\npragma experimental ABIEncoderV2;\n\ncontract NameRegistry {\n   struct ContractDetails {\n      address owner;\n      address contractAddress;\n      uint16 version;\n   }\n   mapping(string => ContractDetails) registry;\n   function registerName(string calldata name, address addr, uint16 ver) public returns (bool) {\n      // versions should start from 1\n      require(ver >= 1);\n      \n      ContractDetails memory info = registry[name];\n      // require(info.owner == msg.sender);\n      // create info if it doesn't exist in the registry\n       if (info.contractAddress == address(0)) {\n          info = ContractDetails({\n             owner: msg.sender,\n             contractAddress: addr,\n             version: ver\n          });\n       } else {\n          info.version = ver;\n          info.contractAddress = addr;\n       }\n       // update record in the registry\n       registry[name] = info;\n       return true;\n   }\n    function getContractDetails(string calldata name) public view returns(address, uint16) {\n      return (registry[name].contractAddress, registry[name].version);\n   }\n}",
  "sourcePath": "/home/quoc/Projects/harmony-totp-pure/contracts/name_registry.sol",
  "compiler": {
    "name": "solc",
    "version": "0.7.6+commit.7338295f.Emscripten.clang"
  },
  "schemaVersion": "3.3.4",
  "updatedAt": "2021-10-15T16:49:13.598Z",
  "networkType": "ethereum",
  "devdoc": {
    "kind": "dev",
    "methods": {},
    "version": 1
  },
  "userdoc": {
    "kind": "user",
    "methods": {},
    "version": 1
  }
}