{
  "contractName": "Recovery",
  "abi": [
    {
      "anonymous": false,
      "inputs": [
        {
          "indexed": false,
          "internalType": "address",
          "name": "newOner",
          "type": "address"
        },
        {
          "indexed": false,
          "internalType": "uint256",
          "name": "counter",
          "type": "uint256"
        }
      ],
      "name": "WalletRecovered",
      "type": "event"
    },
    {
      "inputs": [],
      "name": "START_RECOVERY_TYPEHASH",
      "outputs": [
        {
          "internalType": "bytes32",
          "name": "",
          "type": "bytes32"
        }
      ],
      "stateMutability": "view",
      "type": "function",
      "constant": true
    }
  ],
  "bytecode": "0x611d86610053600b82828239805160001a607314610046577f4e487b7100000000000000000000000000000000000000000000000000000000600052600060045260246000fd5b30600052607381538281f3fe730000000000000000000000000000000000000000301460806040526004361061006c5760003560e01c80630e7032621461007157806321ca866f1461009a5780634545b704146100b657806378a278df146100df578063cc5d24cb146100fd578063ff7cf56214610126575b600080fd5b81801561007d57600080fd5b5061009860048036038101906100939190611370565b61014f565b005b6100b460048036038101906100af9190611418565b610388565b005b8180156100c257600080fd5b506100dd60048036038101906100d89190611370565b610576565b005b6100e7610630565b6040516100f4919061184d565b60405180910390f35b81801561010957600080fd5b50610124600480360381019061011f91906113ac565b610654565b005b81801561013257600080fd5b5061014d6004803603810190610148919061146c565b6109ad565b005b6000816040516020016101629190611809565b6040516020818303038152906040528060200190518101906101849190611347565b9050600083601101600083815260200190815260200160002060020154146101e1576040517f08c379a00000000000000000000000000000000000000000000000000000000081526004016101d890611868565b60405180910390fd5b60606040518060a001604052806000801b81526020018473ffffffffffffffffffffffffffffffffffffffff168152602001438152602001600115158152602001828152508460110160008481526020019081526020016000206000820151816000015560208201518160010160006101000a81548173ffffffffffffffffffffffffffffffffffffffff021916908373ffffffffffffffffffffffffffffffffffffffff1602179055506040820151816002015560608201518160030160006101000a81548160ff02191690831515021790555060808201518160040190805190602001906102d292919061116c565b50905050836011016000838152602001908152602001600020600401339080600181540180825580915050600190039060005260206000200160009091909190916101000a81548173ffffffffffffffffffffffffffffffffffffffff021916908373ffffffffffffffffffffffffffffffffffffffff16021790555060405180604001604052808381526020016000801b81525084600f01600082015181600001556020820151816001015590505050505050565b600061039382610c39565b905060006104028460020160009054906101000a900460ff1660ff1684600186516103be9190611a9d565b815181106103f5577f4e487b7100000000000000000000000000000000000000000000000000000000600052603260045260246000fd5b6020026020010151610d4d565b905083600301548163ffffffff161015610451576040517f08c379a000000000000000000000000000000000000000000000000000000000815260040161044890611928565b60405180910390fd5b603284600301548263ffffffff166104699190611a9d565b106104a9576040517f08c379a00000000000000000000000000000000000000000000000000000000081526004016104a090611948565b60405180910390fd5b6000805b85600101805490508163ffffffff16101561052e57856001018163ffffffff1681548110610504577f4e487b7100000000000000000000000000000000000000000000000000000000600052603260045260246000fd5b906000526020600020015484141561051b57600191505b808061052690611bbb565b9150506104ad565b508061056f576040517f08c379a0000000000000000000000000000000000000000000000000000000008152600401610566906118c8565b60405180910390fd5b5050505050565b808260000160006101000a81548173ffffffffffffffffffffffffffffffffffffffff021916908373ffffffffffffffffffffffffffffffffffffffff16021790555060405180604001604052806000801b81526020016000801b81525082600f0160008201518160000155602082015181600101559050507f1dc911375febff18f84c0e1128d394633d6bd150b37ce2d044cdfb86612fa139818360030154604051610624929190611824565b60405180910390a15050565b7f0eff1cacf91ec50b2baf2726da374088d70828d9a8984acae6949e5275ee2fdf81565b600082826000818110610690577f4e487b7100000000000000000000000000000000000000000000000000000000600052603260045260246000fd5b905060200201356040516020016106a791906117c2565b604051602081830303815290604052805190602001209050600085601101600083815260200190815260200160002060020154141561071b576040517f08c379a000000000000000000000000000000000000000000000000000000000815260040161071290611888565b60405180910390fd5b6000151585601101600083815260200190815260200160002060030160009054906101000a900460ff16151514610787576040517f08c379a000000000000000000000000000000000000000000000000000000000815260040161077e906118e8565b60405180910390fd5b600f85601101600083815260200190815260200160002060020154436107ad9190611a9d565b106107ed576040517f08c379a00000000000000000000000000000000000000000000000000000000081526004016107e490611968565b60405180910390fd5b6000848484600081811061082a577f4e487b7100000000000000000000000000000000000000000000000000000000600052603260045260246000fd5b90506020020135604051602001610842929190611796565b6040516020818303038152906040528051906020012090508560110160008381526020019081526020016000206000015481146108b4576040517f08c379a00000000000000000000000000000000000000000000000000000000081526004016108ab90611988565b60405180910390fd5b8486601101600084815260200190815260200160002060010160006101000a81548173ffffffffffffffffffffffffffffffffffffffff021916908373ffffffffffffffffffffffffffffffffffffffff160217905550600186601101600084815260200190815260200160002060030160006101000a81548160ff0219169083151502179055506001866003015461094d9190611a16565b86600301819055506000866005018054905014156109745761096f8686610576565b6109a5565b60405180604001604052808381526020018281525086600f0160008201518160000155602082015181600101559050505b505050505050565b600083601101600084815260200190815260200160002090508060030160009054906101000a900460ff16610a17576040517f08c379a0000000000000000000000000000000000000000000000000000000008152600401610a0e90611908565b60405180910390fd5b600081600201541415610a5f576040517f08c379a0000000000000000000000000000000000000000000000000000000008152600401610a5690611888565b60405180910390fd5b60005b8160040180549050811015610b59578273ffffffffffffffffffffffffffffffffffffffff16826004018281548110610ac4577f4e487b7100000000000000000000000000000000000000000000000000000000600052603260045260246000fd5b9060005260206000200160009054906101000a900473ffffffffffffffffffffffffffffffffffffffff1673ffffffffffffffffffffffffffffffffffffffff161415610b46576040517f08c379a0000000000000000000000000000000000000000000000000000000008152600401610b3d906118a8565b60405180910390fd5b8080610b5190611b72565b915050610a62565b5080600401829080600181540180825580915050600190039060005260206000200160009091909190916101000a81548173ffffffffffffffffffffffffffffffffffffffff021916908373ffffffffffffffffffffffffffffffffffffffff1602179055506000610bd385600501805490506002610e22565b90506000801b82600001541415610bf457600181610bf19190611a16565b90505b8082600401805490501415610c3257610c31858360010160009054906101000a900473ffffffffffffffffffffffffffffffffffffffff16610576565b5b5050505050565b600081600081518110610c75577f4e487b7100000000000000000000000000000000000000000000000000000000600052603260045260246000fd5b6020026020010151604051602001610c8d91906117c2565b6040516020818303038152906040528051906020012082600081518110610cdd577f4e487b7100000000000000000000000000000000000000000000000000000000600052603260045260246000fd5b60200260200101818152505060008260018451610cfa9190611a9d565b81518110610d31577f4e487b7100000000000000000000000000000000000000000000000000000000600052603260045260246000fd5b60200260200101519050610d458382610e67565b915050919050565b6000806000905060005b848160ff161015610e1757838160ff1660208110610d9e577f4e487b7100000000000000000000000000000000000000000000000000000000600052603260045260246000fd5b1a60f81b7effffffffffffffffffffffffffffffffffffffffffffffffffffffffffffff1916600160f81b7effffffffffffffffffffffffffffffffffffffffffffffffffffffffffffff19161415610e04578060ff16600163ffffffff16901b821791505b8080610e0f90611be8565b915050610d57565b508091505092915050565b6000808284610e319190611a6c565b905060008385610e419190611c40565b1415610e505780915050610e61565b600181610e5d9190611a16565b9150505b92915050565b600080600190505b60018451610e7d9190611a9d565b8160ff1610156111215782600182610e959190611ad1565b60ff1660208110610ecf577f4e487b7100000000000000000000000000000000000000000000000000000000600052603260045260246000fd5b1a60f81b7effffffffffffffffffffffffffffffffffffffffffffffffffffffffffffff1916600060f81b7effffffffffffffffffffffffffffffffffffffffffffffffffffffffffffff1916141561101a5783600081518110610f5c577f4e487b7100000000000000000000000000000000000000000000000000000000600052603260045260246000fd5b6020026020010151848260ff1681518110610fa0577f4e487b7100000000000000000000000000000000000000000000000000000000600052603260045260246000fd5b6020026020010151604051602001610fb99291906117dd565b6040516020818303038152906040528051906020012084600081518110611009577f4e487b7100000000000000000000000000000000000000000000000000000000600052603260045260246000fd5b60200260200101818152505061110e565b838160ff1681518110611056577f4e487b7100000000000000000000000000000000000000000000000000000000600052603260045260246000fd5b602002602001015184600081518110611098577f4e487b7100000000000000000000000000000000000000000000000000000000600052603260045260246000fd5b60200260200101516040516020016110b19291906117dd565b6040516020818303038152906040528051906020012084600081518110611101577f4e487b7100000000000000000000000000000000000000000000000000000000600052603260045260246000fd5b6020026020010181815250505b808061111990611be8565b915050610e6f565b508260008151811061115c577f4e487b7100000000000000000000000000000000000000000000000000000000600052603260045260246000fd5b6020026020010151905092915050565b8280548282559060005260206000209081019282156111e5579160200282015b828111156111e45782518260006101000a81548173ffffffffffffffffffffffffffffffffffffffff021916908373ffffffffffffffffffffffffffffffffffffffff1602179055509160200191906001019061118c565b5b5090506111f291906111f6565b5090565b5b8082111561120f5760008160009055506001016111f7565b5090565b6000611226611221846119d9565b6119a8565b9050808382526020820190508285602086028201111561124557600080fd5b60005b85811015611275578161125b8882611308565b845260208401935060208301925050600181019050611248565b5050509392505050565b60008135905061128e81611d0b565b92915050565b60008083601f8401126112a657600080fd5b8235905067ffffffffffffffff8111156112bf57600080fd5b6020830191508360208202830111156112d757600080fd5b9250929050565b600082601f8301126112ef57600080fd5b81356112ff848260208601611213565b91505092915050565b60008135905061131781611d22565b92915050565b60008151905061132c81611d22565b92915050565b60008135905061134181611d39565b92915050565b60006020828403121561135957600080fd5b60006113678482850161131d565b91505092915050565b6000806040838503121561138357600080fd5b600061139185828601611332565b92505060206113a28582860161127f565b9150509250929050565b600080600080606085870312156113c257600080fd5b60006113d087828801611332565b94505060206113e18782880161127f565b935050604085013567ffffffffffffffff8111156113fe57600080fd5b61140a87828801611294565b925092505092959194509250565b6000806040838503121561142b57600080fd5b600061143985828601611332565b925050602083013567ffffffffffffffff81111561145657600080fd5b611462858286016112de565b9150509250929050565b60008060006060848603121561148157600080fd5b600061148f86828701611332565b93505060206114a086828701611308565b92505060406114b18682870161127f565b9150509250925092565b6114c481611b05565b82525050565b6114db6114d682611b05565b611c12565b82525050565b6114ea81611b17565b82525050565b6115016114fc82611b17565b611c24565b82525050565b6000611514601483611a05565b91507f434f4d4d495420414c52454144592045584953540000000000000000000000006000830152602082019050919050565b6000611554600983611a05565b91507f4e4f20434f4d4d495400000000000000000000000000000000000000000000006000830152602082019050919050565b6000611594601283611a05565b91507f6475706c696361746520677561726469616e00000000000000000000000000006000830152602082019050919050565b60006115d4601083611a05565b91507f554e45585045435445442050524f4f46000000000000000000000000000000006000830152602082019050919050565b6000611614601783611a05565b91507f434f4d4d495420414c52454144592052455645414c45440000000000000000006000830152602082019050919050565b6000611654601383611a05565b91507f434f4d4d4954204e4f542052455645414c4544000000000000000000000000006000830152602082019050919050565b6000611694600f83611a05565b91507f426164206f747020636f756e74657200000000000000000000000000000000006000830152602082019050919050565b60006116d4601a83611a05565b91507f436f756e746572206d6f7265207468616e2035302073746570730000000000006000830152602082019050919050565b6000611714601183611a05565b91507f436f6d6d697420697320746f6f206f6c640000000000000000000000000000006000830152602082019050919050565b6000611754601783611a05565b91507f446174616861736820646f6573206e6f74206d617463680000000000000000006000830152602082019050919050565b61179081611b4b565b82525050565b60006117a282856114ca565b6014820191506117b282846114f0565b6020820191508190509392505050565b60006117ce82846114f0565b60208201915081905092915050565b60006117e982856114f0565b6020820191506117f982846114f0565b6020820191508190509392505050565b600060208201905061181e60008301846114bb565b92915050565b600060408201905061183960008301856114bb565b6118466020830184611787565b9392505050565b600060208201905061186260008301846114e1565b92915050565b6000602082019050818103600083015261188181611507565b9050919050565b600060208201905081810360008301526118a181611547565b9050919050565b600060208201905081810360008301526118c181611587565b9050919050565b600060208201905081810360008301526118e1816115c7565b9050919050565b6000602082019050818103600083015261190181611607565b9050919050565b6000602082019050818103600083015261192181611647565b9050919050565b6000602082019050818103600083015261194181611687565b9050919050565b60006020820190508181036000830152611961816116c7565b9050919050565b6000602082019050818103600083015261198181611707565b9050919050565b600060208201905081810360008301526119a181611747565b9050919050565b6000604051905081810181811067ffffffffffffffff821117156119cf576119ce611ccf565b5b8060405250919050565b600067ffffffffffffffff8211156119f4576119f3611ccf565b5b602082029050602081019050919050565b600082825260208201905092915050565b6000611a2182611b4b565b9150611a2c83611b4b565b9250827fffffffffffffffffffffffffffffffffffffffffffffffffffffffffffffffff03821115611a6157611a60611c71565b5b828201905092915050565b6000611a7782611b4b565b9150611a8283611b4b565b925082611a9257611a91611ca0565b5b828204905092915050565b6000611aa882611b4b565b9150611ab383611b4b565b925082821015611ac657611ac5611c71565b5b828203905092915050565b6000611adc82611b65565b9150611ae783611b65565b925082821015611afa57611af9611c71565b5b828203905092915050565b6000611b1082611b2b565b9050919050565b6000819050919050565b6000819050919050565b600073ffffffffffffffffffffffffffffffffffffffff82169050919050565b6000819050919050565b600063ffffffff82169050919050565b600060ff82169050919050565b6000611b7d82611b4b565b91507fffffffffffffffffffffffffffffffffffffffffffffffffffffffffffffffff821415611bb057611baf611c71565b5b600182019050919050565b6000611bc682611b55565b915063ffffffff821415611bdd57611bdc611c71565b5b600182019050919050565b6000611bf382611b65565b915060ff821415611c0757611c06611c71565b5b600182019050919050565b6000611c1d82611c2e565b9050919050565b6000819050919050565b6000611c3982611cfe565b9050919050565b6000611c4b82611b4b565b9150611c5683611b4b565b925082611c6657611c65611ca0565b5b828206905092915050565b7f4e487b7100000000000000000000000000000000000000000000000000000000600052601160045260246000fd5b7f4e487b7100000000000000000000000000000000000000000000000000000000600052601260045260246000fd5b7f4e487b7100000000000000000000000000000000000000000000000000000000600052604160045260246000fd5b60008160601b9050919050565b611d1481611b05565b8114611d1f57600080fd5b50565b611d2b81611b17565b8114611d3657600080fd5b50565b611d4281611b21565b8114611d4d57600080fd5b5056fea2646970667358221220d69d896e62879b8cafb75f932ed0fbe658a9e1486d1cd604829e15a766908fa864736f6c63430008000033",
  "immutableReferences": {},
  "source": "// SPDX-License-Identifier: GPL-3.0-only\n\npragma solidity >=0.7.6;\nimport \"../core/wallet_data.sol\";\nimport \"./metatx.sol\";\n\nlibrary Recovery {\n\n    event WalletRecovered(address newOner, uint counter);\n\n    bytes32 public constant START_RECOVERY_TYPEHASH = keccak256(\n        \"startRecovery(bytes16, uint8, uint, uint)\"\n    );\n\n    /* 1 of 1 (HOTP)\n     * 2 of 2 (HOTP + Guardian)\n     * 2 of 3 (2 guardians or HOTP + Guardian)\n     */\n    function startRecoverGuardianOnly(Core.Wallet storage wallet_, address newOwner) public {\n        // queue it for next 24hrs\n        bytes32 secretHash = abi.decode(abi.encode(newOwner), (bytes32));\n        require(wallet_.commitHash[secretHash].blockNumber == 0, \"COMMIT ALREADY EXIST\");\n        address[] memory guardiansApproved;     \n        wallet_.commitHash[secretHash] = Core.CommitInfo(0x0, newOwner, block.number, true, guardiansApproved);\n        wallet_.commitHash[secretHash].guardiansApproved.push(msg.sender);   \n        wallet_.pendingRecovery = Core.RecoveryInfo(secretHash, 0x0);\n        \n    }\n    \n    function startRecoveryReveal(Core.Wallet storage wallet, address newOwner, bytes32[] calldata confirmMaterial) public {\n        bytes32 secretHash = keccak256(abi.encodePacked(confirmMaterial[0]));\n        require(wallet.commitHash[secretHash].blockNumber != 0, \"NO COMMIT\");\n        require(wallet.commitHash[secretHash].revealed == false, \"COMMIT ALREADY REVEALED\");\n        require(block.number - wallet.commitHash[secretHash].blockNumber < 15, \"Commit is too old\");\n\n        bytes32 hash = keccak256(abi.encodePacked(newOwner, confirmMaterial[0]));\n        require(hash == wallet.commitHash[secretHash].dataHash, \"Datahash does not match\");\n\n        wallet.commitHash[secretHash].newOwner = newOwner;\n        wallet.commitHash[secretHash].revealed = true;\n        wallet.counter = wallet.counter + 1;\n\n        if(wallet.guardians.length==0) {\n            finalizeRecovery(wallet, newOwner);\n        } else {\n            wallet.pendingRecovery = Core.RecoveryInfo(secretHash, hash);\n        }\n    }\n    \n    function finalizeRecovery(Core.Wallet storage wallet, address newOwner) public {\n        wallet.owner = newOwner;\n        wallet.pendingRecovery = Core.RecoveryInfo(0x0, 0x0);\n        emit WalletRecovered(newOwner, wallet.counter);\n    }\n    \n    // Guardian has not been dedup\n    // function must take steps to check it\n    function guardianApproveRecovery(Core.Wallet storage wallet, bytes32 secretHash, address guardian) public {\n        Core.CommitInfo storage info = wallet.commitHash[secretHash];\n        require(info.revealed, \"COMMIT NOT REVEALED\");\n        require(info.blockNumber != 0, \"NO COMMIT\");\n\n        // dedup\n        for (uint256 i = 0; i < info.guardiansApproved.length; i++) {\n            if (info.guardiansApproved[i] == guardian) {\n                revert(\"duplicate guardian\");                \n            }\n        }       \n        info.guardiansApproved.push(guardian);\n\n        // count & finalize\n        uint requiredSignatures = MetaTx.ceil(wallet.guardians.length, 2);\n        if(info.dataHash == 0x0) {\n            requiredSignatures += 1; // add one if not using HOTP\n        }\n        if(info.guardiansApproved.length == requiredSignatures) {\n            finalizeRecovery(wallet, info.newOwner);\n        }\n    }\n\n    //\n    // HOTP Verification functions\n    //\n\n    function isValidHOTP(Core.Wallet storage wallet, bytes32[] memory confirmMaterial) public view {\n        bytes32 reduced = _reduceConfirmMaterial(confirmMaterial);\n        uint32 counterProvided = _deriveChildTreeIdx(wallet.merkelHeight, confirmMaterial[confirmMaterial.length-1]);\n        require(counterProvided >= wallet.counter, \"Bad otp counter\");\n\n        // Google Authenticator doesn't allow custom counter or change counter back; so we must allow room to fudge\n        // allow some room if the counters were skipped at some point\n        require(counterProvided - wallet.counter  < 50, \"Counter more than 50 steps\");\n\n        bool foundMatch = false;\n        for (uint32 i = 0; i < wallet.rootHash.length; i++) {\n            if(reduced==wallet.rootHash[i]) {\n                foundMatch = true;\n            }\n        }\n        require(foundMatch, \"UNEXPECTED PROOF\");        \n    }\n\n    function _deriveChildTreeIdx(uint merkelHeight, bytes32 sides) internal pure returns (uint32) {\n        uint32 derivedIdx = 0;\n        for(uint8 i = 0 ; i < merkelHeight ; i++){\n            if(bytes1(0x01) == sides[i]){\n                derivedIdx |=  uint32(0x01) << i;\n            }\n        }\n        return derivedIdx;\n    }\n    \n    function _reduceConfirmMaterial(bytes32[] memory confirmMaterial) internal pure returns (bytes32) {\n        //  and then compute h(OTP) to get the leaf of the tree\n        confirmMaterial[0] = keccak256(abi.encodePacked(confirmMaterial[0]));\n        bytes32 sides = confirmMaterial[confirmMaterial.length - 1];\n        return _reduceAuthPath(confirmMaterial, sides);\n    }\n\n    function _reduceAuthPath(bytes32[] memory authPath, bytes32 sides) internal pure returns (bytes32){\n        for (uint8 i = 1; i < authPath.length - 1; i++) {\n            if(bytes1(0x00) == sides[i - 1]){\n                authPath[0] = keccak256(abi.encodePacked(authPath[0], authPath[i]));\n            } else{\n                authPath[0] = keccak256(abi.encodePacked(authPath[i], authPath[0]));\n            }\n        }\n        //emit DebugEvent(authPath[0]);\n        return authPath[0];\n    }\n    \n}",
  "sourcePath": "/home/quoc/Projects/harmony-totp-pure/contracts/features/recovery.sol",
  "compiler": {
    "name": "solc",
    "version": "0.8.0+commit.c7dfd78e.Emscripten.clang"
  },
  "schemaVersion": "3.3.3",
  "updatedAt": "2021-11-16T19:32:56.764Z",
  "networkType": "ethereum",
  "devdoc": {
    "kind": "dev",
    "methods": {},
    "version": 1
  },
  "userdoc": {
    "kind": "user",
    "methods": {},
    "version": 1
  }
}