{
  "contractName": "Recovery",
  "abi": [
    {
      "inputs": [],
      "name": "START_RECOVERY_TYPEHASH",
      "outputs": [
        {
          "internalType": "bytes32",
          "name": "",
          "type": "bytes32"
        }
      ],
      "stateMutability": "view",
      "type": "function",
      "constant": true
    },
    {
      "inputs": [
        {
          "internalType": "uint256",
          "name": "merkelHeight",
          "type": "uint256"
        },
        {
          "internalType": "bytes32",
          "name": "sides",
          "type": "bytes32"
        }
      ],
      "name": "_deriveChildTreeIdx",
      "outputs": [
        {
          "internalType": "uint32",
          "name": "",
          "type": "uint32"
        }
      ],
      "stateMutability": "pure",
      "type": "function",
      "constant": true
    },
    {
      "inputs": [
        {
          "internalType": "bytes32[]",
          "name": "confirmMaterial",
          "type": "bytes32[]"
        }
      ],
      "name": "_reduceConfirmMaterial",
      "outputs": [
        {
          "internalType": "bytes32",
          "name": "",
          "type": "bytes32"
        }
      ],
      "stateMutability": "pure",
      "type": "function",
      "constant": true
    }
  ],
  "bytecode": "0x610e67610053600b82828239805160001a607314610046577f4e487b7100000000000000000000000000000000000000000000000000000000600052600060045260246000fd5b30600052607381538281f3fe73000000000000000000000000000000000000000030146080604052600436106100615760003560e01c8063396c8e65146100665780635fd72247146100965780636ffc1c62146100bf57806378a278df146100e8578063a6659f2614610106575b600080fd5b610080600480360381019061007b91906109fc565b610136565b60405161008d9190610b8f565b60405180910390f35b8180156100a257600080fd5b506100bd60048036038101906100b89190610997565b61020b565b005b8180156100cb57600080fd5b506100e660048036038101906100e191906109c0565b61039a565b005b6100f061042f565b6040516100fd9190610b34565b60405180910390f35b610120600480360381019061011b9190610956565b610453565b60405161012d9190610b34565b60405180910390f35b6000806000905060005b848160ff16101561020057838160ff1660208110610187577f4e487b7100000000000000000000000000000000000000000000000000000000600052603260045260246000fd5b1a60f81b7effffffffffffffffffffffffffffffffffffffffffffffffffffffffffffff1916600160f81b7effffffffffffffffffffffffffffffffffffffffffffffffffffffffffffff191614156101ed578060ff16600163ffffffff16901b821791505b80806101f890610d43565b915050610140565b508091505092915050565b600081600b016001015411610255576040517f08c379a000000000000000000000000000000000000000000000000000000000815260040161024c90610b6f565b60405180910390fd5b80600b01600101544267ffffffffffffffff16116102a8576040517f08c379a000000000000000000000000000000000000000000000000000000000815260040161029f90610b4f565b60405180910390fd5b80600b0160000160009054906101000a900473ffffffffffffffffffffffffffffffffffffffff168160000160006101000a81548173ffffffffffffffffffffffffffffffffffffffff021916908373ffffffffffffffffffffffffffffffffffffffff1602179055506040518060400160405280600073ffffffffffffffffffffffffffffffffffffffff168152602001600081525081600b0160008201518160000160006101000a81548173ffffffffffffffffffffffffffffffffffffffff021916908373ffffffffffffffffffffffffffffffffffffffff1602179055506020820151816001015590505050565b60405180604001604052808273ffffffffffffffffffffffffffffffffffffffff16815260200162015180426103d09190610c18565b81525082600b0160008201518160000160006101000a81548173ffffffffffffffffffffffffffffffffffffffff021916908373ffffffffffffffffffffffffffffffffffffffff160217905550602082015181600101559050505050565b7f0eff1cacf91ec50b2baf2726da374088d70828d9a8984acae6949e5275ee2fdf81565b60008160008151811061048f577f4e487b7100000000000000000000000000000000000000000000000000000000600052603260045260246000fd5b60200260200101516040516020016104a79190610aed565b60405160208183030381529060405280519060200120826000815181106104f7577f4e487b7100000000000000000000000000000000000000000000000000000000600052603260045260246000fd5b602002602001018181525050600082600184516105149190610c6e565b8151811061054b577f4e487b7100000000000000000000000000000000000000000000000000000000600052603260045260246000fd5b6020026020010151905061055f8382610567565b915050919050565b600080600190505b6001845161057d9190610c6e565b8160ff16101561082157826001826105959190610ca2565b60ff16602081106105cf577f4e487b7100000000000000000000000000000000000000000000000000000000600052603260045260246000fd5b1a60f81b7effffffffffffffffffffffffffffffffffffffffffffffffffffffffffffff1916600060f81b7effffffffffffffffffffffffffffffffffffffffffffffffffffffffffffff1916141561071a578360008151811061065c577f4e487b7100000000000000000000000000000000000000000000000000000000600052603260045260246000fd5b6020026020010151848260ff16815181106106a0577f4e487b7100000000000000000000000000000000000000000000000000000000600052603260045260246000fd5b60200260200101516040516020016106b9929190610b08565b6040516020818303038152906040528051906020012084600081518110610709577f4e487b7100000000000000000000000000000000000000000000000000000000600052603260045260246000fd5b60200260200101818152505061080e565b838160ff1681518110610756577f4e487b7100000000000000000000000000000000000000000000000000000000600052603260045260246000fd5b602002602001015184600081518110610798577f4e487b7100000000000000000000000000000000000000000000000000000000600052603260045260246000fd5b60200260200101516040516020016107b1929190610b08565b6040516020818303038152906040528051906020012084600081518110610801577f4e487b7100000000000000000000000000000000000000000000000000000000600052603260045260246000fd5b6020026020010181815250505b808061081990610d43565b91505061056f565b508260008151811061085c577f4e487b7100000000000000000000000000000000000000000000000000000000600052603260045260246000fd5b6020026020010151905092915050565b600061087f61087a84610bdb565b610baa565b9050808382526020820190508285602086028201111561089e57600080fd5b60005b858110156108ce57816108b48882610917565b8452602084019350602083019250506001810190506108a1565b5050509392505050565b6000813590506108e781610dd5565b92915050565b600082601f8301126108fe57600080fd5b813561090e84826020860161086c565b91505092915050565b60008135905061092681610dec565b92915050565b60008135905061093b81610e03565b92915050565b60008135905061095081610e1a565b92915050565b60006020828403121561096857600080fd5b600082013567ffffffffffffffff81111561098257600080fd5b61098e848285016108ed565b91505092915050565b6000602082840312156109a957600080fd5b60006109b78482850161092c565b91505092915050565b600080604083850312156109d357600080fd5b60006109e18582860161092c565b92505060206109f2858286016108d8565b9150509250929050565b60008060408385031215610a0f57600080fd5b6000610a1d85828601610941565b9250506020610a2e85828601610917565b9150509250929050565b610a4181610ce8565b82525050565b610a58610a5382610ce8565b610d6d565b82525050565b6000610a6b601783610c07565b91507f6f6e676f696e67207265636f7665727920706572696f640000000000000000006000830152602082019050919050565b6000610aab601383610c07565b91507f6e6f2070656e64696e67207265636f76657279000000000000000000000000006000830152602082019050919050565b610ae781610d26565b82525050565b6000610af98284610a47565b60208201915081905092915050565b6000610b148285610a47565b602082019150610b248284610a47565b6020820191508190509392505050565b6000602082019050610b496000830184610a38565b92915050565b60006020820190508181036000830152610b6881610a5e565b9050919050565b60006020820190508181036000830152610b8881610a9e565b9050919050565b6000602082019050610ba46000830184610ade565b92915050565b6000604051905081810181811067ffffffffffffffff82111715610bd157610bd0610da6565b5b8060405250919050565b600067ffffffffffffffff821115610bf657610bf5610da6565b5b602082029050602081019050919050565b600082825260208201905092915050565b6000610c2382610d1c565b9150610c2e83610d1c565b9250827fffffffffffffffffffffffffffffffffffffffffffffffffffffffffffffffff03821115610c6357610c62610d77565b5b828201905092915050565b6000610c7982610d1c565b9150610c8483610d1c565b925082821015610c9757610c96610d77565b5b828203905092915050565b6000610cad82610d36565b9150610cb883610d36565b925082821015610ccb57610cca610d77565b5b828203905092915050565b6000610ce182610cfc565b9050919050565b6000819050919050565b6000819050919050565b600073ffffffffffffffffffffffffffffffffffffffff82169050919050565b6000819050919050565b600063ffffffff82169050919050565b600060ff82169050919050565b6000610d4e82610d36565b915060ff821415610d6257610d61610d77565b5b600182019050919050565b6000819050919050565b7f4e487b7100000000000000000000000000000000000000000000000000000000600052601160045260246000fd5b7f4e487b7100000000000000000000000000000000000000000000000000000000600052604160045260246000fd5b610dde81610cd6565b8114610de957600080fd5b50565b610df581610ce8565b8114610e0057600080fd5b50565b610e0c81610cf2565b8114610e1757600080fd5b50565b610e2381610d1c565b8114610e2e57600080fd5b5056fea26469706673582212200db0698981cb4069adce4b33f8f3e863e6e89d15fec1aca81fc8b9ad6c4cd91364736f6c63430008000033",
  "immutableReferences": {},
  "source": "// SPDX-License-Identifier: GPL-3.0-only\n\npragma solidity >=0.7.6;\nimport \"../core/wallet_data.sol\";\nimport \"./metatx.sol\";\n\nlibrary Recovery {\n\n    bytes32 public constant START_RECOVERY_TYPEHASH = keccak256(\n        \"startRecovery(bytes16, uint8, uint, uint)\"\n    );\n\n    /* 1 of 1 (HOTP)\n     * 2 of 2 (HOTP + Guardian)\n     * 2 of 3 (2 guardians or HOTP + Guardian)\n     */\n    function startRecovery(Core.Wallet storage wallet_, address newOwner) public {\n        // queue it for next 24hrs\n        wallet_.pendingRecovery = Core.RecoveryInfo(newOwner, block.timestamp + 86400);\n    }\n\n    function finalizeRecovery(Core.Wallet storage wallet_) public {\n        require(wallet_.pendingRecovery.expiration > 0, \"no pending recovery\");\n        require(uint64(block.timestamp) > wallet_.pendingRecovery.expiration, \"ongoing recovery period\");\n        wallet_.owner = wallet_.pendingRecovery.newOwner;\n        wallet_.pendingRecovery = Core.RecoveryInfo(address(0),0);\n    }\n\n    //\n    // Private functions\n    //\n\n\n    //\n    // HOTP Verification functions\n    //\n    function _deriveChildTreeIdx(uint merkelHeight, bytes32 sides) public pure returns (uint32) {\n        uint32 derivedIdx = 0;\n        for(uint8 i = 0 ; i < merkelHeight ; i++){\n            if(bytes1(0x01) == sides[i]){\n                derivedIdx |=  uint32(0x01) << i;\n            }\n        }\n        return derivedIdx;\n    }\n    \n    function _reduceConfirmMaterial(bytes32[] memory confirmMaterial) public pure returns (bytes32) {\n        //  and then compute h(OTP) to get the leaf of the tree\n        confirmMaterial[0] = keccak256(abi.encodePacked(confirmMaterial[0]));\n        bytes32 sides = confirmMaterial[confirmMaterial.length - 1];\n        return _reduceAuthPath(confirmMaterial, sides);\n    }\n\n    function _reduceAuthPath(bytes32[] memory authPath, bytes32 sides) internal pure returns (bytes32){\n        for (uint8 i = 1; i < authPath.length - 1; i++) {\n            if(bytes1(0x00) == sides[i - 1]){\n                authPath[0] = keccak256(abi.encodePacked(authPath[0], authPath[i]));\n            } else{\n                authPath[0] = keccak256(abi.encodePacked(authPath[i], authPath[0]));\n            }\n        }\n        //emit DebugEvent(authPath[0]);\n        return authPath[0];\n    }\n    \n}",
  "sourcePath": "/home/quoc/Projects/harmony-totp-pure/contracts/features/recovery.sol",
  "compiler": {
    "name": "solc",
    "version": "0.8.0+commit.c7dfd78e.Emscripten.clang"
  },
  "schemaVersion": "3.3.4",
  "updatedAt": "2021-07-28T21:20:28.715Z",
  "networkType": "ethereum",
  "devdoc": {
    "kind": "dev",
    "methods": {},
    "version": 1
  },
  "userdoc": {
    "kind": "user",
    "methods": {},
    "version": 1
  }
}