{
  "contractName": "Recovery",
  "abi": [
    {
      "anonymous": false,
      "inputs": [
        {
          "indexed": false,
          "internalType": "address",
          "name": "newOner",
          "type": "address"
        },
        {
          "indexed": false,
          "internalType": "uint256",
          "name": "counter",
          "type": "uint256"
        }
      ],
      "name": "WalletRecovered",
      "type": "event"
    },
    {
      "inputs": [],
      "name": "START_RECOVERY_TYPEHASH",
      "outputs": [
        {
          "internalType": "bytes32",
          "name": "",
          "type": "bytes32"
        }
      ],
      "stateMutability": "view",
      "type": "function",
      "constant": true
    }
  ],
  "bytecode": "0x61172b610053600b82828239805160001a607314610046577f4e487b7100000000000000000000000000000000000000000000000000000000600052600060045260246000fd5b30600052607381538281f3fe73000000000000000000000000000000000000000030146080604052600436106100615760003560e01c806321ca866f146100665780635fd72247146100825780636ffc1c62146100ab57806378a278df146100d4578063cc5d24cb146100f2575b600080fd5b610080600480360381019061007b9190610f61565b61011b565b005b81801561008e57600080fd5b506100a960048036038101906100a49190610e90565b610309565b005b8180156100b757600080fd5b506100d260048036038101906100cd9190610eb9565b610498565b005b6100dc61052d565b6040516100e991906112ec565b60405180910390f35b8180156100fe57600080fd5b5061011960048036038101906101149190610ef5565b610551565b005b600061012682610883565b905060006101958460020160009054906101000a900460ff1660ff16846001865161015191906114eb565b81518110610188577f4e487b7100000000000000000000000000000000000000000000000000000000600052603260045260246000fd5b6020026020010151610997565b905083600301548163ffffffff1610156101e4576040517f08c379a00000000000000000000000000000000000000000000000000000000081526004016101db90611367565b60405180910390fd5b603284600301548263ffffffff166101fc91906114eb565b1061023c576040517f08c379a0000000000000000000000000000000000000000000000000000000008152600401610233906113a7565b60405180910390fd5b6000805b85600101805490508163ffffffff1610156102c157856001018163ffffffff1681548110610297577f4e487b7100000000000000000000000000000000000000000000000000000000600052603260045260246000fd5b90600052602060002001548414156102ae57600191505b80806102b9906115c0565b915050610240565b5080610302576040517f08c379a00000000000000000000000000000000000000000000000000000000081526004016102f990611327565b60405180910390fd5b5050505050565b600081600d016001015411610353576040517f08c379a000000000000000000000000000000000000000000000000000000000815260040161034a906113e7565b60405180910390fd5b80600d01600101544267ffffffffffffffff16116103a6576040517f08c379a000000000000000000000000000000000000000000000000000000000815260040161039d90611387565b60405180910390fd5b80600d0160000160009054906101000a900473ffffffffffffffffffffffffffffffffffffffff168160000160006101000a81548173ffffffffffffffffffffffffffffffffffffffff021916908373ffffffffffffffffffffffffffffffffffffffff1602179055506040518060400160405280600073ffffffffffffffffffffffffffffffffffffffff168152602001600081525081600d0160008201518160000160006101000a81548173ffffffffffffffffffffffffffffffffffffffff021916908373ffffffffffffffffffffffffffffffffffffffff1602179055506020820151816001015590505050565b60405180604001604052808273ffffffffffffffffffffffffffffffffffffffff16815260200162015180426104ce9190611495565b81525082600d0160008201518160000160006101000a81548173ffffffffffffffffffffffffffffffffffffffff021916908373ffffffffffffffffffffffffffffffffffffffff160217905550602082015181600101559050505050565b7f0eff1cacf91ec50b2baf2726da374088d70828d9a8984acae6949e5275ee2fdf81565b60008282600081811061058d577f4e487b7100000000000000000000000000000000000000000000000000000000600052603260045260246000fd5b905060200201356040516020016105a4919061127c565b604051602081830303815290604052805190602001209050600085600f016000838152602001908152602001600020600101541415610618576040517f08c379a000000000000000000000000000000000000000000000000000000000815260040161060f90611307565b60405180910390fd5b6000151585600f01600083815260200190815260200160002060020160009054906101000a900460ff16151514610684576040517f08c379a000000000000000000000000000000000000000000000000000000000815260040161067b90611347565b60405180910390fd5b600f85600f01600083815260200190815260200160002060010154436106aa91906114eb565b106106ea576040517f08c379a00000000000000000000000000000000000000000000000000000000081526004016106e1906113c7565b60405180910390fd5b60008484846000818110610727577f4e487b7100000000000000000000000000000000000000000000000000000000600052603260045260246000fd5b9050602002013560405160200161073f929190611250565b60405160208183030381529060405280519060200120905085600f0160008381526020019081526020016000206000015481146107b1576040517f08c379a00000000000000000000000000000000000000000000000000000000081526004016107a890611407565b60405180910390fd5b600186600f01600084815260200190815260200160002060020160006101000a81548160ff021916908315150217905550848660000160006101000a81548173ffffffffffffffffffffffffffffffffffffffff021916908373ffffffffffffffffffffffffffffffffffffffff160217905550600186600301546108369190611495565b86600301819055507f1dc911375febff18f84c0e1128d394633d6bd150b37ce2d044cdfb86612fa1398587600301546040516108739291906112c3565b60405180910390a1505050505050565b6000816000815181106108bf577f4e487b7100000000000000000000000000000000000000000000000000000000600052603260045260246000fd5b60200260200101516040516020016108d7919061127c565b6040516020818303038152906040528051906020012082600081518110610927577f4e487b7100000000000000000000000000000000000000000000000000000000600052603260045260246000fd5b6020026020010181815250506000826001845161094491906114eb565b8151811061097b577f4e487b7100000000000000000000000000000000000000000000000000000000600052603260045260246000fd5b6020026020010151905061098f8382610a6c565b915050919050565b6000806000905060005b848160ff161015610a6157838160ff16602081106109e8577f4e487b7100000000000000000000000000000000000000000000000000000000600052603260045260246000fd5b1a60f81b7effffffffffffffffffffffffffffffffffffffffffffffffffffffffffffff1916600160f81b7effffffffffffffffffffffffffffffffffffffffffffffffffffffffffffff19161415610a4e578060ff16600163ffffffff16901b821791505b8080610a59906115ed565b9150506109a1565b508091505092915050565b600080600190505b60018451610a8291906114eb565b8160ff161015610d265782600182610a9a919061151f565b60ff1660208110610ad4577f4e487b7100000000000000000000000000000000000000000000000000000000600052603260045260246000fd5b1a60f81b7effffffffffffffffffffffffffffffffffffffffffffffffffffffffffffff1916600060f81b7effffffffffffffffffffffffffffffffffffffffffffffffffffffffffffff19161415610c1f5783600081518110610b61577f4e487b7100000000000000000000000000000000000000000000000000000000600052603260045260246000fd5b6020026020010151848260ff1681518110610ba5577f4e487b7100000000000000000000000000000000000000000000000000000000600052603260045260246000fd5b6020026020010151604051602001610bbe929190611297565b6040516020818303038152906040528051906020012084600081518110610c0e577f4e487b7100000000000000000000000000000000000000000000000000000000600052603260045260246000fd5b602002602001018181525050610d13565b838160ff1681518110610c5b577f4e487b7100000000000000000000000000000000000000000000000000000000600052603260045260246000fd5b602002602001015184600081518110610c9d577f4e487b7100000000000000000000000000000000000000000000000000000000600052603260045260246000fd5b6020026020010151604051602001610cb6929190611297565b6040516020818303038152906040528051906020012084600081518110610d06577f4e487b7100000000000000000000000000000000000000000000000000000000600052603260045260246000fd5b6020026020010181815250505b8080610d1e906115ed565b915050610a74565b5082600081518110610d61577f4e487b7100000000000000000000000000000000000000000000000000000000600052603260045260246000fd5b6020026020010151905092915050565b6000610d84610d7f84611458565b611427565b90508083825260208201905082856020860282011115610da357600080fd5b60005b85811015610dd35781610db98882610e66565b845260208401935060208301925050600181019050610da6565b5050509392505050565b600081359050610dec816116b0565b92915050565b60008083601f840112610e0457600080fd5b8235905067ffffffffffffffff811115610e1d57600080fd5b602083019150836020820283011115610e3557600080fd5b9250929050565b600082601f830112610e4d57600080fd5b8135610e5d848260208601610d71565b91505092915050565b600081359050610e75816116c7565b92915050565b600081359050610e8a816116de565b92915050565b600060208284031215610ea257600080fd5b6000610eb084828501610e7b565b91505092915050565b60008060408385031215610ecc57600080fd5b6000610eda85828601610e7b565b9250506020610eeb85828601610ddd565b9150509250929050565b60008060008060608587031215610f0b57600080fd5b6000610f1987828801610e7b565b9450506020610f2a87828801610ddd565b935050604085013567ffffffffffffffff811115610f4757600080fd5b610f5387828801610df2565b925092505092959194509250565b60008060408385031215610f7457600080fd5b6000610f8285828601610e7b565b925050602083013567ffffffffffffffff811115610f9f57600080fd5b610fab85828601610e3c565b9150509250929050565b610fbe81611553565b82525050565b610fd5610fd082611553565b611617565b82525050565b610fe481611565565b82525050565b610ffb610ff682611565565b611629565b82525050565b600061100e600983611484565b91507f4e4f20434f4d4d495400000000000000000000000000000000000000000000006000830152602082019050919050565b600061104e601083611484565b91507f554e45585045435445442050524f4f46000000000000000000000000000000006000830152602082019050919050565b600061108e601783611484565b91507f434f4d4d495420414c52454144592052455645414c45440000000000000000006000830152602082019050919050565b60006110ce600f83611484565b91507f426164206f747020636f756e74657200000000000000000000000000000000006000830152602082019050919050565b600061110e601783611484565b91507f6f6e676f696e67207265636f7665727920706572696f640000000000000000006000830152602082019050919050565b600061114e601a83611484565b91507f436f756e746572206d6f7265207468616e2035302073746570730000000000006000830152602082019050919050565b600061118e601183611484565b91507f436f6d6d697420697320746f6f206f6c640000000000000000000000000000006000830152602082019050919050565b60006111ce601383611484565b91507f6e6f2070656e64696e67207265636f76657279000000000000000000000000006000830152602082019050919050565b600061120e601783611484565b91507f446174616861736820646f6573206e6f74206d617463680000000000000000006000830152602082019050919050565b61124a81611599565b82525050565b600061125c8285610fc4565b60148201915061126c8284610fea565b6020820191508190509392505050565b60006112888284610fea565b60208201915081905092915050565b60006112a38285610fea565b6020820191506112b38284610fea565b6020820191508190509392505050565b60006040820190506112d86000830185610fb5565b6112e56020830184611241565b9392505050565b60006020820190506113016000830184610fdb565b92915050565b6000602082019050818103600083015261132081611001565b9050919050565b6000602082019050818103600083015261134081611041565b9050919050565b6000602082019050818103600083015261136081611081565b9050919050565b60006020820190508181036000830152611380816110c1565b9050919050565b600060208201905081810360008301526113a081611101565b9050919050565b600060208201905081810360008301526113c081611141565b9050919050565b600060208201905081810360008301526113e081611181565b9050919050565b60006020820190508181036000830152611400816111c1565b9050919050565b6000602082019050818103600083015261142081611201565b9050919050565b6000604051905081810181811067ffffffffffffffff8211171561144e5761144d611674565b5b8060405250919050565b600067ffffffffffffffff82111561147357611472611674565b5b602082029050602081019050919050565b600082825260208201905092915050565b60006114a082611599565b91506114ab83611599565b9250827fffffffffffffffffffffffffffffffffffffffffffffffffffffffffffffffff038211156114e0576114df611645565b5b828201905092915050565b60006114f682611599565b915061150183611599565b92508282101561151457611513611645565b5b828203905092915050565b600061152a826115b3565b9150611535836115b3565b92508282101561154857611547611645565b5b828203905092915050565b600061155e82611579565b9050919050565b6000819050919050565b6000819050919050565b600073ffffffffffffffffffffffffffffffffffffffff82169050919050565b6000819050919050565b600063ffffffff82169050919050565b600060ff82169050919050565b60006115cb826115a3565b915063ffffffff8214156115e2576115e1611645565b5b600182019050919050565b60006115f8826115b3565b915060ff82141561160c5761160b611645565b5b600182019050919050565b600061162282611633565b9050919050565b6000819050919050565b600061163e826116a3565b9050919050565b7f4e487b7100000000000000000000000000000000000000000000000000000000600052601160045260246000fd5b7f4e487b7100000000000000000000000000000000000000000000000000000000600052604160045260246000fd5b60008160601b9050919050565b6116b981611553565b81146116c457600080fd5b50565b6116d081611565565b81146116db57600080fd5b50565b6116e78161156f565b81146116f257600080fd5b5056fea2646970667358221220e82ef74317fff272aebe24a3cf966ff42e661d05e460d8bf05abdf1d984f788f64736f6c63430008000033",
  "immutableReferences": {},
  "source": "// SPDX-License-Identifier: GPL-3.0-only\n\npragma solidity >=0.7.6;\nimport \"../core/wallet_data.sol\";\nimport \"./metatx.sol\";\n\nlibrary Recovery {\n\n    event WalletRecovered(address newOner, uint counter);\n\n    bytes32 public constant START_RECOVERY_TYPEHASH = keccak256(\n        \"startRecovery(bytes16, uint8, uint, uint)\"\n    );\n\n    /* 1 of 1 (HOTP)\n     * 2 of 2 (HOTP + Guardian)\n     * 2 of 3 (2 guardians or HOTP + Guardian)\n     */\n    function startRecovery(Core.Wallet storage wallet_, address newOwner) public {\n        // queue it for next 24hrs\n        wallet_.pendingRecovery = Core.RecoveryInfo(newOwner, block.timestamp + 86400);\n    }\n\n    function finalizeRecovery(Core.Wallet storage wallet_) public {\n        require(wallet_.pendingRecovery.expiration > 0, \"no pending recovery\");\n        require(uint64(block.timestamp) > wallet_.pendingRecovery.expiration, \"ongoing recovery period\");\n        wallet_.owner = wallet_.pendingRecovery.newOwner;\n        wallet_.pendingRecovery = Core.RecoveryInfo(address(0),0);\n    }\n\n    //\n    // Private functions\n    //\n    \n    function startRecoveryReveal(Core.Wallet storage wallet, address newOwner, bytes32[] calldata confirmMaterial) public {\n        bytes32 secretHash = keccak256(abi.encodePacked(confirmMaterial[0]));\n        require(wallet.commitHash[secretHash].blockNumber != 0, \"NO COMMIT\");\n        require(wallet.commitHash[secretHash].revealed == false, \"COMMIT ALREADY REVEALED\");\n        require(block.number - wallet.commitHash[secretHash].blockNumber < 15, \"Commit is too old\");\n\n        bytes32 hash = keccak256(abi.encodePacked(newOwner, confirmMaterial[0]));\n        require(hash == wallet.commitHash[secretHash].dataHash, \"Datahash does not match\");\n\n        wallet.commitHash[secretHash].revealed = true;\n        wallet.owner = newOwner;\n        wallet.counter = wallet.counter + 1;\n        emit WalletRecovered(newOwner, wallet.counter);\n    }\n\n    //\n    // HOTP Verification functions\n    //\n\n    function isValidHOTP(Core.Wallet storage wallet, bytes32[] memory confirmMaterial) public view {\n        bytes32 reduced = _reduceConfirmMaterial(confirmMaterial);\n        uint32 counterProvided = _deriveChildTreeIdx(wallet.merkelHeight, confirmMaterial[confirmMaterial.length-1]);\n        require(counterProvided >= wallet.counter, \"Bad otp counter\");\n\n        // Google Authenticator doesn't allow custom counter or change counter back; so we must allow room to fudge\n        // allow some room if the counters were skipped at some point\n        require(counterProvided - wallet.counter  < 50, \"Counter more than 50 steps\");\n\n        bool foundMatch = false;\n        for (uint32 i = 0; i < wallet.rootHash.length; i++) {\n            if(reduced==wallet.rootHash[i]) {\n                foundMatch = true;\n            }\n        }\n        require(foundMatch, \"UNEXPECTED PROOF\");        \n    }\n\n    function _deriveChildTreeIdx(uint merkelHeight, bytes32 sides) internal pure returns (uint32) {\n        uint32 derivedIdx = 0;\n        for(uint8 i = 0 ; i < merkelHeight ; i++){\n            if(bytes1(0x01) == sides[i]){\n                derivedIdx |=  uint32(0x01) << i;\n            }\n        }\n        return derivedIdx;\n    }\n    \n    function _reduceConfirmMaterial(bytes32[] memory confirmMaterial) internal pure returns (bytes32) {\n        //  and then compute h(OTP) to get the leaf of the tree\n        confirmMaterial[0] = keccak256(abi.encodePacked(confirmMaterial[0]));\n        bytes32 sides = confirmMaterial[confirmMaterial.length - 1];\n        return _reduceAuthPath(confirmMaterial, sides);\n    }\n\n    function _reduceAuthPath(bytes32[] memory authPath, bytes32 sides) internal pure returns (bytes32){\n        for (uint8 i = 1; i < authPath.length - 1; i++) {\n            if(bytes1(0x00) == sides[i - 1]){\n                authPath[0] = keccak256(abi.encodePacked(authPath[0], authPath[i]));\n            } else{\n                authPath[0] = keccak256(abi.encodePacked(authPath[i], authPath[0]));\n            }\n        }\n        //emit DebugEvent(authPath[0]);\n        return authPath[0];\n    }\n    \n}",
  "sourcePath": "/home/quoc/Projects/harmony-totp-pure/contracts/features/recovery.sol",
  "compiler": {
    "name": "solc",
    "version": "0.8.0+commit.c7dfd78e.Emscripten.clang"
  },
  "schemaVersion": "3.3.3",
  "updatedAt": "2021-11-01T22:57:59.045Z",
  "networkType": "ethereum",
  "devdoc": {
    "kind": "dev",
    "methods": {},
    "version": 1
  },
  "userdoc": {
    "kind": "user",
    "methods": {},
    "version": 1
  }
}