{
  "contractName": "Recovery",
  "abi": [
    {
      "inputs": [],
      "name": "START_RECOVERY_TYPEHASH",
      "outputs": [
        {
          "internalType": "bytes32",
          "name": "",
          "type": "bytes32"
        }
      ],
      "stateMutability": "view",
      "type": "function",
      "constant": true
    },
    {
      "inputs": [
        {
          "internalType": "uint256",
          "name": "merkelHeight",
          "type": "uint256"
        },
        {
          "internalType": "bytes32",
          "name": "sides",
          "type": "bytes32"
        }
      ],
      "name": "_deriveChildTreeIdx",
      "outputs": [
        {
          "internalType": "uint32",
          "name": "",
          "type": "uint32"
        }
      ],
      "stateMutability": "pure",
      "type": "function",
      "constant": true
    },
    {
      "inputs": [
        {
          "internalType": "bytes32[]",
          "name": "confirmMaterial",
          "type": "bytes32[]"
        }
      ],
      "name": "_reduceConfirmMaterial",
      "outputs": [
        {
          "internalType": "bytes32",
          "name": "",
          "type": "bytes32"
        }
      ],
      "stateMutability": "pure",
      "type": "function",
      "constant": true
    }
  ],
  "bytecode": "0x6107ca610026600b82828239805160001a60731461001957fe5b30600052607381538281f3fe73000000000000000000000000000000000000000030146080604052600436106100615760003560e01c8063396c8e65146100665780635fd72247146100b85780636ffc1c62146100f357806378a278df1461014e578063a6659f261461016c575b600080fd5b61009c6004803603604081101561007c57600080fd5b810190808035906020019092919080359060200190929190505050610238565b604051808263ffffffff16815260200191505060405180910390f35b8180156100c457600080fd5b506100f1600480360360208110156100db57600080fd5b81019080803590602001909291905050506102da565b005b8180156100ff57600080fd5b5061014c6004803603604081101561011657600080fd5b8101908080359060200190929190803573ffffffffffffffffffffffffffffffffffffffff1690602001909291905050506104cf565b005b61015661055b565b6040518082815260200191505060405180910390f35b6102226004803603602081101561018257600080fd5b810190808035906020019064010000000081111561019f57600080fd5b8201836020820111156101b157600080fd5b803590602001918460208302840111640100000000831117156101d357600080fd5b919080806020026020016040519081016040528093929190818152602001838360200280828437600081840152601f19601f82011690508083019250505050505050919291929050505061057f565b6040518082815260200191505060405180910390f35b6000806000905060005b848160ff1610156102cf57838160ff166020811061025c57fe5b1a60f81b7effffffffffffffffffffffffffffffffffffffffffffffffffffffffffffff1916600160f81b7effffffffffffffffffffffffffffffffffffffffffffffffffffffffffffff191614156102c2578060ff16600163ffffffff16901b821791505b8080600101915050610242565b508091505092915050565b600081600b016001015411610357576040517f08c379a00000000000000000000000000000000000000000000000000000000081526004018080602001828103825260138152602001807f6e6f2070656e64696e67207265636f766572790000000000000000000000000081525060200191505060405180910390fd5b80600b01600101544267ffffffffffffffff16116103dd576040517f08c379a00000000000000000000000000000000000000000000000000000000081526004018080602001828103825260178152602001807f6f6e676f696e67207265636f7665727920706572696f6400000000000000000081525060200191505060405180910390fd5b80600b0160000160009054906101000a900473ffffffffffffffffffffffffffffffffffffffff168160000160006101000a81548173ffffffffffffffffffffffffffffffffffffffff021916908373ffffffffffffffffffffffffffffffffffffffff1602179055506040518060400160405280600073ffffffffffffffffffffffffffffffffffffffff168152602001600081525081600b0160008201518160000160006101000a81548173ffffffffffffffffffffffffffffffffffffffff021916908373ffffffffffffffffffffffffffffffffffffffff1602179055506020820151816001015590505050565b60405180604001604052808273ffffffffffffffffffffffffffffffffffffffff16815260200162015180420181525082600b0160008201518160000160006101000a81548173ffffffffffffffffffffffffffffffffffffffff021916908373ffffffffffffffffffffffffffffffffffffffff160217905550602082015181600101559050505050565b7f0eff1cacf91ec50b2baf2726da374088d70828d9a8984acae6949e5275ee2fdf81565b60008160008151811061058e57fe5b60200260200101516040516020018082815260200191505060405160208183030381529060405280519060200120826000815181106105c957fe5b6020026020010181815250506000826001845103815181106105e757fe5b602002602001015190506105fb8382610603565b915050919050565b600080600190505b60018451038160ff16101561077657826001820360ff166020811061062c57fe5b1a60f81b7effffffffffffffffffffffffffffffffffffffffffffffffffffffffffffff1916600060f81b7effffffffffffffffffffffffffffffffffffffffffffffffffffffffffffff191614156106f6578360008151811061068c57fe5b6020026020010151848260ff16815181106106a357fe5b6020026020010151604051602001808381526020018281526020019250505060405160208183030381529060405280519060200120846000815181106106e557fe5b602002602001018181525050610769565b838160ff168151811061070557fe5b60200260200101518460008151811061071a57fe5b60200260200101516040516020018083815260200182815260200192505050604051602081830303815290604052805190602001208460008151811061075c57fe5b6020026020010181815250505b808060010191505061060b565b508260008151811061078457fe5b602002602001015190509291505056fea26469706673582212202d8bf748ac59b6e3686b89b5430d1b9dfb4a22225933e8f57faf695191867c1d64736f6c63430007060033",
  "immutableReferences": {},
  "source": "// SPDX-License-Identifier: GPL-3.0-only\n\npragma solidity ^0.7.6;\nimport \"../core/wallet_data.sol\";\nimport \"./metatx.sol\";\n\nlibrary Recovery {\n\n    bytes32 public constant START_RECOVERY_TYPEHASH = keccak256(\n        \"startRecovery(bytes16, uint8, uint, uint)\"\n    );\n\n    /* 1 of 1 (HOTP)\n     * 2 of 2 (HOTP + Guardian)\n     * 2 of 3 (2 guardians or HOTP + Guardian)\n     */\n    function startRecovery(Core.Wallet storage wallet_, address newOwner) public {\n        // queue it for next 24hrs\n        wallet_.pendingRecovery = Core.RecoveryInfo(newOwner, block.timestamp + 86400);\n    }\n\n    function finalizeRecovery(Core.Wallet storage wallet_) public {\n        require(wallet_.pendingRecovery.expiration > 0, \"no pending recovery\");\n        require(uint64(block.timestamp) > wallet_.pendingRecovery.expiration, \"ongoing recovery period\");\n        wallet_.owner = wallet_.pendingRecovery.newOwner;\n        wallet_.pendingRecovery = Core.RecoveryInfo(address(0),0);\n    }\n\n    //\n    // Private functions\n    //\n\n\n    //\n    // HOTP Verification functions\n    //\n    function _deriveChildTreeIdx(uint merkelHeight, bytes32 sides) public pure returns (uint32) {\n        uint32 derivedIdx = 0;\n        for(uint8 i = 0 ; i < merkelHeight ; i++){\n            if(byte(0x01) == sides[i]){\n                derivedIdx |=  uint32(0x01) << i;\n            }\n        }\n        return derivedIdx;\n    }\n    \n    function _reduceConfirmMaterial(bytes32[] memory confirmMaterial) public pure returns (bytes32) {\n        //  and then compute h(OTP) to get the leaf of the tree\n        confirmMaterial[0] = keccak256(abi.encodePacked(confirmMaterial[0]));\n        bytes32 sides = confirmMaterial[confirmMaterial.length - 1];\n        return _reduceAuthPath(confirmMaterial, sides);\n    }\n\n    function _reduceAuthPath(bytes32[] memory authPath, bytes32 sides) internal pure returns (bytes32){\n        for (uint8 i = 1; i < authPath.length - 1; i++) {\n            if(byte(0x00) == sides[i - 1]){\n                authPath[0] = keccak256(abi.encodePacked(authPath[0], authPath[i]));\n            } else{\n                authPath[0] = keccak256(abi.encodePacked(authPath[i], authPath[0]));\n            }\n        }\n        //emit DebugEvent(authPath[0]);\n        return authPath[0];\n    }\n    \n}",
  "sourcePath": "/home/quoc/Projects/harmony-totp-pure/contracts/features/recovery.sol",
  "compiler": {
    "name": "solc",
    "version": "0.7.6+commit.7338295f.Emscripten.clang"
  },
  "schemaVersion": "3.3.4",
  "updatedAt": "2021-06-30T22:34:46.179Z",
  "networkType": "ethereum",
  "devdoc": {
    "kind": "dev",
    "methods": {},
    "version": 1
  },
  "userdoc": {
    "kind": "user",
    "methods": {},
    "version": 1
  }
}