{
  "contractName": "Relayer",
  "abi": [
    {
      "inputs": [
        {
          "internalType": "address",
          "name": "factory_",
          "type": "address"
        },
        {
          "internalType": "uint256",
          "name": "initialForwarder",
          "type": "uint256"
        }
      ],
      "stateMutability": "nonpayable",
      "type": "constructor"
    },
    {
      "anonymous": false,
      "inputs": [
        {
          "indexed": false,
          "internalType": "address",
          "name": "forwarder",
          "type": "address"
        },
        {
          "indexed": false,
          "internalType": "uint256",
          "name": "deposit",
          "type": "uint256"
        }
      ],
      "name": "DepositReceived",
      "type": "event"
    },
    {
      "anonymous": false,
      "inputs": [
        {
          "indexed": false,
          "internalType": "address",
          "name": "forwarder",
          "type": "address"
        }
      ],
      "name": "EnqueuedNewWallet",
      "type": "event"
    },
    {
      "anonymous": false,
      "inputs": [
        {
          "indexed": true,
          "internalType": "address",
          "name": "previousOwner",
          "type": "address"
        },
        {
          "indexed": true,
          "internalType": "address",
          "name": "newOwner",
          "type": "address"
        }
      ],
      "name": "OwnershipTransferred",
      "type": "event"
    },
    {
      "anonymous": false,
      "inputs": [
        {
          "indexed": false,
          "internalType": "address",
          "name": "wallet",
          "type": "address"
        },
        {
          "indexed": false,
          "internalType": "address",
          "name": "forwarder",
          "type": "address"
        }
      ],
      "name": "WalletCreated",
      "type": "event"
    },
    {
      "stateMutability": "payable",
      "type": "fallback"
    },
    {
      "inputs": [],
      "name": "owner",
      "outputs": [
        {
          "internalType": "address",
          "name": "",
          "type": "address"
        }
      ],
      "stateMutability": "view",
      "type": "function"
    },
    {
      "inputs": [],
      "name": "renounceOwnership",
      "outputs": [],
      "stateMutability": "nonpayable",
      "type": "function"
    },
    {
      "inputs": [],
      "name": "totalForwarderCount",
      "outputs": [
        {
          "internalType": "uint256",
          "name": "",
          "type": "uint256"
        }
      ],
      "stateMutability": "view",
      "type": "function"
    },
    {
      "inputs": [
        {
          "internalType": "address",
          "name": "newOwner",
          "type": "address"
        }
      ],
      "name": "transferOwnership",
      "outputs": [],
      "stateMutability": "nonpayable",
      "type": "function"
    },
    {
      "inputs": [
        {
          "components": [
            {
              "internalType": "address",
              "name": "resolver",
              "type": "address"
            },
            {
              "internalType": "string[2]",
              "name": "domain",
              "type": "string[2]"
            },
            {
              "internalType": "address",
              "name": "owner",
              "type": "address"
            },
            {
              "internalType": "bytes32[]",
              "name": "rootHash",
              "type": "bytes32[]"
            },
            {
              "internalType": "uint8",
              "name": "merkelHeight",
              "type": "uint8"
            },
            {
              "internalType": "address",
              "name": "drainAddr",
              "type": "address"
            },
            {
              "internalType": "uint256",
              "name": "dailyLimit",
              "type": "uint256"
            },
            {
              "internalType": "uint256",
              "name": "salt",
              "type": "uint256"
            },
            {
              "internalType": "address",
              "name": "feeReceipient",
              "type": "address"
            },
            {
              "internalType": "uint256",
              "name": "feeAmount",
              "type": "uint256"
            }
          ],
          "internalType": "struct WalletFactory.WalletConfig",
          "name": "config",
          "type": "tuple"
        },
        {
          "internalType": "uint256",
          "name": "networkFee",
          "type": "uint256"
        },
        {
          "internalType": "bool",
          "name": "createForwarderIfNeeded",
          "type": "bool"
        }
      ],
      "name": "submitNewWalletQueue",
      "outputs": [],
      "stateMutability": "nonpayable",
      "type": "function"
    },
    {
      "inputs": [
        {
          "internalType": "address",
          "name": "forwarder",
          "type": "address"
        }
      ],
      "name": "getStatus",
      "outputs": [
        {
          "internalType": "uint256",
          "name": "",
          "type": "uint256"
        },
        {
          "internalType": "bool",
          "name": "",
          "type": "bool"
        }
      ],
      "stateMutability": "view",
      "type": "function"
    },
    {
      "inputs": [
        {
          "internalType": "address",
          "name": "forwarder",
          "type": "address"
        }
      ],
      "name": "processWallet",
      "outputs": [],
      "stateMutability": "nonpayable",
      "type": "function"
    },
    {
      "inputs": [
        {
          "internalType": "address",
          "name": "addr",
          "type": "address"
        }
      ],
      "name": "processDeposit",
      "outputs": [],
      "stateMutability": "payable",
      "type": "function"
    },
    {
      "inputs": [],
      "name": "collectFees",
      "outputs": [],
      "stateMutability": "nonpayable",
      "type": "function"
    },
    {
      "inputs": [
        {
          "internalType": "uint256",
          "name": "salt_",
          "type": "uint256"
        }
      ],
      "name": "getForwarder",
      "outputs": [
        {
          "internalType": "address",
          "name": "",
          "type": "address"
        }
      ],
      "stateMutability": "view",
      "type": "function"
    }
  ],
  "bytecode": "0x60806040523480156200001157600080fd5b5060405162003496380380620034968339818101604052810190620000379190620005c1565b6000620000496200028f60201b60201c565b9050806000806101000a81548173ffffffffffffffffffffffffffffffffffffffff021916908373ffffffffffffffffffffffffffffffffffffffff1602179055508073ffffffffffffffffffffffffffffffffffffffff16600073ffffffffffffffffffffffffffffffffffffffff167f8be0079c531659141344cd1fd0a4f28419497f9722a3daafe3b4186f6b6457e060405160405180910390a35081600860006101000a81548173ffffffffffffffffffffffffffffffffffffffff021916908373ffffffffffffffffffffffffffffffffffffffff1602179055506040516200013690620004cf565b604051809103906000f08015801562000153573d6000803e3d6000fd5b50600160006101000a81548173ffffffffffffffffffffffffffffffffffffffff021916908373ffffffffffffffffffffffffffffffffffffffff160217905550620001c7600160009054906101000a900473ffffffffffffffffffffffffffffffffffffffff166200029760201b60201c565b60029080519060200190620001de929190620004dd565b5060005b8181101562000286576000620002006003546200034f60201b60201c565b90506007819080600181540180825580915050600190039060005260206000200160009091909190916101000a81548173ffffffffffffffffffffffffffffffffffffffff021916908373ffffffffffffffffffffffffffffffffffffffff160217905550600360008154809291906001019190505550508080600101915050620001e2565b5050506200075b565b600033905090565b606060008260601b9050603767ffffffffffffffff81118015620002ba57600080fd5b506040519080825280601f01601f191660200182016040528015620002ee5781602001600182028036833780820191505090505b5091507f3d602d80600a3d3981f3363d3d373d3d3d363d7300000000000000000000000060208301528060146020018301527f5af43d82803e903d91602b57fd5bf30000000000000000000000000000000000602860200183015250919050565b6000806200036383620003dd60201b60201c565b90508073ffffffffffffffffffffffffffffffffffffffff166319ab453c306040518263ffffffff1660e01b8152600401620003a0919062000679565b600060405180830381600087803b158015620003bb57600080fd5b505af1158015620003d0573d6000803e3d6000fd5b5050505080915050919050565b60008060028054600181600116156101000203166002900480601f0160208091040260200160405190810160405280929190818152602001828054600181600116156101000203166002900480156200047a5780601f106200044e576101008083540402835291602001916200047a565b820191906000526020600020905b8154815290600101906020018083116200045c57829003601f168201915b50505050509050600030846040516020016200049892919062000649565b604051602081830303815290604052805190602001209050808251602084016000f59250823b620004c857600080fd5b5050919050565b6101ba80620032dc83390190565b828054600181600116156101000203166002900490600052602060002090601f01602090048101928262000515576000855562000561565b82601f106200053057805160ff191683800117855562000561565b8280016001018555821562000561579182015b828111156200056057825182559160200191906001019062000543565b5b50905062000570919062000574565b5090565b5b808211156200058f57600081600090555060010162000575565b5090565b600081519050620005a48162000727565b92915050565b600081519050620005bb8162000741565b92915050565b60008060408385031215620005d557600080fd5b6000620005e58582860162000593565b9250506020620005f885828601620005aa565b9150509250929050565b6200060d81620006aa565b82525050565b620006286200062282620006aa565b620006e8565b82525050565b620006436200063d82620006de565b62000710565b82525050565b600062000657828562000613565b6014820191506200066982846200062e565b6020820191508190509392505050565b600060208201905062000690600083018462000602565b92915050565b6000620006a382620006be565b9050919050565b6000620006b782620006be565b9050919050565b600073ffffffffffffffffffffffffffffffffffffffff82169050919050565b6000819050919050565b6000620006f582620006fc565b9050919050565b600062000709826200071a565b9050919050565b6000819050919050565b60008160601b9050919050565b620007328162000696565b81146200073e57600080fd5b50565b6200074c81620006de565b81146200075857600080fd5b50565b612b71806200076b6000396000f3fe6080604052600436106100955760003560e01c80638da5cb5b116100595780638da5cb5b146101b757806396cb1cfe146101e2578063c8796572146101fe578063c8bbbd5a14610215578063f2fde38b1461023e57610096565b806330ccebb5146100d15780635451a1311461010f5780636f42269b1461013a578063715018a61461016357806379ea99431461017a57610096565b5b7f9936746a4565f9766fa768f88f56a7487c78780ac179562773d1c75c5269537e33346040516100c7929190612503565b60405180910390a1005b3480156100dd57600080fd5b506100f860048036038101906100f39190611c9d565b610267565b60405161010692919061263b565b60405180910390f35b34801561011b57600080fd5b5061012461033d565b6040516101319190612620565b60405180910390f35b34801561014657600080fd5b50610161600480360381019061015c9190611cef565b610343565b005b34801561016f57600080fd5b506101786108a5565b005b34801561018657600080fd5b506101a1600480360381019061019c9190611d56565b610a12565b6040516101ae91906124cd565b60405180910390f35b3480156101c357600080fd5b506101cc610aaf565b6040516101d991906124cd565b60405180910390f35b6101fc60048036038101906101f79190611c9d565b610ad8565b005b34801561020a57600080fd5b50610213610c45565b005b34801561022157600080fd5b5061023c60048036038101906102379190611c9d565b610d4e565b005b34801561024a57600080fd5b5061026560048036038101906102609190611c9d565b611339565b005b600080600560008473ffffffffffffffffffffffffffffffffffffffff1673ffffffffffffffffffffffffffffffffffffffff168152602001908152602001600020600a0154600560008573ffffffffffffffffffffffffffffffffffffffff1673ffffffffffffffffffffffffffffffffffffffff168152602001908152602001600020600c0154600560008673ffffffffffffffffffffffffffffffffffffffff1673ffffffffffffffffffffffffffffffffffffffff168152602001908152602001600020600a01541191509150915091565b60035481565b61034b61152b565b73ffffffffffffffffffffffffffffffffffffffff16610369610aaf565b73ffffffffffffffffffffffffffffffffffffffff16146103f2576040517f08c379a00000000000000000000000000000000000000000000000000000000081526004018080602001828103825260208152602001807f4f776e61626c653a2063616c6c6572206973206e6f7420746865206f776e657281525060200191505060405180910390fd5b60006103fd84611533565b9050600015156006600083815260200190815260200160002060009054906101000a900460ff16151514610466576040517f08c379a000000000000000000000000000000000000000000000000000000000815260040161045d906125de565b60405180910390fd5b816104b8576000600780549050116104b3576040517f08c379a00000000000000000000000000000000000000000000000000000000081526004016104aa906125be565b60405180910390fd5b61054d565b6000600780549050141561054c5760006104d36003546115bb565b90506007819080600181540180825580915050600190039060005260206000200160009091909190916101000a81548173ffffffffffffffffffffffffffffffffffffffff021916908373ffffffffffffffffffffffffffffffffffffffff160217905550600360008154809291906001019190505550505b5b600060076001600780549050038154811061056457fe5b9060005260206000200160009054906101000a900473ffffffffffffffffffffffffffffffffffffffff1690506040518060a00160405280866105a69061292b565b81526020016000815260200160001515815260200185815260200160011515815250600560008373ffffffffffffffffffffffffffffffffffffffff1673ffffffffffffffffffffffffffffffffffffffff16815260200190815260200160002060008201518160000160008201518160000160006101000a81548173ffffffffffffffffffffffffffffffffffffffff021916908373ffffffffffffffffffffffffffffffffffffffff16021790555060208201518160010190600261066e929190611728565b5060408201518160030160006101000a81548173ffffffffffffffffffffffffffffffffffffffff021916908373ffffffffffffffffffffffffffffffffffffffff16021790555060608201518160040190805190602001906106d292919061177b565b5060808201518160050160006101000a81548160ff021916908360ff16021790555060a08201518160050160016101000a81548173ffffffffffffffffffffffffffffffffffffffff021916908373ffffffffffffffffffffffffffffffffffffffff16021790555060c0820151816006015560e082015181600701556101008201518160080160006101000a81548173ffffffffffffffffffffffffffffffffffffffff021916908373ffffffffffffffffffffffffffffffffffffffff16021790555061012082015181600901555050602082015181600a0155604082015181600b0160006101000a81548160ff021916908315150217905550606082015181600c0155608082015181600d0160006101000a81548160ff021916908315150217905550905050600780548061080657fe5b6001900381819060005260206000200160006101000a81549073ffffffffffffffffffffffffffffffffffffffff0219169055905560016006600084815260200190815260200160002060006101000a81548160ff0219169083151502179055507f5921c85d298cfc569b547d52c01d83126e2bff5fef79adec43b578606226be548160405161089691906124cd565b60405180910390a15050505050565b6108ad61152b565b73ffffffffffffffffffffffffffffffffffffffff166108cb610aaf565b73ffffffffffffffffffffffffffffffffffffffff1614610954576040517f08c379a00000000000000000000000000000000000000000000000000000000081526004018080602001828103825260208152602001807f4f776e61626c653a2063616c6c6572206973206e6f7420746865206f776e657281525060200191505060405180910390fd5b600073ffffffffffffffffffffffffffffffffffffffff1660008054906101000a900473ffffffffffffffffffffffffffffffffffffffff1673ffffffffffffffffffffffffffffffffffffffff167f8be0079c531659141344cd1fd0a4f28419497f9722a3daafe3b4186f6b6457e060405160405180910390a360008060006101000a81548173ffffffffffffffffffffffffffffffffffffffff021916908373ffffffffffffffffffffffffffffffffffffffff160217905550565b6000803083604051602001610a289291906123b9565b604051602081830303815290604052805190602001209050600060ff60f81b30836002604051602001610a5b91906124a1565b60405160208183030381529060405280519060200120604051602001610a849493929190612453565b60405160208183030381529060405280519060200120905060008160001c9050809350505050919050565b60008060009054906101000a900473ffffffffffffffffffffffffffffffffffffffff16905090565b600560003373ffffffffffffffffffffffffffffffffffffffff1673ffffffffffffffffffffffffffffffffffffffff168152602001908152602001600020600d0160009054906101000a900460ff16610b67576040517f08c379a0000000000000000000000000000000000000000000000000000000008152600401610b5e9061259e565b60405180910390fd5b34600560003373ffffffffffffffffffffffffffffffffffffffff1673ffffffffffffffffffffffffffffffffffffffff168152602001908152602001600020600a0160008282540192505081905550600560003373ffffffffffffffffffffffffffffffffffffffff1673ffffffffffffffffffffffffffffffffffffffff168152602001908152602001600020600c01546004600082825401925050819055507f9936746a4565f9766fa768f88f56a7487c78780ac179562773d1c75c5269537e3334604051610c3a929190612503565b60405180910390a150565b610c4d61152b565b73ffffffffffffffffffffffffffffffffffffffff16610c6b610aaf565b73ffffffffffffffffffffffffffffffffffffffff1614610cf4576040517f08c379a00000000000000000000000000000000000000000000000000000000081526004018080602001828103825260208152602001807f4f776e61626c653a2063616c6c6572206973206e6f7420746865206f776e657281525060200191505060405180910390fd5b610cfc610aaf565b73ffffffffffffffffffffffffffffffffffffffff166108fc6004549081150290604051600060405180830381858888f19350505050158015610d43573d6000803e3d6000fd5b506000600481905550565b610d5661152b565b73ffffffffffffffffffffffffffffffffffffffff16610d74610aaf565b73ffffffffffffffffffffffffffffffffffffffff1614610dfd576040517f08c379a00000000000000000000000000000000000000000000000000000000081526004018080602001828103825260208152602001807f4f776e61626c653a2063616c6c6572206973206e6f7420746865206f776e657281525060200191505060405180910390fd5b6000803073ffffffffffffffffffffffffffffffffffffffff166330ccebb5846040518263ffffffff1660e01b8152600401610e3991906124cd565b604080518083038186803b158015610e5057600080fd5b505afa158015610e64573d6000803e3d6000fd5b505050506040513d601f19601f82011682018060405250810190610e889190611d7f565b809250819350505080610ed0576040517f08c379a0000000000000000000000000000000000000000000000000000000008152600401610ec79061257e565b60405180910390fd5b6000600560008573ffffffffffffffffffffffffffffffffffffffff1673ffffffffffffffffffffffffffffffffffffffff1681526020019081526020016000209050600860009054906101000a900473ffffffffffffffffffffffffffffffffffffffff1673ffffffffffffffffffffffffffffffffffffffff16638bb6aa62826000016040518263ffffffff1660e01b8152600401610f7191906125fe565b602060405180830381600087803b158015610f8b57600080fd5b505af1158015610f9f573d6000803e3d6000fd5b505050506040513d601f19601f82011682018060405250810190610fc39190611cc6565b506000600860009054906101000a900473ffffffffffffffffffffffffffffffffffffffff1673ffffffffffffffffffffffffffffffffffffffff1663ce1586128360000160030160009054906101000a900473ffffffffffffffffffffffffffffffffffffffff1684600001600701546040518363ffffffff1660e01b8152600401611051929190612555565b60206040518083038186803b15801561106957600080fd5b505afa15801561107d573d6000803e3d6000fd5b505050506040513d601f19601f820116820180604052508101906110a19190611cc6565b905081600c015482600a0154111561112d578073ffffffffffffffffffffffffffffffffffffffff1682600c015483600a015403620186a0906040516110e6906124b8565b600060405180830381858888f193505050503d8060008114611124576040519150601f19603f3d011682016040523d82523d6000602084013e611129565b606091505b5050505b600560008673ffffffffffffffffffffffffffffffffffffffff1673ffffffffffffffffffffffffffffffffffffffff1681526020019081526020016000206000808201600080820160006101000a81549073ffffffffffffffffffffffffffffffffffffffff02191690556001820160006111a991906117c8565b6003820160006101000a81549073ffffffffffffffffffffffffffffffffffffffff02191690556004820160006111e091906117e9565b6005820160006101000a81549060ff02191690556005820160016101000a81549073ffffffffffffffffffffffffffffffffffffffff0219169055600682016000905560078201600090556008820160006101000a81549073ffffffffffffffffffffffffffffffffffffffff021916905560098201600090555050600a820160009055600b820160006101000a81549060ff0219169055600c820160009055600d820160006101000a81549060ff021916905550506007859080600181540180825580915050600190039060005260206000200160009091909190916101000a81548173ffffffffffffffffffffffffffffffffffffffff021916908373ffffffffffffffffffffffffffffffffffffffff1602179055507f5b03bfed1c14a02bdeceb5fa582eb1a5765fc0bc64ca0e6af4c20afc9487f081818660405161132a92919061252c565b60405180910390a15050505050565b61134161152b565b73ffffffffffffffffffffffffffffffffffffffff1661135f610aaf565b73ffffffffffffffffffffffffffffffffffffffff16146113e8576040517f08c379a00000000000000000000000000000000000000000000000000000000081526004018080602001828103825260208152602001807f4f776e61626c653a2063616c6c6572206973206e6f7420746865206f776e657281525060200191505060405180910390fd5b600073ffffffffffffffffffffffffffffffffffffffff168173ffffffffffffffffffffffffffffffffffffffff16141561146e576040517f08c379a0000000000000000000000000000000000000000000000000000000008152600401808060200182810382526026815260200180612b166026913960400191505060405180910390fd5b8073ffffffffffffffffffffffffffffffffffffffff1660008054906101000a900473ffffffffffffffffffffffffffffffffffffffff1673ffffffffffffffffffffffffffffffffffffffff167f8be0079c531659141344cd1fd0a4f28419497f9722a3daafe3b4186f6b6457e060405160405180910390a3806000806101000a81548173ffffffffffffffffffffffffffffffffffffffff021916908373ffffffffffffffffffffffffffffffffffffffff16021790555050565b600033905090565b60008160400160208101906115489190611c9d565b8280606001906115589190612664565b84608001602081019061156b9190611dbb565b8560a001602081019061157e9190611c9d565b8660c001358760e0013560405160200161159e97969594939291906123e5565b604051602081830303815290604052805190602001209050919050565b6000806115c78361163d565b90508073ffffffffffffffffffffffffffffffffffffffff166319ab453c306040518263ffffffff1660e01b815260040161160291906124e8565b600060405180830381600087803b15801561161c57600080fd5b505af1158015611630573d6000803e3d6000fd5b5050505080915050919050565b60008060028054600181600116156101000203166002900480601f0160208091040260200160405190810160405280929190818152602001828054600181600116156101000203166002900480156116d65780601f106116ab576101008083540402835291602001916116d6565b820191906000526020600020905b8154815290600101906020018083116116b957829003601f168201915b50505050509050600030846040516020016116f29291906123b9565b604051602081830303815290604052805190602001209050808251602084016000f59250823b61172157600080fd5b5050919050565b826002810192821561176a579160200282015b8281111561176957825182908051906020019061175992919061180a565b509160200191906001019061173b565b5b5090506117779190611898565b5090565b8280548282559060005260206000209081019282156117b7579160200282015b828111156117b657825182559160200191906001019061179b565b5b5090506117c491906118bc565b5090565b50600081816117d791906118d9565b5060010160006117e791906118d9565b565b508054600082559060005260206000209081019061180791906118bc565b50565b828054600181600116156101000203166002900490600052602060002090601f0160209004810192826118405760008555611887565b82601f1061185957805160ff1916838001178555611887565b82800160010185558215611887579182015b8281111561188657825182559160200191906001019061186b565b5b5090506118949190611921565b5090565b5b808211156118b857600081816118af91906118d9565b50600101611899565b5090565b5b808211156118d55760008160009055506001016118bd565b5090565b50805460018160011615610100020316600290046000825580601f106118ff575061191e565b601f01602090049060005260206000209081019061191d9190611921565b5b50565b5b8082111561193a576000816000905550600101611922565b5090565b600061195161194c846126ec565b6126bb565b9050808382526020820190508285602086028201111561197057600080fd5b60005b858110156119a057816119868882611ae1565b845260208401935060208301925050600181019050611973565b5050509392505050565b60006119bd6119b884612718565b6126bb565b9050808260005b858110156119f457813585016119da8882611af6565b8452602084019350602083019250506001810190506119c4565b5050509392505050565b6000611a11611a0c8461273e565b6126bb565b905082815260208101848484011115611a2957600080fd5b611a34848285612962565b509392505050565b600081359050611a4b81612aa2565b92915050565b600081519050611a6081612aa2565b92915050565b600082601f830112611a7757600080fd5b8135611a8784826020860161193e565b91505092915050565b600082601f830112611aa157600080fd5b6002611aae8482856119aa565b91505092915050565b600081359050611ac681612ab9565b92915050565b600081519050611adb81612ab9565b92915050565b600081359050611af081612ad0565b92915050565b600082601f830112611b0757600080fd5b8135611b178482602086016119fe565b91505092915050565b60006101408284031215611b3357600080fd5b81905092915050565b60006101408284031215611b4f57600080fd5b611b5a6101406126bb565b90506000611b6a84828501611a3c565b600083015250602082013567ffffffffffffffff811115611b8a57600080fd5b611b9684828501611a90565b6020830152506040611baa84828501611a3c565b604083015250606082013567ffffffffffffffff811115611bca57600080fd5b611bd684828501611a66565b6060830152506080611bea84828501611c88565b60808301525060a0611bfe84828501611a3c565b60a08301525060c0611c1284828501611c5e565b60c08301525060e0611c2684828501611c5e565b60e083015250610100611c3b84828501611a3c565b61010083015250610120611c5184828501611c5e565b6101208301525092915050565b600081359050611c6d81612ae7565b92915050565b600081519050611c8281612ae7565b92915050565b600081359050611c9781612afe565b92915050565b600060208284031215611caf57600080fd5b6000611cbd84828501611a3c565b91505092915050565b600060208284031215611cd857600080fd5b6000611ce684828501611a51565b91505092915050565b600080600060608486031215611d0457600080fd5b600084013567ffffffffffffffff811115611d1e57600080fd5b611d2a86828701611b20565b9350506020611d3b86828701611c5e565b9250506040611d4c86828701611ab7565b9150509250925092565b600060208284031215611d6857600080fd5b6000611d7684828501611c5e565b91505092915050565b60008060408385031215611d9257600080fd5b6000611da085828601611c73565b9250506020611db185828601611acc565b9150509250929050565b600060208284031215611dcd57600080fd5b6000611ddb84828501611c88565b91505092915050565b6000611df08383611fd1565b60208301905092915050565b6000611e088383612085565b905092915050565b611e1981612919565b82525050565b611e288161288e565b82525050565b611e3f611e3a8261288e565b612a05565b82525050565b611e4e8161287c565b82525050565b611e5d8161287c565b82525050565b611e74611e6f8261287c565b6129f3565b82525050565b6000611e8683856127f8565b93507f07ffffffffffffffffffffffffffffffffffffffffffffffffffffffffffffff831115611eb557600080fd5b602083029250611ec6838584612962565b82840190509392505050565b6000611edd826127b7565b611ee781856127e7565b9350611ef28361276e565b8060005b83811015611f2a57611f0782612a5b565b611f118882611de4565b9750611f1c836127cd565b925050600181019050611ef6565b5085935050505092915050565b6000611f42826127c2565b611f4c8185612803565b935083602082028501611f5e85612783565b8060005b85811015611f9957848403895281611f7a8582611dfc565b9450611f85836127da565b925060208a01995050600181019050611f62565b50829750879550505050505092915050565b611fb4816128a0565b82525050565b611fcb611fc6826128ac565b612a17565b82525050565b611fda816128d8565b82525050565b611ff1611fec826128d8565b612a21565b82525050565b60008154600181166000811461201457600181146120395761207d565b607f6002830416612025818761280e565b955060ff198316865280860193505061207d565b60028204612047818761280e565b95506120528561278d565b60005b8281101561207457815481890152600182019150602081019050612055565b82880195505050505b505092915050565b6000815460018116600081146120a257600181146120c85761210c565b607f60028304166120b38187612819565b955060ff19831686526020860193505061210c565b600282046120d68187612819565b95506120e1856127a2565b60005b82811015612103578154818901526001820191506020810190506120e4565b80880195505050505b505092915050565b600061212160118361282a565b91507f41646472657373206e6f742072656164790000000000000000000000000000006000830152602082019050919050565b600061216160178361282a565b91507f4e4f20515545554544204143434f554e5420464f554e440000000000000000006000830152602082019050919050565b60006121a160148361282a565b91507f4e4f5420454e4f55474820464f525741524445520000000000000000000000006000830152602082019050919050565b60006121e1600e8361282a565b91507f4455504c4943415445204954454d0000000000000000000000000000000000006000830152602082019050919050565b600061222160008361280e565b9150600082019050919050565b60006101408301600080840154905061224681612971565b6122536000870182611e45565b5060018401858303602087015261226a8382611f37565b9250506003840154905061227d81612971565b61228a6040870182611e45565b506004840185830360608701526122a18382611ed2565b925050600584015490506122b4816129bf565b6122c16080870182612393565b506122cb816129d9565b6122d860a0870182611e45565b50600684015490506122e9816129a5565b6122f660c087018261235e565b5060078401549050612307816129a5565b61231460e087018261235e565b506008840154905061232581612971565b612333610100870182611e45565b5060098401549050612344816129a5565b61235261012087018261235e565b50819250505092915050565b61236781612902565b82525050565b61237681612902565b82525050565b61238d61238882612902565b612a3d565b82525050565b61239c8161290c565b82525050565b6123b36123ae8261290c565b612a47565b82525050565b60006123c58285611e2e565b6014820191506123d5828461237c565b6020820191508190509392505050565b60006123f1828a611e63565b60148201915061240282888a611e7a565b915061240e82876123a2565b60018201915061241e8286611e63565b60148201915061242e828561237c565b60208201915061243e828461237c565b60208201915081905098975050505050505050565b600061245f8287611fba565b60018201915061246f8286611e2e565b60148201915061247f8285611fe0565b60208201915061248f8284611fe0565b60208201915081905095945050505050565b60006124ad8284611ff7565b915081905092915050565b60006124c382612214565b9150819050919050565b60006020820190506124e26000830184611e54565b92915050565b60006020820190506124fd6000830184611e1f565b92915050565b60006040820190506125186000830185611e10565b612525602083018461236d565b9392505050565b60006040820190506125416000830185611e54565b61254e6020830184611e54565b9392505050565b600060408201905061256a6000830185611e54565b612577602083018461236d565b9392505050565b6000602082019050818103600083015261259781612114565b9050919050565b600060208201905081810360008301526125b781612154565b9050919050565b600060208201905081810360008301526125d781612194565b9050919050565b600060208201905081810360008301526125f7816121d4565b9050919050565b60006020820190508181036000830152612618818461222e565b905092915050565b6000602082019050612635600083018461236d565b92915050565b6000604082019050612650600083018561236d565b61265d6020830184611fab565b9392505050565b6000808335600160200384360303811261267d57600080fd5b80840192508235915067ffffffffffffffff82111561269b57600080fd5b6020830192506020820236038313156126b357600080fd5b509250929050565b6000604051905081810181811067ffffffffffffffff821117156126e2576126e1612a59565b5b8060405250919050565b600067ffffffffffffffff82111561270757612706612a59565b5b602082029050602081019050919050565b600067ffffffffffffffff82111561273357612732612a59565b5b602082029050919050565b600067ffffffffffffffff82111561275957612758612a59565b5b601f19601f8301169050602081019050919050565b60008190508160005260206000209050919050565b6000819050919050565b60008190508160005260206000209050919050565b60008190508160005260206000209050919050565b600081549050919050565b600060029050919050565b6000600182019050919050565b6000600182019050919050565b600082825260208201905092915050565b600081905092915050565b600081905092915050565b600081905092915050565b600082825260208201905092915050565b600082825260208201905092915050565b600073ffffffffffffffffffffffffffffffffffffffff82169050919050565b6000819050919050565b6000819050919050565b600060ff82169050919050565b6000612887826128e2565b9050919050565b6000612899826128e2565b9050919050565b60008115159050919050565b60007fff0000000000000000000000000000000000000000000000000000000000000082169050919050565b6000819050919050565b600073ffffffffffffffffffffffffffffffffffffffff82169050919050565b6000819050919050565b600060ff82169050919050565b60006129248261293e565b9050919050565b60006129373683611b3c565b9050919050565b600061294982612950565b9050919050565b600061295b826128e2565b9050919050565b82818337600083830152505050565b600061298461297f83612a88565b61283b565b9050919050565b600061299e61299983612a88565b61285b565b9050919050565b60006129b86129b383612a88565b612865565b9050919050565b60006129d26129cd83612a88565b61286f565b9050919050565b60006129ec6129e783612a95565b61283b565b9050919050565b60006129fe82612a2b565b9050919050565b6000612a1082612a2b565b9050919050565b6000819050919050565b6000819050919050565b6000612a3682612a7b565b9050919050565b6000819050919050565b6000612a5282612a6e565b9050919050565bfe5b6000612a67825461298b565b9050919050565b60008160f81b9050919050565b60008160601b9050919050565b60008160001c9050919050565b60008160081c9050919050565b612aab8161287c565b8114612ab657600080fd5b50565b612ac2816128a0565b8114612acd57600080fd5b50565b612ad9816128d8565b8114612ae457600080fd5b50565b612af081612902565b8114612afb57600080fd5b50565b612b078161290c565b8114612b1257600080fd5b5056fe4f776e61626c653a206e6577206f776e657220697320746865207a65726f2061646472657373a26469706673582212203ba48f07f88ba9440849a61d44d1671aabae5bb94e5782df3734f70b195959a264736f6c63430007060033608060405234801561001057600080fd5b5061019a806100206000396000f3fe6080604052600436106100225760003560e01c806319ab453c146100d0576100cb565b366100cb5760008054906101000a900473ffffffffffffffffffffffffffffffffffffffff1673ffffffffffffffffffffffffffffffffffffffff166396cb1cfe34336040518363ffffffff1660e01b8152600401808273ffffffffffffffffffffffffffffffffffffffff1681526020019150506000604051808303818588803b1580156100b057600080fd5b505af11580156100c4573d6000803e3d6000fd5b5050505050005b600080fd5b3480156100dc57600080fd5b5061011f600480360360208110156100f357600080fd5b81019080803573ffffffffffffffffffffffffffffffffffffffff169060200190929190505050610121565b005b806000806101000a81548173ffffffffffffffffffffffffffffffffffffffff021916908373ffffffffffffffffffffffffffffffffffffffff1602179055505056fea26469706673582212201f538028d66ad58bf9e2dd54ac9c6fba091edf1396cfaf6ed3e0d2ef17e7eb4f64736f6c63430007060033",
  "immutableReferences": {},
  "source": "// SPDX-License-Identifier: GPL-3.0-only\n\npragma solidity ^0.7.6;\npragma experimental ABIEncoderV2;\n\nimport \"openzeppelin-solidity/contracts/access/Ownable.sol\";\nimport \"../wallet_factory.sol\";\nimport \"./forwarder.sol\";\n\n/**\n * Relayer contract is responsible for accept queued up new wallet\n * until there are new deposits associated with it via forwarder addresses.\n * Once there is at least one associated address, the application relayer\n * can trigger a processNext() to request a new wallet from the wallet factory.\n *\n * Why on smart contract? We can avoid any security risk of holding onto private keys\n * generated on the application relayer.\n * \n */\ncontract Relayer is Ownable\n{\n    struct WalletState {\n        WalletFactory.WalletConfig config;\n        uint256 deposits;\n        bool created;\n        uint networkFee;\n        bool exists;\n    }\n\n    event WalletCreated(address wallet, address forwarder);\n    event EnqueuedNewWallet(address forwarder);\n    event DepositReceived(address forwarder, uint deposit);\n\n    address forwardImpl;\n    bytes forwardInitCode;\n    uint public totalForwarderCount;\n    uint256 collectedFees;\n\n    // forward address -> Config\n    mapping (address => WalletState) walletQueue;\n    mapping (bytes32 => bool) dedupMap;\n    address[] availableForwarders;\n\n    WalletFactory factory;\n\n    constructor(address factory_, uint initialForwarder) {\n        factory = WalletFactory(factory_);\n        forwardImpl = address(new Forwarder());\n        forwardInitCode = getInitCode(forwardImpl);    \n\n        for(uint i=0;i<initialForwarder;i++){\n            Forwarder f = deployForwarder(totalForwarderCount);\n            availableForwarders.push(address(f));\n            totalForwarderCount++;\n        }    \n    }\n\n    function submitNewWalletQueue(\n        WalletFactory.WalletConfig calldata config, \n        uint networkFee,\n        bool createForwarderIfNeeded\n    ) external onlyOwner() {\n        bytes32 hash = getConfigHash(config);\n        require(dedupMap[hash] == false, \"DUPLICATE ITEM\");\n\n        if (!createForwarderIfNeeded) {\n            require(availableForwarders.length > 0,\"NOT ENOUGH FORWARDER\");\n        } else {\n            if(availableForwarders.length == 0) {\n                Forwarder f = deployForwarder(totalForwarderCount);\n                availableForwarders.push(address(f));\n                totalForwarderCount++;                \n            }\n        }        \n\n        // hash the owner info\n        address lastForwarder = availableForwarders[availableForwarders.length-1];\n        walletQueue[lastForwarder] = WalletState(config, 0, false, networkFee, true);\n        availableForwarders.pop();   \n        dedupMap[hash]=true;\n        \n        emit EnqueuedNewWallet(lastForwarder);\n    }\n\n    function getConfigHash(WalletFactory.WalletConfig calldata config) internal view returns(bytes32) {\n        return keccak256(abi.encodePacked(config.owner, config.rootHash, config.merkelHeight, config.drainAddr, config.dailyLimit, config.salt));\n    }\n\n    // returns deposits, and ready status\n    function getStatus(address forwarder) external view returns(uint256, bool) {\n        return (walletQueue[forwarder].deposits, walletQueue[forwarder].deposits > walletQueue[forwarder].networkFee);\n    }\n\n    function processWallet(address forwarder) external onlyOwner() {\n        uint256 deposits;\n        bool isReady;\n        (deposits, isReady) = this.getStatus(forwarder);\n        require(isReady, \"Address not ready\");\n\n        WalletState storage state = walletQueue[forwarder];\n        factory.createWallet(state.config);\n\n        // send excess network fees to the new wallet\n        address wallet = factory.computeWalletAddress(state.config.owner, state.config.salt);\n        if (state.deposits > state.networkFee) {\n            wallet.call{value: (state.deposits - state.networkFee), gas: 100000}(\"\");\n        }\n\n        delete walletQueue[forwarder];\n        availableForwarders.push(forwarder);\n        emit WalletCreated(wallet, forwarder);\n    }\n\n    function processDeposit(address addr) external payable{\n        require(walletQueue[msg.sender].exists, \"NO QUEUED ACCOUNT FOUND\");\n        walletQueue[msg.sender].deposits += msg.value;\n        collectedFees += walletQueue[msg.sender].networkFee;\n        emit DepositReceived(msg.sender, msg.value);\n    }\n\n    function collectFees() external onlyOwner() {\n        payable(owner()).transfer(collectedFees);\n        collectedFees = 0;\n    }\n\n    /// @dev Fallback function allows to deposit ether.\n    fallback() external payable {\n        emit DepositReceived(msg.sender, msg.value);\n    }\n\n    //\n    // Forwarding Factory\n    //\n\n    function getForwarder(uint salt_) public view returns (address) {\n        bytes32 salt = keccak256(abi.encodePacked(address(this), salt_));\n        bytes32 hash = keccak256(abi.encodePacked(bytes1(0xff), address(this), salt, keccak256(abi.encodePacked(forwardInitCode))));\n        address forwarder = address(uint160(uint256(hash)));\n        return forwarder;\n    }\n\n    function deployForwarder(uint salt_) internal returns (Forwarder) {\n        Forwarder forwarder = _deployForwarder(salt_);\n        forwarder.init(address(this));\n        return forwarder;\n    }\n\n    function _deployForwarder(uint salt_) internal returns (Forwarder forwarder) {\n        \n        // load the init code to memory\n        bytes memory mInitCode = forwardInitCode;\n\n        // compute the salt from the destination\n        bytes32 salt = keccak256(abi.encodePacked(address(this), salt_));\n\n        assembly {\n            forwarder := create2(0, add(mInitCode, 0x20), mload(mInitCode), salt)\n            if iszero(extcodesize(forwarder)) { revert(0, 0) }\n        }\n    }\n\n    function getInitCode(address _implementation) internal pure returns (bytes memory code) {\n        bytes20 targetBytes = bytes20(_implementation);\n        code = new bytes(55);\n        assembly {\n            mstore(add(code, 0x20), 0x3d602d80600a3d3981f3363d3d373d3d3d363d73000000000000000000000000)\n            mstore(add(code, add(0x20,0x14)), targetBytes)\n            mstore(add(code, add(0x20,0x28)), 0x5af43d82803e903d91602b57fd5bf30000000000000000000000000000000000)\n        }\n    }\n}",
  "sourcePath": "/home/quoc/Projects/harmony-totp-pure/contracts/_deprecated/relayer.sol",
  "compiler": {
    "name": "solc",
    "version": "0.7.6+commit.7338295f.Emscripten.clang"
  },
  "schemaVersion": "3.3.4",
  "updatedAt": "2021-06-30T22:34:46.232Z",
  "networkType": "ethereum",
  "devdoc": {
    "kind": "dev",
    "methods": {
      "owner()": {
        "details": "Returns the address of the current owner."
      },
      "renounceOwnership()": {
        "details": "Leaves the contract without owner. It will not be possible to call `onlyOwner` functions anymore. Can only be called by the current owner. NOTE: Renouncing ownership will leave the contract without an owner, thereby removing any functionality that is only available to the owner."
      },
      "transferOwnership(address)": {
        "details": "Transfers ownership of the contract to a new account (`newOwner`). Can only be called by the current owner."
      }
    },
    "version": 1
  },
  "userdoc": {
    "kind": "user",
    "methods": {},
    "notice": "Relayer contract is responsible for accept queued up new wallet until there are new deposits associated with it via forwarder addresses. Once there is at least one associated address, the application relayer can trigger a processNext() to request a new wallet from the wallet factory. Why on smart contract? We can avoid any security risk of holding onto private keys generated on the application relayer. ",
    "version": 1
  }
}