{
  "contractName": "Relayer",
  "abi": [
    {
      "inputs": [
        {
          "internalType": "address",
          "name": "factory_",
          "type": "address"
        },
        {
          "internalType": "uint256",
          "name": "initialForwarder",
          "type": "uint256"
        }
      ],
      "stateMutability": "nonpayable",
      "type": "constructor"
    },
    {
      "anonymous": false,
      "inputs": [
        {
          "indexed": false,
          "internalType": "address",
          "name": "forwarder",
          "type": "address"
        },
        {
          "indexed": false,
          "internalType": "uint256",
          "name": "deposit",
          "type": "uint256"
        }
      ],
      "name": "DepositReceived",
      "type": "event"
    },
    {
      "anonymous": false,
      "inputs": [
        {
          "indexed": false,
          "internalType": "address",
          "name": "forwarder",
          "type": "address"
        }
      ],
      "name": "EnqueuedNewWallet",
      "type": "event"
    },
    {
      "anonymous": false,
      "inputs": [
        {
          "indexed": true,
          "internalType": "address",
          "name": "previousOwner",
          "type": "address"
        },
        {
          "indexed": true,
          "internalType": "address",
          "name": "newOwner",
          "type": "address"
        }
      ],
      "name": "OwnershipTransferred",
      "type": "event"
    },
    {
      "anonymous": false,
      "inputs": [
        {
          "indexed": false,
          "internalType": "address",
          "name": "wallet",
          "type": "address"
        },
        {
          "indexed": false,
          "internalType": "address",
          "name": "forwarder",
          "type": "address"
        }
      ],
      "name": "WalletCreated",
      "type": "event"
    },
    {
      "inputs": [],
      "name": "owner",
      "outputs": [
        {
          "internalType": "address",
          "name": "",
          "type": "address"
        }
      ],
      "stateMutability": "view",
      "type": "function"
    },
    {
      "inputs": [],
      "name": "renounceOwnership",
      "outputs": [],
      "stateMutability": "nonpayable",
      "type": "function"
    },
    {
      "inputs": [],
      "name": "totalForwarderCount",
      "outputs": [
        {
          "internalType": "uint256",
          "name": "",
          "type": "uint256"
        }
      ],
      "stateMutability": "view",
      "type": "function"
    },
    {
      "inputs": [
        {
          "internalType": "address",
          "name": "newOwner",
          "type": "address"
        }
      ],
      "name": "transferOwnership",
      "outputs": [],
      "stateMutability": "nonpayable",
      "type": "function"
    },
    {
      "stateMutability": "payable",
      "type": "receive"
    },
    {
      "inputs": [
        {
          "components": [
            {
              "internalType": "address",
              "name": "resolver",
              "type": "address"
            },
            {
              "internalType": "string[2]",
              "name": "domain",
              "type": "string[2]"
            },
            {
              "internalType": "address",
              "name": "owner",
              "type": "address"
            },
            {
              "internalType": "bytes32[]",
              "name": "rootHash",
              "type": "bytes32[]"
            },
            {
              "internalType": "uint8",
              "name": "merkelHeight",
              "type": "uint8"
            },
            {
              "internalType": "address",
              "name": "drainAddr",
              "type": "address"
            },
            {
              "internalType": "uint256",
              "name": "dailyLimit",
              "type": "uint256"
            },
            {
              "internalType": "uint256",
              "name": "salt",
              "type": "uint256"
            },
            {
              "internalType": "address",
              "name": "feeReceipient",
              "type": "address"
            },
            {
              "internalType": "uint256",
              "name": "feeAmount",
              "type": "uint256"
            }
          ],
          "internalType": "struct WalletFactory.WalletConfig",
          "name": "config",
          "type": "tuple"
        },
        {
          "internalType": "uint256",
          "name": "networkFee",
          "type": "uint256"
        },
        {
          "internalType": "bool",
          "name": "createForwarderIfNeeded",
          "type": "bool"
        }
      ],
      "name": "submitNewWalletQueue",
      "outputs": [],
      "stateMutability": "nonpayable",
      "type": "function"
    },
    {
      "inputs": [
        {
          "internalType": "address",
          "name": "forwarder",
          "type": "address"
        }
      ],
      "name": "getStatus",
      "outputs": [
        {
          "internalType": "uint256",
          "name": "",
          "type": "uint256"
        },
        {
          "internalType": "bool",
          "name": "",
          "type": "bool"
        }
      ],
      "stateMutability": "view",
      "type": "function"
    },
    {
      "inputs": [
        {
          "internalType": "address",
          "name": "forwarder",
          "type": "address"
        }
      ],
      "name": "processWallet",
      "outputs": [],
      "stateMutability": "nonpayable",
      "type": "function"
    },
    {
      "inputs": [],
      "name": "processDeposit",
      "outputs": [],
      "stateMutability": "payable",
      "type": "function"
    },
    {
      "inputs": [],
      "name": "collectFees",
      "outputs": [],
      "stateMutability": "nonpayable",
      "type": "function"
    },
    {
      "inputs": [
        {
          "internalType": "uint256",
          "name": "salt_",
          "type": "uint256"
        }
      ],
      "name": "getForwarder",
      "outputs": [
        {
          "internalType": "address",
          "name": "",
          "type": "address"
        }
      ],
      "stateMutability": "view",
      "type": "function"
    }
  ],
  "bytecode": "0x60806040523480156200001157600080fd5b506040516200371b3803806200371b83398181016040528101906200003791906200061b565b620000576200004b6200020f60201b60201c565b6200021760201b60201c565b81600860006101000a81548173ffffffffffffffffffffffffffffffffffffffff021916908373ffffffffffffffffffffffffffffffffffffffff160217905550604051620000a6906200052f565b604051809103906000f080158015620000c3573d6000803e3d6000fd5b50600160006101000a81548173ffffffffffffffffffffffffffffffffffffffff021916908373ffffffffffffffffffffffffffffffffffffffff16021790555062000137600160009054906101000a900473ffffffffffffffffffffffffffffffffffffffff16620002db60201b60201c565b600290805190602001906200014e9291906200053d565b5060005b818110156200020657600062000170600354620003bb60201b60201c565b90506007819080600181540180825580915050600190039060005260206000200160009091909190916101000a81548173ffffffffffffffffffffffffffffffffffffffff021916908373ffffffffffffffffffffffffffffffffffffffff16021790555060036000815480929190620001ea9062000778565b9190505550508080620001fd9062000778565b91505062000152565b50505062000897565b600033905090565b60008060009054906101000a900473ffffffffffffffffffffffffffffffffffffffff169050816000806101000a81548173ffffffffffffffffffffffffffffffffffffffff021916908373ffffffffffffffffffffffffffffffffffffffff1602179055508173ffffffffffffffffffffffffffffffffffffffff168173ffffffffffffffffffffffffffffffffffffffff167f8be0079c531659141344cd1fd0a4f28419497f9722a3daafe3b4186f6b6457e060405160405180910390a35050565b606060008260601b9050603767ffffffffffffffff81111562000327577f4e487b7100000000000000000000000000000000000000000000000000000000600052604160045260246000fd5b6040519080825280601f01601f1916602001820160405280156200035a5781602001600182028036833780820191505090505b5091507f3d602d80600a3d3981f3363d3d373d3d3d363d7300000000000000000000000060208301528060146020018301527f5af43d82803e903d91602b57fd5bf30000000000000000000000000000000000602860200183015250919050565b600080620003cf836200044960201b60201c565b90508073ffffffffffffffffffffffffffffffffffffffff166319ab453c306040518263ffffffff1660e01b81526004016200040c9190620006d3565b600060405180830381600087803b1580156200042757600080fd5b505af11580156200043c573d6000803e3d6000fd5b5050505080915050919050565b600080600280546200045b9062000742565b80601f0160208091040260200160405190810160405280929190818152602001828054620004899062000742565b8015620004da5780601f10620004ae57610100808354040283529160200191620004da565b820191906000526020600020905b815481529060010190602001808311620004bc57829003601f168201915b5050505050905060003084604051602001620004f8929190620006a3565b604051602081830303815290604052805190602001209050808251602084016000f59250823b6200052857600080fd5b5050919050565b6101f8806200352383390190565b8280546200054b9062000742565b90600052602060002090601f0160209004810192826200056f5760008555620005bb565b82601f106200058a57805160ff1916838001178555620005bb565b82800160010185558215620005bb579182015b82811115620005ba5782518255916020019190600101906200059d565b5b509050620005ca9190620005ce565b5090565b5b80821115620005e9576000816000905550600101620005cf565b5090565b600081519050620005fe8162000863565b92915050565b60008151905062000615816200087d565b92915050565b600080604083850312156200062f57600080fd5b60006200063f85828601620005ed565b9250506020620006528582860162000604565b9150509250929050565b620006678162000704565b82525050565b620006826200067c82620006f0565b620007c6565b82525050565b6200069d620006978262000738565b620007ee565b82525050565b6000620006b182856200066d565b601482019150620006c3828462000688565b6020820191508190509392505050565b6000602082019050620006ea60008301846200065c565b92915050565b6000620006fd8262000718565b9050919050565b6000620007118262000718565b9050919050565b600073ffffffffffffffffffffffffffffffffffffffff82169050919050565b6000819050919050565b600060028204905060018216806200075b57607f821691505b6020821081141562000772576200077162000827565b5b50919050565b6000620007858262000738565b91507fffffffffffffffffffffffffffffffffffffffffffffffffffffffffffffffff821415620007bb57620007ba620007f8565b5b600182019050919050565b6000620007d382620007da565b9050919050565b6000620007e78262000856565b9050919050565b6000819050919050565b7f4e487b7100000000000000000000000000000000000000000000000000000000600052601160045260246000fd5b7f4e487b7100000000000000000000000000000000000000000000000000000000600052602260045260246000fd5b60008160601b9050919050565b6200086e81620006f0565b81146200087a57600080fd5b50565b620008888162000738565b81146200089457600080fd5b50565b612c7c80620008a76000396000f3fe6080604052600436106100955760003560e01c80638da5cb5b116100595780638da5cb5b146101c05780638f70bfa0146101eb578063c8796572146101f5578063c8bbbd5a1461020c578063f2fde38b14610235576100d5565b806330ccebb5146100da5780635451a131146101185780636f42269b14610143578063715018a61461016c57806379ea994314610183576100d5565b366100d5577f9936746a4565f9766fa768f88f56a7487c78780ac179562773d1c75c5269537e33346040516100cb9291906124de565b60405180910390a1005b600080fd5b3480156100e657600080fd5b5061010160048036038101906100fc9190611b87565b61025e565b60405161010f929190612624565b60405180910390f35b34801561012457600080fd5b5061012d610334565b60405161013a9190612609565b60405180910390f35b34801561014f57600080fd5b5061016a60048036038101906101659190611bd9565b61033a565b005b34801561017857600080fd5b506101816108d2565b005b34801561018f57600080fd5b506101aa60048036038101906101a59190611c40565b61095a565b6040516101b7919061247f565b60405180910390f35b3480156101cc57600080fd5b506101d56109f7565b6040516101e2919061247f565b60405180910390f35b6101f3610a20565b005b34801561020157600080fd5b5061020a610b9e565b005b34801561021857600080fd5b50610233600480360381019061022e9190611b87565b610c74565b005b34801561024157600080fd5b5061025c60048036038101906102579190611b87565b611279565b005b600080600560008473ffffffffffffffffffffffffffffffffffffffff1673ffffffffffffffffffffffffffffffffffffffff168152602001908152602001600020600a0154600560008573ffffffffffffffffffffffffffffffffffffffff1673ffffffffffffffffffffffffffffffffffffffff168152602001908152602001600020600c0154600560008673ffffffffffffffffffffffffffffffffffffffff1673ffffffffffffffffffffffffffffffffffffffff168152602001908152602001600020600a01541191509150915091565b60035481565b610342611371565b73ffffffffffffffffffffffffffffffffffffffff166103606109f7565b73ffffffffffffffffffffffffffffffffffffffff16146103b6576040517f08c379a00000000000000000000000000000000000000000000000000000000081526004016103ad906125a7565b60405180910390fd5b60006103c184611379565b9050600015156006600083815260200190815260200160002060009054906101000a900460ff1615151461042a576040517f08c379a0000000000000000000000000000000000000000000000000000000008152600401610421906125c7565b60405180910390fd5b8161047c57600060078054905011610477576040517f08c379a000000000000000000000000000000000000000000000000000000000815260040161046e90612567565b60405180910390fd5b610517565b60006007805490501415610516576000610497600354611401565b90506007819080600181540180825580915050600190039060005260206000200160009091909190916101000a81548173ffffffffffffffffffffffffffffffffffffffff021916908373ffffffffffffffffffffffffffffffffffffffff1602179055506003600081548092919061050f90612a62565b9190505550505b5b60006007600160078054905061052d919061287a565b81548110610564577f4e487b7100000000000000000000000000000000000000000000000000000000600052603260045260246000fd5b9060005260206000200160009054906101000a900473ffffffffffffffffffffffffffffffffffffffff1690506040518060a00160405280866105a69061298c565b81526020016000815260200160001515815260200185815260200160011515815250600560008373ffffffffffffffffffffffffffffffffffffffff1673ffffffffffffffffffffffffffffffffffffffff16815260200190815260200160002060008201518160000160008201518160000160006101000a81548173ffffffffffffffffffffffffffffffffffffffff021916908373ffffffffffffffffffffffffffffffffffffffff16021790555060208201518160010190600261066e929190611622565b5060408201518160030160006101000a81548173ffffffffffffffffffffffffffffffffffffffff021916908373ffffffffffffffffffffffffffffffffffffffff16021790555060608201518160040190805190602001906106d2929190611675565b5060808201518160050160006101000a81548160ff021916908360ff16021790555060a08201518160050160016101000a81548173ffffffffffffffffffffffffffffffffffffffff021916908373ffffffffffffffffffffffffffffffffffffffff16021790555060c0820151816006015560e082015181600701556101008201518160080160006101000a81548173ffffffffffffffffffffffffffffffffffffffff021916908373ffffffffffffffffffffffffffffffffffffffff16021790555061012082015181600901555050602082015181600a0155604082015181600b0160006101000a81548160ff021916908315150217905550606082015181600c0155608082015181600d0160006101000a81548160ff0219169083151502179055509050506007805480610833577f4e487b7100000000000000000000000000000000000000000000000000000000600052603160045260246000fd5b6001900381819060005260206000200160006101000a81549073ffffffffffffffffffffffffffffffffffffffff0219169055905560016006600084815260200190815260200160002060006101000a81548160ff0219169083151502179055507f5921c85d298cfc569b547d52c01d83126e2bff5fef79adec43b578606226be54816040516108c3919061247f565b60405180910390a15050505050565b6108da611371565b73ffffffffffffffffffffffffffffffffffffffff166108f86109f7565b73ffffffffffffffffffffffffffffffffffffffff161461094e576040517f08c379a0000000000000000000000000000000000000000000000000000000008152600401610945906125a7565b60405180910390fd5b6109586000611483565b565b60008030836040516020016109709291906123d9565b604051602081830303815290604052805190602001209050600060ff60f81b308360026040516020016109a39190612453565b604051602081830303815290604052805190602001206040516020016109cc9493929190612405565b60405160208183030381529060405280519060200120905060008160001c9050809350505050919050565b60008060009054906101000a900473ffffffffffffffffffffffffffffffffffffffff16905090565b600560003373ffffffffffffffffffffffffffffffffffffffff1673ffffffffffffffffffffffffffffffffffffffff168152602001908152602001600020600d0160009054906101000a900460ff16610aaf576040517f08c379a0000000000000000000000000000000000000000000000000000000008152600401610aa690612547565b60405180910390fd5b34600560003373ffffffffffffffffffffffffffffffffffffffff1673ffffffffffffffffffffffffffffffffffffffff168152602001908152602001600020600a016000828254610b019190612824565b92505081905550600560003373ffffffffffffffffffffffffffffffffffffffff1673ffffffffffffffffffffffffffffffffffffffff168152602001908152602001600020600c015460046000828254610b5c9190612824565b925050819055507f9936746a4565f9766fa768f88f56a7487c78780ac179562773d1c75c5269537e3334604051610b949291906124de565b60405180910390a1565b610ba6611371565b73ffffffffffffffffffffffffffffffffffffffff16610bc46109f7565b73ffffffffffffffffffffffffffffffffffffffff1614610c1a576040517f08c379a0000000000000000000000000000000000000000000000000000000008152600401610c11906125a7565b60405180910390fd5b610c226109f7565b73ffffffffffffffffffffffffffffffffffffffff166108fc6004549081150290604051600060405180830381858888f19350505050158015610c69573d6000803e3d6000fd5b506000600481905550565b610c7c611371565b73ffffffffffffffffffffffffffffffffffffffff16610c9a6109f7565b73ffffffffffffffffffffffffffffffffffffffff1614610cf0576040517f08c379a0000000000000000000000000000000000000000000000000000000008152600401610ce7906125a7565b60405180910390fd5b6000803073ffffffffffffffffffffffffffffffffffffffff166330ccebb5846040518263ffffffff1660e01b8152600401610d2c919061247f565b604080518083038186803b158015610d4357600080fd5b505afa158015610d57573d6000803e3d6000fd5b505050506040513d601f19601f82011682018060405250810190610d7b9190611c69565b809250819350505080610dc3576040517f08c379a0000000000000000000000000000000000000000000000000000000008152600401610dba90612527565b60405180910390fd5b6000600560008573ffffffffffffffffffffffffffffffffffffffff1673ffffffffffffffffffffffffffffffffffffffff1681526020019081526020016000209050600860009054906101000a900473ffffffffffffffffffffffffffffffffffffffff1673ffffffffffffffffffffffffffffffffffffffff16638bb6aa62826000016040518263ffffffff1660e01b8152600401610e6491906125e7565b602060405180830381600087803b158015610e7e57600080fd5b505af1158015610e92573d6000803e3d6000fd5b505050506040513d601f19601f82011682018060405250810190610eb69190611bb0565b506000600860009054906101000a900473ffffffffffffffffffffffffffffffffffffffff1673ffffffffffffffffffffffffffffffffffffffff1663ce1586128360000160030160009054906101000a900473ffffffffffffffffffffffffffffffffffffffff1684600001600701546040518363ffffffff1660e01b8152600401610f449291906124de565b60206040518083038186803b158015610f5c57600080fd5b505afa158015610f70573d6000803e3d6000fd5b505050506040513d601f19601f82011682018060405250810190610f949190611bb0565b905081600c015482600a0154111561106d5760008173ffffffffffffffffffffffffffffffffffffffff1683600c015484600a0154610fd3919061287a565b620186a090604051610fe49061246a565b600060405180830381858888f193505050503d8060008114611022576040519150601f19603f3d011682016040523d82523d6000602084013e611027565b606091505b505090508061106b576040517f08c379a000000000000000000000000000000000000000000000000000000000815260040161106290612587565b60405180910390fd5b505b600560008673ffffffffffffffffffffffffffffffffffffffff1673ffffffffffffffffffffffffffffffffffffffff1681526020019081526020016000206000808201600080820160006101000a81549073ffffffffffffffffffffffffffffffffffffffff02191690556001820160006110e991906116c2565b6003820160006101000a81549073ffffffffffffffffffffffffffffffffffffffff021916905560048201600061112091906116e3565b6005820160006101000a81549060ff02191690556005820160016101000a81549073ffffffffffffffffffffffffffffffffffffffff0219169055600682016000905560078201600090556008820160006101000a81549073ffffffffffffffffffffffffffffffffffffffff021916905560098201600090555050600a820160009055600b820160006101000a81549060ff0219169055600c820160009055600d820160006101000a81549060ff021916905550506007859080600181540180825580915050600190039060005260206000200160009091909190916101000a81548173ffffffffffffffffffffffffffffffffffffffff021916908373ffffffffffffffffffffffffffffffffffffffff1602179055507f5b03bfed1c14a02bdeceb5fa582eb1a5765fc0bc64ca0e6af4c20afc9487f081818660405161126a9291906124b5565b60405180910390a15050505050565b611281611371565b73ffffffffffffffffffffffffffffffffffffffff1661129f6109f7565b73ffffffffffffffffffffffffffffffffffffffff16146112f5576040517f08c379a00000000000000000000000000000000000000000000000000000000081526004016112ec906125a7565b60405180910390fd5b600073ffffffffffffffffffffffffffffffffffffffff168173ffffffffffffffffffffffffffffffffffffffff161415611365576040517f08c379a000000000000000000000000000000000000000000000000000000000815260040161135c90612507565b60405180910390fd5b61136e81611483565b50565b600033905090565b600081604001602081019061138e9190611b87565b82806060019061139e919061264d565b8460800160208101906113b19190611ca5565b8560a00160208101906113c49190611b87565b8660c001358760e001356040516020016113e4979695949392919061236b565b604051602081830303815290604052805190602001209050919050565b60008061140d83611547565b90508073ffffffffffffffffffffffffffffffffffffffff166319ab453c306040518263ffffffff1660e01b8152600401611448919061249a565b600060405180830381600087803b15801561146257600080fd5b505af1158015611476573d6000803e3d6000fd5b5050505080915050919050565b60008060009054906101000a900473ffffffffffffffffffffffffffffffffffffffff169050816000806101000a81548173ffffffffffffffffffffffffffffffffffffffff021916908373ffffffffffffffffffffffffffffffffffffffff1602179055508173ffffffffffffffffffffffffffffffffffffffff168173ffffffffffffffffffffffffffffffffffffffff167f8be0079c531659141344cd1fd0a4f28419497f9722a3daafe3b4186f6b6457e060405160405180910390a35050565b60008060028054611557906129ae565b80601f0160208091040260200160405190810160405280929190818152602001828054611583906129ae565b80156115d05780601f106115a5576101008083540402835291602001916115d0565b820191906000526020600020905b8154815290600101906020018083116115b357829003601f168201915b50505050509050600030846040516020016115ec9291906123d9565b604051602081830303815290604052805190602001209050808251602084016000f59250823b61161b57600080fd5b5050919050565b8260028101928215611664579160200282015b82811115611663578251829080519060200190611653929190611704565b5091602001919060010190611635565b5b509050611671919061178a565b5090565b8280548282559060005260206000209081019282156116b1579160200282015b828111156116b0578251825591602001919060010190611695565b5b5090506116be91906117ae565b5090565b50600081816116d191906117cb565b5060010160006116e191906117cb565b565b508054600082559060005260206000209081019061170191906117ae565b50565b828054611710906129ae565b90600052602060002090601f0160209004810192826117325760008555611779565b82601f1061174b57805160ff1916838001178555611779565b82800160010185558215611779579182015b8281111561177857825182559160200191906001019061175d565b5b509050611786919061180b565b5090565b5b808211156117aa57600081816117a191906117cb565b5060010161178b565b5090565b5b808211156117c75760008160009055506001016117af565b5090565b5080546117d7906129ae565b6000825580601f106117e95750611808565b601f016020900490600052602060002090810190611807919061180b565b5b50565b5b8082111561182457600081600090555060010161180c565b5090565b600061183b611836846126d5565b6126a4565b9050808382526020820190508285602086028201111561185a57600080fd5b60005b8581101561188a578161187088826119cb565b84526020840193506020830192505060018101905061185d565b5050509392505050565b60006118a76118a284612701565b6126a4565b9050808260005b858110156118de57813585016118c488826119e0565b8452602084019350602083019250506001810190506118ae565b5050509392505050565b60006118fb6118f684612727565b6126a4565b90508281526020810184848401111561191357600080fd5b61191e84828561299f565b509392505050565b60008135905061193581612bd3565b92915050565b60008151905061194a81612bd3565b92915050565b600082601f83011261196157600080fd5b8135611971848260208601611828565b91505092915050565b600082601f83011261198b57600080fd5b6002611998848285611894565b91505092915050565b6000813590506119b081612bea565b92915050565b6000815190506119c581612bea565b92915050565b6000813590506119da81612c01565b92915050565b600082601f8301126119f157600080fd5b8135611a018482602086016118e8565b91505092915050565b60006101408284031215611a1d57600080fd5b81905092915050565b60006101408284031215611a3957600080fd5b611a446101406126a4565b90506000611a5484828501611926565b600083015250602082013567ffffffffffffffff811115611a7457600080fd5b611a808482850161197a565b6020830152506040611a9484828501611926565b604083015250606082013567ffffffffffffffff811115611ab457600080fd5b611ac084828501611950565b6060830152506080611ad484828501611b72565b60808301525060a0611ae884828501611926565b60a08301525060c0611afc84828501611b48565b60c08301525060e0611b1084828501611b48565b60e083015250610100611b2584828501611926565b61010083015250610120611b3b84828501611b48565b6101208301525092915050565b600081359050611b5781612c18565b92915050565b600081519050611b6c81612c18565b92915050565b600081359050611b8181612c2f565b92915050565b600060208284031215611b9957600080fd5b6000611ba784828501611926565b91505092915050565b600060208284031215611bc257600080fd5b6000611bd08482850161193b565b91505092915050565b600080600060608486031215611bee57600080fd5b600084013567ffffffffffffffff811115611c0857600080fd5b611c1486828701611a0a565b9350506020611c2586828701611b48565b9250506040611c36868287016119a1565b9150509250925092565b600060208284031215611c5257600080fd5b6000611c6084828501611b48565b91505092915050565b60008060408385031215611c7c57600080fd5b6000611c8a85828601611b5d565b9250506020611c9b858286016119b6565b9150509250929050565b600060208284031215611cb757600080fd5b6000611cc584828501611b72565b91505092915050565b6000611cda8383611e95565b60208301905092915050565b6000611cf28383611f3a565b905092915050565b611d0381612901565b82525050565b611d12816128ef565b82525050565b611d21816128ef565b82525050565b611d38611d33826128ef565b612aab565b82525050565b6000611d4a83856127e1565b93507f07ffffffffffffffffffffffffffffffffffffffffffffffffffffffffffffff831115611d7957600080fd5b602083029250611d8a83858461299f565b82840190509392505050565b6000611da1826127a0565b611dab81856127d0565b9350611db683612757565b8060005b83811015611dee57611dcb82612b8c565b611dd58882611cce565b9750611de0836127b6565b925050600181019050611dba565b5085935050505092915050565b6000611e06826127ab565b611e1081856127ec565b935083602082028501611e228561276c565b8060005b85811015611e5d57848403895281611e3e8582611ce6565b9450611e49836127c3565b925060208a01995050600181019050611e26565b50829750879550505050505092915050565b611e7881612913565b82525050565b611e8f611e8a8261291f565b612abd565b82525050565b611e9e8161294b565b82525050565b611eb5611eb08261294b565b612ac7565b82525050565b60008154611ec8816129ae565b611ed281866127f7565b94506001821660008114611eed5760018114611efe57611f31565b60ff19831686528186019350611f31565b611f0785612776565b60005b83811015611f2957815481890152600182019150602081019050611f0a565b838801955050505b50505092915050565b60008154611f47816129ae565b611f518186612802565b94506001821660008114611f6c5760018114611f7e57611fb1565b60ff1983168652602086019350611fb1565b611f878561278b565b60005b83811015611fa957815481890152600182019150602081019050611f8a565b808801955050505b50505092915050565b6000611fc7602683612813565b91507f4f776e61626c653a206e6577206f776e657220697320746865207a65726f206160008301527f64647265737300000000000000000000000000000000000000000000000000006020830152604082019050919050565b600061202d601183612813565b91507f41646472657373206e6f742072656164790000000000000000000000000000006000830152602082019050919050565b600061206d601783612813565b91507f4e4f20515545554544204143434f554e5420464f554e440000000000000000006000830152602082019050919050565b60006120ad601483612813565b91507f4e4f5420454e4f55474820464f525741524445520000000000000000000000006000830152602082019050919050565b60006120ed602383612813565b91507f70726f6365737357616c6c65743a2045787465726e616c2063616c6c2066616960008301527f6c656400000000000000000000000000000000000000000000000000000000006020830152604082019050919050565b6000612153602083612813565b91507f4f776e61626c653a2063616c6c6572206973206e6f7420746865206f776e65726000830152602082019050919050565b6000612193600e83612813565b91507f4455504c4943415445204954454d0000000000000000000000000000000000006000830152602082019050919050565b60006121d36000836127f7565b9150600082019050919050565b6000610140830160008084015490506121f8816129e0565b6122056000870182611d09565b5060018401858303602087015261221c8382611dfb565b9250506003840154905061222f816129e0565b61223c6040870182611d09565b506004840185830360608701526122538382611d96565b9250506005840154905061226681612a2e565b6122736080870182612345565b5061227d81612a48565b61228a60a0870182611d09565b506006840154905061229b81612a14565b6122a860c0870182612310565b50600784015490506122b981612a14565b6122c660e0870182612310565b50600884015490506122d7816129e0565b6122e5610100870182611d09565b50600984015490506122f681612a14565b612304610120870182612310565b50819250505092915050565b61231981612975565b82525050565b61232881612975565b82525050565b61233f61233a82612975565b612ae3565b82525050565b61234e8161297f565b82525050565b6123656123608261297f565b612aed565b82525050565b6000612377828a611d27565b60148201915061238882888a611d3e565b91506123948287612354565b6001820191506123a48286611d27565b6014820191506123b4828561232e565b6020820191506123c4828461232e565b60208201915081905098975050505050505050565b60006123e58285611d27565b6014820191506123f5828461232e565b6020820191508190509392505050565b60006124118287611e7e565b6001820191506124218286611d27565b6014820191506124318285611ea4565b6020820191506124418284611ea4565b60208201915081905095945050505050565b600061245f8284611ebb565b915081905092915050565b6000612475826121c6565b9150819050919050565b60006020820190506124946000830184611d18565b92915050565b60006020820190506124af6000830184611cfa565b92915050565b60006040820190506124ca6000830185611d18565b6124d76020830184611d18565b9392505050565b60006040820190506124f36000830185611d18565b612500602083018461231f565b9392505050565b6000602082019050818103600083015261252081611fba565b9050919050565b6000602082019050818103600083015261254081612020565b9050919050565b6000602082019050818103600083015261256081612060565b9050919050565b60006020820190508181036000830152612580816120a0565b9050919050565b600060208201905081810360008301526125a0816120e0565b9050919050565b600060208201905081810360008301526125c081612146565b9050919050565b600060208201905081810360008301526125e081612186565b9050919050565b6000602082019050818103600083015261260181846121e0565b905092915050565b600060208201905061261e600083018461231f565b92915050565b6000604082019050612639600083018561231f565b6126466020830184611e6f565b9392505050565b6000808335600160200384360303811261266657600080fd5b80840192508235915067ffffffffffffffff82111561268457600080fd5b60208301925060208202360383131561269c57600080fd5b509250929050565b6000604051905081810181811067ffffffffffffffff821117156126cb576126ca612b5d565b5b8060405250919050565b600067ffffffffffffffff8211156126f0576126ef612b5d565b5b602082029050602081019050919050565b600067ffffffffffffffff82111561271c5761271b612b5d565b5b602082029050919050565b600067ffffffffffffffff82111561274257612741612b5d565b5b601f19601f8301169050602081019050919050565b60008190508160005260206000209050919050565b6000819050919050565b60008190508160005260206000209050919050565b60008190508160005260206000209050919050565b600081549050919050565b600060029050919050565b6000600182019050919050565b6000600182019050919050565b600082825260208201905092915050565b600081905092915050565b600081905092915050565b600081905092915050565b600082825260208201905092915050565b600082825260208201905092915050565b600061282f82612975565b915061283a83612975565b9250827fffffffffffffffffffffffffffffffffffffffffffffffffffffffffffffffff0382111561286f5761286e612aff565b5b828201905092915050565b600061288582612975565b915061289083612975565b9250828210156128a3576128a2612aff565b5b828203905092915050565b600073ffffffffffffffffffffffffffffffffffffffff82169050919050565b6000819050919050565b6000819050919050565b600060ff82169050919050565b60006128fa82612955565b9050919050565b600061290c82612955565b9050919050565b60008115159050919050565b60007fff0000000000000000000000000000000000000000000000000000000000000082169050919050565b6000819050919050565b600073ffffffffffffffffffffffffffffffffffffffff82169050919050565b6000819050919050565b600060ff82169050919050565b60006129983683611a26565b9050919050565b82818337600083830152505050565b600060028204905060018216806129c657607f821691505b602082108114156129da576129d9612b2e565b5b50919050565b60006129f36129ee83612bb9565b6128ae565b9050919050565b6000612a0d612a0883612bb9565b6128ce565b9050919050565b6000612a27612a2283612bb9565b6128d8565b9050919050565b6000612a41612a3c83612bb9565b6128e2565b9050919050565b6000612a5b612a5683612bc6565b6128ae565b9050919050565b6000612a6d82612975565b91507fffffffffffffffffffffffffffffffffffffffffffffffffffffffffffffffff821415612aa057612a9f612aff565b5b600182019050919050565b6000612ab682612ad1565b9050919050565b6000819050919050565b6000819050919050565b6000612adc82612bac565b9050919050565b6000819050919050565b6000612af882612b9f565b9050919050565b7f4e487b7100000000000000000000000000000000000000000000000000000000600052601160045260246000fd5b7f4e487b7100000000000000000000000000000000000000000000000000000000600052602260045260246000fd5b7f4e487b7100000000000000000000000000000000000000000000000000000000600052604160045260246000fd5b6000612b9882546129fa565b9050919050565b60008160f81b9050919050565b60008160601b9050919050565b60008160001c9050919050565b60008160081c9050919050565b612bdc816128ef565b8114612be757600080fd5b50565b612bf381612913565b8114612bfe57600080fd5b50565b612c0a8161294b565b8114612c1557600080fd5b50565b612c2181612975565b8114612c2c57600080fd5b50565b612c388161297f565b8114612c4357600080fd5b5056fea264697066735822122066fddfe63266439a5103dca2bb4576ed376faf3723031015674a3fb8389c571f64736f6c63430008000033608060405234801561001057600080fd5b506101d8806100206000396000f3fe6080604052600436106100225760003560e01c806319ab453c146100af576100aa565b366100aa5760008054906101000a900473ffffffffffffffffffffffffffffffffffffffff1673ffffffffffffffffffffffffffffffffffffffff16638f70bfa0346040518263ffffffff1660e01b81526004016000604051808303818588803b15801561008f57600080fd5b505af11580156100a3573d6000803e3d6000fd5b5050505050005b600080fd5b3480156100bb57600080fd5b506100d660048036038101906100d19190610130565b6100d8565b005b806000806101000a81548173ffffffffffffffffffffffffffffffffffffffff021916908373ffffffffffffffffffffffffffffffffffffffff16021790555050565b60008135905061012a8161018b565b92915050565b60006020828403121561014257600080fd5b60006101508482850161011b565b91505092915050565b60006101648261016b565b9050919050565b600073ffffffffffffffffffffffffffffffffffffffff82169050919050565b61019481610159565b811461019f57600080fd5b5056fea2646970667358221220e5d9fd883d2422ecbc328a2a006fc709ceb2be159d16038843c191e4de4c66a464736f6c63430008000033",
  "immutableReferences": {},
  "source": "// SPDX-License-Identifier: GPL-3.0-only\n\npragma solidity >=0.7.6;\npragma experimental ABIEncoderV2;\n\nimport \"@openzeppelin/contracts/access/Ownable.sol\";\nimport \"../wallet_factory.sol\";\nimport \"./forwarder.sol\";\n\n/**\n * Relayer contract is responsible for accept queued up new wallet\n * until there are new deposits associated with it via forwarder addresses.\n * Once there is at least one associated address, the application relayer\n * can trigger a processNext() to request a new wallet from the wallet factory.\n *\n * Why on smart contract? We can avoid any security risk of holding onto private keys\n * generated on the application relayer.\n * \n */\ncontract Relayer is Ownable\n{\n    struct WalletState {\n        WalletFactory.WalletConfig config;\n        uint256 deposits;\n        bool created;\n        uint networkFee;\n        bool exists;\n    }\n\n    event WalletCreated(address wallet, address forwarder);\n    event EnqueuedNewWallet(address forwarder);\n    event DepositReceived(address forwarder, uint deposit);\n\n    address forwardImpl;\n    bytes forwardInitCode;\n    uint public totalForwarderCount;\n    uint256 collectedFees;\n\n    // forward address -> Config\n    mapping (address => WalletState) walletQueue;\n    mapping (bytes32 => bool) dedupMap;\n    address[] availableForwarders;\n\n    WalletFactory factory;\n\n    constructor(address factory_, uint initialForwarder) {\n        factory = WalletFactory(factory_);\n        forwardImpl = address(new Forwarder());\n        forwardInitCode = getInitCode(forwardImpl);    \n\n        for(uint i=0;i<initialForwarder;i++){\n            Forwarder f = deployForwarder(totalForwarderCount);\n            availableForwarders.push(address(f));\n            totalForwarderCount++;\n        }    \n    }\n\n    function submitNewWalletQueue(\n        WalletFactory.WalletConfig calldata config, \n        uint networkFee,\n        bool createForwarderIfNeeded\n    ) external onlyOwner() {\n        bytes32 hash = getConfigHash(config);\n        require(dedupMap[hash] == false, \"DUPLICATE ITEM\");\n\n        if (!createForwarderIfNeeded) {\n            require(availableForwarders.length > 0,\"NOT ENOUGH FORWARDER\");\n        } else {\n            if(availableForwarders.length == 0) {\n                Forwarder f = deployForwarder(totalForwarderCount);\n                availableForwarders.push(address(f));\n                totalForwarderCount++;                \n            }\n        }        \n\n        // hash the owner info\n        address lastForwarder = availableForwarders[availableForwarders.length-1];\n        walletQueue[lastForwarder] = WalletState(config, 0, false, networkFee, true);\n        availableForwarders.pop();   \n        dedupMap[hash]=true;\n        \n        emit EnqueuedNewWallet(lastForwarder);\n    }\n\n    function getConfigHash(WalletFactory.WalletConfig calldata config) internal pure returns(bytes32) {\n        return keccak256(abi.encodePacked(config.owner, config.rootHash, config.merkelHeight, config.drainAddr, config.dailyLimit, config.salt));\n    }\n\n    // returns deposits, and ready status\n    function getStatus(address forwarder) external view returns(uint256, bool) {\n        return (walletQueue[forwarder].deposits, walletQueue[forwarder].deposits > walletQueue[forwarder].networkFee);\n    }\n\n    function processWallet(address forwarder) external onlyOwner() {\n        uint256 deposits;\n        bool isReady;\n        (deposits, isReady) = this.getStatus(forwarder);\n        require(isReady, \"Address not ready\");\n\n        WalletState storage state = walletQueue[forwarder];\n        factory.createWallet(state.config);\n\n        // send excess network fees to the new wallet\n        address wallet = factory.computeWalletAddress(state.config.owner, state.config.salt);\n        if (state.deposits > state.networkFee) {\n            (bool success,) = wallet.call{value: (state.deposits - state.networkFee), gas: 100000}(\"\");\n            require(success, \"processWallet: External call failed\");\n\n        }\n\n        delete walletQueue[forwarder];\n        availableForwarders.push(forwarder);\n        emit WalletCreated(wallet, forwarder);\n    }\n\n    function processDeposit() external payable{\n        require(walletQueue[msg.sender].exists, \"NO QUEUED ACCOUNT FOUND\");\n        walletQueue[msg.sender].deposits += msg.value;\n        collectedFees += walletQueue[msg.sender].networkFee;\n        emit DepositReceived(msg.sender, msg.value);\n    }\n\n    function collectFees() external onlyOwner() {\n        payable(owner()).transfer(collectedFees);\n        collectedFees = 0;\n    }\n\n    receive() external payable {\n        emit DepositReceived(msg.sender, msg.value);\n    }\n\n    //\n    // Forwarding Factory\n    //\n\n    function getForwarder(uint salt_) public view returns (address) {\n        bytes32 salt = keccak256(abi.encodePacked(address(this), salt_));\n        bytes32 hash = keccak256(abi.encodePacked(bytes1(0xff), address(this), salt, keccak256(abi.encodePacked(forwardInitCode))));\n        address forwarder = address(uint160(uint256(hash)));\n        return forwarder;\n    }\n\n    function deployForwarder(uint salt_) internal returns (Forwarder) {\n        Forwarder forwarder = _deployForwarder(salt_);\n        forwarder.init(payable(address(this)));\n        return forwarder;\n    }\n\n    function _deployForwarder(uint salt_) internal returns (Forwarder forwarder) {\n        \n        // load the init code to memory\n        bytes memory mInitCode = forwardInitCode;\n\n        // compute the salt from the destination\n        bytes32 salt = keccak256(abi.encodePacked(address(this), salt_));\n\n        assembly {\n            forwarder := create2(0, add(mInitCode, 0x20), mload(mInitCode), salt)\n            if iszero(extcodesize(forwarder)) { revert(0, 0) }\n        }\n    }\n\n    function getInitCode(address _implementation) internal pure returns (bytes memory code) {\n        bytes20 targetBytes = bytes20(_implementation);\n        code = new bytes(55);\n        assembly {\n            mstore(add(code, 0x20), 0x3d602d80600a3d3981f3363d3d373d3d3d363d73000000000000000000000000)\n            mstore(add(code, add(0x20,0x14)), targetBytes)\n            mstore(add(code, add(0x20,0x28)), 0x5af43d82803e903d91602b57fd5bf30000000000000000000000000000000000)\n        }\n    }\n}",
  "sourcePath": "/home/quoc/Projects/harmony-totp-pure/contracts/_deprecated/relayer.sol",
  "compiler": {
    "name": "solc",
    "version": "0.8.0+commit.c7dfd78e.Emscripten.clang"
  },
  "schemaVersion": "3.3.4",
  "updatedAt": "2021-09-03T20:44:26.515Z",
  "devdoc": {
    "kind": "dev",
    "methods": {
      "owner()": {
        "details": "Returns the address of the current owner."
      },
      "renounceOwnership()": {
        "details": "Leaves the contract without owner. It will not be possible to call `onlyOwner` functions anymore. Can only be called by the current owner. NOTE: Renouncing ownership will leave the contract without an owner, thereby removing any functionality that is only available to the owner."
      },
      "transferOwnership(address)": {
        "details": "Transfers ownership of the contract to a new account (`newOwner`). Can only be called by the current owner."
      }
    },
    "version": 1
  },
  "userdoc": {
    "kind": "user",
    "methods": {},
    "notice": "Relayer contract is responsible for accept queued up new wallet until there are new deposits associated with it via forwarder addresses. Once there is at least one associated address, the application relayer can trigger a processNext() to request a new wallet from the wallet factory. Why on smart contract? We can avoid any security risk of holding onto private keys generated on the application relayer. ",
    "version": 1
  }
}