{
  "contractName": "Relayer",
  "abi": [
    {
      "inputs": [
        {
          "internalType": "address",
          "name": "factory_",
          "type": "address"
        },
        {
          "internalType": "uint256",
          "name": "initialForwarder",
          "type": "uint256"
        }
      ],
      "stateMutability": "nonpayable",
      "type": "constructor"
    },
    {
      "anonymous": false,
      "inputs": [
        {
          "indexed": false,
          "internalType": "address",
          "name": "forwarder",
          "type": "address"
        },
        {
          "indexed": false,
          "internalType": "uint256",
          "name": "deposit",
          "type": "uint256"
        }
      ],
      "name": "DepositReceived",
      "type": "event"
    },
    {
      "anonymous": false,
      "inputs": [
        {
          "indexed": false,
          "internalType": "address",
          "name": "forwarder",
          "type": "address"
        }
      ],
      "name": "EnqueuedNewWallet",
      "type": "event"
    },
    {
      "anonymous": false,
      "inputs": [
        {
          "indexed": true,
          "internalType": "address",
          "name": "previousOwner",
          "type": "address"
        },
        {
          "indexed": true,
          "internalType": "address",
          "name": "newOwner",
          "type": "address"
        }
      ],
      "name": "OwnershipTransferred",
      "type": "event"
    },
    {
      "anonymous": false,
      "inputs": [
        {
          "indexed": false,
          "internalType": "address",
          "name": "wallet",
          "type": "address"
        },
        {
          "indexed": false,
          "internalType": "address",
          "name": "forwarder",
          "type": "address"
        }
      ],
      "name": "WalletCreated",
      "type": "event"
    },
    {
      "inputs": [],
      "name": "owner",
      "outputs": [
        {
          "internalType": "address",
          "name": "",
          "type": "address"
        }
      ],
      "stateMutability": "view",
      "type": "function"
    },
    {
      "inputs": [],
      "name": "renounceOwnership",
      "outputs": [],
      "stateMutability": "nonpayable",
      "type": "function"
    },
    {
      "inputs": [],
      "name": "totalForwarderCount",
      "outputs": [
        {
          "internalType": "uint256",
          "name": "",
          "type": "uint256"
        }
      ],
      "stateMutability": "view",
      "type": "function"
    },
    {
      "inputs": [
        {
          "internalType": "address",
          "name": "newOwner",
          "type": "address"
        }
      ],
      "name": "transferOwnership",
      "outputs": [],
      "stateMutability": "nonpayable",
      "type": "function"
    },
    {
      "stateMutability": "payable",
      "type": "receive"
    },
    {
      "inputs": [
        {
          "components": [
            {
              "internalType": "address",
              "name": "resolver",
              "type": "address"
            },
            {
              "internalType": "string[2]",
              "name": "domain",
              "type": "string[2]"
            },
            {
              "internalType": "address",
              "name": "owner",
              "type": "address"
            },
            {
              "internalType": "bytes32[]",
              "name": "rootHash",
              "type": "bytes32[]"
            },
            {
              "internalType": "uint8",
              "name": "merkelHeight",
              "type": "uint8"
            },
            {
              "internalType": "address",
              "name": "drainAddr",
              "type": "address"
            },
            {
              "internalType": "uint256",
              "name": "dailyLimit",
              "type": "uint256"
            },
            {
              "internalType": "uint256",
              "name": "salt",
              "type": "uint256"
            },
            {
              "internalType": "string",
              "name": "password",
              "type": "string"
            },
            {
              "internalType": "string",
              "name": "email",
              "type": "string"
            },
            {
              "internalType": "string",
              "name": "countryOfResidence",
              "type": "string"
            },
            {
              "internalType": "address",
              "name": "feeReceipient",
              "type": "address"
            },
            {
              "internalType": "uint256",
              "name": "feeAmount",
              "type": "uint256"
            }
          ],
          "internalType": "struct WalletFactory.WalletConfig",
          "name": "config",
          "type": "tuple"
        },
        {
          "internalType": "uint256",
          "name": "networkFee",
          "type": "uint256"
        },
        {
          "internalType": "bool",
          "name": "createForwarderIfNeeded",
          "type": "bool"
        }
      ],
      "name": "submitNewWalletQueue",
      "outputs": [],
      "stateMutability": "nonpayable",
      "type": "function"
    },
    {
      "inputs": [
        {
          "internalType": "address",
          "name": "forwarder",
          "type": "address"
        }
      ],
      "name": "getStatus",
      "outputs": [
        {
          "internalType": "uint256",
          "name": "",
          "type": "uint256"
        },
        {
          "internalType": "bool",
          "name": "",
          "type": "bool"
        }
      ],
      "stateMutability": "view",
      "type": "function"
    },
    {
      "inputs": [
        {
          "internalType": "address",
          "name": "forwarder",
          "type": "address"
        }
      ],
      "name": "processWallet",
      "outputs": [],
      "stateMutability": "nonpayable",
      "type": "function"
    },
    {
      "inputs": [],
      "name": "processDeposit",
      "outputs": [],
      "stateMutability": "payable",
      "type": "function"
    },
    {
      "inputs": [],
      "name": "collectFees",
      "outputs": [],
      "stateMutability": "nonpayable",
      "type": "function"
    },
    {
      "inputs": [
        {
          "internalType": "uint256",
          "name": "salt_",
          "type": "uint256"
        }
      ],
      "name": "getForwarder",
      "outputs": [
        {
          "internalType": "address",
          "name": "",
          "type": "address"
        }
      ],
      "stateMutability": "view",
      "type": "function"
    }
  ],
  "bytecode": "0x60806040523480156200001157600080fd5b506040516200387d3803806200387d83398181016040528101906200003791906200061b565b620000576200004b6200020f60201b60201c565b6200021760201b60201c565b81600860006101000a81548173ffffffffffffffffffffffffffffffffffffffff021916908373ffffffffffffffffffffffffffffffffffffffff160217905550604051620000a6906200052f565b604051809103906000f080158015620000c3573d6000803e3d6000fd5b50600160006101000a81548173ffffffffffffffffffffffffffffffffffffffff021916908373ffffffffffffffffffffffffffffffffffffffff16021790555062000137600160009054906101000a900473ffffffffffffffffffffffffffffffffffffffff16620002db60201b60201c565b600290805190602001906200014e9291906200053d565b5060005b818110156200020657600062000170600354620003bb60201b60201c565b90506007819080600181540180825580915050600190039060005260206000200160009091909190916101000a81548173ffffffffffffffffffffffffffffffffffffffff021916908373ffffffffffffffffffffffffffffffffffffffff16021790555060036000815480929190620001ea9062000778565b9190505550508080620001fd9062000778565b91505062000152565b50505062000897565b600033905090565b60008060009054906101000a900473ffffffffffffffffffffffffffffffffffffffff169050816000806101000a81548173ffffffffffffffffffffffffffffffffffffffff021916908373ffffffffffffffffffffffffffffffffffffffff1602179055508173ffffffffffffffffffffffffffffffffffffffff168173ffffffffffffffffffffffffffffffffffffffff167f8be0079c531659141344cd1fd0a4f28419497f9722a3daafe3b4186f6b6457e060405160405180910390a35050565b606060008260601b9050603767ffffffffffffffff81111562000327577f4e487b7100000000000000000000000000000000000000000000000000000000600052604160045260246000fd5b6040519080825280601f01601f1916602001820160405280156200035a5781602001600182028036833780820191505090505b5091507f3d602d80600a3d3981f3363d3d373d3d3d363d7300000000000000000000000060208301528060146020018301527f5af43d82803e903d91602b57fd5bf30000000000000000000000000000000000602860200183015250919050565b600080620003cf836200044960201b60201c565b90508073ffffffffffffffffffffffffffffffffffffffff166319ab453c306040518263ffffffff1660e01b81526004016200040c9190620006d3565b600060405180830381600087803b1580156200042757600080fd5b505af11580156200043c573d6000803e3d6000fd5b5050505080915050919050565b600080600280546200045b9062000742565b80601f0160208091040260200160405190810160405280929190818152602001828054620004899062000742565b8015620004da5780601f10620004ae57610100808354040283529160200191620004da565b820191906000526020600020905b815481529060010190602001808311620004bc57829003601f168201915b5050505050905060003084604051602001620004f8929190620006a3565b604051602081830303815290604052805190602001209050808251602084016000f59250823b6200052857600080fd5b5050919050565b6101f8806200368583390190565b8280546200054b9062000742565b90600052602060002090601f0160209004810192826200056f5760008555620005bb565b82601f106200058a57805160ff1916838001178555620005bb565b82800160010185558215620005bb579182015b82811115620005ba5782518255916020019190600101906200059d565b5b509050620005ca9190620005ce565b5090565b5b80821115620005e9576000816000905550600101620005cf565b5090565b600081519050620005fe8162000863565b92915050565b60008151905062000615816200087d565b92915050565b600080604083850312156200062f57600080fd5b60006200063f85828601620005ed565b9250506020620006528582860162000604565b9150509250929050565b620006678162000704565b82525050565b620006826200067c82620006f0565b620007c6565b82525050565b6200069d620006978262000738565b620007ee565b82525050565b6000620006b182856200066d565b601482019150620006c3828462000688565b6020820191508190509392505050565b6000602082019050620006ea60008301846200065c565b92915050565b6000620006fd8262000718565b9050919050565b6000620007118262000718565b9050919050565b600073ffffffffffffffffffffffffffffffffffffffff82169050919050565b6000819050919050565b600060028204905060018216806200075b57607f821691505b6020821081141562000772576200077162000827565b5b50919050565b6000620007858262000738565b91507fffffffffffffffffffffffffffffffffffffffffffffffffffffffffffffffff821415620007bb57620007ba620007f8565b5b600182019050919050565b6000620007d382620007da565b9050919050565b6000620007e78262000856565b9050919050565b6000819050919050565b7f4e487b7100000000000000000000000000000000000000000000000000000000600052601160045260246000fd5b7f4e487b7100000000000000000000000000000000000000000000000000000000600052602260045260246000fd5b60008160601b9050919050565b6200086e81620006f0565b81146200087a57600080fd5b50565b620008888162000738565b81146200089457600080fd5b50565b612dde80620008a76000396000f3fe6080604052600436106100955760003560e01c80638da5cb5b116100595780638da5cb5b146101c05780638f70bfa0146101eb578063c8796572146101f5578063c8bbbd5a1461020c578063f2fde38b14610235576100d5565b806330ccebb5146100da5780635451a13114610118578063715018a61461014357806378135ccd1461015a57806379ea994314610183576100d5565b366100d5577f9936746a4565f9766fa768f88f56a7487c78780ac179562773d1c75c5269537e33346040516100cb929190612640565b60405180910390a1005b600080fd5b3480156100e657600080fd5b5061010160048036038101906100fc9190611c9b565b61025e565b60405161010f929190612786565b60405180910390f35b34801561012457600080fd5b5061012d610334565b60405161013a919061276b565b60405180910390f35b34801561014f57600080fd5b5061015861033a565b005b34801561016657600080fd5b50610181600480360381019061017c9190611ced565b6103c2565b005b34801561018f57600080fd5b506101aa60048036038101906101a59190611d54565b6109b4565b6040516101b791906125e1565b60405180910390f35b3480156101cc57600080fd5b506101d5610a51565b6040516101e291906125e1565b60405180910390f35b6101f3610a7a565b005b34801561020157600080fd5b5061020a610bf8565b005b34801561021857600080fd5b50610233600480360381019061022e9190611c9b565b610cce565b005b34801561024157600080fd5b5061025c60048036038101906102579190611c9b565b611303565b005b600080600560008473ffffffffffffffffffffffffffffffffffffffff1673ffffffffffffffffffffffffffffffffffffffff168152602001908152602001600020600d0154600560008573ffffffffffffffffffffffffffffffffffffffff1673ffffffffffffffffffffffffffffffffffffffff168152602001908152602001600020600f0154600560008673ffffffffffffffffffffffffffffffffffffffff1673ffffffffffffffffffffffffffffffffffffffff168152602001908152602001600020600d01541191509150915091565b60035481565b6103426113fb565b73ffffffffffffffffffffffffffffffffffffffff16610360610a51565b73ffffffffffffffffffffffffffffffffffffffff16146103b6576040517f08c379a00000000000000000000000000000000000000000000000000000000081526004016103ad90612709565b60405180910390fd5b6103c06000611403565b565b6103ca6113fb565b73ffffffffffffffffffffffffffffffffffffffff166103e8610a51565b73ffffffffffffffffffffffffffffffffffffffff161461043e576040517f08c379a000000000000000000000000000000000000000000000000000000000815260040161043590612709565b60405180910390fd5b6000610449846114c7565b9050600015156006600083815260200190815260200160002060009054906101000a900460ff161515146104b2576040517f08c379a00000000000000000000000000000000000000000000000000000000081526004016104a990612729565b60405180910390fd5b81610504576000600780549050116104ff576040517f08c379a00000000000000000000000000000000000000000000000000000000081526004016104f6906126c9565b60405180910390fd5b61059f565b6000600780549050141561059e57600061051f60035461154f565b90506007819080600181540180825580915050600190039060005260206000200160009091909190916101000a81548173ffffffffffffffffffffffffffffffffffffffff021916908373ffffffffffffffffffffffffffffffffffffffff1602179055506003600081548092919061059790612bc4565b9190505550505b5b6000600760016007805490506105b591906129dc565b815481106105ec577f4e487b7100000000000000000000000000000000000000000000000000000000600052603260045260246000fd5b9060005260206000200160009054906101000a900473ffffffffffffffffffffffffffffffffffffffff1690506040518060a001604052808661062e90612aee565b81526020016000815260200160001515815260200185815260200160011515815250600560008373ffffffffffffffffffffffffffffffffffffffff1673ffffffffffffffffffffffffffffffffffffffff16815260200190815260200160002060008201518160000160008201518160000160006101000a81548173ffffffffffffffffffffffffffffffffffffffff021916908373ffffffffffffffffffffffffffffffffffffffff1602179055506020820151816001019060026106f69291906116ac565b5060408201518160030160006101000a81548173ffffffffffffffffffffffffffffffffffffffff021916908373ffffffffffffffffffffffffffffffffffffffff160217905550606082015181600401908051906020019061075a9291906116ff565b5060808201518160050160006101000a81548160ff021916908360ff16021790555060a08201518160050160016101000a81548173ffffffffffffffffffffffffffffffffffffffff021916908373ffffffffffffffffffffffffffffffffffffffff16021790555060c0820151816006015560e082015181600701556101008201518160080190805190602001906107f492919061174c565b5061012082015181600901908051906020019061081292919061174c565b5061014082015181600a01908051906020019061083092919061174c565b5061016082015181600b0160006101000a81548173ffffffffffffffffffffffffffffffffffffffff021916908373ffffffffffffffffffffffffffffffffffffffff16021790555061018082015181600c01555050602082015181600d0155604082015181600e0160006101000a81548160ff021916908315150217905550606082015181600f015560808201518160100160006101000a81548160ff0219169083151502179055509050506007805480610915577f4e487b7100000000000000000000000000000000000000000000000000000000600052603160045260246000fd5b6001900381819060005260206000200160006101000a81549073ffffffffffffffffffffffffffffffffffffffff0219169055905560016006600084815260200190815260200160002060006101000a81548160ff0219169083151502179055507f5921c85d298cfc569b547d52c01d83126e2bff5fef79adec43b578606226be54816040516109a591906125e1565b60405180910390a15050505050565b60008030836040516020016109ca92919061253b565b604051602081830303815290604052805190602001209050600060ff60f81b308360026040516020016109fd91906125b5565b60405160208183030381529060405280519060200120604051602001610a269493929190612567565b60405160208183030381529060405280519060200120905060008160001c9050809350505050919050565b60008060009054906101000a900473ffffffffffffffffffffffffffffffffffffffff16905090565b600560003373ffffffffffffffffffffffffffffffffffffffff1673ffffffffffffffffffffffffffffffffffffffff16815260200190815260200160002060100160009054906101000a900460ff16610b09576040517f08c379a0000000000000000000000000000000000000000000000000000000008152600401610b00906126a9565b60405180910390fd5b34600560003373ffffffffffffffffffffffffffffffffffffffff1673ffffffffffffffffffffffffffffffffffffffff168152602001908152602001600020600d016000828254610b5b9190612986565b92505081905550600560003373ffffffffffffffffffffffffffffffffffffffff1673ffffffffffffffffffffffffffffffffffffffff168152602001908152602001600020600f015460046000828254610bb69190612986565b925050819055507f9936746a4565f9766fa768f88f56a7487c78780ac179562773d1c75c5269537e3334604051610bee929190612640565b60405180910390a1565b610c006113fb565b73ffffffffffffffffffffffffffffffffffffffff16610c1e610a51565b73ffffffffffffffffffffffffffffffffffffffff1614610c74576040517f08c379a0000000000000000000000000000000000000000000000000000000008152600401610c6b90612709565b60405180910390fd5b610c7c610a51565b73ffffffffffffffffffffffffffffffffffffffff166108fc6004549081150290604051600060405180830381858888f19350505050158015610cc3573d6000803e3d6000fd5b506000600481905550565b610cd66113fb565b73ffffffffffffffffffffffffffffffffffffffff16610cf4610a51565b73ffffffffffffffffffffffffffffffffffffffff1614610d4a576040517f08c379a0000000000000000000000000000000000000000000000000000000008152600401610d4190612709565b60405180910390fd5b6000803073ffffffffffffffffffffffffffffffffffffffff166330ccebb5846040518263ffffffff1660e01b8152600401610d8691906125e1565b604080518083038186803b158015610d9d57600080fd5b505afa158015610db1573d6000803e3d6000fd5b505050506040513d601f19601f82011682018060405250810190610dd59190611d7d565b809250819350505080610e1d576040517f08c379a0000000000000000000000000000000000000000000000000000000008152600401610e1490612689565b60405180910390fd5b6000600560008573ffffffffffffffffffffffffffffffffffffffff1673ffffffffffffffffffffffffffffffffffffffff1681526020019081526020016000209050600860009054906101000a900473ffffffffffffffffffffffffffffffffffffffff1673ffffffffffffffffffffffffffffffffffffffff166302b304e4826000016040518263ffffffff1660e01b8152600401610ebe9190612749565b602060405180830381600087803b158015610ed857600080fd5b505af1158015610eec573d6000803e3d6000fd5b505050506040513d601f19601f82011682018060405250810190610f109190611cc4565b506000600860009054906101000a900473ffffffffffffffffffffffffffffffffffffffff1673ffffffffffffffffffffffffffffffffffffffff1663ce1586128360000160030160009054906101000a900473ffffffffffffffffffffffffffffffffffffffff1684600001600701546040518363ffffffff1660e01b8152600401610f9e929190612640565b60206040518083038186803b158015610fb657600080fd5b505afa158015610fca573d6000803e3d6000fd5b505050506040513d601f19601f82011682018060405250810190610fee9190611cc4565b905081600f015482600d015411156110c75760008173ffffffffffffffffffffffffffffffffffffffff1683600f015484600d015461102d91906129dc565b620186a09060405161103e906125cc565b600060405180830381858888f193505050503d806000811461107c576040519150601f19603f3d011682016040523d82523d6000602084013e611081565b606091505b50509050806110c5576040517f08c379a00000000000000000000000000000000000000000000000000000000081526004016110bc906126e9565b60405180910390fd5b505b600560008673ffffffffffffffffffffffffffffffffffffffff1673ffffffffffffffffffffffffffffffffffffffff1681526020019081526020016000206000808201600080820160006101000a81549073ffffffffffffffffffffffffffffffffffffffff021916905560018201600061114391906117d2565b6003820160006101000a81549073ffffffffffffffffffffffffffffffffffffffff021916905560048201600061117a91906117f3565b6005820160006101000a81549060ff02191690556005820160016101000a81549073ffffffffffffffffffffffffffffffffffffffff0219169055600682016000905560078201600090556008820160006111d59190611814565b6009820160006111e59190611814565b600a820160006111f59190611814565b600b820160006101000a81549073ffffffffffffffffffffffffffffffffffffffff0219169055600c8201600090555050600d820160009055600e820160006101000a81549060ff0219169055600f8201600090556010820160006101000a81549060ff021916905550506007859080600181540180825580915050600190039060005260206000200160009091909190916101000a81548173ffffffffffffffffffffffffffffffffffffffff021916908373ffffffffffffffffffffffffffffffffffffffff1602179055507f5b03bfed1c14a02bdeceb5fa582eb1a5765fc0bc64ca0e6af4c20afc9487f08181866040516112f4929190612617565b60405180910390a15050505050565b61130b6113fb565b73ffffffffffffffffffffffffffffffffffffffff16611329610a51565b73ffffffffffffffffffffffffffffffffffffffff161461137f576040517f08c379a000000000000000000000000000000000000000000000000000000000815260040161137690612709565b60405180910390fd5b600073ffffffffffffffffffffffffffffffffffffffff168173ffffffffffffffffffffffffffffffffffffffff1614156113ef576040517f08c379a00000000000000000000000000000000000000000000000000000000081526004016113e690612669565b60405180910390fd5b6113f881611403565b50565b600033905090565b60008060009054906101000a900473ffffffffffffffffffffffffffffffffffffffff169050816000806101000a81548173ffffffffffffffffffffffffffffffffffffffff021916908373ffffffffffffffffffffffffffffffffffffffff1602179055508173ffffffffffffffffffffffffffffffffffffffff168173ffffffffffffffffffffffffffffffffffffffff167f8be0079c531659141344cd1fd0a4f28419497f9722a3daafe3b4186f6b6457e060405160405180910390a35050565b60008160400160208101906114dc9190611c9b565b8280606001906114ec91906127af565b8460800160208101906114ff9190611db9565b8560a00160208101906115129190611c9b565b8660c001358760e0013560405160200161153297969594939291906124cd565b604051602081830303815290604052805190602001209050919050565b60008061155b836115d1565b90508073ffffffffffffffffffffffffffffffffffffffff166319ab453c306040518263ffffffff1660e01b815260040161159691906125fc565b600060405180830381600087803b1580156115b057600080fd5b505af11580156115c4573d6000803e3d6000fd5b5050505080915050919050565b600080600280546115e190612b10565b80601f016020809104026020016040519081016040528092919081815260200182805461160d90612b10565b801561165a5780601f1061162f5761010080835404028352916020019161165a565b820191906000526020600020905b81548152906001019060200180831161163d57829003601f168201915b505050505090506000308460405160200161167692919061253b565b604051602081830303815290604052805190602001209050808251602084016000f59250823b6116a557600080fd5b5050919050565b82600281019282156116ee579160200282015b828111156116ed5782518290805190602001906116dd92919061174c565b50916020019190600101906116bf565b5b5090506116fb9190611854565b5090565b82805482825590600052602060002090810192821561173b579160200282015b8281111561173a57825182559160200191906001019061171f565b5b5090506117489190611878565b5090565b82805461175890612b10565b90600052602060002090601f01602090048101928261177a57600085556117c1565b82601f1061179357805160ff19168380011785556117c1565b828001600101855582156117c1579182015b828111156117c05782518255916020019190600101906117a5565b5b5090506117ce9190611895565b5090565b50600081816117e19190611814565b5060010160006117f19190611814565b565b50805460008255906000526020600020908101906118119190611878565b50565b50805461182090612b10565b6000825580601f106118325750611851565b601f0160209004906000526020600020908101906118509190611895565b5b50565b5b80821115611874576000818161186b9190611814565b50600101611855565b5090565b5b80821115611891576000816000905550600101611879565b5090565b5b808211156118ae576000816000905550600101611896565b5090565b60006118c56118c084612837565b612806565b905080838252602082019050828560208602820111156118e457600080fd5b60005b8581101561191457816118fa8882611a55565b8452602084019350602083019250506001810190506118e7565b5050509392505050565b600061193161192c84612863565b612806565b9050808260005b85811015611968578135850161194e8882611a6a565b845260208401935060208301925050600181019050611938565b5050509392505050565b600061198561198084612889565b612806565b90508281526020810184848401111561199d57600080fd5b6119a8848285612b01565b509392505050565b6000813590506119bf81612d35565b92915050565b6000815190506119d481612d35565b92915050565b600082601f8301126119eb57600080fd5b81356119fb8482602086016118b2565b91505092915050565b600082601f830112611a1557600080fd5b6002611a2284828561191e565b91505092915050565b600081359050611a3a81612d4c565b92915050565b600081519050611a4f81612d4c565b92915050565b600081359050611a6481612d63565b92915050565b600082601f830112611a7b57600080fd5b8135611a8b848260208601611972565b91505092915050565b60006101a08284031215611aa757600080fd5b81905092915050565b60006101a08284031215611ac357600080fd5b611ace6101a0612806565b90506000611ade848285016119b0565b600083015250602082013567ffffffffffffffff811115611afe57600080fd5b611b0a84828501611a04565b6020830152506040611b1e848285016119b0565b604083015250606082013567ffffffffffffffff811115611b3e57600080fd5b611b4a848285016119da565b6060830152506080611b5e84828501611c86565b60808301525060a0611b72848285016119b0565b60a08301525060c0611b8684828501611c5c565b60c08301525060e0611b9a84828501611c5c565b60e08301525061010082013567ffffffffffffffff811115611bbb57600080fd5b611bc784828501611a6a565b6101008301525061012082013567ffffffffffffffff811115611be957600080fd5b611bf584828501611a6a565b6101208301525061014082013567ffffffffffffffff811115611c1757600080fd5b611c2384828501611a6a565b61014083015250610160611c39848285016119b0565b61016083015250610180611c4f84828501611c5c565b6101808301525092915050565b600081359050611c6b81612d7a565b92915050565b600081519050611c8081612d7a565b92915050565b600081359050611c9581612d91565b92915050565b600060208284031215611cad57600080fd5b6000611cbb848285016119b0565b91505092915050565b600060208284031215611cd657600080fd5b6000611ce4848285016119c5565b91505092915050565b600080600060608486031215611d0257600080fd5b600084013567ffffffffffffffff811115611d1c57600080fd5b611d2886828701611a94565b9350506020611d3986828701611c5c565b9250506040611d4a86828701611a2b565b9150509250925092565b600060208284031215611d6657600080fd5b6000611d7484828501611c5c565b91505092915050565b60008060408385031215611d9057600080fd5b6000611d9e85828601611c71565b9250506020611daf85828601611a40565b9150509250929050565b600060208284031215611dcb57600080fd5b6000611dd984828501611c86565b91505092915050565b6000611dee8383611fa9565b60208301905092915050565b6000611e06838361204e565b905092915050565b611e1781612a63565b82525050565b611e2681612a51565b82525050565b611e3581612a51565b82525050565b611e4c611e4782612a51565b612c0d565b82525050565b6000611e5e8385612943565b93507f07ffffffffffffffffffffffffffffffffffffffffffffffffffffffffffffff831115611e8d57600080fd5b602083029250611e9e838584612b01565b82840190509392505050565b6000611eb582612902565b611ebf8185612932565b9350611eca836128b9565b8060005b83811015611f0257611edf82612cee565b611ee98882611de2565b9750611ef483612918565b925050600181019050611ece565b5085935050505092915050565b6000611f1a8261290d565b611f24818561294e565b935083602082028501611f36856128ce565b8060005b85811015611f7157848403895281611f528582611dfa565b9450611f5d83612925565b925060208a01995050600181019050611f3a565b50829750879550505050505092915050565b611f8c81612a75565b82525050565b611fa3611f9e82612a81565b612c1f565b82525050565b611fb281612aad565b82525050565b611fc9611fc482612aad565b612c29565b82525050565b60008154611fdc81612b10565b611fe68186612959565b94506001821660008114612001576001811461201257612045565b60ff19831686528186019350612045565b61201b856128d8565b60005b8381101561203d5781548189015260018201915060208101905061201e565b838801955050505b50505092915050565b6000815461205b81612b10565b6120658186612964565b945060018216600081146120805760018114612092576120c5565b60ff19831686526020860193506120c5565b61209b856128ed565b60005b838110156120bd5781548189015260018201915060208101905061209e565b808801955050505b50505092915050565b60006120db602683612975565b91507f4f776e61626c653a206e6577206f776e657220697320746865207a65726f206160008301527f64647265737300000000000000000000000000000000000000000000000000006020830152604082019050919050565b6000612141601183612975565b91507f41646472657373206e6f742072656164790000000000000000000000000000006000830152602082019050919050565b6000612181601783612975565b91507f4e4f20515545554544204143434f554e5420464f554e440000000000000000006000830152602082019050919050565b60006121c1601483612975565b91507f4e4f5420454e4f55474820464f525741524445520000000000000000000000006000830152602082019050919050565b6000612201602383612975565b91507f70726f6365737357616c6c65743a2045787465726e616c2063616c6c2066616960008301527f6c656400000000000000000000000000000000000000000000000000000000006020830152604082019050919050565b6000612267602083612975565b91507f4f776e61626c653a2063616c6c6572206973206e6f7420746865206f776e65726000830152602082019050919050565b60006122a7600e83612975565b91507f4455504c4943415445204954454d0000000000000000000000000000000000006000830152602082019050919050565b60006122e7600083612959565b9150600082019050919050565b60006101a08301600080840154905061230c81612b42565b6123196000870182611e1d565b506001840185830360208701526123308382611f0f565b9250506003840154905061234381612b42565b6123506040870182611e1d565b506004840185830360608701526123678382611eaa565b9250506005840154905061237a81612b90565b61238760808701826124a7565b5061239181612baa565b61239e60a0870182611e1d565b50600684015490506123af81612b76565b6123bc60c0870182612472565b50600784015490506123cd81612b76565b6123da60e0870182612472565b50600884018583036101008701526123f2838261204e565b9250506009840185830361012087015261240c838261204e565b925050600a8401858303610140870152612426838261204e565b925050600b840154905061243981612b42565b612447610160870182611e1d565b50600c840154905061245881612b76565b612466610180870182612472565b50819250505092915050565b61247b81612ad7565b82525050565b61248a81612ad7565b82525050565b6124a161249c82612ad7565b612c45565b82525050565b6124b081612ae1565b82525050565b6124c76124c282612ae1565b612c4f565b82525050565b60006124d9828a611e3b565b6014820191506124ea82888a611e52565b91506124f682876124b6565b6001820191506125068286611e3b565b6014820191506125168285612490565b6020820191506125268284612490565b60208201915081905098975050505050505050565b60006125478285611e3b565b6014820191506125578284612490565b6020820191508190509392505050565b60006125738287611f92565b6001820191506125838286611e3b565b6014820191506125938285611fb8565b6020820191506125a38284611fb8565b60208201915081905095945050505050565b60006125c18284611fcf565b915081905092915050565b60006125d7826122da565b9150819050919050565b60006020820190506125f66000830184611e2c565b92915050565b60006020820190506126116000830184611e0e565b92915050565b600060408201905061262c6000830185611e2c565b6126396020830184611e2c565b9392505050565b60006040820190506126556000830185611e2c565b6126626020830184612481565b9392505050565b60006020820190508181036000830152612682816120ce565b9050919050565b600060208201905081810360008301526126a281612134565b9050919050565b600060208201905081810360008301526126c281612174565b9050919050565b600060208201905081810360008301526126e2816121b4565b9050919050565b60006020820190508181036000830152612702816121f4565b9050919050565b600060208201905081810360008301526127228161225a565b9050919050565b600060208201905081810360008301526127428161229a565b9050919050565b6000602082019050818103600083015261276381846122f4565b905092915050565b60006020820190506127806000830184612481565b92915050565b600060408201905061279b6000830185612481565b6127a86020830184611f83565b9392505050565b600080833560016020038436030381126127c857600080fd5b80840192508235915067ffffffffffffffff8211156127e657600080fd5b6020830192506020820236038313156127fe57600080fd5b509250929050565b6000604051905081810181811067ffffffffffffffff8211171561282d5761282c612cbf565b5b8060405250919050565b600067ffffffffffffffff82111561285257612851612cbf565b5b602082029050602081019050919050565b600067ffffffffffffffff82111561287e5761287d612cbf565b5b602082029050919050565b600067ffffffffffffffff8211156128a4576128a3612cbf565b5b601f19601f8301169050602081019050919050565b60008190508160005260206000209050919050565b6000819050919050565b60008190508160005260206000209050919050565b60008190508160005260206000209050919050565b600081549050919050565b600060029050919050565b6000600182019050919050565b6000600182019050919050565b600082825260208201905092915050565b600081905092915050565b600081905092915050565b600081905092915050565b600082825260208201905092915050565b600082825260208201905092915050565b600061299182612ad7565b915061299c83612ad7565b9250827fffffffffffffffffffffffffffffffffffffffffffffffffffffffffffffffff038211156129d1576129d0612c61565b5b828201905092915050565b60006129e782612ad7565b91506129f283612ad7565b925082821015612a0557612a04612c61565b5b828203905092915050565b600073ffffffffffffffffffffffffffffffffffffffff82169050919050565b6000819050919050565b6000819050919050565b600060ff82169050919050565b6000612a5c82612ab7565b9050919050565b6000612a6e82612ab7565b9050919050565b60008115159050919050565b60007fff0000000000000000000000000000000000000000000000000000000000000082169050919050565b6000819050919050565b600073ffffffffffffffffffffffffffffffffffffffff82169050919050565b6000819050919050565b600060ff82169050919050565b6000612afa3683611ab0565b9050919050565b82818337600083830152505050565b60006002820490506001821680612b2857607f821691505b60208210811415612b3c57612b3b612c90565b5b50919050565b6000612b55612b5083612d1b565b612a10565b9050919050565b6000612b6f612b6a83612d1b565b612a30565b9050919050565b6000612b89612b8483612d1b565b612a3a565b9050919050565b6000612ba3612b9e83612d1b565b612a44565b9050919050565b6000612bbd612bb883612d28565b612a10565b9050919050565b6000612bcf82612ad7565b91507fffffffffffffffffffffffffffffffffffffffffffffffffffffffffffffffff821415612c0257612c01612c61565b5b600182019050919050565b6000612c1882612c33565b9050919050565b6000819050919050565b6000819050919050565b6000612c3e82612d0e565b9050919050565b6000819050919050565b6000612c5a82612d01565b9050919050565b7f4e487b7100000000000000000000000000000000000000000000000000000000600052601160045260246000fd5b7f4e487b7100000000000000000000000000000000000000000000000000000000600052602260045260246000fd5b7f4e487b7100000000000000000000000000000000000000000000000000000000600052604160045260246000fd5b6000612cfa8254612b5c565b9050919050565b60008160f81b9050919050565b60008160601b9050919050565b60008160001c9050919050565b60008160081c9050919050565b612d3e81612a51565b8114612d4957600080fd5b50565b612d5581612a75565b8114612d6057600080fd5b50565b612d6c81612aad565b8114612d7757600080fd5b50565b612d8381612ad7565b8114612d8e57600080fd5b50565b612d9a81612ae1565b8114612da557600080fd5b5056fea26469706673582212202110655bc27a8c4b9bc0bb71682c42b4f15043a329817afc41db5636bf18652b64736f6c63430008000033608060405234801561001057600080fd5b506101d8806100206000396000f3fe6080604052600436106100225760003560e01c806319ab453c146100af576100aa565b366100aa5760008054906101000a900473ffffffffffffffffffffffffffffffffffffffff1673ffffffffffffffffffffffffffffffffffffffff16638f70bfa0346040518263ffffffff1660e01b81526004016000604051808303818588803b15801561008f57600080fd5b505af11580156100a3573d6000803e3d6000fd5b5050505050005b600080fd5b3480156100bb57600080fd5b506100d660048036038101906100d19190610130565b6100d8565b005b806000806101000a81548173ffffffffffffffffffffffffffffffffffffffff021916908373ffffffffffffffffffffffffffffffffffffffff16021790555050565b60008135905061012a8161018b565b92915050565b60006020828403121561014257600080fd5b60006101508482850161011b565b91505092915050565b60006101648261016b565b9050919050565b600073ffffffffffffffffffffffffffffffffffffffff82169050919050565b61019481610159565b811461019f57600080fd5b5056fea26469706673582212201d16c691bfe1e19da441601afd17c7c424de2dbeb31359ab35a5859f3bafbf3364736f6c63430008000033",
  "immutableReferences": {},
  "source": "// SPDX-License-Identifier: GPL-3.0-only\n\npragma solidity >=0.7.6;\npragma experimental ABIEncoderV2;\n\nimport \"@openzeppelin/contracts/access/Ownable.sol\";\nimport \"../wallet_factory.sol\";\nimport \"./forwarder.sol\";\n\n/**\n * Relayer contract is responsible for accept queued up new wallet\n * until there are new deposits associated with it via forwarder addresses.\n * Once there is at least one associated address, the application relayer\n * can trigger a processNext() to request a new wallet from the wallet factory.\n *\n * Why on smart contract? We can avoid any security risk of holding onto private keys\n * generated on the application relayer.\n * \n */\ncontract Relayer is Ownable\n{\n    struct WalletState {\n        WalletFactory.WalletConfig config;\n        uint256 deposits;\n        bool created;\n        uint networkFee;\n        bool exists;\n    }\n\n    event WalletCreated(address wallet, address forwarder);\n    event EnqueuedNewWallet(address forwarder);\n    event DepositReceived(address forwarder, uint deposit);\n\n    address forwardImpl;\n    bytes forwardInitCode;\n    uint public totalForwarderCount;\n    uint256 collectedFees;\n\n    // forward address -> Config\n    mapping (address => WalletState) walletQueue;\n    mapping (bytes32 => bool) dedupMap;\n    address[] availableForwarders;\n\n    WalletFactory factory;\n\n    constructor(address factory_, uint initialForwarder) {\n        factory = WalletFactory(factory_);\n        forwardImpl = address(new Forwarder());\n        forwardInitCode = getInitCode(forwardImpl);    \n\n        for(uint i=0;i<initialForwarder;i++){\n            Forwarder f = deployForwarder(totalForwarderCount);\n            availableForwarders.push(address(f));\n            totalForwarderCount++;\n        }    \n    }\n\n    function submitNewWalletQueue(\n        WalletFactory.WalletConfig calldata config, \n        uint networkFee,\n        bool createForwarderIfNeeded\n    ) external onlyOwner() {\n        bytes32 hash = getConfigHash(config);\n        require(dedupMap[hash] == false, \"DUPLICATE ITEM\");\n\n        if (!createForwarderIfNeeded) {\n            require(availableForwarders.length > 0,\"NOT ENOUGH FORWARDER\");\n        } else {\n            if(availableForwarders.length == 0) {\n                Forwarder f = deployForwarder(totalForwarderCount);\n                availableForwarders.push(address(f));\n                totalForwarderCount++;                \n            }\n        }        \n\n        // hash the owner info\n        address lastForwarder = availableForwarders[availableForwarders.length-1];\n        walletQueue[lastForwarder] = WalletState(config, 0, false, networkFee, true);\n        availableForwarders.pop();   \n        dedupMap[hash]=true;\n        \n        emit EnqueuedNewWallet(lastForwarder);\n    }\n\n    function getConfigHash(WalletFactory.WalletConfig calldata config) internal pure returns(bytes32) {\n        return keccak256(abi.encodePacked(config.owner, config.rootHash, config.merkelHeight, config.drainAddr, config.dailyLimit, config.salt));\n    }\n\n    // returns deposits, and ready status\n    function getStatus(address forwarder) external view returns(uint256, bool) {\n        return (walletQueue[forwarder].deposits, walletQueue[forwarder].deposits > walletQueue[forwarder].networkFee);\n    }\n\n    function processWallet(address forwarder) external onlyOwner() {\n        uint256 deposits;\n        bool isReady;\n        (deposits, isReady) = this.getStatus(forwarder);\n        require(isReady, \"Address not ready\");\n\n        WalletState storage state = walletQueue[forwarder];\n        factory.createWallet(state.config);\n\n        // send excess network fees to the new wallet\n        address wallet = factory.computeWalletAddress(state.config.owner, state.config.salt);\n        if (state.deposits > state.networkFee) {\n            (bool success,) = wallet.call{value: (state.deposits - state.networkFee), gas: 100000}(\"\");\n            require(success, \"processWallet: External call failed\");\n\n        }\n\n        delete walletQueue[forwarder];\n        availableForwarders.push(forwarder);\n        emit WalletCreated(wallet, forwarder);\n    }\n\n    function processDeposit() external payable{\n        require(walletQueue[msg.sender].exists, \"NO QUEUED ACCOUNT FOUND\");\n        walletQueue[msg.sender].deposits += msg.value;\n        collectedFees += walletQueue[msg.sender].networkFee;\n        emit DepositReceived(msg.sender, msg.value);\n    }\n\n    function collectFees() external onlyOwner() {\n        payable(owner()).transfer(collectedFees);\n        collectedFees = 0;\n    }\n\n    receive() external payable {\n        emit DepositReceived(msg.sender, msg.value);\n    }\n\n    //\n    // Forwarding Factory\n    //\n\n    function getForwarder(uint salt_) public view returns (address) {\n        bytes32 salt = keccak256(abi.encodePacked(address(this), salt_));\n        bytes32 hash = keccak256(abi.encodePacked(bytes1(0xff), address(this), salt, keccak256(abi.encodePacked(forwardInitCode))));\n        address forwarder = address(uint160(uint256(hash)));\n        return forwarder;\n    }\n\n    function deployForwarder(uint salt_) internal returns (Forwarder) {\n        Forwarder forwarder = _deployForwarder(salt_);\n        forwarder.init(payable(address(this)));\n        return forwarder;\n    }\n\n    function _deployForwarder(uint salt_) internal returns (Forwarder forwarder) {\n        \n        // load the init code to memory\n        bytes memory mInitCode = forwardInitCode;\n\n        // compute the salt from the destination\n        bytes32 salt = keccak256(abi.encodePacked(address(this), salt_));\n\n        assembly {\n            forwarder := create2(0, add(mInitCode, 0x20), mload(mInitCode), salt)\n            if iszero(extcodesize(forwarder)) { revert(0, 0) }\n        }\n    }\n\n    function getInitCode(address _implementation) internal pure returns (bytes memory code) {\n        bytes20 targetBytes = bytes20(_implementation);\n        code = new bytes(55);\n        assembly {\n            mstore(add(code, 0x20), 0x3d602d80600a3d3981f3363d3d373d3d3d363d73000000000000000000000000)\n            mstore(add(code, add(0x20,0x14)), targetBytes)\n            mstore(add(code, add(0x20,0x28)), 0x5af43d82803e903d91602b57fd5bf30000000000000000000000000000000000)\n        }\n    }\n}",
  "sourcePath": "/Users/andreashejj/Development/Harmony/harmony-totp/contracts/_deprecated/relayer.sol",
  "compiler": {
    "name": "solc",
    "version": "0.8.0+commit.c7dfd78e.Emscripten.clang"
  },
  "schemaVersion": "3.4.3",
  "updatedAt": "2021-09-13T08:59:16.638Z",
  "networkType": "ethereum",
  "devdoc": {
    "kind": "dev",
    "methods": {
      "owner()": {
        "details": "Returns the address of the current owner."
      },
      "renounceOwnership()": {
        "details": "Leaves the contract without owner. It will not be possible to call `onlyOwner` functions anymore. Can only be called by the current owner. NOTE: Renouncing ownership will leave the contract without an owner, thereby removing any functionality that is only available to the owner."
      },
      "transferOwnership(address)": {
        "details": "Transfers ownership of the contract to a new account (`newOwner`). Can only be called by the current owner."
      }
    },
    "version": 1
  },
  "userdoc": {
    "kind": "user",
    "methods": {},
    "notice": "Relayer contract is responsible for accept queued up new wallet until there are new deposits associated with it via forwarder addresses. Once there is at least one associated address, the application relayer can trigger a processNext() to request a new wallet from the wallet factory. Why on smart contract? We can avoid any security risk of holding onto private keys generated on the application relayer. ",
    "version": 1
  }
}