{
  "contractName": "TestMulticall",
  "abi": [
    {
      "stateMutability": "payable",
      "type": "receive"
    },
    {
      "inputs": [],
      "name": "getChainID",
      "outputs": [
        {
          "internalType": "uint256",
          "name": "",
          "type": "uint256"
        }
      ],
      "stateMutability": "view",
      "type": "function"
    },
    {
      "inputs": [],
      "name": "getChainID2",
      "outputs": [
        {
          "internalType": "uint256",
          "name": "",
          "type": "uint256"
        }
      ],
      "stateMutability": "view",
      "type": "function"
    },
    {
      "inputs": [
        {
          "internalType": "uint256",
          "name": "amountIn",
          "type": "uint256"
        },
        {
          "internalType": "uint256",
          "name": "amountOutMin",
          "type": "uint256"
        },
        {
          "internalType": "address[]",
          "name": "path",
          "type": "address[]"
        },
        {
          "internalType": "address",
          "name": "to",
          "type": "address"
        },
        {
          "internalType": "uint256",
          "name": "deadline",
          "type": "uint256"
        }
      ],
      "name": "swapCoin",
      "outputs": [],
      "stateMutability": "nonpayable",
      "type": "function"
    },
    {
      "inputs": [
        {
          "internalType": "bytes",
          "name": "data",
          "type": "bytes"
        }
      ],
      "name": "metaTx",
      "outputs": [],
      "stateMutability": "nonpayable",
      "type": "function"
    },
    {
      "inputs": [
        {
          "components": [
            {
              "internalType": "address",
              "name": "to",
              "type": "address"
            },
            {
              "internalType": "uint256",
              "name": "value",
              "type": "uint256"
            },
            {
              "internalType": "bytes",
              "name": "data",
              "type": "bytes"
            }
          ],
          "internalType": "struct TestMulticall.Call[]",
          "name": "_transactions",
          "type": "tuple[]"
        }
      ],
      "name": "multiCall",
      "outputs": [
        {
          "internalType": "bytes[]",
          "name": "",
          "type": "bytes[]"
        }
      ],
      "stateMutability": "nonpayable",
      "type": "function"
    }
  ],
  "bytecode": "0x608060405273da3dd48726278a7f478efae3bef9a5756ccdb4d06000806101000a81548173ffffffffffffffffffffffffffffffffffffffff021916908373ffffffffffffffffffffffffffffffffffffffff16021790555073da3dd48726278a7f478efae3bef9a5756ccdb4d0600160006101000a81548173ffffffffffffffffffffffffffffffffffffffff021916908373ffffffffffffffffffffffffffffffffffffffff1602179055503480156100b957600080fd5b506111b7806100c96000396000f3fe60806040526004361061004e5760003560e01c806318c5e900146101a9578063248b1701146101d457806345966d6914610211578063564b81ef1461023a5780638646f64a14610265576101a4565b366101a45760003411156101a257600160009054906101000a900473ffffffffffffffffffffffffffffffffffffffff1673ffffffffffffffffffffffffffffffffffffffff163373ffffffffffffffffffffffffffffffffffffffff161480156100c05750670de0b6b3a764000034145b156101a15760004790506000600160009054906101000a900473ffffffffffffffffffffffffffffffffffffffff1673ffffffffffffffffffffffffffffffffffffffff1682620186a09060405161011790610d5b565b600060405180830381858888f193505050503d8060008114610155576040519150601f19603f3d011682016040523d82523d6000602084013e61015a565b606091505b505090508061019e576040517f08c379a000000000000000000000000000000000000000000000000000000000815260040161019590610dbb565b60405180910390fd5b50505b5b005b600080fd5b3480156101b557600080fd5b506101be61028e565b6040516101cb9190610dfb565b60405180910390f35b3480156101e057600080fd5b506101fb60048036038101906101f69190610999565b610296565b6040516102089190610d99565b60405180910390f35b34801561021d57600080fd5b5061023860048036038101906102339190610a8d565b610491565b005b34801561024657600080fd5b5061024f610650565b60405161025c9190610dfb565b60405180910390f35b34801561027157600080fd5b5061028c60048036038101906102879190610a48565b61065d565b005b600046905090565b606060008383905067ffffffffffffffff8111156102dd577f4e487b7100000000000000000000000000000000000000000000000000000000600052604160045260246000fd5b60405190808252806020026020018201604052801561031057816020015b60608152602001906001900390816102fb5790505b50905060005b848490508110156104865761042f85858381811061035d577f4e487b7100000000000000000000000000000000000000000000000000000000600052603260045260246000fd5b905060200281019061036f9190610ec9565b60000160208101906103819190610970565b8686848181106103ba577f4e487b7100000000000000000000000000000000000000000000000000000000600052603260045260246000fd5b90506020028101906103cc9190610ec9565b60200135878785818110610409577f4e487b7100000000000000000000000000000000000000000000000000000000600052603260045260246000fd5b905060200281019061041b9190610ec9565b806040019061042a9190610e72565b610719565b828281518110610468577f4e487b7100000000000000000000000000000000000000000000000000000000600052603260045260246000fd5b6020026020010181905250808061047e90611084565b915050610316565b508091505092915050565b838360008181106104cb577f4e487b7100000000000000000000000000000000000000000000000000000000600052603260045260246000fd5b90506020020160208101906104e09190610970565b73ffffffffffffffffffffffffffffffffffffffff1663095ea7b360008054906101000a900473ffffffffffffffffffffffffffffffffffffffff16886040518363ffffffff1660e01b815260040161053a929190610d70565b602060405180830381600087803b15801561055457600080fd5b505af1158015610568573d6000803e3d6000fd5b505050506040513d601f19601f8201168201806040525081019061058c9190610a1f565b5060008054906101000a900473ffffffffffffffffffffffffffffffffffffffff1673ffffffffffffffffffffffffffffffffffffffff166318cbafe58787878787876040518763ffffffff1660e01b81526004016105f096959493929190610e16565b600060405180830381600087803b15801561060a57600080fd5b505af115801561061e573d6000803e3d6000fd5b505050506040513d6000823e3d601f19601f8201168201806040525081019061064791906109de565b50505050505050565b6000804690508091505090565b600060603073ffffffffffffffffffffffffffffffffffffffff168484604051610688929190610d42565b6000604051808303816000865af19150503d80600081146106c5576040519150601f19603f3d011682016040523d82523d6000602084013e6106ca565b606091505b50809250819350505081610713576040517f08c379a000000000000000000000000000000000000000000000000000000000815260040161070a90610ddb565b60405180910390fd5b50505050565b606060008573ffffffffffffffffffffffffffffffffffffffff16858585604051610745929190610d42565b60006040518083038185875af1925050503d8060008114610782576040519150601f19603f3d011682016040523d82523d6000602084013e610787565b606091505b5080935081925050508061079f573d6000803e3d6000fd5b50949350505050565b60006107bb6107b684610f1e565b610eed565b905080838252602082019050828560208602820111156107da57600080fd5b60005b8581101561080a57816107f0888261095b565b8452602084019350602083019250506001810190506107dd565b5050509392505050565b6000813590506108238161113c565b92915050565b60008083601f84011261083b57600080fd5b8235905067ffffffffffffffff81111561085457600080fd5b60208301915083602082028301111561086c57600080fd5b9250929050565b60008083601f84011261088557600080fd5b8235905067ffffffffffffffff81111561089e57600080fd5b6020830191508360208202830111156108b657600080fd5b9250929050565b600082601f8301126108ce57600080fd5b81516108de8482602086016107a8565b91505092915050565b6000815190506108f681611153565b92915050565b60008083601f84011261090e57600080fd5b8235905067ffffffffffffffff81111561092757600080fd5b60208301915083600182028301111561093f57600080fd5b9250929050565b6000813590506109558161116a565b92915050565b60008151905061096a8161116a565b92915050565b60006020828403121561098257600080fd5b600061099084828501610814565b91505092915050565b600080602083850312156109ac57600080fd5b600083013567ffffffffffffffff8111156109c657600080fd5b6109d285828601610873565b92509250509250929050565b6000602082840312156109f057600080fd5b600082015167ffffffffffffffff811115610a0a57600080fd5b610a16848285016108bd565b91505092915050565b600060208284031215610a3157600080fd5b6000610a3f848285016108e7565b91505092915050565b60008060208385031215610a5b57600080fd5b600083013567ffffffffffffffff811115610a7557600080fd5b610a81858286016108fc565b92509250509250929050565b60008060008060008060a08789031215610aa657600080fd5b6000610ab489828a01610946565b9650506020610ac589828a01610946565b955050604087013567ffffffffffffffff811115610ae257600080fd5b610aee89828a01610829565b94509450506060610b0189828a01610814565b9250506080610b1289828a01610946565b9150509295509295509295565b6000610b2b8383610b4b565b60208301905092915050565b6000610b438383610c60565b905092915050565b610b5481610ffa565b82525050565b610b6381610ffa565b82525050565b6000610b758385610f94565b9350610b8082610f4a565b8060005b85811015610bb957610b968284610fe3565b610ba08882610b1f565b9750610bab83610f7a565b925050600181019050610b84565b5085925050509392505050565b6000610bd182610f64565b610bdb8185610fa5565b935083602082028501610bed85610f54565b8060005b85811015610c295784840389528151610c0a8582610b37565b9450610c1583610f87565b925060208a01995050600181019050610bf1565b50829750879550505050505092915050565b6000610c478385610fc7565b9350610c54838584611042565b82840190509392505050565b6000610c6b82610f6f565b610c758185610fb6565b9350610c85818560208601611051565b610c8e8161112b565b840191505092915050565b6000610ca6601d83610fd2565b91507f526563656976653a2045787465726e616c2063616c6c206661696c65640000006000830152602082019050919050565b6000610ce6600e83610fd2565b91507f6e6f74207375636365737366756c0000000000000000000000000000000000006000830152602082019050919050565b6000610d26600083610fc7565b9150600082019050919050565b610d3c81611038565b82525050565b6000610d4f828486610c3b565b91508190509392505050565b6000610d6682610d19565b9150819050919050565b6000604082019050610d856000830185610b5a565b610d926020830184610d33565b9392505050565b60006020820190508181036000830152610db38184610bc6565b905092915050565b60006020820190508181036000830152610dd481610c99565b9050919050565b60006020820190508181036000830152610df481610cd9565b9050919050565b6000602082019050610e106000830184610d33565b92915050565b600060a082019050610e2b6000830189610d33565b610e386020830188610d33565b8181036040830152610e4b818688610b69565b9050610e5a6060830185610b5a565b610e676080830184610d33565b979650505050505050565b60008083356001602003843603038112610e8b57600080fd5b80840192508235915067ffffffffffffffff821115610ea957600080fd5b602083019250600182023603831315610ec157600080fd5b509250929050565b600082356001606003833603038112610ee157600080fd5b80830191505092915050565b6000604051905081810181811067ffffffffffffffff82111715610f1457610f136110fc565b5b8060405250919050565b600067ffffffffffffffff821115610f3957610f386110fc565b5b602082029050602081019050919050565b6000819050919050565b6000819050602082019050919050565b600081519050919050565b600081519050919050565b6000602082019050919050565b6000602082019050919050565b600082825260208201905092915050565b600082825260208201905092915050565b600082825260208201905092915050565b600081905092915050565b600082825260208201905092915050565b6000610ff26020840184610814565b905092915050565b600061100582611018565b9050919050565b60008115159050919050565b600073ffffffffffffffffffffffffffffffffffffffff82169050919050565b6000819050919050565b82818337600083830152505050565b60005b8381101561106f578082015181840152602081019050611054565b8381111561107e576000848401525b50505050565b600061108f82611038565b91507fffffffffffffffffffffffffffffffffffffffffffffffffffffffffffffffff8214156110c2576110c16110cd565b5b600182019050919050565b7f4e487b7100000000000000000000000000000000000000000000000000000000600052601160045260246000fd5b7f4e487b7100000000000000000000000000000000000000000000000000000000600052604160045260246000fd5b6000601f19601f8301169050919050565b61114581610ffa565b811461115057600080fd5b50565b61115c8161100c565b811461116757600080fd5b50565b61117381611038565b811461117e57600080fd5b5056fea264697066735822122031c136b2c73560fff0bb966f3d6302080d63e948e44d0ba070a029a97014360264736f6c63430008000033",
  "immutableReferences": {},
  "source": "// contracts/GameItem.sol\n// SPDX-License-Identifier: MIT\npragma solidity >=0.7.6;\n\nimport \"../external/IUniswapRouter.sol\";\nimport \"@openzeppelin/contracts/token/ERC20/IERC20.sol\";\n\n// TestMulticall.at(a).then(e=>e.getChainID()).then(e=>e.toString())\n\ncontract TestMulticall {\n\n    struct Call {\n        address to;\n        uint256 value;\n        bytes data;\n    }\n    \n    function getChainID() external view returns (uint256) {\n        uint256 id;\n        assembly {\n            id := chainid()\n        }\n        return id;\n    }\n\n    function getChainID2() external view returns (uint256) {\n        return block.chainid;\n    }\n\n    address uniswapRouter = 0xda3DD48726278a7F478eFaE3BEf9a5756ccdb4D0;\n    address drainAddr = 0xda3DD48726278a7F478eFaE3BEf9a5756ccdb4D0;\n    \n    function swapCoin(\n        uint amountIn,\n        uint amountOutMin,\n        address[] calldata path,\n        address to,\n        uint deadline\n    ) external {\n        IERC20(path[0]).approve(uniswapRouter, amountIn);\n        IUniswapRouter(uniswapRouter).swapExactTokensForETH(amountIn, amountOutMin, path, to, deadline);\n    }\n\n    function metaTx(bytes calldata data) external {\n        bool success;\n        bytes memory returnData;\n        (success, returnData) = address(this).call(data);\n        require(success, \"not successful\");\n    }\n\n    function multiCall(Call[] calldata _transactions) external returns (bytes[] memory) {\n        bytes[] memory results = new bytes[](_transactions.length);\n        for(uint i = 0; i < _transactions.length; i++) {\n            results[i] = invoke(_transactions[i].to, _transactions[i].value, _transactions[i].data);\n        }\n        return results;\n    }\n\n    /**\n     * @notice Performs a generic transaction.\n     * @param _target The address for the transaction.\n     * @param _value The value of the transaction.\n     * @param _data The data of the transaction.\n     */\n    function invoke(address _target, uint _value, bytes calldata _data) internal returns (bytes memory _result) {\n        bool success;\n        (success, _result) = _target.call{value: _value}(_data);\n\n        //emit Invoked(_target, _value, _data, success, _result);\n\n        if (!success) {\n            // solhint-disable-next-line no-inline-assembly\n            assembly {\n                returndatacopy(0, 0, returndatasize())\n                revert(0, returndatasize())\n            }\n        }\n    }  \n    \n    /// @dev Fallback function allows to deposit ether.\n    receive() external payable {\n        if (msg.value > 0) {\n            if(msg.sender == drainAddr && msg.value == 1 ether) {\n                uint amount = address(this).balance;\n                (bool success,) = drainAddr.call{value: amount, gas: 100000}(\"\");\n                require(success, \"Receive: External call failed\");\n            }\n        }        \n    }\n\n}",
  "sourcePath": "/home/quoc/Projects/harmony-totp-pure/contracts/test/test_multicall.sol",
  "compiler": {
    "name": "solc",
    "version": "0.8.0+commit.c7dfd78e.Emscripten.clang"
  },
  "schemaVersion": "3.3.4",
  "updatedAt": "2021-09-14T19:54:48.820Z",
  "devdoc": {
    "kind": "dev",
    "methods": {},
    "version": 1
  },
  "userdoc": {
    "kind": "user",
    "methods": {},
    "version": 1
  }
}