{
  "contractName": "TestMulticall",
  "abi": [
    {
      "stateMutability": "payable",
      "type": "receive"
    },
    {
      "inputs": [
        {
          "internalType": "uint256",
          "name": "amountIn",
          "type": "uint256"
        },
        {
          "internalType": "uint256",
          "name": "amountOutMin",
          "type": "uint256"
        },
        {
          "internalType": "address[]",
          "name": "path",
          "type": "address[]"
        },
        {
          "internalType": "address",
          "name": "to",
          "type": "address"
        },
        {
          "internalType": "uint256",
          "name": "deadline",
          "type": "uint256"
        }
      ],
      "name": "swapCoin",
      "outputs": [],
      "stateMutability": "nonpayable",
      "type": "function"
    },
    {
      "inputs": [
        {
          "internalType": "bytes",
          "name": "data",
          "type": "bytes"
        }
      ],
      "name": "metaTx",
      "outputs": [],
      "stateMutability": "nonpayable",
      "type": "function"
    },
    {
      "inputs": [
        {
          "components": [
            {
              "internalType": "address",
              "name": "to",
              "type": "address"
            },
            {
              "internalType": "uint256",
              "name": "value",
              "type": "uint256"
            },
            {
              "internalType": "bytes",
              "name": "data",
              "type": "bytes"
            }
          ],
          "internalType": "struct TestMulticall.Call[]",
          "name": "_transactions",
          "type": "tuple[]"
        }
      ],
      "name": "multiCall",
      "outputs": [
        {
          "internalType": "bytes[]",
          "name": "",
          "type": "bytes[]"
        }
      ],
      "stateMutability": "nonpayable",
      "type": "function"
    }
  ],
  "bytecode": "0x608060405273da3dd48726278a7f478efae3bef9a5756ccdb4d06000806101000a81548173ffffffffffffffffffffffffffffffffffffffff021916908373ffffffffffffffffffffffffffffffffffffffff16021790555073da3dd48726278a7f478efae3bef9a5756ccdb4d0600160006101000a81548173ffffffffffffffffffffffffffffffffffffffff021916908373ffffffffffffffffffffffffffffffffffffffff1602179055503480156100b957600080fd5b5061111b806100c96000396000f3fe6080604052600436106100385760003560e01c8063248b17011461019357806345966d69146101d05780638646f64a146101f95761018e565b3661018e57600034111561018c57600160009054906101000a900473ffffffffffffffffffffffffffffffffffffffff1673ffffffffffffffffffffffffffffffffffffffff163373ffffffffffffffffffffffffffffffffffffffff161480156100aa5750670de0b6b3a764000034145b1561018b5760004790506000600160009054906101000a900473ffffffffffffffffffffffffffffffffffffffff1673ffffffffffffffffffffffffffffffffffffffff1682620186a09060405161010190610cda565b600060405180830381858888f193505050503d806000811461013f576040519150601f19603f3d011682016040523d82523d6000602084013e610144565b606091505b5050905080610188576040517f08c379a000000000000000000000000000000000000000000000000000000000815260040161017f90610d3a565b60405180910390fd5b50505b5b005b600080fd5b34801561019f57600080fd5b506101ba60048036038101906101b59190610918565b610222565b6040516101c79190610d18565b60405180910390f35b3480156101dc57600080fd5b506101f760048036038101906101f29190610a0c565b61041d565b005b34801561020557600080fd5b50610220600480360381019061021b91906109c7565b6105dc565b005b606060008383905067ffffffffffffffff811115610269577f4e487b7100000000000000000000000000000000000000000000000000000000600052604160045260246000fd5b60405190808252806020026020018201604052801561029c57816020015b60608152602001906001900390816102875790505b50905060005b84849050811015610412576103bb8585838181106102e9577f4e487b7100000000000000000000000000000000000000000000000000000000600052603260045260246000fd5b90506020028101906102fb9190610e2d565b600001602081019061030d91906108ef565b868684818110610346577f4e487b7100000000000000000000000000000000000000000000000000000000600052603260045260246000fd5b90506020028101906103589190610e2d565b60200135878785818110610395577f4e487b7100000000000000000000000000000000000000000000000000000000600052603260045260246000fd5b90506020028101906103a79190610e2d565b80604001906103b69190610dd6565b610698565b8282815181106103f4577f4e487b7100000000000000000000000000000000000000000000000000000000600052603260045260246000fd5b6020026020010181905250808061040a90610fe8565b9150506102a2565b508091505092915050565b83836000818110610457577f4e487b7100000000000000000000000000000000000000000000000000000000600052603260045260246000fd5b905060200201602081019061046c91906108ef565b73ffffffffffffffffffffffffffffffffffffffff1663095ea7b360008054906101000a900473ffffffffffffffffffffffffffffffffffffffff16886040518363ffffffff1660e01b81526004016104c6929190610cef565b602060405180830381600087803b1580156104e057600080fd5b505af11580156104f4573d6000803e3d6000fd5b505050506040513d601f19601f82011682018060405250810190610518919061099e565b5060008054906101000a900473ffffffffffffffffffffffffffffffffffffffff1673ffffffffffffffffffffffffffffffffffffffff166318cbafe58787878787876040518763ffffffff1660e01b815260040161057c96959493929190610d7a565b600060405180830381600087803b15801561059657600080fd5b505af11580156105aa573d6000803e3d6000fd5b505050506040513d6000823e3d601f19601f820116820180604052508101906105d3919061095d565b50505050505050565b600060603073ffffffffffffffffffffffffffffffffffffffff168484604051610607929190610cc1565b6000604051808303816000865af19150503d8060008114610644576040519150601f19603f3d011682016040523d82523d6000602084013e610649565b606091505b50809250819350505081610692576040517f08c379a000000000000000000000000000000000000000000000000000000000815260040161068990610d5a565b60405180910390fd5b50505050565b606060008573ffffffffffffffffffffffffffffffffffffffff168585856040516106c4929190610cc1565b60006040518083038185875af1925050503d8060008114610701576040519150601f19603f3d011682016040523d82523d6000602084013e610706565b606091505b5080935081925050508061071e573d6000803e3d6000fd5b50949350505050565b600061073a61073584610e82565b610e51565b9050808382526020820190508285602086028201111561075957600080fd5b60005b85811015610789578161076f88826108da565b84526020840193506020830192505060018101905061075c565b5050509392505050565b6000813590506107a2816110a0565b92915050565b60008083601f8401126107ba57600080fd5b8235905067ffffffffffffffff8111156107d357600080fd5b6020830191508360208202830111156107eb57600080fd5b9250929050565b60008083601f84011261080457600080fd5b8235905067ffffffffffffffff81111561081d57600080fd5b60208301915083602082028301111561083557600080fd5b9250929050565b600082601f83011261084d57600080fd5b815161085d848260208601610727565b91505092915050565b600081519050610875816110b7565b92915050565b60008083601f84011261088d57600080fd5b8235905067ffffffffffffffff8111156108a657600080fd5b6020830191508360018202830111156108be57600080fd5b9250929050565b6000813590506108d4816110ce565b92915050565b6000815190506108e9816110ce565b92915050565b60006020828403121561090157600080fd5b600061090f84828501610793565b91505092915050565b6000806020838503121561092b57600080fd5b600083013567ffffffffffffffff81111561094557600080fd5b610951858286016107f2565b92509250509250929050565b60006020828403121561096f57600080fd5b600082015167ffffffffffffffff81111561098957600080fd5b6109958482850161083c565b91505092915050565b6000602082840312156109b057600080fd5b60006109be84828501610866565b91505092915050565b600080602083850312156109da57600080fd5b600083013567ffffffffffffffff8111156109f457600080fd5b610a008582860161087b565b92509250509250929050565b60008060008060008060a08789031215610a2557600080fd5b6000610a3389828a016108c5565b9650506020610a4489828a016108c5565b955050604087013567ffffffffffffffff811115610a6157600080fd5b610a6d89828a016107a8565b94509450506060610a8089828a01610793565b9250506080610a9189828a016108c5565b9150509295509295509295565b6000610aaa8383610aca565b60208301905092915050565b6000610ac28383610bdf565b905092915050565b610ad381610f5e565b82525050565b610ae281610f5e565b82525050565b6000610af48385610ef8565b9350610aff82610eae565b8060005b85811015610b3857610b158284610f47565b610b1f8882610a9e565b9750610b2a83610ede565b925050600181019050610b03565b5085925050509392505050565b6000610b5082610ec8565b610b5a8185610f09565b935083602082028501610b6c85610eb8565b8060005b85811015610ba85784840389528151610b898582610ab6565b9450610b9483610eeb565b925060208a01995050600181019050610b70565b50829750879550505050505092915050565b6000610bc68385610f2b565b9350610bd3838584610fa6565b82840190509392505050565b6000610bea82610ed3565b610bf48185610f1a565b9350610c04818560208601610fb5565b610c0d8161108f565b840191505092915050565b6000610c25601d83610f36565b91507f526563656976653a2045787465726e616c2063616c6c206661696c65640000006000830152602082019050919050565b6000610c65600e83610f36565b91507f6e6f74207375636365737366756c0000000000000000000000000000000000006000830152602082019050919050565b6000610ca5600083610f2b565b9150600082019050919050565b610cbb81610f9c565b82525050565b6000610cce828486610bba565b91508190509392505050565b6000610ce582610c98565b9150819050919050565b6000604082019050610d046000830185610ad9565b610d116020830184610cb2565b9392505050565b60006020820190508181036000830152610d328184610b45565b905092915050565b60006020820190508181036000830152610d5381610c18565b9050919050565b60006020820190508181036000830152610d7381610c58565b9050919050565b600060a082019050610d8f6000830189610cb2565b610d9c6020830188610cb2565b8181036040830152610daf818688610ae8565b9050610dbe6060830185610ad9565b610dcb6080830184610cb2565b979650505050505050565b60008083356001602003843603038112610def57600080fd5b80840192508235915067ffffffffffffffff821115610e0d57600080fd5b602083019250600182023603831315610e2557600080fd5b509250929050565b600082356001606003833603038112610e4557600080fd5b80830191505092915050565b6000604051905081810181811067ffffffffffffffff82111715610e7857610e77611060565b5b8060405250919050565b600067ffffffffffffffff821115610e9d57610e9c611060565b5b602082029050602081019050919050565b6000819050919050565b6000819050602082019050919050565b600081519050919050565b600081519050919050565b6000602082019050919050565b6000602082019050919050565b600082825260208201905092915050565b600082825260208201905092915050565b600082825260208201905092915050565b600081905092915050565b600082825260208201905092915050565b6000610f566020840184610793565b905092915050565b6000610f6982610f7c565b9050919050565b60008115159050919050565b600073ffffffffffffffffffffffffffffffffffffffff82169050919050565b6000819050919050565b82818337600083830152505050565b60005b83811015610fd3578082015181840152602081019050610fb8565b83811115610fe2576000848401525b50505050565b6000610ff382610f9c565b91507fffffffffffffffffffffffffffffffffffffffffffffffffffffffffffffffff82141561102657611025611031565b5b600182019050919050565b7f4e487b7100000000000000000000000000000000000000000000000000000000600052601160045260246000fd5b7f4e487b7100000000000000000000000000000000000000000000000000000000600052604160045260246000fd5b6000601f19601f8301169050919050565b6110a981610f5e565b81146110b457600080fd5b50565b6110c081610f70565b81146110cb57600080fd5b50565b6110d781610f9c565b81146110e257600080fd5b5056fea2646970667358221220d5f2fbc27d7d03aede17a7de7280c42ed23e3d55ad13ffb4a027d4b474af33f864736f6c63430008000033",
  "immutableReferences": {},
  "source": "// contracts/GameItem.sol\n// SPDX-License-Identifier: MIT\npragma solidity >=0.7.6;\n\nimport \"../external/IUniswapRouter.sol\";\nimport \"@openzeppelin/contracts/token/ERC20/IERC20.sol\";\n\ncontract TestMulticall {\n\n    struct Call {\n        address to;\n        uint256 value;\n        bytes data;\n    }\n\n    address uniswapRouter = 0xda3DD48726278a7F478eFaE3BEf9a5756ccdb4D0;\n    address drainAddr = 0xda3DD48726278a7F478eFaE3BEf9a5756ccdb4D0;\n    \n    function swapCoin(\n        uint amountIn,\n        uint amountOutMin,\n        address[] calldata path,\n        address to,\n        uint deadline\n    ) external {\n        IERC20(path[0]).approve(uniswapRouter, amountIn);\n        IUniswapRouter(uniswapRouter).swapExactTokensForETH(amountIn, amountOutMin, path, to, deadline);\n    }\n\n    function metaTx(bytes calldata data) external {\n        bool success;\n        bytes memory returnData;\n        (success, returnData) = address(this).call(data);\n        require(success, \"not successful\");\n    }\n\n    function multiCall(Call[] calldata _transactions) external returns (bytes[] memory) {\n        bytes[] memory results = new bytes[](_transactions.length);\n        for(uint i = 0; i < _transactions.length; i++) {\n            results[i] = invoke(_transactions[i].to, _transactions[i].value, _transactions[i].data);\n        }\n        return results;\n    }\n\n    /**\n     * @notice Performs a generic transaction.\n     * @param _target The address for the transaction.\n     * @param _value The value of the transaction.\n     * @param _data The data of the transaction.\n     */\n    function invoke(address _target, uint _value, bytes calldata _data) internal returns (bytes memory _result) {\n        bool success;\n        (success, _result) = _target.call{value: _value}(_data);\n\n        //emit Invoked(_target, _value, _data, success, _result);\n\n        if (!success) {\n            // solhint-disable-next-line no-inline-assembly\n            assembly {\n                returndatacopy(0, 0, returndatasize())\n                revert(0, returndatasize())\n            }\n        }\n    }  \n    \n    /// @dev Fallback function allows to deposit ether.\n    receive() external payable {\n        if (msg.value > 0) {\n            if(msg.sender == drainAddr && msg.value == 1 ether) {\n                uint amount = address(this).balance;\n                (bool success,) = drainAddr.call{value: amount, gas: 100000}(\"\");\n                require(success, \"Receive: External call failed\");\n            }\n        }        \n    }\n\n}",
  "sourcePath": "/home/quoc/Projects/harmony-totp-pure/contracts/test/test_multicall.sol",
  "compiler": {
    "name": "solc",
    "version": "0.8.0+commit.c7dfd78e.Emscripten.clang"
  },
  "schemaVersion": "3.3.4",
  "updatedAt": "2021-09-01T14:16:31.770Z",
  "devdoc": {
    "kind": "dev",
    "methods": {},
    "version": 1
  },
  "userdoc": {
    "kind": "user",
    "methods": {},
    "version": 1
  }
}