{
  "contractName": "TOTPWallet",
  "abi": [
    {
      "inputs": [],
      "stateMutability": "nonpayable",
      "type": "constructor"
    },
    {
      "anonymous": false,
      "inputs": [
        {
          "indexed": false,
          "internalType": "bytes16",
          "name": "data",
          "type": "bytes16"
        }
      ],
      "name": "DebugEvent",
      "type": "event"
    },
    {
      "anonymous": false,
      "inputs": [
        {
          "indexed": false,
          "internalType": "uint256",
          "name": "data",
          "type": "uint256"
        }
      ],
      "name": "DebugEvent256",
      "type": "event"
    },
    {
      "anonymous": false,
      "inputs": [
        {
          "indexed": false,
          "internalType": "bytes32",
          "name": "data",
          "type": "bytes32"
        }
      ],
      "name": "DebugEvent32",
      "type": "event"
    },
    {
      "anonymous": false,
      "inputs": [
        {
          "indexed": false,
          "internalType": "address",
          "name": "data",
          "type": "address"
        }
      ],
      "name": "DebugEventA",
      "type": "event"
    },
    {
      "anonymous": false,
      "inputs": [
        {
          "indexed": false,
          "internalType": "uint32",
          "name": "data",
          "type": "uint32"
        }
      ],
      "name": "DebugEventN",
      "type": "event"
    },
    {
      "anonymous": false,
      "inputs": [
        {
          "indexed": true,
          "internalType": "address",
          "name": "sender",
          "type": "address"
        },
        {
          "indexed": false,
          "internalType": "uint256",
          "name": "value",
          "type": "uint256"
        }
      ],
      "name": "Deposit",
      "type": "event"
    },
    {
      "anonymous": false,
      "inputs": [
        {
          "indexed": true,
          "internalType": "address",
          "name": "target",
          "type": "address"
        },
        {
          "indexed": true,
          "internalType": "uint256",
          "name": "value",
          "type": "uint256"
        },
        {
          "indexed": false,
          "internalType": "bytes",
          "name": "data",
          "type": "bytes"
        },
        {
          "indexed": false,
          "internalType": "bool",
          "name": "success",
          "type": "bool"
        },
        {
          "indexed": false,
          "internalType": "bytes",
          "name": "returnData",
          "type": "bytes"
        }
      ],
      "name": "Invoked",
      "type": "event"
    },
    {
      "anonymous": false,
      "inputs": [
        {
          "indexed": true,
          "internalType": "bool",
          "name": "success",
          "type": "bool"
        },
        {
          "indexed": false,
          "internalType": "bytes",
          "name": "returnData",
          "type": "bytes"
        },
        {
          "indexed": false,
          "internalType": "bytes32",
          "name": "signedHash",
          "type": "bytes32"
        }
      ],
      "name": "TransactionExecuted",
      "type": "event"
    },
    {
      "anonymous": false,
      "inputs": [
        {
          "indexed": false,
          "internalType": "address",
          "name": "to",
          "type": "address"
        },
        {
          "indexed": false,
          "internalType": "uint256",
          "name": "amount",
          "type": "uint256"
        }
      ],
      "name": "WalletTransfer",
      "type": "event"
    },
    {
      "anonymous": false,
      "inputs": [
        {
          "indexed": false,
          "internalType": "address",
          "name": "newImpl",
          "type": "address"
        }
      ],
      "name": "WalletUpgraded",
      "type": "event"
    },
    {
      "inputs": [],
      "name": "wallet",
      "outputs": [
        {
          "internalType": "address",
          "name": "owner",
          "type": "address"
        },
        {
          "internalType": "bool",
          "name": "locked",
          "type": "bool"
        },
        {
          "internalType": "uint8",
          "name": "merkelHeight",
          "type": "uint8"
        },
        {
          "internalType": "uint256",
          "name": "counter",
          "type": "uint256"
        },
        {
          "internalType": "address payable",
          "name": "drainAddr",
          "type": "address"
        },
        {
          "internalType": "uint256",
          "name": "dailyLimit",
          "type": "uint256"
        },
        {
          "internalType": "uint256",
          "name": "lastDay",
          "type": "uint256"
        },
        {
          "internalType": "uint256",
          "name": "spentToday",
          "type": "uint256"
        },
        {
          "internalType": "string",
          "name": "hashStorageID",
          "type": "string"
        },
        {
          "components": [
            {
              "internalType": "address",
              "name": "newOwner",
              "type": "address"
            },
            {
              "internalType": "uint256",
              "name": "expiration",
              "type": "uint256"
            }
          ],
          "internalType": "struct Core.RecoveryInfo",
          "name": "pendingRecovery",
          "type": "tuple"
        },
        {
          "internalType": "address",
          "name": "resolver",
          "type": "address"
        }
      ],
      "stateMutability": "view",
      "type": "function"
    },
    {
      "stateMutability": "payable",
      "type": "receive"
    },
    {
      "inputs": [
        {
          "internalType": "address",
          "name": "resolver_",
          "type": "address"
        },
        {
          "internalType": "string[2]",
          "name": "domain_",
          "type": "string[2]"
        },
        {
          "internalType": "address",
          "name": "owner_",
          "type": "address"
        },
        {
          "internalType": "bytes32[]",
          "name": "rootHash_",
          "type": "bytes32[]"
        },
        {
          "internalType": "uint8",
          "name": "merkelHeight_",
          "type": "uint8"
        },
        {
          "internalType": "address payable",
          "name": "drainAddr_",
          "type": "address"
        },
        {
          "internalType": "uint256",
          "name": "dailyLimit_",
          "type": "uint256"
        },
        {
          "internalType": "address",
          "name": "feeRecipient",
          "type": "address"
        },
        {
          "internalType": "uint256",
          "name": "feeAmount",
          "type": "uint256"
        }
      ],
      "name": "initialize",
      "outputs": [],
      "stateMutability": "nonpayable",
      "type": "function"
    },
    {
      "inputs": [
        {
          "internalType": "string",
          "name": "subdomain",
          "type": "string"
        },
        {
          "internalType": "string",
          "name": "domain",
          "type": "string"
        },
        {
          "internalType": "uint256",
          "name": "duration",
          "type": "uint256"
        }
      ],
      "name": "registerENS",
      "outputs": [],
      "stateMutability": "nonpayable",
      "type": "function"
    },
    {
      "inputs": [
        {
          "internalType": "bytes",
          "name": "_data",
          "type": "bytes"
        }
      ],
      "name": "getRequiredSignatures",
      "outputs": [
        {
          "internalType": "uint8",
          "name": "",
          "type": "uint8"
        },
        {
          "internalType": "enum Core.OwnerSignature",
          "name": "",
          "type": "uint8"
        }
      ],
      "stateMutability": "view",
      "type": "function"
    },
    {
      "inputs": [
        {
          "internalType": "bytes",
          "name": "data",
          "type": "bytes"
        },
        {
          "internalType": "bytes",
          "name": "signatures",
          "type": "bytes"
        },
        {
          "internalType": "uint256",
          "name": "nonce",
          "type": "uint256"
        },
        {
          "internalType": "uint256",
          "name": "gasPrice",
          "type": "uint256"
        },
        {
          "internalType": "uint256",
          "name": "gasLimit",
          "type": "uint256"
        },
        {
          "internalType": "address",
          "name": "",
          "type": "address"
        },
        {
          "internalType": "address payable",
          "name": "refundAddress",
          "type": "address"
        }
      ],
      "name": "executeMetaTx",
      "outputs": [],
      "stateMutability": "nonpayable",
      "type": "function"
    },
    {
      "inputs": [
        {
          "components": [
            {
              "internalType": "address",
              "name": "to",
              "type": "address"
            },
            {
              "internalType": "uint256",
              "name": "value",
              "type": "uint256"
            },
            {
              "internalType": "bytes",
              "name": "data",
              "type": "bytes"
            }
          ],
          "internalType": "struct TOTPWallet.Call[]",
          "name": "_transactions",
          "type": "tuple[]"
        }
      ],
      "name": "multiCall",
      "outputs": [
        {
          "internalType": "bytes[]",
          "name": "",
          "type": "bytes[]"
        }
      ],
      "stateMutability": "nonpayable",
      "type": "function"
    },
    {
      "inputs": [
        {
          "internalType": "address payable",
          "name": "to",
          "type": "address"
        },
        {
          "internalType": "uint256",
          "name": "amount",
          "type": "uint256"
        }
      ],
      "name": "makeTransfer",
      "outputs": [],
      "stateMutability": "nonpayable",
      "type": "function"
    },
    {
      "inputs": [],
      "name": "getOwner",
      "outputs": [
        {
          "internalType": "address",
          "name": "",
          "type": "address"
        }
      ],
      "stateMutability": "view",
      "type": "function"
    },
    {
      "inputs": [],
      "name": "getCounter",
      "outputs": [
        {
          "internalType": "uint256",
          "name": "",
          "type": "uint256"
        }
      ],
      "stateMutability": "view",
      "type": "function"
    },
    {
      "inputs": [
        {
          "internalType": "string",
          "name": "id",
          "type": "string"
        }
      ],
      "name": "setHashStorageId",
      "outputs": [],
      "stateMutability": "nonpayable",
      "type": "function"
    },
    {
      "inputs": [],
      "name": "getHashStorageId",
      "outputs": [
        {
          "internalType": "string",
          "name": "",
          "type": "string"
        }
      ],
      "stateMutability": "view",
      "type": "function"
    },
    {
      "inputs": [],
      "name": "getRootHashes",
      "outputs": [
        {
          "internalType": "bytes32[]",
          "name": "",
          "type": "bytes32[]"
        }
      ],
      "stateMutability": "view",
      "type": "function"
    },
    {
      "inputs": [
        {
          "internalType": "address payable",
          "name": "addr",
          "type": "address"
        }
      ],
      "name": "setDrainAddress",
      "outputs": [],
      "stateMutability": "nonpayable",
      "type": "function"
    },
    {
      "inputs": [
        {
          "internalType": "uint256",
          "name": "amount",
          "type": "uint256"
        }
      ],
      "name": "setDailyLimit",
      "outputs": [],
      "stateMutability": "nonpayable",
      "type": "function"
    },
    {
      "inputs": [
        {
          "internalType": "address",
          "name": "guardian",
          "type": "address"
        }
      ],
      "name": "addGuardian",
      "outputs": [],
      "stateMutability": "nonpayable",
      "type": "function"
    },
    {
      "inputs": [
        {
          "internalType": "address",
          "name": "guardian",
          "type": "address"
        }
      ],
      "name": "revokeGuardian",
      "outputs": [],
      "stateMutability": "nonpayable",
      "type": "function"
    },
    {
      "inputs": [
        {
          "internalType": "address",
          "name": "addr",
          "type": "address"
        }
      ],
      "name": "isGuardian",
      "outputs": [
        {
          "internalType": "bool",
          "name": "",
          "type": "bool"
        }
      ],
      "stateMutability": "view",
      "type": "function"
    },
    {
      "inputs": [],
      "name": "getGuardians",
      "outputs": [
        {
          "internalType": "address[]",
          "name": "",
          "type": "address[]"
        }
      ],
      "stateMutability": "view",
      "type": "function"
    },
    {
      "inputs": [
        {
          "internalType": "address",
          "name": "newOwner_",
          "type": "address"
        }
      ],
      "name": "startRecoverGuardianOnly",
      "outputs": [],
      "stateMutability": "nonpayable",
      "type": "function"
    },
    {
      "inputs": [
        {
          "internalType": "bytes32",
          "name": "commitHash",
          "type": "bytes32"
        }
      ],
      "name": "startRecoverCommit",
      "outputs": [],
      "stateMutability": "nonpayable",
      "type": "function"
    },
    {
      "inputs": [
        {
          "internalType": "address",
          "name": "newOwner",
          "type": "address"
        },
        {
          "internalType": "bytes32[]",
          "name": "confirmMaterial",
          "type": "bytes32[]"
        }
      ],
      "name": "startRecoveryReveal",
      "outputs": [],
      "stateMutability": "nonpayable",
      "type": "function"
    },
    {
      "inputs": [],
      "name": "isRecovering",
      "outputs": [
        {
          "internalType": "bool",
          "name": "",
          "type": "bool"
        }
      ],
      "stateMutability": "view",
      "type": "function"
    },
    {
      "inputs": [],
      "name": "cancelRecovery",
      "outputs": [],
      "stateMutability": "nonpayable",
      "type": "function"
    },
    {
      "inputs": [],
      "name": "getRecovery",
      "outputs": [
        {
          "internalType": "address",
          "name": "",
          "type": "address"
        },
        {
          "internalType": "uint256",
          "name": "",
          "type": "uint256"
        }
      ],
      "stateMutability": "view",
      "type": "function"
    },
    {
      "inputs": [],
      "name": "finalizeRecovery",
      "outputs": [],
      "stateMutability": "nonpayable",
      "type": "function"
    },
    {
      "inputs": [
        {
          "internalType": "address",
          "name": "newMasterCopy",
          "type": "address"
        }
      ],
      "name": "upgradeMasterCopy",
      "outputs": [],
      "stateMutability": "nonpayable",
      "type": "function"
    },
    {
      "inputs": [],
      "name": "getMasterCopy",
      "outputs": [
        {
          "internalType": "address",
          "name": "",
          "type": "address"
        }
      ],
      "stateMutability": "view",
      "type": "function"
    },
    {
      "inputs": [
        {
          "internalType": "address",
          "name": "",
          "type": "address"
        },
        {
          "internalType": "address",
          "name": "",
          "type": "address"
        },
        {
          "internalType": "uint256",
          "name": "",
          "type": "uint256"
        },
        {
          "internalType": "uint256",
          "name": "",
          "type": "uint256"
        },
        {
          "internalType": "bytes",
          "name": "",
          "type": "bytes"
        }
      ],
      "name": "onERC1155Received",
      "outputs": [
        {
          "internalType": "bytes4",
          "name": "",
          "type": "bytes4"
        }
      ],
      "stateMutability": "pure",
      "type": "function"
    },
    {
      "inputs": [
        {
          "internalType": "address",
          "name": "operator",
          "type": "address"
        },
        {
          "internalType": "address",
          "name": "from",
          "type": "address"
        },
        {
          "internalType": "uint256[]",
          "name": "ids",
          "type": "uint256[]"
        },
        {
          "internalType": "uint256[]",
          "name": "values",
          "type": "uint256[]"
        },
        {
          "internalType": "bytes",
          "name": "data",
          "type": "bytes"
        }
      ],
      "name": "onERC1155BatchReceived",
      "outputs": [
        {
          "internalType": "bytes4",
          "name": "",
          "type": "bytes4"
        }
      ],
      "stateMutability": "view",
      "type": "function"
    },
    {
      "inputs": [
        {
          "internalType": "bytes4",
          "name": "interfaceID",
          "type": "bytes4"
        }
      ],
      "name": "supportsInterface",
      "outputs": [
        {
          "internalType": "bool",
          "name": "",
          "type": "bool"
        }
      ],
      "stateMutability": "pure",
      "type": "function"
    },
    {
      "inputs": [
        {
          "internalType": "address",
          "name": "",
          "type": "address"
        },
        {
          "internalType": "address",
          "name": "",
          "type": "address"
        },
        {
          "internalType": "uint256",
          "name": "",
          "type": "uint256"
        },
        {
          "internalType": "bytes",
          "name": "",
          "type": "bytes"
        }
      ],
      "name": "onERC721Received",
      "outputs": [
        {
          "internalType": "bytes4",
          "name": "",
          "type": "bytes4"
        }
      ],
      "stateMutability": "pure",
      "type": "function"
    }
  ],
  "bytecode": "0x608060405234801561001057600080fd5b506001601060006101000a81548160ff02191690831515021790555061572f806200003c6000396000f3fe6080604052600436106101dc5760003560e01c80638ada066e11610102578063bc197c8111610095578063de03371511610064578063de03371514610862578063e2ccb3051461088b578063ef24c736146108a2578063f23a6e61146108cb57610386565b8063bc197c81146107a8578063c832fe5f146107e5578063cabd82c514610810578063d50733221461083957610386565b8063abea22cc116100d1578063abea22cc14610704578063af648c3d1461072d578063b20d30a914610756578063b6c384321461077f57610386565b80638ada066e1461065c57806391ac2788146106875780639cb8332f146106b2578063a526d83b146106db57610386565b8063248b17011161017a578063706f765811610149578063706f76581461059e57806375a3f50d146105ca57806379d3d98c14610608578063893d20e81461063157610386565b8063248b1701146104da5780632f23a3ab14610517578063521eb27314610540578063693b60a21461057557610386565b80630ba234d6116101b65780630ba234d61461041e5780630c68ba2114610435578063150b7a02146104725780631f13938d146104af57610386565b806301ffc9a71461038b57806304e80e90146103c85780630665f04b146103f357610386565b3661038657600034111561038457600160040160009054906101000a900473ffffffffffffffffffffffffffffffffffffffff1673ffffffffffffffffffffffffffffffffffffffff163373ffffffffffffffffffffffffffffffffffffffff161480156102515750670de0b6b3a764000034145b156103355760004790506000600160040160009054906101000a900473ffffffffffffffffffffffffffffffffffffffff1673ffffffffffffffffffffffffffffffffffffffff1682620186a0906040516102ab90614906565b600060405180830381858888f193505050503d80600081146102e9576040519150601f19603f3d011682016040523d82523d6000602084013e6102ee565b606091505b5050905080610332576040517f08c379a000000000000000000000000000000000000000000000000000000000815260040161032990614d56565b60405180910390fd5b50505b3373ffffffffffffffffffffffffffffffffffffffff167fe1fffcc4923d04b559f4d29a8bfc6cda04eb5b0d3c460751c2402c5c5cc9109c3460405161037b9190614f81565b60405180910390a25b005b600080fd5b34801561039757600080fd5b506103b260048036038101906103ad9190613bd8565b610908565b6040516103bf9190614b1e565b60405180910390f35b3480156103d457600080fd5b506103dd6109f7565b6040516103ea919061491b565b60405180910390f35b3480156103ff57600080fd5b50610408610a20565b6040516104159190614a96565b60405180910390f35b34801561042a57600080fd5b50610433610ab1565b005b34801561044157600080fd5b5061045c60048036038101906104579190613759565b610c1e565b6040516104699190614b1e565b60405180910390f35b34801561047e57600080fd5b50610499600480360381019061049491906138b3565b610cb3565b6040516104a69190614b39565b60405180910390f35b3480156104bb57600080fd5b506104c4610cc8565b6040516104d19190614c14565b60405180910390f35b3480156104e657600080fd5b5061050160048036038101906104fc9190613b18565b610d5d565b60405161050e9190614afc565b60405180910390f35b34801561052357600080fd5b5061053e60048036038101906105399190613d8a565b61103d565b005b34801561054c57600080fd5b5061055561119d565b60405161056c9b9a999897969594939291906149bb565b60405180910390f35b34801561058157600080fd5b5061059c60048036038101906105979190613c6f565b611351565b005b3480156105aa57600080fd5b506105b36115de565b6040516105c1929190614a6d565b60405180910390f35b3480156105d657600080fd5b506105f160048036038101906105ec9190613c2a565b61161b565b6040516105ff929190614fc5565b60405180910390f35b34801561061457600080fd5b5061062f600480360381019061062a9190613d45565b611abf565b005b34801561063d57600080fd5b50610646611bbd565b604051610653919061491b565b60405180910390f35b34801561066857600080fd5b50610671611bea565b60405161067e9190614f81565b60405180910390f35b34801561069357600080fd5b5061069c611bf7565b6040516106a99190614b1e565b60405180910390f35b3480156106be57600080fd5b506106d960048036038101906106d49190613b86565b611c0a565b005b3480156106e757600080fd5b5061070260048036038101906106fd9190613759565b611ca9565b005b34801561071057600080fd5b5061072b600480360381019061072691906137ab565b611dfd565b005b34801561073957600080fd5b50610754600480360381019061074f9190613759565b612084565b005b34801561076257600080fd5b5061077d60048036038101906107789190613e13565b6121d8565b005b34801561078b57600080fd5b506107a660048036038101906107a19190613782565b6122ca565b005b3480156107b457600080fd5b506107cf60048036038101906107ca91906137e7565b6123f6565b6040516107dc9190614b39565b60405180910390f35b3480156107f157600080fd5b506107fa612557565b6040516108079190614ada565b60405180910390f35b34801561081c57600080fd5b50610837600480360381019061083291906139c5565b6125b1565b005b34801561084557600080fd5b50610860600480360381019061085b9190613a1d565b612aa3565b005b34801561086e57600080fd5b5061088960048036038101906108849190613759565b612ecc565b005b34801561089757600080fd5b506108a0612fb4565b005b3480156108ae57600080fd5b506108c960048036038101906108c49190613759565b613020565b005b3480156108d757600080fd5b506108f260048036038101906108ed9190613933565b6130fd565b6040516108ff9190614b39565b60405180910390f35b60006301ffc9a760e01b7bffffffffffffffffffffffffffffffffffffffffffffffffffffffff1916827bffffffffffffffffffffffffffffffffffffffffffffffffffffffff191614806109a1575063f23a6e6160e01b7bffffffffffffffffffffffffffffffffffffffffffffffffffffffff1916827bffffffffffffffffffffffffffffffffffffffffffffffffffffffff1916145b806109f0575063150b7a0260e01b7bffffffffffffffffffffffffffffffffffffffffffffffffffffffff1916827bffffffffffffffffffffffffffffffffffffffffffffffffffffffff1916145b9050919050565b60008060009054906101000a900473ffffffffffffffffffffffffffffffffffffffff16905090565b60606001600501805480602002602001604051908101604052809291908181526020018280548015610aa757602002820191906000526020600020905b8160009054906101000a900473ffffffffffffffffffffffffffffffffffffffff1673ffffffffffffffffffffffffffffffffffffffff1681526020019060010190808311610a5d575b5050505050905090565b3073ffffffffffffffffffffffffffffffffffffffff163373ffffffffffffffffffffffffffffffffffffffff161480610b575750600160000160009054906101000a900473ffffffffffffffffffffffffffffffffffffffff1673ffffffffffffffffffffffffffffffffffffffff163373ffffffffffffffffffffffffffffffffffffffff16148015610b565750600160000160149054906101000a900460ff16155b5b610b96576040517f08c379a0000000000000000000000000000000000000000000000000000000008152600401610b8d90614d96565b60405180910390fd5b6040518060400160405280600073ffffffffffffffffffffffffffffffffffffffff16815260200160008152506001600b0160008201518160000160006101000a81548173ffffffffffffffffffffffffffffffffffffffff021916908373ffffffffffffffffffffffffffffffffffffffff16021790555060208201518160010155905050565b6000600173__Guardians_____________________________63121c95629091846040518363ffffffff1660e01b8152600401610c5c929190614e71565b60206040518083038186803b158015610c7457600080fd5b505af4158015610c88573d6000803e3d6000fd5b505050506040513d601f19601f82011682018060405250810190610cac9190613b5d565b9050919050565b600063150b7a0260e01b905095945050505050565b60606001600a018054610cda9061543f565b80601f0160208091040260200160405190810160405280929190818152602001828054610d069061543f565b8015610d535780601f10610d2857610100808354040283529160200191610d53565b820191906000526020600020905b815481529060010190602001808311610d3657829003601f168201915b5050505050905090565b60603073ffffffffffffffffffffffffffffffffffffffff163373ffffffffffffffffffffffffffffffffffffffff161480610e055750600160000160009054906101000a900473ffffffffffffffffffffffffffffffffffffffff1673ffffffffffffffffffffffffffffffffffffffff163373ffffffffffffffffffffffffffffffffffffffff16148015610e045750600160000160149054906101000a900460ff16155b5b610e44576040517f08c379a0000000000000000000000000000000000000000000000000000000008152600401610e3b90614d96565b60405180910390fd5b60008383905067ffffffffffffffff811115610e89577f4e487b7100000000000000000000000000000000000000000000000000000000600052604160045260246000fd5b604051908082528060200260200182016040528015610ebc57816020015b6060815260200190600190039081610ea75790505b50905060005b8484905081101561103257610fdb858583818110610f09577f4e487b7100000000000000000000000000000000000000000000000000000000600052603260045260246000fd5b9050602002810190610f1b919061509c565b6000016020810190610f2d9190613759565b868684818110610f66577f4e487b7100000000000000000000000000000000000000000000000000000000600052603260045260246000fd5b9050602002810190610f78919061509c565b60200135878785818110610fb5577f4e487b7100000000000000000000000000000000000000000000000000000000600052603260045260246000fd5b9050602002810190610fc7919061509c565b8060400190610fd69190614fee565b613113565b828281518110611014577f4e487b7100000000000000000000000000000000000000000000000000000000600052603260045260246000fd5b6020026020010181905250808061102a90615471565b915050610ec2565b508091505092915050565b3073ffffffffffffffffffffffffffffffffffffffff163373ffffffffffffffffffffffffffffffffffffffff1614806110e35750600160000160009054906101000a900473ffffffffffffffffffffffffffffffffffffffff1673ffffffffffffffffffffffffffffffffffffffff163373ffffffffffffffffffffffffffffffffffffffff161480156110e25750600160000160149054906101000a900460ff16155b5b611122576040517f08c379a000000000000000000000000000000000000000000000000000000000815260040161111990614d96565b60405180910390fd5b600173__NameService___________________________63145f7620909187878787876040518763ffffffff1660e01b815260040161116696959493929190614e9a565b60006040518083038186803b15801561117e57600080fd5b505af4158015611192573d6000803e3d6000fd5b505050505050505050565b60018060000160009054906101000a900473ffffffffffffffffffffffffffffffffffffffff16908060000160149054906101000a900460ff16908060020160009054906101000a900460ff16908060030154908060040160009054906101000a900473ffffffffffffffffffffffffffffffffffffffff169080600701549080600801549080600901549080600a0180546112389061543f565b80601f01602080910402602001604051908101604052809291908181526020018280546112649061543f565b80156112b15780601f10611286576101008083540402835291602001916112b1565b820191906000526020600020905b81548152906001019060200180831161129457829003601f168201915b50505050509080600b016040518060400160405290816000820160009054906101000a900473ffffffffffffffffffffffffffffffffffffffff1673ffffffffffffffffffffffffffffffffffffffff1673ffffffffffffffffffffffffffffffffffffffff1681526020016001820154815250509080600e0160009054906101000a900473ffffffffffffffffffffffffffffffffffffffff1690508b565b60005a905061135e6133ff565b6113688b8b61161b565b82600001836020018260048111156113a9577f4e487b7100000000000000000000000000000000000000000000000000000000600052602160045260246000fd5b60048111156113e1577f4e487b7100000000000000000000000000000000000000000000000000000000600052602160045260246000fd5b8152508260ff1660ff16815250505073__MetaTx________________________________631815d80160018d8d8d8d8d8d8d8c8b6040518b63ffffffff1660e01b815260040161143a9a99989796959493929190614ef1565b60006040518083038186803b15801561145257600080fd5b505af4158015611466573d6000803e3d6000fd5b50505050600060603073ffffffffffffffffffffffffffffffffffffffff168d8d6040516114959291906148ed565b6000604051808303816000865af19150503d80600081146114d2576040519150601f19603f3d011682016040523d82523d6000602084013e6114d7565b606091505b5080925081935050506000881180156114ed5750815b80156115265750600073ffffffffffffffffffffffffffffffffffffffff168573ffffffffffffffffffffffffffffffffffffffff1614155b15611592576000620111705a8661153d9190615279565b61154791906151f2565b90508573ffffffffffffffffffffffffffffffffffffffff166108fc829081150290604051600060405180830381858888f1935050505015801561158f573d6000803e3d6000fd5b50505b8115157f8e2386b9ce82e5e79311687a54408ad06fa06a338e2057cdcdfaf3a076743f1e8260006040516115c7929190614b9b565b60405180910390a250505050505050505050505050565b6000806001600b0160000160009054906101000a900473ffffffffffffffffffffffffffffffffffffffff166001600b0160010154915091509091565b600080600061166d85858080601f016020809104026020016040519081016040528093929190818152602001838380828437600081840152601f19601f820116905080830192505050505050506131f7565b905063abea22cc60e01b7bffffffffffffffffffffffffffffffffffffffffffffffffffffffff1916817bffffffffffffffffffffffffffffffffffffffffffffffffffffffff19161480611706575063248b170160e01b7bffffffffffffffffffffffffffffffffffffffffffffffffffffffff1916817bffffffffffffffffffffffffffffffffffffffffffffffffffffffff1916145b80611755575063a526d83b60e01b7bffffffffffffffffffffffffffffffffffffffffffffffffffffffff1916817bffffffffffffffffffffffffffffffffffffffffffffffffffffffff1916145b806117a4575063af648c3d60e01b7bffffffffffffffffffffffffffffffffffffffffffffffffffffffff1916817bffffffffffffffffffffffffffffffffffffffffffffffffffffffff1916145b806117f3575063de03371560e01b7bffffffffffffffffffffffffffffffffffffffffffffffffffffffff1916817bffffffffffffffffffffffffffffffffffffffffffffffffffffffff1916145b80611842575063b20d30a960e01b7bffffffffffffffffffffffffffffffffffffffffffffffffffffffff1916817bffffffffffffffffffffffffffffffffffffffffffffffffffffffff1916145b80611891575063b6c3843260e01b7bffffffffffffffffffffffffffffffffffffffffffffffffffffffff1916817bffffffffffffffffffffffffffffffffffffffffffffffffffffffff1916145b806118e057506379d3d98c60e01b7bffffffffffffffffffffffffffffffffffffffffffffffffffffffff1916817bffffffffffffffffffffffffffffffffffffffffffffffffffffffff1916145b156118f2576001809250925050611ab8565b63ef24c73660e01b7bffffffffffffffffffffffffffffffffffffffffffffffffffffffff1916817bffffffffffffffffffffffffffffffffffffffffffffffffffffffff191614156119b0576002600160050180549050101561198b576040517f08c379a000000000000000000000000000000000000000000000000000000000815260040161198290614c56565b60405180910390fd5b60006119a0600160050180549050600261324a565b9050806003935093505050611ab8565b639cb8332f60e01b7bffffffffffffffffffffffffffffffffffffffffffffffffffffffff1916817bffffffffffffffffffffffffffffffffffffffffffffffffffffffff19161415611a22576000611a12600160050180549050600261324a565b9050806003935093505050611ab8565b63cabd82c560e01b7bffffffffffffffffffffffffffffffffffffffffffffffffffffffff1916817bffffffffffffffffffffffffffffffffffffffffffffffffffffffff19161415611a7d57600060039250925050611ab8565b6040517f08c379a0000000000000000000000000000000000000000000000000000000008152600401611aaf90614e36565b60405180910390fd5b9250929050565b3073ffffffffffffffffffffffffffffffffffffffff163373ffffffffffffffffffffffffffffffffffffffff161480611b655750600160000160009054906101000a900473ffffffffffffffffffffffffffffffffffffffff1673ffffffffffffffffffffffffffffffffffffffff163373ffffffffffffffffffffffffffffffffffffffff16148015611b645750600160000160149054906101000a900460ff16155b5b611ba4576040517f08c379a0000000000000000000000000000000000000000000000000000000008152600401611b9b90614d96565b60405180910390fd5b81816001600a019190611bb8929190613454565b505050565b6000600160000160009054906101000a900473ffffffffffffffffffffffffffffffffffffffff16905090565b6000600160030154905090565b6000806001600b01600101541415905090565b3073ffffffffffffffffffffffffffffffffffffffff163373ffffffffffffffffffffffffffffffffffffffff1614611c78576040517f08c379a0000000000000000000000000000000000000000000000000000000008152600401611c6f90614d76565b60405180910390fd5b600180600d01600083815260200190815260200160002060006101000a81548160ff02191690831515021790555050565b3073ffffffffffffffffffffffffffffffffffffffff163373ffffffffffffffffffffffffffffffffffffffff161480611d4f5750600160000160009054906101000a900473ffffffffffffffffffffffffffffffffffffffff1673ffffffffffffffffffffffffffffffffffffffff163373ffffffffffffffffffffffffffffffffffffffff16148015611d4e5750600160000160149054906101000a900460ff16155b5b611d8e576040517f08c379a0000000000000000000000000000000000000000000000000000000008152600401611d8590614d96565b60405180910390fd5b600173__Guardians_____________________________6397b9ce099091836040518363ffffffff1660e01b8152600401611dca929190614e71565b60006040518083038186803b158015611de257600080fd5b505af4158015611df6573d6000803e3d6000fd5b5050505050565b3073ffffffffffffffffffffffffffffffffffffffff163373ffffffffffffffffffffffffffffffffffffffff161480611ea35750600160000160009054906101000a900473ffffffffffffffffffffffffffffffffffffffff1673ffffffffffffffffffffffffffffffffffffffff163373ffffffffffffffffffffffffffffffffffffffff16148015611ea25750600160000160149054906101000a900460ff16155b5b611ee2576040517f08c379a0000000000000000000000000000000000000000000000000000000008152600401611ed990614d96565b60405180910390fd5b611ef681600161328f90919063ffffffff16565b611f35576040517f08c379a0000000000000000000000000000000000000000000000000000000008152600401611f2c90614e16565b60405180910390fd5b80471015611f78576040517f08c379a0000000000000000000000000000000000000000000000000000000008152600401611f6f90614d16565b60405180910390fd5b8060016009016000828254611f8d91906151f2565b9250508190555060008273ffffffffffffffffffffffffffffffffffffffff1682620186a090604051611fbf90614906565b600060405180830381858888f193505050503d8060008114611ffd576040519150601f19603f3d011682016040523d82523d6000602084013e612002565b606091505b5050905080612046576040517f08c379a000000000000000000000000000000000000000000000000000000000815260040161203d90614df6565b60405180910390fd5b7f688077ec2e4cf5b023188b3c964a1a6481e6ff3fd3d3af3971ae0bf2172f75658383604051612077929190614936565b60405180910390a1505050565b3073ffffffffffffffffffffffffffffffffffffffff163373ffffffffffffffffffffffffffffffffffffffff16148061212a5750600160000160009054906101000a900473ffffffffffffffffffffffffffffffffffffffff1673ffffffffffffffffffffffffffffffffffffffff163373ffffffffffffffffffffffffffffffffffffffff161480156121295750600160000160149054906101000a900460ff16155b5b612169576040517f08c379a000000000000000000000000000000000000000000000000000000000815260040161216090614d96565b60405180910390fd5b600173__Guardians_____________________________63e98ee0859091836040518363ffffffff1660e01b81526004016121a5929190614e71565b60006040518083038186803b1580156121bd57600080fd5b505af41580156121d1573d6000803e3d6000fd5b5050505050565b3073ffffffffffffffffffffffffffffffffffffffff163373ffffffffffffffffffffffffffffffffffffffff16148061227e5750600160000160009054906101000a900473ffffffffffffffffffffffffffffffffffffffff1673ffffffffffffffffffffffffffffffffffffffff163373ffffffffffffffffffffffffffffffffffffffff1614801561227d5750600160000160149054906101000a900460ff16155b5b6122bd576040517f08c379a00000000000000000000000000000000000000000000000000000000081526004016122b490614d96565b60405180910390fd5b8060016007018190555050565b3073ffffffffffffffffffffffffffffffffffffffff163373ffffffffffffffffffffffffffffffffffffffff1614806123705750600160000160009054906101000a900473ffffffffffffffffffffffffffffffffffffffff1673ffffffffffffffffffffffffffffffffffffffff163373ffffffffffffffffffffffffffffffffffffffff1614801561236f5750600160000160149054906101000a900460ff16155b5b6123af576040517f08c379a00000000000000000000000000000000000000000000000000000000081526004016123a690614d96565b60405180910390fd5b80600160040160006101000a81548173ffffffffffffffffffffffffffffffffffffffff021916908373ffffffffffffffffffffffffffffffffffffffff16021790555050565b600080600090505b878790508163ffffffff161015612540573073ffffffffffffffffffffffffffffffffffffffff1663f23a6e618b8b8b8b8663ffffffff1681811061246c577f4e487b7100000000000000000000000000000000000000000000000000000000600052603260045260246000fd5b905060200201358a8a8763ffffffff168181106124b2577f4e487b7100000000000000000000000000000000000000000000000000000000600052603260045260246000fd5b9050602002013589896040518763ffffffff1660e01b81526004016124dc9695949392919061495f565b60206040518083038186803b1580156124f457600080fd5b505afa158015612508573d6000803e3d6000fd5b505050506040513d601f19601f8201168201806040525081019061252c9190613c01565b508080612538906154ba565b9150506123fe565b5063bc197c8160e01b905098975050505050505050565b6060600180018054806020026020016040519081016040528092919081815260200182805480156125a757602002820191906000526020600020905b815481526020019060010190808311612593575b5050505050905090565b3073ffffffffffffffffffffffffffffffffffffffff163373ffffffffffffffffffffffffffffffffffffffff161461261f576040517f08c379a000000000000000000000000000000000000000000000000000000000815260040161261690614d76565b60405180910390fd5b818180806020026020016040519081016040528093929190818152602001838360200280828437600081840152601f19601f82011690508083019250505050505050600073__Recovery______________________________63a6659f26836040518263ffffffff1660e01b815260040161269a9190614ab8565b60206040518083038186803b1580156126b257600080fd5b505af41580156126c6573d6000803e3d6000fd5b505050506040513d601f19601f820116820180604052508101906126ea9190613baf565b9050600073__Recovery______________________________63396c8e65600160020160009054906101000a900460ff16856001875161272a9190615279565b81518110612761577f4e487b7100000000000000000000000000000000000000000000000000000000600052603260045260246000fd5b60200260200101516040518363ffffffff1660e01b8152600401612786929190614f9c565b60206040518083038186803b15801561279e57600080fd5b505af41580156127b2573d6000803e3d6000fd5b505050506040513d601f19601f820116820180604052508101906127d69190613e3c565b90506001600301548163ffffffff161015612826576040517f08c379a000000000000000000000000000000000000000000000000000000000815260040161281d90614d36565b60405180910390fd5b60326001600301548263ffffffff1661283f9190615279565b1061287f576040517f08c379a000000000000000000000000000000000000000000000000000000000815260040161287690614dd6565b60405180910390fd5b6000805b60018001805490508163ffffffff16101561290457600180018163ffffffff16815481106128da577f4e487b7100000000000000000000000000000000000000000000000000000000600052603260045260246000fd5b90600052602060002001548414156128f157600191505b80806128fc906154ba565b915050612883565b5080612945576040517f08c379a000000000000000000000000000000000000000000000000000000000815260040161293c90614c96565b60405180910390fd5b60008787876000818110612982577f4e487b7100000000000000000000000000000000000000000000000000000000600052603260045260246000fd5b9050602002013560405160200161299a9291906148c1565b6040516020818303038152906040528051906020012090506001600d01600082815260200190815260200160002060009054906101000a900460ff16612a15576040517f08c379a0000000000000000000000000000000000000000000000000000000008152600401612a0c90614c36565b60405180910390fd5b87600160000160006101000a81548173ffffffffffffffffffffffffffffffffffffffff021916908373ffffffffffffffffffffffffffffffffffffffff1602179055506001600d01600082815260200190815260200160002060006101000a81549060ff021916905560018060030154612a9091906151f2565b6001600301819055505050505050505050565b896001600e0160006101000a81548173ffffffffffffffffffffffffffffffffffffffff021916908373ffffffffffffffffffffffffffffffffffffffff160217905550600073ffffffffffffffffffffffffffffffffffffffff16600160000160009054906101000a900473ffffffffffffffffffffffffffffffffffffffff1673ffffffffffffffffffffffffffffffffffffffff1614612b7b576040517f08c379a0000000000000000000000000000000000000000000000000000000008152600401612b7290614c76565b60405180910390fd5b80471015612bbe576040517f08c379a0000000000000000000000000000000000000000000000000000000008152600401612bb590614db6565b60405180910390fd5b87600160000160006101000a81548173ffffffffffffffffffffffffffffffffffffffff021916908373ffffffffffffffffffffffffffffffffffffffff16021790555060005b878790508163ffffffff161015612c99576001800188888363ffffffff16818110612c59577f4e487b7100000000000000000000000000000000000000000000000000000000600052603260045260246000fd5b9050602002013590806001815401808255809150506001900390600052602060002001600090919091909150558080612c91906154ba565b915050612c05565b5084600160020160006101000a81548160ff021916908360ff16021790555083600160040160006101000a81548173ffffffffffffffffffffffffffffffffffffffff021916908373ffffffffffffffffffffffffffffffffffffffff16021790555082600160070181905550600089600060028110612d42577f4e487b7100000000000000000000000000000000000000000000000000000000600052603260045260246000fd5b602002810190612d529190615045565b90501115612e62573073ffffffffffffffffffffffffffffffffffffffff16632f23a3ab8a600060028110612db0577f4e487b7100000000000000000000000000000000000000000000000000000000600052603260045260246000fd5b602002810190612dc09190615045565b8c600160028110612dfa577f4e487b7100000000000000000000000000000000000000000000000000000000600052603260045260246000fd5b602002810190612e0a9190615045565b6301e133806040518663ffffffff1660e01b8152600401612e2f959493929190614bcb565b600060405180830381600087803b158015612e4957600080fd5b505af1158015612e5d573d6000803e3d6000fd5b505050505b600073ffffffffffffffffffffffffffffffffffffffff168273ffffffffffffffffffffffffffffffffffffffff1614612ec057612ebf818373ffffffffffffffffffffffffffffffffffffffff1661330b90919063ffffffff16565b5b50505050505050505050565b3073ffffffffffffffffffffffffffffffffffffffff163373ffffffffffffffffffffffffffffffffffffffff1614612f3a576040517f08c379a0000000000000000000000000000000000000000000000000000000008152600401612f3190614d76565b60405180910390fd5b806000806101000a81548173ffffffffffffffffffffffffffffffffffffffff021916908373ffffffffffffffffffffffffffffffffffffffff1602179055507f8a5dcb0249bae905183e794960410c37563e6ab514b1add384425d153972118d81604051612fa9919061491b565b60405180910390a150565b600173__Recovery______________________________635fd7224790916040518263ffffffff1660e01b8152600401612fee9190614e56565b60006040518083038186803b15801561300657600080fd5b505af415801561301a573d6000803e3d6000fd5b50505050565b3073ffffffffffffffffffffffffffffffffffffffff163373ffffffffffffffffffffffffffffffffffffffff161461308e576040517f08c379a000000000000000000000000000000000000000000000000000000000815260040161308590614d76565b60405180910390fd5b600173__Recovery______________________________636ffc1c629091836040518363ffffffff1660e01b81526004016130ca929190614e71565b60006040518083038186803b1580156130e257600080fd5b505af41580156130f6573d6000803e3d6000fd5b5050505050565b600063f23a6e6160e01b90509695505050505050565b606060008573ffffffffffffffffffffffffffffffffffffffff1685858560405161313f9291906148ed565b60006040518083038185875af1925050503d806000811461317c576040519150601f19603f3d011682016040523d82523d6000602084013e613181565b606091505b508093508192505050848673ffffffffffffffffffffffffffffffffffffffff167f79ff2e3e6b1a9fd5afa9ad7b27b6075a3f05484916a94f800548947efa77e83b868685876040516131d79493929190614b54565b60405180910390a3806131ee573d6000803e3d6000fd5b50949350505050565b600060048251101561323e576040517f08c379a000000000000000000000000000000000000000000000000000000000815260040161323590614cb6565b60405180910390fd5b60208201519050919050565b60008082846132599190615248565b9050600083856132699190615515565b14156132785780915050613289565b60018161328591906151f2565b9150505b92915050565b60006201518083600801546132a491906151f2565b4211156132bf57428360080181905550600083600901819055505b82600701548284600901546132d491906151f2565b11806132f2575082600901548284600901546132f091906151f2565b105b156133005760009050613305565b600190505b92915050565b8047101561334e576040517f08c379a000000000000000000000000000000000000000000000000000000000815260040161334590614cf6565b60405180910390fd5b60008273ffffffffffffffffffffffffffffffffffffffff168260405161337490614906565b60006040518083038185875af1925050503d80600081146133b1576040519150601f19603f3d011682016040523d82523d6000602084013e6133b6565b606091505b50509050806133fa576040517f08c379a00000000000000000000000000000000000000000000000000000000081526004016133f190614cd6565b60405180910390fd5b505050565b6040518060400160405280600060ff1681526020016000600481111561344e577f4e487b7100000000000000000000000000000000000000000000000000000000600052602160045260246000fd5b81525090565b8280546134609061543f565b90600052602060002090601f01602090048101928261348257600085556134c9565b82601f1061349b57803560ff19168380011785556134c9565b828001600101855582156134c9579182015b828111156134c85782358255916020019190600101906134ad565b5b5090506134d691906134da565b5090565b5b808211156134f35760008160009055506001016134db565b5090565b60008135905061350681615641565b92915050565b60008135905061351b81615658565b92915050565b60008083601f84011261353357600080fd5b8235905067ffffffffffffffff81111561354c57600080fd5b60208301915083602082028301111561356457600080fd5b9250929050565b60008190508260206002028201111561358357600080fd5b92915050565b60008083601f84011261359b57600080fd5b8235905067ffffffffffffffff8111156135b457600080fd5b6020830191508360208202830111156135cc57600080fd5b9250929050565b60008083601f8401126135e557600080fd5b8235905067ffffffffffffffff8111156135fe57600080fd5b60208301915083602082028301111561361657600080fd5b9250929050565b60008151905061362c8161566f565b92915050565b60008135905061364181615686565b92915050565b60008151905061365681615686565b92915050565b60008135905061366b8161569d565b92915050565b6000815190506136808161569d565b92915050565b60008083601f84011261369857600080fd5b8235905067ffffffffffffffff8111156136b157600080fd5b6020830191508360018202830111156136c957600080fd5b9250929050565b60008083601f8401126136e257600080fd5b8235905067ffffffffffffffff8111156136fb57600080fd5b60208301915083600182028301111561371357600080fd5b9250929050565b600081359050613729816156b4565b92915050565b60008151905061373e816156cb565b92915050565b600081359050613753816156e2565b92915050565b60006020828403121561376b57600080fd5b6000613779848285016134f7565b91505092915050565b60006020828403121561379457600080fd5b60006137a28482850161350c565b91505092915050565b600080604083850312156137be57600080fd5b60006137cc8582860161350c565b92505060206137dd8582860161371a565b9150509250929050565b60008060008060008060008060a0898b03121561380357600080fd5b60006138118b828c016134f7565b98505060206138228b828c016134f7565b975050604089013567ffffffffffffffff81111561383f57600080fd5b61384b8b828c016135d3565b9650965050606089013567ffffffffffffffff81111561386a57600080fd5b6138768b828c016135d3565b9450945050608089013567ffffffffffffffff81111561389557600080fd5b6138a18b828c01613686565b92509250509295985092959890939650565b6000806000806000608086880312156138cb57600080fd5b60006138d9888289016134f7565b95505060206138ea888289016134f7565b94505060406138fb8882890161371a565b935050606086013567ffffffffffffffff81111561391857600080fd5b61392488828901613686565b92509250509295509295909350565b60008060008060008060a0878903121561394c57600080fd5b600061395a89828a016134f7565b965050602061396b89828a016134f7565b955050604061397c89828a0161371a565b945050606061398d89828a0161371a565b935050608087013567ffffffffffffffff8111156139aa57600080fd5b6139b689828a01613686565b92509250509295509295509295565b6000806000604084860312156139da57600080fd5b60006139e8868287016134f7565b935050602084013567ffffffffffffffff811115613a0557600080fd5b613a1186828701613521565b92509250509250925092565b6000806000806000806000806000806101208b8d031215613a3d57600080fd5b6000613a4b8d828e016134f7565b9a505060208b013567ffffffffffffffff811115613a6857600080fd5b613a748d828e0161356b565b9950506040613a858d828e016134f7565b98505060608b013567ffffffffffffffff811115613aa257600080fd5b613aae8d828e01613521565b97509750506080613ac18d828e01613744565b95505060a0613ad28d828e0161350c565b94505060c0613ae38d828e0161371a565b93505060e0613af48d828e016134f7565b925050610100613b068d828e0161371a565b9150509295989b9194979a5092959850565b60008060208385031215613b2b57600080fd5b600083013567ffffffffffffffff811115613b4557600080fd5b613b5185828601613589565b92509250509250929050565b600060208284031215613b6f57600080fd5b6000613b7d8482850161361d565b91505092915050565b600060208284031215613b9857600080fd5b6000613ba684828501613632565b91505092915050565b600060208284031215613bc157600080fd5b6000613bcf84828501613647565b91505092915050565b600060208284031215613bea57600080fd5b6000613bf88482850161365c565b91505092915050565b600060208284031215613c1357600080fd5b6000613c2184828501613671565b91505092915050565b60008060208385031215613c3d57600080fd5b600083013567ffffffffffffffff811115613c5757600080fd5b613c6385828601613686565b92509250509250929050565b600080600080600080600080600060e08a8c031215613c8d57600080fd5b60008a013567ffffffffffffffff811115613ca757600080fd5b613cb38c828d01613686565b995099505060208a013567ffffffffffffffff811115613cd257600080fd5b613cde8c828d01613686565b97509750506040613cf18c828d0161371a565b9550506060613d028c828d0161371a565b9450506080613d138c828d0161371a565b93505060a0613d248c828d016134f7565b92505060c0613d358c828d0161350c565b9150509295985092959850929598565b60008060208385031215613d5857600080fd5b600083013567ffffffffffffffff811115613d7257600080fd5b613d7e858286016136d0565b92509250509250929050565b600080600080600060608688031215613da257600080fd5b600086013567ffffffffffffffff811115613dbc57600080fd5b613dc8888289016136d0565b9550955050602086013567ffffffffffffffff811115613de757600080fd5b613df3888289016136d0565b93509350506040613e068882890161371a565b9150509295509295909350565b600060208284031215613e2557600080fd5b6000613e338482850161371a565b91505092915050565b600060208284031215613e4e57600080fd5b6000613e5c8482850161372f565b91505092915050565b6000613e718383613eee565b60208301905092915050565b6000613e8983836140d0565b60208301905092915050565b6000613ea183836140ee565b60208301905092915050565b6000613eb983836141a2565b905092915050565b613eca81615377565b82525050565b613ed981615377565b82525050565b613ee8816152bf565b82525050565b613ef7816152ad565b82525050565b613f06816152ad565b82525050565b613f15816152ad565b82525050565b613f2c613f27826152ad565b6154e7565b82525050565b6000613f3d826150f0565b613f47818561514e565b9350613f52836150c0565b8060005b83811015613f83578151613f6a8882613e65565b9750613f7583615127565b925050600181019050613f56565b5085935050505092915050565b6000613f9b826150fb565b613fa5818561515f565b9350613fb0836150d0565b8060005b83811015613fe1578151613fc88882613e7d565b9750613fd383615134565b925050600181019050613fb4565b5085935050505092915050565b6000613ff9826150fb565b6140038185615170565b935061400e836150d0565b8060005b8381101561403f5781516140268882613e95565b975061403183615134565b925050600181019050614012565b5085935050505092915050565b600061405782615106565b6140618185615181565b935083602082028501614073856150e0565b8060005b858110156140af57848403895281516140908582613ead565b945061409b83615141565b925060208a01995050600181019050614077565b50829750879550505050505092915050565b6140ca816152d1565b82525050565b6140d9816152dd565b82525050565b6140e8816152dd565b82525050565b6140f7816152dd565b82525050565b61410e614109826152dd565b6154f9565b82525050565b61411d816152e7565b82525050565b600061412f83856151a3565b935061413c8385846153fd565b61414583615602565b840190509392505050565b600061415c83856151b4565b93506141698385846153fd565b61417283615602565b840190509392505050565b600061418983856151c5565b93506141968385846153fd565b82840190509392505050565b60006141ad82615111565b6141b78185615192565b93506141c781856020860161540c565b6141d081615602565b840191505092915050565b60006141e682615111565b6141f081856151a3565b935061420081856020860161540c565b61420981615602565b840191505092915050565b61421d81615389565b82525050565b61422c81615389565b82525050565b61423b8161539b565b82525050565b61424a816153b5565b82525050565b600061425c83856151d0565b93506142698385846153fd565b61427283615602565b840190509392505050565b600061428983856151e1565b93506142968385846153fd565b61429f83615602565b840190509392505050565b60006142b58261511c565b6142bf81856151d0565b93506142cf81856020860161540c565b6142d881615602565b840191505092915050565b60006142f06009836151d0565b91507f4e4f20434f4d4d495400000000000000000000000000000000000000000000006000830152602082019050919050565b6000614330601a836151d0565b91507f4e4f545f4d4545545f4d494e494d554d5f475541524449414e530000000000006000830152602082019050919050565b60006143706013836151d0565b91507f494e495449414c495a45445f414c5245414459000000000000000000000000006000830152602082019050919050565b60006143b06010836151d0565b91507f554e45585045435445442050524f4f46000000000000000000000000000000006000830152602082019050919050565b60006143f0601d836151d0565b91507f5574696c733a20496e76616c69642066756e6374696f6e5072656669780000006000830152602082019050919050565b6000614430603a836151d0565b91507f416464726573733a20756e61626c6520746f2073656e642076616c75652c207260008301527f6563697069656e74206d617920686176652072657665727465640000000000006020830152604082019050919050565b6000614496601d836151d0565b91507f416464726573733a20696e73756666696369656e742062616c616e63650000006000830152602082019050919050565b60006144d66012836151d0565b91507f6e6f7420656e6f7567682062616c616e636500000000000000000000000000006000830152602082019050919050565b60006145166028836151d0565b91507f50726f766964656420636f756e746572206d757374206265206772656174657260008301527f206f722073616d650000000000000000000000000000000000000000000000006020830152604082019050919050565b600061457c601d836151d0565b91507f526563656976653a2045787465726e616c2063616c6c206661696c65640000006000830152602082019050919050565b60006145bc600e836151d0565b91507f6d757374206265206d65746174780000000000000000000000000000000000006000830152602082019050919050565b60006145fc6029836151d0565b91507f4e4f545f46524f4d5f57414c4c45545f4f525f4f574e45525f4f525f57414c4c60008301527f45545f4c4f434b454400000000000000000000000000000000000000000000006020830152604082019050919050565b60006146626015836151d0565b91507f4e4f5420454e4f55474820544f205041592046454500000000000000000000006000830152602082019050919050565b60006146a2602f836151d0565b91507f50726f766964656420636f756e746572206d757374206e6f74206265206d6f7260008301527f65207468616e20323020737465707300000000000000000000000000000000006020830152604082019050919050565b60006147086022836151d0565b91507f4d616b655472616e736665723a2045787465726e616c2063616c6c206661696c60008301527f65640000000000000000000000000000000000000000000000000000000000006020830152604082019050919050565b600061476e6015836151d0565b91507f6f766572207769746864726177616c206c696d697400000000000000000000006000830152602082019050919050565b60006147ae600e836151d0565b91507f756e6b6e6f776e206d6574686f640000000000000000000000000000000000006000830152602082019050919050565b60006147ee6000836151c5565b9150600082019050919050565b6040820160008201516148116000850182613eee565b5060208201516148246020850182614867565b50505050565b60408201600082015161484060008501826148b2565b5060208201516148536020850182614223565b50505050565b8082525050565b8082525050565b61487081615350565b82525050565b61487f81615350565b82525050565b61488e81615350565b82525050565b61489d816153eb565b82525050565b6148ac8161536a565b82525050565b6148bb8161536a565b82525050565b60006148cd8285613f1b565b6014820191506148dd82846140fd565b6020820191508190509392505050565b60006148fa82848661417d565b91508190509392505050565b6000614911826147e1565b9150819050919050565b60006020820190506149306000830184613efd565b92915050565b600060408201905061494b6000830185613ec1565b6149586020830184614876565b9392505050565b600060a0820190506149746000830189613efd565b6149816020830188613efd565b61498e6040830187614876565b61499b6060830186614876565b81810360808301526149ae818486614123565b9050979650505050505050565b6000610180820190506149d1600083018e613efd565b6149de602083018d6140c1565b6149eb604083018c6148a3565b6149f8606083018b614876565b614a05608083018a613edf565b614a1260a0830189614876565b614a1f60c0830188614876565b614a2c60e0830187614876565b818103610100830152614a3f81866142aa565b9050614a4f6101208301856147fb565b614a5d610160830184613efd565b9c9b505050505050505050505050565b6000604082019050614a826000830185613efd565b614a8f6020830184614876565b9392505050565b60006020820190508181036000830152614ab08184613f32565b905092915050565b60006020820190508181036000830152614ad28184613fee565b905092915050565b60006020820190508181036000830152614af48184613f90565b905092915050565b60006020820190508181036000830152614b16818461404c565b905092915050565b6000602082019050614b3360008301846140c1565b92915050565b6000602082019050614b4e6000830184614114565b92915050565b60006060820190508181036000830152614b6f818688614123565b9050614b7e60208301856140c1565b8181036040830152614b9081846141db565b905095945050505050565b60006040820190508181036000830152614bb581856141db565b9050614bc46020830184614232565b9392505050565b60006060820190508181036000830152614be6818789614250565b90508181036020830152614bfb818587614250565b9050614c0a6040830184614241565b9695505050505050565b60006020820190508181036000830152614c2e81846142aa565b905092915050565b60006020820190508181036000830152614c4f816142e3565b9050919050565b60006020820190508181036000830152614c6f81614323565b9050919050565b60006020820190508181036000830152614c8f81614363565b9050919050565b60006020820190508181036000830152614caf816143a3565b9050919050565b60006020820190508181036000830152614ccf816143e3565b9050919050565b60006020820190508181036000830152614cef81614423565b9050919050565b60006020820190508181036000830152614d0f81614489565b9050919050565b60006020820190508181036000830152614d2f816144c9565b9050919050565b60006020820190508181036000830152614d4f81614509565b9050919050565b60006020820190508181036000830152614d6f8161456f565b9050919050565b60006020820190508181036000830152614d8f816145af565b9050919050565b60006020820190508181036000830152614daf816145ef565b9050919050565b60006020820190508181036000830152614dcf81614655565b9050919050565b60006020820190508181036000830152614def81614695565b9050919050565b60006020820190508181036000830152614e0f816146fb565b9050919050565b60006020820190508181036000830152614e2f81614761565b9050919050565b60006020820190508181036000830152614e4f816147a1565b9050919050565b6000602082019050614e6b6000830184614859565b92915050565b6000604082019050614e866000830185614859565b614e936020830184613f0c565b9392505050565b6000608082019050614eaf6000830189614859565b8181036020830152614ec281878961427d565b90508181036040830152614ed781858761427d565b9050614ee66060830184614885565b979650505050505050565b600061012082019050614f07600083018d614860565b8181036020830152614f1a818b8d614150565b90508181036040830152614f2f81898b614150565b9050614f3e6060830188614885565b614f4b6080830187614885565b614f5860a0830186614885565b614f6560c0830185613ed0565b614f7260e083018461482a565b9b9a5050505050505050505050565b6000602082019050614f966000830184614876565b92915050565b6000604082019050614fb16000830185614894565b614fbe60208301846140df565b9392505050565b6000604082019050614fda60008301856148a3565b614fe76020830184614214565b9392505050565b6000808335600160200384360303811261500757600080fd5b80840192508235915067ffffffffffffffff82111561502557600080fd5b60208301925060018202360383131561503d57600080fd5b509250929050565b6000808335600160200384360303811261505e57600080fd5b80840192508235915067ffffffffffffffff82111561507c57600080fd5b60208301925060018202360383131561509457600080fd5b509250929050565b6000823560016060038336030381126150b457600080fd5b80830191505092915050565b6000819050602082019050919050565b6000819050602082019050919050565b6000819050602082019050919050565b600081519050919050565b600081519050919050565b600081519050919050565b600081519050919050565b600081519050919050565b6000602082019050919050565b6000602082019050919050565b6000602082019050919050565b600082825260208201905092915050565b600082825260208201905092915050565b600082825260208201905092915050565b600082825260208201905092915050565b600082825260208201905092915050565b600082825260208201905092915050565b600082825260208201905092915050565b600081905092915050565b600082825260208201905092915050565b600082825260208201905092915050565b60006151fd82615350565b915061520883615350565b9250827fffffffffffffffffffffffffffffffffffffffffffffffffffffffffffffffff0382111561523d5761523c615546565b5b828201905092915050565b600061525382615350565b915061525e83615350565b92508261526e5761526d615575565b5b828204905092915050565b600061528482615350565b915061528f83615350565b9250828210156152a2576152a1615546565b5b828203905092915050565b60006152b882615330565b9050919050565b60006152ca82615330565b9050919050565b60008115159050919050565b6000819050919050565b60007fffffffff0000000000000000000000000000000000000000000000000000000082169050919050565b60008190506153218261562d565b919050565b6000819050919050565b600073ffffffffffffffffffffffffffffffffffffffff82169050919050565b6000819050919050565b600063ffffffff82169050919050565b600060ff82169050919050565b6000615382826153c7565b9050919050565b600061539482615313565b9050919050565b60006153ae6153a983615326565b615613565b9050919050565b60006153c082615350565b9050919050565b60006153d2826153d9565b9050919050565b60006153e482615330565b9050919050565b60006153f68261536a565b9050919050565b82818337600083830152505050565b60005b8381101561542a57808201518184015260208101905061540f565b83811115615439576000848401525b50505050565b6000600282049050600182168061545757607f821691505b6020821081141561546b5761546a6155d3565b5b50919050565b600061547c82615350565b91507fffffffffffffffffffffffffffffffffffffffffffffffffffffffffffffffff8214156154af576154ae615546565b5b600182019050919050565b60006154c58261535a565b915063ffffffff8214156154dc576154db615546565b5b600182019050919050565b60006154f282615503565b9050919050565b6000819050919050565b600061550e82615620565b9050919050565b600061552082615350565b915061552b83615350565b92508261553b5761553a615575565b5b828206905092915050565b7f4e487b7100000000000000000000000000000000000000000000000000000000600052601160045260246000fd5b7f4e487b7100000000000000000000000000000000000000000000000000000000600052601260045260246000fd5b7f4e487b7100000000000000000000000000000000000000000000000000000000600052602160045260246000fd5b7f4e487b7100000000000000000000000000000000000000000000000000000000600052602260045260246000fd5b6000601f19601f8301169050919050565b60008160001b9050919050565b60008160601b9050919050565b6005811061563e5761563d6155a4565b5b50565b61564a816152ad565b811461565557600080fd5b50565b615661816152bf565b811461566c57600080fd5b50565b615678816152d1565b811461568357600080fd5b50565b61568f816152dd565b811461569a57600080fd5b50565b6156a6816152e7565b81146156b157600080fd5b50565b6156bd81615350565b81146156c857600080fd5b50565b6156d48161535a565b81146156df57600080fd5b50565b6156eb8161536a565b81146156f657600080fd5b5056fea2646970667358221220c159a6f9dcffc25681c88787b2468d559640133eae49c028a79db6c390e7733864736f6c63430008000033",
  "immutableReferences": {},
  "source": "// SPDX-License-Identifier: GPL-3.0-only\n\npragma solidity >=0.7.6;\npragma experimental ABIEncoderV2;\n\nimport \"@openzeppelin/contracts/token/ERC721/IERC721Receiver.sol\";\nimport \"@openzeppelin/contracts/token/ERC721/IERC721.sol\";\nimport \"@openzeppelin/contracts/token/ERC1155/IERC1155Receiver.sol\";\nimport \"@openzeppelin/contracts/token/ERC1155/IERC1155.sol\";\nimport \"@openzeppelin/contracts/token/ERC20/IERC20.sol\";\nimport \"@openzeppelin/contracts/utils/Address.sol\";\n\nimport \"./core/wallet_data.sol\";\nimport \"./features/guardians.sol\";\nimport \"./features/daily_limit.sol\";\nimport \"./features/recovery.sol\";\nimport \"./features/metatx.sol\";\nimport \"./features/name_service.sol\";\n\ncontract TOTPWallet is IERC721Receiver, IERC1155Receiver {\n\n    using Address for address payable;\n    using Guardians for Core.Wallet;\n    using DailyLimit for Core.Wallet;\n    using Recovery for Core.Wallet;\n    using MetaTx for Core.Wallet;\n    using NameService for Core.Wallet;\n\n    // DATA LAYOUT - ALWAYS ADD NEW VAR TO LAST\n\n    address masterCopy;\n    Core.Wallet public wallet;\n    bool internal isImplementationContract;\n\n\n    // END OF DATA LAYOUT\n    struct Call {\n        address to;\n        uint256 value;\n        bytes data;\n    }\n\n    event DebugEvent(bytes16 data);\n    event DebugEvent32(bytes32 data);\n    event DebugEventN(uint32 data);\n    event DebugEventA(address data);    \n    event DebugEvent256(uint256 data);\n    event WalletTransfer(address to, uint amount);\n    event Deposit(address indexed sender, uint value);\n    event WalletUpgraded(address newImpl);\n    event TransactionExecuted(bool indexed success, bytes returnData, bytes32 signedHash);\n    event Invoked(address indexed target, uint indexed value, bytes data, bool success, bytes returnData);\n\n    constructor() {\n        isImplementationContract = true;\n    }\n\n    modifier disableInImplementationContract\n    {\n        require(!isImplementationContract, \"DISALLOWED_ON_IMPLEMENTATION_CONTRACT\");\n        _;\n    }\n\n    // keep methods <= 8 parameters of get stack to deep\n    function initialize(\n        address              resolver_,\n        string[2]   calldata domain_, // empty means no registration\n        address             owner_, \n        bytes32[] calldata    rootHash_, \n        uint8               merkelHeight_, \n        address payable     drainAddr_, \n        uint                dailyLimit_,\n        address             feeRecipient,\n        uint                feeAmount                \n        ) external \n        // disableInImplementationContract()\n    {\n        wallet.resolver = resolver_;\n\n        //emit DebugEvent256(address(this).balance);\n        require(wallet.owner == address(0), \"INITIALIZED_ALREADY\");\n        require(address(this).balance >= feeAmount, \"NOT ENOUGH TO PAY FEE\");\n\n        wallet.owner = owner_;\n        for (uint32 i = 0; i < rootHash_.length; i++) {\n             wallet.rootHash.push(rootHash_[i]);\n        }        \n        wallet.merkelHeight = merkelHeight_;\n        wallet.drainAddr = drainAddr_;\n        wallet.dailyLimit = dailyLimit_;\n\n        // STACK TOO DEEP\n        if(bytes(domain_[0]).length > 0) {\n            this.registerENS(domain_[0], domain_[1], 60 * 60 * 24 * 365);\n        }\n\n        if (feeRecipient != address(0)) {\n            payable(feeRecipient).sendValue(feeAmount);\n        }        \n    }   \n\n    function registerENS(string calldata subdomain, string calldata domain, uint duration) external onlyFromWalletOrOwnerWhenUnlocked() {\n        wallet.registerENS(subdomain, domain, duration);\n    }\n\n    modifier onlyModule() {\n        require(msg.sender == address(this));\n        _;        \n    }\n\n    modifier onlyFromWalletOrOwnerWhenUnlocked()\n    {\n        require(\n            msg.sender == address(this) ||\n            (msg.sender == wallet.owner && !wallet.locked),\n             \"NOT_FROM_WALLET_OR_OWNER_OR_WALLET_LOCKED\"\n        );\n        _;\n    }\n\n    modifier onlySelf() {\n        require(msg.sender == address(this), \"must be metatx\");\n        _;\n    }\n\n    // confirmMaterial contains OTP + intermediatory hashes + sides\n    modifier onlyValidTOTP(bytes32[] memory confirmMaterial) \n    {\n        bytes32 reduced = Recovery._reduceConfirmMaterial(confirmMaterial);\n        uint32 counterProvided = Recovery._deriveChildTreeIdx(wallet.merkelHeight, confirmMaterial[confirmMaterial.length-1]);\n        require(counterProvided >= wallet.counter, \"Provided counter must be greater or same\");\n\n        // Google Authenticator doesn't allow custom counter or change counter back; so we must allow room to fudge\n        // allow some room if the counters were skipped at some point\n        require(counterProvided - wallet.counter  < 50, \"Provided counter must not be more than 20 steps\");\n\n        bool foundMatch = false;\n        for (uint32 i = 0; i < wallet.rootHash.length; i++) {\n            if(reduced==wallet.rootHash[i]) {\n                foundMatch = true;\n            }\n        }\n        require(foundMatch, \"UNEXPECTED PROOF\");\n        _;\n    }\n\n    function getRequiredSignatures(bytes calldata _data) public view returns (uint8, Core.OwnerSignature) {\n        bytes4 methodId = functionPrefix(_data);\n\n        if(methodId == TOTPWallet.makeTransfer.selector ||\n            methodId == TOTPWallet.multiCall.selector ||\n            methodId == TOTPWallet.addGuardian.selector ||\n            methodId == TOTPWallet.revokeGuardian.selector||\n            methodId == TOTPWallet.upgradeMasterCopy.selector ||\n            methodId == TOTPWallet.setDailyLimit.selector ||\n            methodId == TOTPWallet.setDrainAddress.selector ||\n            methodId == TOTPWallet.setHashStorageId.selector) {\n            return (1, Core.OwnerSignature.Required);\n        }\n\n        if(methodId == TOTPWallet.startRecoverGuardianOnly.selector) {\n            require(wallet.guardians.length >= 2, \"NOT_MEET_MINIMUM_GUARDIANS\");\n            uint requiredSignatures = MetaTx.ceil(wallet.guardians.length, 2);\n            return (uint8(requiredSignatures), Core.OwnerSignature.Disallowed);            \n        }\n\n        // 1 of 1 = 0 sig\n        // 2 of 2 = 1 sig + HOTP\n        // 2 of 3 = 1 sig + HOTP\n        if(methodId == TOTPWallet.startRecoverCommit.selector) {\n            uint requiredSignatures = MetaTx.ceil(wallet.guardians.length, 2);\n            return (uint8(requiredSignatures), Core.OwnerSignature.Disallowed);            \n        }\n        if(methodId == TOTPWallet.startRecoveryReveal.selector) {\n            return (0, Core.OwnerSignature.Disallowed);            \n        }\n        \n        revert(\"unknown method\");\n    }    \n\n    function executeMetaTx(\n            bytes   calldata data,\n            bytes   calldata signatures, \n            uint256 nonce,\n            uint256 gasPrice,\n            uint256 gasLimit,\n            address /*refundToken*/,\n            address payable refundAddress            \n        ) external \n    {\n        uint gasLeft = gasleft();        \n        Core.SignatureRequirement memory sigRequirement;        \n        (sigRequirement.requiredSignatures, sigRequirement.ownerSignatureRequirement) = getRequiredSignatures(data);        \n\n        MetaTx.validateTx(wallet, data, signatures, nonce, gasPrice, gasLimit, refundAddress, sigRequirement);\n\n        bool success;\n        bytes memory returnData;\n        (success, returnData) = address(this).call(data);\n\n        if(gasPrice > 0 && success && refundAddress != address(0x0)) {\n            uint gasUsed = gasLeft - gasleft() + 70000; //35k overhead\n            refundAddress.transfer(gasUsed);\n        }\n        emit TransactionExecuted(success, returnData, 0x0);        \n    }\n\n    function multiCall(Call[] calldata _transactions) external onlyFromWalletOrOwnerWhenUnlocked() returns (bytes[] memory) {\n        bytes[] memory results = new bytes[](_transactions.length);\n        for(uint i = 0; i < _transactions.length; i++) {\n            results[i] = invoke(_transactions[i].to, _transactions[i].value, _transactions[i].data);\n        }\n        return results;\n    }\n\n    function makeTransfer(address payable to, uint amount) external onlyFromWalletOrOwnerWhenUnlocked() \n    {\n        require(wallet.isUnderLimit(amount), \"over withdrawal limit\");\n        require(address(this).balance >= amount, \"not enough balance\");  \n\n        wallet.spentToday += amount;\n        //to.transfer(amount);\n        (bool success,) = to.call{value: amount, gas: 100000}(\"\");\n        require(success, \"MakeTransfer: External call failed\");\n        emit WalletTransfer(to, amount);             \n    }\n\n    function getOwner()  public\n        view\n        returns (address) \n    {\n        return wallet.owner;  \n    }\n\n    function getCounter()  public\n        view\n        returns (uint) \n    {\n        return wallet.counter;\n    }\n\n    function setHashStorageId(string calldata id) external  onlyFromWalletOrOwnerWhenUnlocked()  {\n        wallet.hashStorageID = id;\n    }\n\n    function getHashStorageId() public view  returns (string memory){\n        return wallet.hashStorageID;\n    }\n    \n    function getRootHashes()\n         public\n         view\n         returns (bytes32[] memory )\n     {\n         return wallet.rootHash;\n     }\n\n    function setDrainAddress(address payable addr) external onlyFromWalletOrOwnerWhenUnlocked() {\n        wallet.drainAddr = addr;\n    }\n\n    function setDailyLimit(uint amount) external onlyFromWalletOrOwnerWhenUnlocked() {\n        wallet.dailyLimit = amount;\n    }\n    //\n    // Guardians functions\n    //\n    function addGuardian(address guardian)\n        external\n        onlyFromWalletOrOwnerWhenUnlocked()\n    {\n        wallet.addGuardian(guardian);\n    }\n\n    function revokeGuardian(address guardian)\n        external\n        onlyFromWalletOrOwnerWhenUnlocked()\n    {\n        wallet.revokeGuardian(guardian);\n    }\n\n    function isGuardian(address addr)\n         public\n         view\n         returns (bool)\n     {\n         return wallet.isGuardian(addr);\n     }\n\n     function getGuardians()\n         public\n         view\n         returns (address[] memory )\n     {\n         return wallet.guardians;\n     }\n\n    //\n    // Recovery functions\n    //\n    // In default setup with only HOTP setup, wallet recovery is done on its own.\n    // In a more secure setup with HOTP + guardians, HOTP is considered as 1 guardian.\n    //\n    // Relay/or other coordinating system will coordinate the signatures collections \n    // from guardian and submit along with the HOTP together. In rare case, HOTP may be ommitted\n    // when greater than 2 guardians can recover without HOTP.\n    function startRecoverGuardianOnly(address newOwner_) onlySelf() external {\n        // move into recovery state\n        wallet.startRecovery(newOwner_);\n    }\n\n    // recover with combination of commithash and signatures\n    function startRecoverCommit(bytes32 commitHash)  onlySelf() external {\n        wallet.commitHash[commitHash] = true;\n    }\n\n    function startRecoveryReveal(address newOwner, bytes32[] calldata confirmMaterial)  onlySelf() onlyValidTOTP(confirmMaterial) external {\n        bytes32 hash = keccak256(abi.encodePacked(newOwner, confirmMaterial[0]));\n        require(wallet.commitHash[hash], \"NO COMMIT\");\n\n        //wallet.startRecovery(newOwner);\n        wallet.owner = newOwner;\n\n        delete wallet.commitHash[hash];\n        wallet.counter = wallet.counter + 1;\n    }\n\n    function isRecovering() external view returns (bool) {\n        return wallet.pendingRecovery.expiration != 0;\n    }\n\n    function cancelRecovery() external onlyFromWalletOrOwnerWhenUnlocked() {\n        wallet.pendingRecovery = Core.RecoveryInfo(address(0),0);\n    }\n\n    function getRecovery() external view returns (address,uint) {\n        return (wallet.pendingRecovery.newOwner, wallet.pendingRecovery.expiration);\n    }\n\n    function finalizeRecovery() external {\n        wallet.finalizeRecovery();\n    }\n\n    function upgradeMasterCopy(address newMasterCopy) external onlySelf() {\n        masterCopy = newMasterCopy;\n        emit WalletUpgraded(newMasterCopy);\n    }\n\n    function getMasterCopy()\n        public\n        view\n        returns (address)\n    {\n        return masterCopy;\n    }\n\n    //\n    // ERC1155 support\n    //\n    function onERC1155Received(\n        address,\n        address,\n        uint256,\n        uint256,\n        bytes calldata\n    ) external pure override returns (bytes4){\n        return this.onERC1155Received.selector;\n    }\n\n    function onERC1155BatchReceived(address operator, address from, uint256[] calldata ids, uint256[] calldata values, bytes calldata data) external view override returns (bytes4){\n        for (uint32 i = 0; i < ids.length; i++) {\n            this.onERC1155Received(operator, from, ids[i], values[i], data);\n        }\n        return this.onERC1155BatchReceived.selector;\n    }\n\n    function supportsInterface(bytes4 interfaceID) external override pure returns (bool) {\n        return interfaceID == this.supportsInterface.selector ||\n        interfaceID == this.onERC1155Received.selector ||\n        interfaceID == this.onERC721Received.selector;\n    }\n\n    function onERC721Received(\n        address,\n        address,\n        uint256,\n        bytes calldata\n    ) external pure override returns (bytes4){\n        return this.onERC721Received.selector;\n    }\n\n    //\n    // Utility functions\n    //\n\n    /**\n    * @notice Helper method to parse data and extract the method signature.\n    */\n    function functionPrefix(bytes memory _data) internal pure returns (bytes4 prefix) {\n        require(_data.length >= 4, \"Utils: Invalid functionPrefix\");\n        // solhint-disable-next-line no-inline-assembly\n        assembly {\n            prefix := mload(add(_data, 0x20))\n        }\n    }\n    /// @dev Fallback function allows to deposit ether.\n    receive() external payable {\n        if (msg.value > 0) {\n            if(msg.sender == wallet.drainAddr && msg.value == 1 ether) {\n                uint amount = address(this).balance;\n                (bool success,) = wallet.drainAddr.call{value: amount, gas: 100000}(\"\");\n                require(success, \"Receive: External call failed\");\n            }\n            emit Deposit(msg.sender, msg.value);\n        }\n    }\n\n    /**\n     * @notice Performs a generic transaction.\n     * @param _target The address for the transaction.\n     * @param _value The value of the transaction.\n     * @param _data The data of the transaction.\n     */\n    function invoke(address _target, uint _value, bytes calldata _data) internal returns (bytes memory _result) {\n        bool success;\n        (success, _result) = _target.call{value: _value}(_data);\n\n        emit Invoked(_target, _value, _data, success, _result);\n\n        if (!success) {\n            // solhint-disable-next-line no-inline-assembly\n            assembly {\n                returndatacopy(0, 0, returndatasize())\n                revert(0, returndatasize())\n            }\n        }\n    }\n}\n",
  "sourcePath": "/Users/okudajunta/Documents/solidity/harmony-totp/contracts/otp_wallet.sol",
  "compiler": {
    "name": "solc",
    "version": "0.8.0+commit.c7dfd78e.Emscripten.clang"
  },
  "schemaVersion": "3.4.2",
  "updatedAt": "2021-08-28T01:49:12.999Z",
  "devdoc": {
    "kind": "dev",
    "methods": {
      "onERC1155BatchReceived(address,address,uint256[],uint256[],bytes)": {
        "details": "Handles the receipt of a multiple ERC1155 token types. This function is called at the end of a `safeBatchTransferFrom` after the balances have been updated. To accept the transfer(s), this must return `bytes4(keccak256(\"onERC1155BatchReceived(address,address,uint256[],uint256[],bytes)\"))` (i.e. 0xbc197c81, or its own function selector).",
        "params": {
          "data": "Additional data with no specified format",
          "from": "The address which previously owned the token",
          "ids": "An array containing ids of each token being transferred (order and length must match values array)",
          "operator": "The address which initiated the batch transfer (i.e. msg.sender)",
          "values": "An array containing amounts of each token being transferred (order and length must match ids array)"
        },
        "returns": {
          "_0": "`bytes4(keccak256(\"onERC1155BatchReceived(address,address,uint256[],uint256[],bytes)\"))` if transfer is allowed"
        }
      }
    },
    "version": 1
  },
  "userdoc": {
    "kind": "user",
    "methods": {},
    "version": 1
  }
}