{
  "contractName": "TOTPWallet",
  "abi": [
    {
      "inputs": [],
      "stateMutability": "nonpayable",
      "type": "constructor"
    },
    {
      "anonymous": false,
      "inputs": [
        {
          "indexed": false,
          "internalType": "bytes16",
          "name": "data",
          "type": "bytes16"
        }
      ],
      "name": "DebugEvent",
      "type": "event"
    },
    {
      "anonymous": false,
      "inputs": [
        {
          "indexed": false,
          "internalType": "uint256",
          "name": "data",
          "type": "uint256"
        }
      ],
      "name": "DebugEvent256",
      "type": "event"
    },
    {
      "anonymous": false,
      "inputs": [
        {
          "indexed": false,
          "internalType": "bytes32",
          "name": "data",
          "type": "bytes32"
        }
      ],
      "name": "DebugEvent32",
      "type": "event"
    },
    {
      "anonymous": false,
      "inputs": [
        {
          "indexed": false,
          "internalType": "address",
          "name": "data",
          "type": "address"
        }
      ],
      "name": "DebugEventA",
      "type": "event"
    },
    {
      "anonymous": false,
      "inputs": [
        {
          "indexed": false,
          "internalType": "uint32",
          "name": "data",
          "type": "uint32"
        }
      ],
      "name": "DebugEventN",
      "type": "event"
    },
    {
      "anonymous": false,
      "inputs": [
        {
          "indexed": true,
          "internalType": "address",
          "name": "sender",
          "type": "address"
        },
        {
          "indexed": false,
          "internalType": "uint256",
          "name": "value",
          "type": "uint256"
        }
      ],
      "name": "Deposit",
      "type": "event"
    },
    {
      "anonymous": false,
      "inputs": [
        {
          "indexed": true,
          "internalType": "address",
          "name": "target",
          "type": "address"
        },
        {
          "indexed": true,
          "internalType": "uint256",
          "name": "value",
          "type": "uint256"
        },
        {
          "indexed": false,
          "internalType": "bytes",
          "name": "data",
          "type": "bytes"
        },
        {
          "indexed": false,
          "internalType": "bool",
          "name": "success",
          "type": "bool"
        },
        {
          "indexed": false,
          "internalType": "bytes",
          "name": "returnData",
          "type": "bytes"
        }
      ],
      "name": "Invoked",
      "type": "event"
    },
    {
      "anonymous": false,
      "inputs": [
        {
          "indexed": true,
          "internalType": "bool",
          "name": "success",
          "type": "bool"
        },
        {
          "indexed": false,
          "internalType": "bytes",
          "name": "returnData",
          "type": "bytes"
        },
        {
          "indexed": false,
          "internalType": "bytes32",
          "name": "signedHash",
          "type": "bytes32"
        }
      ],
      "name": "TransactionExecuted",
      "type": "event"
    },
    {
      "anonymous": false,
      "inputs": [
        {
          "indexed": false,
          "internalType": "address",
          "name": "to",
          "type": "address"
        },
        {
          "indexed": false,
          "internalType": "uint256",
          "name": "amount",
          "type": "uint256"
        }
      ],
      "name": "WalletTransfer",
      "type": "event"
    },
    {
      "anonymous": false,
      "inputs": [
        {
          "indexed": false,
          "internalType": "address",
          "name": "newImpl",
          "type": "address"
        }
      ],
      "name": "WalletUpgraded",
      "type": "event"
    },
    {
      "inputs": [],
      "name": "userData",
      "outputs": [
        {
          "internalType": "string",
          "name": "password",
          "type": "string"
        },
        {
          "internalType": "string",
          "name": "email",
          "type": "string"
        },
        {
          "internalType": "string",
          "name": "countryOfResidence",
          "type": "string"
        }
      ],
      "stateMutability": "view",
      "type": "function",
      "constant": true
    },
    {
      "inputs": [],
      "name": "version",
      "outputs": [
        {
          "internalType": "uint256",
          "name": "",
          "type": "uint256"
        }
      ],
      "stateMutability": "view",
      "type": "function",
      "constant": true
    },
    {
      "inputs": [],
      "name": "wallet",
      "outputs": [
        {
          "internalType": "address",
          "name": "owner",
          "type": "address"
        },
        {
          "internalType": "bool",
          "name": "locked",
          "type": "bool"
        },
        {
          "internalType": "uint8",
          "name": "merkelHeight",
          "type": "uint8"
        },
        {
          "internalType": "uint256",
          "name": "counter",
          "type": "uint256"
        },
        {
          "internalType": "address payable",
          "name": "drainAddr",
          "type": "address"
        },
        {
          "internalType": "uint256",
          "name": "dailyLimit",
          "type": "uint256"
        },
        {
          "internalType": "uint256",
          "name": "lastDay",
          "type": "uint256"
        },
        {
          "internalType": "uint256",
          "name": "spentToday",
          "type": "uint256"
        },
        {
          "internalType": "string",
          "name": "hashStorageID",
          "type": "string"
        },
        {
          "components": [
            {
              "internalType": "address",
              "name": "newOwner",
              "type": "address"
            },
            {
              "internalType": "uint256",
              "name": "expiration",
              "type": "uint256"
            }
          ],
          "internalType": "struct Core.RecoveryInfo",
          "name": "pendingRecovery",
          "type": "tuple"
        },
        {
          "internalType": "address",
          "name": "resolver",
          "type": "address"
        },
        {
          "internalType": "uint256",
          "name": "nonce",
          "type": "uint256"
        }
      ],
      "stateMutability": "view",
      "type": "function",
      "constant": true
    },
    {
      "stateMutability": "payable",
      "type": "receive",
      "payable": true
    },
    {
      "inputs": [
        {
          "internalType": "address",
          "name": "resolver_",
          "type": "address"
        },
        {
          "internalType": "string[2]",
          "name": "domain_",
          "type": "string[2]"
        },
        {
          "internalType": "address",
          "name": "owner_",
          "type": "address"
        },
        {
          "internalType": "bytes32[]",
          "name": "rootHash_",
          "type": "bytes32[]"
        },
        {
          "internalType": "uint8",
          "name": "merkelHeight_",
          "type": "uint8"
        },
        {
          "internalType": "address payable",
          "name": "drainAddr_",
          "type": "address"
        },
        {
          "internalType": "uint256",
          "name": "dailyLimit_",
          "type": "uint256"
        },
        {
          "internalType": "address",
          "name": "feeRecipient",
          "type": "address"
        },
        {
          "internalType": "uint256",
          "name": "feeAmount",
          "type": "uint256"
        }
      ],
      "name": "initialize",
      "outputs": [],
      "stateMutability": "nonpayable",
      "type": "function"
    },
    {
      "inputs": [
        {
          "internalType": "string",
          "name": "password_",
          "type": "string"
        },
        {
          "internalType": "string",
          "name": "email_",
          "type": "string"
        },
        {
          "internalType": "string",
          "name": "countryOfResidence_",
          "type": "string"
        }
      ],
      "name": "initializeUserData",
      "outputs": [],
      "stateMutability": "nonpayable",
      "type": "function"
    },
    {
      "inputs": [
        {
          "internalType": "string",
          "name": "subdomain",
          "type": "string"
        },
        {
          "internalType": "string",
          "name": "domain",
          "type": "string"
        },
        {
          "internalType": "uint256",
          "name": "duration",
          "type": "uint256"
        }
      ],
      "name": "registerENS",
      "outputs": [],
      "stateMutability": "nonpayable",
      "type": "function"
    },
    {
      "inputs": [
        {
          "internalType": "bytes",
          "name": "_data",
          "type": "bytes"
        }
      ],
      "name": "getRequiredSignatures",
      "outputs": [
        {
          "internalType": "uint8",
          "name": "",
          "type": "uint8"
        },
        {
          "internalType": "enum Core.OwnerSignature",
          "name": "",
          "type": "uint8"
        }
      ],
      "stateMutability": "view",
      "type": "function",
      "constant": true
    },
    {
      "inputs": [
        {
          "internalType": "bytes",
          "name": "data",
          "type": "bytes"
        },
        {
          "internalType": "bytes",
          "name": "signatures",
          "type": "bytes"
        },
        {
          "internalType": "uint256",
          "name": "nonce",
          "type": "uint256"
        },
        {
          "internalType": "uint256",
          "name": "gasPrice",
          "type": "uint256"
        },
        {
          "internalType": "uint256",
          "name": "gasLimit",
          "type": "uint256"
        },
        {
          "internalType": "address",
          "name": "",
          "type": "address"
        },
        {
          "internalType": "address payable",
          "name": "refundAddress",
          "type": "address"
        }
      ],
      "name": "executeMetaTx",
      "outputs": [],
      "stateMutability": "nonpayable",
      "type": "function"
    },
    {
      "inputs": [
        {
          "components": [
            {
              "internalType": "address",
              "name": "to",
              "type": "address"
            },
            {
              "internalType": "uint256",
              "name": "value",
              "type": "uint256"
            },
            {
              "internalType": "bytes",
              "name": "data",
              "type": "bytes"
            }
          ],
          "internalType": "struct TOTPWallet.Call[]",
          "name": "_transactions",
          "type": "tuple[]"
        }
      ],
      "name": "multiCall",
      "outputs": [
        {
          "internalType": "bytes[]",
          "name": "",
          "type": "bytes[]"
        }
      ],
      "stateMutability": "nonpayable",
      "type": "function"
    },
    {
      "inputs": [
        {
          "internalType": "address payable",
          "name": "to",
          "type": "address"
        },
        {
          "internalType": "uint256",
          "name": "amount",
          "type": "uint256"
        }
      ],
      "name": "makeTransfer",
      "outputs": [],
      "stateMutability": "nonpayable",
      "type": "function"
    },
    {
      "inputs": [],
      "name": "getOwner",
      "outputs": [
        {
          "internalType": "address",
          "name": "",
          "type": "address"
        }
      ],
      "stateMutability": "view",
      "type": "function",
      "constant": true
    },
    {
      "inputs": [],
      "name": "getCounter",
      "outputs": [
        {
          "internalType": "uint256",
          "name": "",
          "type": "uint256"
        }
      ],
      "stateMutability": "view",
      "type": "function",
      "constant": true
    },
    {
      "inputs": [
        {
          "internalType": "string",
          "name": "id",
          "type": "string"
        }
      ],
      "name": "setHashStorageId",
      "outputs": [],
      "stateMutability": "nonpayable",
      "type": "function"
    },
    {
      "inputs": [],
      "name": "getHashStorageId",
      "outputs": [
        {
          "internalType": "string",
          "name": "",
          "type": "string"
        }
      ],
      "stateMutability": "view",
      "type": "function",
      "constant": true
    },
    {
      "inputs": [],
      "name": "getRootHashes",
      "outputs": [
        {
          "internalType": "bytes32[]",
          "name": "",
          "type": "bytes32[]"
        }
      ],
      "stateMutability": "view",
      "type": "function",
      "constant": true
    },
    {
      "inputs": [
        {
          "internalType": "address payable",
          "name": "addr",
          "type": "address"
        }
      ],
      "name": "setDrainAddress",
      "outputs": [],
      "stateMutability": "nonpayable",
      "type": "function"
    },
    {
      "inputs": [
        {
          "internalType": "uint256",
          "name": "amount",
          "type": "uint256"
        }
      ],
      "name": "setDailyLimit",
      "outputs": [],
      "stateMutability": "nonpayable",
      "type": "function"
    },
    {
      "inputs": [
        {
          "internalType": "address",
          "name": "guardian",
          "type": "address"
        }
      ],
      "name": "addGuardian",
      "outputs": [],
      "stateMutability": "nonpayable",
      "type": "function"
    },
    {
      "inputs": [
        {
          "internalType": "address",
          "name": "guardian",
          "type": "address"
        }
      ],
      "name": "revokeGuardian",
      "outputs": [],
      "stateMutability": "nonpayable",
      "type": "function"
    },
    {
      "inputs": [
        {
          "internalType": "address",
          "name": "addr",
          "type": "address"
        }
      ],
      "name": "isGuardian",
      "outputs": [
        {
          "internalType": "bool",
          "name": "",
          "type": "bool"
        }
      ],
      "stateMutability": "view",
      "type": "function",
      "constant": true
    },
    {
      "inputs": [],
      "name": "getGuardians",
      "outputs": [
        {
          "internalType": "address[]",
          "name": "",
          "type": "address[]"
        }
      ],
      "stateMutability": "view",
      "type": "function",
      "constant": true
    },
    {
      "inputs": [
        {
          "internalType": "address",
          "name": "newOwner_",
          "type": "address"
        }
      ],
      "name": "startRecoverGuardianOnly",
      "outputs": [],
      "stateMutability": "nonpayable",
      "type": "function"
    },
    {
      "inputs": [
        {
          "internalType": "bytes32",
          "name": "secretHash",
          "type": "bytes32"
        },
        {
          "internalType": "bytes32",
          "name": "dataHash",
          "type": "bytes32"
        }
      ],
      "name": "startRecoverCommit",
      "outputs": [],
      "stateMutability": "nonpayable",
      "type": "function"
    },
    {
      "inputs": [
        {
          "internalType": "address",
          "name": "newOwner",
          "type": "address"
        },
        {
          "internalType": "bytes32[]",
          "name": "confirmMaterial",
          "type": "bytes32[]"
        }
      ],
      "name": "startRecoveryReveal",
      "outputs": [],
      "stateMutability": "nonpayable",
      "type": "function"
    },
    {
      "inputs": [],
      "name": "isRecovering",
      "outputs": [
        {
          "internalType": "bool",
          "name": "",
          "type": "bool"
        }
      ],
      "stateMutability": "view",
      "type": "function",
      "constant": true
    },
    {
      "inputs": [],
      "name": "cancelRecovery",
      "outputs": [],
      "stateMutability": "nonpayable",
      "type": "function"
    },
    {
      "inputs": [],
      "name": "getRecovery",
      "outputs": [
        {
          "internalType": "address",
          "name": "",
          "type": "address"
        },
        {
          "internalType": "uint256",
          "name": "",
          "type": "uint256"
        }
      ],
      "stateMutability": "view",
      "type": "function",
      "constant": true
    },
    {
      "inputs": [],
      "name": "finalizeRecovery",
      "outputs": [],
      "stateMutability": "nonpayable",
      "type": "function"
    },
    {
      "inputs": [
        {
          "internalType": "address",
          "name": "newMasterCopy",
          "type": "address"
        }
      ],
      "name": "upgradeMasterCopy",
      "outputs": [],
      "stateMutability": "nonpayable",
      "type": "function"
    },
    {
      "inputs": [],
      "name": "getMasterCopy",
      "outputs": [
        {
          "internalType": "address",
          "name": "",
          "type": "address"
        }
      ],
      "stateMutability": "view",
      "type": "function",
      "constant": true
    },
    {
      "inputs": [
        {
          "internalType": "address",
          "name": "",
          "type": "address"
        },
        {
          "internalType": "address",
          "name": "",
          "type": "address"
        },
        {
          "internalType": "uint256",
          "name": "",
          "type": "uint256"
        },
        {
          "internalType": "uint256",
          "name": "",
          "type": "uint256"
        },
        {
          "internalType": "bytes",
          "name": "",
          "type": "bytes"
        }
      ],
      "name": "onERC1155Received",
      "outputs": [
        {
          "internalType": "bytes4",
          "name": "",
          "type": "bytes4"
        }
      ],
      "stateMutability": "pure",
      "type": "function",
      "constant": true
    },
    {
      "inputs": [
        {
          "internalType": "address",
          "name": "operator",
          "type": "address"
        },
        {
          "internalType": "address",
          "name": "from",
          "type": "address"
        },
        {
          "internalType": "uint256[]",
          "name": "ids",
          "type": "uint256[]"
        },
        {
          "internalType": "uint256[]",
          "name": "values",
          "type": "uint256[]"
        },
        {
          "internalType": "bytes",
          "name": "data",
          "type": "bytes"
        }
      ],
      "name": "onERC1155BatchReceived",
      "outputs": [
        {
          "internalType": "bytes4",
          "name": "",
          "type": "bytes4"
        }
      ],
      "stateMutability": "view",
      "type": "function",
      "constant": true
    },
    {
      "inputs": [
        {
          "internalType": "bytes4",
          "name": "interfaceID",
          "type": "bytes4"
        }
      ],
      "name": "supportsInterface",
      "outputs": [
        {
          "internalType": "bool",
          "name": "",
          "type": "bool"
        }
      ],
      "stateMutability": "pure",
      "type": "function",
      "constant": true
    },
    {
      "inputs": [
        {
          "internalType": "address",
          "name": "",
          "type": "address"
        },
        {
          "internalType": "address",
          "name": "",
          "type": "address"
        },
        {
          "internalType": "uint256",
          "name": "",
          "type": "uint256"
        },
        {
          "internalType": "bytes",
          "name": "",
          "type": "bytes"
        }
      ],
      "name": "onERC721Received",
      "outputs": [
        {
          "internalType": "bytes4",
          "name": "",
          "type": "bytes4"
        }
      ],
      "stateMutability": "pure",
      "type": "function",
      "constant": true
    }
  ],
  "bytecode": "0x608060405234801561001057600080fd5b506001601460006101000a81548160ff021916908315150217905550615ebb806200003c6000396000f3fe6080604052600436106101fd5760003560e01c80638df2730a1161010d578063bea6998f116100a0578063d50733221161006f578063d5073322146108dc578063de03371514610905578063e2ccb3051461092e578063ef24c73614610945578063f23a6e611461096e576103a7565b8063bea6998f14610832578063bfbe9beb1461085f578063c832fe5f14610888578063cabd82c5146108b3576103a7565b8063af648c3d116100dc578063af648c3d1461077a578063b20d30a9146107a3578063b6c38432146107cc578063bc197c81146107f5576103a7565b80638df2730a146106d457806391ac2788146106fd578063a526d83b14610728578063abea22cc14610751576103a7565b80632f23a3ab11610190578063706f76581161015f578063706f7658146105eb57806375a3f50d1461061757806379d3d98c14610655578063893d20e81461067e5780638ada066e146106a9576103a7565b80632f23a3ab14610538578063521eb2731461056157806354fd4d5014610597578063693b60a2146105c2576103a7565b80630c68ba21116101cc5780630c68ba2114610456578063150b7a02146104935780631f13938d146104d0578063248b1701146104fb576103a7565b806301ffc9a7146103ac57806304e80e90146103e95780630665f04b146104145780630ba234d61461043f576103a7565b366103a75760003411156103a557600160040160009054906101000a900473ffffffffffffffffffffffffffffffffffffffff1673ffffffffffffffffffffffffffffffffffffffff163373ffffffffffffffffffffffffffffffffffffffff161480156102725750670de0b6b3a764000034145b156103565760004790506000600160040160009054906101000a900473ffffffffffffffffffffffffffffffffffffffff1673ffffffffffffffffffffffffffffffffffffffff1682620186a0906040516102cc90614fb7565b600060405180830381858888f193505050503d806000811461030a576040519150601f19603f3d011682016040523d82523d6000602084013e61030f565b606091505b5050905080610353576040517f08c379a000000000000000000000000000000000000000000000000000000000815260040161034a906154a2565b60405180910390fd5b50505b3373ffffffffffffffffffffffffffffffffffffffff167fe1fffcc4923d04b559f4d29a8bfc6cda04eb5b0d3c460751c2402c5c5cc9109c3460405161039c919061570d565b60405180910390a25b005b600080fd5b3480156103b857600080fd5b506103d360048036038101906103ce91906140ca565b6109ab565b6040516103e091906151de565b60405180910390f35b3480156103f557600080fd5b506103fe610a9a565b60405161040b9190614fcc565b60405180910390f35b34801561042057600080fd5b50610429610ac3565b6040516104369190615156565b60405180910390f35b34801561044b57600080fd5b50610454610b54565b005b34801561046257600080fd5b5061047d60048036038101906104789190613c38565b610cc1565b60405161048a91906151de565b60405180910390f35b34801561049f57600080fd5b506104ba60048036038101906104b59190613d92565b610d56565b6040516104c791906151f9565b60405180910390f35b3480156104dc57600080fd5b506104e5610d6b565b6040516104f291906152d4565b60405180910390f35b34801561050757600080fd5b50610522600480360381019061051d9190613ff7565b610e00565b60405161052f91906151bc565b60405180910390f35b34801561054457600080fd5b5061055f600480360381019061055a9190614320565b6110e0565b005b34801561056d57600080fd5b50610576611240565b60405161058e9c9b9a9998979695949392919061506c565b60405180910390f35b3480156105a357600080fd5b506105ac6113fa565b6040516105b9919061570d565b60405180910390f35b3480156105ce57600080fd5b506105e960048036038101906105e49190614161565b6113ff565b005b3480156105f757600080fd5b5061060061168c565b60405161060e92919061512d565b60405180910390f35b34801561062357600080fd5b5061063e6004803603810190610639919061411c565b6116c9565b60405161064c929190615751565b60405180910390f35b34801561066157600080fd5b5061067c60048036038101906106779190614237565b611b6d565b005b34801561068a57600080fd5b50610693611c6b565b6040516106a09190614fcc565b60405180910390f35b3480156106b557600080fd5b506106be611c98565b6040516106cb919061570d565b60405180910390f35b3480156106e057600080fd5b506106fb60048036038101906106f6919061408e565b611ca5565b005b34801561070957600080fd5b50610712611dde565b60405161071f91906151de565b60405180910390f35b34801561073457600080fd5b5061074f600480360381019061074a9190613c38565b611df1565b005b34801561075d57600080fd5b5061077860048036038101906107739190613c8a565b611f45565b005b34801561078657600080fd5b506107a1600480360381019061079c9190613c38565b6121cc565b005b3480156107af57600080fd5b506107ca60048036038101906107c591906143a9565b612320565b005b3480156107d857600080fd5b506107f360048036038101906107ee9190613c61565b612412565b005b34801561080157600080fd5b5061081c60048036038101906108179190613cc6565b61253e565b60405161082991906151f9565b60405180910390f35b34801561083e57600080fd5b5061084761269f565b604051610856939291906152f6565b60405180910390f35b34801561086b57600080fd5b506108866004803603810190610881919061427c565b61284f565b005b34801561089457600080fd5b5061089d612896565b6040516108aa919061519a565b60405180910390f35b3480156108bf57600080fd5b506108da60048036038101906108d59190613ea4565b6128f0565b005b3480156108e857600080fd5b5061090360048036038101906108fe9190613efc565b612f82565b005b34801561091157600080fd5b5061092c60048036038101906109279190613c38565b6133ab565b005b34801561093a57600080fd5b50610943613493565b005b34801561095157600080fd5b5061096c60048036038101906109679190613c38565b6134ff565b005b34801561097a57600080fd5b5061099560048036038101906109909190613e12565b6135dc565b6040516109a291906151f9565b60405180910390f35b60006301ffc9a760e01b7bffffffffffffffffffffffffffffffffffffffffffffffffffffffff1916827bffffffffffffffffffffffffffffffffffffffffffffffffffffffff19161480610a44575063f23a6e6160e01b7bffffffffffffffffffffffffffffffffffffffffffffffffffffffff1916827bffffffffffffffffffffffffffffffffffffffffffffffffffffffff1916145b80610a93575063150b7a0260e01b7bffffffffffffffffffffffffffffffffffffffffffffffffffffffff1916827bffffffffffffffffffffffffffffffffffffffffffffffffffffffff1916145b9050919050565b60008060009054906101000a900473ffffffffffffffffffffffffffffffffffffffff16905090565b60606001600501805480602002602001604051908101604052809291908181526020018280548015610b4a57602002820191906000526020600020905b8160009054906101000a900473ffffffffffffffffffffffffffffffffffffffff1673ffffffffffffffffffffffffffffffffffffffff1681526020019060010190808311610b00575b5050505050905090565b3073ffffffffffffffffffffffffffffffffffffffff163373ffffffffffffffffffffffffffffffffffffffff161480610bfa5750600160000160009054906101000a900473ffffffffffffffffffffffffffffffffffffffff1673ffffffffffffffffffffffffffffffffffffffff163373ffffffffffffffffffffffffffffffffffffffff16148015610bf95750600160000160149054906101000a900460ff16155b5b610c39576040517f08c379a0000000000000000000000000000000000000000000000000000000008152600401610c3090615502565b60405180910390fd5b6040518060400160405280600073ffffffffffffffffffffffffffffffffffffffff16815260200160008152506001600b0160008201518160000160006101000a81548173ffffffffffffffffffffffffffffffffffffffff021916908373ffffffffffffffffffffffffffffffffffffffff16021790555060208201518160010155905050565b6000600173__Guardians_____________________________63121c95629091846040518363ffffffff1660e01b8152600401610cff9291906155fd565b60206040518083038186803b158015610d1757600080fd5b505af4158015610d2b573d6000803e3d6000fd5b505050506040513d601f19601f82011682018060405250810190610d4f919061403c565b9050919050565b600063150b7a0260e01b905095945050505050565b60606001600a018054610d7d90615bcb565b80601f0160208091040260200160405190810160405280929190818152602001828054610da990615bcb565b8015610df65780601f10610dcb57610100808354040283529160200191610df6565b820191906000526020600020905b815481529060010190602001808311610dd957829003601f168201915b5050505050905090565b60603073ffffffffffffffffffffffffffffffffffffffff163373ffffffffffffffffffffffffffffffffffffffff161480610ea85750600160000160009054906101000a900473ffffffffffffffffffffffffffffffffffffffff1673ffffffffffffffffffffffffffffffffffffffff163373ffffffffffffffffffffffffffffffffffffffff16148015610ea75750600160000160149054906101000a900460ff16155b5b610ee7576040517f08c379a0000000000000000000000000000000000000000000000000000000008152600401610ede90615502565b60405180910390fd5b60008383905067ffffffffffffffff811115610f2c577f4e487b7100000000000000000000000000000000000000000000000000000000600052604160045260246000fd5b604051908082528060200260200182016040528015610f5f57816020015b6060815260200190600190039081610f4a5790505b50905060005b848490508110156110d55761107e858583818110610fac577f4e487b7100000000000000000000000000000000000000000000000000000000600052603260045260246000fd5b9050602002810190610fbe9190615828565b6000016020810190610fd09190613c38565b868684818110611009577f4e487b7100000000000000000000000000000000000000000000000000000000600052603260045260246000fd5b905060200281019061101b9190615828565b60200135878785818110611058577f4e487b7100000000000000000000000000000000000000000000000000000000600052603260045260246000fd5b905060200281019061106a9190615828565b8060400190611079919061577a565b6135f2565b8282815181106110b7577f4e487b7100000000000000000000000000000000000000000000000000000000600052603260045260246000fd5b602002602001018190525080806110cd90615bfd565b915050610f65565b508091505092915050565b3073ffffffffffffffffffffffffffffffffffffffff163373ffffffffffffffffffffffffffffffffffffffff1614806111865750600160000160009054906101000a900473ffffffffffffffffffffffffffffffffffffffff1673ffffffffffffffffffffffffffffffffffffffff163373ffffffffffffffffffffffffffffffffffffffff161480156111855750600160000160149054906101000a900460ff16155b5b6111c5576040517f08c379a00000000000000000000000000000000000000000000000000000000081526004016111bc90615502565b60405180910390fd5b600173__NameService___________________________63145f7620909187878787876040518763ffffffff1660e01b815260040161120996959493929190615626565b60006040518083038186803b15801561122157600080fd5b505af4158015611235573d6000803e3d6000fd5b505050505050505050565b60018060000160009054906101000a900473ffffffffffffffffffffffffffffffffffffffff16908060000160149054906101000a900460ff16908060020160009054906101000a900460ff16908060030154908060040160009054906101000a900473ffffffffffffffffffffffffffffffffffffffff169080600701549080600801549080600901549080600a0180546112db90615bcb565b80601f016020809104026020016040519081016040528092919081815260200182805461130790615bcb565b80156113545780601f1061132957610100808354040283529160200191611354565b820191906000526020600020905b81548152906001019060200180831161133757829003601f168201915b50505050509080600b016040518060400160405290816000820160009054906101000a900473ffffffffffffffffffffffffffffffffffffffff1673ffffffffffffffffffffffffffffffffffffffff1673ffffffffffffffffffffffffffffffffffffffff1681526020016001820154815250509080600e0160009054906101000a900473ffffffffffffffffffffffffffffffffffffffff169080600f015490508c565b600181565b60005a905061140c6138de565b6114168b8b6116c9565b8260000183602001826004811115611457577f4e487b7100000000000000000000000000000000000000000000000000000000600052602160045260246000fd5b600481111561148f577f4e487b7100000000000000000000000000000000000000000000000000000000600052602160045260246000fd5b8152508260ff1660ff16815250505073__MetaTx________________________________631815d80160018d8d8d8d8d8d8d8c8b6040518b63ffffffff1660e01b81526004016114e89a9998979695949392919061567d565b60006040518083038186803b15801561150057600080fd5b505af4158015611514573d6000803e3d6000fd5b50505050600060603073ffffffffffffffffffffffffffffffffffffffff168d8d604051611543929190614f9e565b6000604051808303816000865af19150503d8060008114611580576040519150601f19603f3d011682016040523d82523d6000602084013e611585565b606091505b50809250819350505060008811801561159b5750815b80156115d45750600073ffffffffffffffffffffffffffffffffffffffff168573ffffffffffffffffffffffffffffffffffffffff1614155b15611640576000620111705a866115eb9190615a05565b6115f5919061597e565b90508573ffffffffffffffffffffffffffffffffffffffff166108fc829081150290604051600060405180830381858888f1935050505015801561163d573d6000803e3d6000fd5b50505b8115157f8e2386b9ce82e5e79311687a54408ad06fa06a338e2057cdcdfaf3a076743f1e82600060405161167592919061525b565b60405180910390a250505050505050505050505050565b6000806001600b0160000160009054906101000a900473ffffffffffffffffffffffffffffffffffffffff166001600b0160010154915091509091565b600080600061171b85858080601f016020809104026020016040519081016040528093929190818152602001838380828437600081840152601f19601f820116905080830192505050505050506136d6565b905063abea22cc60e01b7bffffffffffffffffffffffffffffffffffffffffffffffffffffffff1916817bffffffffffffffffffffffffffffffffffffffffffffffffffffffff191614806117b4575063248b170160e01b7bffffffffffffffffffffffffffffffffffffffffffffffffffffffff1916817bffffffffffffffffffffffffffffffffffffffffffffffffffffffff1916145b80611803575063a526d83b60e01b7bffffffffffffffffffffffffffffffffffffffffffffffffffffffff1916817bffffffffffffffffffffffffffffffffffffffffffffffffffffffff1916145b80611852575063af648c3d60e01b7bffffffffffffffffffffffffffffffffffffffffffffffffffffffff1916817bffffffffffffffffffffffffffffffffffffffffffffffffffffffff1916145b806118a1575063de03371560e01b7bffffffffffffffffffffffffffffffffffffffffffffffffffffffff1916817bffffffffffffffffffffffffffffffffffffffffffffffffffffffff1916145b806118f0575063b20d30a960e01b7bffffffffffffffffffffffffffffffffffffffffffffffffffffffff1916817bffffffffffffffffffffffffffffffffffffffffffffffffffffffff1916145b8061193f575063b6c3843260e01b7bffffffffffffffffffffffffffffffffffffffffffffffffffffffff1916817bffffffffffffffffffffffffffffffffffffffffffffffffffffffff1916145b8061198e57506379d3d98c60e01b7bffffffffffffffffffffffffffffffffffffffffffffffffffffffff1916817bffffffffffffffffffffffffffffffffffffffffffffffffffffffff1916145b156119a0576001809250925050611b66565b63ef24c73660e01b7bffffffffffffffffffffffffffffffffffffffffffffffffffffffff1916817bffffffffffffffffffffffffffffffffffffffffffffffffffffffff19161415611a5e5760026001600501805490501015611a39576040517f08c379a0000000000000000000000000000000000000000000000000000000008152600401611a3090615382565b60405180910390fd5b6000611a4e6001600501805490506002613729565b9050806003935093505050611b66565b638df2730a60e01b7bffffffffffffffffffffffffffffffffffffffffffffffffffffffff1916817bffffffffffffffffffffffffffffffffffffffffffffffffffffffff19161415611ad0576000611ac06001600501805490506002613729565b9050806003935093505050611b66565b63cabd82c560e01b7bffffffffffffffffffffffffffffffffffffffffffffffffffffffff1916817bffffffffffffffffffffffffffffffffffffffffffffffffffffffff19161415611b2b57600060039250925050611b66565b6040517f08c379a0000000000000000000000000000000000000000000000000000000008152600401611b5d906155a2565b60405180910390fd5b9250929050565b3073ffffffffffffffffffffffffffffffffffffffff163373ffffffffffffffffffffffffffffffffffffffff161480611c135750600160000160009054906101000a900473ffffffffffffffffffffffffffffffffffffffff1673ffffffffffffffffffffffffffffffffffffffff163373ffffffffffffffffffffffffffffffffffffffff16148015611c125750600160000160149054906101000a900460ff16155b5b611c52576040517f08c379a0000000000000000000000000000000000000000000000000000000008152600401611c4990615502565b60405180910390fd5b81816001600a019190611c66929190613933565b505050565b6000600160000160009054906101000a900473ffffffffffffffffffffffffffffffffffffffff16905090565b6000600160030154905090565b3073ffffffffffffffffffffffffffffffffffffffff163373ffffffffffffffffffffffffffffffffffffffff1614611d13576040517f08c379a0000000000000000000000000000000000000000000000000000000008152600401611d0a906154e2565b60405180910390fd5b60006001600d0160008481526020019081526020016000206001015414611d6f576040517f08c379a0000000000000000000000000000000000000000000000000000000008152600401611d6690615342565b60405180910390fd5b6040518060600160405280828152602001438152602001600015158152506001600d016000848152602001908152602001600020600082015181600001556020820151816001015560408201518160020160006101000a81548160ff0219169083151502179055509050505050565b6000806001600b01600101541415905090565b3073ffffffffffffffffffffffffffffffffffffffff163373ffffffffffffffffffffffffffffffffffffffff161480611e975750600160000160009054906101000a900473ffffffffffffffffffffffffffffffffffffffff1673ffffffffffffffffffffffffffffffffffffffff163373ffffffffffffffffffffffffffffffffffffffff16148015611e965750600160000160149054906101000a900460ff16155b5b611ed6576040517f08c379a0000000000000000000000000000000000000000000000000000000008152600401611ecd90615502565b60405180910390fd5b600173__Guardians_____________________________6397b9ce099091836040518363ffffffff1660e01b8152600401611f129291906155fd565b60006040518083038186803b158015611f2a57600080fd5b505af4158015611f3e573d6000803e3d6000fd5b5050505050565b3073ffffffffffffffffffffffffffffffffffffffff163373ffffffffffffffffffffffffffffffffffffffff161480611feb5750600160000160009054906101000a900473ffffffffffffffffffffffffffffffffffffffff1673ffffffffffffffffffffffffffffffffffffffff163373ffffffffffffffffffffffffffffffffffffffff16148015611fea5750600160000160149054906101000a900460ff16155b5b61202a576040517f08c379a000000000000000000000000000000000000000000000000000000000815260040161202190615502565b60405180910390fd5b61203e81600161376e90919063ffffffff16565b61207d576040517f08c379a000000000000000000000000000000000000000000000000000000000815260040161207490615582565b60405180910390fd5b804710156120c0576040517f08c379a00000000000000000000000000000000000000000000000000000000081526004016120b790615462565b60405180910390fd5b80600160090160008282546120d5919061597e565b9250508190555060008273ffffffffffffffffffffffffffffffffffffffff1682620186a09060405161210790614fb7565b600060405180830381858888f193505050503d8060008114612145576040519150601f19603f3d011682016040523d82523d6000602084013e61214a565b606091505b505090508061218e576040517f08c379a000000000000000000000000000000000000000000000000000000000815260040161218590615542565b60405180910390fd5b7f688077ec2e4cf5b023188b3c964a1a6481e6ff3fd3d3af3971ae0bf2172f756583836040516121bf929190614fe7565b60405180910390a1505050565b3073ffffffffffffffffffffffffffffffffffffffff163373ffffffffffffffffffffffffffffffffffffffff1614806122725750600160000160009054906101000a900473ffffffffffffffffffffffffffffffffffffffff1673ffffffffffffffffffffffffffffffffffffffff163373ffffffffffffffffffffffffffffffffffffffff161480156122715750600160000160149054906101000a900460ff16155b5b6122b1576040517f08c379a00000000000000000000000000000000000000000000000000000000081526004016122a890615502565b60405180910390fd5b600173__Guardians_____________________________63e98ee0859091836040518363ffffffff1660e01b81526004016122ed9291906155fd565b60006040518083038186803b15801561230557600080fd5b505af4158015612319573d6000803e3d6000fd5b5050505050565b3073ffffffffffffffffffffffffffffffffffffffff163373ffffffffffffffffffffffffffffffffffffffff1614806123c65750600160000160009054906101000a900473ffffffffffffffffffffffffffffffffffffffff1673ffffffffffffffffffffffffffffffffffffffff163373ffffffffffffffffffffffffffffffffffffffff161480156123c55750600160000160149054906101000a900460ff16155b5b612405576040517f08c379a00000000000000000000000000000000000000000000000000000000081526004016123fc90615502565b60405180910390fd5b8060016007018190555050565b3073ffffffffffffffffffffffffffffffffffffffff163373ffffffffffffffffffffffffffffffffffffffff1614806124b85750600160000160009054906101000a900473ffffffffffffffffffffffffffffffffffffffff1673ffffffffffffffffffffffffffffffffffffffff163373ffffffffffffffffffffffffffffffffffffffff161480156124b75750600160000160149054906101000a900460ff16155b5b6124f7576040517f08c379a00000000000000000000000000000000000000000000000000000000081526004016124ee90615502565b60405180910390fd5b80600160040160006101000a81548173ffffffffffffffffffffffffffffffffffffffff021916908373ffffffffffffffffffffffffffffffffffffffff16021790555050565b600080600090505b878790508163ffffffff161015612688573073ffffffffffffffffffffffffffffffffffffffff1663f23a6e618b8b8b8b8663ffffffff168181106125b4577f4e487b7100000000000000000000000000000000000000000000000000000000600052603260045260246000fd5b905060200201358a8a8763ffffffff168181106125fa577f4e487b7100000000000000000000000000000000000000000000000000000000600052603260045260246000fd5b9050602002013589896040518763ffffffff1660e01b815260040161262496959493929190615010565b60206040518083038186803b15801561263c57600080fd5b505afa158015612650573d6000803e3d6000fd5b505050506040513d601f19601f8201168201806040525081019061267491906140f3565b50808061268090615c46565b915050612546565b5063bc197c8160e01b905098975050505050505050565b60118060000180546126b090615bcb565b80601f01602080910402602001604051908101604052809291908181526020018280546126dc90615bcb565b80156127295780601f106126fe57610100808354040283529160200191612729565b820191906000526020600020905b81548152906001019060200180831161270c57829003601f168201915b50505050509080600101805461273e90615bcb565b80601f016020809104026020016040519081016040528092919081815260200182805461276a90615bcb565b80156127b75780601f1061278c576101008083540402835291602001916127b7565b820191906000526020600020905b81548152906001019060200180831161279a57829003601f168201915b5050505050908060020180546127cc90615bcb565b80601f01602080910402602001604051908101604052809291908181526020018280546127f890615bcb565b80156128455780601f1061281a57610100808354040283529160200191612845565b820191906000526020600020905b81548152906001019060200180831161282857829003601f168201915b5050505050905083565b858560116000019190612863929190613933565b50838360116001019190612878929190613933565b5081816011600201919061288d929190613933565b50505050505050565b6060600180018054806020026020016040519081016040528092919081815260200182805480156128e657602002820191906000526020600020905b8154815260200190600101908083116128d2575b5050505050905090565b3073ffffffffffffffffffffffffffffffffffffffff163373ffffffffffffffffffffffffffffffffffffffff161461295e576040517f08c379a0000000000000000000000000000000000000000000000000000000008152600401612955906154e2565b60405180910390fd5b818180806020026020016040519081016040528093929190818152602001838360200280828437600081840152601f19601f82011690508083019250505050505050600073__Recovery______________________________63a6659f26836040518263ffffffff1660e01b81526004016129d99190615178565b60206040518083038186803b1580156129f157600080fd5b505af4158015612a05573d6000803e3d6000fd5b505050506040513d601f19601f82011682018060405250810190612a299190614065565b9050600073__Recovery______________________________63396c8e65600160020160009054906101000a900460ff168560018751612a699190615a05565b81518110612aa0577f4e487b7100000000000000000000000000000000000000000000000000000000600052603260045260246000fd5b60200260200101516040518363ffffffff1660e01b8152600401612ac5929190615728565b60206040518083038186803b158015612add57600080fd5b505af4158015612af1573d6000803e3d6000fd5b505050506040513d601f19601f82011682018060405250810190612b1591906143d2565b90506001600301548163ffffffff161015612b65576040517f08c379a0000000000000000000000000000000000000000000000000000000008152600401612b5c90615482565b60405180910390fd5b60326001600301548263ffffffff16612b7e9190615a05565b10612bbe576040517f08c379a0000000000000000000000000000000000000000000000000000000008152600401612bb5906154c2565b60405180910390fd5b6000805b60018001805490508163ffffffff161015612c4357600180018163ffffffff1681548110612c19577f4e487b7100000000000000000000000000000000000000000000000000000000600052603260045260246000fd5b9060005260206000200154841415612c3057600191505b8080612c3b90615c46565b915050612bc2565b5080612c84576040517f08c379a0000000000000000000000000000000000000000000000000000000008152600401612c7b906153c2565b60405180910390fd5b600086866000818110612cc0577f4e487b7100000000000000000000000000000000000000000000000000000000600052603260045260246000fd5b90506020020135604051602001612cd79190614f83565b60405160208183030381529060405280519060200120905060006001600d016000838152602001908152602001600020600101541415612d4c576040517f08c379a0000000000000000000000000000000000000000000000000000000008152600401612d4390615362565b60405180910390fd5b600015156001600d01600083815260200190815260200160002060020160009054906101000a900460ff16151514612db9576040517f08c379a0000000000000000000000000000000000000000000000000000000008152600401612db090615402565b60405180910390fd5b600f6001600d0160008381526020019081526020016000206001015443612de09190615a05565b10612e20576040517f08c379a0000000000000000000000000000000000000000000000000000000008152600401612e1790615562565b60405180910390fd5b60008888886000818110612e5d577f4e487b7100000000000000000000000000000000000000000000000000000000600052603260045260246000fd5b90506020020135604051602001612e75929190614f57565b6040516020818303038152906040528051906020012090506001600d016000838152602001908152602001600020600001548114612ee8576040517f08c379a0000000000000000000000000000000000000000000000000000000008152600401612edf906155c2565b60405180910390fd5b600180600d01600084815260200190815260200160002060020160006101000a81548160ff02191690831515021790555088600160000160006101000a81548173ffffffffffffffffffffffffffffffffffffffff021916908373ffffffffffffffffffffffffffffffffffffffff16021790555060018060030154612f6e919061597e565b600160030181905550505050505050505050565b896001600e0160006101000a81548173ffffffffffffffffffffffffffffffffffffffff021916908373ffffffffffffffffffffffffffffffffffffffff160217905550600073ffffffffffffffffffffffffffffffffffffffff16600160000160009054906101000a900473ffffffffffffffffffffffffffffffffffffffff1673ffffffffffffffffffffffffffffffffffffffff161461305a576040517f08c379a0000000000000000000000000000000000000000000000000000000008152600401613051906153a2565b60405180910390fd5b8047101561309d576040517f08c379a000000000000000000000000000000000000000000000000000000000815260040161309490615522565b60405180910390fd5b87600160000160006101000a81548173ffffffffffffffffffffffffffffffffffffffff021916908373ffffffffffffffffffffffffffffffffffffffff16021790555060005b878790508163ffffffff161015613178576001800188888363ffffffff16818110613138577f4e487b7100000000000000000000000000000000000000000000000000000000600052603260045260246000fd5b905060200201359080600181540180825580915050600190039060005260206000200160009091909190915055808061317090615c46565b9150506130e4565b5084600160020160006101000a81548160ff021916908360ff16021790555083600160040160006101000a81548173ffffffffffffffffffffffffffffffffffffffff021916908373ffffffffffffffffffffffffffffffffffffffff16021790555082600160070181905550600089600060028110613221577f4e487b7100000000000000000000000000000000000000000000000000000000600052603260045260246000fd5b60200281019061323191906157d1565b90501115613341573073ffffffffffffffffffffffffffffffffffffffff16632f23a3ab8a60006002811061328f577f4e487b7100000000000000000000000000000000000000000000000000000000600052603260045260246000fd5b60200281019061329f91906157d1565b8c6001600281106132d9577f4e487b7100000000000000000000000000000000000000000000000000000000600052603260045260246000fd5b6020028101906132e991906157d1565b6301e133806040518663ffffffff1660e01b815260040161330e95949392919061528b565b600060405180830381600087803b15801561332857600080fd5b505af115801561333c573d6000803e3d6000fd5b505050505b600073ffffffffffffffffffffffffffffffffffffffff168273ffffffffffffffffffffffffffffffffffffffff161461339f5761339e818373ffffffffffffffffffffffffffffffffffffffff166137ea90919063ffffffff16565b5b50505050505050505050565b3073ffffffffffffffffffffffffffffffffffffffff163373ffffffffffffffffffffffffffffffffffffffff1614613419576040517f08c379a0000000000000000000000000000000000000000000000000000000008152600401613410906154e2565b60405180910390fd5b806000806101000a81548173ffffffffffffffffffffffffffffffffffffffff021916908373ffffffffffffffffffffffffffffffffffffffff1602179055507f8a5dcb0249bae905183e794960410c37563e6ab514b1add384425d153972118d816040516134889190614fcc565b60405180910390a150565b600173__Recovery______________________________635fd7224790916040518263ffffffff1660e01b81526004016134cd91906155e2565b60006040518083038186803b1580156134e557600080fd5b505af41580156134f9573d6000803e3d6000fd5b50505050565b3073ffffffffffffffffffffffffffffffffffffffff163373ffffffffffffffffffffffffffffffffffffffff161461356d576040517f08c379a0000000000000000000000000000000000000000000000000000000008152600401613564906154e2565b60405180910390fd5b600173__Recovery______________________________636ffc1c629091836040518363ffffffff1660e01b81526004016135a99291906155fd565b60006040518083038186803b1580156135c157600080fd5b505af41580156135d5573d6000803e3d6000fd5b5050505050565b600063f23a6e6160e01b90509695505050505050565b606060008573ffffffffffffffffffffffffffffffffffffffff1685858560405161361e929190614f9e565b60006040518083038185875af1925050503d806000811461365b576040519150601f19603f3d011682016040523d82523d6000602084013e613660565b606091505b508093508192505050848673ffffffffffffffffffffffffffffffffffffffff167f79ff2e3e6b1a9fd5afa9ad7b27b6075a3f05484916a94f800548947efa77e83b868685876040516136b69493929190615214565b60405180910390a3806136cd573d6000803e3d6000fd5b50949350505050565b600060048251101561371d576040517f08c379a0000000000000000000000000000000000000000000000000000000008152600401613714906153e2565b60405180910390fd5b60208201519050919050565b600080828461373891906159d4565b9050600083856137489190615ca1565b14156137575780915050613768565b600181613764919061597e565b9150505b92915050565b6000620151808360080154613783919061597e565b42111561379e57428360080181905550600083600901819055505b82600701548284600901546137b3919061597e565b11806137d1575082600901548284600901546137cf919061597e565b105b156137df57600090506137e4565b600190505b92915050565b8047101561382d576040517f08c379a000000000000000000000000000000000000000000000000000000000815260040161382490615442565b60405180910390fd5b60008273ffffffffffffffffffffffffffffffffffffffff168260405161385390614fb7565b60006040518083038185875af1925050503d8060008114613890576040519150601f19603f3d011682016040523d82523d6000602084013e613895565b606091505b50509050806138d9576040517f08c379a00000000000000000000000000000000000000000000000000000000081526004016138d090615422565b60405180910390fd5b505050565b6040518060400160405280600060ff1681526020016000600481111561392d577f4e487b7100000000000000000000000000000000000000000000000000000000600052602160045260246000fd5b81525090565b82805461393f90615bcb565b90600052602060002090601f01602090048101928261396157600085556139a8565b82601f1061397a57803560ff19168380011785556139a8565b828001600101855582156139a8579182015b828111156139a757823582559160200191906001019061398c565b5b5090506139b591906139b9565b5090565b5b808211156139d25760008160009055506001016139ba565b5090565b6000813590506139e581615dcd565b92915050565b6000813590506139fa81615de4565b92915050565b60008083601f840112613a1257600080fd5b8235905067ffffffffffffffff811115613a2b57600080fd5b602083019150836020820283011115613a4357600080fd5b9250929050565b600081905082602060020282011115613a6257600080fd5b92915050565b60008083601f840112613a7a57600080fd5b8235905067ffffffffffffffff811115613a9357600080fd5b602083019150836020820283011115613aab57600080fd5b9250929050565b60008083601f840112613ac457600080fd5b8235905067ffffffffffffffff811115613add57600080fd5b602083019150836020820283011115613af557600080fd5b9250929050565b600081519050613b0b81615dfb565b92915050565b600081359050613b2081615e12565b92915050565b600081519050613b3581615e12565b92915050565b600081359050613b4a81615e29565b92915050565b600081519050613b5f81615e29565b92915050565b60008083601f840112613b7757600080fd5b8235905067ffffffffffffffff811115613b9057600080fd5b602083019150836001820283011115613ba857600080fd5b9250929050565b60008083601f840112613bc157600080fd5b8235905067ffffffffffffffff811115613bda57600080fd5b602083019150836001820283011115613bf257600080fd5b9250929050565b600081359050613c0881615e40565b92915050565b600081519050613c1d81615e57565b92915050565b600081359050613c3281615e6e565b92915050565b600060208284031215613c4a57600080fd5b6000613c58848285016139d6565b91505092915050565b600060208284031215613c7357600080fd5b6000613c81848285016139eb565b91505092915050565b60008060408385031215613c9d57600080fd5b6000613cab858286016139eb565b9250506020613cbc85828601613bf9565b9150509250929050565b60008060008060008060008060a0898b031215613ce257600080fd5b6000613cf08b828c016139d6565b9850506020613d018b828c016139d6565b975050604089013567ffffffffffffffff811115613d1e57600080fd5b613d2a8b828c01613ab2565b9650965050606089013567ffffffffffffffff811115613d4957600080fd5b613d558b828c01613ab2565b9450945050608089013567ffffffffffffffff811115613d7457600080fd5b613d808b828c01613b65565b92509250509295985092959890939650565b600080600080600060808688031215613daa57600080fd5b6000613db8888289016139d6565b9550506020613dc9888289016139d6565b9450506040613dda88828901613bf9565b935050606086013567ffffffffffffffff811115613df757600080fd5b613e0388828901613b65565b92509250509295509295909350565b60008060008060008060a08789031215613e2b57600080fd5b6000613e3989828a016139d6565b9650506020613e4a89828a016139d6565b9550506040613e5b89828a01613bf9565b9450506060613e6c89828a01613bf9565b935050608087013567ffffffffffffffff811115613e8957600080fd5b613e9589828a01613b65565b92509250509295509295509295565b600080600060408486031215613eb957600080fd5b6000613ec7868287016139d6565b935050602084013567ffffffffffffffff811115613ee457600080fd5b613ef086828701613a00565b92509250509250925092565b6000806000806000806000806000806101208b8d031215613f1c57600080fd5b6000613f2a8d828e016139d6565b9a505060208b013567ffffffffffffffff811115613f4757600080fd5b613f538d828e01613a4a565b9950506040613f648d828e016139d6565b98505060608b013567ffffffffffffffff811115613f8157600080fd5b613f8d8d828e01613a00565b97509750506080613fa08d828e01613c23565b95505060a0613fb18d828e016139eb565b94505060c0613fc28d828e01613bf9565b93505060e0613fd38d828e016139d6565b925050610100613fe58d828e01613bf9565b9150509295989b9194979a5092959850565b6000806020838503121561400a57600080fd5b600083013567ffffffffffffffff81111561402457600080fd5b61403085828601613a68565b92509250509250929050565b60006020828403121561404e57600080fd5b600061405c84828501613afc565b91505092915050565b60006020828403121561407757600080fd5b600061408584828501613b26565b91505092915050565b600080604083850312156140a157600080fd5b60006140af85828601613b11565b92505060206140c085828601613b11565b9150509250929050565b6000602082840312156140dc57600080fd5b60006140ea84828501613b3b565b91505092915050565b60006020828403121561410557600080fd5b600061411384828501613b50565b91505092915050565b6000806020838503121561412f57600080fd5b600083013567ffffffffffffffff81111561414957600080fd5b61415585828601613b65565b92509250509250929050565b600080600080600080600080600060e08a8c03121561417f57600080fd5b60008a013567ffffffffffffffff81111561419957600080fd5b6141a58c828d01613b65565b995099505060208a013567ffffffffffffffff8111156141c457600080fd5b6141d08c828d01613b65565b975097505060406141e38c828d01613bf9565b95505060606141f48c828d01613bf9565b94505060806142058c828d01613bf9565b93505060a06142168c828d016139d6565b92505060c06142278c828d016139eb565b9150509295985092959850929598565b6000806020838503121561424a57600080fd5b600083013567ffffffffffffffff81111561426457600080fd5b61427085828601613baf565b92509250509250929050565b6000806000806000806060878903121561429557600080fd5b600087013567ffffffffffffffff8111156142af57600080fd5b6142bb89828a01613baf565b9650965050602087013567ffffffffffffffff8111156142da57600080fd5b6142e689828a01613baf565b9450945050604087013567ffffffffffffffff81111561430557600080fd5b61431189828a01613baf565b92509250509295509295509295565b60008060008060006060868803121561433857600080fd5b600086013567ffffffffffffffff81111561435257600080fd5b61435e88828901613baf565b9550955050602086013567ffffffffffffffff81111561437d57600080fd5b61438988828901613baf565b9350935050604061439c88828901613bf9565b9150509295509295909350565b6000602082840312156143bb57600080fd5b60006143c984828501613bf9565b91505092915050565b6000602082840312156143e457600080fd5b60006143f284828501613c0e565b91505092915050565b60006144078383614484565b60208301905092915050565b600061441f8383614666565b60208301905092915050565b60006144378383614684565b60208301905092915050565b600061444f8383614738565b905092915050565b61446081615b03565b82525050565b61446f81615b03565b82525050565b61447e81615a4b565b82525050565b61448d81615a39565b82525050565b61449c81615a39565b82525050565b6144ab81615a39565b82525050565b6144c26144bd82615a39565b615c73565b82525050565b60006144d38261587c565b6144dd81856158da565b93506144e88361584c565b8060005b8381101561451957815161450088826143fb565b975061450b836158b3565b9250506001810190506144ec565b5085935050505092915050565b600061453182615887565b61453b81856158eb565b93506145468361585c565b8060005b8381101561457757815161455e8882614413565b9750614569836158c0565b92505060018101905061454a565b5085935050505092915050565b600061458f82615887565b61459981856158fc565b93506145a48361585c565b8060005b838110156145d55781516145bc888261442b565b97506145c7836158c0565b9250506001810190506145a8565b5085935050505092915050565b60006145ed82615892565b6145f7818561590d565b9350836020820285016146098561586c565b8060005b8581101561464557848403895281516146268582614443565b9450614631836158cd565b925060208a0199505060018101905061460d565b50829750879550505050505092915050565b61466081615a5d565b82525050565b61466f81615a69565b82525050565b61467e81615a69565b82525050565b61468d81615a69565b82525050565b6146a461469f82615a69565b615c85565b82525050565b6146b381615a73565b82525050565b60006146c5838561592f565b93506146d2838584615b89565b6146db83615d8e565b840190509392505050565b60006146f28385615940565b93506146ff838584615b89565b61470883615d8e565b840190509392505050565b600061471f8385615951565b935061472c838584615b89565b82840190509392505050565b60006147438261589d565b61474d818561591e565b935061475d818560208601615b98565b61476681615d8e565b840191505092915050565b600061477c8261589d565b614786818561592f565b9350614796818560208601615b98565b61479f81615d8e565b840191505092915050565b6147b381615b15565b82525050565b6147c281615b15565b82525050565b6147d181615b27565b82525050565b6147e081615b41565b82525050565b60006147f2838561595c565b93506147ff838584615b89565b61480883615d8e565b840190509392505050565b600061481f838561596d565b935061482c838584615b89565b61483583615d8e565b840190509392505050565b600061484b826158a8565b614855818561595c565b9350614865818560208601615b98565b61486e81615d8e565b840191505092915050565b600061488660148361595c565b91507f434f4d4d495420414c52454144592045584953540000000000000000000000006000830152602082019050919050565b60006148c660098361595c565b91507f4e4f20434f4d4d495400000000000000000000000000000000000000000000006000830152602082019050919050565b6000614906601a8361595c565b91507f4e4f545f4d4545545f4d494e494d554d5f475541524449414e530000000000006000830152602082019050919050565b600061494660138361595c565b91507f494e495449414c495a45445f414c5245414459000000000000000000000000006000830152602082019050919050565b600061498660108361595c565b91507f554e45585045435445442050524f4f46000000000000000000000000000000006000830152602082019050919050565b60006149c6601d8361595c565b91507f5574696c733a20496e76616c69642066756e6374696f6e5072656669780000006000830152602082019050919050565b6000614a0660178361595c565b91507f434f4d4d495420414c52454144592052455645414c45440000000000000000006000830152602082019050919050565b6000614a46603a8361595c565b91507f416464726573733a20756e61626c6520746f2073656e642076616c75652c207260008301527f6563697069656e74206d617920686176652072657665727465640000000000006020830152604082019050919050565b6000614aac601d8361595c565b91507f416464726573733a20696e73756666696369656e742062616c616e63650000006000830152602082019050919050565b6000614aec60128361595c565b91507f6e6f7420656e6f7567682062616c616e636500000000000000000000000000006000830152602082019050919050565b6000614b2c60288361595c565b91507f50726f766964656420636f756e746572206d757374206265206772656174657260008301527f206f722073616d650000000000000000000000000000000000000000000000006020830152604082019050919050565b6000614b92601d8361595c565b91507f526563656976653a2045787465726e616c2063616c6c206661696c65640000006000830152602082019050919050565b6000614bd2602f8361595c565b91507f50726f766964656420636f756e746572206d757374206e6f74206265206d6f7260008301527f65207468616e20353020737465707300000000000000000000000000000000006020830152604082019050919050565b6000614c38600e8361595c565b91507f6d757374206265206d65746174780000000000000000000000000000000000006000830152602082019050919050565b6000614c7860298361595c565b91507f4e4f545f46524f4d5f57414c4c45545f4f525f4f574e45525f4f525f57414c4c60008301527f45545f4c4f434b454400000000000000000000000000000000000000000000006020830152604082019050919050565b6000614cde60158361595c565b91507f4e4f5420454e4f55474820544f205041592046454500000000000000000000006000830152602082019050919050565b6000614d1e60228361595c565b91507f4d616b655472616e736665723a2045787465726e616c2063616c6c206661696c60008301527f65640000000000000000000000000000000000000000000000000000000000006020830152604082019050919050565b6000614d8460118361595c565b91507f436f6d6d697420697320746f6f206f6c640000000000000000000000000000006000830152602082019050919050565b6000614dc460158361595c565b91507f6f766572207769746864726177616c206c696d697400000000000000000000006000830152602082019050919050565b6000614e04600e8361595c565b91507f756e6b6e6f776e206d6574686f640000000000000000000000000000000000006000830152602082019050919050565b6000614e44600083615951565b9150600082019050919050565b6000614e5e60178361595c565b91507f446174616861736820646f6573206e6f74206d617463680000000000000000006000830152602082019050919050565b604082016000820151614ea76000850182614484565b506020820151614eba6020850182614efd565b50505050565b604082016000820151614ed66000850182614f48565b506020820151614ee960208501826147b9565b50505050565b8082525050565b8082525050565b614f0681615adc565b82525050565b614f1581615adc565b82525050565b614f2481615adc565b82525050565b614f3381615b77565b82525050565b614f4281615af6565b82525050565b614f5181615af6565b82525050565b6000614f6382856144b1565b601482019150614f738284614693565b6020820191508190509392505050565b6000614f8f8284614693565b60208201915081905092915050565b6000614fab828486614713565b91508190509392505050565b6000614fc282614e37565b9150819050919050565b6000602082019050614fe16000830184614493565b92915050565b6000604082019050614ffc6000830185614457565b6150096020830184614f0c565b9392505050565b600060a0820190506150256000830189614493565b6150326020830188614493565b61503f6040830187614f0c565b61504c6060830186614f0c565b818103608083015261505f8184866146b9565b9050979650505050505050565b60006101a082019050615082600083018f614493565b61508f602083018e614657565b61509c604083018d614f39565b6150a9606083018c614f0c565b6150b6608083018b614475565b6150c360a083018a614f0c565b6150d060c0830189614f0c565b6150dd60e0830188614f0c565b8181036101008301526150f08187614840565b9050615100610120830186614e91565b61510e610160830185614493565b61511c610180830184614f0c565b9d9c50505050505050505050505050565b60006040820190506151426000830185614493565b61514f6020830184614f0c565b9392505050565b6000602082019050818103600083015261517081846144c8565b905092915050565b600060208201905081810360008301526151928184614584565b905092915050565b600060208201905081810360008301526151b48184614526565b905092915050565b600060208201905081810360008301526151d681846145e2565b905092915050565b60006020820190506151f36000830184614657565b92915050565b600060208201905061520e60008301846146aa565b92915050565b6000606082019050818103600083015261522f8186886146b9565b905061523e6020830185614657565b81810360408301526152508184614771565b905095945050505050565b600060408201905081810360008301526152758185614771565b905061528460208301846147c8565b9392505050565b600060608201905081810360008301526152a68187896147e6565b905081810360208301526152bb8185876147e6565b90506152ca60408301846147d7565b9695505050505050565b600060208201905081810360008301526152ee8184614840565b905092915050565b600060608201905081810360008301526153108186614840565b905081810360208301526153248185614840565b905081810360408301526153388184614840565b9050949350505050565b6000602082019050818103600083015261535b81614879565b9050919050565b6000602082019050818103600083015261537b816148b9565b9050919050565b6000602082019050818103600083015261539b816148f9565b9050919050565b600060208201905081810360008301526153bb81614939565b9050919050565b600060208201905081810360008301526153db81614979565b9050919050565b600060208201905081810360008301526153fb816149b9565b9050919050565b6000602082019050818103600083015261541b816149f9565b9050919050565b6000602082019050818103600083015261543b81614a39565b9050919050565b6000602082019050818103600083015261545b81614a9f565b9050919050565b6000602082019050818103600083015261547b81614adf565b9050919050565b6000602082019050818103600083015261549b81614b1f565b9050919050565b600060208201905081810360008301526154bb81614b85565b9050919050565b600060208201905081810360008301526154db81614bc5565b9050919050565b600060208201905081810360008301526154fb81614c2b565b9050919050565b6000602082019050818103600083015261551b81614c6b565b9050919050565b6000602082019050818103600083015261553b81614cd1565b9050919050565b6000602082019050818103600083015261555b81614d11565b9050919050565b6000602082019050818103600083015261557b81614d77565b9050919050565b6000602082019050818103600083015261559b81614db7565b9050919050565b600060208201905081810360008301526155bb81614df7565b9050919050565b600060208201905081810360008301526155db81614e51565b9050919050565b60006020820190506155f76000830184614eef565b92915050565b60006040820190506156126000830185614eef565b61561f60208301846144a2565b9392505050565b600060808201905061563b6000830189614eef565b818103602083015261564e818789614813565b90508181036040830152615663818587614813565b90506156726060830184614f1b565b979650505050505050565b600061012082019050615693600083018d614ef6565b81810360208301526156a6818b8d6146e6565b905081810360408301526156bb81898b6146e6565b90506156ca6060830188614f1b565b6156d76080830187614f1b565b6156e460a0830186614f1b565b6156f160c0830185614466565b6156fe60e0830184614ec0565b9b9a5050505050505050505050565b60006020820190506157226000830184614f0c565b92915050565b600060408201905061573d6000830185614f2a565b61574a6020830184614675565b9392505050565b60006040820190506157666000830185614f39565b61577360208301846147aa565b9392505050565b6000808335600160200384360303811261579357600080fd5b80840192508235915067ffffffffffffffff8211156157b157600080fd5b6020830192506001820236038313156157c957600080fd5b509250929050565b600080833560016020038436030381126157ea57600080fd5b80840192508235915067ffffffffffffffff82111561580857600080fd5b60208301925060018202360383131561582057600080fd5b509250929050565b60008235600160600383360303811261584057600080fd5b80830191505092915050565b6000819050602082019050919050565b6000819050602082019050919050565b6000819050602082019050919050565b600081519050919050565b600081519050919050565b600081519050919050565b600081519050919050565b600081519050919050565b6000602082019050919050565b6000602082019050919050565b6000602082019050919050565b600082825260208201905092915050565b600082825260208201905092915050565b600082825260208201905092915050565b600082825260208201905092915050565b600082825260208201905092915050565b600082825260208201905092915050565b600082825260208201905092915050565b600081905092915050565b600082825260208201905092915050565b600082825260208201905092915050565b600061598982615adc565b915061599483615adc565b9250827fffffffffffffffffffffffffffffffffffffffffffffffffffffffffffffffff038211156159c9576159c8615cd2565b5b828201905092915050565b60006159df82615adc565b91506159ea83615adc565b9250826159fa576159f9615d01565b5b828204905092915050565b6000615a1082615adc565b9150615a1b83615adc565b925082821015615a2e57615a2d615cd2565b5b828203905092915050565b6000615a4482615abc565b9050919050565b6000615a5682615abc565b9050919050565b60008115159050919050565b6000819050919050565b60007fffffffff0000000000000000000000000000000000000000000000000000000082169050919050565b6000819050615aad82615db9565b919050565b6000819050919050565b600073ffffffffffffffffffffffffffffffffffffffff82169050919050565b6000819050919050565b600063ffffffff82169050919050565b600060ff82169050919050565b6000615b0e82615b53565b9050919050565b6000615b2082615a9f565b9050919050565b6000615b3a615b3583615ab2565b615d9f565b9050919050565b6000615b4c82615adc565b9050919050565b6000615b5e82615b65565b9050919050565b6000615b7082615abc565b9050919050565b6000615b8282615af6565b9050919050565b82818337600083830152505050565b60005b83811015615bb6578082015181840152602081019050615b9b565b83811115615bc5576000848401525b50505050565b60006002820490506001821680615be357607f821691505b60208210811415615bf757615bf6615d5f565b5b50919050565b6000615c0882615adc565b91507fffffffffffffffffffffffffffffffffffffffffffffffffffffffffffffffff821415615c3b57615c3a615cd2565b5b600182019050919050565b6000615c5182615ae6565b915063ffffffff821415615c6857615c67615cd2565b5b600182019050919050565b6000615c7e82615c8f565b9050919050565b6000819050919050565b6000615c9a82615dac565b9050919050565b6000615cac82615adc565b9150615cb783615adc565b925082615cc757615cc6615d01565b5b828206905092915050565b7f4e487b7100000000000000000000000000000000000000000000000000000000600052601160045260246000fd5b7f4e487b7100000000000000000000000000000000000000000000000000000000600052601260045260246000fd5b7f4e487b7100000000000000000000000000000000000000000000000000000000600052602160045260246000fd5b7f4e487b7100000000000000000000000000000000000000000000000000000000600052602260045260246000fd5b6000601f19601f8301169050919050565b60008160001b9050919050565b60008160601b9050919050565b60058110615dca57615dc9615d30565b5b50565b615dd681615a39565b8114615de157600080fd5b50565b615ded81615a4b565b8114615df857600080fd5b50565b615e0481615a5d565b8114615e0f57600080fd5b50565b615e1b81615a69565b8114615e2657600080fd5b50565b615e3281615a73565b8114615e3d57600080fd5b50565b615e4981615adc565b8114615e5457600080fd5b50565b615e6081615ae6565b8114615e6b57600080fd5b50565b615e7781615af6565b8114615e8257600080fd5b5056fea264697066735822122050b4d519cd1bf16ea4fc374c0e1e9035b2cef1c43de100e6c02173f5ddc29c1b64736f6c63430008000033",
  "immutableReferences": {},
  "source": "// SPDX-License-Identifier: GPL-3.0-only\n\npragma solidity >=0.7.6;\npragma experimental ABIEncoderV2;\n\nimport \"@openzeppelin/contracts/token/ERC721/IERC721Receiver.sol\";\nimport \"@openzeppelin/contracts/token/ERC721/IERC721.sol\";\nimport \"@openzeppelin/contracts/token/ERC1155/IERC1155Receiver.sol\";\nimport \"@openzeppelin/contracts/token/ERC1155/IERC1155.sol\";\nimport \"@openzeppelin/contracts/token/ERC20/IERC20.sol\";\nimport \"@openzeppelin/contracts/utils/Address.sol\";\n\nimport \"./core/wallet_data.sol\";\nimport \"./features/guardians.sol\";\nimport \"./features/daily_limit.sol\";\nimport \"./features/recovery.sol\";\nimport \"./features/metatx.sol\";\nimport \"./features/name_service.sol\";\n\ncontract TOTPWallet is IERC721Receiver, IERC1155Receiver {\n\n    using Address for address payable;\n    using Guardians for Core.Wallet;\n    using DailyLimit for Core.Wallet;\n    using Recovery for Core.Wallet;\n    using MetaTx for Core.Wallet;\n    using NameService for Core.Wallet;\n\n    // DATA LAYOUT - ALWAYS ADD NEW VAR TO LAST\n\n    address masterCopy;\n    Core.Wallet public wallet;\n    Core.UserData public userData;\n    bool internal isImplementationContract;\n    uint public constant version = 1;\n\n    // END OF DATA LAYOUT\n    struct Call {\n        address to;\n        uint256 value;\n        bytes data;\n    }\n\n    event DebugEvent(bytes16 data);\n    event DebugEvent32(bytes32 data);\n    event DebugEventN(uint32 data);\n    event DebugEventA(address data);    \n    event DebugEvent256(uint256 data);\n    event WalletTransfer(address to, uint amount);\n    event Deposit(address indexed sender, uint value);\n    event WalletUpgraded(address newImpl);\n    event TransactionExecuted(bool indexed success, bytes returnData, bytes32 signedHash);\n    event Invoked(address indexed target, uint indexed value, bytes data, bool success, bytes returnData);\n\n    constructor() {\n        isImplementationContract = true;\n    }\n\n    modifier disableInImplementationContract\n    {\n        require(!isImplementationContract, \"DISALLOWED_ON_IMPLEMENTATION_CONTRACT\");\n        _;\n    }\n\n    // keep methods <= 8 parameters of get stack to deep\n    function initialize(\n        address              resolver_,\n        string[2]   calldata domain_, // empty means no registration\n        address             owner_, \n        bytes32[] calldata    rootHash_, \n        uint8               merkelHeight_, \n        address payable     drainAddr_, \n        uint                dailyLimit_,\n        address             feeRecipient,\n        uint                feeAmount                \n        ) external \n        // disableInImplementationContract()\n    {\n        wallet.resolver = resolver_;\n\n        //emit DebugEvent256(address(this).balance);\n        require(wallet.owner == address(0), \"INITIALIZED_ALREADY\");\n        require(address(this).balance >= feeAmount, \"NOT ENOUGH TO PAY FEE\");\n\n        wallet.owner = owner_;\n        for (uint32 i = 0; i < rootHash_.length; i++) {\n             wallet.rootHash.push(rootHash_[i]);\n        }        \n        wallet.merkelHeight = merkelHeight_;\n        wallet.drainAddr = drainAddr_;\n        wallet.dailyLimit = dailyLimit_;\n\n        // STACK TOO DEEP\n        if(bytes(domain_[0]).length > 0) {\n            this.registerENS(domain_[0], domain_[1], 60 * 60 * 24 * 365);\n        }\n\n        if (feeRecipient != address(0)) {\n            payable(feeRecipient).sendValue(feeAmount);\n        }        \n    }   \n\n    function initializeUserData(\n        string  calldata   password_,\n        string  calldata   email_,\n        string  calldata   countryOfResidence_\n    ) external {\n        userData.password = password_;\n        userData.email = email_;\n        userData.countryOfResidence = countryOfResidence_;\n    }\n    \n\n    function registerENS(string calldata subdomain, string calldata domain, uint duration) external onlyFromWalletOrOwnerWhenUnlocked() {\n        wallet.registerENS(subdomain, domain, duration);\n    }\n\n    modifier onlyModule() {\n        require(msg.sender == address(this));\n        _;        \n    }\n\n    modifier onlyFromWalletOrOwnerWhenUnlocked()\n    {\n        require(\n            msg.sender == address(this) ||\n            (msg.sender == wallet.owner && !wallet.locked),\n             \"NOT_FROM_WALLET_OR_OWNER_OR_WALLET_LOCKED\"\n        );\n        _;\n    }\n\n    modifier onlySelf() {\n        require(msg.sender == address(this), \"must be metatx\");\n        _;\n    }\n\n    // confirmMaterial contains OTP + intermediatory hashes + sides\n    modifier onlyValidTOTP(bytes32[] memory confirmMaterial) \n    {\n        bytes32 reduced = Recovery._reduceConfirmMaterial(confirmMaterial);\n        uint32 counterProvided = Recovery._deriveChildTreeIdx(wallet.merkelHeight, confirmMaterial[confirmMaterial.length-1]);\n        require(counterProvided >= wallet.counter, \"Provided counter must be greater or same\");\n\n        // Google Authenticator doesn't allow custom counter or change counter back; so we must allow room to fudge\n        // allow some room if the counters were skipped at some point\n        require(counterProvided - wallet.counter  < 50, \"Provided counter must not be more than 50 steps\");\n\n        bool foundMatch = false;\n        for (uint32 i = 0; i < wallet.rootHash.length; i++) {\n            if(reduced==wallet.rootHash[i]) {\n                foundMatch = true;\n            }\n        }\n        require(foundMatch, \"UNEXPECTED PROOF\");\n        _;\n    }\n\n    function getRequiredSignatures(bytes calldata _data) public view returns (uint8, Core.OwnerSignature) {\n        bytes4 methodId = functionPrefix(_data);\n\n        if(methodId == TOTPWallet.makeTransfer.selector ||\n            methodId == TOTPWallet.multiCall.selector ||\n            methodId == TOTPWallet.addGuardian.selector ||\n            methodId == TOTPWallet.revokeGuardian.selector||\n            methodId == TOTPWallet.upgradeMasterCopy.selector ||\n            methodId == TOTPWallet.setDailyLimit.selector ||\n            methodId == TOTPWallet.setDrainAddress.selector ||\n            methodId == TOTPWallet.setHashStorageId.selector) {\n            return (1, Core.OwnerSignature.Required);\n        }\n\n        if(methodId == TOTPWallet.startRecoverGuardianOnly.selector) {\n            require(wallet.guardians.length >= 2, \"NOT_MEET_MINIMUM_GUARDIANS\");\n            uint requiredSignatures = MetaTx.ceil(wallet.guardians.length, 2);\n            return (uint8(requiredSignatures), Core.OwnerSignature.Disallowed);            \n        }\n\n        // 1 of 1 = 0 sig\n        // 2 of 2 = 1 sig + HOTP\n        // 2 of 3 = 1 sig + HOTP\n        if(methodId == TOTPWallet.startRecoverCommit.selector) {\n            uint requiredSignatures = MetaTx.ceil(wallet.guardians.length, 2);\n            return (uint8(requiredSignatures), Core.OwnerSignature.Disallowed);            \n        }\n        if(methodId == TOTPWallet.startRecoveryReveal.selector) {\n            return (0, Core.OwnerSignature.Disallowed);            \n        }\n        \n        revert(\"unknown method\");\n    }    \n\n    function executeMetaTx(\n            bytes   calldata data,\n            bytes   calldata signatures, \n            uint256 nonce,\n            uint256 gasPrice,\n            uint256 gasLimit,\n            address /*refundToken*/,\n            address payable refundAddress            \n        ) external \n    {\n        uint gasLeft = gasleft();        \n        Core.SignatureRequirement memory sigRequirement;        \n        (sigRequirement.requiredSignatures, sigRequirement.ownerSignatureRequirement) = getRequiredSignatures(data);        \n\n        MetaTx.validateTx(wallet, data, signatures, nonce, gasPrice, gasLimit, refundAddress, sigRequirement);\n\n        bool success;\n        bytes memory returnData;\n        (success, returnData) = address(this).call(data);\n\n        if(gasPrice > 0 && success && refundAddress != address(0x0)) {\n            uint gasUsed = gasLeft - gasleft() + 70000; //35k overhead\n            refundAddress.transfer(gasUsed);\n        }\n        emit TransactionExecuted(success, returnData, 0x0);        \n    }\n\n    function multiCall(Call[] calldata _transactions) external onlyFromWalletOrOwnerWhenUnlocked() returns (bytes[] memory) {\n        bytes[] memory results = new bytes[](_transactions.length);\n        for(uint i = 0; i < _transactions.length; i++) {\n            results[i] = invoke(_transactions[i].to, _transactions[i].value, _transactions[i].data);\n        }\n        return results;\n    }\n\n    function makeTransfer(address payable to, uint amount) external onlyFromWalletOrOwnerWhenUnlocked() \n    {\n        require(wallet.isUnderLimit(amount), \"over withdrawal limit\");\n        require(address(this).balance >= amount, \"not enough balance\");  \n\n        wallet.spentToday += amount;\n        (bool success,) = to.call{value: amount, gas: 100000}(\"\");\n        require(success, \"MakeTransfer: External call failed\");\n        emit WalletTransfer(to, amount);             \n    }\n\n    function getOwner()  public\n        view\n        returns (address) \n    {\n        return wallet.owner;  \n    }\n\n    function getCounter()  public\n        view\n        returns (uint) \n    {\n        return wallet.counter;\n    }\n\n    function setHashStorageId(string calldata id) external  onlyFromWalletOrOwnerWhenUnlocked()  {\n        wallet.hashStorageID = id;\n    }\n\n    function getHashStorageId() public view  returns (string memory){\n        return wallet.hashStorageID;\n    }\n    \n    function getRootHashes()\n         public\n         view\n         returns (bytes32[] memory )\n     {\n         return wallet.rootHash;\n     }\n\n    function setDrainAddress(address payable addr) external onlyFromWalletOrOwnerWhenUnlocked() {\n        wallet.drainAddr = addr;\n    }\n\n    function setDailyLimit(uint amount) external onlyFromWalletOrOwnerWhenUnlocked() {\n        wallet.dailyLimit = amount;\n    }\n    //\n    // Guardians functions\n    //\n    function addGuardian(address guardian)\n        external\n        onlyFromWalletOrOwnerWhenUnlocked()\n    {\n        wallet.addGuardian(guardian);\n    }\n\n    function revokeGuardian(address guardian)\n        external\n        onlyFromWalletOrOwnerWhenUnlocked()\n    {\n        wallet.revokeGuardian(guardian);\n    }\n\n    function isGuardian(address addr)\n         public\n         view\n         returns (bool)\n     {\n         return wallet.isGuardian(addr);\n     }\n\n     function getGuardians()\n         public\n         view\n         returns (address[] memory )\n     {\n         return wallet.guardians;\n     }\n\n    //\n    // Recovery functions\n    //\n    // In default setup with only HOTP setup, wallet recovery is done on its own.\n    // In a more secure setup with HOTP + guardians, HOTP is considered as 1 guardian.\n    //\n    // Relay/or other coordinating system will coordinate the signatures collections \n    // from guardian and submit along with the HOTP together. In rare case, HOTP may be ommitted\n    // when greater than 2 guardians can recover without HOTP.\n    function startRecoverGuardianOnly(address newOwner_) onlySelf() external {\n        // move into recovery state\n        wallet.startRecovery(newOwner_);\n    }\n\n    // recover with combination of commithash and signatures\n    function startRecoverCommit(bytes32 secretHash, bytes32 dataHash)  onlySelf() external {\n        require(wallet.commitHash[secretHash].blockNumber == 0, \"COMMIT ALREADY EXIST\");\n        wallet.commitHash[secretHash] = Core.CommitInfo(dataHash, block.number, false);\n    }\n\n    function startRecoveryReveal(address newOwner, bytes32[] calldata confirmMaterial)  onlySelf() onlyValidTOTP(confirmMaterial) external {\n        bytes32 secretHash = keccak256(abi.encodePacked(confirmMaterial[0]));\n        require(wallet.commitHash[secretHash].blockNumber != 0, \"NO COMMIT\");\n        require(wallet.commitHash[secretHash].revealed == false, \"COMMIT ALREADY REVEALED\");\n        require(block.number - wallet.commitHash[secretHash].blockNumber < 15, \"Commit is too old\");\n\n        bytes32 hash = keccak256(abi.encodePacked(newOwner, confirmMaterial[0]));\n        require(hash == wallet.commitHash[secretHash].dataHash, \"Datahash does not match\");\n\n        wallet.commitHash[secretHash].revealed = true;\n        wallet.owner = newOwner;\n        wallet.counter = wallet.counter + 1;\n    }\n\n    function isRecovering() external view returns (bool) {\n        return wallet.pendingRecovery.expiration != 0;\n    }\n\n    function cancelRecovery() external onlyFromWalletOrOwnerWhenUnlocked() {\n        wallet.pendingRecovery = Core.RecoveryInfo(address(0),0);\n    }\n\n    function getRecovery() external view returns (address,uint) {\n        return (wallet.pendingRecovery.newOwner, wallet.pendingRecovery.expiration);\n    }\n\n    function finalizeRecovery() external {\n        wallet.finalizeRecovery();\n    }\n\n    function upgradeMasterCopy(address newMasterCopy) external onlySelf() {\n        masterCopy = newMasterCopy;\n        emit WalletUpgraded(newMasterCopy);\n    }\n\n    function getMasterCopy()\n        public\n        view\n        returns (address)\n    {\n        return masterCopy;\n    }\n\n    //\n    // ERC1155 support\n    //\n    function onERC1155Received(\n        address,\n        address,\n        uint256,\n        uint256,\n        bytes calldata\n    ) external pure override returns (bytes4){\n        return this.onERC1155Received.selector;\n    }\n\n    function onERC1155BatchReceived(address operator, address from, uint256[] calldata ids, uint256[] calldata values, bytes calldata data) external view override returns (bytes4){\n        for (uint32 i = 0; i < ids.length; i++) {\n            this.onERC1155Received(operator, from, ids[i], values[i], data);\n        }\n        return this.onERC1155BatchReceived.selector;\n    }\n\n    function supportsInterface(bytes4 interfaceID) external override pure returns (bool) {\n        return interfaceID == this.supportsInterface.selector ||\n        interfaceID == this.onERC1155Received.selector ||\n        interfaceID == this.onERC721Received.selector;\n    }\n\n    function onERC721Received(\n        address,\n        address,\n        uint256,\n        bytes calldata\n    ) external pure override returns (bytes4){\n        return this.onERC721Received.selector;\n    }\n\n    //\n    // Utility functions\n    //\n\n    /**\n    * @notice Helper method to parse data and extract the method signature.\n    */\n    function functionPrefix(bytes memory _data) internal pure returns (bytes4 prefix) {\n        require(_data.length >= 4, \"Utils: Invalid functionPrefix\");\n        // solhint-disable-next-line no-inline-assembly\n        assembly {\n            prefix := mload(add(_data, 0x20))\n        }\n    }\n    /// @dev Fallback function allows to deposit ether.\n    receive() external payable {\n        if (msg.value > 0) {\n            if(msg.sender == wallet.drainAddr && msg.value == 1 ether) {\n                uint amount = address(this).balance;\n                (bool success,) = wallet.drainAddr.call{value: amount, gas: 100000}(\"\");\n                require(success, \"Receive: External call failed\");\n            }\n            emit Deposit(msg.sender, msg.value);\n        }\n    }\n\n    /**\n     * @notice Performs a generic transaction.\n     * @param _target The address for the transaction.\n     * @param _value The value of the transaction.\n     * @param _data The data of the transaction.\n     */\n    function invoke(address _target, uint _value, bytes calldata _data) internal returns (bytes memory _result) {\n        bool success;\n        (success, _result) = _target.call{value: _value}(_data);\n\n        emit Invoked(_target, _value, _data, success, _result);\n\n        if (!success) {\n            // solhint-disable-next-line no-inline-assembly\n            assembly {\n                returndatacopy(0, 0, returndatasize())\n                revert(0, returndatasize())\n            }\n        }\n    }\n}\n",
  "sourcePath": "/Users/okudajunta/Documents/solidity/harmony-totp/contracts/otp_wallet.sol",
  "compiler": {
    "name": "solc",
    "version": "0.8.0+commit.c7dfd78e.Emscripten.clang"
  },
  "schemaVersion": "3.4.2",
  "updatedAt": "2021-09-17T10:32:18.412Z",
  "networkType": "ethereum",
  "devdoc": {
    "kind": "dev",
    "methods": {
      "onERC1155BatchReceived(address,address,uint256[],uint256[],bytes)": {
        "details": "Handles the receipt of a multiple ERC1155 token types. This function is called at the end of a `safeBatchTransferFrom` after the balances have been updated. To accept the transfer(s), this must return `bytes4(keccak256(\"onERC1155BatchReceived(address,address,uint256[],uint256[],bytes)\"))` (i.e. 0xbc197c81, or its own function selector).",
        "params": {
          "data": "Additional data with no specified format",
          "from": "The address which previously owned the token",
          "ids": "An array containing ids of each token being transferred (order and length must match values array)",
          "operator": "The address which initiated the batch transfer (i.e. msg.sender)",
          "values": "An array containing amounts of each token being transferred (order and length must match ids array)"
        },
        "returns": {
          "_0": "`bytes4(keccak256(\"onERC1155BatchReceived(address,address,uint256[],uint256[],bytes)\"))` if transfer is allowed"
        }
      }
    },
    "version": 1
  },
  "userdoc": {
    "kind": "user",
    "methods": {},
    "version": 1
  }
}