{
  "contractName": "TOTPWallet",
  "abi": [
    {
      "inputs": [],
      "stateMutability": "nonpayable",
      "type": "constructor"
    },
    {
      "anonymous": false,
      "inputs": [
        {
          "indexed": false,
          "internalType": "bytes16",
          "name": "data",
          "type": "bytes16"
        }
      ],
      "name": "DebugEvent",
      "type": "event"
    },
    {
      "anonymous": false,
      "inputs": [
        {
          "indexed": false,
          "internalType": "uint256",
          "name": "data",
          "type": "uint256"
        }
      ],
      "name": "DebugEvent256",
      "type": "event"
    },
    {
      "anonymous": false,
      "inputs": [
        {
          "indexed": false,
          "internalType": "bytes32",
          "name": "data",
          "type": "bytes32"
        }
      ],
      "name": "DebugEvent32",
      "type": "event"
    },
    {
      "anonymous": false,
      "inputs": [
        {
          "indexed": false,
          "internalType": "address",
          "name": "data",
          "type": "address"
        }
      ],
      "name": "DebugEventA",
      "type": "event"
    },
    {
      "anonymous": false,
      "inputs": [
        {
          "indexed": false,
          "internalType": "uint32",
          "name": "data",
          "type": "uint32"
        }
      ],
      "name": "DebugEventN",
      "type": "event"
    },
    {
      "anonymous": false,
      "inputs": [
        {
          "indexed": true,
          "internalType": "address",
          "name": "sender",
          "type": "address"
        },
        {
          "indexed": false,
          "internalType": "uint256",
          "name": "value",
          "type": "uint256"
        }
      ],
      "name": "Deposit",
      "type": "event"
    },
    {
      "anonymous": false,
      "inputs": [
        {
          "indexed": true,
          "internalType": "bool",
          "name": "success",
          "type": "bool"
        },
        {
          "indexed": false,
          "internalType": "bytes",
          "name": "returnData",
          "type": "bytes"
        },
        {
          "indexed": false,
          "internalType": "bytes32",
          "name": "signedHash",
          "type": "bytes32"
        }
      ],
      "name": "TransactionExecuted",
      "type": "event"
    },
    {
      "anonymous": false,
      "inputs": [
        {
          "indexed": false,
          "internalType": "address",
          "name": "to",
          "type": "address"
        },
        {
          "indexed": false,
          "internalType": "uint256",
          "name": "amount",
          "type": "uint256"
        }
      ],
      "name": "WalletTransfer",
      "type": "event"
    },
    {
      "anonymous": false,
      "inputs": [
        {
          "indexed": false,
          "internalType": "address",
          "name": "newImpl",
          "type": "address"
        }
      ],
      "name": "WalletUpgraded",
      "type": "event"
    },
    {
      "inputs": [],
      "name": "wallet",
      "outputs": [
        {
          "internalType": "address",
          "name": "owner",
          "type": "address"
        },
        {
          "internalType": "bool",
          "name": "locked",
          "type": "bool"
        },
        {
          "internalType": "uint8",
          "name": "merkelHeight",
          "type": "uint8"
        },
        {
          "internalType": "uint256",
          "name": "counter",
          "type": "uint256"
        },
        {
          "internalType": "address payable",
          "name": "drainAddr",
          "type": "address"
        },
        {
          "internalType": "uint256",
          "name": "dailyLimit",
          "type": "uint256"
        },
        {
          "internalType": "uint256",
          "name": "lastDay",
          "type": "uint256"
        },
        {
          "internalType": "uint256",
          "name": "spentToday",
          "type": "uint256"
        },
        {
          "internalType": "string",
          "name": "hashStorageID",
          "type": "string"
        },
        {
          "components": [
            {
              "internalType": "address",
              "name": "newOwner",
              "type": "address"
            },
            {
              "internalType": "uint256",
              "name": "expiration",
              "type": "uint256"
            }
          ],
          "internalType": "struct Core.RecoveryInfo",
          "name": "pendingRecovery",
          "type": "tuple"
        },
        {
          "internalType": "address",
          "name": "resolver",
          "type": "address"
        }
      ],
      "stateMutability": "view",
      "type": "function",
      "constant": true
    },
    {
      "stateMutability": "payable",
      "type": "receive",
      "payable": true
    },
    {
      "inputs": [
        {
          "internalType": "address",
          "name": "resolver_",
          "type": "address"
        },
        {
          "internalType": "string[2]",
          "name": "domain_",
          "type": "string[2]"
        },
        {
          "internalType": "address",
          "name": "owner_",
          "type": "address"
        },
        {
          "internalType": "bytes32[]",
          "name": "rootHash_",
          "type": "bytes32[]"
        },
        {
          "internalType": "uint8",
          "name": "merkelHeight_",
          "type": "uint8"
        },
        {
          "internalType": "address payable",
          "name": "drainAddr_",
          "type": "address"
        },
        {
          "internalType": "uint256",
          "name": "dailyLimit_",
          "type": "uint256"
        },
        {
          "internalType": "address",
          "name": "feeRecipient",
          "type": "address"
        },
        {
          "internalType": "uint256",
          "name": "feeAmount",
          "type": "uint256"
        }
      ],
      "name": "initialize",
      "outputs": [],
      "stateMutability": "nonpayable",
      "type": "function"
    },
    {
      "inputs": [
        {
          "internalType": "string",
          "name": "subdomain",
          "type": "string"
        },
        {
          "internalType": "string",
          "name": "domain",
          "type": "string"
        },
        {
          "internalType": "uint256",
          "name": "duration",
          "type": "uint256"
        }
      ],
      "name": "registerENS",
      "outputs": [],
      "stateMutability": "nonpayable",
      "type": "function"
    },
    {
      "inputs": [
        {
          "internalType": "bytes",
          "name": "_data",
          "type": "bytes"
        }
      ],
      "name": "getRequiredSignatures",
      "outputs": [
        {
          "internalType": "uint8",
          "name": "",
          "type": "uint8"
        },
        {
          "internalType": "enum Core.OwnerSignature",
          "name": "",
          "type": "uint8"
        }
      ],
      "stateMutability": "view",
      "type": "function",
      "constant": true
    },
    {
      "inputs": [
        {
          "internalType": "bytes",
          "name": "data",
          "type": "bytes"
        },
        {
          "internalType": "bytes",
          "name": "signatures",
          "type": "bytes"
        },
        {
          "internalType": "uint256",
          "name": "nonce",
          "type": "uint256"
        },
        {
          "internalType": "uint256",
          "name": "gasPrice",
          "type": "uint256"
        },
        {
          "internalType": "uint256",
          "name": "gasLimit",
          "type": "uint256"
        },
        {
          "internalType": "address",
          "name": "refundToken",
          "type": "address"
        },
        {
          "internalType": "address payable",
          "name": "refundAddress",
          "type": "address"
        }
      ],
      "name": "executeMetaTx",
      "outputs": [],
      "stateMutability": "nonpayable",
      "type": "function"
    },
    {
      "inputs": [
        {
          "internalType": "address payable",
          "name": "to",
          "type": "address"
        },
        {
          "internalType": "uint256",
          "name": "amount",
          "type": "uint256"
        }
      ],
      "name": "makeTransfer",
      "outputs": [],
      "stateMutability": "nonpayable",
      "type": "function"
    },
    {
      "inputs": [],
      "name": "getOwner",
      "outputs": [
        {
          "internalType": "address",
          "name": "",
          "type": "address"
        }
      ],
      "stateMutability": "view",
      "type": "function",
      "constant": true
    },
    {
      "inputs": [],
      "name": "getCounter",
      "outputs": [
        {
          "internalType": "uint256",
          "name": "",
          "type": "uint256"
        }
      ],
      "stateMutability": "view",
      "type": "function",
      "constant": true
    },
    {
      "inputs": [
        {
          "internalType": "string",
          "name": "id",
          "type": "string"
        }
      ],
      "name": "setHashStorageId",
      "outputs": [],
      "stateMutability": "nonpayable",
      "type": "function"
    },
    {
      "inputs": [],
      "name": "getHashStorageId",
      "outputs": [
        {
          "internalType": "string",
          "name": "",
          "type": "string"
        }
      ],
      "stateMutability": "view",
      "type": "function",
      "constant": true
    },
    {
      "inputs": [],
      "name": "getRootHashes",
      "outputs": [
        {
          "internalType": "bytes32[]",
          "name": "",
          "type": "bytes32[]"
        }
      ],
      "stateMutability": "view",
      "type": "function",
      "constant": true
    },
    {
      "inputs": [
        {
          "internalType": "address",
          "name": "guardian",
          "type": "address"
        },
        {
          "internalType": "bytes16[]",
          "name": "confirmMaterial",
          "type": "bytes16[]"
        },
        {
          "internalType": "bytes32",
          "name": "sides",
          "type": "bytes32"
        }
      ],
      "name": "addGuardian",
      "outputs": [],
      "stateMutability": "nonpayable",
      "type": "function"
    },
    {
      "inputs": [
        {
          "internalType": "address",
          "name": "guardian",
          "type": "address"
        },
        {
          "internalType": "bytes16[]",
          "name": "confirmMaterial",
          "type": "bytes16[]"
        },
        {
          "internalType": "bytes32",
          "name": "sides",
          "type": "bytes32"
        }
      ],
      "name": "revokeGuardian",
      "outputs": [],
      "stateMutability": "nonpayable",
      "type": "function"
    },
    {
      "inputs": [
        {
          "internalType": "address",
          "name": "addr",
          "type": "address"
        }
      ],
      "name": "isGuardian",
      "outputs": [
        {
          "internalType": "bool",
          "name": "",
          "type": "bool"
        }
      ],
      "stateMutability": "view",
      "type": "function",
      "constant": true
    },
    {
      "inputs": [],
      "name": "getGuardians",
      "outputs": [
        {
          "internalType": "address[]",
          "name": "",
          "type": "address[]"
        }
      ],
      "stateMutability": "view",
      "type": "function",
      "constant": true
    },
    {
      "inputs": [
        {
          "internalType": "address",
          "name": "newOwner_",
          "type": "address"
        }
      ],
      "name": "startRecoverGuardianOnly",
      "outputs": [],
      "stateMutability": "nonpayable",
      "type": "function"
    },
    {
      "inputs": [
        {
          "internalType": "bytes32",
          "name": "commitHash",
          "type": "bytes32"
        }
      ],
      "name": "startRecoverCommit",
      "outputs": [],
      "stateMutability": "nonpayable",
      "type": "function"
    },
    {
      "inputs": [
        {
          "internalType": "address",
          "name": "newOwner",
          "type": "address"
        },
        {
          "internalType": "bytes32[]",
          "name": "confirmMaterial",
          "type": "bytes32[]"
        }
      ],
      "name": "startRecoveryReveal",
      "outputs": [],
      "stateMutability": "nonpayable",
      "type": "function"
    },
    {
      "inputs": [],
      "name": "isRecovering",
      "outputs": [
        {
          "internalType": "bool",
          "name": "",
          "type": "bool"
        }
      ],
      "stateMutability": "view",
      "type": "function",
      "constant": true
    },
    {
      "inputs": [],
      "name": "cancelRecovery",
      "outputs": [],
      "stateMutability": "nonpayable",
      "type": "function"
    },
    {
      "inputs": [],
      "name": "getRecovery",
      "outputs": [
        {
          "internalType": "address",
          "name": "",
          "type": "address"
        },
        {
          "internalType": "uint256",
          "name": "",
          "type": "uint256"
        }
      ],
      "stateMutability": "view",
      "type": "function",
      "constant": true
    },
    {
      "inputs": [],
      "name": "finalizeRecovery",
      "outputs": [],
      "stateMutability": "nonpayable",
      "type": "function"
    },
    {
      "inputs": [
        {
          "internalType": "address",
          "name": "newMasterCopy",
          "type": "address"
        }
      ],
      "name": "upgradeMasterCopy",
      "outputs": [],
      "stateMutability": "nonpayable",
      "type": "function"
    }
  ],
  "bytecode": "0x608060405234801561001057600080fd5b506001601060006101000a81548160ff021916908315150217905550613bc08061003b6000396000f3fe6080604052600436106101445760003560e01c80638ada066e116100b6578063cabd82c51161006f578063cabd82c514610493578063d5073322146104bc578063de033715146104e5578063e2ccb3051461050e578063ebd5c40614610525578063ef24c7361461054e576101a3565b80638ada066e1461039757806391ac2788146103c25780639cb8332f146103ed578063abea22cc14610416578063ae10bd0b1461043f578063c832fe5f14610468576101a3565b8063521eb27311610108578063521eb2731461027b578063693b60a2146102b0578063706f7658146102d957806375a3f50d1461030557806379d3d98c14610343578063893d20e81461036c576101a3565b80630665f04b146101a85780630ba234d6146101d35780630c68ba21146101ea5780631f13938d146102275780632f23a3ab14610252576101a3565b366101a35760003411156101a1573373ffffffffffffffffffffffffffffffffffffffff167fe1fffcc4923d04b559f4d29a8bfc6cda04eb5b0d3c460751c2402c5c5cc9109c34604051610198919061373f565b60405180910390a25b005b600080fd5b3480156101b457600080fd5b506101bd610577565b6040516101ca9190613408565b60405180910390f35b3480156101df57600080fd5b506101e8610608565b005b3480156101f657600080fd5b50610211600480360381019061020c9190612717565b610775565b60405161021e919061346e565b60405180910390f35b34801561023357600080fd5b5061023c61080a565b6040516102499190613502565b60405180910390f35b34801561025e57600080fd5b5061027960048036038101906102749190612b16565b6108af565b005b34801561028757600080fd5b50610290610a0f565b6040516102a79b9a9998979695949392919061332d565b60405180910390f35b3480156102bc57600080fd5b506102d760048036038101906102d291906129fb565b610bd3565b005b3480156102e557600080fd5b506102ee610d7d565b6040516102fc9291906133df565b60405180910390f35b34801561031157600080fd5b5061032c600480360381019061032791906129b6565b610dba565b60405161033a929190613783565b60405180910390f35b34801561034f57600080fd5b5061036a60048036038101906103659190612ad1565b611171565b005b34801561037857600080fd5b5061038161126f565b60405161038e91906132e9565b60405180910390f35b3480156103a357600080fd5b506103ac61129c565b6040516103b9919061373f565b60405180910390f35b3480156103ce57600080fd5b506103d76112a9565b6040516103e4919061346e565b60405180910390f35b3480156103f957600080fd5b50610414600480360381019061040f9190612964565b6112bc565b005b34801561042257600080fd5b5061043d60048036038101906104389190612740565b61135b565b005b34801561044b57600080fd5b506104666004803603810190610461919061277c565b61156d565b005b34801561047457600080fd5b5061047d6116c4565b60405161048a919061344c565b60405180910390f35b34801561049f57600080fd5b506104ba60048036038101906104b591906127e8565b61171e565b005b3480156104c857600080fd5b506104e360048036038101906104de9190612840565b611b39565b005b3480156104f157600080fd5b5061050c60048036038101906105079190612717565b611ea8565b005b34801561051a57600080fd5b50610523611f90565b005b34801561053157600080fd5b5061054c6004803603810190610547919061277c565b611ffc565b005b34801561055a57600080fd5b5061057560048036038101906105709190612717565b612153565b005b606060016005018054806020026020016040519081016040528092919081815260200182805480156105fe57602002820191906000526020600020905b8160009054906101000a900473ffffffffffffffffffffffffffffffffffffffff1673ffffffffffffffffffffffffffffffffffffffff16815260200190600101908083116105b4575b5050505050905090565b3073ffffffffffffffffffffffffffffffffffffffff163373ffffffffffffffffffffffffffffffffffffffff1614806106ae5750600160000160009054906101000a900473ffffffffffffffffffffffffffffffffffffffff1673ffffffffffffffffffffffffffffffffffffffff163373ffffffffffffffffffffffffffffffffffffffff161480156106ad5750600160000160149054906101000a900460ff16155b5b6106ed576040517f08c379a00000000000000000000000000000000000000000000000000000000081526004016106e490613624565b60405180910390fd5b6040518060400160405280600073ffffffffffffffffffffffffffffffffffffffff16815260200160008152506001600b0160008201518160000160006101000a81548173ffffffffffffffffffffffffffffffffffffffff021916908373ffffffffffffffffffffffffffffffffffffffff16021790555060208201518160010155905050565b6000600173__Guardians_____________________________63121c95629091846040518363ffffffff1660e01b81526004016107b39291906136bf565b60206040518083038186803b1580156107cb57600080fd5b505af41580156107df573d6000803e3d6000fd5b505050506040513d601f19601f82011682018060405250810190610803919061293b565b9050919050565b60606001600a018054600181600116156101000203166002900480601f0160208091040260200160405190810160405280929190818152602001828054600181600116156101000203166002900480156108a55780601f1061087a576101008083540402835291602001916108a5565b820191906000526020600020905b81548152906001019060200180831161088857829003601f168201915b5050505050905090565b3073ffffffffffffffffffffffffffffffffffffffff163373ffffffffffffffffffffffffffffffffffffffff1614806109555750600160000160009054906101000a900473ffffffffffffffffffffffffffffffffffffffff1673ffffffffffffffffffffffffffffffffffffffff163373ffffffffffffffffffffffffffffffffffffffff161480156109545750600160000160149054906101000a900460ff16155b5b610994576040517f08c379a000000000000000000000000000000000000000000000000000000000815260040161098b90613624565b60405180910390fd5b600173__NameService___________________________63145f7620909187878787876040518763ffffffff1660e01b81526004016109d8969594939291906136e8565b60006040518083038186803b1580156109f057600080fd5b505af4158015610a04573d6000803e3d6000fd5b505050505050505050565b60018060000160009054906101000a900473ffffffffffffffffffffffffffffffffffffffff16908060000160149054906101000a900460ff16908060020160009054906101000a900460ff16908060030154908060040160009054906101000a900473ffffffffffffffffffffffffffffffffffffffff169080600701549080600801549080600901549080600a018054600181600116156101000203166002900480601f016020809104026020016040519081016040528092919081815260200182805460018160011615610100020316600290048015610b335780601f10610b0857610100808354040283529160200191610b33565b820191906000526020600020905b815481529060010190602001808311610b1657829003601f168201915b50505050509080600b016040518060400160405290816000820160009054906101000a900473ffffffffffffffffffffffffffffffffffffffff1673ffffffffffffffffffffffffffffffffffffffff1673ffffffffffffffffffffffffffffffffffffffff1681526020016001820154815250509080600e0160009054906101000a900473ffffffffffffffffffffffffffffffffffffffff1690508b565b60005a90506000610be2612456565b610bec8c8c610dba565b8260000183602001826004811115610c0057fe5b6004811115610c0b57fe5b8152508260ff1660ff168152505050600060603073ffffffffffffffffffffffffffffffffffffffff168e8e604051610c459291906132d0565b6000604051808303816000865af19150503d8060008114610c82576040519150601f19603f3d011682016040523d82523d6000602084013e610c87565b606091505b508092508193505050600089118015610c9d5750815b8015610cd65750600073ffffffffffffffffffffffffffffffffffffffff168673ffffffffffffffffffffffffffffffffffffffff1614155b15610d30576000620111705a87030190508673ffffffffffffffffffffffffffffffffffffffff166108fc829081150290604051600060405180830381858888f19350505050158015610d2d573d6000803e3d6000fd5b50505b8115157f8e2386b9ce82e5e79311687a54408ad06fa06a338e2057cdcdfaf3a076743f1e826000604051610d65929190613489565b60405180910390a25050505050505050505050505050565b6000806001600b0160000160009054906101000a900473ffffffffffffffffffffffffffffffffffffffff166001600b0160010154915091509091565b6000806000610e0c85858080601f016020809104026020016040519081016040528093929190818152602001838380828437600081840152601f19601f82011690508083019250505050505050612230565b905063abea22cc60e01b7bffffffffffffffffffffffffffffffffffffffffffffffffffffffff1916817bffffffffffffffffffffffffffffffffffffffffffffffffffffffff19161480610ea5575063ae10bd0b60e01b7bffffffffffffffffffffffffffffffffffffffffffffffffffffffff1916817bffffffffffffffffffffffffffffffffffffffffffffffffffffffff1916145b80610ef4575063ebd5c40660e01b7bffffffffffffffffffffffffffffffffffffffffffffffffffffffff1916817bffffffffffffffffffffffffffffffffffffffffffffffffffffffff1916145b80610f43575063de03371560e01b7bffffffffffffffffffffffffffffffffffffffffffffffffffffffff1916817bffffffffffffffffffffffffffffffffffffffffffffffffffffffff1916145b80610f9257506379d3d98c60e01b7bffffffffffffffffffffffffffffffffffffffffffffffffffffffff1916817bffffffffffffffffffffffffffffffffffffffffffffffffffffffff1916145b15610fa457600180925092505061116a565b63ef24c73660e01b7bffffffffffffffffffffffffffffffffffffffffffffffffffffffff1916817bffffffffffffffffffffffffffffffffffffffffffffffffffffffff19161415611062576002600160050180549050101561103d576040517f08c379a000000000000000000000000000000000000000000000000000000000815260040161103490613564565b60405180910390fd5b60006110526001600501805490506002612283565b905080600393509350505061116a565b639cb8332f60e01b7bffffffffffffffffffffffffffffffffffffffffffffffffffffffff1916817bffffffffffffffffffffffffffffffffffffffffffffffffffffffff191614156110d45760006110c46001600501805490506002612283565b905080600393509350505061116a565b63cabd82c560e01b7bffffffffffffffffffffffffffffffffffffffffffffffffffffffff1916817bffffffffffffffffffffffffffffffffffffffffffffffffffffffff1916141561112f5760006003925092505061116a565b6040517f08c379a000000000000000000000000000000000000000000000000000000000815260040161116190613684565b60405180910390fd5b9250929050565b3073ffffffffffffffffffffffffffffffffffffffff163373ffffffffffffffffffffffffffffffffffffffff1614806112175750600160000160009054906101000a900473ffffffffffffffffffffffffffffffffffffffff1673ffffffffffffffffffffffffffffffffffffffff163373ffffffffffffffffffffffffffffffffffffffff161480156112165750600160000160149054906101000a900460ff16155b5b611256576040517f08c379a000000000000000000000000000000000000000000000000000000000815260040161124d90613624565b60405180910390fd5b81816001600a01919061126a92919061247e565b505050565b6000600160000160009054906101000a900473ffffffffffffffffffffffffffffffffffffffff16905090565b6000600160030154905090565b6000806001600b01600101541415905090565b3073ffffffffffffffffffffffffffffffffffffffff163373ffffffffffffffffffffffffffffffffffffffff161461132a576040517f08c379a000000000000000000000000000000000000000000000000000000000815260040161132190613604565b60405180910390fd5b600180600d01600083815260200190815260200160002060006101000a81548160ff02191690831515021790555050565b3073ffffffffffffffffffffffffffffffffffffffff163373ffffffffffffffffffffffffffffffffffffffff1614806114015750600160000160009054906101000a900473ffffffffffffffffffffffffffffffffffffffff1673ffffffffffffffffffffffffffffffffffffffff163373ffffffffffffffffffffffffffffffffffffffff161480156114005750600160000160149054906101000a900460ff16155b5b611440576040517f08c379a000000000000000000000000000000000000000000000000000000000815260040161143790613624565b60405180910390fd5b6114548160016122bb90919063ffffffff16565b611493576040517f08c379a000000000000000000000000000000000000000000000000000000000815260040161148a90613664565b60405180910390fd5b804710156114d6576040517f08c379a00000000000000000000000000000000000000000000000000000000081526004016114cd906135e4565b60405180910390fd5b806001600901600082825401925050819055508173ffffffffffffffffffffffffffffffffffffffff166108fc829081150290604051600060405180830381858888f1935050505015801561152f573d6000803e3d6000fd5b507f688077ec2e4cf5b023188b3c964a1a6481e6ff3fd3d3af3971ae0bf2172f75658282604051611561929190613304565b60405180910390a15050565b3073ffffffffffffffffffffffffffffffffffffffff163373ffffffffffffffffffffffffffffffffffffffff1614806116135750600160000160009054906101000a900473ffffffffffffffffffffffffffffffffffffffff1673ffffffffffffffffffffffffffffffffffffffff163373ffffffffffffffffffffffffffffffffffffffff161480156116125750600160000160149054906101000a900460ff16155b5b611652576040517f08c379a000000000000000000000000000000000000000000000000000000000815260040161164990613624565b60405180910390fd5b600173__Guardians_____________________________6397b9ce099091866040518363ffffffff1660e01b815260040161168e9291906136bf565b60006040518083038186803b1580156116a657600080fd5b505af41580156116ba573d6000803e3d6000fd5b5050505050505050565b60606001800180548060200260200160405190810160405280929190818152602001828054801561171457602002820191906000526020600020905b815481526020019060010190808311611700575b5050505050905090565b3073ffffffffffffffffffffffffffffffffffffffff163373ffffffffffffffffffffffffffffffffffffffff161461178c576040517f08c379a000000000000000000000000000000000000000000000000000000000815260040161178390613604565b60405180910390fd5b818180806020026020016040519081016040528093929190818152602001838360200280828437600081840152601f19601f82011690508083019250505050505050600073__Recovery______________________________63a6659f26836040518263ffffffff1660e01b8152600401611807919061342a565b60206040518083038186803b15801561181f57600080fd5b505af4158015611833573d6000803e3d6000fd5b505050506040513d601f19601f82011682018060405250810190611857919061298d565b905073__Recovery______________________________63396c8e65600160020160009054906101000a900460ff168460018651038151811061189657fe5b60200260200101516040518363ffffffff1660e01b81526004016118bb92919061375a565b60206040518083038186803b1580156118d357600080fd5b505af41580156118e7573d6000803e3d6000fd5b505050506040513d601f19601f8201168201806040525081019061190b9190612b9f565b63ffffffff1660016003015414611957576040517f08c379a000000000000000000000000000000000000000000000000000000000815260040161194e90613544565b60405180910390fd5b6000805b60018001805490508163ffffffff1610156119a957600180018163ffffffff168154811061198557fe5b906000526020600020015483141561199c57600191505b808060010191505061195b565b50806119ea576040517f08c379a00000000000000000000000000000000000000000000000000000000081526004016119e1906135a4565b60405180910390fd5b600086868660008181106119fa57fe5b90506020020135604051602001611a129291906132a4565b6040516020818303038152906040528051906020012090506001600d01600082815260200190815260200160002060009054906101000a900460ff16611a8d576040517f08c379a0000000000000000000000000000000000000000000000000000000008152600401611a8490613524565b60405180910390fd5b600173__Recovery______________________________636ffc1c629091896040518363ffffffff1660e01b8152600401611ac99291906136bf565b60006040518083038186803b158015611ae157600080fd5b505af4158015611af5573d6000803e3d6000fd5b505050506001600d01600082815260200190815260200160002060006101000a81549060ff0219169055600180600301540160016003018190555050505050505050565b896001600e0160006101000a81548173ffffffffffffffffffffffffffffffffffffffff021916908373ffffffffffffffffffffffffffffffffffffffff160217905550600073ffffffffffffffffffffffffffffffffffffffff16600160000160009054906101000a900473ffffffffffffffffffffffffffffffffffffffff1673ffffffffffffffffffffffffffffffffffffffff1614611c11576040517f08c379a0000000000000000000000000000000000000000000000000000000008152600401611c0890613584565b60405180910390fd5b80471015611c54576040517f08c379a0000000000000000000000000000000000000000000000000000000008152600401611c4b90613644565b60405180910390fd5b87600160000160006101000a81548173ffffffffffffffffffffffffffffffffffffffff021916908373ffffffffffffffffffffffffffffffffffffffff16021790555060005b878790508163ffffffff161015611cfc576001800188888363ffffffff16818110611cc257fe5b9050602002013590806001815401808255809150506001900390600052602060002001600090919091909150558080600101915050611c9b565b5084600160020160006101000a81548160ff021916908360ff16021790555083600160040160006101000a81548173ffffffffffffffffffffffffffffffffffffffff021916908373ffffffffffffffffffffffffffffffffffffffff16021790555082600160070181905550600089600060028110611d7857fe5b602002810190611d8891906137ac565b90501115611e3e573073ffffffffffffffffffffffffffffffffffffffff16632f23a3ab8a600060028110611db957fe5b602002810190611dc991906137ac565b8c600160028110611dd657fe5b602002810190611de691906137ac565b6301e133806040518663ffffffff1660e01b8152600401611e0b9594939291906134b9565b600060405180830381600087803b158015611e2557600080fd5b505af1158015611e39573d6000803e3d6000fd5b505050505b600073ffffffffffffffffffffffffffffffffffffffff168273ffffffffffffffffffffffffffffffffffffffff1614611e9c57611e9b818373ffffffffffffffffffffffffffffffffffffffff1661231c90919063ffffffff16565b5b50505050505050505050565b3073ffffffffffffffffffffffffffffffffffffffff163373ffffffffffffffffffffffffffffffffffffffff1614611f16576040517f08c379a0000000000000000000000000000000000000000000000000000000008152600401611f0d90613604565b60405180910390fd5b806000806101000a81548173ffffffffffffffffffffffffffffffffffffffff021916908373ffffffffffffffffffffffffffffffffffffffff1602179055507f8a5dcb0249bae905183e794960410c37563e6ab514b1add384425d153972118d81604051611f8591906132e9565b60405180910390a150565b600173__Recovery______________________________635fd7224790916040518263ffffffff1660e01b8152600401611fca91906136a4565b60006040518083038186803b158015611fe257600080fd5b505af4158015611ff6573d6000803e3d6000fd5b50505050565b3073ffffffffffffffffffffffffffffffffffffffff163373ffffffffffffffffffffffffffffffffffffffff1614806120a25750600160000160009054906101000a900473ffffffffffffffffffffffffffffffffffffffff1673ffffffffffffffffffffffffffffffffffffffff163373ffffffffffffffffffffffffffffffffffffffff161480156120a15750600160000160149054906101000a900460ff16155b5b6120e1576040517f08c379a00000000000000000000000000000000000000000000000000000000081526004016120d890613624565b60405180910390fd5b600173__Guardians_____________________________63e98ee0859091866040518363ffffffff1660e01b815260040161211d9291906136bf565b60006040518083038186803b15801561213557600080fd5b505af4158015612149573d6000803e3d6000fd5b5050505050505050565b3073ffffffffffffffffffffffffffffffffffffffff163373ffffffffffffffffffffffffffffffffffffffff16146121c1576040517f08c379a00000000000000000000000000000000000000000000000000000000081526004016121b890613604565b60405180910390fd5b600173__Recovery______________________________636ffc1c629091836040518363ffffffff1660e01b81526004016121fd9291906136bf565b60006040518083038186803b15801561221557600080fd5b505af4158015612229573d6000803e3d6000fd5b5050505050565b6000600482511015612277576040517f08c379a000000000000000000000000000000000000000000000000000000000815260040161226e906135c4565b60405180910390fd5b60208201519050919050565b60008082848161228f57fe5b049050600083858161229d57fe5b0614156122ad57809150506122b5565b600181019150505b92915050565b6000620151808360080154014211156122e257428360080181905550600083600901819055505b82600701548284600901540111806123035750826009015482846009015401105b156123115760009050612316565b600190505b92915050565b80471015612392576040517f08c379a000000000000000000000000000000000000000000000000000000000815260040180806020018281038252601d8152602001807f416464726573733a20696e73756666696369656e742062616c616e636500000081525060200191505060405180910390fd5b60008273ffffffffffffffffffffffffffffffffffffffff168260405180600001905060006040518083038185875af1925050503d80600081146123f2576040519150601f19603f3d011682016040523d82523d6000602084013e6123f7565b606091505b5050905080612451576040517f08c379a000000000000000000000000000000000000000000000000000000000815260040180806020018281038252603a815260200180613b51603a913960400191505060405180910390fd5b505050565b6040518060400160405280600060ff1681526020016000600481111561247857fe5b81525090565b828054600181600116156101000203166002900490600052602060002090601f0160209004810192826124b457600085556124fb565b82601f106124cd57803560ff19168380011785556124fb565b828001600101855582156124fb579182015b828111156124fa5782358255916020019190600101906124df565b5b509050612508919061250c565b5090565b5b8082111561252557600081600090555060010161250d565b5090565b60008135905061253881613aaf565b92915050565b60008135905061254d81613ac6565b92915050565b60008083601f84011261256557600080fd5b8235905067ffffffffffffffff81111561257e57600080fd5b60208301915083602082028301111561259657600080fd5b9250929050565b60008083601f8401126125af57600080fd5b8235905067ffffffffffffffff8111156125c857600080fd5b6020830191508360208202830111156125e057600080fd5b9250929050565b6000819050826020600202820111156125ff57600080fd5b92915050565b60008151905061261481613add565b92915050565b60008135905061262981613af4565b92915050565b60008151905061263e81613af4565b92915050565b60008083601f84011261265657600080fd5b8235905067ffffffffffffffff81111561266f57600080fd5b60208301915083600182028301111561268757600080fd5b9250929050565b60008083601f8401126126a057600080fd5b8235905067ffffffffffffffff8111156126b957600080fd5b6020830191508360018202830111156126d157600080fd5b9250929050565b6000813590506126e781613b0b565b92915050565b6000815190506126fc81613b22565b92915050565b60008135905061271181613b39565b92915050565b60006020828403121561272957600080fd5b600061273784828501612529565b91505092915050565b6000806040838503121561275357600080fd5b60006127618582860161253e565b9250506020612772858286016126d8565b9150509250929050565b6000806000806060858703121561279257600080fd5b60006127a087828801612529565b945050602085013567ffffffffffffffff8111156127bd57600080fd5b6127c987828801612553565b935093505060406127dc8782880161261a565b91505092959194509250565b6000806000604084860312156127fd57600080fd5b600061280b86828701612529565b935050602084013567ffffffffffffffff81111561282857600080fd5b6128348682870161259d565b92509250509250925092565b6000806000806000806000806000806101208b8d03121561286057600080fd5b600061286e8d828e01612529565b9a505060208b013567ffffffffffffffff81111561288b57600080fd5b6128978d828e016125e7565b99505060406128a88d828e01612529565b98505060608b013567ffffffffffffffff8111156128c557600080fd5b6128d18d828e0161259d565b975097505060806128e48d828e01612702565b95505060a06128f58d828e0161253e565b94505060c06129068d828e016126d8565b93505060e06129178d828e01612529565b9250506101006129298d828e016126d8565b9150509295989b9194979a5092959850565b60006020828403121561294d57600080fd5b600061295b84828501612605565b91505092915050565b60006020828403121561297657600080fd5b60006129848482850161261a565b91505092915050565b60006020828403121561299f57600080fd5b60006129ad8482850161262f565b91505092915050565b600080602083850312156129c957600080fd5b600083013567ffffffffffffffff8111156129e357600080fd5b6129ef85828601612644565b92509250509250929050565b600080600080600080600080600060e08a8c031215612a1957600080fd5b60008a013567ffffffffffffffff811115612a3357600080fd5b612a3f8c828d01612644565b995099505060208a013567ffffffffffffffff811115612a5e57600080fd5b612a6a8c828d01612644565b97509750506040612a7d8c828d016126d8565b9550506060612a8e8c828d016126d8565b9450506080612a9f8c828d016126d8565b93505060a0612ab08c828d01612529565b92505060c0612ac18c828d0161253e565b9150509295985092959850929598565b60008060208385031215612ae457600080fd5b600083013567ffffffffffffffff811115612afe57600080fd5b612b0a8582860161268e565b92509250509250929050565b600080600080600060608688031215612b2e57600080fd5b600086013567ffffffffffffffff811115612b4857600080fd5b612b548882890161268e565b9550955050602086013567ffffffffffffffff811115612b7357600080fd5b612b7f8882890161268e565b93509350506040612b92888289016126d8565b9150509295509295909350565b600060208284031215612bb157600080fd5b6000612bbf848285016126ed565b91505092915050565b6000612bd48383612c2e565b60208301905092915050565b6000612bec8383612d9b565b60208301905092915050565b6000612c048383612db9565b60208301905092915050565b612c1981613978565b82525050565b612c28816138ec565b82525050565b612c37816138da565b82525050565b612c46816138da565b82525050565b612c55816138da565b82525050565b612c6c612c67826138da565b613a40565b82525050565b6000612c7d82613823565b612c878185613869565b9350612c9283613803565b8060005b83811015612cc3578151612caa8882612bc8565b9750612cb58361384f565b925050600181019050612c96565b5085935050505092915050565b6000612cdb8261382e565b612ce5818561387a565b9350612cf083613813565b8060005b83811015612d21578151612d088882612be0565b9750612d138361385c565b925050600181019050612cf4565b5085935050505092915050565b6000612d398261382e565b612d43818561388b565b9350612d4e83613813565b8060005b83811015612d7f578151612d668882612bf8565b9750612d718361385c565b925050600181019050612d52565b5085935050505092915050565b612d95816138fe565b82525050565b612da48161390a565b82525050565b612db38161390a565b82525050565b612dc28161390a565b82525050565b612dd9612dd48261390a565b613a52565b82525050565b6000612deb83856138ad565b9350612df88385846139fe565b82840190509392505050565b6000612e0f82613839565b612e19818561389c565b9350612e29818560208601613a0d565b612e3281613a70565b840191505092915050565b612e468161398a565b82525050565b612e558161399c565b82525050565b612e64816139b6565b82525050565b6000612e7683856138b8565b9350612e838385846139fe565b612e8c83613a70565b840190509392505050565b6000612ea383856138c9565b9350612eb08385846139fe565b612eb983613a70565b840190509392505050565b6000612ecf82613844565b612ed981856138b8565b9350612ee9818560208601613a0d565b612ef281613a70565b840191505092915050565b6000612f0a6009836138b8565b91507f4e4f20434f4d4d495400000000000000000000000000000000000000000000006000830152602082019050919050565b6000612f4a600d836138b8565b91507f57726f6e6720636f756e746572000000000000000000000000000000000000006000830152602082019050919050565b6000612f8a601a836138b8565b91507f4e4f545f4d4545545f4d494e494d554d5f475541524449414e530000000000006000830152602082019050919050565b6000612fca6013836138b8565b91507f494e495449414c495a45445f414c5245414459000000000000000000000000006000830152602082019050919050565b600061300a6010836138b8565b91507f554e45585045435445442050524f4f46000000000000000000000000000000006000830152602082019050919050565b600061304a601d836138b8565b91507f5574696c733a20496e76616c69642066756e6374696f6e5072656669780000006000830152602082019050919050565b600061308a6012836138b8565b91507f6e6f7420656e6f7567682062616c616e636500000000000000000000000000006000830152602082019050919050565b60006130ca600e836138b8565b91507f6d757374206265206d65746174780000000000000000000000000000000000006000830152602082019050919050565b600061310a6029836138b8565b91507f4e4f545f46524f4d5f57414c4c45545f4f525f4f574e45525f4f525f57414c4c60008301527f45545f4c4f434b454400000000000000000000000000000000000000000000006020830152604082019050919050565b60006131706015836138b8565b91507f4e4f5420454e4f55474820544f205041592046454500000000000000000000006000830152602082019050919050565b60006131b06015836138b8565b91507f6f766572207769746864726177616c206c696d697400000000000000000000006000830152602082019050919050565b60006131f0600e836138b8565b91507f756e6b6e6f776e206d6574686f640000000000000000000000000000000000006000830152602082019050919050565b6040820160008201516132396000850182612c2e565b50602082015161324c6020850182613259565b50505050565b8082525050565b61326281613951565b82525050565b61327181613951565b82525050565b61328081613951565b82525050565b61328f816139ec565b82525050565b61329e8161396b565b82525050565b60006132b08285612c5b565b6014820191506132c08284612dc8565b6020820191508190509392505050565b60006132dd828486612ddf565b91508190509392505050565b60006020820190506132fe6000830184612c3d565b92915050565b60006040820190506133196000830185612c10565b6133266020830184613268565b9392505050565b600061018082019050613343600083018e612c3d565b613350602083018d612d8c565b61335d604083018c613295565b61336a606083018b613268565b613377608083018a612c1f565b61338460a0830189613268565b61339160c0830188613268565b61339e60e0830187613268565b8181036101008301526133b18186612ec4565b90506133c1610120830185613223565b6133cf610160830184612c3d565b9c9b505050505050505050505050565b60006040820190506133f46000830185612c3d565b6134016020830184613268565b9392505050565b600060208201905081810360008301526134228184612c72565b905092915050565b600060208201905081810360008301526134448184612d2e565b905092915050565b600060208201905081810360008301526134668184612cd0565b905092915050565b60006020820190506134836000830184612d8c565b92915050565b600060408201905081810360008301526134a38185612e04565b90506134b26020830184612e4c565b9392505050565b600060608201905081810360008301526134d4818789612e6a565b905081810360208301526134e9818587612e6a565b90506134f86040830184612e5b565b9695505050505050565b6000602082019050818103600083015261351c8184612ec4565b905092915050565b6000602082019050818103600083015261353d81612efd565b9050919050565b6000602082019050818103600083015261355d81612f3d565b9050919050565b6000602082019050818103600083015261357d81612f7d565b9050919050565b6000602082019050818103600083015261359d81612fbd565b9050919050565b600060208201905081810360008301526135bd81612ffd565b9050919050565b600060208201905081810360008301526135dd8161303d565b9050919050565b600060208201905081810360008301526135fd8161307d565b9050919050565b6000602082019050818103600083015261361d816130bd565b9050919050565b6000602082019050818103600083015261363d816130fd565b9050919050565b6000602082019050818103600083015261365d81613163565b9050919050565b6000602082019050818103600083015261367d816131a3565b9050919050565b6000602082019050818103600083015261369d816131e3565b9050919050565b60006020820190506136b96000830184613252565b92915050565b60006040820190506136d46000830185613252565b6136e16020830184612c4c565b9392505050565b60006080820190506136fd6000830189613252565b8181036020830152613710818789612e97565b90508181036040830152613725818587612e97565b90506137346060830184613277565b979650505050505050565b60006020820190506137546000830184613268565b92915050565b600060408201905061376f6000830185613286565b61377c6020830184612daa565b9392505050565b60006040820190506137986000830185613295565b6137a56020830184612e3d565b9392505050565b600080833560016020038436030381126137c557600080fd5b80840192508235915067ffffffffffffffff8211156137e357600080fd5b6020830192506001820236038313156137fb57600080fd5b509250929050565b6000819050602082019050919050565b6000819050602082019050919050565b600081519050919050565b600081519050919050565b600081519050919050565b600081519050919050565b6000602082019050919050565b6000602082019050919050565b600082825260208201905092915050565b600082825260208201905092915050565b600082825260208201905092915050565b600082825260208201905092915050565b600081905092915050565b600082825260208201905092915050565b600082825260208201905092915050565b60006138e582613931565b9050919050565b60006138f782613931565b9050919050565b60008115159050919050565b6000819050919050565b600081905061392282613a9b565b919050565b6000819050919050565b600073ffffffffffffffffffffffffffffffffffffffff82169050919050565b6000819050919050565b600063ffffffff82169050919050565b600060ff82169050919050565b6000613983826139c8565b9050919050565b600061399582613914565b9050919050565b60006139af6139aa83613927565b613a81565b9050919050565b60006139c182613951565b9050919050565b60006139d3826139da565b9050919050565b60006139e582613931565b9050919050565b60006139f78261396b565b9050919050565b82818337600083830152505050565b60005b83811015613a2b578082015181840152602081019050613a10565b83811115613a3a576000848401525b50505050565b6000613a4b82613a5c565b9050919050565b6000819050919050565b6000613a6782613a8e565b9050919050565bfe5b6000601f19601f8301169050919050565b60008160001b9050919050565b60008160601b9050919050565b60058110613aac57613aab613a6e565b5b50565b613ab8816138da565b8114613ac357600080fd5b50565b613acf816138ec565b8114613ada57600080fd5b50565b613ae6816138fe565b8114613af157600080fd5b50565b613afd8161390a565b8114613b0857600080fd5b50565b613b1481613951565b8114613b1f57600080fd5b50565b613b2b8161395b565b8114613b3657600080fd5b50565b613b428161396b565b8114613b4d57600080fd5b5056fe416464726573733a20756e61626c6520746f2073656e642076616c75652c20726563697069656e74206d61792068617665207265766572746564a264697066735822122063b6eb481391a6709f12fc9f3f044c9daa90301c21da525bf74d1a2b8e1bcc6864736f6c63430007060033",
  "immutableReferences": {},
  "source": "// SPDX-License-Identifier: GPL-3.0-only\n\npragma solidity ^0.7.6;\npragma experimental ABIEncoderV2;\n\nimport \"openzeppelin-solidity/contracts/utils/Address.sol\";\nimport \"./core/wallet_data.sol\";\nimport \"./features/guardians.sol\";\nimport \"./features/daily_limit.sol\";\nimport \"./features/recovery.sol\";\nimport \"./features/metatx.sol\";\nimport \"./features/name_service.sol\";\n\ncontract TOTPWallet {\n\n    using Address for address payable;\n    using Guardians for Core.Wallet;\n    using DailyLimit for Core.Wallet;\n    using Recovery for Core.Wallet;\n    using MetaTx for Core.Wallet;\n    using NameService for Core.Wallet;\n\n    // DATA LAYOUT - ALWAYS ADD NEW VAR TO LAST\n\n    address masterCopy;\n    Core.Wallet public wallet;\n    bool internal isImplementationContract;\n\n\n    // END OF DATA LAYOUT\n\n    event DebugEvent(bytes16 data);\n    event DebugEvent32(bytes32 data);\n    event DebugEventN(uint32 data);\n    event DebugEventA(address data);    \n    event DebugEvent256(uint256 data);\n    event WalletTransfer(address to, uint amount);\n    event Deposit(address indexed sender, uint value);\n    event WalletUpgraded(address newImpl);\n    event TransactionExecuted(bool indexed success, bytes returnData, bytes32 signedHash);\n\n    constructor() {\n        isImplementationContract = true;\n    }\n\n    modifier disableInImplementationContract\n    {\n        require(!isImplementationContract, \"DISALLOWED_ON_IMPLEMENTATION_CONTRACT\");\n        _;\n    }\n\n    // keep methods <= 8 parameters of get stack to deep\n    function initialize(\n        address              resolver_,\n        string[2]   calldata domain_, // empty means no registration\n        address             owner_, \n        bytes32[] calldata    rootHash_, \n        uint8               merkelHeight_, \n        address payable     drainAddr_, \n        uint                dailyLimit_,\n        address             feeRecipient,\n        uint                feeAmount                \n        ) external \n        // disableInImplementationContract()\n    {\n        wallet.resolver = resolver_;\n\n        //emit DebugEvent256(address(this).balance);\n        require(wallet.owner == address(0), \"INITIALIZED_ALREADY\");\n        require(address(this).balance >= feeAmount, \"NOT ENOUGH TO PAY FEE\");\n\n        wallet.owner = owner_;\n        for (uint32 i = 0; i < rootHash_.length; i++) {\n             wallet.rootHash.push(rootHash_[i]);\n        }        \n        wallet.merkelHeight = merkelHeight_;\n        wallet.drainAddr = drainAddr_;\n        wallet.dailyLimit = dailyLimit_;\n\n        // STACK TOO DEEP\n        if(bytes(domain_[0]).length > 0) {\n            this.registerENS(domain_[0], domain_[1], 60 * 60 * 24 * 365);\n        }\n\n        if (feeRecipient != address(0)) {\n            payable(feeRecipient).sendValue(feeAmount);\n        }        \n    }   \n\n    function registerENS(string calldata subdomain, string calldata domain, uint duration) external onlyFromWalletOrOwnerWhenUnlocked() {\n        wallet.registerENS(subdomain, domain, duration);\n    }\n\n    modifier onlyFromWalletOrOwnerWhenUnlocked()\n    {\n        require(\n            msg.sender == address(this) ||\n            (msg.sender == wallet.owner && !wallet.locked),\n             \"NOT_FROM_WALLET_OR_OWNER_OR_WALLET_LOCKED\"\n        );\n        _;\n    }\n\n    modifier onlySelf() {\n        require(msg.sender == address(this), \"must be metatx\");\n        _;\n    }\n\n    // confirmMaterial contains OTP + intermediatory hashes + sides\n    modifier onlyValidTOTP(bytes32[] memory confirmMaterial) \n    {\n        //require(_deriveChildTreeIdx(sides) == getCurrentCounter(), \"unexpected counter value\"); \n        bytes32 reduced = Recovery._reduceConfirmMaterial(confirmMaterial);\n        require(wallet.counter == Recovery._deriveChildTreeIdx(wallet.merkelHeight, confirmMaterial[confirmMaterial.length-1]), \"Wrong counter\");\n\n        bool foundMatch = false;\n        for (uint32 i = 0; i < wallet.rootHash.length; i++) {\n            if(reduced==wallet.rootHash[i]) {\n                foundMatch = true;\n            }\n        }\n        require(foundMatch, \"UNEXPECTED PROOF\");\n        _;\n    }\n\n    function getRequiredSignatures(bytes calldata _data) public view returns (uint8, Core.OwnerSignature) {\n        bytes4 methodId = functionPrefix(_data);\n\n        if(methodId == TOTPWallet.makeTransfer.selector ||\n            methodId == TOTPWallet.addGuardian.selector ||\n            methodId == TOTPWallet.revokeGuardian.selector||\n            methodId == TOTPWallet.upgradeMasterCopy.selector ||\n            methodId == TOTPWallet.setHashStorageId.selector) {\n            return (1, Core.OwnerSignature.Required);\n        }\n\n        if(methodId == TOTPWallet.startRecoverGuardianOnly.selector) {\n            require(wallet.guardians.length >= 2, \"NOT_MEET_MINIMUM_GUARDIANS\");\n            uint requiredSignatures = MetaTx.ceil(wallet.guardians.length, 2);\n            return (uint8(requiredSignatures), Core.OwnerSignature.Disallowed);            \n        }\n\n        // 1 of 1 = 0 sig\n        // 2 of 2 = 1 sig + HOTP\n        // 2 of 3 = 1 sig + HOTP\n        if(methodId == TOTPWallet.startRecoverCommit.selector) {\n            uint requiredSignatures = MetaTx.ceil(wallet.guardians.length, 2);\n            return (uint8(requiredSignatures), Core.OwnerSignature.Disallowed);            \n        }\n        if(methodId == TOTPWallet.startRecoveryReveal.selector) {\n            return (0, Core.OwnerSignature.Disallowed);            \n        }\n        \n        revert(\"unknown method\");\n    }    \n\n    function executeMetaTx(\n            bytes   calldata data,\n            bytes   calldata signatures, \n            uint256 nonce,\n            uint256 gasPrice,\n            uint256 gasLimit,\n            address refundToken,\n            address payable refundAddress            \n        ) external \n    {\n        uint gasLeft = gasleft();        \n        uint8 requiredSignatures;\n        Core.SignatureRequirement memory sigRequirement;        \n        (sigRequirement.requiredSignatures, sigRequirement.ownerSignatureRequirement) = getRequiredSignatures(data);        \n\n        //MetaTx.executeMetaTx(wallet, refundAddress, data, signatures, nonce, gasPrice, gasLimit, refundAddress, sigRequirement);\n        bool success;\n        bytes memory returnData;\n        (success, returnData) = address(this).call(data);\n\n        if(gasPrice > 0 && success && refundAddress != address(0x0)) {\n            uint gasUsed = gasLeft - gasleft() + 70000; //35k overhead\n            refundAddress.transfer(gasUsed);\n        }\n        emit TransactionExecuted(success, returnData, 0x0);        \n    }\n\n    function makeTransfer(address payable to, uint amount) external onlyFromWalletOrOwnerWhenUnlocked() \n    {\n        require(wallet.isUnderLimit(amount), \"over withdrawal limit\");\n        require(address(this).balance >= amount, \"not enough balance\");  \n\n        wallet.spentToday += amount;\n        to.transfer(amount);\n        emit WalletTransfer(to, amount);             \n    }\n\n    function getOwner()  public\n        view\n        returns (address) \n    {\n        return wallet.owner;\n    }\n\n    function getCounter()  public\n        view\n        returns (uint) \n    {\n        return wallet.counter;\n    }\n\n    function setHashStorageId(string calldata id) external  onlyFromWalletOrOwnerWhenUnlocked()  {\n        wallet.hashStorageID = id;\n    }\n\n    function getHashStorageId() public view  returns (string memory){\n        return wallet.hashStorageID;\n    }\n    \n    function getRootHashes()\n         public\n         view\n         returns (bytes32[] memory )\n     {\n         return wallet.rootHash;\n     }\n    //TODO: Drain ERC20 tokens too\n    // function drain() external onlyFromWalletOrOwnerWhenUnlocked()  {\n    //     wallet.drainAddr.transfer(address(this).balance);            \n    // }\n\n    // function drain() external {\n    //     require(msg.sender == wallet.drainAddr, \"sender != drain\");        \n    //     // require(remainingTokens() <= 0, \"not depleted tokens\");\n    //     wallet.drainAddr.transfer(address(this).balance);            \n    // }\n\n    //\n    // Guardians functions\n    //\n    function addGuardian(address guardian, bytes16[] calldata confirmMaterial, bytes32 sides)\n        external\n        onlyFromWalletOrOwnerWhenUnlocked()\n    {\n        wallet.addGuardian(guardian);\n    }\n\n    function revokeGuardian(address guardian, bytes16[] calldata confirmMaterial, bytes32 sides)\n        external\n        onlyFromWalletOrOwnerWhenUnlocked()\n    {\n        wallet.revokeGuardian(guardian);\n    }\n\n    function isGuardian(address addr)\n         public\n         view\n         returns (bool)\n     {\n         return wallet.isGuardian(addr);\n     }\n\n     function getGuardians()\n         public\n         view\n         returns (address[] memory )\n     {\n         return wallet.guardians;\n     }\n\n    //\n    // Recovery functions\n    //\n    // In default setup with only HOTP setup, wallet recovery is done on its own.\n    // In a more secure setup with HOTP + guardians, HOTP is considered as 1 guardian.\n    //\n    // Relay/or other coordinating system will coordinate the signatures collections \n    // from guardian and submit along with the HOTP together. In rare case, HOTP may be ommitted\n    // when greater than 2 guardians can recover without HOTP.\n    function startRecoverGuardianOnly(address newOwner_) onlySelf() external {\n        // move into recovery state\n        wallet.startRecovery(newOwner_);\n    }\n\n    // recover with combination of commithash and signatures\n    function startRecoverCommit(bytes32 commitHash)  onlySelf() external {\n        wallet.commitHash[commitHash] = true;\n    }\n\n    function startRecoveryReveal(address newOwner, bytes32[] calldata confirmMaterial)  onlySelf() onlyValidTOTP(confirmMaterial) external {\n        bytes32 hash = keccak256(abi.encodePacked(newOwner, confirmMaterial[0]));\n        require(wallet.commitHash[hash], \"NO COMMIT\");\n\n        wallet.startRecovery(newOwner);\n        delete wallet.commitHash[hash];\n        wallet.counter = wallet.counter + 1;\n    }\n\n    function isRecovering() external view returns (bool) {\n        return wallet.pendingRecovery.expiration != 0;\n    }\n\n    function cancelRecovery() external onlyFromWalletOrOwnerWhenUnlocked() {\n        wallet.pendingRecovery = Core.RecoveryInfo(address(0),0);\n    }\n\n    function getRecovery() external view returns (address,uint) {\n        return (wallet.pendingRecovery.newOwner, wallet.pendingRecovery.expiration);\n    }\n\n    function finalizeRecovery() external {\n        wallet.finalizeRecovery();\n    }\n\n    function upgradeMasterCopy(address newMasterCopy) external onlySelf() {\n        masterCopy = newMasterCopy;\n        emit WalletUpgraded(newMasterCopy);\n    }\n    //\n    // Utility functions\n    //\n\n    /**\n    * @notice Helper method to parse data and extract the method signature.\n    */\n    function functionPrefix(bytes memory _data) internal pure returns (bytes4 prefix) {\n        require(_data.length >= 4, \"Utils: Invalid functionPrefix\");\n        // solhint-disable-next-line no-inline-assembly\n        assembly {\n            prefix := mload(add(_data, 0x20))\n        }\n    }\n    /// @dev Fallback function allows to deposit ether.\n    receive() external payable {\n        if (msg.value > 0)\n            emit Deposit(msg.sender, msg.value);\n    }\n\n}\n",
  "sourcePath": "/home/quoc/Projects/harmony-totp-pure/contracts/otp_wallet.sol",
  "compiler": {
    "name": "solc",
    "version": "0.7.6+commit.7338295f.Emscripten.clang"
  },
  "schemaVersion": "3.3.4",
  "updatedAt": "2021-06-30T22:34:46.146Z",
  "networkType": "ethereum",
  "devdoc": {
    "kind": "dev",
    "methods": {},
    "version": 1
  },
  "userdoc": {
    "kind": "user",
    "methods": {},
    "version": 1
  }
}