{
  "contractName": "TOTPWallet",
  "abi": [
    {
      "inputs": [],
      "stateMutability": "nonpayable",
      "type": "constructor"
    },
    {
      "anonymous": false,
      "inputs": [
        {
          "indexed": true,
          "internalType": "address",
          "name": "sender",
          "type": "address"
        },
        {
          "indexed": false,
          "internalType": "uint256",
          "name": "value",
          "type": "uint256"
        }
      ],
      "name": "Deposit",
      "type": "event"
    },
    {
      "anonymous": false,
      "inputs": [
        {
          "indexed": false,
          "internalType": "address",
          "name": "wallet",
          "type": "address"
        },
        {
          "indexed": false,
          "internalType": "address",
          "name": "refundAddress",
          "type": "address"
        },
        {
          "indexed": false,
          "internalType": "uint256",
          "name": "refundFee",
          "type": "uint256"
        }
      ],
      "name": "Initialized",
      "type": "event"
    },
    {
      "anonymous": false,
      "inputs": [
        {
          "indexed": true,
          "internalType": "bool",
          "name": "success",
          "type": "bool"
        },
        {
          "indexed": false,
          "internalType": "bytes",
          "name": "returnData",
          "type": "bytes"
        },
        {
          "indexed": false,
          "internalType": "bytes32",
          "name": "signedHash",
          "type": "bytes32"
        },
        {
          "indexed": false,
          "internalType": "address",
          "name": "refundAddress",
          "type": "address"
        },
        {
          "indexed": false,
          "internalType": "uint256",
          "name": "refundFee",
          "type": "uint256"
        }
      ],
      "name": "TransactionExecuted",
      "type": "event"
    },
    {
      "anonymous": false,
      "inputs": [
        {
          "indexed": false,
          "internalType": "address",
          "name": "newImpl",
          "type": "address"
        }
      ],
      "name": "WalletUpgraded",
      "type": "event"
    },
    {
      "inputs": [],
      "name": "version",
      "outputs": [
        {
          "internalType": "uint256",
          "name": "",
          "type": "uint256"
        }
      ],
      "stateMutability": "view",
      "type": "function",
      "constant": true
    },
    {
      "inputs": [],
      "name": "wallet",
      "outputs": [
        {
          "internalType": "address",
          "name": "owner",
          "type": "address"
        },
        {
          "internalType": "bool",
          "name": "locked",
          "type": "bool"
        },
        {
          "internalType": "uint8",
          "name": "merkelHeight",
          "type": "uint8"
        },
        {
          "internalType": "uint256",
          "name": "counter",
          "type": "uint256"
        },
        {
          "internalType": "address payable",
          "name": "drainAddr",
          "type": "address"
        },
        {
          "components": [
            {
              "internalType": "address",
              "name": "key",
              "type": "address"
            },
            {
              "internalType": "uint256",
              "name": "expires",
              "type": "uint256"
            },
            {
              "internalType": "bool",
              "name": "active",
              "type": "bool"
            },
            {
              "internalType": "address[]",
              "name": "guardiansApproved",
              "type": "address[]"
            }
          ],
          "internalType": "struct Core.Session",
          "name": "session",
          "type": "tuple"
        },
        {
          "components": [
            {
              "internalType": "uint256",
              "name": "limit",
              "type": "uint256"
            },
            {
              "internalType": "uint256",
              "name": "lastDay",
              "type": "uint256"
            },
            {
              "internalType": "uint256",
              "name": "spentToday",
              "type": "uint256"
            }
          ],
          "internalType": "struct Core.DailyLimit",
          "name": "dailyLimit",
          "type": "tuple"
        },
        {
          "internalType": "string",
          "name": "hashStorageID",
          "type": "string"
        },
        {
          "components": [
            {
              "internalType": "bytes32",
              "name": "secretHash",
              "type": "bytes32"
            },
            {
              "internalType": "bytes32",
              "name": "dataHash",
              "type": "bytes32"
            },
            {
              "internalType": "address[]",
              "name": "guardiansApproved",
              "type": "address[]"
            }
          ],
          "internalType": "struct Core.RecoveryInfo",
          "name": "pendingRecovery",
          "type": "tuple"
        },
        {
          "internalType": "address",
          "name": "resolver",
          "type": "address"
        },
        {
          "internalType": "uint256",
          "name": "nonce",
          "type": "uint256"
        }
      ],
      "stateMutability": "view",
      "type": "function",
      "constant": true
    },
    {
      "stateMutability": "payable",
      "type": "receive",
      "payable": true
    },
    {
      "inputs": [
        {
          "internalType": "address",
          "name": "resolver_",
          "type": "address"
        },
        {
          "internalType": "string[3]",
          "name": "domainAndHashId_",
          "type": "string[3]"
        },
        {
          "internalType": "address",
          "name": "owner_",
          "type": "address"
        },
        {
          "internalType": "bytes32[]",
          "name": "rootHash_",
          "type": "bytes32[]"
        },
        {
          "internalType": "uint8",
          "name": "merkelHeight_",
          "type": "uint8"
        },
        {
          "internalType": "address payable",
          "name": "drainAddr_",
          "type": "address"
        },
        {
          "internalType": "uint256",
          "name": "dailyLimit_",
          "type": "uint256"
        },
        {
          "internalType": "address",
          "name": "feeRecipient",
          "type": "address"
        },
        {
          "internalType": "uint256",
          "name": "feeAmount",
          "type": "uint256"
        }
      ],
      "name": "initialize",
      "outputs": [],
      "stateMutability": "nonpayable",
      "type": "function"
    },
    {
      "inputs": [
        {
          "internalType": "string",
          "name": "subdomain",
          "type": "string"
        },
        {
          "internalType": "string",
          "name": "domain",
          "type": "string"
        },
        {
          "internalType": "uint256",
          "name": "duration",
          "type": "uint256"
        }
      ],
      "name": "registerENS",
      "outputs": [],
      "stateMutability": "nonpayable",
      "type": "function"
    },
    {
      "inputs": [
        {
          "internalType": "bytes",
          "name": "_data",
          "type": "bytes"
        }
      ],
      "name": "getRequiredSignatures",
      "outputs": [
        {
          "internalType": "uint8",
          "name": "",
          "type": "uint8"
        },
        {
          "internalType": "enum Core.OwnerSignature",
          "name": "",
          "type": "uint8"
        }
      ],
      "stateMutability": "view",
      "type": "function",
      "constant": true
    },
    {
      "inputs": [
        {
          "internalType": "bytes",
          "name": "data",
          "type": "bytes"
        },
        {
          "internalType": "bytes",
          "name": "signatures",
          "type": "bytes"
        },
        {
          "internalType": "uint256",
          "name": "nonce",
          "type": "uint256"
        },
        {
          "internalType": "uint256",
          "name": "gasPrice",
          "type": "uint256"
        },
        {
          "internalType": "uint256",
          "name": "gasLimit",
          "type": "uint256"
        },
        {
          "internalType": "address",
          "name": "",
          "type": "address"
        },
        {
          "internalType": "address payable",
          "name": "refundAddress",
          "type": "address"
        }
      ],
      "name": "executeMetaTx",
      "outputs": [],
      "stateMutability": "nonpayable",
      "type": "function"
    },
    {
      "inputs": [
        {
          "components": [
            {
              "internalType": "address",
              "name": "to",
              "type": "address"
            },
            {
              "internalType": "uint256",
              "name": "value",
              "type": "uint256"
            },
            {
              "internalType": "bytes",
              "name": "data",
              "type": "bytes"
            }
          ],
          "internalType": "struct TOTPWallet.Call[]",
          "name": "_transactions",
          "type": "tuple[]"
        }
      ],
      "name": "multiCall",
      "outputs": [
        {
          "internalType": "bytes[]",
          "name": "",
          "type": "bytes[]"
        }
      ],
      "stateMutability": "nonpayable",
      "type": "function"
    },
    {
      "inputs": [
        {
          "components": [
            {
              "internalType": "address",
              "name": "to",
              "type": "address"
            },
            {
              "internalType": "uint256",
              "name": "value",
              "type": "uint256"
            },
            {
              "internalType": "bytes",
              "name": "data",
              "type": "bytes"
            }
          ],
          "internalType": "struct TOTPWallet.Call[]",
          "name": "_transactions",
          "type": "tuple[]"
        }
      ],
      "name": "multiCallWithSession",
      "outputs": [
        {
          "internalType": "bytes[]",
          "name": "",
          "type": "bytes[]"
        }
      ],
      "stateMutability": "nonpayable",
      "type": "function"
    },
    {
      "inputs": [
        {
          "internalType": "uint256",
          "name": "duration",
          "type": "uint256"
        }
      ],
      "name": "startSession",
      "outputs": [],
      "stateMutability": "nonpayable",
      "type": "function"
    },
    {
      "inputs": [],
      "name": "clearSession",
      "outputs": [],
      "stateMutability": "nonpayable",
      "type": "function"
    },
    {
      "inputs": [],
      "name": "getOwner",
      "outputs": [
        {
          "internalType": "address",
          "name": "",
          "type": "address"
        }
      ],
      "stateMutability": "view",
      "type": "function",
      "constant": true
    },
    {
      "inputs": [],
      "name": "getCounter",
      "outputs": [
        {
          "internalType": "uint256",
          "name": "",
          "type": "uint256"
        }
      ],
      "stateMutability": "view",
      "type": "function",
      "constant": true
    },
    {
      "inputs": [
        {
          "internalType": "string",
          "name": "id",
          "type": "string"
        }
      ],
      "name": "setHashStorageId",
      "outputs": [],
      "stateMutability": "nonpayable",
      "type": "function"
    },
    {
      "inputs": [],
      "name": "getHashStorageId",
      "outputs": [
        {
          "internalType": "string",
          "name": "",
          "type": "string"
        }
      ],
      "stateMutability": "view",
      "type": "function",
      "constant": true
    },
    {
      "inputs": [],
      "name": "getRootHashes",
      "outputs": [
        {
          "internalType": "bytes32[]",
          "name": "",
          "type": "bytes32[]"
        }
      ],
      "stateMutability": "view",
      "type": "function",
      "constant": true
    },
    {
      "inputs": [
        {
          "internalType": "address payable",
          "name": "addr",
          "type": "address"
        }
      ],
      "name": "setDrainAddress",
      "outputs": [],
      "stateMutability": "nonpayable",
      "type": "function"
    },
    {
      "inputs": [
        {
          "internalType": "uint256",
          "name": "amount",
          "type": "uint256"
        }
      ],
      "name": "setDailyLimit",
      "outputs": [],
      "stateMutability": "nonpayable",
      "type": "function"
    },
    {
      "inputs": [
        {
          "internalType": "address",
          "name": "guardian",
          "type": "address"
        }
      ],
      "name": "addGuardian",
      "outputs": [],
      "stateMutability": "nonpayable",
      "type": "function"
    },
    {
      "inputs": [
        {
          "internalType": "address",
          "name": "guardian",
          "type": "address"
        }
      ],
      "name": "revokeGuardian",
      "outputs": [],
      "stateMutability": "nonpayable",
      "type": "function"
    },
    {
      "inputs": [],
      "name": "getGuardians",
      "outputs": [
        {
          "internalType": "address[]",
          "name": "",
          "type": "address[]"
        }
      ],
      "stateMutability": "view",
      "type": "function",
      "constant": true
    },
    {
      "inputs": [
        {
          "internalType": "address",
          "name": "newOwner_",
          "type": "address"
        }
      ],
      "name": "startRecoverGuardianOnly",
      "outputs": [],
      "stateMutability": "nonpayable",
      "type": "function"
    },
    {
      "inputs": [
        {
          "internalType": "bytes32",
          "name": "secretHash",
          "type": "bytes32"
        },
        {
          "internalType": "bytes32",
          "name": "dataHash",
          "type": "bytes32"
        }
      ],
      "name": "startRecoverCommit",
      "outputs": [],
      "stateMutability": "nonpayable",
      "type": "function"
    },
    {
      "inputs": [
        {
          "internalType": "address",
          "name": "newOwner",
          "type": "address"
        },
        {
          "internalType": "bytes32[]",
          "name": "confirmMaterial",
          "type": "bytes32[]"
        }
      ],
      "name": "startRecoveryReveal",
      "outputs": [],
      "stateMutability": "nonpayable",
      "type": "function"
    },
    {
      "inputs": [
        {
          "internalType": "bytes",
          "name": "data_",
          "type": "bytes"
        }
      ],
      "name": "guardianApprove",
      "outputs": [],
      "stateMutability": "nonpayable",
      "type": "function"
    },
    {
      "inputs": [
        {
          "internalType": "address",
          "name": "newMasterCopy",
          "type": "address"
        }
      ],
      "name": "upgradeMasterCopy",
      "outputs": [],
      "stateMutability": "nonpayable",
      "type": "function"
    },
    {
      "inputs": [],
      "name": "getMasterCopy",
      "outputs": [
        {
          "internalType": "address",
          "name": "",
          "type": "address"
        }
      ],
      "stateMutability": "view",
      "type": "function",
      "constant": true
    },
    {
      "inputs": [
        {
          "internalType": "address",
          "name": "",
          "type": "address"
        },
        {
          "internalType": "address",
          "name": "",
          "type": "address"
        },
        {
          "internalType": "uint256",
          "name": "",
          "type": "uint256"
        },
        {
          "internalType": "uint256",
          "name": "",
          "type": "uint256"
        },
        {
          "internalType": "bytes",
          "name": "",
          "type": "bytes"
        }
      ],
      "name": "onERC1155Received",
      "outputs": [
        {
          "internalType": "bytes4",
          "name": "",
          "type": "bytes4"
        }
      ],
      "stateMutability": "pure",
      "type": "function",
      "constant": true
    },
    {
      "inputs": [
        {
          "internalType": "address",
          "name": "",
          "type": "address"
        },
        {
          "internalType": "address",
          "name": "",
          "type": "address"
        },
        {
          "internalType": "uint256[]",
          "name": "",
          "type": "uint256[]"
        },
        {
          "internalType": "uint256[]",
          "name": "",
          "type": "uint256[]"
        },
        {
          "internalType": "bytes",
          "name": "",
          "type": "bytes"
        }
      ],
      "name": "onERC1155BatchReceived",
      "outputs": [
        {
          "internalType": "bytes4",
          "name": "",
          "type": "bytes4"
        }
      ],
      "stateMutability": "pure",
      "type": "function",
      "constant": true
    },
    {
      "inputs": [
        {
          "internalType": "bytes4",
          "name": "interfaceID",
          "type": "bytes4"
        }
      ],
      "name": "supportsInterface",
      "outputs": [
        {
          "internalType": "bool",
          "name": "",
          "type": "bool"
        }
      ],
      "stateMutability": "pure",
      "type": "function",
      "constant": true
    },
    {
      "inputs": [
        {
          "internalType": "address",
          "name": "",
          "type": "address"
        },
        {
          "internalType": "address",
          "name": "",
          "type": "address"
        },
        {
          "internalType": "uint256",
          "name": "",
          "type": "uint256"
        },
        {
          "internalType": "bytes",
          "name": "",
          "type": "bytes"
        }
      ],
      "name": "onERC721Received",
      "outputs": [
        {
          "internalType": "bytes4",
          "name": "",
          "type": "bytes4"
        }
      ],
      "stateMutability": "pure",
      "type": "function",
      "constant": true
    },
    {
      "inputs": [
        {
          "internalType": "bytes32",
          "name": "_msgHash",
          "type": "bytes32"
        },
        {
          "internalType": "bytes",
          "name": "_signature",
          "type": "bytes"
        }
      ],
      "name": "isValidSignature",
      "outputs": [
        {
          "internalType": "bytes4",
          "name": "",
          "type": "bytes4"
        }
      ],
      "stateMutability": "view",
      "type": "function",
      "constant": true
    }
  ],
  "bytecode": "0x608060405234801561001057600080fd5b506001601660006101000a81548160ff021916908315150217905550615e6b806200003c6000396000f3fe6080604052600436106101dc5760003560e01c806383183a1b11610102578063b6c3843211610095578063d86dde5011610064578063d86dde50146106e2578063de033715146106f9578063ef24c73614610722578063f23a6e611461074b576101e3565b8063b6c3843214610628578063bc197c8114610651578063c832fe5f1461068e578063cabd82c5146106b9576101e3565b80638df2730a116100d15780638df2730a14610584578063a526d83b146105ad578063af648c3d146105d6578063b20d30a9146105ff576101e3565b806383183a1b146104c8578063837c606614610505578063893d20e81461052e5780638ada066e14610559576101e3565b80632f23a3ab1161017a57806375a3f50d1161014957806375a3f50d1461040f578063771276121461044d578063782c25bd1461047657806379d3d98c1461049f576101e3565b80632f23a3ab1461035d578063521eb2731461038657806354fd4d50146103bb578063693b60a2146103e6576101e3565b8063150b7a02116101b6578063150b7a021461027b5780631626ba7e146102b85780631f13938d146102f5578063248b170114610320576101e3565b806301ffc9a7146101e857806304e80e90146102255780630665f04b14610250576101e3565b366101e357005b600080fd5b3480156101f457600080fd5b5061020f600480360381019061020a919061416f565b610788565b60405161021c91906150a7565b60405180910390f35b34801561023157600080fd5b5061023a6108c6565b6040516102479190614f2e565b60405180910390f35b34801561025c57600080fd5b506102656108ef565b6040516102729190615041565b60405180910390f35b34801561028757600080fd5b506102a2600480360381019061029d9190613e0c565b610980565b6040516102af9190615107565b60405180910390f35b3480156102c457600080fd5b506102df60048036038101906102da919061411b565b610995565b6040516102ec9190615107565b60405180910390f35b34801561030157600080fd5b5061030a610a38565b604051610317919061524a565b60405180910390f35b34801561032c57600080fd5b5061034760048036038101906103429190614071565b610acd565b6040516103549190615085565b60405180910390f35b34801561036957600080fd5b50610384600480360381019061037f91906142f8565b610ee5565b005b34801561039257600080fd5b5061039b611045565b6040516103b29b9a99989796959493929190614f80565b60405180910390f35b3480156103c757600080fd5b506103d0611376565b6040516103dd91906156ac565b60405180910390f35b3480156103f257600080fd5b5061040d600480360381019061040891906141dd565b61137b565b005b34801561041b57600080fd5b5061043660048036038101906104319190614198565b611653565b6040516104449291906156c7565b60405180910390f35b34801561045957600080fd5b50610474600480360381019061046f9190614381565b6119cd565b005b34801561048257600080fd5b5061049d60048036038101906104989190613f76565b611aa8565b005b3480156104ab57600080fd5b506104c660048036038101906104c191906142b3565b611f6c565b005b3480156104d457600080fd5b506104ef60048036038101906104ea9190614071565b61206a565b6040516104fc9190615085565b60405180910390f35b34801561051157600080fd5b5061052c60048036038101906105279190614198565b6122d3565b005b34801561053a57600080fd5b5061054361262a565b6040516105509190614f2e565b60405180910390f35b34801561056557600080fd5b5061056e612657565b60405161057b91906156ac565b60405180910390f35b34801561059057600080fd5b506105ab60048036038101906105a691906140df565b612664565b005b3480156105b957600080fd5b506105d460048036038101906105cf9190613cee565b612801565b005b3480156105e257600080fd5b506105fd60048036038101906105f89190613cee565b612955565b005b34801561060b57600080fd5b5061062660048036038101906106219190614381565b612a32565b005b34801561063457600080fd5b5061064f600480360381019061064a9190613d17565b612ab0565b005b34801561065d57600080fd5b5061067860048036038101906106739190613d40565b612b65565b6040516106859190615107565b60405180910390f35b34801561069a57600080fd5b506106a3612b7d565b6040516106b09190615063565b60405180910390f35b3480156106c557600080fd5b506106e060048036038101906106db9190613f1e565b612bd7565b005b3480156106ee57600080fd5b506106f7612d69565b005b34801561070557600080fd5b50610720600480360381019061071b9190613cee565b612e5e565b005b34801561072e57600080fd5b5061074960048036038101906107449190613cee565b612f46565b005b34801561075757600080fd5b50610772600480360381019061076d9190613e8c565b613087565b60405161077f9190615107565b60405180910390f35b60006301ffc9a760e01b7bffffffffffffffffffffffffffffffffffffffffffffffffffffffff1916827bffffffffffffffffffffffffffffffffffffffffffffffffffffffff19161480610821575063f23a6e6160e01b7bffffffffffffffffffffffffffffffffffffffffffffffffffffffff1916827bffffffffffffffffffffffffffffffffffffffffffffffffffffffff1916145b80610870575063150b7a0260e01b7bffffffffffffffffffffffffffffffffffffffffffffffffffffffff1916827bffffffffffffffffffffffffffffffffffffffffffffffffffffffff1916145b806108bf5750631626ba7e60e01b7bffffffffffffffffffffffffffffffffffffffffffffffffffffffff1916827bffffffffffffffffffffffffffffffffffffffffffffffffffffffff1916145b9050919050565b60008060009054906101000a900473ffffffffffffffffffffffffffffffffffffffff16905090565b6060600160050180548060200260200160405190810160405280929190818152602001828054801561097657602002820191906000526020600020905b8160009054906101000a900473ffffffffffffffffffffffffffffffffffffffff1673ffffffffffffffffffffffffffffffffffffffff168152602001906001019080831161092c575b5050505050905090565b600063150b7a0260e01b905095945050505050565b600060418251146109db576040517f08c379a00000000000000000000000000000000000000000000000000000000081526004016109d2906153ec565b60405180910390fd5b6109e960018484600161309d565b610a28576040517f08c379a0000000000000000000000000000000000000000000000000000000008152600401610a1f9061546c565b60405180910390fd5b631626ba7e60e01b905092915050565b60606001600e018054610a4a90615be6565b80601f0160208091040260200160405190810160405280929190818152602001828054610a7690615be6565b8015610ac35780601f10610a9857610100808354040283529160200191610ac3565b820191906000526020600020905b815481529060010190602001808311610aa657829003601f168201915b5050505050905090565b60603073ffffffffffffffffffffffffffffffffffffffff163373ffffffffffffffffffffffffffffffffffffffff161480610b755750600160000160009054906101000a900473ffffffffffffffffffffffffffffffffffffffff1673ffffffffffffffffffffffffffffffffffffffff163373ffffffffffffffffffffffffffffffffffffffff16148015610b745750600160000160149054906101000a900460ff16155b5b610bb4576040517f08c379a0000000000000000000000000000000000000000000000000000000008152600401610bab906153cc565b60405180910390fd5b60008383905067ffffffffffffffff811115610bf9577f4e487b7100000000000000000000000000000000000000000000000000000000600052604160045260246000fd5b604051908082528060200260200182016040528015610c2c57816020015b6060815260200190600190039081610c175790505b50905060005b84849050811015610eda57366000868684818110610c79577f4e487b7100000000000000000000000000000000000000000000000000000000600052603260045260246000fd5b9050602002810190610c8b919061579e565b8060400190610c9a91906156f0565b915091506000878785818110610cd9577f4e487b7100000000000000000000000000000000000000000000000000000000600052603260045260246000fd5b9050602002810190610ceb919061579e565b60200135905060006001600501805490501115610e18576004838390501080610d665750610d64610d5f84848080601f016020809104026020016040519081016040528093929190818152602001838380828437600081840152601f19601f82011690508083019250505050505050613329565b61337c565b155b610da5576040517f08c379a0000000000000000000000000000000000000000000000000000000008152600401610d9c9061542c565b60405180910390fd5b610db98160016134ba90919063ffffffff16565b610df8576040517f08c379a0000000000000000000000000000000000000000000000000000000008152600401610def906152ac565b60405180910390fd5b806001600b016002016000828254610e109190615999565b925050819055505b610e80888886818110610e54577f4e487b7100000000000000000000000000000000000000000000000000000000600052603260045260246000fd5b9050602002810190610e66919061579e565b6000016020810190610e789190613cee565b82858561354b565b858581518110610eb9577f4e487b7100000000000000000000000000000000000000000000000000000000600052603260045260246000fd5b60200260200101819052505050508080610ed290615c18565b915050610c32565b508091505092915050565b3073ffffffffffffffffffffffffffffffffffffffff163373ffffffffffffffffffffffffffffffffffffffff161480610f8b5750600160000160009054906101000a900473ffffffffffffffffffffffffffffffffffffffff1673ffffffffffffffffffffffffffffffffffffffff163373ffffffffffffffffffffffffffffffffffffffff16148015610f8a5750600160000160149054906101000a900460ff16155b5b610fca576040517f08c379a0000000000000000000000000000000000000000000000000000000008152600401610fc1906153cc565b60405180910390fd5b600173__NameService___________________________63145f7620909187878787876040518763ffffffff1660e01b815260040161100e96959493929190615525565b60006040518083038186803b15801561102657600080fd5b505af415801561103a573d6000803e3d6000fd5b505050505050505050565b60018060000160009054906101000a900473ffffffffffffffffffffffffffffffffffffffff16908060000160149054906101000a900460ff16908060020160009054906101000a900460ff16908060030154908060040160009054906101000a900473ffffffffffffffffffffffffffffffffffffffff1690806007016040518060800160405290816000820160009054906101000a900473ffffffffffffffffffffffffffffffffffffffff1673ffffffffffffffffffffffffffffffffffffffff1673ffffffffffffffffffffffffffffffffffffffff168152602001600182015481526020016002820160009054906101000a900460ff16151515158152602001600382018054806020026020016040519081016040528092919081815260200182805480156111ce57602002820191906000526020600020905b8160009054906101000a900473ffffffffffffffffffffffffffffffffffffffff1673ffffffffffffffffffffffffffffffffffffffff1681526020019060010190808311611184575b5050505050815250509080600b0160405180606001604052908160008201548152602001600182015481526020016002820154815250509080600e01805461121590615be6565b80601f016020809104026020016040519081016040528092919081815260200182805461124190615be6565b801561128e5780601f106112635761010080835404028352916020019161128e565b820191906000526020600020905b81548152906001019060200180831161127157829003601f168201915b50505050509080600f0160405180606001604052908160008201548152602001600182015481526020016002820180548060200260200160405190810160405280929190818152602001828054801561133c57602002820191906000526020600020905b8160009054906101000a900473ffffffffffffffffffffffffffffffffffffffff1673ffffffffffffffffffffffffffffffffffffffff16815260200190600101908083116112f2575b505050505081525050908060130160009054906101000a900473ffffffffffffffffffffffffffffffffffffffff1690806014015490508b565b600481565b60005a9050611388613980565b6113928b8b611653565b82600001836020018260048111156113d3577f4e487b7100000000000000000000000000000000000000000000000000000000600052602160045260246000fd5b600481111561140b577f4e487b7100000000000000000000000000000000000000000000000000000000600052602160045260246000fd5b8152508260ff1660ff16815250505073__MetaTx________________________________631815d80160018d8d8d8d8d8d8d8c8b6040518b63ffffffff1660e01b81526004016114649a999897969594939291906155f3565b60006040518083038186803b15801561147c57600080fd5b505af4158015611490573d6000803e3d6000fd5b50505050600060603073ffffffffffffffffffffffffffffffffffffffff168d8d6040516114bf929190614f00565b6000604051808303816000865af19150503d80600081146114fc576040519150601f19603f3d011682016040523d82523d6000602084013e611501565b606091505b5080925081935050506000881180156115175750815b80156115505750600073ffffffffffffffffffffffffffffffffffffffff168573ffffffffffffffffffffffffffffffffffffffff1614155b15611601576000620111705a866115679190615a20565b6115719190615999565b90508573ffffffffffffffffffffffffffffffffffffffff166108fc829081150290604051600060405180830381858888f193505050501580156115b9573d6000803e3d6000fd5b508215157f83fbf939f72733e38e8b90fb507db5b3a43ce5c0967fac7f9bbd2d82f0c62afc83600089856040516115f394939291906151b5565b60405180910390a250611644565b8115157f83fbf939f72733e38e8b90fb507db5b3a43ce5c0967fac7f9bbd2d82f0c62afc82600088600060405161163b9493929190615169565b60405180910390a25b50505050505050505050505050565b60008060006116a585858080601f016020809104026020016040519081016040528093929190818152602001838380828437600081840152601f19601f82011690508083019250505050505050613329565b905063248b170160e01b7bffffffffffffffffffffffffffffffffffffffffffffffffffffffff1916817bffffffffffffffffffffffffffffffffffffffffffffffffffffffff1916148061173e575063a526d83b60e01b7bffffffffffffffffffffffffffffffffffffffffffffffffffffffff1916817bffffffffffffffffffffffffffffffffffffffffffffffffffffffff1916145b8061178d575063d86dde5060e01b7bffffffffffffffffffffffffffffffffffffffffffffffffffffffff1916817bffffffffffffffffffffffffffffffffffffffffffffffffffffffff1916145b806117dc57506379d3d98c60e01b7bffffffffffffffffffffffffffffffffffffffffffffffffffffffff1916817bffffffffffffffffffffffffffffffffffffffffffffffffffffffff1916145b156117ee5760018092509250506119c6565b6000600160050180549050141561181f576118088161337c565b1561181a5760018092509250506119c6565b6118d5565b637712761260e01b7bffffffffffffffffffffffffffffffffffffffffffffffffffffffff1916817bffffffffffffffffffffffffffffffffffffffffffffffffffffffff191614156118795760018092509250506119c6565b6383183a1b60e01b7bffffffffffffffffffffffffffffffffffffffffffffffffffffffff1916817bffffffffffffffffffffffffffffffffffffffffffffffffffffffff191614156118d4576001600492509250506119c6565b5b638df2730a60e01b7bffffffffffffffffffffffffffffffffffffffffffffffffffffffff1916817bffffffffffffffffffffffffffffffffffffffffffffffffffffffff19161415611930576000600392509250506119c6565b63cabd82c560e01b7bffffffffffffffffffffffffffffffffffffffffffffffffffffffff1916817bffffffffffffffffffffffffffffffffffffffffffffffffffffffff1916141561198b576000600392509250506119c6565b6040517f08c379a00000000000000000000000000000000000000000000000000000000081526004016119bd9061530c565b60405180910390fd5b9250929050565b3073ffffffffffffffffffffffffffffffffffffffff163373ffffffffffffffffffffffffffffffffffffffff1614611a3b576040517f08c379a0000000000000000000000000000000000000000000000000000000008152600401611a32906153ac565b60405180910390fd5b73__MetaTx________________________________636156ca0a6001836040518363ffffffff1660e01b8152600401611a75929190615683565b60006040518083038186803b158015611a8d57600080fd5b505af4158015611aa1573d6000803e3d6000fd5b5050505050565b89600160130160006101000a81548173ffffffffffffffffffffffffffffffffffffffff021916908373ffffffffffffffffffffffffffffffffffffffff160217905550600073ffffffffffffffffffffffffffffffffffffffff16600160000160009054906101000a900473ffffffffffffffffffffffffffffffffffffffff1673ffffffffffffffffffffffffffffffffffffffff1614611b80576040517f08c379a0000000000000000000000000000000000000000000000000000000008152600401611b779061536c565b60405180910390fd5b80471015611bc3576040517f08c379a0000000000000000000000000000000000000000000000000000000008152600401611bba9061526c565b60405180910390fd5b87600160000160006101000a81548173ffffffffffffffffffffffffffffffffffffffff021916908373ffffffffffffffffffffffffffffffffffffffff16021790555060005b878790508163ffffffff161015611c9e576001800188888363ffffffff16818110611c5e577f4e487b7100000000000000000000000000000000000000000000000000000000600052603260045260246000fd5b9050602002013590806001815401808255809150506001900390600052602060002001600090919091909150558080611c9690615c61565b915050611c0a565b5084600160020160006101000a81548160ff021916908360ff16021790555083600160040160006101000a81548173ffffffffffffffffffffffffffffffffffffffff021916908373ffffffffffffffffffffffffffffffffffffffff160217905550826001600b0160000181905550600089600060038110611d4a577f4e487b7100000000000000000000000000000000000000000000000000000000600052603260045260246000fd5b602002810190611d5a9190615747565b90501115611e6a573073ffffffffffffffffffffffffffffffffffffffff16632f23a3ab8a600060038110611db8577f4e487b7100000000000000000000000000000000000000000000000000000000600052603260045260246000fd5b602002810190611dc89190615747565b8c600160038110611e02577f4e487b7100000000000000000000000000000000000000000000000000000000600052603260045260246000fd5b602002810190611e129190615747565b630bebc2006040518663ffffffff1660e01b8152600401611e37959493929190615201565b600060405180830381600087803b158015611e5157600080fd5b505af1158015611e65573d6000803e3d6000fd5b505050505b600073ffffffffffffffffffffffffffffffffffffffff168273ffffffffffffffffffffffffffffffffffffffff1614611f0357611ec7818373ffffffffffffffffffffffffffffffffffffffff1661362f90919063ffffffff16565b7f10f27652c1015195ca7e6bc9b4c724cbf18e91c42117d92124703a3f49bb240f308383604051611efa93929190614f49565b60405180910390a15b88600260038110611f3d577f4e487b7100000000000000000000000000000000000000000000000000000000600052603260045260246000fd5b602002810190611f4d9190615747565b6001600e019190611f5f9291906139d5565b5050505050505050505050565b3073ffffffffffffffffffffffffffffffffffffffff163373ffffffffffffffffffffffffffffffffffffffff1614806120125750600160000160009054906101000a900473ffffffffffffffffffffffffffffffffffffffff1673ffffffffffffffffffffffffffffffffffffffff163373ffffffffffffffffffffffffffffffffffffffff161480156120115750600160000160149054906101000a900460ff16155b5b612051576040517f08c379a0000000000000000000000000000000000000000000000000000000008152600401612048906153cc565b60405180910390fd5b81816001600e0191906120659291906139d5565b505050565b60603073ffffffffffffffffffffffffffffffffffffffff163373ffffffffffffffffffffffffffffffffffffffff16146120da576040517f08c379a00000000000000000000000000000000000000000000000000000000081526004016120d1906153ac565b60405180910390fd5b60008383905067ffffffffffffffff81111561211f577f4e487b7100000000000000000000000000000000000000000000000000000000600052604160045260246000fd5b60405190808252806020026020018201604052801561215257816020015b606081526020019060019003908161213d5790505b50905060005b848490508110156122c85761227185858381811061219f577f4e487b7100000000000000000000000000000000000000000000000000000000600052603260045260246000fd5b90506020028101906121b1919061579e565b60000160208101906121c39190613cee565b8686848181106121fc577f4e487b7100000000000000000000000000000000000000000000000000000000600052603260045260246000fd5b905060200281019061220e919061579e565b6020013587878581811061224b577f4e487b7100000000000000000000000000000000000000000000000000000000600052603260045260246000fd5b905060200281019061225d919061579e565b806040019061226c91906156f0565b61354b565b8282815181106122aa577f4e487b7100000000000000000000000000000000000000000000000000000000600052603260045260246000fd5b602002602001018190525080806122c090615c18565b915050612158565b508091505092915050565b612366600160050180548060200260200160405190810160405280929190818152602001828054801561235b57602002820191906000526020600020905b8160009054906101000a900473ffffffffffffffffffffffffffffffffffffffff1673ffffffffffffffffffffffffffffffffffffffff1681526020019060010190808311612311575b505050505033613723565b6123a5576040517f08c379a000000000000000000000000000000000000000000000000000000000815260040161239c9061544c565b60405180910390fd5b60006123f483838080601f016020809104026020016040519081016040528093929190818152602001838380828437600081840152601f19601f82011690508083019250505050505050613329565b9050638df2730a60e01b7bffffffffffffffffffffffffffffffffffffffffffffffffffffffff1916817bffffffffffffffffffffffffffffffffffffffffffffffffffffffff1916148061248d575063ef24c73660e01b7bffffffffffffffffffffffffffffffffffffffffffffffffffffffff1916817bffffffffffffffffffffffffffffffffffffffffffffffffffffffff1916145b1561252957600083836004906024926124a893929190615966565b8101906124b591906140b6565b905073__Recovery______________________________63ff7cf562600183336040518463ffffffff1660e01b81526004016124f39392919061557c565b60006040518083038186803b15801561250b57600080fd5b505af415801561251f573d6000803e3d6000fd5b5050505050612625565b637712761260e01b7bffffffffffffffffffffffffffffffffffffffffffffffffffffffff1916817bffffffffffffffffffffffffffffffffffffffffffffffffffffffff191614156125e95773__MetaTx________________________________637c8d159b60018585336040518563ffffffff1660e01b81526004016125b494939291906155b3565b60006040518083038186803b1580156125cc57600080fd5b505af41580156125e0573d6000803e3d6000fd5b50505050612624565b6040517f08c379a000000000000000000000000000000000000000000000000000000000815260040161261b9061540c565b60405180910390fd5b5b505050565b6000600160000160009054906101000a900473ffffffffffffffffffffffffffffffffffffffff16905090565b6000600160030154905090565b3073ffffffffffffffffffffffffffffffffffffffff163373ffffffffffffffffffffffffffffffffffffffff16146126d2576040517f08c379a00000000000000000000000000000000000000000000000000000000081526004016126c9906153ac565b60405180910390fd5b600060016012016000848152602001908152602001600020600201541461272e576040517f08c379a00000000000000000000000000000000000000000000000000000000081526004016127259061528c565b60405180910390fd5b6040518060800160405280828152602001600073ffffffffffffffffffffffffffffffffffffffff16815260200143815260200160001515815250600160120160008481526020019081526020016000206000820151816000015560208201518160010160006101000a81548173ffffffffffffffffffffffffffffffffffffffff021916908373ffffffffffffffffffffffffffffffffffffffff1602179055506040820151816002015560608201518160030160006101000a81548160ff0219169083151502179055509050505050565b3073ffffffffffffffffffffffffffffffffffffffff163373ffffffffffffffffffffffffffffffffffffffff1614806128a75750600160000160009054906101000a900473ffffffffffffffffffffffffffffffffffffffff1673ffffffffffffffffffffffffffffffffffffffff163373ffffffffffffffffffffffffffffffffffffffff161480156128a65750600160000160149054906101000a900460ff16155b5b6128e6576040517f08c379a00000000000000000000000000000000000000000000000000000000081526004016128dd906153cc565b60405180910390fd5b600173__Guardians_____________________________6397b9ce099091836040518363ffffffff1660e01b815260040161292292919061548c565b60006040518083038186803b15801561293a57600080fd5b505af415801561294e573d6000803e3d6000fd5b5050505050565b3073ffffffffffffffffffffffffffffffffffffffff163373ffffffffffffffffffffffffffffffffffffffff16146129c3576040517f08c379a00000000000000000000000000000000000000000000000000000000081526004016129ba906153ac565b60405180910390fd5b600173__Guardians_____________________________63e98ee0859091836040518363ffffffff1660e01b81526004016129ff92919061548c565b60006040518083038186803b158015612a1757600080fd5b505af4158015612a2b573d6000803e3d6000fd5b5050505050565b3073ffffffffffffffffffffffffffffffffffffffff163373ffffffffffffffffffffffffffffffffffffffff1614612aa0576040517f08c379a0000000000000000000000000000000000000000000000000000000008152600401612a97906153ac565b60405180910390fd5b806001600b016000018190555050565b3073ffffffffffffffffffffffffffffffffffffffff163373ffffffffffffffffffffffffffffffffffffffff1614612b1e576040517f08c379a0000000000000000000000000000000000000000000000000000000008152600401612b15906153ac565b60405180910390fd5b80600160040160006101000a81548173ffffffffffffffffffffffffffffffffffffffff021916908373ffffffffffffffffffffffffffffffffffffffff16021790555050565b600063bc197c8160e01b905098975050505050505050565b606060018001805480602002602001604051908101604052809291908181526020018280548015612bcd57602002820191906000526020600020905b815481526020019060010190808311612bb9575b5050505050905090565b3073ffffffffffffffffffffffffffffffffffffffff163373ffffffffffffffffffffffffffffffffffffffff1614612c45576040517f08c379a0000000000000000000000000000000000000000000000000000000008152600401612c3c906153ac565b60405180910390fd5b818180806020026020016040519081016040528093929190818152602001838360200280828437600081840152601f19601f82011690508083019250505050505050600173__Recovery______________________________6321ca866f9091836040518363ffffffff1660e01b8152600401612cc39291906154f5565b60006040518083038186803b158015612cdb57600080fd5b505af4158015612cef573d6000803e3d6000fd5b50505050600173__Recovery______________________________63cc5d24cb90918686866040518563ffffffff1660e01b8152600401612d3394939291906154b5565b60006040518083038186803b158015612d4b57600080fd5b505af4158015612d5f573d6000803e3d6000fd5b5050505050505050565b3073ffffffffffffffffffffffffffffffffffffffff163373ffffffffffffffffffffffffffffffffffffffff161480612e0f5750600160000160009054906101000a900473ffffffffffffffffffffffffffffffffffffffff1673ffffffffffffffffffffffffffffffffffffffff163373ffffffffffffffffffffffffffffffffffffffff16148015612e0e5750600160000160149054906101000a900460ff16155b5b612e4e576040517f08c379a0000000000000000000000000000000000000000000000000000000008152600401612e45906153cc565b60405180910390fd5b6000600160070160010181905550565b3073ffffffffffffffffffffffffffffffffffffffff163373ffffffffffffffffffffffffffffffffffffffff1614612ecc576040517f08c379a0000000000000000000000000000000000000000000000000000000008152600401612ec3906153ac565b60405180910390fd5b806000806101000a81548173ffffffffffffffffffffffffffffffffffffffff021916908373ffffffffffffffffffffffffffffffffffffffff1602179055507f8a5dcb0249bae905183e794960410c37563e6ab514b1add384425d153972118d81604051612f3b9190614f2e565b60405180910390a150565b612fd96001600501805480602002602001604051908101604052809291908181526020018280548015612fce57602002820191906000526020600020905b8160009054906101000a900473ffffffffffffffffffffffffffffffffffffffff1673ffffffffffffffffffffffffffffffffffffffff1681526020019060010190808311612f84575b505050505033613723565b613018576040517f08c379a000000000000000000000000000000000000000000000000000000000815260040161300f9061544c565b60405180910390fd5b600173__Recovery______________________________630e7032629091836040518363ffffffff1660e01b815260040161305492919061548c565b60006040518083038186803b15801561306c57600080fd5b505af4158015613080573d6000803e3d6000fd5b5050505050565b600063f23a6e6160e01b90509695505050505050565b600080835114156130b15760019050613321565b6000808660050180548060200260200160405190810160405280929190818152602001828054801561313857602002820191906000526020600020905b8160009054906101000a900473ffffffffffffffffffffffffffffffffffffffff1673ffffffffffffffffffffffffffffffffffffffff16815260200190600101908083116130ee575b50505050509050600080600090505b6041875161315591906159ef565b8110156133185760006131698989846137d1565b905060008214156132a057600160048111156131ae577f4e487b7100000000000000000000000000000000000000000000000000000000600052602160045260246000fd5b8760048111156131e7577f4e487b7100000000000000000000000000000000000000000000000000000000600052602160045260246000fd5b1415613210576131f78a82613923565b156132025750613305565b600095505050505050613321565b6002600481111561324a577f4e487b7100000000000000000000000000000000000000000000000000000000600052602160045260246000fd5b876004811115613283577f4e487b7100000000000000000000000000000000000000000000000000000000600052602160045260246000fd5b141561329f576132938a82613923565b1561329e5750613305565b5b5b8473ffffffffffffffffffffffffffffffffffffffff168173ffffffffffffffffffffffffffffffffffffffff16116132e157600095505050505050613321565b8094506132ee8482613723565b92508261330357600095505050505050613321565b505b808061331090615c18565b915050613147565b50600193505050505b949350505050565b6000600482511015613370576040517f08c379a0000000000000000000000000000000000000000000000000000000008152600401613367906152ec565b60405180910390fd5b60208201519050919050565b600063de03371560e01b7bffffffffffffffffffffffffffffffffffffffffffffffffffffffff1916827bffffffffffffffffffffffffffffffffffffffffffffffffffffffff19161480613415575063b20d30a960e01b7bffffffffffffffffffffffffffffffffffffffffffffffffffffffff1916827bffffffffffffffffffffffffffffffffffffffffffffffffffffffff1916145b80613464575063af648c3d60e01b7bffffffffffffffffffffffffffffffffffffffffffffffffffffffff1916827bffffffffffffffffffffffffffffffffffffffffffffffffffffffff1916145b806134b3575063b6c3843260e01b7bffffffffffffffffffffffffffffffffffffffffffffffffffffffff1916827bffffffffffffffffffffffffffffffffffffffffffffffffffffffff1916145b9050919050565b60006201518083600b01600101546134d29190615999565b4211156134f3574283600b0160010181905550600083600b01600201819055505b82600b01600001548284600b016002015461350e9190615999565b1180613532575082600b01600201548284600b01600201546135309190615999565b105b156135405760009050613545565b600190505b92915050565b606060008573ffffffffffffffffffffffffffffffffffffffff16858585604051613577929190614f00565b60006040518083038185875af1925050503d80600081146135b4576040519150601f19603f3d011682016040523d82523d6000602084013e6135b9565b606091505b508093508192505050848673ffffffffffffffffffffffffffffffffffffffff167f79ff2e3e6b1a9fd5afa9ad7b27b6075a3f05484916a94f800548947efa77e83b8686858760405161360f9493929190615122565b60405180910390a380613626573d6000803e3d6000fd5b50949350505050565b80471015613672576040517f08c379a00000000000000000000000000000000000000000000000000000000081526004016136699061534c565b60405180910390fd5b60008273ffffffffffffffffffffffffffffffffffffffff168260405161369890614f19565b60006040518083038185875af1925050503d80600081146136d5576040519150601f19603f3d011682016040523d82523d6000602084013e6136da565b606091505b505090508061371e576040517f08c379a00000000000000000000000000000000000000000000000000000000081526004016137159061532c565b60405180910390fd5b505050565b600080600090505b83518110156137c55783818151811061376d577f4e487b7100000000000000000000000000000000000000000000000000000000600052603260045260246000fd5b602002602001015173ffffffffffffffffffffffffffffffffffffffff168373ffffffffffffffffffffffffffffffffffffffff1614156137b25760019150506137cb565b80806137bd90615c18565b91505061372b565b50600090505b92915050565b60008060008084604102602001860151915084604102604001860151905060ff85604102604101870151169250601b8360ff1614806138135750601c8360ff16145b613852576040517f08c379a00000000000000000000000000000000000000000000000000000000081526004016138499061538c565b60405180910390fd5b60006001888585856040516000815260200160405260405161387794939291906150c2565b6020604051602081039080840390855afa158015613899573d6000803e3d6000fd5b505050602060405103519050600073ffffffffffffffffffffffffffffffffffffffff168173ffffffffffffffffffffffffffffffffffffffff161415613915576040517f08c379a000000000000000000000000000000000000000000000000000000000815260040161390c906152cc565b60405180910390fd5b809450505050509392505050565b60008173ffffffffffffffffffffffffffffffffffffffff168360000160009054906101000a900473ffffffffffffffffffffffffffffffffffffffff1673ffffffffffffffffffffffffffffffffffffffff1614905092915050565b6040518060400160405280600060ff168152602001600060048111156139cf577f4e487b7100000000000000000000000000000000000000000000000000000000600052602160045260246000fd5b81525090565b8280546139e190615be6565b90600052602060002090601f016020900481019282613a035760008555613a4a565b82601f10613a1c57803560ff1916838001178555613a4a565b82800160010185558215613a4a579182015b82811115613a49578235825591602001919060010190613a2e565b5b509050613a579190613a5b565b5090565b5b80821115613a74576000816000905550600101613a5c565b5090565b6000613a8b613a86846157f3565b6157c2565b905082815260208101848484011115613aa357600080fd5b613aae848285615ba4565b509392505050565b600081359050613ac581615dab565b92915050565b600081359050613ada81615dc2565b92915050565b60008083601f840112613af257600080fd5b8235905067ffffffffffffffff811115613b0b57600080fd5b602083019150836020820283011115613b2357600080fd5b9250929050565b600081905082602060030282011115613b4257600080fd5b92915050565b60008083601f840112613b5a57600080fd5b8235905067ffffffffffffffff811115613b7357600080fd5b602083019150836020820283011115613b8b57600080fd5b9250929050565b60008083601f840112613ba457600080fd5b8235905067ffffffffffffffff811115613bbd57600080fd5b602083019150836020820283011115613bd557600080fd5b9250929050565b600081359050613beb81615dd9565b92915050565b600081359050613c0081615df0565b92915050565b60008083601f840112613c1857600080fd5b8235905067ffffffffffffffff811115613c3157600080fd5b602083019150836001820283011115613c4957600080fd5b9250929050565b600082601f830112613c6157600080fd5b8135613c71848260208601613a78565b91505092915050565b60008083601f840112613c8c57600080fd5b8235905067ffffffffffffffff811115613ca557600080fd5b602083019150836001820283011115613cbd57600080fd5b9250929050565b600081359050613cd381615e07565b92915050565b600081359050613ce881615e1e565b92915050565b600060208284031215613d0057600080fd5b6000613d0e84828501613ab6565b91505092915050565b600060208284031215613d2957600080fd5b6000613d3784828501613acb565b91505092915050565b60008060008060008060008060a0898b031215613d5c57600080fd5b6000613d6a8b828c01613ab6565b9850506020613d7b8b828c01613ab6565b975050604089013567ffffffffffffffff811115613d9857600080fd5b613da48b828c01613b92565b9650965050606089013567ffffffffffffffff811115613dc357600080fd5b613dcf8b828c01613b92565b9450945050608089013567ffffffffffffffff811115613dee57600080fd5b613dfa8b828c01613c06565b92509250509295985092959890939650565b600080600080600060808688031215613e2457600080fd5b6000613e3288828901613ab6565b9550506020613e4388828901613ab6565b9450506040613e5488828901613cc4565b935050606086013567ffffffffffffffff811115613e7157600080fd5b613e7d88828901613c06565b92509250509295509295909350565b60008060008060008060a08789031215613ea557600080fd5b6000613eb389828a01613ab6565b9650506020613ec489828a01613ab6565b9550506040613ed589828a01613cc4565b9450506060613ee689828a01613cc4565b935050608087013567ffffffffffffffff811115613f0357600080fd5b613f0f89828a01613c06565b92509250509295509295509295565b600080600060408486031215613f3357600080fd5b6000613f4186828701613ab6565b935050602084013567ffffffffffffffff811115613f5e57600080fd5b613f6a86828701613ae0565b92509250509250925092565b6000806000806000806000806000806101208b8d031215613f9657600080fd5b6000613fa48d828e01613ab6565b9a505060208b013567ffffffffffffffff811115613fc157600080fd5b613fcd8d828e01613b2a565b9950506040613fde8d828e01613ab6565b98505060608b013567ffffffffffffffff811115613ffb57600080fd5b6140078d828e01613ae0565b9750975050608061401a8d828e01613cd9565b95505060a061402b8d828e01613acb565b94505060c061403c8d828e01613cc4565b93505060e061404d8d828e01613ab6565b92505061010061405f8d828e01613cc4565b9150509295989b9194979a5092959850565b6000806020838503121561408457600080fd5b600083013567ffffffffffffffff81111561409e57600080fd5b6140aa85828601613b48565b92509250509250929050565b6000602082840312156140c857600080fd5b60006140d684828501613bdc565b91505092915050565b600080604083850312156140f257600080fd5b600061410085828601613bdc565b925050602061411185828601613bdc565b9150509250929050565b6000806040838503121561412e57600080fd5b600061413c85828601613bdc565b925050602083013567ffffffffffffffff81111561415957600080fd5b61416585828601613c50565b9150509250929050565b60006020828403121561418157600080fd5b600061418f84828501613bf1565b91505092915050565b600080602083850312156141ab57600080fd5b600083013567ffffffffffffffff8111156141c557600080fd5b6141d185828601613c06565b92509250509250929050565b600080600080600080600080600060e08a8c0312156141fb57600080fd5b60008a013567ffffffffffffffff81111561421557600080fd5b6142218c828d01613c06565b995099505060208a013567ffffffffffffffff81111561424057600080fd5b61424c8c828d01613c06565b9750975050604061425f8c828d01613cc4565b95505060606142708c828d01613cc4565b94505060806142818c828d01613cc4565b93505060a06142928c828d01613ab6565b92505060c06142a38c828d01613acb565b9150509295985092959850929598565b600080602083850312156142c657600080fd5b600083013567ffffffffffffffff8111156142e057600080fd5b6142ec85828601613c7a565b92509250509250929050565b60008060008060006060868803121561431057600080fd5b600086013567ffffffffffffffff81111561432a57600080fd5b61433688828901613c7a565b9550955050602086013567ffffffffffffffff81111561435557600080fd5b61436188828901613c7a565b9350935050604061437488828901613cc4565b9150509295509295909350565b60006020828403121561439357600080fd5b60006143a184828501613cc4565b91505092915050565b60006143b68383614433565b60208301905092915050565b60006143ce83836146c3565b60208301905092915050565b60006143e683836146f0565b60208301905092915050565b60006143fe838361478d565b905092915050565b61440f81615b1e565b82525050565b61441e81615b1e565b82525050565b61442d81615a66565b82525050565b61443c81615a54565b82525050565b61444b81615a54565b82525050565b61445a81615a54565b82525050565b600061446b82615853565b61447581856158b1565b935061448083615823565b8060005b838110156144b157815161449888826143aa565b97506144a38361588a565b925050600181019050614484565b5085935050505092915050565b60006144c982615853565b6144d381856158c2565b93506144de83615823565b8060005b8381101561450f5781516144f688826143aa565b97506145018361588a565b9250506001810190506144e2565b5085935050505092915050565b600061452883856158e4565b93507f07ffffffffffffffffffffffffffffffffffffffffffffffffffffffffffffff83111561455757600080fd5b602083029250614568838584615ba4565b82840190509392505050565b600061457f8261585e565b61458981856158d3565b935061459483615833565b8060005b838110156145c55781516145ac88826143c2565b97506145b783615897565b925050600181019050614598565b5085935050505092915050565b60006145dd8261585e565b6145e781856158e4565b93506145f283615833565b8060005b8381101561462357815161460a88826143da565b975061461583615897565b9250506001810190506145f6565b5085935050505092915050565b600061463b82615869565b61464581856158f5565b93508360208202850161465785615843565b8060005b85811015614693578484038952815161467485826143f2565b945061467f836158a4565b925060208a0199505060018101905061465b565b50829750879550505050505092915050565b6146ae81615a78565b82525050565b6146bd81615a78565b82525050565b6146cc81615a84565b82525050565b6146db81615a84565b82525050565b6146ea81615a84565b82525050565b6146f981615a84565b82525050565b61470881615a8e565b82525050565b600061471a8385615917565b9350614727838584615ba4565b61473083615d79565b840190509392505050565b60006147478385615928565b9350614754838584615ba4565b61475d83615d79565b840190509392505050565b60006147748385615939565b9350614781838584615ba4565b82840190509392505050565b600061479882615874565b6147a28185615906565b93506147b2818560208601615bb3565b6147bb81615d79565b840191505092915050565b60006147d182615874565b6147db8185615917565b93506147eb818560208601615bb3565b6147f481615d79565b840191505092915050565b61480881615b30565b82525050565b61481781615b30565b82525050565b61482681615b42565b82525050565b61483581615b5c565b82525050565b61484481615b6e565b82525050565b60006148568385615944565b9350614863838584615ba4565b61486c83615d79565b840190509392505050565b60006148838385615955565b9350614890838584615ba4565b61489983615d79565b840190509392505050565b60006148af8261587f565b6148b98185615944565b93506148c9818560208601615bb3565b6148d281615d79565b840191505092915050565b60006148ea601583615944565b91507f4e4f545f454e4f5547485f544f5f5041595f46454500000000000000000000006000830152602082019050919050565b600061492a601483615944565b91507f434f4d4d495420414c52454144592045584953540000000000000000000000006000830152602082019050919050565b600061496a600a83615944565b91507f6f766572206c696d6974000000000000000000000000000000000000000000006000830152602082019050919050565b60006149aa601b83615944565b91507f5574696c733a2065637265636f7665722072657475726e6564203000000000006000830152602082019050919050565b60006149ea601d83615944565b91507f5574696c733a20496e76616c69642066756e6374696f6e5072656669780000006000830152602082019050919050565b6000614a2a601a83615944565b91507f756e6b6e6f776e206d6574686f642f7472792073657373696f6e0000000000006000830152602082019050919050565b6000614a6a603a83615944565b91507f416464726573733a20756e61626c6520746f2073656e642076616c75652c207260008301527f6563697069656e74206d617920686176652072657665727465640000000000006020830152604082019050919050565b6000614ad0601d83615944565b91507f416464726573733a20696e73756666696369656e742062616c616e63650000006000830152602082019050919050565b6000614b10600b83615944565b91507f4e4f545f414c4c4f5745440000000000000000000000000000000000000000006000830152602082019050919050565b6000614b50601f83615944565b91507f5574696c733a2062616420762076616c756520696e207369676e6174757265006000830152602082019050919050565b6000614b90600e83615944565b91507f6d757374206265206d65746174780000000000000000000000000000000000006000830152602082019050919050565b6000614bd0602983615944565b91507f4e4f545f46524f4d5f57414c4c45545f4f525f4f574e45525f4f525f57414c4c60008301527f45545f4c4f434b454400000000000000000000000000000000000000000000006020830152604082019050919050565b6000614c36601c83615944565b91507f544d3a20696e76616c6964207369676e6174757265206c656e677468000000006000830152602082019050919050565b6000614c76600083615939565b9150600082019050919050565b6000614c90601683615944565b91507f6e6f207265636f676e697a65642066756e6374696f6e000000000000000000006000830152602082019050919050565b6000614cd0601283615944565b91507f72657374726963746564206d6574686f647300000000000000000000000000006000830152602082019050919050565b6000614d10601083615944565b91507f6d75737420626520677561726469616e000000000000000000000000000000006000830152602082019050919050565b6000614d50601783615944565b91507f496e76616c6964206f776e6572207369676e61747572650000000000000000006000830152602082019050919050565b606082016000820151614d996000850182614eb5565b506020820151614dac6020850182614eb5565b506040820151614dbf6040850182614eb5565b50505050565b6000606083016000830151614ddd60008601826146c3565b506020830151614df060208601826146c3565b5060408301518482036040860152614e088282614460565b9150508091505092915050565b6000608083016000830151614e2d6000860182614433565b506020830151614e406020860182614eb5565b506040830151614e5360408601826146a5565b5060608301518482036060860152614e6b8282614460565b9150508091505092915050565b604082016000820151614e8e6000850182614ef1565b506020820151614ea1602085018261480e565b50505050565b8082525050565b8082525050565b614ebe81615af7565b82525050565b614ecd81615af7565b82525050565b614edc81615af7565b82525050565b614eeb81615b11565b82525050565b614efa81615b11565b82525050565b6000614f0d828486614768565b91508190509392505050565b6000614f2482614c69565b9150819050919050565b6000602082019050614f436000830184614442565b92915050565b6000606082019050614f5e6000830186614442565b614f6b6020830185614442565b614f786040830184614ec4565b949350505050565b60006101a082019050614f96600083018e614442565b614fa3602083018d6146b4565b614fb0604083018c614ee2565b614fbd606083018b614ec4565b614fca608083018a614424565b81810360a0830152614fdc8189614e15565b9050614feb60c0830188614d83565b818103610120830152614ffe81876148a4565b90508181036101408301526150138186614dc5565b9050615023610160830185614442565b615031610180830184614ec4565b9c9b505050505050505050505050565b6000602082019050818103600083015261505b81846144be565b905092915050565b6000602082019050818103600083015261507d8184614574565b905092915050565b6000602082019050818103600083015261509f8184614630565b905092915050565b60006020820190506150bc60008301846146b4565b92915050565b60006080820190506150d760008301876146d2565b6150e46020830186614ee2565b6150f160408301856146d2565b6150fe60608301846146d2565b95945050505050565b600060208201905061511c60008301846146ff565b92915050565b6000606082019050818103600083015261513d81868861470e565b905061514c60208301856146b4565b818103604083015261515e81846147c6565b905095945050505050565b6000608082019050818103600083015261518381876147c6565b9050615192602083018661481d565b61519f6040830185614406565b6151ac606083018461482c565b95945050505050565b600060808201905081810360008301526151cf81876147c6565b90506151de602083018661481d565b6151eb6040830185614406565b6151f86060830184614ec4565b95945050505050565b6000606082019050818103600083015261521c81878961484a565b9050818103602083015261523181858761484a565b9050615240604083018461483b565b9695505050505050565b6000602082019050818103600083015261526481846148a4565b905092915050565b60006020820190508181036000830152615285816148dd565b9050919050565b600060208201905081810360008301526152a58161491d565b9050919050565b600060208201905081810360008301526152c58161495d565b9050919050565b600060208201905081810360008301526152e58161499d565b9050919050565b60006020820190508181036000830152615305816149dd565b9050919050565b6000602082019050818103600083015261532581614a1d565b9050919050565b6000602082019050818103600083015261534581614a5d565b9050919050565b6000602082019050818103600083015261536581614ac3565b9050919050565b6000602082019050818103600083015261538581614b03565b9050919050565b600060208201905081810360008301526153a581614b43565b9050919050565b600060208201905081810360008301526153c581614b83565b9050919050565b600060208201905081810360008301526153e581614bc3565b9050919050565b6000602082019050818103600083015261540581614c29565b9050919050565b6000602082019050818103600083015261542581614c83565b9050919050565b6000602082019050818103600083015261544581614cc3565b9050919050565b6000602082019050818103600083015261546581614d03565b9050919050565b6000602082019050818103600083015261548581614d43565b9050919050565b60006040820190506154a16000830185614ea7565b6154ae6020830184614451565b9392505050565b60006060820190506154ca6000830187614ea7565b6154d76020830186614451565b81810360408301526154ea81848661451c565b905095945050505050565b600060408201905061550a6000830185614ea7565b818103602083015261551c81846145d2565b90509392505050565b600060808201905061553a6000830189614ea7565b818103602083015261554d818789614877565b90508181036040830152615562818587614877565b90506155716060830184614ed3565b979650505050505050565b60006060820190506155916000830186614eae565b61559e60208301856146e1565b6155ab6040830184614451565b949350505050565b60006060820190506155c86000830187614eae565b81810360208301526155db81858761473b565b90506155ea6040830184614451565b95945050505050565b600061012082019050615609600083018d614eae565b818103602083015261561c818b8d61473b565b9050818103604083015261563181898b61473b565b90506156406060830188614ed3565b61564d6080830187614ed3565b61565a60a0830186614ed3565b61566760c0830185614415565b61567460e0830184614e78565b9b9a5050505050505050505050565b60006040820190506156986000830185614eae565b6156a56020830184614ed3565b9392505050565b60006020820190506156c16000830184614ec4565b92915050565b60006040820190506156dc6000830185614ee2565b6156e960208301846147ff565b9392505050565b6000808335600160200384360303811261570957600080fd5b80840192508235915067ffffffffffffffff82111561572757600080fd5b60208301925060018202360383131561573f57600080fd5b509250929050565b6000808335600160200384360303811261576057600080fd5b80840192508235915067ffffffffffffffff82111561577e57600080fd5b60208301925060018202360383131561579657600080fd5b509250929050565b6000823560016060038336030381126157b657600080fd5b80830191505092915050565b6000604051905081810181811067ffffffffffffffff821117156157e9576157e8615d4a565b5b8060405250919050565b600067ffffffffffffffff82111561580e5761580d615d4a565b5b601f19601f8301169050602081019050919050565b6000819050602082019050919050565b6000819050602082019050919050565b6000819050602082019050919050565b600081519050919050565b600081519050919050565b600081519050919050565b600081519050919050565b600081519050919050565b6000602082019050919050565b6000602082019050919050565b6000602082019050919050565b600082825260208201905092915050565b600082825260208201905092915050565b600082825260208201905092915050565b600082825260208201905092915050565b600082825260208201905092915050565b600082825260208201905092915050565b600082825260208201905092915050565b600082825260208201905092915050565b600081905092915050565b600082825260208201905092915050565b600082825260208201905092915050565b6000808585111561597657600080fd5b8386111561598357600080fd5b6001850283019150848603905094509492505050565b60006159a482615af7565b91506159af83615af7565b9250827fffffffffffffffffffffffffffffffffffffffffffffffffffffffffffffffff038211156159e4576159e3615c8e565b5b828201905092915050565b60006159fa82615af7565b9150615a0583615af7565b925082615a1557615a14615cbd565b5b828204905092915050565b6000615a2b82615af7565b9150615a3683615af7565b925082821015615a4957615a48615c8e565b5b828203905092915050565b6000615a5f82615ad7565b9050919050565b6000615a7182615ad7565b9050919050565b60008115159050919050565b6000819050919050565b60007fffffffff0000000000000000000000000000000000000000000000000000000082169050919050565b6000819050615ac882615d97565b919050565b6000819050919050565b600073ffffffffffffffffffffffffffffffffffffffff82169050919050565b6000819050919050565b600063ffffffff82169050919050565b600060ff82169050919050565b6000615b2982615b80565b9050919050565b6000615b3b82615aba565b9050919050565b6000615b55615b5083615acd565b615d8a565b9050919050565b6000615b6782615af7565b9050919050565b6000615b7982615af7565b9050919050565b6000615b8b82615b92565b9050919050565b6000615b9d82615ad7565b9050919050565b82818337600083830152505050565b60005b83811015615bd1578082015181840152602081019050615bb6565b83811115615be0576000848401525b50505050565b60006002820490506001821680615bfe57607f821691505b60208210811415615c1257615c11615d1b565b5b50919050565b6000615c2382615af7565b91507fffffffffffffffffffffffffffffffffffffffffffffffffffffffffffffffff821415615c5657615c55615c8e565b5b600182019050919050565b6000615c6c82615b01565b915063ffffffff821415615c8357615c82615c8e565b5b600182019050919050565b7f4e487b7100000000000000000000000000000000000000000000000000000000600052601160045260246000fd5b7f4e487b7100000000000000000000000000000000000000000000000000000000600052601260045260246000fd5b7f4e487b7100000000000000000000000000000000000000000000000000000000600052602160045260246000fd5b7f4e487b7100000000000000000000000000000000000000000000000000000000600052602260045260246000fd5b7f4e487b7100000000000000000000000000000000000000000000000000000000600052604160045260246000fd5b6000601f19601f8301169050919050565b60008160001b9050919050565b60058110615da857615da7615cec565b5b50565b615db481615a54565b8114615dbf57600080fd5b50565b615dcb81615a66565b8114615dd657600080fd5b50565b615de281615a84565b8114615ded57600080fd5b50565b615df981615a8e565b8114615e0457600080fd5b50565b615e1081615af7565b8114615e1b57600080fd5b50565b615e2781615b11565b8114615e3257600080fd5b5056fea2646970667358221220fa89756b07acf6066e682078474114f46064f6a60f9090e459b68bbe3e381c7064736f6c63430008000033",
  "immutableReferences": {},
  "source": "// SPDX-License-Identifier: GPL-3.0-only\n\npragma solidity >=0.7.6;\npragma experimental ABIEncoderV2;\n\nimport \"@openzeppelin/contracts/token/ERC721/IERC721Receiver.sol\";\nimport \"@openzeppelin/contracts/token/ERC1155/IERC1155Receiver.sol\";\nimport \"@openzeppelin/contracts/utils/Address.sol\";\n\nimport \"./core/wallet_data.sol\";\nimport \"./features/guardians.sol\";\nimport \"./features/daily_limit.sol\";\nimport \"./features/recovery.sol\";\nimport \"./features/metatx.sol\";\nimport \"./features/name_service.sol\";\n\ncontract TOTPWallet is IERC721Receiver, IERC1155Receiver {\n\n    using Address for address payable;\n    using Guardians for Core.Wallet;\n    using DailyLimit for Core.Wallet;\n    using Recovery for Core.Wallet;\n    using MetaTx for Core.Wallet;\n    using NameService for Core.Wallet;\n\n    // DATA LAYOUT - ALWAYS ADD NEW VAR TO LAST\n\n    address masterCopy;\n    Core.Wallet public wallet;\n    bool internal isImplementationContract;\n    uint public constant version = 4;\n    bytes4 private constant _INTERFACE_ID_ERC1271 = 0x1626ba7e;\n\n    // END OF DATA LAYOUT\n    struct Call {\n        address to;\n        uint256 value;\n        bytes data;\n    }\n\n    event Deposit(address indexed sender, uint value);\n    event WalletUpgraded(address newImpl);\n    event Initialized(address wallet, address refundAddress, uint refundFee);\n    event TransactionExecuted(bool indexed success, bytes returnData, bytes32 signedHash, address refundAddress, uint refundFee);\n\n    constructor() {\n        isImplementationContract = true;\n    }\n\n    modifier disableInImplementationContract\n    {\n        require(!isImplementationContract, \"DISALLOWED\");\n        _;\n    }\n\n    // keep methods <= 8 parameters of get stack to deep\n    function initialize(\n        address              resolver_,\n        string[3]   calldata domainAndHashId_, // empty means no registration\n        address             owner_, \n        bytes32[] calldata    rootHash_, \n        uint8               merkelHeight_, \n        address payable     drainAddr_, \n        uint                dailyLimit_,\n        address             feeRecipient,\n        uint                feeAmount\n        ) external \n        // disableInImplementationContract()\n    {\n        wallet.resolver = resolver_;\n\n        //emit DebugEvent256(address(this).balance);\n        require(wallet.owner == address(0), \"NOT_ALLOWED\");\n        require(address(this).balance >= feeAmount, \"NOT_ENOUGH_TO_PAY_FEE\");\n\n        wallet.owner = owner_;\n        for (uint32 i = 0; i < rootHash_.length; i++) {\n             wallet.rootHash.push(rootHash_[i]);\n        }        \n        wallet.merkelHeight = merkelHeight_;\n        wallet.drainAddr = drainAddr_;\n        wallet.dailyLimit.limit = dailyLimit_;\n\n        // STACK TOO DEEP\n        if(bytes(domainAndHashId_[0]).length > 0) {\n            this.registerENS(domainAndHashId_[0], domainAndHashId_[1], 200000000);\n        }\n\n        if (feeRecipient != address(0)) {\n            payable(feeRecipient).sendValue(feeAmount);\n            emit Initialized(address(this), feeRecipient, feeAmount);\n        }  \n        \n        wallet.hashStorageID = domainAndHashId_[2];        \n    }   \n\n    function registerENS(string calldata subdomain, string calldata domain, uint duration) external onlyFromWalletOrOwnerWhenUnlocked() {\n        wallet.registerENS(subdomain, domain, duration);\n    }\n\n    modifier onlyFromWalletOrOwnerWhenUnlocked()\n    {\n        require(\n            msg.sender == address(this) ||\n            (msg.sender == wallet.owner && !wallet.locked),\n             \"NOT_FROM_WALLET_OR_OWNER_OR_WALLET_LOCKED\"\n        );\n        _;\n    }\n\n    modifier onlySelf() {\n        require(msg.sender == address(this), \"must be metatx\");\n        _;\n    }\n\n    modifier onlyGuardian() {\n        require(MetaTx.isGuardianAddress(wallet.guardians, msg.sender), \"must be guardian\");\n        _;\n    }\n\n    // confirmMaterial contains OTP + intermediatory hashes + sides\n    modifier onlyValidTOTP(bytes32[] memory confirmMaterial) \n    {\n        // revert if false\n        wallet.isValidHOTP(confirmMaterial);\n        _;\n    }\n\n    function isRestrictedMethod(bytes4 methodId) internal pure returns (bool) {\n        return (methodId == TOTPWallet.upgradeMasterCopy.selector ||\n            methodId == TOTPWallet.setDailyLimit.selector ||\n            methodId == TOTPWallet.revokeGuardian.selector||\n            methodId == TOTPWallet.setDrainAddress.selector);\n    }\n\n    function getRequiredSignatures(bytes calldata _data) public view returns (uint8, Core.OwnerSignature) {\n        bytes4 methodId = MetaTx.functionPrefix(_data);\n\n        if(methodId == TOTPWallet.multiCall.selector ||\n            methodId == TOTPWallet.addGuardian.selector ||\n            methodId == TOTPWallet.clearSession.selector||\n            methodId == TOTPWallet.setHashStorageId.selector) {\n            return (1, Core.OwnerSignature.Required);\n        }\n\n        // these will be called on multiCallWithSession with guardians\n        if(wallet.guardians.length == 0) {\n            if(isRestrictedMethod(methodId)) {\n                return (1, Core.OwnerSignature.Required); \n            }\n        } else {\n            if(methodId == TOTPWallet.startSession.selector) {          \n                // owner + 1 guardian   => require 2\n                // owner + 2 guardian   => require 2\n                // owner + 3 guardian   => require 3            \n                return (1, Core.OwnerSignature.Required);  \n            }\n            if(methodId == TOTPWallet.multiCallWithSession.selector) {\n                return (1, Core.OwnerSignature.Session); \n            }\n        }\n\n        // 1 of 1 = 0 sig\n        // 2 of 2 = 1 sig + HOTP\n        // 2 of 3 = 1 sig + HOTP\n        // we'll check for additional guardian later\n        if(methodId == TOTPWallet.startRecoverCommit.selector) {            \n            return (0, Core.OwnerSignature.Disallowed);            \n        }\n        if(methodId == TOTPWallet.startRecoveryReveal.selector) {\n            return (0, Core.OwnerSignature.Disallowed);            \n        }\n        \n        revert(\"unknown method/try session\");\n    }    \n\n    function executeMetaTx(\n            bytes   calldata data,\n            bytes   calldata signatures, \n            uint256 nonce,\n            uint256 gasPrice,\n            uint256 gasLimit,\n            address /*refundToken*/,\n            address payable refundAddress            \n        ) external \n    {\n        uint gasLeft = gasleft();        \n        Core.SignatureRequirement memory sigRequirement;        \n        (sigRequirement.requiredSignatures, sigRequirement.ownerSignatureRequirement) = getRequiredSignatures(data);        \n\n        MetaTx.validateTx(wallet, data, signatures, nonce, gasPrice, gasLimit, refundAddress, sigRequirement);\n\n        bool success;\n        bytes memory returnData;\n        (success, returnData) = address(this).call(data);\n\n        if(gasPrice > 0 && success && refundAddress != address(0x0)) {\n            uint gasUsed = gasLeft - gasleft() + 70000; //35k overhead\n            refundAddress.transfer(gasUsed);\n            emit TransactionExecuted(success, returnData, 0x0, refundAddress, gasUsed);\n        } else {\n            emit TransactionExecuted(success, returnData, 0x0, refundAddress, 0);        \n        }\n    }\n\n    function multiCall(Call[] calldata _transactions) external onlyFromWalletOrOwnerWhenUnlocked() returns (bytes[] memory) {\n        bytes[] memory results = new bytes[](_transactions.length);\n        for(uint i = 0; i < _transactions.length; i++) {\n            bytes calldata data = _transactions[i].data;\n            uint value = _transactions[i].value;\n            \n            if(wallet.guardians.length > 0) {\n                require(data.length < 4 || !isRestrictedMethod(MetaTx.functionPrefix(data)),\"restricted methods\"); \n                require(wallet.isUnderLimit(value), \"over limit\");\n                wallet.dailyLimit.spentToday += value;\n            }\n            results[i] = MetaTx.invoke(_transactions[i].to, value, data);\n        }\n        return results;\n    }\n\n    function multiCallWithSession(Call[] calldata _transactions) external onlySelf() returns (bytes[] memory) {\n        bytes[] memory results = new bytes[](_transactions.length);\n        for(uint i = 0; i < _transactions.length; i++) {\n            results[i] = MetaTx.invoke(_transactions[i].to, _transactions[i].value, _transactions[i].data);\n        }\n        return results;\n    }\n\n    /**\n     * startSession can only be started by majority of guardians\n     */\n    function startSession(uint duration) external onlySelf() {\n        MetaTx.startSession(wallet, duration);\n    }\n\n    function clearSession()  external onlyFromWalletOrOwnerWhenUnlocked() {\n        wallet.session.expires = 0;\n    }\n\n    function getOwner()  public\n        view\n        returns (address) \n    {\n        return wallet.owner;  \n    }\n\n    function getCounter()  public\n        view\n        returns (uint) \n    {\n        return wallet.counter;\n    }    \n\n    function setHashStorageId(string calldata id) external  onlyFromWalletOrOwnerWhenUnlocked()  {\n        wallet.hashStorageID = id;\n    }\n\n    function getHashStorageId() public view  returns (string memory){\n        return wallet.hashStorageID;\n    }\n    \n    function getRootHashes()\n         public\n         view\n         returns (bytes32[] memory )\n     {\n         return wallet.rootHash;\n     }\n\n    function setDrainAddress(address payable addr) external onlySelf() {\n        wallet.drainAddr = addr;\n    }\n\n    function setDailyLimit(uint amount) external onlySelf() {\n        wallet.dailyLimit.limit = amount;\n    }\n    //\n    // Guardians functions\n    //\n    function addGuardian(address guardian)\n        external\n        onlyFromWalletOrOwnerWhenUnlocked()\n    {\n        wallet.addGuardian(guardian);\n    }\n\n    function revokeGuardian(address guardian)\n        external\n        onlySelf()\n    {\n        wallet.revokeGuardian(guardian);\n    }\n\n    function getGuardians()\n         public\n         view\n         returns (address[] memory )\n     {\n         return wallet.guardians;\n     }\n\n    //\n    // Recovery functions\n    //\n    // In default setup with only HOTP setup, wallet recovery is done on its own.\n    // In a more secure setup with HOTP + guardians, HOTP is considered as 1 guardian.\n    //\n    // Relay/or other coordinating system will coordinate the signatures collections \n    // from guardian and submit along with the HOTP together. In rare case, HOTP may be ommitted\n    // when greater than 2 guardians can recover without HOTP.\n    function startRecoverGuardianOnly(address newOwner_) onlyGuardian() external {\n        // move into recovery state\n        wallet.startRecoverGuardianOnly(newOwner_);\n    }\n\n    // recover with combination of commithash and signatures\n    function startRecoverCommit(bytes32 secretHash, bytes32 dataHash)  onlySelf() external {\n        require(wallet.commitHash[secretHash].blockNumber == 0, \"COMMIT ALREADY EXIST\");\n        wallet.commitHash[secretHash] = Core.CommitInfo(dataHash, address(0), block.number, false);\n    }\n\n    function startRecoveryReveal(address newOwner, bytes32[] calldata confirmMaterial)  onlySelf() onlyValidTOTP(confirmMaterial) external {\n        wallet.startRecoveryReveal(newOwner, confirmMaterial);\n    }\n\n    function guardianApprove(bytes calldata data_) external onlyGuardian() {\n        bytes4 methodId = MetaTx.functionPrefix(data_);\n        if(methodId == this.startRecoverCommit.selector || methodId == this.startRecoverGuardianOnly.selector) {\n            bytes32 secretHash = abi.decode(data_[4:36], (bytes32));\n            Recovery.guardianApproveRecovery(wallet, secretHash, msg.sender);            \n        } else if(methodId == this.startSession.selector) {\n            MetaTx.guardianApproveSession(wallet, data_, msg.sender);\n        } else {\n            revert(\"no recognized function\");\n        }\n    }\n\n    function upgradeMasterCopy(address newMasterCopy) external onlySelf() {\n        masterCopy = newMasterCopy;\n        emit WalletUpgraded(newMasterCopy);\n    }\n\n    function getMasterCopy() public view returns (address) {\n        return masterCopy;\n    }\n\n    //\n    // ERC1155 support\n    //\n    function onERC1155Received(address,address,uint256,uint256,bytes calldata) external pure override returns (bytes4){\n        return this.onERC1155Received.selector;\n    }\n\n    function onERC1155BatchReceived(address, address, uint256[] calldata, uint256[] calldata, bytes calldata) external pure override returns (bytes4){\n        return this.onERC1155BatchReceived.selector;\n    }\n\n    function supportsInterface(bytes4 interfaceID) external override pure returns (bool) {\n        return interfaceID == this.supportsInterface.selector ||\n        interfaceID == this.onERC1155Received.selector ||\n        interfaceID == this.onERC721Received.selector ||\n        interfaceID == _INTERFACE_ID_ERC1271;\n    }\n\n    function onERC721Received(address,address,uint256,bytes calldata) external pure override returns (bytes4){\n        return this.onERC721Received.selector;\n    }\n\n    /**\n    * @notice Implementation of EIP 1271.\n    * Should return whether the signature provided is valid for the provided data.\n    * @param _msgHash Hash of a message signed on the behalf of address(this)\n    * @param _signature Signature byte array associated with _msgHash\n    */\n    function isValidSignature(bytes32 _msgHash, bytes memory _signature) external view returns (bytes4) {\n        require(_signature.length == 65, \"TM: invalid signature length\");\n        require(MetaTx.validateSignatures(wallet, _msgHash, _signature, Core.OwnerSignature.Required), \"Invalid owner signature\");\n        return _INTERFACE_ID_ERC1271;\n    }\n\n    //\n    // Utility functions\n    //\n\n    /// @dev Fallback function allows to deposit ether.\n    receive() external payable {\n        /*\n        if (msg.value > 0) {\n            if(msg.sender == wallet.drainAddr && msg.value == 1 ether) {\n                uint amount = address(this).balance;\n                (bool success,) = wallet.drainAddr.call{value: amount, gas: 100000}(\"\");\n                require(success, \"Receive: External call failed\");\n            }\n            emit Deposit(msg.sender, msg.value);\n        }*/\n    }\n\n}\n",
  "sourcePath": "/home/quoc/Projects/harmony-totp-pure/contracts/otp_wallet.sol",
  "compiler": {
    "name": "solc",
    "version": "0.8.0+commit.c7dfd78e.Emscripten.clang"
  },
  "schemaVersion": "3.3.3",
  "updatedAt": "2021-12-13T17:20:07.992Z",
  "networkType": "ethereum",
  "devdoc": {
    "kind": "dev",
    "methods": {
      "isValidSignature(bytes32,bytes)": {
        "params": {
          "_msgHash": "Hash of a message signed on the behalf of address(this)",
          "_signature": "Signature byte array associated with _msgHash"
        }
      }
    },
    "version": 1
  },
  "userdoc": {
    "kind": "user",
    "methods": {
      "isValidSignature(bytes32,bytes)": {
        "notice": "Implementation of EIP 1271. Should return whether the signature provided is valid for the provided data."
      },
      "startSession(uint256)": {
        "notice": "startSession can only be started by majority of guardians"
      }
    },
    "version": 1
  }
}