{
  "contractName": "TOTPWallet",
  "abi": [
    {
      "inputs": [],
      "stateMutability": "nonpayable",
      "type": "constructor"
    },
    {
      "anonymous": false,
      "inputs": [
        {
          "indexed": false,
          "internalType": "bytes16",
          "name": "data",
          "type": "bytes16"
        }
      ],
      "name": "DebugEvent",
      "type": "event"
    },
    {
      "anonymous": false,
      "inputs": [
        {
          "indexed": false,
          "internalType": "uint256",
          "name": "data",
          "type": "uint256"
        }
      ],
      "name": "DebugEvent256",
      "type": "event"
    },
    {
      "anonymous": false,
      "inputs": [
        {
          "indexed": false,
          "internalType": "bytes32",
          "name": "data",
          "type": "bytes32"
        }
      ],
      "name": "DebugEvent32",
      "type": "event"
    },
    {
      "anonymous": false,
      "inputs": [
        {
          "indexed": false,
          "internalType": "address",
          "name": "data",
          "type": "address"
        }
      ],
      "name": "DebugEventA",
      "type": "event"
    },
    {
      "anonymous": false,
      "inputs": [
        {
          "indexed": false,
          "internalType": "uint32",
          "name": "data",
          "type": "uint32"
        }
      ],
      "name": "DebugEventN",
      "type": "event"
    },
    {
      "anonymous": false,
      "inputs": [
        {
          "indexed": true,
          "internalType": "address",
          "name": "sender",
          "type": "address"
        },
        {
          "indexed": false,
          "internalType": "uint256",
          "name": "value",
          "type": "uint256"
        }
      ],
      "name": "Deposit",
      "type": "event"
    },
    {
      "anonymous": false,
      "inputs": [
        {
          "indexed": true,
          "internalType": "address",
          "name": "target",
          "type": "address"
        },
        {
          "indexed": true,
          "internalType": "uint256",
          "name": "value",
          "type": "uint256"
        },
        {
          "indexed": false,
          "internalType": "bytes",
          "name": "data",
          "type": "bytes"
        },
        {
          "indexed": false,
          "internalType": "bool",
          "name": "success",
          "type": "bool"
        },
        {
          "indexed": false,
          "internalType": "bytes",
          "name": "returnData",
          "type": "bytes"
        }
      ],
      "name": "Invoked",
      "type": "event"
    },
    {
      "anonymous": false,
      "inputs": [
        {
          "indexed": true,
          "internalType": "bool",
          "name": "success",
          "type": "bool"
        },
        {
          "indexed": false,
          "internalType": "bytes",
          "name": "returnData",
          "type": "bytes"
        },
        {
          "indexed": false,
          "internalType": "bytes32",
          "name": "signedHash",
          "type": "bytes32"
        }
      ],
      "name": "TransactionExecuted",
      "type": "event"
    },
    {
      "anonymous": false,
      "inputs": [
        {
          "indexed": false,
          "internalType": "address",
          "name": "to",
          "type": "address"
        },
        {
          "indexed": false,
          "internalType": "uint256",
          "name": "amount",
          "type": "uint256"
        }
      ],
      "name": "WalletTransfer",
      "type": "event"
    },
    {
      "anonymous": false,
      "inputs": [
        {
          "indexed": false,
          "internalType": "address",
          "name": "newImpl",
          "type": "address"
        }
      ],
      "name": "WalletUpgraded",
      "type": "event"
    },
    {
      "inputs": [],
      "name": "wallet",
      "outputs": [
        {
          "internalType": "address",
          "name": "owner",
          "type": "address"
        },
        {
          "internalType": "bool",
          "name": "locked",
          "type": "bool"
        },
        {
          "internalType": "uint8",
          "name": "merkelHeight",
          "type": "uint8"
        },
        {
          "internalType": "uint256",
          "name": "counter",
          "type": "uint256"
        },
        {
          "internalType": "address payable",
          "name": "drainAddr",
          "type": "address"
        },
        {
          "internalType": "uint256",
          "name": "dailyLimit",
          "type": "uint256"
        },
        {
          "internalType": "uint256",
          "name": "lastDay",
          "type": "uint256"
        },
        {
          "internalType": "uint256",
          "name": "spentToday",
          "type": "uint256"
        },
        {
          "internalType": "string",
          "name": "hashStorageID",
          "type": "string"
        },
        {
          "components": [
            {
              "internalType": "address",
              "name": "newOwner",
              "type": "address"
            },
            {
              "internalType": "uint256",
              "name": "expiration",
              "type": "uint256"
            }
          ],
          "internalType": "struct Core.RecoveryInfo",
          "name": "pendingRecovery",
          "type": "tuple"
        },
        {
          "internalType": "address",
          "name": "resolver",
          "type": "address"
        },
        {
          "internalType": "uint256",
          "name": "nonce",
          "type": "uint256"
        }
      ],
      "stateMutability": "view",
      "type": "function",
      "constant": true
    },
    {
      "stateMutability": "payable",
      "type": "receive",
      "payable": true
    },
    {
      "inputs": [
        {
          "internalType": "address",
          "name": "resolver_",
          "type": "address"
        },
        {
          "internalType": "string[2]",
          "name": "domain_",
          "type": "string[2]"
        },
        {
          "internalType": "address",
          "name": "owner_",
          "type": "address"
        },
        {
          "internalType": "bytes32[]",
          "name": "rootHash_",
          "type": "bytes32[]"
        },
        {
          "internalType": "uint8",
          "name": "merkelHeight_",
          "type": "uint8"
        },
        {
          "internalType": "address payable",
          "name": "drainAddr_",
          "type": "address"
        },
        {
          "internalType": "uint256",
          "name": "dailyLimit_",
          "type": "uint256"
        },
        {
          "internalType": "address",
          "name": "feeRecipient",
          "type": "address"
        },
        {
          "internalType": "uint256",
          "name": "feeAmount",
          "type": "uint256"
        }
      ],
      "name": "initialize",
      "outputs": [],
      "stateMutability": "nonpayable",
      "type": "function"
    },
    {
      "inputs": [
        {
          "internalType": "string",
          "name": "subdomain",
          "type": "string"
        },
        {
          "internalType": "string",
          "name": "domain",
          "type": "string"
        },
        {
          "internalType": "uint256",
          "name": "duration",
          "type": "uint256"
        }
      ],
      "name": "registerENS",
      "outputs": [],
      "stateMutability": "nonpayable",
      "type": "function"
    },
    {
      "inputs": [
        {
          "internalType": "bytes",
          "name": "_data",
          "type": "bytes"
        }
      ],
      "name": "getRequiredSignatures",
      "outputs": [
        {
          "internalType": "uint8",
          "name": "",
          "type": "uint8"
        },
        {
          "internalType": "enum Core.OwnerSignature",
          "name": "",
          "type": "uint8"
        }
      ],
      "stateMutability": "view",
      "type": "function",
      "constant": true
    },
    {
      "inputs": [
        {
          "internalType": "bytes",
          "name": "data",
          "type": "bytes"
        },
        {
          "internalType": "bytes",
          "name": "signatures",
          "type": "bytes"
        },
        {
          "internalType": "uint256",
          "name": "nonce",
          "type": "uint256"
        },
        {
          "internalType": "uint256",
          "name": "gasPrice",
          "type": "uint256"
        },
        {
          "internalType": "uint256",
          "name": "gasLimit",
          "type": "uint256"
        },
        {
          "internalType": "address",
          "name": "",
          "type": "address"
        },
        {
          "internalType": "address payable",
          "name": "refundAddress",
          "type": "address"
        }
      ],
      "name": "executeMetaTx",
      "outputs": [],
      "stateMutability": "nonpayable",
      "type": "function"
    },
    {
      "inputs": [
        {
          "components": [
            {
              "internalType": "address",
              "name": "to",
              "type": "address"
            },
            {
              "internalType": "uint256",
              "name": "value",
              "type": "uint256"
            },
            {
              "internalType": "bytes",
              "name": "data",
              "type": "bytes"
            }
          ],
          "internalType": "struct TOTPWallet.Call[]",
          "name": "_transactions",
          "type": "tuple[]"
        }
      ],
      "name": "multiCall",
      "outputs": [
        {
          "internalType": "bytes[]",
          "name": "",
          "type": "bytes[]"
        }
      ],
      "stateMutability": "nonpayable",
      "type": "function"
    },
    {
      "inputs": [
        {
          "internalType": "address payable",
          "name": "to",
          "type": "address"
        },
        {
          "internalType": "uint256",
          "name": "amount",
          "type": "uint256"
        }
      ],
      "name": "makeTransfer",
      "outputs": [],
      "stateMutability": "nonpayable",
      "type": "function"
    },
    {
      "inputs": [],
      "name": "getOwner",
      "outputs": [
        {
          "internalType": "address",
          "name": "",
          "type": "address"
        }
      ],
      "stateMutability": "view",
      "type": "function",
      "constant": true
    },
    {
      "inputs": [],
      "name": "getCounter",
      "outputs": [
        {
          "internalType": "uint256",
          "name": "",
          "type": "uint256"
        }
      ],
      "stateMutability": "view",
      "type": "function",
      "constant": true
    },
    {
      "inputs": [
        {
          "internalType": "string",
          "name": "id",
          "type": "string"
        }
      ],
      "name": "setHashStorageId",
      "outputs": [],
      "stateMutability": "nonpayable",
      "type": "function"
    },
    {
      "inputs": [],
      "name": "getHashStorageId",
      "outputs": [
        {
          "internalType": "string",
          "name": "",
          "type": "string"
        }
      ],
      "stateMutability": "view",
      "type": "function",
      "constant": true
    },
    {
      "inputs": [],
      "name": "getRootHashes",
      "outputs": [
        {
          "internalType": "bytes32[]",
          "name": "",
          "type": "bytes32[]"
        }
      ],
      "stateMutability": "view",
      "type": "function",
      "constant": true
    },
    {
      "inputs": [
        {
          "internalType": "address payable",
          "name": "addr",
          "type": "address"
        }
      ],
      "name": "setDrainAddress",
      "outputs": [],
      "stateMutability": "nonpayable",
      "type": "function"
    },
    {
      "inputs": [
        {
          "internalType": "uint256",
          "name": "amount",
          "type": "uint256"
        }
      ],
      "name": "setDailyLimit",
      "outputs": [],
      "stateMutability": "nonpayable",
      "type": "function"
    },
    {
      "inputs": [
        {
          "internalType": "address",
          "name": "guardian",
          "type": "address"
        }
      ],
      "name": "addGuardian",
      "outputs": [],
      "stateMutability": "nonpayable",
      "type": "function"
    },
    {
      "inputs": [
        {
          "internalType": "address",
          "name": "guardian",
          "type": "address"
        }
      ],
      "name": "revokeGuardian",
      "outputs": [],
      "stateMutability": "nonpayable",
      "type": "function"
    },
    {
      "inputs": [
        {
          "internalType": "address",
          "name": "addr",
          "type": "address"
        }
      ],
      "name": "isGuardian",
      "outputs": [
        {
          "internalType": "bool",
          "name": "",
          "type": "bool"
        }
      ],
      "stateMutability": "view",
      "type": "function",
      "constant": true
    },
    {
      "inputs": [],
      "name": "getGuardians",
      "outputs": [
        {
          "internalType": "address[]",
          "name": "",
          "type": "address[]"
        }
      ],
      "stateMutability": "view",
      "type": "function",
      "constant": true
    },
    {
      "inputs": [
        {
          "internalType": "address",
          "name": "newOwner_",
          "type": "address"
        }
      ],
      "name": "startRecoverGuardianOnly",
      "outputs": [],
      "stateMutability": "nonpayable",
      "type": "function"
    },
    {
      "inputs": [
        {
          "internalType": "bytes32",
          "name": "secretHash",
          "type": "bytes32"
        },
        {
          "internalType": "bytes32",
          "name": "dataHash",
          "type": "bytes32"
        }
      ],
      "name": "startRecoverCommit",
      "outputs": [],
      "stateMutability": "nonpayable",
      "type": "function"
    },
    {
      "inputs": [
        {
          "internalType": "address",
          "name": "newOwner",
          "type": "address"
        },
        {
          "internalType": "bytes32[]",
          "name": "confirmMaterial",
          "type": "bytes32[]"
        }
      ],
      "name": "startRecoveryReveal",
      "outputs": [],
      "stateMutability": "nonpayable",
      "type": "function"
    },
    {
      "inputs": [],
      "name": "isRecovering",
      "outputs": [
        {
          "internalType": "bool",
          "name": "",
          "type": "bool"
        }
      ],
      "stateMutability": "view",
      "type": "function",
      "constant": true
    },
    {
      "inputs": [],
      "name": "cancelRecovery",
      "outputs": [],
      "stateMutability": "nonpayable",
      "type": "function"
    },
    {
      "inputs": [],
      "name": "getRecovery",
      "outputs": [
        {
          "internalType": "address",
          "name": "",
          "type": "address"
        },
        {
          "internalType": "uint256",
          "name": "",
          "type": "uint256"
        }
      ],
      "stateMutability": "view",
      "type": "function",
      "constant": true
    },
    {
      "inputs": [],
      "name": "finalizeRecovery",
      "outputs": [],
      "stateMutability": "nonpayable",
      "type": "function"
    },
    {
      "inputs": [
        {
          "internalType": "address",
          "name": "newMasterCopy",
          "type": "address"
        }
      ],
      "name": "upgradeMasterCopy",
      "outputs": [],
      "stateMutability": "nonpayable",
      "type": "function"
    },
    {
      "inputs": [],
      "name": "getMasterCopy",
      "outputs": [
        {
          "internalType": "address",
          "name": "",
          "type": "address"
        }
      ],
      "stateMutability": "view",
      "type": "function",
      "constant": true
    },
    {
      "inputs": [
        {
          "internalType": "address",
          "name": "",
          "type": "address"
        },
        {
          "internalType": "address",
          "name": "",
          "type": "address"
        },
        {
          "internalType": "uint256",
          "name": "",
          "type": "uint256"
        },
        {
          "internalType": "uint256",
          "name": "",
          "type": "uint256"
        },
        {
          "internalType": "bytes",
          "name": "",
          "type": "bytes"
        }
      ],
      "name": "onERC1155Received",
      "outputs": [
        {
          "internalType": "bytes4",
          "name": "",
          "type": "bytes4"
        }
      ],
      "stateMutability": "pure",
      "type": "function",
      "constant": true
    },
    {
      "inputs": [
        {
          "internalType": "address",
          "name": "operator",
          "type": "address"
        },
        {
          "internalType": "address",
          "name": "from",
          "type": "address"
        },
        {
          "internalType": "uint256[]",
          "name": "ids",
          "type": "uint256[]"
        },
        {
          "internalType": "uint256[]",
          "name": "values",
          "type": "uint256[]"
        },
        {
          "internalType": "bytes",
          "name": "data",
          "type": "bytes"
        }
      ],
      "name": "onERC1155BatchReceived",
      "outputs": [
        {
          "internalType": "bytes4",
          "name": "",
          "type": "bytes4"
        }
      ],
      "stateMutability": "view",
      "type": "function",
      "constant": true
    },
    {
      "inputs": [
        {
          "internalType": "bytes4",
          "name": "interfaceID",
          "type": "bytes4"
        }
      ],
      "name": "supportsInterface",
      "outputs": [
        {
          "internalType": "bool",
          "name": "",
          "type": "bool"
        }
      ],
      "stateMutability": "pure",
      "type": "function",
      "constant": true
    },
    {
      "inputs": [
        {
          "internalType": "address",
          "name": "",
          "type": "address"
        },
        {
          "internalType": "address",
          "name": "",
          "type": "address"
        },
        {
          "internalType": "uint256",
          "name": "",
          "type": "uint256"
        },
        {
          "internalType": "bytes",
          "name": "",
          "type": "bytes"
        }
      ],
      "name": "onERC721Received",
      "outputs": [
        {
          "internalType": "bytes4",
          "name": "",
          "type": "bytes4"
        }
      ],
      "stateMutability": "pure",
      "type": "function",
      "constant": true
    }
  ],
  "bytecode": "0x608060405234801561001057600080fd5b506001601160006101000a81548160ff021916908315150217905550615b2d806200003c6000396000f3fe6080604052600436106101dc5760003560e01c80638ada066e11610102578063bc197c8111610095578063de03371511610064578063de03371514610863578063e2ccb3051461088c578063ef24c736146108a3578063f23a6e61146108cc57610386565b8063bc197c81146107a9578063c832fe5f146107e6578063cabd82c514610811578063d50733221461083a57610386565b8063abea22cc116100d1578063abea22cc14610705578063af648c3d1461072e578063b20d30a914610757578063b6c384321461078057610386565b80638ada066e1461065d5780638df2730a1461068857806391ac2788146106b1578063a526d83b146106dc57610386565b8063248b17011161017a578063706f765811610149578063706f76581461059f57806375a3f50d146105cb57806379d3d98c14610609578063893d20e81461063257610386565b8063248b1701146104da5780632f23a3ab14610517578063521eb27314610540578063693b60a21461057657610386565b80630ba234d6116101b65780630ba234d61461041e5780630c68ba2114610435578063150b7a02146104725780631f13938d146104af57610386565b806301ffc9a71461038b57806304e80e90146103c85780630665f04b146103f357610386565b3661038657600034111561038457600160040160009054906101000a900473ffffffffffffffffffffffffffffffffffffffff1673ffffffffffffffffffffffffffffffffffffffff163373ffffffffffffffffffffffffffffffffffffffff161480156102515750670de0b6b3a764000034145b156103355760004790506000600160040160009054906101000a900473ffffffffffffffffffffffffffffffffffffffff1673ffffffffffffffffffffffffffffffffffffffff1682620186a0906040516102ab90614c75565b600060405180830381858888f193505050503d80600081146102e9576040519150601f19603f3d011682016040523d82523d6000602084013e6102ee565b606091505b5050905080610332576040517f08c379a000000000000000000000000000000000000000000000000000000000815260040161032990615114565b60405180910390fd5b50505b3373ffffffffffffffffffffffffffffffffffffffff167fe1fffcc4923d04b559f4d29a8bfc6cda04eb5b0d3c460751c2402c5c5cc9109c3460405161037b919061537f565b60405180910390a25b005b600080fd5b34801561039757600080fd5b506103b260048036038101906103ad9190613e2c565b610909565b6040516103bf9190614e9c565b60405180910390f35b3480156103d457600080fd5b506103dd6109f8565b6040516103ea9190614c8a565b60405180910390f35b3480156103ff57600080fd5b50610408610a21565b6040516104159190614e14565b60405180910390f35b34801561042a57600080fd5b50610433610ab2565b005b34801561044157600080fd5b5061045c6004803603810190610457919061399a565b610c1f565b6040516104699190614e9c565b60405180910390f35b34801561047e57600080fd5b5061049960048036038101906104949190613af4565b610cb4565b6040516104a69190614eb7565b60405180910390f35b3480156104bb57600080fd5b506104c4610cc9565b6040516104d19190614f92565b60405180910390f35b3480156104e657600080fd5b5061050160048036038101906104fc9190613d59565b610d5e565b60405161050e9190614e7a565b60405180910390f35b34801561052357600080fd5b5061053e60048036038101906105399190613fde565b61103e565b005b34801561054c57600080fd5b5061055561119e565b60405161056d9c9b9a99989796959493929190614d2a565b60405180910390f35b34801561058257600080fd5b5061059d60048036038101906105989190613ec3565b611358565b005b3480156105ab57600080fd5b506105b46115e5565b6040516105c2929190614deb565b60405180910390f35b3480156105d757600080fd5b506105f260048036038101906105ed9190613e7e565b611622565b6040516106009291906153c3565b60405180910390f35b34801561061557600080fd5b50610630600480360381019061062b9190613f99565b611ac6565b005b34801561063e57600080fd5b50610647611bc4565b6040516106549190614c8a565b60405180910390f35b34801561066957600080fd5b50610672611bf1565b60405161067f919061537f565b60405180910390f35b34801561069457600080fd5b506106af60048036038101906106aa9190613df0565b611bfe565b005b3480156106bd57600080fd5b506106c6611d37565b6040516106d39190614e9c565b60405180910390f35b3480156106e857600080fd5b5061070360048036038101906106fe919061399a565b611d4a565b005b34801561071157600080fd5b5061072c600480360381019061072791906139ec565b611e9e565b005b34801561073a57600080fd5b506107556004803603810190610750919061399a565b612125565b005b34801561076357600080fd5b5061077e60048036038101906107799190614067565b612279565b005b34801561078c57600080fd5b506107a760048036038101906107a291906139c3565b61236b565b005b3480156107b557600080fd5b506107d060048036038101906107cb9190613a28565b612497565b6040516107dd9190614eb7565b60405180910390f35b3480156107f257600080fd5b506107fb6125f8565b6040516108089190614e58565b60405180910390f35b34801561081d57600080fd5b5061083860048036038101906108339190613c06565b612652565b005b34801561084657600080fd5b50610861600480360381019061085c9190613c5e565b612ce4565b005b34801561086f57600080fd5b5061088a6004803603810190610885919061399a565b61310d565b005b34801561089857600080fd5b506108a16131f5565b005b3480156108af57600080fd5b506108ca60048036038101906108c5919061399a565b613261565b005b3480156108d857600080fd5b506108f360048036038101906108ee9190613b74565b61333e565b6040516109009190614eb7565b60405180910390f35b60006301ffc9a760e01b7bffffffffffffffffffffffffffffffffffffffffffffffffffffffff1916827bffffffffffffffffffffffffffffffffffffffffffffffffffffffff191614806109a2575063f23a6e6160e01b7bffffffffffffffffffffffffffffffffffffffffffffffffffffffff1916827bffffffffffffffffffffffffffffffffffffffffffffffffffffffff1916145b806109f1575063150b7a0260e01b7bffffffffffffffffffffffffffffffffffffffffffffffffffffffff1916827bffffffffffffffffffffffffffffffffffffffffffffffffffffffff1916145b9050919050565b60008060009054906101000a900473ffffffffffffffffffffffffffffffffffffffff16905090565b60606001600501805480602002602001604051908101604052809291908181526020018280548015610aa857602002820191906000526020600020905b8160009054906101000a900473ffffffffffffffffffffffffffffffffffffffff1673ffffffffffffffffffffffffffffffffffffffff1681526020019060010190808311610a5e575b5050505050905090565b3073ffffffffffffffffffffffffffffffffffffffff163373ffffffffffffffffffffffffffffffffffffffff161480610b585750600160000160009054906101000a900473ffffffffffffffffffffffffffffffffffffffff1673ffffffffffffffffffffffffffffffffffffffff163373ffffffffffffffffffffffffffffffffffffffff16148015610b575750600160000160149054906101000a900460ff16155b5b610b97576040517f08c379a0000000000000000000000000000000000000000000000000000000008152600401610b8e90615174565b60405180910390fd5b6040518060400160405280600073ffffffffffffffffffffffffffffffffffffffff16815260200160008152506001600b0160008201518160000160006101000a81548173ffffffffffffffffffffffffffffffffffffffff021916908373ffffffffffffffffffffffffffffffffffffffff16021790555060208201518160010155905050565b6000600173__Guardians_____________________________63121c95629091846040518363ffffffff1660e01b8152600401610c5d92919061526f565b60206040518083038186803b158015610c7557600080fd5b505af4158015610c89573d6000803e3d6000fd5b505050506040513d601f19601f82011682018060405250810190610cad9190613d9e565b9050919050565b600063150b7a0260e01b905095945050505050565b60606001600a018054610cdb9061583d565b80601f0160208091040260200160405190810160405280929190818152602001828054610d079061583d565b8015610d545780601f10610d2957610100808354040283529160200191610d54565b820191906000526020600020905b815481529060010190602001808311610d3757829003601f168201915b5050505050905090565b60603073ffffffffffffffffffffffffffffffffffffffff163373ffffffffffffffffffffffffffffffffffffffff161480610e065750600160000160009054906101000a900473ffffffffffffffffffffffffffffffffffffffff1673ffffffffffffffffffffffffffffffffffffffff163373ffffffffffffffffffffffffffffffffffffffff16148015610e055750600160000160149054906101000a900460ff16155b5b610e45576040517f08c379a0000000000000000000000000000000000000000000000000000000008152600401610e3c90615174565b60405180910390fd5b60008383905067ffffffffffffffff811115610e8a577f4e487b7100000000000000000000000000000000000000000000000000000000600052604160045260246000fd5b604051908082528060200260200182016040528015610ebd57816020015b6060815260200190600190039081610ea85790505b50905060005b8484905081101561103357610fdc858583818110610f0a577f4e487b7100000000000000000000000000000000000000000000000000000000600052603260045260246000fd5b9050602002810190610f1c919061549a565b6000016020810190610f2e919061399a565b868684818110610f67577f4e487b7100000000000000000000000000000000000000000000000000000000600052603260045260246000fd5b9050602002810190610f79919061549a565b60200135878785818110610fb6577f4e487b7100000000000000000000000000000000000000000000000000000000600052603260045260246000fd5b9050602002810190610fc8919061549a565b8060400190610fd791906153ec565b613354565b828281518110611015577f4e487b7100000000000000000000000000000000000000000000000000000000600052603260045260246000fd5b6020026020010181905250808061102b9061586f565b915050610ec3565b508091505092915050565b3073ffffffffffffffffffffffffffffffffffffffff163373ffffffffffffffffffffffffffffffffffffffff1614806110e45750600160000160009054906101000a900473ffffffffffffffffffffffffffffffffffffffff1673ffffffffffffffffffffffffffffffffffffffff163373ffffffffffffffffffffffffffffffffffffffff161480156110e35750600160000160149054906101000a900460ff16155b5b611123576040517f08c379a000000000000000000000000000000000000000000000000000000000815260040161111a90615174565b60405180910390fd5b600173__NameService___________________________63145f7620909187878787876040518763ffffffff1660e01b815260040161116796959493929190615298565b60006040518083038186803b15801561117f57600080fd5b505af4158015611193573d6000803e3d6000fd5b505050505050505050565b60018060000160009054906101000a900473ffffffffffffffffffffffffffffffffffffffff16908060000160149054906101000a900460ff16908060020160009054906101000a900460ff16908060030154908060040160009054906101000a900473ffffffffffffffffffffffffffffffffffffffff169080600701549080600801549080600901549080600a0180546112399061583d565b80601f01602080910402602001604051908101604052809291908181526020018280546112659061583d565b80156112b25780601f10611287576101008083540402835291602001916112b2565b820191906000526020600020905b81548152906001019060200180831161129557829003601f168201915b50505050509080600b016040518060400160405290816000820160009054906101000a900473ffffffffffffffffffffffffffffffffffffffff1673ffffffffffffffffffffffffffffffffffffffff1673ffffffffffffffffffffffffffffffffffffffff1681526020016001820154815250509080600e0160009054906101000a900473ffffffffffffffffffffffffffffffffffffffff169080600f015490508c565b60005a9050611365613640565b61136f8b8b611622565b82600001836020018260048111156113b0577f4e487b7100000000000000000000000000000000000000000000000000000000600052602160045260246000fd5b60048111156113e8577f4e487b7100000000000000000000000000000000000000000000000000000000600052602160045260246000fd5b8152508260ff1660ff16815250505073__MetaTx________________________________631815d80160018d8d8d8d8d8d8d8c8b6040518b63ffffffff1660e01b81526004016114419a999897969594939291906152ef565b60006040518083038186803b15801561145957600080fd5b505af415801561146d573d6000803e3d6000fd5b50505050600060603073ffffffffffffffffffffffffffffffffffffffff168d8d60405161149c929190614c5c565b6000604051808303816000865af19150503d80600081146114d9576040519150601f19603f3d011682016040523d82523d6000602084013e6114de565b606091505b5080925081935050506000881180156114f45750815b801561152d5750600073ffffffffffffffffffffffffffffffffffffffff168573ffffffffffffffffffffffffffffffffffffffff1614155b15611599576000620111705a866115449190615677565b61154e91906155f0565b90508573ffffffffffffffffffffffffffffffffffffffff166108fc829081150290604051600060405180830381858888f19350505050158015611596573d6000803e3d6000fd5b50505b8115157f8e2386b9ce82e5e79311687a54408ad06fa06a338e2057cdcdfaf3a076743f1e8260006040516115ce929190614f19565b60405180910390a250505050505050505050505050565b6000806001600b0160000160009054906101000a900473ffffffffffffffffffffffffffffffffffffffff166001600b0160010154915091509091565b600080600061167485858080601f016020809104026020016040519081016040528093929190818152602001838380828437600081840152601f19601f82011690508083019250505050505050613438565b905063abea22cc60e01b7bffffffffffffffffffffffffffffffffffffffffffffffffffffffff1916817bffffffffffffffffffffffffffffffffffffffffffffffffffffffff1916148061170d575063248b170160e01b7bffffffffffffffffffffffffffffffffffffffffffffffffffffffff1916817bffffffffffffffffffffffffffffffffffffffffffffffffffffffff1916145b8061175c575063a526d83b60e01b7bffffffffffffffffffffffffffffffffffffffffffffffffffffffff1916817bffffffffffffffffffffffffffffffffffffffffffffffffffffffff1916145b806117ab575063af648c3d60e01b7bffffffffffffffffffffffffffffffffffffffffffffffffffffffff1916817bffffffffffffffffffffffffffffffffffffffffffffffffffffffff1916145b806117fa575063de03371560e01b7bffffffffffffffffffffffffffffffffffffffffffffffffffffffff1916817bffffffffffffffffffffffffffffffffffffffffffffffffffffffff1916145b80611849575063b20d30a960e01b7bffffffffffffffffffffffffffffffffffffffffffffffffffffffff1916817bffffffffffffffffffffffffffffffffffffffffffffffffffffffff1916145b80611898575063b6c3843260e01b7bffffffffffffffffffffffffffffffffffffffffffffffffffffffff1916817bffffffffffffffffffffffffffffffffffffffffffffffffffffffff1916145b806118e757506379d3d98c60e01b7bffffffffffffffffffffffffffffffffffffffffffffffffffffffff1916817bffffffffffffffffffffffffffffffffffffffffffffffffffffffff1916145b156118f9576001809250925050611abf565b63ef24c73660e01b7bffffffffffffffffffffffffffffffffffffffffffffffffffffffff1916817bffffffffffffffffffffffffffffffffffffffffffffffffffffffff191614156119b75760026001600501805490501015611992576040517f08c379a000000000000000000000000000000000000000000000000000000000815260040161198990614ff4565b60405180910390fd5b60006119a7600160050180549050600261348b565b9050806003935093505050611abf565b638df2730a60e01b7bffffffffffffffffffffffffffffffffffffffffffffffffffffffff1916817bffffffffffffffffffffffffffffffffffffffffffffffffffffffff19161415611a29576000611a19600160050180549050600261348b565b9050806003935093505050611abf565b63cabd82c560e01b7bffffffffffffffffffffffffffffffffffffffffffffffffffffffff1916817bffffffffffffffffffffffffffffffffffffffffffffffffffffffff19161415611a8457600060039250925050611abf565b6040517f08c379a0000000000000000000000000000000000000000000000000000000008152600401611ab690615214565b60405180910390fd5b9250929050565b3073ffffffffffffffffffffffffffffffffffffffff163373ffffffffffffffffffffffffffffffffffffffff161480611b6c5750600160000160009054906101000a900473ffffffffffffffffffffffffffffffffffffffff1673ffffffffffffffffffffffffffffffffffffffff163373ffffffffffffffffffffffffffffffffffffffff16148015611b6b5750600160000160149054906101000a900460ff16155b5b611bab576040517f08c379a0000000000000000000000000000000000000000000000000000000008152600401611ba290615174565b60405180910390fd5b81816001600a019190611bbf929190613695565b505050565b6000600160000160009054906101000a900473ffffffffffffffffffffffffffffffffffffffff16905090565b6000600160030154905090565b3073ffffffffffffffffffffffffffffffffffffffff163373ffffffffffffffffffffffffffffffffffffffff1614611c6c576040517f08c379a0000000000000000000000000000000000000000000000000000000008152600401611c6390615154565b60405180910390fd5b60006001600d0160008481526020019081526020016000206001015414611cc8576040517f08c379a0000000000000000000000000000000000000000000000000000000008152600401611cbf90614fb4565b60405180910390fd5b6040518060600160405280828152602001438152602001600015158152506001600d016000848152602001908152602001600020600082015181600001556020820151816001015560408201518160020160006101000a81548160ff0219169083151502179055509050505050565b6000806001600b01600101541415905090565b3073ffffffffffffffffffffffffffffffffffffffff163373ffffffffffffffffffffffffffffffffffffffff161480611df05750600160000160009054906101000a900473ffffffffffffffffffffffffffffffffffffffff1673ffffffffffffffffffffffffffffffffffffffff163373ffffffffffffffffffffffffffffffffffffffff16148015611def5750600160000160149054906101000a900460ff16155b5b611e2f576040517f08c379a0000000000000000000000000000000000000000000000000000000008152600401611e2690615174565b60405180910390fd5b600173__Guardians_____________________________6397b9ce099091836040518363ffffffff1660e01b8152600401611e6b92919061526f565b60006040518083038186803b158015611e8357600080fd5b505af4158015611e97573d6000803e3d6000fd5b5050505050565b3073ffffffffffffffffffffffffffffffffffffffff163373ffffffffffffffffffffffffffffffffffffffff161480611f445750600160000160009054906101000a900473ffffffffffffffffffffffffffffffffffffffff1673ffffffffffffffffffffffffffffffffffffffff163373ffffffffffffffffffffffffffffffffffffffff16148015611f435750600160000160149054906101000a900460ff16155b5b611f83576040517f08c379a0000000000000000000000000000000000000000000000000000000008152600401611f7a90615174565b60405180910390fd5b611f978160016134d090919063ffffffff16565b611fd6576040517f08c379a0000000000000000000000000000000000000000000000000000000008152600401611fcd906151f4565b60405180910390fd5b80471015612019576040517f08c379a0000000000000000000000000000000000000000000000000000000008152600401612010906150d4565b60405180910390fd5b806001600901600082825461202e91906155f0565b9250508190555060008273ffffffffffffffffffffffffffffffffffffffff1682620186a09060405161206090614c75565b600060405180830381858888f193505050503d806000811461209e576040519150601f19603f3d011682016040523d82523d6000602084013e6120a3565b606091505b50509050806120e7576040517f08c379a00000000000000000000000000000000000000000000000000000000081526004016120de906151b4565b60405180910390fd5b7f688077ec2e4cf5b023188b3c964a1a6481e6ff3fd3d3af3971ae0bf2172f75658383604051612118929190614ca5565b60405180910390a1505050565b3073ffffffffffffffffffffffffffffffffffffffff163373ffffffffffffffffffffffffffffffffffffffff1614806121cb5750600160000160009054906101000a900473ffffffffffffffffffffffffffffffffffffffff1673ffffffffffffffffffffffffffffffffffffffff163373ffffffffffffffffffffffffffffffffffffffff161480156121ca5750600160000160149054906101000a900460ff16155b5b61220a576040517f08c379a000000000000000000000000000000000000000000000000000000000815260040161220190615174565b60405180910390fd5b600173__Guardians_____________________________63e98ee0859091836040518363ffffffff1660e01b815260040161224692919061526f565b60006040518083038186803b15801561225e57600080fd5b505af4158015612272573d6000803e3d6000fd5b5050505050565b3073ffffffffffffffffffffffffffffffffffffffff163373ffffffffffffffffffffffffffffffffffffffff16148061231f5750600160000160009054906101000a900473ffffffffffffffffffffffffffffffffffffffff1673ffffffffffffffffffffffffffffffffffffffff163373ffffffffffffffffffffffffffffffffffffffff1614801561231e5750600160000160149054906101000a900460ff16155b5b61235e576040517f08c379a000000000000000000000000000000000000000000000000000000000815260040161235590615174565b60405180910390fd5b8060016007018190555050565b3073ffffffffffffffffffffffffffffffffffffffff163373ffffffffffffffffffffffffffffffffffffffff1614806124115750600160000160009054906101000a900473ffffffffffffffffffffffffffffffffffffffff1673ffffffffffffffffffffffffffffffffffffffff163373ffffffffffffffffffffffffffffffffffffffff161480156124105750600160000160149054906101000a900460ff16155b5b612450576040517f08c379a000000000000000000000000000000000000000000000000000000000815260040161244790615174565b60405180910390fd5b80600160040160006101000a81548173ffffffffffffffffffffffffffffffffffffffff021916908373ffffffffffffffffffffffffffffffffffffffff16021790555050565b600080600090505b878790508163ffffffff1610156125e1573073ffffffffffffffffffffffffffffffffffffffff1663f23a6e618b8b8b8b8663ffffffff1681811061250d577f4e487b7100000000000000000000000000000000000000000000000000000000600052603260045260246000fd5b905060200201358a8a8763ffffffff16818110612553577f4e487b7100000000000000000000000000000000000000000000000000000000600052603260045260246000fd5b9050602002013589896040518763ffffffff1660e01b815260040161257d96959493929190614cce565b60206040518083038186803b15801561259557600080fd5b505afa1580156125a9573d6000803e3d6000fd5b505050506040513d601f19601f820116820180604052508101906125cd9190613e55565b5080806125d9906158b8565b91505061249f565b5063bc197c8160e01b905098975050505050505050565b60606001800180548060200260200160405190810160405280929190818152602001828054801561264857602002820191906000526020600020905b815481526020019060010190808311612634575b5050505050905090565b3073ffffffffffffffffffffffffffffffffffffffff163373ffffffffffffffffffffffffffffffffffffffff16146126c0576040517f08c379a00000000000000000000000000000000000000000000000000000000081526004016126b790615154565b60405180910390fd5b818180806020026020016040519081016040528093929190818152602001838360200280828437600081840152601f19601f82011690508083019250505050505050600073__Recovery______________________________63a6659f26836040518263ffffffff1660e01b815260040161273b9190614e36565b60206040518083038186803b15801561275357600080fd5b505af4158015612767573d6000803e3d6000fd5b505050506040513d601f19601f8201168201806040525081019061278b9190613dc7565b9050600073__Recovery______________________________63396c8e65600160020160009054906101000a900460ff1685600187516127cb9190615677565b81518110612802577f4e487b7100000000000000000000000000000000000000000000000000000000600052603260045260246000fd5b60200260200101516040518363ffffffff1660e01b815260040161282792919061539a565b60206040518083038186803b15801561283f57600080fd5b505af4158015612853573d6000803e3d6000fd5b505050506040513d601f19601f820116820180604052508101906128779190614090565b90506001600301548163ffffffff1610156128c7576040517f08c379a00000000000000000000000000000000000000000000000000000000081526004016128be906150f4565b60405180910390fd5b60326001600301548263ffffffff166128e09190615677565b10612920576040517f08c379a000000000000000000000000000000000000000000000000000000000815260040161291790615134565b60405180910390fd5b6000805b60018001805490508163ffffffff1610156129a557600180018163ffffffff168154811061297b577f4e487b7100000000000000000000000000000000000000000000000000000000600052603260045260246000fd5b906000526020600020015484141561299257600191505b808061299d906158b8565b915050612924565b50806129e6576040517f08c379a00000000000000000000000000000000000000000000000000000000081526004016129dd90615034565b60405180910390fd5b600086866000818110612a22577f4e487b7100000000000000000000000000000000000000000000000000000000600052603260045260246000fd5b90506020020135604051602001612a399190614c41565b60405160208183030381529060405280519060200120905060006001600d016000838152602001908152602001600020600101541415612aae576040517f08c379a0000000000000000000000000000000000000000000000000000000008152600401612aa590614fd4565b60405180910390fd5b600015156001600d01600083815260200190815260200160002060020160009054906101000a900460ff16151514612b1b576040517f08c379a0000000000000000000000000000000000000000000000000000000008152600401612b1290615074565b60405180910390fd5b600f6001600d0160008381526020019081526020016000206001015443612b429190615677565b10612b82576040517f08c379a0000000000000000000000000000000000000000000000000000000008152600401612b79906151d4565b60405180910390fd5b60008888886000818110612bbf577f4e487b7100000000000000000000000000000000000000000000000000000000600052603260045260246000fd5b90506020020135604051602001612bd7929190614c15565b6040516020818303038152906040528051906020012090506001600d016000838152602001908152602001600020600001548114612c4a576040517f08c379a0000000000000000000000000000000000000000000000000000000008152600401612c4190615234565b60405180910390fd5b600180600d01600084815260200190815260200160002060020160006101000a81548160ff02191690831515021790555088600160000160006101000a81548173ffffffffffffffffffffffffffffffffffffffff021916908373ffffffffffffffffffffffffffffffffffffffff16021790555060018060030154612cd091906155f0565b600160030181905550505050505050505050565b896001600e0160006101000a81548173ffffffffffffffffffffffffffffffffffffffff021916908373ffffffffffffffffffffffffffffffffffffffff160217905550600073ffffffffffffffffffffffffffffffffffffffff16600160000160009054906101000a900473ffffffffffffffffffffffffffffffffffffffff1673ffffffffffffffffffffffffffffffffffffffff1614612dbc576040517f08c379a0000000000000000000000000000000000000000000000000000000008152600401612db390615014565b60405180910390fd5b80471015612dff576040517f08c379a0000000000000000000000000000000000000000000000000000000008152600401612df690615194565b60405180910390fd5b87600160000160006101000a81548173ffffffffffffffffffffffffffffffffffffffff021916908373ffffffffffffffffffffffffffffffffffffffff16021790555060005b878790508163ffffffff161015612eda576001800188888363ffffffff16818110612e9a577f4e487b7100000000000000000000000000000000000000000000000000000000600052603260045260246000fd5b9050602002013590806001815401808255809150506001900390600052602060002001600090919091909150558080612ed2906158b8565b915050612e46565b5084600160020160006101000a81548160ff021916908360ff16021790555083600160040160006101000a81548173ffffffffffffffffffffffffffffffffffffffff021916908373ffffffffffffffffffffffffffffffffffffffff16021790555082600160070181905550600089600060028110612f83577f4e487b7100000000000000000000000000000000000000000000000000000000600052603260045260246000fd5b602002810190612f939190615443565b905011156130a3573073ffffffffffffffffffffffffffffffffffffffff16632f23a3ab8a600060028110612ff1577f4e487b7100000000000000000000000000000000000000000000000000000000600052603260045260246000fd5b6020028101906130019190615443565b8c60016002811061303b577f4e487b7100000000000000000000000000000000000000000000000000000000600052603260045260246000fd5b60200281019061304b9190615443565b6301e133806040518663ffffffff1660e01b8152600401613070959493929190614f49565b600060405180830381600087803b15801561308a57600080fd5b505af115801561309e573d6000803e3d6000fd5b505050505b600073ffffffffffffffffffffffffffffffffffffffff168273ffffffffffffffffffffffffffffffffffffffff161461310157613100818373ffffffffffffffffffffffffffffffffffffffff1661354c90919063ffffffff16565b5b50505050505050505050565b3073ffffffffffffffffffffffffffffffffffffffff163373ffffffffffffffffffffffffffffffffffffffff161461317b576040517f08c379a000000000000000000000000000000000000000000000000000000000815260040161317290615154565b60405180910390fd5b806000806101000a81548173ffffffffffffffffffffffffffffffffffffffff021916908373ffffffffffffffffffffffffffffffffffffffff1602179055507f8a5dcb0249bae905183e794960410c37563e6ab514b1add384425d153972118d816040516131ea9190614c8a565b60405180910390a150565b600173__Recovery______________________________635fd7224790916040518263ffffffff1660e01b815260040161322f9190615254565b60006040518083038186803b15801561324757600080fd5b505af415801561325b573d6000803e3d6000fd5b50505050565b3073ffffffffffffffffffffffffffffffffffffffff163373ffffffffffffffffffffffffffffffffffffffff16146132cf576040517f08c379a00000000000000000000000000000000000000000000000000000000081526004016132c690615154565b60405180910390fd5b600173__Recovery______________________________636ffc1c629091836040518363ffffffff1660e01b815260040161330b92919061526f565b60006040518083038186803b15801561332357600080fd5b505af4158015613337573d6000803e3d6000fd5b5050505050565b600063f23a6e6160e01b90509695505050505050565b606060008573ffffffffffffffffffffffffffffffffffffffff16858585604051613380929190614c5c565b60006040518083038185875af1925050503d80600081146133bd576040519150601f19603f3d011682016040523d82523d6000602084013e6133c2565b606091505b508093508192505050848673ffffffffffffffffffffffffffffffffffffffff167f79ff2e3e6b1a9fd5afa9ad7b27b6075a3f05484916a94f800548947efa77e83b868685876040516134189493929190614ed2565b60405180910390a38061342f573d6000803e3d6000fd5b50949350505050565b600060048251101561347f576040517f08c379a000000000000000000000000000000000000000000000000000000000815260040161347690615054565b60405180910390fd5b60208201519050919050565b600080828461349a9190615646565b9050600083856134aa9190615913565b14156134b957809150506134ca565b6001816134c691906155f0565b9150505b92915050565b60006201518083600801546134e591906155f0565b42111561350057428360080181905550600083600901819055505b826007015482846009015461351591906155f0565b11806135335750826009015482846009015461353191906155f0565b105b156135415760009050613546565b600190505b92915050565b8047101561358f576040517f08c379a0000000000000000000000000000000000000000000000000000000008152600401613586906150b4565b60405180910390fd5b60008273ffffffffffffffffffffffffffffffffffffffff16826040516135b590614c75565b60006040518083038185875af1925050503d80600081146135f2576040519150601f19603f3d011682016040523d82523d6000602084013e6135f7565b606091505b505090508061363b576040517f08c379a000000000000000000000000000000000000000000000000000000000815260040161363290615094565b60405180910390fd5b505050565b6040518060400160405280600060ff1681526020016000600481111561368f577f4e487b7100000000000000000000000000000000000000000000000000000000600052602160045260246000fd5b81525090565b8280546136a19061583d565b90600052602060002090601f0160209004810192826136c3576000855561370a565b82601f106136dc57803560ff191683800117855561370a565b8280016001018555821561370a579182015b828111156137095782358255916020019190600101906136ee565b5b509050613717919061371b565b5090565b5b8082111561373457600081600090555060010161371c565b5090565b60008135905061374781615a3f565b92915050565b60008135905061375c81615a56565b92915050565b60008083601f84011261377457600080fd5b8235905067ffffffffffffffff81111561378d57600080fd5b6020830191508360208202830111156137a557600080fd5b9250929050565b6000819050826020600202820111156137c457600080fd5b92915050565b60008083601f8401126137dc57600080fd5b8235905067ffffffffffffffff8111156137f557600080fd5b60208301915083602082028301111561380d57600080fd5b9250929050565b60008083601f84011261382657600080fd5b8235905067ffffffffffffffff81111561383f57600080fd5b60208301915083602082028301111561385757600080fd5b9250929050565b60008151905061386d81615a6d565b92915050565b60008135905061388281615a84565b92915050565b60008151905061389781615a84565b92915050565b6000813590506138ac81615a9b565b92915050565b6000815190506138c181615a9b565b92915050565b60008083601f8401126138d957600080fd5b8235905067ffffffffffffffff8111156138f257600080fd5b60208301915083600182028301111561390a57600080fd5b9250929050565b60008083601f84011261392357600080fd5b8235905067ffffffffffffffff81111561393c57600080fd5b60208301915083600182028301111561395457600080fd5b9250929050565b60008135905061396a81615ab2565b92915050565b60008151905061397f81615ac9565b92915050565b60008135905061399481615ae0565b92915050565b6000602082840312156139ac57600080fd5b60006139ba84828501613738565b91505092915050565b6000602082840312156139d557600080fd5b60006139e38482850161374d565b91505092915050565b600080604083850312156139ff57600080fd5b6000613a0d8582860161374d565b9250506020613a1e8582860161395b565b9150509250929050565b60008060008060008060008060a0898b031215613a4457600080fd5b6000613a528b828c01613738565b9850506020613a638b828c01613738565b975050604089013567ffffffffffffffff811115613a8057600080fd5b613a8c8b828c01613814565b9650965050606089013567ffffffffffffffff811115613aab57600080fd5b613ab78b828c01613814565b9450945050608089013567ffffffffffffffff811115613ad657600080fd5b613ae28b828c016138c7565b92509250509295985092959890939650565b600080600080600060808688031215613b0c57600080fd5b6000613b1a88828901613738565b9550506020613b2b88828901613738565b9450506040613b3c8882890161395b565b935050606086013567ffffffffffffffff811115613b5957600080fd5b613b65888289016138c7565b92509250509295509295909350565b60008060008060008060a08789031215613b8d57600080fd5b6000613b9b89828a01613738565b9650506020613bac89828a01613738565b9550506040613bbd89828a0161395b565b9450506060613bce89828a0161395b565b935050608087013567ffffffffffffffff811115613beb57600080fd5b613bf789828a016138c7565b92509250509295509295509295565b600080600060408486031215613c1b57600080fd5b6000613c2986828701613738565b935050602084013567ffffffffffffffff811115613c4657600080fd5b613c5286828701613762565b92509250509250925092565b6000806000806000806000806000806101208b8d031215613c7e57600080fd5b6000613c8c8d828e01613738565b9a505060208b013567ffffffffffffffff811115613ca957600080fd5b613cb58d828e016137ac565b9950506040613cc68d828e01613738565b98505060608b013567ffffffffffffffff811115613ce357600080fd5b613cef8d828e01613762565b97509750506080613d028d828e01613985565b95505060a0613d138d828e0161374d565b94505060c0613d248d828e0161395b565b93505060e0613d358d828e01613738565b925050610100613d478d828e0161395b565b9150509295989b9194979a5092959850565b60008060208385031215613d6c57600080fd5b600083013567ffffffffffffffff811115613d8657600080fd5b613d92858286016137ca565b92509250509250929050565b600060208284031215613db057600080fd5b6000613dbe8482850161385e565b91505092915050565b600060208284031215613dd957600080fd5b6000613de784828501613888565b91505092915050565b60008060408385031215613e0357600080fd5b6000613e1185828601613873565b9250506020613e2285828601613873565b9150509250929050565b600060208284031215613e3e57600080fd5b6000613e4c8482850161389d565b91505092915050565b600060208284031215613e6757600080fd5b6000613e75848285016138b2565b91505092915050565b60008060208385031215613e9157600080fd5b600083013567ffffffffffffffff811115613eab57600080fd5b613eb7858286016138c7565b92509250509250929050565b600080600080600080600080600060e08a8c031215613ee157600080fd5b60008a013567ffffffffffffffff811115613efb57600080fd5b613f078c828d016138c7565b995099505060208a013567ffffffffffffffff811115613f2657600080fd5b613f328c828d016138c7565b97509750506040613f458c828d0161395b565b9550506060613f568c828d0161395b565b9450506080613f678c828d0161395b565b93505060a0613f788c828d01613738565b92505060c0613f898c828d0161374d565b9150509295985092959850929598565b60008060208385031215613fac57600080fd5b600083013567ffffffffffffffff811115613fc657600080fd5b613fd285828601613911565b92509250509250929050565b600080600080600060608688031215613ff657600080fd5b600086013567ffffffffffffffff81111561401057600080fd5b61401c88828901613911565b9550955050602086013567ffffffffffffffff81111561403b57600080fd5b61404788828901613911565b9350935050604061405a8882890161395b565b9150509295509295909350565b60006020828403121561407957600080fd5b60006140878482850161395b565b91505092915050565b6000602082840312156140a257600080fd5b60006140b084828501613970565b91505092915050565b60006140c58383614142565b60208301905092915050565b60006140dd8383614324565b60208301905092915050565b60006140f58383614342565b60208301905092915050565b600061410d83836143f6565b905092915050565b61411e81615775565b82525050565b61412d81615775565b82525050565b61413c816156bd565b82525050565b61414b816156ab565b82525050565b61415a816156ab565b82525050565b614169816156ab565b82525050565b61418061417b826156ab565b6158e5565b82525050565b6000614191826154ee565b61419b818561554c565b93506141a6836154be565b8060005b838110156141d75781516141be88826140b9565b97506141c983615525565b9250506001810190506141aa565b5085935050505092915050565b60006141ef826154f9565b6141f9818561555d565b9350614204836154ce565b8060005b8381101561423557815161421c88826140d1565b975061422783615532565b925050600181019050614208565b5085935050505092915050565b600061424d826154f9565b614257818561556e565b9350614262836154ce565b8060005b8381101561429357815161427a88826140e9565b975061428583615532565b925050600181019050614266565b5085935050505092915050565b60006142ab82615504565b6142b5818561557f565b9350836020820285016142c7856154de565b8060005b8581101561430357848403895281516142e48582614101565b94506142ef8361553f565b925060208a019950506001810190506142cb565b50829750879550505050505092915050565b61431e816156cf565b82525050565b61432d816156db565b82525050565b61433c816156db565b82525050565b61434b816156db565b82525050565b61436261435d826156db565b6158f7565b82525050565b614371816156e5565b82525050565b600061438383856155a1565b93506143908385846157fb565b61439983615a00565b840190509392505050565b60006143b083856155b2565b93506143bd8385846157fb565b6143c683615a00565b840190509392505050565b60006143dd83856155c3565b93506143ea8385846157fb565b82840190509392505050565b60006144018261550f565b61440b8185615590565b935061441b81856020860161580a565b61442481615a00565b840191505092915050565b600061443a8261550f565b61444481856155a1565b935061445481856020860161580a565b61445d81615a00565b840191505092915050565b61447181615787565b82525050565b61448081615787565b82525050565b61448f81615799565b82525050565b61449e816157b3565b82525050565b60006144b083856155ce565b93506144bd8385846157fb565b6144c683615a00565b840190509392505050565b60006144dd83856155df565b93506144ea8385846157fb565b6144f383615a00565b840190509392505050565b60006145098261551a565b61451381856155ce565b935061452381856020860161580a565b61452c81615a00565b840191505092915050565b60006145446014836155ce565b91507f434f4d4d495420414c52454144592045584953540000000000000000000000006000830152602082019050919050565b60006145846009836155ce565b91507f4e4f20434f4d4d495400000000000000000000000000000000000000000000006000830152602082019050919050565b60006145c4601a836155ce565b91507f4e4f545f4d4545545f4d494e494d554d5f475541524449414e530000000000006000830152602082019050919050565b60006146046013836155ce565b91507f494e495449414c495a45445f414c5245414459000000000000000000000000006000830152602082019050919050565b60006146446010836155ce565b91507f554e45585045435445442050524f4f46000000000000000000000000000000006000830152602082019050919050565b6000614684601d836155ce565b91507f5574696c733a20496e76616c69642066756e6374696f6e5072656669780000006000830152602082019050919050565b60006146c46017836155ce565b91507f434f4d4d495420414c52454144592052455645414c45440000000000000000006000830152602082019050919050565b6000614704603a836155ce565b91507f416464726573733a20756e61626c6520746f2073656e642076616c75652c207260008301527f6563697069656e74206d617920686176652072657665727465640000000000006020830152604082019050919050565b600061476a601d836155ce565b91507f416464726573733a20696e73756666696369656e742062616c616e63650000006000830152602082019050919050565b60006147aa6012836155ce565b91507f6e6f7420656e6f7567682062616c616e636500000000000000000000000000006000830152602082019050919050565b60006147ea6028836155ce565b91507f50726f766964656420636f756e746572206d757374206265206772656174657260008301527f206f722073616d650000000000000000000000000000000000000000000000006020830152604082019050919050565b6000614850601d836155ce565b91507f526563656976653a2045787465726e616c2063616c6c206661696c65640000006000830152602082019050919050565b6000614890602f836155ce565b91507f50726f766964656420636f756e746572206d757374206e6f74206265206d6f7260008301527f65207468616e20353020737465707300000000000000000000000000000000006020830152604082019050919050565b60006148f6600e836155ce565b91507f6d757374206265206d65746174780000000000000000000000000000000000006000830152602082019050919050565b60006149366029836155ce565b91507f4e4f545f46524f4d5f57414c4c45545f4f525f4f574e45525f4f525f57414c4c60008301527f45545f4c4f434b454400000000000000000000000000000000000000000000006020830152604082019050919050565b600061499c6015836155ce565b91507f4e4f5420454e4f55474820544f205041592046454500000000000000000000006000830152602082019050919050565b60006149dc6022836155ce565b91507f4d616b655472616e736665723a2045787465726e616c2063616c6c206661696c60008301527f65640000000000000000000000000000000000000000000000000000000000006020830152604082019050919050565b6000614a426011836155ce565b91507f436f6d6d697420697320746f6f206f6c640000000000000000000000000000006000830152602082019050919050565b6000614a826015836155ce565b91507f6f766572207769746864726177616c206c696d697400000000000000000000006000830152602082019050919050565b6000614ac2600e836155ce565b91507f756e6b6e6f776e206d6574686f640000000000000000000000000000000000006000830152602082019050919050565b6000614b026000836155c3565b9150600082019050919050565b6000614b1c6017836155ce565b91507f446174616861736820646f6573206e6f74206d617463680000000000000000006000830152602082019050919050565b604082016000820151614b656000850182614142565b506020820151614b786020850182614bbb565b50505050565b604082016000820151614b946000850182614c06565b506020820151614ba76020850182614477565b50505050565b8082525050565b8082525050565b614bc48161574e565b82525050565b614bd38161574e565b82525050565b614be28161574e565b82525050565b614bf1816157e9565b82525050565b614c0081615768565b82525050565b614c0f81615768565b82525050565b6000614c21828561416f565b601482019150614c318284614351565b6020820191508190509392505050565b6000614c4d8284614351565b60208201915081905092915050565b6000614c698284866143d1565b91508190509392505050565b6000614c8082614af5565b9150819050919050565b6000602082019050614c9f6000830184614151565b92915050565b6000604082019050614cba6000830185614115565b614cc76020830184614bca565b9392505050565b600060a082019050614ce36000830189614151565b614cf06020830188614151565b614cfd6040830187614bca565b614d0a6060830186614bca565b8181036080830152614d1d818486614377565b9050979650505050505050565b60006101a082019050614d40600083018f614151565b614d4d602083018e614315565b614d5a604083018d614bf7565b614d67606083018c614bca565b614d74608083018b614133565b614d8160a083018a614bca565b614d8e60c0830189614bca565b614d9b60e0830188614bca565b818103610100830152614dae81876144fe565b9050614dbe610120830186614b4f565b614dcc610160830185614151565b614dda610180830184614bca565b9d9c50505050505050505050505050565b6000604082019050614e006000830185614151565b614e0d6020830184614bca565b9392505050565b60006020820190508181036000830152614e2e8184614186565b905092915050565b60006020820190508181036000830152614e508184614242565b905092915050565b60006020820190508181036000830152614e7281846141e4565b905092915050565b60006020820190508181036000830152614e9481846142a0565b905092915050565b6000602082019050614eb16000830184614315565b92915050565b6000602082019050614ecc6000830184614368565b92915050565b60006060820190508181036000830152614eed818688614377565b9050614efc6020830185614315565b8181036040830152614f0e818461442f565b905095945050505050565b60006040820190508181036000830152614f33818561442f565b9050614f426020830184614486565b9392505050565b60006060820190508181036000830152614f648187896144a4565b90508181036020830152614f798185876144a4565b9050614f886040830184614495565b9695505050505050565b60006020820190508181036000830152614fac81846144fe565b905092915050565b60006020820190508181036000830152614fcd81614537565b9050919050565b60006020820190508181036000830152614fed81614577565b9050919050565b6000602082019050818103600083015261500d816145b7565b9050919050565b6000602082019050818103600083015261502d816145f7565b9050919050565b6000602082019050818103600083015261504d81614637565b9050919050565b6000602082019050818103600083015261506d81614677565b9050919050565b6000602082019050818103600083015261508d816146b7565b9050919050565b600060208201905081810360008301526150ad816146f7565b9050919050565b600060208201905081810360008301526150cd8161475d565b9050919050565b600060208201905081810360008301526150ed8161479d565b9050919050565b6000602082019050818103600083015261510d816147dd565b9050919050565b6000602082019050818103600083015261512d81614843565b9050919050565b6000602082019050818103600083015261514d81614883565b9050919050565b6000602082019050818103600083015261516d816148e9565b9050919050565b6000602082019050818103600083015261518d81614929565b9050919050565b600060208201905081810360008301526151ad8161498f565b9050919050565b600060208201905081810360008301526151cd816149cf565b9050919050565b600060208201905081810360008301526151ed81614a35565b9050919050565b6000602082019050818103600083015261520d81614a75565b9050919050565b6000602082019050818103600083015261522d81614ab5565b9050919050565b6000602082019050818103600083015261524d81614b0f565b9050919050565b60006020820190506152696000830184614bad565b92915050565b60006040820190506152846000830185614bad565b6152916020830184614160565b9392505050565b60006080820190506152ad6000830189614bad565b81810360208301526152c08187896144d1565b905081810360408301526152d58185876144d1565b90506152e46060830184614bd9565b979650505050505050565b600061012082019050615305600083018d614bb4565b8181036020830152615318818b8d6143a4565b9050818103604083015261532d81898b6143a4565b905061533c6060830188614bd9565b6153496080830187614bd9565b61535660a0830186614bd9565b61536360c0830185614124565b61537060e0830184614b7e565b9b9a5050505050505050505050565b60006020820190506153946000830184614bca565b92915050565b60006040820190506153af6000830185614be8565b6153bc6020830184614333565b9392505050565b60006040820190506153d86000830185614bf7565b6153e56020830184614468565b9392505050565b6000808335600160200384360303811261540557600080fd5b80840192508235915067ffffffffffffffff82111561542357600080fd5b60208301925060018202360383131561543b57600080fd5b509250929050565b6000808335600160200384360303811261545c57600080fd5b80840192508235915067ffffffffffffffff82111561547a57600080fd5b60208301925060018202360383131561549257600080fd5b509250929050565b6000823560016060038336030381126154b257600080fd5b80830191505092915050565b6000819050602082019050919050565b6000819050602082019050919050565b6000819050602082019050919050565b600081519050919050565b600081519050919050565b600081519050919050565b600081519050919050565b600081519050919050565b6000602082019050919050565b6000602082019050919050565b6000602082019050919050565b600082825260208201905092915050565b600082825260208201905092915050565b600082825260208201905092915050565b600082825260208201905092915050565b600082825260208201905092915050565b600082825260208201905092915050565b600082825260208201905092915050565b600081905092915050565b600082825260208201905092915050565b600082825260208201905092915050565b60006155fb8261574e565b91506156068361574e565b9250827fffffffffffffffffffffffffffffffffffffffffffffffffffffffffffffffff0382111561563b5761563a615944565b5b828201905092915050565b60006156518261574e565b915061565c8361574e565b92508261566c5761566b615973565b5b828204905092915050565b60006156828261574e565b915061568d8361574e565b9250828210156156a05761569f615944565b5b828203905092915050565b60006156b68261572e565b9050919050565b60006156c88261572e565b9050919050565b60008115159050919050565b6000819050919050565b60007fffffffff0000000000000000000000000000000000000000000000000000000082169050919050565b600081905061571f82615a2b565b919050565b6000819050919050565b600073ffffffffffffffffffffffffffffffffffffffff82169050919050565b6000819050919050565b600063ffffffff82169050919050565b600060ff82169050919050565b6000615780826157c5565b9050919050565b600061579282615711565b9050919050565b60006157ac6157a783615724565b615a11565b9050919050565b60006157be8261574e565b9050919050565b60006157d0826157d7565b9050919050565b60006157e28261572e565b9050919050565b60006157f482615768565b9050919050565b82818337600083830152505050565b60005b8381101561582857808201518184015260208101905061580d565b83811115615837576000848401525b50505050565b6000600282049050600182168061585557607f821691505b60208210811415615869576158686159d1565b5b50919050565b600061587a8261574e565b91507fffffffffffffffffffffffffffffffffffffffffffffffffffffffffffffffff8214156158ad576158ac615944565b5b600182019050919050565b60006158c382615758565b915063ffffffff8214156158da576158d9615944565b5b600182019050919050565b60006158f082615901565b9050919050565b6000819050919050565b600061590c82615a1e565b9050919050565b600061591e8261574e565b91506159298361574e565b92508261593957615938615973565b5b828206905092915050565b7f4e487b7100000000000000000000000000000000000000000000000000000000600052601160045260246000fd5b7f4e487b7100000000000000000000000000000000000000000000000000000000600052601260045260246000fd5b7f4e487b7100000000000000000000000000000000000000000000000000000000600052602160045260246000fd5b7f4e487b7100000000000000000000000000000000000000000000000000000000600052602260045260246000fd5b6000601f19601f8301169050919050565b60008160001b9050919050565b60008160601b9050919050565b60058110615a3c57615a3b6159a2565b5b50565b615a48816156ab565b8114615a5357600080fd5b50565b615a5f816156bd565b8114615a6a57600080fd5b50565b615a76816156cf565b8114615a8157600080fd5b50565b615a8d816156db565b8114615a9857600080fd5b50565b615aa4816156e5565b8114615aaf57600080fd5b50565b615abb8161574e565b8114615ac657600080fd5b50565b615ad281615758565b8114615add57600080fd5b50565b615ae981615768565b8114615af457600080fd5b5056fea2646970667358221220ee13fa91ab28cd2e358d1fbd8d7596c4ad4d2d5923723c7dd080e772120a847564736f6c63430008000033",
  "immutableReferences": {},
  "source": "// SPDX-License-Identifier: GPL-3.0-only\n\npragma solidity >=0.7.6;\npragma experimental ABIEncoderV2;\n\nimport \"@openzeppelin/contracts/token/ERC721/IERC721Receiver.sol\";\nimport \"@openzeppelin/contracts/token/ERC721/IERC721.sol\";\nimport \"@openzeppelin/contracts/token/ERC1155/IERC1155Receiver.sol\";\nimport \"@openzeppelin/contracts/token/ERC1155/IERC1155.sol\";\nimport \"@openzeppelin/contracts/token/ERC20/IERC20.sol\";\nimport \"@openzeppelin/contracts/utils/Address.sol\";\n\nimport \"./core/wallet_data.sol\";\nimport \"./features/guardians.sol\";\nimport \"./features/daily_limit.sol\";\nimport \"./features/recovery.sol\";\nimport \"./features/metatx.sol\";\nimport \"./features/name_service.sol\";\n\ncontract TOTPWallet is IERC721Receiver, IERC1155Receiver {\n\n    using Address for address payable;\n    using Guardians for Core.Wallet;\n    using DailyLimit for Core.Wallet;\n    using Recovery for Core.Wallet;\n    using MetaTx for Core.Wallet;\n    using NameService for Core.Wallet;\n\n    // DATA LAYOUT - ALWAYS ADD NEW VAR TO LAST\n\n    address masterCopy;\n    Core.Wallet public wallet;\n    bool internal isImplementationContract;\n\n\n    // END OF DATA LAYOUT\n    struct Call {\n        address to;\n        uint256 value;\n        bytes data;\n    }\n\n    event DebugEvent(bytes16 data);\n    event DebugEvent32(bytes32 data);\n    event DebugEventN(uint32 data);\n    event DebugEventA(address data);    \n    event DebugEvent256(uint256 data);\n    event WalletTransfer(address to, uint amount);\n    event Deposit(address indexed sender, uint value);\n    event WalletUpgraded(address newImpl);\n    event TransactionExecuted(bool indexed success, bytes returnData, bytes32 signedHash);\n    event Invoked(address indexed target, uint indexed value, bytes data, bool success, bytes returnData);\n\n    constructor() {\n        isImplementationContract = true;\n    }\n\n    modifier disableInImplementationContract\n    {\n        require(!isImplementationContract, \"DISALLOWED_ON_IMPLEMENTATION_CONTRACT\");\n        _;\n    }\n\n    // keep methods <= 8 parameters of get stack to deep\n    function initialize(\n        address              resolver_,\n        string[2]   calldata domain_, // empty means no registration\n        address             owner_, \n        bytes32[] calldata    rootHash_, \n        uint8               merkelHeight_, \n        address payable     drainAddr_, \n        uint                dailyLimit_,\n        address             feeRecipient,\n        uint                feeAmount                \n        ) external \n        // disableInImplementationContract()\n    {\n        wallet.resolver = resolver_;\n\n        //emit DebugEvent256(address(this).balance);\n        require(wallet.owner == address(0), \"INITIALIZED_ALREADY\");\n        require(address(this).balance >= feeAmount, \"NOT ENOUGH TO PAY FEE\");\n\n        wallet.owner = owner_;\n        for (uint32 i = 0; i < rootHash_.length; i++) {\n             wallet.rootHash.push(rootHash_[i]);\n        }        \n        wallet.merkelHeight = merkelHeight_;\n        wallet.drainAddr = drainAddr_;\n        wallet.dailyLimit = dailyLimit_;\n\n        // STACK TOO DEEP\n        if(bytes(domain_[0]).length > 0) {\n            this.registerENS(domain_[0], domain_[1], 60 * 60 * 24 * 365);\n        }\n\n        if (feeRecipient != address(0)) {\n            payable(feeRecipient).sendValue(feeAmount);\n        }        \n    }   \n\n    function registerENS(string calldata subdomain, string calldata domain, uint duration) external onlyFromWalletOrOwnerWhenUnlocked() {\n        wallet.registerENS(subdomain, domain, duration);\n    }\n\n    modifier onlyModule() {\n        require(msg.sender == address(this));\n        _;        \n    }\n\n    modifier onlyFromWalletOrOwnerWhenUnlocked()\n    {\n        require(\n            msg.sender == address(this) ||\n            (msg.sender == wallet.owner && !wallet.locked),\n             \"NOT_FROM_WALLET_OR_OWNER_OR_WALLET_LOCKED\"\n        );\n        _;\n    }\n\n    modifier onlySelf() {\n        require(msg.sender == address(this), \"must be metatx\");\n        _;\n    }\n\n    // confirmMaterial contains OTP + intermediatory hashes + sides\n    modifier onlyValidTOTP(bytes32[] memory confirmMaterial) \n    {\n        bytes32 reduced = Recovery._reduceConfirmMaterial(confirmMaterial);\n        uint32 counterProvided = Recovery._deriveChildTreeIdx(wallet.merkelHeight, confirmMaterial[confirmMaterial.length-1]);\n        require(counterProvided >= wallet.counter, \"Provided counter must be greater or same\");\n\n        // Google Authenticator doesn't allow custom counter or change counter back; so we must allow room to fudge\n        // allow some room if the counters were skipped at some point\n        require(counterProvided - wallet.counter  < 50, \"Provided counter must not be more than 50 steps\");\n\n        bool foundMatch = false;\n        for (uint32 i = 0; i < wallet.rootHash.length; i++) {\n            if(reduced==wallet.rootHash[i]) {\n                foundMatch = true;\n            }\n        }\n        require(foundMatch, \"UNEXPECTED PROOF\");\n        _;\n    }\n\n    function getRequiredSignatures(bytes calldata _data) public view returns (uint8, Core.OwnerSignature) {\n        bytes4 methodId = functionPrefix(_data);\n\n        if(methodId == TOTPWallet.makeTransfer.selector ||\n            methodId == TOTPWallet.multiCall.selector ||\n            methodId == TOTPWallet.addGuardian.selector ||\n            methodId == TOTPWallet.revokeGuardian.selector||\n            methodId == TOTPWallet.upgradeMasterCopy.selector ||\n            methodId == TOTPWallet.setDailyLimit.selector ||\n            methodId == TOTPWallet.setDrainAddress.selector ||\n            methodId == TOTPWallet.setHashStorageId.selector) {\n            return (1, Core.OwnerSignature.Required);\n        }\n\n        if(methodId == TOTPWallet.startRecoverGuardianOnly.selector) {\n            require(wallet.guardians.length >= 2, \"NOT_MEET_MINIMUM_GUARDIANS\");\n            uint requiredSignatures = MetaTx.ceil(wallet.guardians.length, 2);\n            return (uint8(requiredSignatures), Core.OwnerSignature.Disallowed);            \n        }\n\n        // 1 of 1 = 0 sig\n        // 2 of 2 = 1 sig + HOTP\n        // 2 of 3 = 1 sig + HOTP\n        if(methodId == TOTPWallet.startRecoverCommit.selector) {\n            uint requiredSignatures = MetaTx.ceil(wallet.guardians.length, 2);\n            return (uint8(requiredSignatures), Core.OwnerSignature.Disallowed);            \n        }\n        if(methodId == TOTPWallet.startRecoveryReveal.selector) {\n            return (0, Core.OwnerSignature.Disallowed);            \n        }\n        \n        revert(\"unknown method\");\n    }    \n\n    function executeMetaTx(\n            bytes   calldata data,\n            bytes   calldata signatures, \n            uint256 nonce,\n            uint256 gasPrice,\n            uint256 gasLimit,\n            address /*refundToken*/,\n            address payable refundAddress            \n        ) external \n    {\n        uint gasLeft = gasleft();        \n        Core.SignatureRequirement memory sigRequirement;        \n        (sigRequirement.requiredSignatures, sigRequirement.ownerSignatureRequirement) = getRequiredSignatures(data);        \n\n        MetaTx.validateTx(wallet, data, signatures, nonce, gasPrice, gasLimit, refundAddress, sigRequirement);\n\n        bool success;\n        bytes memory returnData;\n        (success, returnData) = address(this).call(data);\n\n        if(gasPrice > 0 && success && refundAddress != address(0x0)) {\n            uint gasUsed = gasLeft - gasleft() + 70000; //35k overhead\n            refundAddress.transfer(gasUsed);\n        }\n        emit TransactionExecuted(success, returnData, 0x0);        \n    }\n\n    function multiCall(Call[] calldata _transactions) external onlyFromWalletOrOwnerWhenUnlocked() returns (bytes[] memory) {\n        bytes[] memory results = new bytes[](_transactions.length);\n        for(uint i = 0; i < _transactions.length; i++) {\n            results[i] = invoke(_transactions[i].to, _transactions[i].value, _transactions[i].data);\n        }\n        return results;\n    }\n\n    function makeTransfer(address payable to, uint amount) external onlyFromWalletOrOwnerWhenUnlocked() \n    {\n        require(wallet.isUnderLimit(amount), \"over withdrawal limit\");\n        require(address(this).balance >= amount, \"not enough balance\");  \n\n        wallet.spentToday += amount;\n        (bool success,) = to.call{value: amount, gas: 100000}(\"\");\n        require(success, \"MakeTransfer: External call failed\");\n        emit WalletTransfer(to, amount);             \n    }\n\n    function getOwner()  public\n        view\n        returns (address) \n    {\n        return wallet.owner;  \n    }\n\n    function getCounter()  public\n        view\n        returns (uint) \n    {\n        return wallet.counter;\n    }\n\n    function setHashStorageId(string calldata id) external  onlyFromWalletOrOwnerWhenUnlocked()  {\n        wallet.hashStorageID = id;\n    }\n\n    function getHashStorageId() public view  returns (string memory){\n        return wallet.hashStorageID;\n    }\n    \n    function getRootHashes()\n         public\n         view\n         returns (bytes32[] memory )\n     {\n         return wallet.rootHash;\n     }\n\n    function setDrainAddress(address payable addr) external onlyFromWalletOrOwnerWhenUnlocked() {\n        wallet.drainAddr = addr;\n    }\n\n    function setDailyLimit(uint amount) external onlyFromWalletOrOwnerWhenUnlocked() {\n        wallet.dailyLimit = amount;\n    }\n    //\n    // Guardians functions\n    //\n    function addGuardian(address guardian)\n        external\n        onlyFromWalletOrOwnerWhenUnlocked()\n    {\n        wallet.addGuardian(guardian);\n    }\n\n    function revokeGuardian(address guardian)\n        external\n        onlyFromWalletOrOwnerWhenUnlocked()\n    {\n        wallet.revokeGuardian(guardian);\n    }\n\n    function isGuardian(address addr)\n         public\n         view\n         returns (bool)\n     {\n         return wallet.isGuardian(addr);\n     }\n\n     function getGuardians()\n         public\n         view\n         returns (address[] memory )\n     {\n         return wallet.guardians;\n     }\n\n    //\n    // Recovery functions\n    //\n    // In default setup with only HOTP setup, wallet recovery is done on its own.\n    // In a more secure setup with HOTP + guardians, HOTP is considered as 1 guardian.\n    //\n    // Relay/or other coordinating system will coordinate the signatures collections \n    // from guardian and submit along with the HOTP together. In rare case, HOTP may be ommitted\n    // when greater than 2 guardians can recover without HOTP.\n    function startRecoverGuardianOnly(address newOwner_) onlySelf() external {\n        // move into recovery state\n        wallet.startRecovery(newOwner_);\n    }\n\n    // recover with combination of commithash and signatures\n    function startRecoverCommit(bytes32 secretHash, bytes32 dataHash)  onlySelf() external {\n        require(wallet.commitHash[secretHash].blockNumber == 0, \"COMMIT ALREADY EXIST\");\n        wallet.commitHash[secretHash] = Core.CommitInfo(dataHash, block.number, false);\n    }\n\n    function startRecoveryReveal(address newOwner, bytes32[] calldata confirmMaterial)  onlySelf() onlyValidTOTP(confirmMaterial) external {\n        bytes32 secretHash = keccak256(abi.encodePacked(confirmMaterial[0]));\n        require(wallet.commitHash[secretHash].blockNumber != 0, \"NO COMMIT\");\n        require(wallet.commitHash[secretHash].revealed == false, \"COMMIT ALREADY REVEALED\");\n        require(block.number - wallet.commitHash[secretHash].blockNumber < 15, \"Commit is too old\");\n\n        bytes32 hash = keccak256(abi.encodePacked(newOwner, confirmMaterial[0]));\n        require(hash == wallet.commitHash[secretHash].dataHash, \"Datahash does not match\");\n\n        wallet.commitHash[secretHash].revealed = true;\n        wallet.owner = newOwner;\n        wallet.counter = wallet.counter + 1;\n    }\n\n    function isRecovering() external view returns (bool) {\n        return wallet.pendingRecovery.expiration != 0;\n    }\n\n    function cancelRecovery() external onlyFromWalletOrOwnerWhenUnlocked() {\n        wallet.pendingRecovery = Core.RecoveryInfo(address(0),0);\n    }\n\n    function getRecovery() external view returns (address,uint) {\n        return (wallet.pendingRecovery.newOwner, wallet.pendingRecovery.expiration);\n    }\n\n    function finalizeRecovery() external {\n        wallet.finalizeRecovery();\n    }\n\n    function upgradeMasterCopy(address newMasterCopy) external onlySelf() {\n        masterCopy = newMasterCopy;\n        emit WalletUpgraded(newMasterCopy);\n    }\n\n    function getMasterCopy()\n        public\n        view\n        returns (address)\n    {\n        return masterCopy;\n    }\n\n    //\n    // ERC1155 support\n    //\n    function onERC1155Received(\n        address,\n        address,\n        uint256,\n        uint256,\n        bytes calldata\n    ) external pure override returns (bytes4){\n        return this.onERC1155Received.selector;\n    }\n\n    function onERC1155BatchReceived(address operator, address from, uint256[] calldata ids, uint256[] calldata values, bytes calldata data) external view override returns (bytes4){\n        for (uint32 i = 0; i < ids.length; i++) {\n            this.onERC1155Received(operator, from, ids[i], values[i], data);\n        }\n        return this.onERC1155BatchReceived.selector;\n    }\n\n    function supportsInterface(bytes4 interfaceID) external override pure returns (bool) {\n        return interfaceID == this.supportsInterface.selector ||\n        interfaceID == this.onERC1155Received.selector ||\n        interfaceID == this.onERC721Received.selector;\n    }\n\n    function onERC721Received(\n        address,\n        address,\n        uint256,\n        bytes calldata\n    ) external pure override returns (bytes4){\n        return this.onERC721Received.selector;\n    }\n\n    //\n    // Utility functions\n    //\n\n    /**\n    * @notice Helper method to parse data and extract the method signature.\n    */\n    function functionPrefix(bytes memory _data) internal pure returns (bytes4 prefix) {\n        require(_data.length >= 4, \"Utils: Invalid functionPrefix\");\n        // solhint-disable-next-line no-inline-assembly\n        assembly {\n            prefix := mload(add(_data, 0x20))\n        }\n    }\n    /// @dev Fallback function allows to deposit ether.\n    receive() external payable {\n        if (msg.value > 0) {\n            if(msg.sender == wallet.drainAddr && msg.value == 1 ether) {\n                uint amount = address(this).balance;\n                (bool success,) = wallet.drainAddr.call{value: amount, gas: 100000}(\"\");\n                require(success, \"Receive: External call failed\");\n            }\n            emit Deposit(msg.sender, msg.value);\n        }\n    }\n\n    /**\n     * @notice Performs a generic transaction.\n     * @param _target The address for the transaction.\n     * @param _value The value of the transaction.\n     * @param _data The data of the transaction.\n     */\n    function invoke(address _target, uint _value, bytes calldata _data) internal returns (bytes memory _result) {\n        bool success;\n        (success, _result) = _target.call{value: _value}(_data);\n\n        emit Invoked(_target, _value, _data, success, _result);\n\n        if (!success) {\n            // solhint-disable-next-line no-inline-assembly\n            assembly {\n                returndatacopy(0, 0, returndatasize())\n                revert(0, returndatasize())\n            }\n        }\n    }\n}\n",
  "sourcePath": "/home/quoc/Projects/harmony-totp-pure/contracts/otp_wallet.sol",
  "compiler": {
    "name": "solc",
    "version": "0.8.0+commit.c7dfd78e.Emscripten.clang"
  },
  "schemaVersion": "3.3.4",
  "updatedAt": "2021-08-31T17:48:21.569Z",
  "networkType": "ethereum",
  "devdoc": {
    "kind": "dev",
    "methods": {
      "onERC1155BatchReceived(address,address,uint256[],uint256[],bytes)": {
        "details": "Handles the receipt of a multiple ERC1155 token types. This function is called at the end of a `safeBatchTransferFrom` after the balances have been updated. To accept the transfer(s), this must return `bytes4(keccak256(\"onERC1155BatchReceived(address,address,uint256[],uint256[],bytes)\"))` (i.e. 0xbc197c81, or its own function selector).",
        "params": {
          "data": "Additional data with no specified format",
          "from": "The address which previously owned the token",
          "ids": "An array containing ids of each token being transferred (order and length must match values array)",
          "operator": "The address which initiated the batch transfer (i.e. msg.sender)",
          "values": "An array containing amounts of each token being transferred (order and length must match ids array)"
        },
        "returns": {
          "_0": "`bytes4(keccak256(\"onERC1155BatchReceived(address,address,uint256[],uint256[],bytes)\"))` if transfer is allowed"
        }
      }
    },
    "version": 1
  },
  "userdoc": {
    "kind": "user",
    "methods": {},
    "version": 1
  }
}