{
  "contractName": "TOTPWallet",
  "abi": [
    {
      "inputs": [],
      "stateMutability": "nonpayable",
      "type": "constructor"
    },
    {
      "anonymous": false,
      "inputs": [
        {
          "indexed": false,
          "internalType": "bytes16",
          "name": "data",
          "type": "bytes16"
        }
      ],
      "name": "DebugEvent",
      "type": "event"
    },
    {
      "anonymous": false,
      "inputs": [
        {
          "indexed": false,
          "internalType": "uint256",
          "name": "data",
          "type": "uint256"
        }
      ],
      "name": "DebugEvent256",
      "type": "event"
    },
    {
      "anonymous": false,
      "inputs": [
        {
          "indexed": false,
          "internalType": "bytes32",
          "name": "data",
          "type": "bytes32"
        }
      ],
      "name": "DebugEvent32",
      "type": "event"
    },
    {
      "anonymous": false,
      "inputs": [
        {
          "indexed": false,
          "internalType": "address",
          "name": "data",
          "type": "address"
        }
      ],
      "name": "DebugEventA",
      "type": "event"
    },
    {
      "anonymous": false,
      "inputs": [
        {
          "indexed": false,
          "internalType": "uint32",
          "name": "data",
          "type": "uint32"
        }
      ],
      "name": "DebugEventN",
      "type": "event"
    },
    {
      "anonymous": false,
      "inputs": [
        {
          "indexed": true,
          "internalType": "address",
          "name": "sender",
          "type": "address"
        },
        {
          "indexed": false,
          "internalType": "uint256",
          "name": "value",
          "type": "uint256"
        }
      ],
      "name": "Deposit",
      "type": "event"
    },
    {
      "anonymous": false,
      "inputs": [
        {
          "indexed": true,
          "internalType": "address",
          "name": "target",
          "type": "address"
        },
        {
          "indexed": true,
          "internalType": "uint256",
          "name": "value",
          "type": "uint256"
        },
        {
          "indexed": false,
          "internalType": "bytes",
          "name": "data",
          "type": "bytes"
        },
        {
          "indexed": false,
          "internalType": "bool",
          "name": "success",
          "type": "bool"
        },
        {
          "indexed": false,
          "internalType": "bytes",
          "name": "returnData",
          "type": "bytes"
        }
      ],
      "name": "Invoked",
      "type": "event"
    },
    {
      "anonymous": false,
      "inputs": [
        {
          "indexed": true,
          "internalType": "bool",
          "name": "success",
          "type": "bool"
        },
        {
          "indexed": false,
          "internalType": "bytes",
          "name": "returnData",
          "type": "bytes"
        },
        {
          "indexed": false,
          "internalType": "bytes32",
          "name": "signedHash",
          "type": "bytes32"
        }
      ],
      "name": "TransactionExecuted",
      "type": "event"
    },
    {
      "anonymous": false,
      "inputs": [
        {
          "indexed": false,
          "internalType": "address",
          "name": "to",
          "type": "address"
        },
        {
          "indexed": false,
          "internalType": "uint256",
          "name": "amount",
          "type": "uint256"
        }
      ],
      "name": "WalletTransfer",
      "type": "event"
    },
    {
      "anonymous": false,
      "inputs": [
        {
          "indexed": false,
          "internalType": "address",
          "name": "newImpl",
          "type": "address"
        }
      ],
      "name": "WalletUpgraded",
      "type": "event"
    },
    {
      "inputs": [],
      "name": "userData",
      "outputs": [
        {
          "internalType": "string",
          "name": "password",
          "type": "string"
        },
        {
          "internalType": "string",
          "name": "email",
          "type": "string"
        },
        {
          "internalType": "string",
          "name": "countryOfResidence",
          "type": "string"
        }
      ],
      "stateMutability": "view",
      "type": "function"
    },
    {
      "inputs": [],
      "name": "wallet",
      "outputs": [
        {
          "internalType": "address",
          "name": "owner",
          "type": "address"
        },
        {
          "internalType": "bool",
          "name": "locked",
          "type": "bool"
        },
        {
          "internalType": "uint8",
          "name": "merkelHeight",
          "type": "uint8"
        },
        {
          "internalType": "uint256",
          "name": "counter",
          "type": "uint256"
        },
        {
          "internalType": "address payable",
          "name": "drainAddr",
          "type": "address"
        },
        {
          "internalType": "uint256",
          "name": "dailyLimit",
          "type": "uint256"
        },
        {
          "internalType": "uint256",
          "name": "lastDay",
          "type": "uint256"
        },
        {
          "internalType": "uint256",
          "name": "spentToday",
          "type": "uint256"
        },
        {
          "internalType": "string",
          "name": "hashStorageID",
          "type": "string"
        },
        {
          "components": [
            {
              "internalType": "address",
              "name": "newOwner",
              "type": "address"
            },
            {
              "internalType": "uint256",
              "name": "expiration",
              "type": "uint256"
            }
          ],
          "internalType": "struct Core.RecoveryInfo",
          "name": "pendingRecovery",
          "type": "tuple"
        },
        {
          "internalType": "address",
          "name": "resolver",
          "type": "address"
        }
      ],
      "stateMutability": "view",
      "type": "function"
    },
    {
      "stateMutability": "payable",
      "type": "receive"
    },
    {
      "inputs": [
        {
          "internalType": "address",
          "name": "resolver_",
          "type": "address"
        },
        {
          "internalType": "string[2]",
          "name": "domain_",
          "type": "string[2]"
        },
        {
          "internalType": "address",
          "name": "owner_",
          "type": "address"
        },
        {
          "internalType": "bytes32[]",
          "name": "rootHash_",
          "type": "bytes32[]"
        },
        {
          "internalType": "uint8",
          "name": "merkelHeight_",
          "type": "uint8"
        },
        {
          "internalType": "address payable",
          "name": "drainAddr_",
          "type": "address"
        },
        {
          "internalType": "uint256",
          "name": "dailyLimit_",
          "type": "uint256"
        },
        {
          "internalType": "address",
          "name": "feeRecipient",
          "type": "address"
        },
        {
          "internalType": "uint256",
          "name": "feeAmount",
          "type": "uint256"
        }
      ],
      "name": "initialize",
      "outputs": [],
      "stateMutability": "nonpayable",
      "type": "function"
    },
    {
      "inputs": [
        {
          "internalType": "string",
          "name": "password_",
          "type": "string"
        },
        {
          "internalType": "string",
          "name": "email_",
          "type": "string"
        },
        {
          "internalType": "string",
          "name": "countryOfResidence_",
          "type": "string"
        }
      ],
      "name": "initializeUserData",
      "outputs": [],
      "stateMutability": "nonpayable",
      "type": "function"
    },
    {
      "inputs": [
        {
          "internalType": "string",
          "name": "subdomain",
          "type": "string"
        },
        {
          "internalType": "string",
          "name": "domain",
          "type": "string"
        },
        {
          "internalType": "uint256",
          "name": "duration",
          "type": "uint256"
        }
      ],
      "name": "registerENS",
      "outputs": [],
      "stateMutability": "nonpayable",
      "type": "function"
    },
    {
      "inputs": [
        {
          "internalType": "bytes",
          "name": "_data",
          "type": "bytes"
        }
      ],
      "name": "getRequiredSignatures",
      "outputs": [
        {
          "internalType": "uint8",
          "name": "",
          "type": "uint8"
        },
        {
          "internalType": "enum Core.OwnerSignature",
          "name": "",
          "type": "uint8"
        }
      ],
      "stateMutability": "view",
      "type": "function"
    },
    {
      "inputs": [
        {
          "internalType": "bytes",
          "name": "data",
          "type": "bytes"
        },
        {
          "internalType": "bytes",
          "name": "signatures",
          "type": "bytes"
        },
        {
          "internalType": "uint256",
          "name": "nonce",
          "type": "uint256"
        },
        {
          "internalType": "uint256",
          "name": "gasPrice",
          "type": "uint256"
        },
        {
          "internalType": "uint256",
          "name": "gasLimit",
          "type": "uint256"
        },
        {
          "internalType": "address",
          "name": "",
          "type": "address"
        },
        {
          "internalType": "address payable",
          "name": "refundAddress",
          "type": "address"
        }
      ],
      "name": "executeMetaTx",
      "outputs": [],
      "stateMutability": "nonpayable",
      "type": "function"
    },
    {
      "inputs": [
        {
          "components": [
            {
              "internalType": "address",
              "name": "to",
              "type": "address"
            },
            {
              "internalType": "uint256",
              "name": "value",
              "type": "uint256"
            },
            {
              "internalType": "bytes",
              "name": "data",
              "type": "bytes"
            }
          ],
          "internalType": "struct TOTPWallet.Call[]",
          "name": "_transactions",
          "type": "tuple[]"
        }
      ],
      "name": "multiCall",
      "outputs": [
        {
          "internalType": "bytes[]",
          "name": "",
          "type": "bytes[]"
        }
      ],
      "stateMutability": "nonpayable",
      "type": "function"
    },
    {
      "inputs": [
        {
          "internalType": "address payable",
          "name": "to",
          "type": "address"
        },
        {
          "internalType": "uint256",
          "name": "amount",
          "type": "uint256"
        }
      ],
      "name": "makeTransfer",
      "outputs": [],
      "stateMutability": "nonpayable",
      "type": "function"
    },
    {
      "inputs": [],
      "name": "getOwner",
      "outputs": [
        {
          "internalType": "address",
          "name": "",
          "type": "address"
        }
      ],
      "stateMutability": "view",
      "type": "function"
    },
    {
      "inputs": [],
      "name": "getCounter",
      "outputs": [
        {
          "internalType": "uint256",
          "name": "",
          "type": "uint256"
        }
      ],
      "stateMutability": "view",
      "type": "function"
    },
    {
      "inputs": [
        {
          "internalType": "string",
          "name": "id",
          "type": "string"
        }
      ],
      "name": "setHashStorageId",
      "outputs": [],
      "stateMutability": "nonpayable",
      "type": "function"
    },
    {
      "inputs": [],
      "name": "getHashStorageId",
      "outputs": [
        {
          "internalType": "string",
          "name": "",
          "type": "string"
        }
      ],
      "stateMutability": "view",
      "type": "function"
    },
    {
      "inputs": [],
      "name": "getRootHashes",
      "outputs": [
        {
          "internalType": "bytes32[]",
          "name": "",
          "type": "bytes32[]"
        }
      ],
      "stateMutability": "view",
      "type": "function"
    },
    {
      "inputs": [
        {
          "internalType": "address payable",
          "name": "addr",
          "type": "address"
        }
      ],
      "name": "setDrainAddress",
      "outputs": [],
      "stateMutability": "nonpayable",
      "type": "function"
    },
    {
      "inputs": [
        {
          "internalType": "uint256",
          "name": "amount",
          "type": "uint256"
        }
      ],
      "name": "setDailyLimit",
      "outputs": [],
      "stateMutability": "nonpayable",
      "type": "function"
    },
    {
      "inputs": [
        {
          "internalType": "address",
          "name": "guardian",
          "type": "address"
        }
      ],
      "name": "addGuardian",
      "outputs": [],
      "stateMutability": "nonpayable",
      "type": "function"
    },
    {
      "inputs": [
        {
          "internalType": "address",
          "name": "guardian",
          "type": "address"
        }
      ],
      "name": "revokeGuardian",
      "outputs": [],
      "stateMutability": "nonpayable",
      "type": "function"
    },
    {
      "inputs": [
        {
          "internalType": "address",
          "name": "addr",
          "type": "address"
        }
      ],
      "name": "isGuardian",
      "outputs": [
        {
          "internalType": "bool",
          "name": "",
          "type": "bool"
        }
      ],
      "stateMutability": "view",
      "type": "function"
    },
    {
      "inputs": [],
      "name": "getGuardians",
      "outputs": [
        {
          "internalType": "address[]",
          "name": "",
          "type": "address[]"
        }
      ],
      "stateMutability": "view",
      "type": "function"
    },
    {
      "inputs": [
        {
          "internalType": "address",
          "name": "newOwner_",
          "type": "address"
        }
      ],
      "name": "startRecoverGuardianOnly",
      "outputs": [],
      "stateMutability": "nonpayable",
      "type": "function"
    },
    {
      "inputs": [
        {
          "internalType": "bytes32",
          "name": "commitHash",
          "type": "bytes32"
        }
      ],
      "name": "startRecoverCommit",
      "outputs": [],
      "stateMutability": "nonpayable",
      "type": "function"
    },
    {
      "inputs": [
        {
          "internalType": "address",
          "name": "newOwner",
          "type": "address"
        },
        {
          "internalType": "bytes32[]",
          "name": "confirmMaterial",
          "type": "bytes32[]"
        }
      ],
      "name": "startRecoveryReveal",
      "outputs": [],
      "stateMutability": "nonpayable",
      "type": "function"
    },
    {
      "inputs": [],
      "name": "isRecovering",
      "outputs": [
        {
          "internalType": "bool",
          "name": "",
          "type": "bool"
        }
      ],
      "stateMutability": "view",
      "type": "function"
    },
    {
      "inputs": [],
      "name": "cancelRecovery",
      "outputs": [],
      "stateMutability": "nonpayable",
      "type": "function"
    },
    {
      "inputs": [],
      "name": "getRecovery",
      "outputs": [
        {
          "internalType": "address",
          "name": "",
          "type": "address"
        },
        {
          "internalType": "uint256",
          "name": "",
          "type": "uint256"
        }
      ],
      "stateMutability": "view",
      "type": "function"
    },
    {
      "inputs": [],
      "name": "finalizeRecovery",
      "outputs": [],
      "stateMutability": "nonpayable",
      "type": "function"
    },
    {
      "inputs": [
        {
          "internalType": "address",
          "name": "newMasterCopy",
          "type": "address"
        }
      ],
      "name": "upgradeMasterCopy",
      "outputs": [],
      "stateMutability": "nonpayable",
      "type": "function"
    },
    {
      "inputs": [],
      "name": "getMasterCopy",
      "outputs": [
        {
          "internalType": "address",
          "name": "",
          "type": "address"
        }
      ],
      "stateMutability": "view",
      "type": "function"
    },
    {
      "inputs": [
        {
          "internalType": "address",
          "name": "",
          "type": "address"
        },
        {
          "internalType": "address",
          "name": "",
          "type": "address"
        },
        {
          "internalType": "uint256",
          "name": "",
          "type": "uint256"
        },
        {
          "internalType": "uint256",
          "name": "",
          "type": "uint256"
        },
        {
          "internalType": "bytes",
          "name": "",
          "type": "bytes"
        }
      ],
      "name": "onERC1155Received",
      "outputs": [
        {
          "internalType": "bytes4",
          "name": "",
          "type": "bytes4"
        }
      ],
      "stateMutability": "pure",
      "type": "function"
    },
    {
      "inputs": [
        {
          "internalType": "address",
          "name": "operator",
          "type": "address"
        },
        {
          "internalType": "address",
          "name": "from",
          "type": "address"
        },
        {
          "internalType": "uint256[]",
          "name": "ids",
          "type": "uint256[]"
        },
        {
          "internalType": "uint256[]",
          "name": "values",
          "type": "uint256[]"
        },
        {
          "internalType": "bytes",
          "name": "data",
          "type": "bytes"
        }
      ],
      "name": "onERC1155BatchReceived",
      "outputs": [
        {
          "internalType": "bytes4",
          "name": "",
          "type": "bytes4"
        }
      ],
      "stateMutability": "view",
      "type": "function"
    },
    {
      "inputs": [
        {
          "internalType": "bytes4",
          "name": "interfaceID",
          "type": "bytes4"
        }
      ],
      "name": "supportsInterface",
      "outputs": [
        {
          "internalType": "bool",
          "name": "",
          "type": "bool"
        }
      ],
      "stateMutability": "pure",
      "type": "function"
    },
    {
      "inputs": [
        {
          "internalType": "address",
          "name": "",
          "type": "address"
        },
        {
          "internalType": "address",
          "name": "",
          "type": "address"
        },
        {
          "internalType": "uint256",
          "name": "",
          "type": "uint256"
        },
        {
          "internalType": "bytes",
          "name": "",
          "type": "bytes"
        }
      ],
      "name": "onERC721Received",
      "outputs": [
        {
          "internalType": "bytes4",
          "name": "",
          "type": "bytes4"
        }
      ],
      "stateMutability": "pure",
      "type": "function"
    }
  ],
  "bytecode": "0x608060405234801561001057600080fd5b506001601360006101000a81548160ff021916908315150217905550615a82806200003c6000396000f3fe6080604052600436106101f25760003560e01c806391ac27881161010d578063bea6998f116100a0578063d50733221161006f578063d5073322146108a5578063de033715146108ce578063e2ccb305146108f7578063ef24c7361461090e578063f23a6e61146109375761039c565b8063bea6998f146107fb578063bfbe9beb14610828578063c832fe5f14610851578063cabd82c51461087c5761039c565b8063af648c3d116100dc578063af648c3d14610743578063b20d30a91461076c578063b6c3843214610795578063bc197c81146107be5761039c565b806391ac27881461069d5780639cb8332f146106c8578063a526d83b146106f1578063abea22cc1461071a5761039c565b80632f23a3ab1161018557806375a3f50d1161015457806375a3f50d146105e057806379d3d98c1461061e578063893d20e8146106475780638ada066e146106725761039c565b80632f23a3ab1461052d578063521eb27314610556578063693b60a21461058b578063706f7658146105b45761039c565b80630c68ba21116101c15780630c68ba211461044b578063150b7a02146104885780631f13938d146104c5578063248b1701146104f05761039c565b806301ffc9a7146103a157806304e80e90146103de5780630665f04b146104095780630ba234d6146104345761039c565b3661039c57600034111561039a57600160040160009054906101000a900473ffffffffffffffffffffffffffffffffffffffff1673ffffffffffffffffffffffffffffffffffffffff163373ffffffffffffffffffffffffffffffffffffffff161480156102675750670de0b6b3a764000034145b1561034b5760004790506000600160040160009054906101000a900473ffffffffffffffffffffffffffffffffffffffff1673ffffffffffffffffffffffffffffffffffffffff1682620186a0906040516102c190614c0d565b600060405180830381858888f193505050503d80600081146102ff576040519150601f19603f3d011682016040523d82523d6000602084013e610304565b606091505b5050905080610348576040517f08c379a000000000000000000000000000000000000000000000000000000000815260040161033f906150a9565b60405180910390fd5b50505b3373ffffffffffffffffffffffffffffffffffffffff167fe1fffcc4923d04b559f4d29a8bfc6cda04eb5b0d3c460751c2402c5c5cc9109c3460405161039191906152d4565b60405180910390a25b005b600080fd5b3480156103ad57600080fd5b506103c860048036038101906103c39190613e3b565b610974565b6040516103d59190614e25565b60405180910390f35b3480156103ea57600080fd5b506103f3610a63565b6040516104009190614c22565b60405180910390f35b34801561041557600080fd5b5061041e610a8c565b60405161042b9190614d9d565b60405180910390f35b34801561044057600080fd5b50610449610b1d565b005b34801561045757600080fd5b50610472600480360381019061046d91906139bc565b610c8a565b60405161047f9190614e25565b60405180910390f35b34801561049457600080fd5b506104af60048036038101906104aa9190613b16565b610d1f565b6040516104bc9190614e40565b60405180910390f35b3480156104d157600080fd5b506104da610d34565b6040516104e79190614f1b565b60405180910390f35b3480156104fc57600080fd5b5061051760048036038101906105129190613d7b565b610dc9565b6040516105249190614e03565b60405180910390f35b34801561053957600080fd5b50610554600480360381019061054f9190614091565b6110a9565b005b34801561056257600080fd5b5061056b611209565b6040516105829b9a99989796959493929190614cc2565b60405180910390f35b34801561059757600080fd5b506105b260048036038101906105ad9190613ed2565b6113bd565b005b3480156105c057600080fd5b506105c961164a565b6040516105d7929190614d74565b60405180910390f35b3480156105ec57600080fd5b5061060760048036038101906106029190613e8d565b611687565b604051610615929190615318565b60405180910390f35b34801561062a57600080fd5b5061064560048036038101906106409190613fa8565b611b2b565b005b34801561065357600080fd5b5061065c611c29565b6040516106699190614c22565b60405180910390f35b34801561067e57600080fd5b50610687611c56565b60405161069491906152d4565b60405180910390f35b3480156106a957600080fd5b506106b2611c63565b6040516106bf9190614e25565b60405180910390f35b3480156106d457600080fd5b506106ef60048036038101906106ea9190613de9565b611c76565b005b3480156106fd57600080fd5b50610718600480360381019061071391906139bc565b611d15565b005b34801561072657600080fd5b50610741600480360381019061073c9190613a0e565b611e69565b005b34801561074f57600080fd5b5061076a600480360381019061076591906139bc565b6120f0565b005b34801561077857600080fd5b50610793600480360381019061078e919061411a565b612244565b005b3480156107a157600080fd5b506107bc60048036038101906107b791906139e5565b612336565b005b3480156107ca57600080fd5b506107e560048036038101906107e09190613a4a565b612462565b6040516107f29190614e40565b60405180910390f35b34801561080757600080fd5b506108106125c3565b60405161081f93929190614f3d565b60405180910390f35b34801561083457600080fd5b5061084f600480360381019061084a9190613fed565b612773565b005b34801561085d57600080fd5b506108666127ba565b6040516108739190614de1565b60405180910390f35b34801561088857600080fd5b506108a3600480360381019061089e9190613c28565b612814565b005b3480156108b157600080fd5b506108cc60048036038101906108c79190613c80565b612d06565b005b3480156108da57600080fd5b506108f560048036038101906108f091906139bc565b61312f565b005b34801561090357600080fd5b5061090c613217565b005b34801561091a57600080fd5b50610935600480360381019061093091906139bc565b613283565b005b34801561094357600080fd5b5061095e60048036038101906109599190613b96565b613360565b60405161096b9190614e40565b60405180910390f35b60006301ffc9a760e01b7bffffffffffffffffffffffffffffffffffffffffffffffffffffffff1916827bffffffffffffffffffffffffffffffffffffffffffffffffffffffff19161480610a0d575063f23a6e6160e01b7bffffffffffffffffffffffffffffffffffffffffffffffffffffffff1916827bffffffffffffffffffffffffffffffffffffffffffffffffffffffff1916145b80610a5c575063150b7a0260e01b7bffffffffffffffffffffffffffffffffffffffffffffffffffffffff1916827bffffffffffffffffffffffffffffffffffffffffffffffffffffffff1916145b9050919050565b60008060009054906101000a900473ffffffffffffffffffffffffffffffffffffffff16905090565b60606001600501805480602002602001604051908101604052809291908181526020018280548015610b1357602002820191906000526020600020905b8160009054906101000a900473ffffffffffffffffffffffffffffffffffffffff1673ffffffffffffffffffffffffffffffffffffffff1681526020019060010190808311610ac9575b5050505050905090565b3073ffffffffffffffffffffffffffffffffffffffff163373ffffffffffffffffffffffffffffffffffffffff161480610bc35750600160000160009054906101000a900473ffffffffffffffffffffffffffffffffffffffff1673ffffffffffffffffffffffffffffffffffffffff163373ffffffffffffffffffffffffffffffffffffffff16148015610bc25750600160000160149054906101000a900460ff16155b5b610c02576040517f08c379a0000000000000000000000000000000000000000000000000000000008152600401610bf9906150e9565b60405180910390fd5b6040518060400160405280600073ffffffffffffffffffffffffffffffffffffffff16815260200160008152506001600b0160008201518160000160006101000a81548173ffffffffffffffffffffffffffffffffffffffff021916908373ffffffffffffffffffffffffffffffffffffffff16021790555060208201518160010155905050565b6000600173__Guardians_____________________________63121c95629091846040518363ffffffff1660e01b8152600401610cc89291906151c4565b60206040518083038186803b158015610ce057600080fd5b505af4158015610cf4573d6000803e3d6000fd5b505050506040513d601f19601f82011682018060405250810190610d189190613dc0565b9050919050565b600063150b7a0260e01b905095945050505050565b60606001600a018054610d4690615792565b80601f0160208091040260200160405190810160405280929190818152602001828054610d7290615792565b8015610dbf5780601f10610d9457610100808354040283529160200191610dbf565b820191906000526020600020905b815481529060010190602001808311610da257829003601f168201915b5050505050905090565b60603073ffffffffffffffffffffffffffffffffffffffff163373ffffffffffffffffffffffffffffffffffffffff161480610e715750600160000160009054906101000a900473ffffffffffffffffffffffffffffffffffffffff1673ffffffffffffffffffffffffffffffffffffffff163373ffffffffffffffffffffffffffffffffffffffff16148015610e705750600160000160149054906101000a900460ff16155b5b610eb0576040517f08c379a0000000000000000000000000000000000000000000000000000000008152600401610ea7906150e9565b60405180910390fd5b60008383905067ffffffffffffffff811115610ef5577f4e487b7100000000000000000000000000000000000000000000000000000000600052604160045260246000fd5b604051908082528060200260200182016040528015610f2857816020015b6060815260200190600190039081610f135790505b50905060005b8484905081101561109e57611047858583818110610f75577f4e487b7100000000000000000000000000000000000000000000000000000000600052603260045260246000fd5b9050602002810190610f8791906153ef565b6000016020810190610f9991906139bc565b868684818110610fd2577f4e487b7100000000000000000000000000000000000000000000000000000000600052603260045260246000fd5b9050602002810190610fe491906153ef565b60200135878785818110611021577f4e487b7100000000000000000000000000000000000000000000000000000000600052603260045260246000fd5b905060200281019061103391906153ef565b80604001906110429190615341565b613376565b828281518110611080577f4e487b7100000000000000000000000000000000000000000000000000000000600052603260045260246000fd5b60200260200101819052508080611096906157c4565b915050610f2e565b508091505092915050565b3073ffffffffffffffffffffffffffffffffffffffff163373ffffffffffffffffffffffffffffffffffffffff16148061114f5750600160000160009054906101000a900473ffffffffffffffffffffffffffffffffffffffff1673ffffffffffffffffffffffffffffffffffffffff163373ffffffffffffffffffffffffffffffffffffffff1614801561114e5750600160000160149054906101000a900460ff16155b5b61118e576040517f08c379a0000000000000000000000000000000000000000000000000000000008152600401611185906150e9565b60405180910390fd5b600173__NameService___________________________63145f7620909187878787876040518763ffffffff1660e01b81526004016111d2969594939291906151ed565b60006040518083038186803b1580156111ea57600080fd5b505af41580156111fe573d6000803e3d6000fd5b505050505050505050565b60018060000160009054906101000a900473ffffffffffffffffffffffffffffffffffffffff16908060000160149054906101000a900460ff16908060020160009054906101000a900460ff16908060030154908060040160009054906101000a900473ffffffffffffffffffffffffffffffffffffffff169080600701549080600801549080600901549080600a0180546112a490615792565b80601f01602080910402602001604051908101604052809291908181526020018280546112d090615792565b801561131d5780601f106112f25761010080835404028352916020019161131d565b820191906000526020600020905b81548152906001019060200180831161130057829003601f168201915b50505050509080600b016040518060400160405290816000820160009054906101000a900473ffffffffffffffffffffffffffffffffffffffff1673ffffffffffffffffffffffffffffffffffffffff1673ffffffffffffffffffffffffffffffffffffffff1681526020016001820154815250509080600e0160009054906101000a900473ffffffffffffffffffffffffffffffffffffffff1690508b565b60005a90506113ca613662565b6113d48b8b611687565b8260000183602001826004811115611415577f4e487b7100000000000000000000000000000000000000000000000000000000600052602160045260246000fd5b600481111561144d577f4e487b7100000000000000000000000000000000000000000000000000000000600052602160045260246000fd5b8152508260ff1660ff16815250505073__MetaTx________________________________631815d80160018d8d8d8d8d8d8d8c8b6040518b63ffffffff1660e01b81526004016114a69a99989796959493929190615244565b60006040518083038186803b1580156114be57600080fd5b505af41580156114d2573d6000803e3d6000fd5b50505050600060603073ffffffffffffffffffffffffffffffffffffffff168d8d604051611501929190614bf4565b6000604051808303816000865af19150503d806000811461153e576040519150601f19603f3d011682016040523d82523d6000602084013e611543565b606091505b5080925081935050506000881180156115595750815b80156115925750600073ffffffffffffffffffffffffffffffffffffffff168573ffffffffffffffffffffffffffffffffffffffff1614155b156115fe576000620111705a866115a991906155cc565b6115b39190615545565b90508573ffffffffffffffffffffffffffffffffffffffff166108fc829081150290604051600060405180830381858888f193505050501580156115fb573d6000803e3d6000fd5b50505b8115157f8e2386b9ce82e5e79311687a54408ad06fa06a338e2057cdcdfaf3a076743f1e826000604051611633929190614ea2565b60405180910390a250505050505050505050505050565b6000806001600b0160000160009054906101000a900473ffffffffffffffffffffffffffffffffffffffff166001600b0160010154915091509091565b60008060006116d985858080601f016020809104026020016040519081016040528093929190818152602001838380828437600081840152601f19601f8201169050808301925050505050505061345a565b905063abea22cc60e01b7bffffffffffffffffffffffffffffffffffffffffffffffffffffffff1916817bffffffffffffffffffffffffffffffffffffffffffffffffffffffff19161480611772575063248b170160e01b7bffffffffffffffffffffffffffffffffffffffffffffffffffffffff1916817bffffffffffffffffffffffffffffffffffffffffffffffffffffffff1916145b806117c1575063a526d83b60e01b7bffffffffffffffffffffffffffffffffffffffffffffffffffffffff1916817bffffffffffffffffffffffffffffffffffffffffffffffffffffffff1916145b80611810575063af648c3d60e01b7bffffffffffffffffffffffffffffffffffffffffffffffffffffffff1916817bffffffffffffffffffffffffffffffffffffffffffffffffffffffff1916145b8061185f575063de03371560e01b7bffffffffffffffffffffffffffffffffffffffffffffffffffffffff1916817bffffffffffffffffffffffffffffffffffffffffffffffffffffffff1916145b806118ae575063b20d30a960e01b7bffffffffffffffffffffffffffffffffffffffffffffffffffffffff1916817bffffffffffffffffffffffffffffffffffffffffffffffffffffffff1916145b806118fd575063b6c3843260e01b7bffffffffffffffffffffffffffffffffffffffffffffffffffffffff1916817bffffffffffffffffffffffffffffffffffffffffffffffffffffffff1916145b8061194c57506379d3d98c60e01b7bffffffffffffffffffffffffffffffffffffffffffffffffffffffff1916817bffffffffffffffffffffffffffffffffffffffffffffffffffffffff1916145b1561195e576001809250925050611b24565b63ef24c73660e01b7bffffffffffffffffffffffffffffffffffffffffffffffffffffffff1916817bffffffffffffffffffffffffffffffffffffffffffffffffffffffff19161415611a1c57600260016005018054905010156119f7576040517f08c379a00000000000000000000000000000000000000000000000000000000081526004016119ee90614fa9565b60405180910390fd5b6000611a0c60016005018054905060026134ad565b9050806003935093505050611b24565b639cb8332f60e01b7bffffffffffffffffffffffffffffffffffffffffffffffffffffffff1916817bffffffffffffffffffffffffffffffffffffffffffffffffffffffff19161415611a8e576000611a7e60016005018054905060026134ad565b9050806003935093505050611b24565b63cabd82c560e01b7bffffffffffffffffffffffffffffffffffffffffffffffffffffffff1916817bffffffffffffffffffffffffffffffffffffffffffffffffffffffff19161415611ae957600060039250925050611b24565b6040517f08c379a0000000000000000000000000000000000000000000000000000000008152600401611b1b90615189565b60405180910390fd5b9250929050565b3073ffffffffffffffffffffffffffffffffffffffff163373ffffffffffffffffffffffffffffffffffffffff161480611bd15750600160000160009054906101000a900473ffffffffffffffffffffffffffffffffffffffff1673ffffffffffffffffffffffffffffffffffffffff163373ffffffffffffffffffffffffffffffffffffffff16148015611bd05750600160000160149054906101000a900460ff16155b5b611c10576040517f08c379a0000000000000000000000000000000000000000000000000000000008152600401611c07906150e9565b60405180910390fd5b81816001600a019190611c249291906136b7565b505050565b6000600160000160009054906101000a900473ffffffffffffffffffffffffffffffffffffffff16905090565b6000600160030154905090565b6000806001600b01600101541415905090565b3073ffffffffffffffffffffffffffffffffffffffff163373ffffffffffffffffffffffffffffffffffffffff1614611ce4576040517f08c379a0000000000000000000000000000000000000000000000000000000008152600401611cdb906150c9565b60405180910390fd5b600180600d01600083815260200190815260200160002060006101000a81548160ff02191690831515021790555050565b3073ffffffffffffffffffffffffffffffffffffffff163373ffffffffffffffffffffffffffffffffffffffff161480611dbb5750600160000160009054906101000a900473ffffffffffffffffffffffffffffffffffffffff1673ffffffffffffffffffffffffffffffffffffffff163373ffffffffffffffffffffffffffffffffffffffff16148015611dba5750600160000160149054906101000a900460ff16155b5b611dfa576040517f08c379a0000000000000000000000000000000000000000000000000000000008152600401611df1906150e9565b60405180910390fd5b600173__Guardians_____________________________6397b9ce099091836040518363ffffffff1660e01b8152600401611e369291906151c4565b60006040518083038186803b158015611e4e57600080fd5b505af4158015611e62573d6000803e3d6000fd5b5050505050565b3073ffffffffffffffffffffffffffffffffffffffff163373ffffffffffffffffffffffffffffffffffffffff161480611f0f5750600160000160009054906101000a900473ffffffffffffffffffffffffffffffffffffffff1673ffffffffffffffffffffffffffffffffffffffff163373ffffffffffffffffffffffffffffffffffffffff16148015611f0e5750600160000160149054906101000a900460ff16155b5b611f4e576040517f08c379a0000000000000000000000000000000000000000000000000000000008152600401611f45906150e9565b60405180910390fd5b611f628160016134f290919063ffffffff16565b611fa1576040517f08c379a0000000000000000000000000000000000000000000000000000000008152600401611f9890615169565b60405180910390fd5b80471015611fe4576040517f08c379a0000000000000000000000000000000000000000000000000000000008152600401611fdb90615069565b60405180910390fd5b8060016009016000828254611ff99190615545565b9250508190555060008273ffffffffffffffffffffffffffffffffffffffff1682620186a09060405161202b90614c0d565b600060405180830381858888f193505050503d8060008114612069576040519150601f19603f3d011682016040523d82523d6000602084013e61206e565b606091505b50509050806120b2576040517f08c379a00000000000000000000000000000000000000000000000000000000081526004016120a990615149565b60405180910390fd5b7f688077ec2e4cf5b023188b3c964a1a6481e6ff3fd3d3af3971ae0bf2172f756583836040516120e3929190614c3d565b60405180910390a1505050565b3073ffffffffffffffffffffffffffffffffffffffff163373ffffffffffffffffffffffffffffffffffffffff1614806121965750600160000160009054906101000a900473ffffffffffffffffffffffffffffffffffffffff1673ffffffffffffffffffffffffffffffffffffffff163373ffffffffffffffffffffffffffffffffffffffff161480156121955750600160000160149054906101000a900460ff16155b5b6121d5576040517f08c379a00000000000000000000000000000000000000000000000000000000081526004016121cc906150e9565b60405180910390fd5b600173__Guardians_____________________________63e98ee0859091836040518363ffffffff1660e01b81526004016122119291906151c4565b60006040518083038186803b15801561222957600080fd5b505af415801561223d573d6000803e3d6000fd5b5050505050565b3073ffffffffffffffffffffffffffffffffffffffff163373ffffffffffffffffffffffffffffffffffffffff1614806122ea5750600160000160009054906101000a900473ffffffffffffffffffffffffffffffffffffffff1673ffffffffffffffffffffffffffffffffffffffff163373ffffffffffffffffffffffffffffffffffffffff161480156122e95750600160000160149054906101000a900460ff16155b5b612329576040517f08c379a0000000000000000000000000000000000000000000000000000000008152600401612320906150e9565b60405180910390fd5b8060016007018190555050565b3073ffffffffffffffffffffffffffffffffffffffff163373ffffffffffffffffffffffffffffffffffffffff1614806123dc5750600160000160009054906101000a900473ffffffffffffffffffffffffffffffffffffffff1673ffffffffffffffffffffffffffffffffffffffff163373ffffffffffffffffffffffffffffffffffffffff161480156123db5750600160000160149054906101000a900460ff16155b5b61241b576040517f08c379a0000000000000000000000000000000000000000000000000000000008152600401612412906150e9565b60405180910390fd5b80600160040160006101000a81548173ffffffffffffffffffffffffffffffffffffffff021916908373ffffffffffffffffffffffffffffffffffffffff16021790555050565b600080600090505b878790508163ffffffff1610156125ac573073ffffffffffffffffffffffffffffffffffffffff1663f23a6e618b8b8b8b8663ffffffff168181106124d8577f4e487b7100000000000000000000000000000000000000000000000000000000600052603260045260246000fd5b905060200201358a8a8763ffffffff1681811061251e577f4e487b7100000000000000000000000000000000000000000000000000000000600052603260045260246000fd5b9050602002013589896040518763ffffffff1660e01b815260040161254896959493929190614c66565b60206040518083038186803b15801561256057600080fd5b505afa158015612574573d6000803e3d6000fd5b505050506040513d601f19601f820116820180604052508101906125989190613e64565b5080806125a49061580d565b91505061246a565b5063bc197c8160e01b905098975050505050505050565b60108060000180546125d490615792565b80601f016020809104026020016040519081016040528092919081815260200182805461260090615792565b801561264d5780601f106126225761010080835404028352916020019161264d565b820191906000526020600020905b81548152906001019060200180831161263057829003601f168201915b50505050509080600101805461266290615792565b80601f016020809104026020016040519081016040528092919081815260200182805461268e90615792565b80156126db5780601f106126b0576101008083540402835291602001916126db565b820191906000526020600020905b8154815290600101906020018083116126be57829003601f168201915b5050505050908060020180546126f090615792565b80601f016020809104026020016040519081016040528092919081815260200182805461271c90615792565b80156127695780601f1061273e57610100808354040283529160200191612769565b820191906000526020600020905b81548152906001019060200180831161274c57829003601f168201915b5050505050905083565b8585601060000191906127879291906136b7565b5083836010600101919061279c9291906136b7565b508181601060020191906127b19291906136b7565b50505050505050565b60606001800180548060200260200160405190810160405280929190818152602001828054801561280a57602002820191906000526020600020905b8154815260200190600101908083116127f6575b5050505050905090565b3073ffffffffffffffffffffffffffffffffffffffff163373ffffffffffffffffffffffffffffffffffffffff1614612882576040517f08c379a0000000000000000000000000000000000000000000000000000000008152600401612879906150c9565b60405180910390fd5b818180806020026020016040519081016040528093929190818152602001838360200280828437600081840152601f19601f82011690508083019250505050505050600073__Recovery______________________________63a6659f26836040518263ffffffff1660e01b81526004016128fd9190614dbf565b60206040518083038186803b15801561291557600080fd5b505af4158015612929573d6000803e3d6000fd5b505050506040513d601f19601f8201168201806040525081019061294d9190613e12565b9050600073__Recovery______________________________63396c8e65600160020160009054906101000a900460ff16856001875161298d91906155cc565b815181106129c4577f4e487b7100000000000000000000000000000000000000000000000000000000600052603260045260246000fd5b60200260200101516040518363ffffffff1660e01b81526004016129e99291906152ef565b60206040518083038186803b158015612a0157600080fd5b505af4158015612a15573d6000803e3d6000fd5b505050506040513d601f19601f82011682018060405250810190612a399190614143565b90506001600301548163ffffffff161015612a89576040517f08c379a0000000000000000000000000000000000000000000000000000000008152600401612a8090615089565b60405180910390fd5b60326001600301548263ffffffff16612aa291906155cc565b10612ae2576040517f08c379a0000000000000000000000000000000000000000000000000000000008152600401612ad990615129565b60405180910390fd5b6000805b60018001805490508163ffffffff161015612b6757600180018163ffffffff1681548110612b3d577f4e487b7100000000000000000000000000000000000000000000000000000000600052603260045260246000fd5b9060005260206000200154841415612b5457600191505b8080612b5f9061580d565b915050612ae6565b5080612ba8576040517f08c379a0000000000000000000000000000000000000000000000000000000008152600401612b9f90614fe9565b60405180910390fd5b60008787876000818110612be5577f4e487b7100000000000000000000000000000000000000000000000000000000600052603260045260246000fd5b90506020020135604051602001612bfd929190614bc8565b6040516020818303038152906040528051906020012090506001600d01600082815260200190815260200160002060009054906101000a900460ff16612c78576040517f08c379a0000000000000000000000000000000000000000000000000000000008152600401612c6f90614f89565b60405180910390fd5b87600160000160006101000a81548173ffffffffffffffffffffffffffffffffffffffff021916908373ffffffffffffffffffffffffffffffffffffffff1602179055506001600d01600082815260200190815260200160002060006101000a81549060ff021916905560018060030154612cf39190615545565b6001600301819055505050505050505050565b896001600e0160006101000a81548173ffffffffffffffffffffffffffffffffffffffff021916908373ffffffffffffffffffffffffffffffffffffffff160217905550600073ffffffffffffffffffffffffffffffffffffffff16600160000160009054906101000a900473ffffffffffffffffffffffffffffffffffffffff1673ffffffffffffffffffffffffffffffffffffffff1614612dde576040517f08c379a0000000000000000000000000000000000000000000000000000000008152600401612dd590614fc9565b60405180910390fd5b80471015612e21576040517f08c379a0000000000000000000000000000000000000000000000000000000008152600401612e1890615109565b60405180910390fd5b87600160000160006101000a81548173ffffffffffffffffffffffffffffffffffffffff021916908373ffffffffffffffffffffffffffffffffffffffff16021790555060005b878790508163ffffffff161015612efc576001800188888363ffffffff16818110612ebc577f4e487b7100000000000000000000000000000000000000000000000000000000600052603260045260246000fd5b9050602002013590806001815401808255809150506001900390600052602060002001600090919091909150558080612ef49061580d565b915050612e68565b5084600160020160006101000a81548160ff021916908360ff16021790555083600160040160006101000a81548173ffffffffffffffffffffffffffffffffffffffff021916908373ffffffffffffffffffffffffffffffffffffffff16021790555082600160070181905550600089600060028110612fa5577f4e487b7100000000000000000000000000000000000000000000000000000000600052603260045260246000fd5b602002810190612fb59190615398565b905011156130c5573073ffffffffffffffffffffffffffffffffffffffff16632f23a3ab8a600060028110613013577f4e487b7100000000000000000000000000000000000000000000000000000000600052603260045260246000fd5b6020028101906130239190615398565b8c60016002811061305d577f4e487b7100000000000000000000000000000000000000000000000000000000600052603260045260246000fd5b60200281019061306d9190615398565b6301e133806040518663ffffffff1660e01b8152600401613092959493929190614ed2565b600060405180830381600087803b1580156130ac57600080fd5b505af11580156130c0573d6000803e3d6000fd5b505050505b600073ffffffffffffffffffffffffffffffffffffffff168273ffffffffffffffffffffffffffffffffffffffff161461312357613122818373ffffffffffffffffffffffffffffffffffffffff1661356e90919063ffffffff16565b5b50505050505050505050565b3073ffffffffffffffffffffffffffffffffffffffff163373ffffffffffffffffffffffffffffffffffffffff161461319d576040517f08c379a0000000000000000000000000000000000000000000000000000000008152600401613194906150c9565b60405180910390fd5b806000806101000a81548173ffffffffffffffffffffffffffffffffffffffff021916908373ffffffffffffffffffffffffffffffffffffffff1602179055507f8a5dcb0249bae905183e794960410c37563e6ab514b1add384425d153972118d8160405161320c9190614c22565b60405180910390a150565b600173__Recovery______________________________635fd7224790916040518263ffffffff1660e01b815260040161325191906151a9565b60006040518083038186803b15801561326957600080fd5b505af415801561327d573d6000803e3d6000fd5b50505050565b3073ffffffffffffffffffffffffffffffffffffffff163373ffffffffffffffffffffffffffffffffffffffff16146132f1576040517f08c379a00000000000000000000000000000000000000000000000000000000081526004016132e8906150c9565b60405180910390fd5b600173__Recovery______________________________636ffc1c629091836040518363ffffffff1660e01b815260040161332d9291906151c4565b60006040518083038186803b15801561334557600080fd5b505af4158015613359573d6000803e3d6000fd5b5050505050565b600063f23a6e6160e01b90509695505050505050565b606060008573ffffffffffffffffffffffffffffffffffffffff168585856040516133a2929190614bf4565b60006040518083038185875af1925050503d80600081146133df576040519150601f19603f3d011682016040523d82523d6000602084013e6133e4565b606091505b508093508192505050848673ffffffffffffffffffffffffffffffffffffffff167f79ff2e3e6b1a9fd5afa9ad7b27b6075a3f05484916a94f800548947efa77e83b8686858760405161343a9493929190614e5b565b60405180910390a380613451573d6000803e3d6000fd5b50949350505050565b60006004825110156134a1576040517f08c379a000000000000000000000000000000000000000000000000000000000815260040161349890615009565b60405180910390fd5b60208201519050919050565b60008082846134bc919061559b565b9050600083856134cc9190615868565b14156134db57809150506134ec565b6001816134e89190615545565b9150505b92915050565b60006201518083600801546135079190615545565b42111561352257428360080181905550600083600901819055505b82600701548284600901546135379190615545565b1180613555575082600901548284600901546135539190615545565b105b156135635760009050613568565b600190505b92915050565b804710156135b1576040517f08c379a00000000000000000000000000000000000000000000000000000000081526004016135a890615049565b60405180910390fd5b60008273ffffffffffffffffffffffffffffffffffffffff16826040516135d790614c0d565b60006040518083038185875af1925050503d8060008114613614576040519150601f19603f3d011682016040523d82523d6000602084013e613619565b606091505b505090508061365d576040517f08c379a000000000000000000000000000000000000000000000000000000000815260040161365490615029565b60405180910390fd5b505050565b6040518060400160405280600060ff168152602001600060048111156136b1577f4e487b7100000000000000000000000000000000000000000000000000000000600052602160045260246000fd5b81525090565b8280546136c390615792565b90600052602060002090601f0160209004810192826136e5576000855561372c565b82601f106136fe57803560ff191683800117855561372c565b8280016001018555821561372c579182015b8281111561372b578235825591602001919060010190613710565b5b509050613739919061373d565b5090565b5b8082111561375657600081600090555060010161373e565b5090565b60008135905061376981615994565b92915050565b60008135905061377e816159ab565b92915050565b60008083601f84011261379657600080fd5b8235905067ffffffffffffffff8111156137af57600080fd5b6020830191508360208202830111156137c757600080fd5b9250929050565b6000819050826020600202820111156137e657600080fd5b92915050565b60008083601f8401126137fe57600080fd5b8235905067ffffffffffffffff81111561381757600080fd5b60208301915083602082028301111561382f57600080fd5b9250929050565b60008083601f84011261384857600080fd5b8235905067ffffffffffffffff81111561386157600080fd5b60208301915083602082028301111561387957600080fd5b9250929050565b60008151905061388f816159c2565b92915050565b6000813590506138a4816159d9565b92915050565b6000815190506138b9816159d9565b92915050565b6000813590506138ce816159f0565b92915050565b6000815190506138e3816159f0565b92915050565b60008083601f8401126138fb57600080fd5b8235905067ffffffffffffffff81111561391457600080fd5b60208301915083600182028301111561392c57600080fd5b9250929050565b60008083601f84011261394557600080fd5b8235905067ffffffffffffffff81111561395e57600080fd5b60208301915083600182028301111561397657600080fd5b9250929050565b60008135905061398c81615a07565b92915050565b6000815190506139a181615a1e565b92915050565b6000813590506139b681615a35565b92915050565b6000602082840312156139ce57600080fd5b60006139dc8482850161375a565b91505092915050565b6000602082840312156139f757600080fd5b6000613a058482850161376f565b91505092915050565b60008060408385031215613a2157600080fd5b6000613a2f8582860161376f565b9250506020613a408582860161397d565b9150509250929050565b60008060008060008060008060a0898b031215613a6657600080fd5b6000613a748b828c0161375a565b9850506020613a858b828c0161375a565b975050604089013567ffffffffffffffff811115613aa257600080fd5b613aae8b828c01613836565b9650965050606089013567ffffffffffffffff811115613acd57600080fd5b613ad98b828c01613836565b9450945050608089013567ffffffffffffffff811115613af857600080fd5b613b048b828c016138e9565b92509250509295985092959890939650565b600080600080600060808688031215613b2e57600080fd5b6000613b3c8882890161375a565b9550506020613b4d8882890161375a565b9450506040613b5e8882890161397d565b935050606086013567ffffffffffffffff811115613b7b57600080fd5b613b87888289016138e9565b92509250509295509295909350565b60008060008060008060a08789031215613baf57600080fd5b6000613bbd89828a0161375a565b9650506020613bce89828a0161375a565b9550506040613bdf89828a0161397d565b9450506060613bf089828a0161397d565b935050608087013567ffffffffffffffff811115613c0d57600080fd5b613c1989828a016138e9565b92509250509295509295509295565b600080600060408486031215613c3d57600080fd5b6000613c4b8682870161375a565b935050602084013567ffffffffffffffff811115613c6857600080fd5b613c7486828701613784565b92509250509250925092565b6000806000806000806000806000806101208b8d031215613ca057600080fd5b6000613cae8d828e0161375a565b9a505060208b013567ffffffffffffffff811115613ccb57600080fd5b613cd78d828e016137ce565b9950506040613ce88d828e0161375a565b98505060608b013567ffffffffffffffff811115613d0557600080fd5b613d118d828e01613784565b97509750506080613d248d828e016139a7565b95505060a0613d358d828e0161376f565b94505060c0613d468d828e0161397d565b93505060e0613d578d828e0161375a565b925050610100613d698d828e0161397d565b9150509295989b9194979a5092959850565b60008060208385031215613d8e57600080fd5b600083013567ffffffffffffffff811115613da857600080fd5b613db4858286016137ec565b92509250509250929050565b600060208284031215613dd257600080fd5b6000613de084828501613880565b91505092915050565b600060208284031215613dfb57600080fd5b6000613e0984828501613895565b91505092915050565b600060208284031215613e2457600080fd5b6000613e32848285016138aa565b91505092915050565b600060208284031215613e4d57600080fd5b6000613e5b848285016138bf565b91505092915050565b600060208284031215613e7657600080fd5b6000613e84848285016138d4565b91505092915050565b60008060208385031215613ea057600080fd5b600083013567ffffffffffffffff811115613eba57600080fd5b613ec6858286016138e9565b92509250509250929050565b600080600080600080600080600060e08a8c031215613ef057600080fd5b60008a013567ffffffffffffffff811115613f0a57600080fd5b613f168c828d016138e9565b995099505060208a013567ffffffffffffffff811115613f3557600080fd5b613f418c828d016138e9565b97509750506040613f548c828d0161397d565b9550506060613f658c828d0161397d565b9450506080613f768c828d0161397d565b93505060a0613f878c828d0161375a565b92505060c0613f988c828d0161376f565b9150509295985092959850929598565b60008060208385031215613fbb57600080fd5b600083013567ffffffffffffffff811115613fd557600080fd5b613fe185828601613933565b92509250509250929050565b6000806000806000806060878903121561400657600080fd5b600087013567ffffffffffffffff81111561402057600080fd5b61402c89828a01613933565b9650965050602087013567ffffffffffffffff81111561404b57600080fd5b61405789828a01613933565b9450945050604087013567ffffffffffffffff81111561407657600080fd5b61408289828a01613933565b92509250509295509295509295565b6000806000806000606086880312156140a957600080fd5b600086013567ffffffffffffffff8111156140c357600080fd5b6140cf88828901613933565b9550955050602086013567ffffffffffffffff8111156140ee57600080fd5b6140fa88828901613933565b9350935050604061410d8882890161397d565b9150509295509295909350565b60006020828403121561412c57600080fd5b600061413a8482850161397d565b91505092915050565b60006020828403121561415557600080fd5b600061416384828501613992565b91505092915050565b600061417883836141f5565b60208301905092915050565b600061419083836143d7565b60208301905092915050565b60006141a883836143f5565b60208301905092915050565b60006141c083836144a9565b905092915050565b6141d1816156ca565b82525050565b6141e0816156ca565b82525050565b6141ef81615612565b82525050565b6141fe81615600565b82525050565b61420d81615600565b82525050565b61421c81615600565b82525050565b61423361422e82615600565b61583a565b82525050565b600061424482615443565b61424e81856154a1565b935061425983615413565b8060005b8381101561428a578151614271888261416c565b975061427c8361547a565b92505060018101905061425d565b5085935050505092915050565b60006142a28261544e565b6142ac81856154b2565b93506142b783615423565b8060005b838110156142e85781516142cf8882614184565b97506142da83615487565b9250506001810190506142bb565b5085935050505092915050565b60006143008261544e565b61430a81856154c3565b935061431583615423565b8060005b8381101561434657815161432d888261419c565b975061433883615487565b925050600181019050614319565b5085935050505092915050565b600061435e82615459565b61436881856154d4565b93508360208202850161437a85615433565b8060005b858110156143b6578484038952815161439785826141b4565b94506143a283615494565b925060208a0199505060018101905061437e565b50829750879550505050505092915050565b6143d181615624565b82525050565b6143e081615630565b82525050565b6143ef81615630565b82525050565b6143fe81615630565b82525050565b61441561441082615630565b61584c565b82525050565b6144248161563a565b82525050565b600061443683856154f6565b9350614443838584615750565b61444c83615955565b840190509392505050565b60006144638385615507565b9350614470838584615750565b61447983615955565b840190509392505050565b60006144908385615518565b935061449d838584615750565b82840190509392505050565b60006144b482615464565b6144be81856154e5565b93506144ce81856020860161575f565b6144d781615955565b840191505092915050565b60006144ed82615464565b6144f781856154f6565b935061450781856020860161575f565b61451081615955565b840191505092915050565b614524816156dc565b82525050565b614533816156dc565b82525050565b614542816156ee565b82525050565b61455181615708565b82525050565b60006145638385615523565b9350614570838584615750565b61457983615955565b840190509392505050565b60006145908385615534565b935061459d838584615750565b6145a683615955565b840190509392505050565b60006145bc8261546f565b6145c68185615523565b93506145d681856020860161575f565b6145df81615955565b840191505092915050565b60006145f7600983615523565b91507f4e4f20434f4d4d495400000000000000000000000000000000000000000000006000830152602082019050919050565b6000614637601a83615523565b91507f4e4f545f4d4545545f4d494e494d554d5f475541524449414e530000000000006000830152602082019050919050565b6000614677601383615523565b91507f494e495449414c495a45445f414c5245414459000000000000000000000000006000830152602082019050919050565b60006146b7601083615523565b91507f554e45585045435445442050524f4f46000000000000000000000000000000006000830152602082019050919050565b60006146f7601d83615523565b91507f5574696c733a20496e76616c69642066756e6374696f6e5072656669780000006000830152602082019050919050565b6000614737603a83615523565b91507f416464726573733a20756e61626c6520746f2073656e642076616c75652c207260008301527f6563697069656e74206d617920686176652072657665727465640000000000006020830152604082019050919050565b600061479d601d83615523565b91507f416464726573733a20696e73756666696369656e742062616c616e63650000006000830152602082019050919050565b60006147dd601283615523565b91507f6e6f7420656e6f7567682062616c616e636500000000000000000000000000006000830152602082019050919050565b600061481d602883615523565b91507f50726f766964656420636f756e746572206d757374206265206772656174657260008301527f206f722073616d650000000000000000000000000000000000000000000000006020830152604082019050919050565b6000614883601d83615523565b91507f526563656976653a2045787465726e616c2063616c6c206661696c65640000006000830152602082019050919050565b60006148c3600e83615523565b91507f6d757374206265206d65746174780000000000000000000000000000000000006000830152602082019050919050565b6000614903602983615523565b91507f4e4f545f46524f4d5f57414c4c45545f4f525f4f574e45525f4f525f57414c4c60008301527f45545f4c4f434b454400000000000000000000000000000000000000000000006020830152604082019050919050565b6000614969601583615523565b91507f4e4f5420454e4f55474820544f205041592046454500000000000000000000006000830152602082019050919050565b60006149a9602f83615523565b91507f50726f766964656420636f756e746572206d757374206e6f74206265206d6f7260008301527f65207468616e20323020737465707300000000000000000000000000000000006020830152604082019050919050565b6000614a0f602283615523565b91507f4d616b655472616e736665723a2045787465726e616c2063616c6c206661696c60008301527f65640000000000000000000000000000000000000000000000000000000000006020830152604082019050919050565b6000614a75601583615523565b91507f6f766572207769746864726177616c206c696d697400000000000000000000006000830152602082019050919050565b6000614ab5600e83615523565b91507f756e6b6e6f776e206d6574686f640000000000000000000000000000000000006000830152602082019050919050565b6000614af5600083615518565b9150600082019050919050565b604082016000820151614b1860008501826141f5565b506020820151614b2b6020850182614b6e565b50505050565b604082016000820151614b476000850182614bb9565b506020820151614b5a602085018261452a565b50505050565b8082525050565b8082525050565b614b77816156a3565b82525050565b614b86816156a3565b82525050565b614b95816156a3565b82525050565b614ba48161573e565b82525050565b614bb3816156bd565b82525050565b614bc2816156bd565b82525050565b6000614bd48285614222565b601482019150614be48284614404565b6020820191508190509392505050565b6000614c01828486614484565b91508190509392505050565b6000614c1882614ae8565b9150819050919050565b6000602082019050614c376000830184614204565b92915050565b6000604082019050614c5260008301856141c8565b614c5f6020830184614b7d565b9392505050565b600060a082019050614c7b6000830189614204565b614c886020830188614204565b614c956040830187614b7d565b614ca26060830186614b7d565b8181036080830152614cb581848661442a565b9050979650505050505050565b600061018082019050614cd8600083018e614204565b614ce5602083018d6143c8565b614cf2604083018c614baa565b614cff606083018b614b7d565b614d0c608083018a6141e6565b614d1960a0830189614b7d565b614d2660c0830188614b7d565b614d3360e0830187614b7d565b818103610100830152614d4681866145b1565b9050614d56610120830185614b02565b614d64610160830184614204565b9c9b505050505050505050505050565b6000604082019050614d896000830185614204565b614d966020830184614b7d565b9392505050565b60006020820190508181036000830152614db78184614239565b905092915050565b60006020820190508181036000830152614dd981846142f5565b905092915050565b60006020820190508181036000830152614dfb8184614297565b905092915050565b60006020820190508181036000830152614e1d8184614353565b905092915050565b6000602082019050614e3a60008301846143c8565b92915050565b6000602082019050614e55600083018461441b565b92915050565b60006060820190508181036000830152614e7681868861442a565b9050614e8560208301856143c8565b8181036040830152614e9781846144e2565b905095945050505050565b60006040820190508181036000830152614ebc81856144e2565b9050614ecb6020830184614539565b9392505050565b60006060820190508181036000830152614eed818789614557565b90508181036020830152614f02818587614557565b9050614f116040830184614548565b9695505050505050565b60006020820190508181036000830152614f3581846145b1565b905092915050565b60006060820190508181036000830152614f5781866145b1565b90508181036020830152614f6b81856145b1565b90508181036040830152614f7f81846145b1565b9050949350505050565b60006020820190508181036000830152614fa2816145ea565b9050919050565b60006020820190508181036000830152614fc28161462a565b9050919050565b60006020820190508181036000830152614fe28161466a565b9050919050565b60006020820190508181036000830152615002816146aa565b9050919050565b60006020820190508181036000830152615022816146ea565b9050919050565b600060208201905081810360008301526150428161472a565b9050919050565b6000602082019050818103600083015261506281614790565b9050919050565b60006020820190508181036000830152615082816147d0565b9050919050565b600060208201905081810360008301526150a281614810565b9050919050565b600060208201905081810360008301526150c281614876565b9050919050565b600060208201905081810360008301526150e2816148b6565b9050919050565b60006020820190508181036000830152615102816148f6565b9050919050565b600060208201905081810360008301526151228161495c565b9050919050565b600060208201905081810360008301526151428161499c565b9050919050565b6000602082019050818103600083015261516281614a02565b9050919050565b6000602082019050818103600083015261518281614a68565b9050919050565b600060208201905081810360008301526151a281614aa8565b9050919050565b60006020820190506151be6000830184614b60565b92915050565b60006040820190506151d96000830185614b60565b6151e66020830184614213565b9392505050565b60006080820190506152026000830189614b60565b8181036020830152615215818789614584565b9050818103604083015261522a818587614584565b90506152396060830184614b8c565b979650505050505050565b60006101208201905061525a600083018d614b67565b818103602083015261526d818b8d614457565b9050818103604083015261528281898b614457565b90506152916060830188614b8c565b61529e6080830187614b8c565b6152ab60a0830186614b8c565b6152b860c08301856141d7565b6152c560e0830184614b31565b9b9a5050505050505050505050565b60006020820190506152e96000830184614b7d565b92915050565b60006040820190506153046000830185614b9b565b61531160208301846143e6565b9392505050565b600060408201905061532d6000830185614baa565b61533a602083018461451b565b9392505050565b6000808335600160200384360303811261535a57600080fd5b80840192508235915067ffffffffffffffff82111561537857600080fd5b60208301925060018202360383131561539057600080fd5b509250929050565b600080833560016020038436030381126153b157600080fd5b80840192508235915067ffffffffffffffff8211156153cf57600080fd5b6020830192506001820236038313156153e757600080fd5b509250929050565b60008235600160600383360303811261540757600080fd5b80830191505092915050565b6000819050602082019050919050565b6000819050602082019050919050565b6000819050602082019050919050565b600081519050919050565b600081519050919050565b600081519050919050565b600081519050919050565b600081519050919050565b6000602082019050919050565b6000602082019050919050565b6000602082019050919050565b600082825260208201905092915050565b600082825260208201905092915050565b600082825260208201905092915050565b600082825260208201905092915050565b600082825260208201905092915050565b600082825260208201905092915050565b600082825260208201905092915050565b600081905092915050565b600082825260208201905092915050565b600082825260208201905092915050565b6000615550826156a3565b915061555b836156a3565b9250827fffffffffffffffffffffffffffffffffffffffffffffffffffffffffffffffff038211156155905761558f615899565b5b828201905092915050565b60006155a6826156a3565b91506155b1836156a3565b9250826155c1576155c06158c8565b5b828204905092915050565b60006155d7826156a3565b91506155e2836156a3565b9250828210156155f5576155f4615899565b5b828203905092915050565b600061560b82615683565b9050919050565b600061561d82615683565b9050919050565b60008115159050919050565b6000819050919050565b60007fffffffff0000000000000000000000000000000000000000000000000000000082169050919050565b600081905061567482615980565b919050565b6000819050919050565b600073ffffffffffffffffffffffffffffffffffffffff82169050919050565b6000819050919050565b600063ffffffff82169050919050565b600060ff82169050919050565b60006156d58261571a565b9050919050565b60006156e782615666565b9050919050565b60006157016156fc83615679565b615966565b9050919050565b6000615713826156a3565b9050919050565b60006157258261572c565b9050919050565b600061573782615683565b9050919050565b6000615749826156bd565b9050919050565b82818337600083830152505050565b60005b8381101561577d578082015181840152602081019050615762565b8381111561578c576000848401525b50505050565b600060028204905060018216806157aa57607f821691505b602082108114156157be576157bd615926565b5b50919050565b60006157cf826156a3565b91507fffffffffffffffffffffffffffffffffffffffffffffffffffffffffffffffff82141561580257615801615899565b5b600182019050919050565b6000615818826156ad565b915063ffffffff82141561582f5761582e615899565b5b600182019050919050565b600061584582615856565b9050919050565b6000819050919050565b600061586182615973565b9050919050565b6000615873826156a3565b915061587e836156a3565b92508261588e5761588d6158c8565b5b828206905092915050565b7f4e487b7100000000000000000000000000000000000000000000000000000000600052601160045260246000fd5b7f4e487b7100000000000000000000000000000000000000000000000000000000600052601260045260246000fd5b7f4e487b7100000000000000000000000000000000000000000000000000000000600052602160045260246000fd5b7f4e487b7100000000000000000000000000000000000000000000000000000000600052602260045260246000fd5b6000601f19601f8301169050919050565b60008160001b9050919050565b60008160601b9050919050565b60058110615991576159906158f7565b5b50565b61599d81615600565b81146159a857600080fd5b50565b6159b481615612565b81146159bf57600080fd5b50565b6159cb81615624565b81146159d657600080fd5b50565b6159e281615630565b81146159ed57600080fd5b50565b6159f98161563a565b8114615a0457600080fd5b50565b615a10816156a3565b8114615a1b57600080fd5b50565b615a27816156ad565b8114615a3257600080fd5b50565b615a3e816156bd565b8114615a4957600080fd5b5056fea26469706673582212204c8ec7291fadd98f5df9f707af2b61051ad883687c6ee61e76901083cc8738b064736f6c63430008000033",
  "immutableReferences": {},
  "source": "// SPDX-License-Identifier: GPL-3.0-only\n\npragma solidity >=0.7.6;\npragma experimental ABIEncoderV2;\n\nimport \"@openzeppelin/contracts/token/ERC721/IERC721Receiver.sol\";\nimport \"@openzeppelin/contracts/token/ERC721/IERC721.sol\";\nimport \"@openzeppelin/contracts/token/ERC1155/IERC1155Receiver.sol\";\nimport \"@openzeppelin/contracts/token/ERC1155/IERC1155.sol\";\nimport \"@openzeppelin/contracts/token/ERC20/IERC20.sol\";\nimport \"@openzeppelin/contracts/utils/Address.sol\";\n\nimport \"./core/wallet_data.sol\";\nimport \"./features/guardians.sol\";\nimport \"./features/daily_limit.sol\";\nimport \"./features/recovery.sol\";\nimport \"./features/metatx.sol\";\nimport \"./features/name_service.sol\";\n\ncontract TOTPWallet is IERC721Receiver, IERC1155Receiver {\n\n    using Address for address payable;\n    using Guardians for Core.Wallet;\n    using DailyLimit for Core.Wallet;\n    using Recovery for Core.Wallet;\n    using MetaTx for Core.Wallet;\n    using NameService for Core.Wallet;\n\n    // DATA LAYOUT - ALWAYS ADD NEW VAR TO LAST\n\n    address masterCopy;\n    Core.Wallet public wallet;\n    Core.UserData public userData;\n    bool internal isImplementationContract;\n\n\n    // END OF DATA LAYOUT\n    struct Call {\n        address to;\n        uint256 value;\n        bytes data;\n    }\n\n    event DebugEvent(bytes16 data);\n    event DebugEvent32(bytes32 data);\n    event DebugEventN(uint32 data);\n    event DebugEventA(address data);    \n    event DebugEvent256(uint256 data);\n    event WalletTransfer(address to, uint amount);\n    event Deposit(address indexed sender, uint value);\n    event WalletUpgraded(address newImpl);\n    event TransactionExecuted(bool indexed success, bytes returnData, bytes32 signedHash);\n    event Invoked(address indexed target, uint indexed value, bytes data, bool success, bytes returnData);\n\n    constructor() {\n        isImplementationContract = true;\n    }\n\n    modifier disableInImplementationContract\n    {\n        require(!isImplementationContract, \"DISALLOWED_ON_IMPLEMENTATION_CONTRACT\");\n        _;\n    }\n\n    // keep methods <= 8 parameters of get stack to deep\n    function initialize(\n        address              resolver_,\n        string[2]   calldata domain_, // empty means no registration\n        address             owner_, \n        bytes32[] calldata    rootHash_, \n        uint8               merkelHeight_, \n        address payable     drainAddr_, \n        uint                dailyLimit_,\n        address             feeRecipient,\n        uint                feeAmount                \n        ) external \n        // disableInImplementationContract()\n    {\n        wallet.resolver = resolver_;\n\n        //emit DebugEvent256(address(this).balance);\n        require(wallet.owner == address(0), \"INITIALIZED_ALREADY\");\n        require(address(this).balance >= feeAmount, \"NOT ENOUGH TO PAY FEE\");\n\n        wallet.owner = owner_;\n        for (uint32 i = 0; i < rootHash_.length; i++) {\n             wallet.rootHash.push(rootHash_[i]);\n        }        \n        wallet.merkelHeight = merkelHeight_;\n        wallet.drainAddr = drainAddr_;\n        wallet.dailyLimit = dailyLimit_;\n\n        // STACK TOO DEEP\n        if(bytes(domain_[0]).length > 0) {\n            this.registerENS(domain_[0], domain_[1], 60 * 60 * 24 * 365);\n        }\n\n        if (feeRecipient != address(0)) {\n            payable(feeRecipient).sendValue(feeAmount);\n        }        \n    }   \n\n    function initializeUserData(\n        string  calldata   password_,\n        string  calldata   email_,\n        string  calldata   countryOfResidence_\n    ) external {\n        userData.password = password_;\n        userData.email = email_;\n        userData.countryOfResidence = countryOfResidence_;\n    }\n    \n\n    function registerENS(string calldata subdomain, string calldata domain, uint duration) external onlyFromWalletOrOwnerWhenUnlocked() {\n        wallet.registerENS(subdomain, domain, duration);\n    }\n\n    modifier onlyModule() {\n        require(msg.sender == address(this));\n        _;        \n    }\n\n    modifier onlyFromWalletOrOwnerWhenUnlocked()\n    {\n        require(\n            msg.sender == address(this) ||\n            (msg.sender == wallet.owner && !wallet.locked),\n             \"NOT_FROM_WALLET_OR_OWNER_OR_WALLET_LOCKED\"\n        );\n        _;\n    }\n\n    modifier onlySelf() {\n        require(msg.sender == address(this), \"must be metatx\");\n        _;\n    }\n\n    // confirmMaterial contains OTP + intermediatory hashes + sides\n    modifier onlyValidTOTP(bytes32[] memory confirmMaterial) \n    {\n        bytes32 reduced = Recovery._reduceConfirmMaterial(confirmMaterial);\n        uint32 counterProvided = Recovery._deriveChildTreeIdx(wallet.merkelHeight, confirmMaterial[confirmMaterial.length-1]);\n        require(counterProvided >= wallet.counter, \"Provided counter must be greater or same\");\n\n        // Google Authenticator doesn't allow custom counter or change counter back; so we must allow room to fudge\n        // allow some room if the counters were skipped at some point\n        require(counterProvided - wallet.counter  < 50, \"Provided counter must not be more than 20 steps\");\n\n        bool foundMatch = false;\n        for (uint32 i = 0; i < wallet.rootHash.length; i++) {\n            if(reduced==wallet.rootHash[i]) {\n                foundMatch = true;\n            }\n        }\n        require(foundMatch, \"UNEXPECTED PROOF\");\n        _;\n    }\n\n    function getRequiredSignatures(bytes calldata _data) public view returns (uint8, Core.OwnerSignature) {\n        bytes4 methodId = functionPrefix(_data);\n\n        if(methodId == TOTPWallet.makeTransfer.selector ||\n            methodId == TOTPWallet.multiCall.selector ||\n            methodId == TOTPWallet.addGuardian.selector ||\n            methodId == TOTPWallet.revokeGuardian.selector||\n            methodId == TOTPWallet.upgradeMasterCopy.selector ||\n            methodId == TOTPWallet.setDailyLimit.selector ||\n            methodId == TOTPWallet.setDrainAddress.selector ||\n            methodId == TOTPWallet.setHashStorageId.selector) {\n            return (1, Core.OwnerSignature.Required);\n        }\n\n        if(methodId == TOTPWallet.startRecoverGuardianOnly.selector) {\n            require(wallet.guardians.length >= 2, \"NOT_MEET_MINIMUM_GUARDIANS\");\n            uint requiredSignatures = MetaTx.ceil(wallet.guardians.length, 2);\n            return (uint8(requiredSignatures), Core.OwnerSignature.Disallowed);            \n        }\n\n        // 1 of 1 = 0 sig\n        // 2 of 2 = 1 sig + HOTP\n        // 2 of 3 = 1 sig + HOTP\n        if(methodId == TOTPWallet.startRecoverCommit.selector) {\n            uint requiredSignatures = MetaTx.ceil(wallet.guardians.length, 2);\n            return (uint8(requiredSignatures), Core.OwnerSignature.Disallowed);            \n        }\n        if(methodId == TOTPWallet.startRecoveryReveal.selector) {\n            return (0, Core.OwnerSignature.Disallowed);            \n        }\n        \n        revert(\"unknown method\");\n    }    \n\n    function executeMetaTx(\n            bytes   calldata data,\n            bytes   calldata signatures, \n            uint256 nonce,\n            uint256 gasPrice,\n            uint256 gasLimit,\n            address /*refundToken*/,\n            address payable refundAddress            \n        ) external \n    {\n        uint gasLeft = gasleft();        \n        Core.SignatureRequirement memory sigRequirement;        \n        (sigRequirement.requiredSignatures, sigRequirement.ownerSignatureRequirement) = getRequiredSignatures(data);        \n\n        MetaTx.validateTx(wallet, data, signatures, nonce, gasPrice, gasLimit, refundAddress, sigRequirement);\n\n        bool success;\n        bytes memory returnData;\n        (success, returnData) = address(this).call(data);\n\n        if(gasPrice > 0 && success && refundAddress != address(0x0)) {\n            uint gasUsed = gasLeft - gasleft() + 70000; //35k overhead\n            refundAddress.transfer(gasUsed);\n        }\n        emit TransactionExecuted(success, returnData, 0x0);        \n    }\n\n    function multiCall(Call[] calldata _transactions) external onlyFromWalletOrOwnerWhenUnlocked() returns (bytes[] memory) {\n        bytes[] memory results = new bytes[](_transactions.length);\n        for(uint i = 0; i < _transactions.length; i++) {\n            results[i] = invoke(_transactions[i].to, _transactions[i].value, _transactions[i].data);\n        }\n        return results;\n    }\n\n    function makeTransfer(address payable to, uint amount) external onlyFromWalletOrOwnerWhenUnlocked() \n    {\n        require(wallet.isUnderLimit(amount), \"over withdrawal limit\");\n        require(address(this).balance >= amount, \"not enough balance\");  \n\n        wallet.spentToday += amount;\n        //to.transfer(amount);\n        (bool success,) = to.call{value: amount, gas: 100000}(\"\");\n        require(success, \"MakeTransfer: External call failed\");\n        emit WalletTransfer(to, amount);             \n    }\n\n    function getOwner()  public\n        view\n        returns (address) \n    {\n        return wallet.owner;  \n    }\n\n    function getCounter()  public\n        view\n        returns (uint) \n    {\n        return wallet.counter;\n    }\n\n    function setHashStorageId(string calldata id) external  onlyFromWalletOrOwnerWhenUnlocked()  {\n        wallet.hashStorageID = id;\n    }\n\n    function getHashStorageId() public view  returns (string memory){\n        return wallet.hashStorageID;\n    }\n    \n    function getRootHashes()\n         public\n         view\n         returns (bytes32[] memory )\n     {\n         return wallet.rootHash;\n     }\n\n    function setDrainAddress(address payable addr) external onlyFromWalletOrOwnerWhenUnlocked() {\n        wallet.drainAddr = addr;\n    }\n\n    function setDailyLimit(uint amount) external onlyFromWalletOrOwnerWhenUnlocked() {\n        wallet.dailyLimit = amount;\n    }\n    //\n    // Guardians functions\n    //\n    function addGuardian(address guardian)\n        external\n        onlyFromWalletOrOwnerWhenUnlocked()\n    {\n        wallet.addGuardian(guardian);\n    }\n\n    function revokeGuardian(address guardian)\n        external\n        onlyFromWalletOrOwnerWhenUnlocked()\n    {\n        wallet.revokeGuardian(guardian);\n    }\n\n    function isGuardian(address addr)\n         public\n         view\n         returns (bool)\n     {\n         return wallet.isGuardian(addr);\n     }\n\n     function getGuardians()\n         public\n         view\n         returns (address[] memory )\n     {\n         return wallet.guardians;\n     }\n\n    //\n    // Recovery functions\n    //\n    // In default setup with only HOTP setup, wallet recovery is done on its own.\n    // In a more secure setup with HOTP + guardians, HOTP is considered as 1 guardian.\n    //\n    // Relay/or other coordinating system will coordinate the signatures collections \n    // from guardian and submit along with the HOTP together. In rare case, HOTP may be ommitted\n    // when greater than 2 guardians can recover without HOTP.\n    function startRecoverGuardianOnly(address newOwner_) onlySelf() external {\n        // move into recovery state\n        wallet.startRecovery(newOwner_);\n    }\n\n    // recover with combination of commithash and signatures\n    function startRecoverCommit(bytes32 commitHash)  onlySelf() external {\n        wallet.commitHash[commitHash] = true;\n    }\n\n    function startRecoveryReveal(address newOwner, bytes32[] calldata confirmMaterial)  onlySelf() onlyValidTOTP(confirmMaterial) external {\n        bytes32 hash = keccak256(abi.encodePacked(newOwner, confirmMaterial[0]));\n        require(wallet.commitHash[hash], \"NO COMMIT\");\n\n        //wallet.startRecovery(newOwner);\n        wallet.owner = newOwner;\n\n        delete wallet.commitHash[hash];\n        wallet.counter = wallet.counter + 1;\n    }\n\n    function isRecovering() external view returns (bool) {\n        return wallet.pendingRecovery.expiration != 0;\n    }\n\n    function cancelRecovery() external onlyFromWalletOrOwnerWhenUnlocked() {\n        wallet.pendingRecovery = Core.RecoveryInfo(address(0),0);\n    }\n\n    function getRecovery() external view returns (address,uint) {\n        return (wallet.pendingRecovery.newOwner, wallet.pendingRecovery.expiration);\n    }\n\n    function finalizeRecovery() external {\n        wallet.finalizeRecovery();\n    }\n\n    function upgradeMasterCopy(address newMasterCopy) external onlySelf() {\n        masterCopy = newMasterCopy;\n        emit WalletUpgraded(newMasterCopy);\n    }\n\n    function getMasterCopy()\n        public\n        view\n        returns (address)\n    {\n        return masterCopy;\n    }\n\n    //\n    // ERC1155 support\n    //\n    function onERC1155Received(\n        address,\n        address,\n        uint256,\n        uint256,\n        bytes calldata\n    ) external pure override returns (bytes4){\n        return this.onERC1155Received.selector;\n    }\n\n    function onERC1155BatchReceived(address operator, address from, uint256[] calldata ids, uint256[] calldata values, bytes calldata data) external view override returns (bytes4){\n        for (uint32 i = 0; i < ids.length; i++) {\n            this.onERC1155Received(operator, from, ids[i], values[i], data);\n        }\n        return this.onERC1155BatchReceived.selector;\n    }\n\n    function supportsInterface(bytes4 interfaceID) external override pure returns (bool) {\n        return interfaceID == this.supportsInterface.selector ||\n        interfaceID == this.onERC1155Received.selector ||\n        interfaceID == this.onERC721Received.selector;\n    }\n\n    function onERC721Received(\n        address,\n        address,\n        uint256,\n        bytes calldata\n    ) external pure override returns (bytes4){\n        return this.onERC721Received.selector;\n    }\n\n    //\n    // Utility functions\n    //\n\n    /**\n    * @notice Helper method to parse data and extract the method signature.\n    */\n    function functionPrefix(bytes memory _data) internal pure returns (bytes4 prefix) {\n        require(_data.length >= 4, \"Utils: Invalid functionPrefix\");\n        // solhint-disable-next-line no-inline-assembly\n        assembly {\n            prefix := mload(add(_data, 0x20))\n        }\n    }\n    /// @dev Fallback function allows to deposit ether.\n    receive() external payable {\n        if (msg.value > 0) {\n            if(msg.sender == wallet.drainAddr && msg.value == 1 ether) {\n                uint amount = address(this).balance;\n                (bool success,) = wallet.drainAddr.call{value: amount, gas: 100000}(\"\");\n                require(success, \"Receive: External call failed\");\n            }\n            emit Deposit(msg.sender, msg.value);\n        }\n    }\n\n    /**\n     * @notice Performs a generic transaction.\n     * @param _target The address for the transaction.\n     * @param _value The value of the transaction.\n     * @param _data The data of the transaction.\n     */\n    function invoke(address _target, uint _value, bytes calldata _data) internal returns (bytes memory _result) {\n        bool success;\n        (success, _result) = _target.call{value: _value}(_data);\n\n        emit Invoked(_target, _value, _data, success, _result);\n\n        if (!success) {\n            // solhint-disable-next-line no-inline-assembly\n            assembly {\n                returndatacopy(0, 0, returndatasize())\n                revert(0, returndatasize())\n            }\n        }\n    }\n}\n",
  "sourcePath": "/Users/andreashejj/Development/Harmony/harmony-totp/contracts/otp_wallet.sol",
  "compiler": {
    "name": "solc",
    "version": "0.8.0+commit.c7dfd78e.Emscripten.clang"
  },
  "schemaVersion": "3.4.3",
  "updatedAt": "2021-09-08T10:27:01.092Z",
  "devdoc": {
    "kind": "dev",
    "methods": {
      "onERC1155BatchReceived(address,address,uint256[],uint256[],bytes)": {
        "details": "Handles the receipt of a multiple ERC1155 token types. This function is called at the end of a `safeBatchTransferFrom` after the balances have been updated. To accept the transfer(s), this must return `bytes4(keccak256(\"onERC1155BatchReceived(address,address,uint256[],uint256[],bytes)\"))` (i.e. 0xbc197c81, or its own function selector).",
        "params": {
          "data": "Additional data with no specified format",
          "from": "The address which previously owned the token",
          "ids": "An array containing ids of each token being transferred (order and length must match values array)",
          "operator": "The address which initiated the batch transfer (i.e. msg.sender)",
          "values": "An array containing amounts of each token being transferred (order and length must match ids array)"
        },
        "returns": {
          "_0": "`bytes4(keccak256(\"onERC1155BatchReceived(address,address,uint256[],uint256[],bytes)\"))` if transfer is allowed"
        }
      }
    },
    "version": 1
  },
  "userdoc": {
    "kind": "user",
    "methods": {},
    "version": 1
  }
}