{
  "contractName": "TOTPWallet",
  "abi": [
    {
      "inputs": [],
      "stateMutability": "nonpayable",
      "type": "constructor"
    },
    {
      "anonymous": false,
      "inputs": [
        {
          "indexed": false,
          "internalType": "bytes16",
          "name": "data",
          "type": "bytes16"
        }
      ],
      "name": "DebugEvent",
      "type": "event"
    },
    {
      "anonymous": false,
      "inputs": [
        {
          "indexed": false,
          "internalType": "uint256",
          "name": "data",
          "type": "uint256"
        }
      ],
      "name": "DebugEvent256",
      "type": "event"
    },
    {
      "anonymous": false,
      "inputs": [
        {
          "indexed": false,
          "internalType": "bytes32",
          "name": "data",
          "type": "bytes32"
        }
      ],
      "name": "DebugEvent32",
      "type": "event"
    },
    {
      "anonymous": false,
      "inputs": [
        {
          "indexed": false,
          "internalType": "address",
          "name": "data",
          "type": "address"
        }
      ],
      "name": "DebugEventA",
      "type": "event"
    },
    {
      "anonymous": false,
      "inputs": [
        {
          "indexed": false,
          "internalType": "uint32",
          "name": "data",
          "type": "uint32"
        }
      ],
      "name": "DebugEventN",
      "type": "event"
    },
    {
      "anonymous": false,
      "inputs": [
        {
          "indexed": true,
          "internalType": "address",
          "name": "sender",
          "type": "address"
        },
        {
          "indexed": false,
          "internalType": "uint256",
          "name": "value",
          "type": "uint256"
        }
      ],
      "name": "Deposit",
      "type": "event"
    },
    {
      "anonymous": false,
      "inputs": [
        {
          "indexed": true,
          "internalType": "address",
          "name": "target",
          "type": "address"
        },
        {
          "indexed": true,
          "internalType": "uint256",
          "name": "value",
          "type": "uint256"
        },
        {
          "indexed": false,
          "internalType": "bytes",
          "name": "data",
          "type": "bytes"
        },
        {
          "indexed": false,
          "internalType": "bool",
          "name": "success",
          "type": "bool"
        },
        {
          "indexed": false,
          "internalType": "bytes",
          "name": "returnData",
          "type": "bytes"
        }
      ],
      "name": "Invoked",
      "type": "event"
    },
    {
      "anonymous": false,
      "inputs": [
        {
          "indexed": true,
          "internalType": "bool",
          "name": "success",
          "type": "bool"
        },
        {
          "indexed": false,
          "internalType": "bytes",
          "name": "returnData",
          "type": "bytes"
        },
        {
          "indexed": false,
          "internalType": "bytes32",
          "name": "signedHash",
          "type": "bytes32"
        }
      ],
      "name": "TransactionExecuted",
      "type": "event"
    },
    {
      "anonymous": false,
      "inputs": [
        {
          "indexed": false,
          "internalType": "address",
          "name": "to",
          "type": "address"
        },
        {
          "indexed": false,
          "internalType": "uint256",
          "name": "amount",
          "type": "uint256"
        }
      ],
      "name": "WalletTransfer",
      "type": "event"
    },
    {
      "anonymous": false,
      "inputs": [
        {
          "indexed": false,
          "internalType": "address",
          "name": "newImpl",
          "type": "address"
        }
      ],
      "name": "WalletUpgraded",
      "type": "event"
    },
    {
      "inputs": [],
      "name": "version",
      "outputs": [
        {
          "internalType": "uint256",
          "name": "",
          "type": "uint256"
        }
      ],
      "stateMutability": "view",
      "type": "function",
      "constant": true
    },
    {
      "inputs": [],
      "name": "wallet",
      "outputs": [
        {
          "internalType": "address",
          "name": "owner",
          "type": "address"
        },
        {
          "internalType": "bool",
          "name": "locked",
          "type": "bool"
        },
        {
          "internalType": "uint8",
          "name": "merkelHeight",
          "type": "uint8"
        },
        {
          "internalType": "uint256",
          "name": "counter",
          "type": "uint256"
        },
        {
          "internalType": "address payable",
          "name": "drainAddr",
          "type": "address"
        },
        {
          "internalType": "uint256",
          "name": "dailyLimit",
          "type": "uint256"
        },
        {
          "internalType": "uint256",
          "name": "lastDay",
          "type": "uint256"
        },
        {
          "internalType": "uint256",
          "name": "spentToday",
          "type": "uint256"
        },
        {
          "internalType": "string",
          "name": "hashStorageID",
          "type": "string"
        },
        {
          "components": [
            {
              "internalType": "address",
              "name": "newOwner",
              "type": "address"
            },
            {
              "internalType": "uint256",
              "name": "expiration",
              "type": "uint256"
            }
          ],
          "internalType": "struct Core.RecoveryInfo",
          "name": "pendingRecovery",
          "type": "tuple"
        },
        {
          "internalType": "address",
          "name": "resolver",
          "type": "address"
        },
        {
          "internalType": "uint256",
          "name": "nonce",
          "type": "uint256"
        }
      ],
      "stateMutability": "view",
      "type": "function",
      "constant": true
    },
    {
      "stateMutability": "payable",
      "type": "receive",
      "payable": true
    },
    {
      "inputs": [
        {
          "internalType": "address",
          "name": "resolver_",
          "type": "address"
        },
        {
          "internalType": "string[2]",
          "name": "domain_",
          "type": "string[2]"
        },
        {
          "internalType": "address",
          "name": "owner_",
          "type": "address"
        },
        {
          "internalType": "bytes32[]",
          "name": "rootHash_",
          "type": "bytes32[]"
        },
        {
          "internalType": "uint8",
          "name": "merkelHeight_",
          "type": "uint8"
        },
        {
          "internalType": "address payable",
          "name": "drainAddr_",
          "type": "address"
        },
        {
          "internalType": "uint256",
          "name": "dailyLimit_",
          "type": "uint256"
        },
        {
          "internalType": "address",
          "name": "feeRecipient",
          "type": "address"
        },
        {
          "internalType": "uint256",
          "name": "feeAmount",
          "type": "uint256"
        }
      ],
      "name": "initialize",
      "outputs": [],
      "stateMutability": "nonpayable",
      "type": "function"
    },
    {
      "inputs": [
        {
          "internalType": "string",
          "name": "subdomain",
          "type": "string"
        },
        {
          "internalType": "string",
          "name": "domain",
          "type": "string"
        },
        {
          "internalType": "uint256",
          "name": "duration",
          "type": "uint256"
        }
      ],
      "name": "registerENS",
      "outputs": [],
      "stateMutability": "nonpayable",
      "type": "function"
    },
    {
      "inputs": [
        {
          "internalType": "bytes",
          "name": "_data",
          "type": "bytes"
        }
      ],
      "name": "getRequiredSignatures",
      "outputs": [
        {
          "internalType": "uint8",
          "name": "",
          "type": "uint8"
        },
        {
          "internalType": "enum Core.OwnerSignature",
          "name": "",
          "type": "uint8"
        }
      ],
      "stateMutability": "view",
      "type": "function",
      "constant": true
    },
    {
      "inputs": [
        {
          "internalType": "bytes",
          "name": "data",
          "type": "bytes"
        },
        {
          "internalType": "bytes",
          "name": "signatures",
          "type": "bytes"
        },
        {
          "internalType": "uint256",
          "name": "nonce",
          "type": "uint256"
        },
        {
          "internalType": "uint256",
          "name": "gasPrice",
          "type": "uint256"
        },
        {
          "internalType": "uint256",
          "name": "gasLimit",
          "type": "uint256"
        },
        {
          "internalType": "address",
          "name": "",
          "type": "address"
        },
        {
          "internalType": "address payable",
          "name": "refundAddress",
          "type": "address"
        }
      ],
      "name": "executeMetaTx",
      "outputs": [],
      "stateMutability": "nonpayable",
      "type": "function"
    },
    {
      "inputs": [
        {
          "components": [
            {
              "internalType": "address",
              "name": "to",
              "type": "address"
            },
            {
              "internalType": "uint256",
              "name": "value",
              "type": "uint256"
            },
            {
              "internalType": "bytes",
              "name": "data",
              "type": "bytes"
            }
          ],
          "internalType": "struct TOTPWallet.Call[]",
          "name": "_transactions",
          "type": "tuple[]"
        }
      ],
      "name": "multiCall",
      "outputs": [
        {
          "internalType": "bytes[]",
          "name": "",
          "type": "bytes[]"
        }
      ],
      "stateMutability": "nonpayable",
      "type": "function"
    },
    {
      "inputs": [
        {
          "internalType": "address payable",
          "name": "to",
          "type": "address"
        },
        {
          "internalType": "uint256",
          "name": "amount",
          "type": "uint256"
        }
      ],
      "name": "makeTransfer",
      "outputs": [],
      "stateMutability": "nonpayable",
      "type": "function"
    },
    {
      "inputs": [],
      "name": "getOwner",
      "outputs": [
        {
          "internalType": "address",
          "name": "",
          "type": "address"
        }
      ],
      "stateMutability": "view",
      "type": "function",
      "constant": true
    },
    {
      "inputs": [],
      "name": "getCounter",
      "outputs": [
        {
          "internalType": "uint256",
          "name": "",
          "type": "uint256"
        }
      ],
      "stateMutability": "view",
      "type": "function",
      "constant": true
    },
    {
      "inputs": [
        {
          "internalType": "string",
          "name": "id",
          "type": "string"
        }
      ],
      "name": "setHashStorageId",
      "outputs": [],
      "stateMutability": "nonpayable",
      "type": "function"
    },
    {
      "inputs": [],
      "name": "getHashStorageId",
      "outputs": [
        {
          "internalType": "string",
          "name": "",
          "type": "string"
        }
      ],
      "stateMutability": "view",
      "type": "function",
      "constant": true
    },
    {
      "inputs": [],
      "name": "getRootHashes",
      "outputs": [
        {
          "internalType": "bytes32[]",
          "name": "",
          "type": "bytes32[]"
        }
      ],
      "stateMutability": "view",
      "type": "function",
      "constant": true
    },
    {
      "inputs": [
        {
          "internalType": "address payable",
          "name": "addr",
          "type": "address"
        }
      ],
      "name": "setDrainAddress",
      "outputs": [],
      "stateMutability": "nonpayable",
      "type": "function"
    },
    {
      "inputs": [
        {
          "internalType": "uint256",
          "name": "amount",
          "type": "uint256"
        }
      ],
      "name": "setDailyLimit",
      "outputs": [],
      "stateMutability": "nonpayable",
      "type": "function"
    },
    {
      "inputs": [
        {
          "internalType": "address",
          "name": "guardian",
          "type": "address"
        }
      ],
      "name": "addGuardian",
      "outputs": [],
      "stateMutability": "nonpayable",
      "type": "function"
    },
    {
      "inputs": [
        {
          "internalType": "address",
          "name": "guardian",
          "type": "address"
        }
      ],
      "name": "revokeGuardian",
      "outputs": [],
      "stateMutability": "nonpayable",
      "type": "function"
    },
    {
      "inputs": [
        {
          "internalType": "address",
          "name": "addr",
          "type": "address"
        }
      ],
      "name": "isGuardian",
      "outputs": [
        {
          "internalType": "bool",
          "name": "",
          "type": "bool"
        }
      ],
      "stateMutability": "view",
      "type": "function",
      "constant": true
    },
    {
      "inputs": [],
      "name": "getGuardians",
      "outputs": [
        {
          "internalType": "address[]",
          "name": "",
          "type": "address[]"
        }
      ],
      "stateMutability": "view",
      "type": "function",
      "constant": true
    },
    {
      "inputs": [
        {
          "internalType": "address",
          "name": "newOwner_",
          "type": "address"
        }
      ],
      "name": "startRecoverGuardianOnly",
      "outputs": [],
      "stateMutability": "nonpayable",
      "type": "function"
    },
    {
      "inputs": [
        {
          "internalType": "bytes32",
          "name": "secretHash",
          "type": "bytes32"
        },
        {
          "internalType": "bytes32",
          "name": "dataHash",
          "type": "bytes32"
        }
      ],
      "name": "startRecoverCommit",
      "outputs": [],
      "stateMutability": "nonpayable",
      "type": "function"
    },
    {
      "inputs": [
        {
          "internalType": "address",
          "name": "newOwner",
          "type": "address"
        },
        {
          "internalType": "bytes32[]",
          "name": "confirmMaterial",
          "type": "bytes32[]"
        }
      ],
      "name": "startRecoveryReveal",
      "outputs": [],
      "stateMutability": "nonpayable",
      "type": "function"
    },
    {
      "inputs": [],
      "name": "isRecovering",
      "outputs": [
        {
          "internalType": "bool",
          "name": "",
          "type": "bool"
        }
      ],
      "stateMutability": "view",
      "type": "function",
      "constant": true
    },
    {
      "inputs": [],
      "name": "cancelRecovery",
      "outputs": [],
      "stateMutability": "nonpayable",
      "type": "function"
    },
    {
      "inputs": [],
      "name": "getRecovery",
      "outputs": [
        {
          "internalType": "address",
          "name": "",
          "type": "address"
        },
        {
          "internalType": "uint256",
          "name": "",
          "type": "uint256"
        }
      ],
      "stateMutability": "view",
      "type": "function",
      "constant": true
    },
    {
      "inputs": [],
      "name": "finalizeRecovery",
      "outputs": [],
      "stateMutability": "nonpayable",
      "type": "function"
    },
    {
      "inputs": [
        {
          "internalType": "address",
          "name": "newMasterCopy",
          "type": "address"
        }
      ],
      "name": "upgradeMasterCopy",
      "outputs": [],
      "stateMutability": "nonpayable",
      "type": "function"
    },
    {
      "inputs": [],
      "name": "getMasterCopy",
      "outputs": [
        {
          "internalType": "address",
          "name": "",
          "type": "address"
        }
      ],
      "stateMutability": "view",
      "type": "function",
      "constant": true
    },
    {
      "inputs": [
        {
          "internalType": "address",
          "name": "",
          "type": "address"
        },
        {
          "internalType": "address",
          "name": "",
          "type": "address"
        },
        {
          "internalType": "uint256",
          "name": "",
          "type": "uint256"
        },
        {
          "internalType": "uint256",
          "name": "",
          "type": "uint256"
        },
        {
          "internalType": "bytes",
          "name": "",
          "type": "bytes"
        }
      ],
      "name": "onERC1155Received",
      "outputs": [
        {
          "internalType": "bytes4",
          "name": "",
          "type": "bytes4"
        }
      ],
      "stateMutability": "pure",
      "type": "function",
      "constant": true
    },
    {
      "inputs": [
        {
          "internalType": "address",
          "name": "operator",
          "type": "address"
        },
        {
          "internalType": "address",
          "name": "from",
          "type": "address"
        },
        {
          "internalType": "uint256[]",
          "name": "ids",
          "type": "uint256[]"
        },
        {
          "internalType": "uint256[]",
          "name": "values",
          "type": "uint256[]"
        },
        {
          "internalType": "bytes",
          "name": "data",
          "type": "bytes"
        }
      ],
      "name": "onERC1155BatchReceived",
      "outputs": [
        {
          "internalType": "bytes4",
          "name": "",
          "type": "bytes4"
        }
      ],
      "stateMutability": "view",
      "type": "function",
      "constant": true
    },
    {
      "inputs": [
        {
          "internalType": "bytes4",
          "name": "interfaceID",
          "type": "bytes4"
        }
      ],
      "name": "supportsInterface",
      "outputs": [
        {
          "internalType": "bool",
          "name": "",
          "type": "bool"
        }
      ],
      "stateMutability": "pure",
      "type": "function",
      "constant": true
    },
    {
      "inputs": [
        {
          "internalType": "address",
          "name": "",
          "type": "address"
        },
        {
          "internalType": "address",
          "name": "",
          "type": "address"
        },
        {
          "internalType": "uint256",
          "name": "",
          "type": "uint256"
        },
        {
          "internalType": "bytes",
          "name": "",
          "type": "bytes"
        }
      ],
      "name": "onERC721Received",
      "outputs": [
        {
          "internalType": "bytes4",
          "name": "",
          "type": "bytes4"
        }
      ],
      "stateMutability": "pure",
      "type": "function",
      "constant": true
    }
  ],
  "bytecode": "0x608060405234801561001057600080fd5b506001601160006101000a81548160ff021916908315150217905550615b68806200003c6000396000f3fe6080604052600436106101e75760003560e01c80638ada066e11610102578063bc197c8111610095578063de03371511610064578063de03371514610899578063e2ccb305146108c2578063ef24c736146108d9578063f23a6e611461090257610391565b8063bc197c81146107df578063c832fe5f1461081c578063cabd82c514610847578063d50733221461087057610391565b8063abea22cc116100d1578063abea22cc1461073b578063af648c3d14610764578063b20d30a91461078d578063b6c38432146107b657610391565b80638ada066e146106935780638df2730a146106be57806391ac2788146106e7578063a526d83b1461071257610391565b80632f23a3ab1161017a578063706f765811610149578063706f7658146105d557806375a3f50d1461060157806379d3d98c1461063f578063893d20e81461066857610391565b80632f23a3ab14610522578063521eb2731461054b57806354fd4d5014610581578063693b60a2146105ac57610391565b80630c68ba21116101b65780630c68ba2114610440578063150b7a021461047d5780631f13938d146104ba578063248b1701146104e557610391565b806301ffc9a71461039657806304e80e90146103d35780630665f04b146103fe5780630ba234d61461042957610391565b3661039157600034111561038f57600160040160009054906101000a900473ffffffffffffffffffffffffffffffffffffffff1673ffffffffffffffffffffffffffffffffffffffff163373ffffffffffffffffffffffffffffffffffffffff1614801561025c5750670de0b6b3a764000034145b156103405760004790506000600160040160009054906101000a900473ffffffffffffffffffffffffffffffffffffffff1673ffffffffffffffffffffffffffffffffffffffff1682620186a0906040516102b690614cb0565b600060405180830381858888f193505050503d80600081146102f4576040519150601f19603f3d011682016040523d82523d6000602084013e6102f9565b606091505b505090508061033d576040517f08c379a00000000000000000000000000000000000000000000000000000000081526004016103349061514f565b60405180910390fd5b50505b3373ffffffffffffffffffffffffffffffffffffffff167fe1fffcc4923d04b559f4d29a8bfc6cda04eb5b0d3c460751c2402c5c5cc9109c3460405161038691906153ba565b60405180910390a25b005b600080fd5b3480156103a257600080fd5b506103bd60048036038101906103b89190613e67565b61093f565b6040516103ca9190614ed7565b60405180910390f35b3480156103df57600080fd5b506103e8610a2e565b6040516103f59190614cc5565b60405180910390f35b34801561040a57600080fd5b50610413610a57565b6040516104209190614e4f565b60405180910390f35b34801561043557600080fd5b5061043e610ae8565b005b34801561044c57600080fd5b50610467600480360381019061046291906139d5565b610c55565b6040516104749190614ed7565b60405180910390f35b34801561048957600080fd5b506104a4600480360381019061049f9190613b2f565b610cea565b6040516104b19190614ef2565b60405180910390f35b3480156104c657600080fd5b506104cf610cff565b6040516104dc9190614fcd565b60405180910390f35b3480156104f157600080fd5b5061050c60048036038101906105079190613d94565b610d94565b6040516105199190614eb5565b60405180910390f35b34801561052e57600080fd5b5061054960048036038101906105449190614019565b611074565b005b34801561055757600080fd5b506105606111d4565b6040516105789c9b9a99989796959493929190614d65565b60405180910390f35b34801561058d57600080fd5b5061059661138e565b6040516105a391906153ba565b60405180910390f35b3480156105b857600080fd5b506105d360048036038101906105ce9190613efe565b611393565b005b3480156105e157600080fd5b506105ea611620565b6040516105f8929190614e26565b60405180910390f35b34801561060d57600080fd5b5061062860048036038101906106239190613eb9565b61165d565b6040516106369291906153fe565b60405180910390f35b34801561064b57600080fd5b5061066660048036038101906106619190613fd4565b611b01565b005b34801561067457600080fd5b5061067d611bff565b60405161068a9190614cc5565b60405180910390f35b34801561069f57600080fd5b506106a8611c2c565b6040516106b591906153ba565b60405180910390f35b3480156106ca57600080fd5b506106e560048036038101906106e09190613e2b565b611c39565b005b3480156106f357600080fd5b506106fc611d72565b6040516107099190614ed7565b60405180910390f35b34801561071e57600080fd5b50610739600480360381019061073491906139d5565b611d85565b005b34801561074757600080fd5b50610762600480360381019061075d9190613a27565b611ed9565b005b34801561077057600080fd5b5061078b600480360381019061078691906139d5565b612160565b005b34801561079957600080fd5b506107b460048036038101906107af91906140a2565b6122b4565b005b3480156107c257600080fd5b506107dd60048036038101906107d891906139fe565b6123a6565b005b3480156107eb57600080fd5b5061080660048036038101906108019190613a63565b6124d2565b6040516108139190614ef2565b60405180910390f35b34801561082857600080fd5b50610831612633565b60405161083e9190614e93565b60405180910390f35b34801561085357600080fd5b5061086e60048036038101906108699190613c41565b61268d565b005b34801561087c57600080fd5b5061089760048036038101906108929190613c99565b612d1f565b005b3480156108a557600080fd5b506108c060048036038101906108bb91906139d5565b613148565b005b3480156108ce57600080fd5b506108d7613230565b005b3480156108e557600080fd5b5061090060048036038101906108fb91906139d5565b61329c565b005b34801561090e57600080fd5b5061092960048036038101906109249190613baf565b613379565b6040516109369190614ef2565b60405180910390f35b60006301ffc9a760e01b7bffffffffffffffffffffffffffffffffffffffffffffffffffffffff1916827bffffffffffffffffffffffffffffffffffffffffffffffffffffffff191614806109d8575063f23a6e6160e01b7bffffffffffffffffffffffffffffffffffffffffffffffffffffffff1916827bffffffffffffffffffffffffffffffffffffffffffffffffffffffff1916145b80610a27575063150b7a0260e01b7bffffffffffffffffffffffffffffffffffffffffffffffffffffffff1916827bffffffffffffffffffffffffffffffffffffffffffffffffffffffff1916145b9050919050565b60008060009054906101000a900473ffffffffffffffffffffffffffffffffffffffff16905090565b60606001600501805480602002602001604051908101604052809291908181526020018280548015610ade57602002820191906000526020600020905b8160009054906101000a900473ffffffffffffffffffffffffffffffffffffffff1673ffffffffffffffffffffffffffffffffffffffff1681526020019060010190808311610a94575b5050505050905090565b3073ffffffffffffffffffffffffffffffffffffffff163373ffffffffffffffffffffffffffffffffffffffff161480610b8e5750600160000160009054906101000a900473ffffffffffffffffffffffffffffffffffffffff1673ffffffffffffffffffffffffffffffffffffffff163373ffffffffffffffffffffffffffffffffffffffff16148015610b8d5750600160000160149054906101000a900460ff16155b5b610bcd576040517f08c379a0000000000000000000000000000000000000000000000000000000008152600401610bc4906151af565b60405180910390fd5b6040518060400160405280600073ffffffffffffffffffffffffffffffffffffffff16815260200160008152506001600b0160008201518160000160006101000a81548173ffffffffffffffffffffffffffffffffffffffff021916908373ffffffffffffffffffffffffffffffffffffffff16021790555060208201518160010155905050565b6000600173__Guardians_____________________________63121c95629091846040518363ffffffff1660e01b8152600401610c939291906152aa565b60206040518083038186803b158015610cab57600080fd5b505af4158015610cbf573d6000803e3d6000fd5b505050506040513d601f19601f82011682018060405250810190610ce39190613dd9565b9050919050565b600063150b7a0260e01b905095945050505050565b60606001600a018054610d1190615878565b80601f0160208091040260200160405190810160405280929190818152602001828054610d3d90615878565b8015610d8a5780601f10610d5f57610100808354040283529160200191610d8a565b820191906000526020600020905b815481529060010190602001808311610d6d57829003601f168201915b5050505050905090565b60603073ffffffffffffffffffffffffffffffffffffffff163373ffffffffffffffffffffffffffffffffffffffff161480610e3c5750600160000160009054906101000a900473ffffffffffffffffffffffffffffffffffffffff1673ffffffffffffffffffffffffffffffffffffffff163373ffffffffffffffffffffffffffffffffffffffff16148015610e3b5750600160000160149054906101000a900460ff16155b5b610e7b576040517f08c379a0000000000000000000000000000000000000000000000000000000008152600401610e72906151af565b60405180910390fd5b60008383905067ffffffffffffffff811115610ec0577f4e487b7100000000000000000000000000000000000000000000000000000000600052604160045260246000fd5b604051908082528060200260200182016040528015610ef357816020015b6060815260200190600190039081610ede5790505b50905060005b8484905081101561106957611012858583818110610f40577f4e487b7100000000000000000000000000000000000000000000000000000000600052603260045260246000fd5b9050602002810190610f5291906154d5565b6000016020810190610f6491906139d5565b868684818110610f9d577f4e487b7100000000000000000000000000000000000000000000000000000000600052603260045260246000fd5b9050602002810190610faf91906154d5565b60200135878785818110610fec577f4e487b7100000000000000000000000000000000000000000000000000000000600052603260045260246000fd5b9050602002810190610ffe91906154d5565b806040019061100d9190615427565b61338f565b82828151811061104b577f4e487b7100000000000000000000000000000000000000000000000000000000600052603260045260246000fd5b60200260200101819052508080611061906158aa565b915050610ef9565b508091505092915050565b3073ffffffffffffffffffffffffffffffffffffffff163373ffffffffffffffffffffffffffffffffffffffff16148061111a5750600160000160009054906101000a900473ffffffffffffffffffffffffffffffffffffffff1673ffffffffffffffffffffffffffffffffffffffff163373ffffffffffffffffffffffffffffffffffffffff161480156111195750600160000160149054906101000a900460ff16155b5b611159576040517f08c379a0000000000000000000000000000000000000000000000000000000008152600401611150906151af565b60405180910390fd5b600173__NameService___________________________63145f7620909187878787876040518763ffffffff1660e01b815260040161119d969594939291906152d3565b60006040518083038186803b1580156111b557600080fd5b505af41580156111c9573d6000803e3d6000fd5b505050505050505050565b60018060000160009054906101000a900473ffffffffffffffffffffffffffffffffffffffff16908060000160149054906101000a900460ff16908060020160009054906101000a900460ff16908060030154908060040160009054906101000a900473ffffffffffffffffffffffffffffffffffffffff169080600701549080600801549080600901549080600a01805461126f90615878565b80601f016020809104026020016040519081016040528092919081815260200182805461129b90615878565b80156112e85780601f106112bd576101008083540402835291602001916112e8565b820191906000526020600020905b8154815290600101906020018083116112cb57829003601f168201915b50505050509080600b016040518060400160405290816000820160009054906101000a900473ffffffffffffffffffffffffffffffffffffffff1673ffffffffffffffffffffffffffffffffffffffff1673ffffffffffffffffffffffffffffffffffffffff1681526020016001820154815250509080600e0160009054906101000a900473ffffffffffffffffffffffffffffffffffffffff169080600f015490508c565b600181565b60005a90506113a061367b565b6113aa8b8b61165d565b82600001836020018260048111156113eb577f4e487b7100000000000000000000000000000000000000000000000000000000600052602160045260246000fd5b6004811115611423577f4e487b7100000000000000000000000000000000000000000000000000000000600052602160045260246000fd5b8152508260ff1660ff16815250505073__MetaTx________________________________631815d80160018d8d8d8d8d8d8d8c8b6040518b63ffffffff1660e01b815260040161147c9a9998979695949392919061532a565b60006040518083038186803b15801561149457600080fd5b505af41580156114a8573d6000803e3d6000fd5b50505050600060603073ffffffffffffffffffffffffffffffffffffffff168d8d6040516114d7929190614c97565b6000604051808303816000865af19150503d8060008114611514576040519150601f19603f3d011682016040523d82523d6000602084013e611519565b606091505b50809250819350505060008811801561152f5750815b80156115685750600073ffffffffffffffffffffffffffffffffffffffff168573ffffffffffffffffffffffffffffffffffffffff1614155b156115d4576000620111705a8661157f91906156b2565b611589919061562b565b90508573ffffffffffffffffffffffffffffffffffffffff166108fc829081150290604051600060405180830381858888f193505050501580156115d1573d6000803e3d6000fd5b50505b8115157f8e2386b9ce82e5e79311687a54408ad06fa06a338e2057cdcdfaf3a076743f1e826000604051611609929190614f54565b60405180910390a250505050505050505050505050565b6000806001600b0160000160009054906101000a900473ffffffffffffffffffffffffffffffffffffffff166001600b0160010154915091509091565b60008060006116af85858080601f016020809104026020016040519081016040528093929190818152602001838380828437600081840152601f19601f82011690508083019250505050505050613473565b905063abea22cc60e01b7bffffffffffffffffffffffffffffffffffffffffffffffffffffffff1916817bffffffffffffffffffffffffffffffffffffffffffffffffffffffff19161480611748575063248b170160e01b7bffffffffffffffffffffffffffffffffffffffffffffffffffffffff1916817bffffffffffffffffffffffffffffffffffffffffffffffffffffffff1916145b80611797575063a526d83b60e01b7bffffffffffffffffffffffffffffffffffffffffffffffffffffffff1916817bffffffffffffffffffffffffffffffffffffffffffffffffffffffff1916145b806117e6575063af648c3d60e01b7bffffffffffffffffffffffffffffffffffffffffffffffffffffffff1916817bffffffffffffffffffffffffffffffffffffffffffffffffffffffff1916145b80611835575063de03371560e01b7bffffffffffffffffffffffffffffffffffffffffffffffffffffffff1916817bffffffffffffffffffffffffffffffffffffffffffffffffffffffff1916145b80611884575063b20d30a960e01b7bffffffffffffffffffffffffffffffffffffffffffffffffffffffff1916817bffffffffffffffffffffffffffffffffffffffffffffffffffffffff1916145b806118d3575063b6c3843260e01b7bffffffffffffffffffffffffffffffffffffffffffffffffffffffff1916817bffffffffffffffffffffffffffffffffffffffffffffffffffffffff1916145b8061192257506379d3d98c60e01b7bffffffffffffffffffffffffffffffffffffffffffffffffffffffff1916817bffffffffffffffffffffffffffffffffffffffffffffffffffffffff1916145b15611934576001809250925050611afa565b63ef24c73660e01b7bffffffffffffffffffffffffffffffffffffffffffffffffffffffff1916817bffffffffffffffffffffffffffffffffffffffffffffffffffffffff191614156119f257600260016005018054905010156119cd576040517f08c379a00000000000000000000000000000000000000000000000000000000081526004016119c49061502f565b60405180910390fd5b60006119e260016005018054905060026134c6565b9050806003935093505050611afa565b638df2730a60e01b7bffffffffffffffffffffffffffffffffffffffffffffffffffffffff1916817bffffffffffffffffffffffffffffffffffffffffffffffffffffffff19161415611a64576000611a5460016005018054905060026134c6565b9050806003935093505050611afa565b63cabd82c560e01b7bffffffffffffffffffffffffffffffffffffffffffffffffffffffff1916817bffffffffffffffffffffffffffffffffffffffffffffffffffffffff19161415611abf57600060039250925050611afa565b6040517f08c379a0000000000000000000000000000000000000000000000000000000008152600401611af19061524f565b60405180910390fd5b9250929050565b3073ffffffffffffffffffffffffffffffffffffffff163373ffffffffffffffffffffffffffffffffffffffff161480611ba75750600160000160009054906101000a900473ffffffffffffffffffffffffffffffffffffffff1673ffffffffffffffffffffffffffffffffffffffff163373ffffffffffffffffffffffffffffffffffffffff16148015611ba65750600160000160149054906101000a900460ff16155b5b611be6576040517f08c379a0000000000000000000000000000000000000000000000000000000008152600401611bdd906151af565b60405180910390fd5b81816001600a019190611bfa9291906136d0565b505050565b6000600160000160009054906101000a900473ffffffffffffffffffffffffffffffffffffffff16905090565b6000600160030154905090565b3073ffffffffffffffffffffffffffffffffffffffff163373ffffffffffffffffffffffffffffffffffffffff1614611ca7576040517f08c379a0000000000000000000000000000000000000000000000000000000008152600401611c9e9061518f565b60405180910390fd5b60006001600d0160008481526020019081526020016000206001015414611d03576040517f08c379a0000000000000000000000000000000000000000000000000000000008152600401611cfa90614fef565b60405180910390fd5b6040518060600160405280828152602001438152602001600015158152506001600d016000848152602001908152602001600020600082015181600001556020820151816001015560408201518160020160006101000a81548160ff0219169083151502179055509050505050565b6000806001600b01600101541415905090565b3073ffffffffffffffffffffffffffffffffffffffff163373ffffffffffffffffffffffffffffffffffffffff161480611e2b5750600160000160009054906101000a900473ffffffffffffffffffffffffffffffffffffffff1673ffffffffffffffffffffffffffffffffffffffff163373ffffffffffffffffffffffffffffffffffffffff16148015611e2a5750600160000160149054906101000a900460ff16155b5b611e6a576040517f08c379a0000000000000000000000000000000000000000000000000000000008152600401611e61906151af565b60405180910390fd5b600173__Guardians_____________________________6397b9ce099091836040518363ffffffff1660e01b8152600401611ea69291906152aa565b60006040518083038186803b158015611ebe57600080fd5b505af4158015611ed2573d6000803e3d6000fd5b5050505050565b3073ffffffffffffffffffffffffffffffffffffffff163373ffffffffffffffffffffffffffffffffffffffff161480611f7f5750600160000160009054906101000a900473ffffffffffffffffffffffffffffffffffffffff1673ffffffffffffffffffffffffffffffffffffffff163373ffffffffffffffffffffffffffffffffffffffff16148015611f7e5750600160000160149054906101000a900460ff16155b5b611fbe576040517f08c379a0000000000000000000000000000000000000000000000000000000008152600401611fb5906151af565b60405180910390fd5b611fd281600161350b90919063ffffffff16565b612011576040517f08c379a00000000000000000000000000000000000000000000000000000000081526004016120089061522f565b60405180910390fd5b80471015612054576040517f08c379a000000000000000000000000000000000000000000000000000000000815260040161204b9061510f565b60405180910390fd5b8060016009016000828254612069919061562b565b9250508190555060008273ffffffffffffffffffffffffffffffffffffffff1682620186a09060405161209b90614cb0565b600060405180830381858888f193505050503d80600081146120d9576040519150601f19603f3d011682016040523d82523d6000602084013e6120de565b606091505b5050905080612122576040517f08c379a0000000000000000000000000000000000000000000000000000000008152600401612119906151ef565b60405180910390fd5b7f688077ec2e4cf5b023188b3c964a1a6481e6ff3fd3d3af3971ae0bf2172f75658383604051612153929190614ce0565b60405180910390a1505050565b3073ffffffffffffffffffffffffffffffffffffffff163373ffffffffffffffffffffffffffffffffffffffff1614806122065750600160000160009054906101000a900473ffffffffffffffffffffffffffffffffffffffff1673ffffffffffffffffffffffffffffffffffffffff163373ffffffffffffffffffffffffffffffffffffffff161480156122055750600160000160149054906101000a900460ff16155b5b612245576040517f08c379a000000000000000000000000000000000000000000000000000000000815260040161223c906151af565b60405180910390fd5b600173__Guardians_____________________________63e98ee0859091836040518363ffffffff1660e01b81526004016122819291906152aa565b60006040518083038186803b15801561229957600080fd5b505af41580156122ad573d6000803e3d6000fd5b5050505050565b3073ffffffffffffffffffffffffffffffffffffffff163373ffffffffffffffffffffffffffffffffffffffff16148061235a5750600160000160009054906101000a900473ffffffffffffffffffffffffffffffffffffffff1673ffffffffffffffffffffffffffffffffffffffff163373ffffffffffffffffffffffffffffffffffffffff161480156123595750600160000160149054906101000a900460ff16155b5b612399576040517f08c379a0000000000000000000000000000000000000000000000000000000008152600401612390906151af565b60405180910390fd5b8060016007018190555050565b3073ffffffffffffffffffffffffffffffffffffffff163373ffffffffffffffffffffffffffffffffffffffff16148061244c5750600160000160009054906101000a900473ffffffffffffffffffffffffffffffffffffffff1673ffffffffffffffffffffffffffffffffffffffff163373ffffffffffffffffffffffffffffffffffffffff1614801561244b5750600160000160149054906101000a900460ff16155b5b61248b576040517f08c379a0000000000000000000000000000000000000000000000000000000008152600401612482906151af565b60405180910390fd5b80600160040160006101000a81548173ffffffffffffffffffffffffffffffffffffffff021916908373ffffffffffffffffffffffffffffffffffffffff16021790555050565b600080600090505b878790508163ffffffff16101561261c573073ffffffffffffffffffffffffffffffffffffffff1663f23a6e618b8b8b8b8663ffffffff16818110612548577f4e487b7100000000000000000000000000000000000000000000000000000000600052603260045260246000fd5b905060200201358a8a8763ffffffff1681811061258e577f4e487b7100000000000000000000000000000000000000000000000000000000600052603260045260246000fd5b9050602002013589896040518763ffffffff1660e01b81526004016125b896959493929190614d09565b60206040518083038186803b1580156125d057600080fd5b505afa1580156125e4573d6000803e3d6000fd5b505050506040513d601f19601f820116820180604052508101906126089190613e90565b508080612614906158f3565b9150506124da565b5063bc197c8160e01b905098975050505050505050565b60606001800180548060200260200160405190810160405280929190818152602001828054801561268357602002820191906000526020600020905b81548152602001906001019080831161266f575b5050505050905090565b3073ffffffffffffffffffffffffffffffffffffffff163373ffffffffffffffffffffffffffffffffffffffff16146126fb576040517f08c379a00000000000000000000000000000000000000000000000000000000081526004016126f29061518f565b60405180910390fd5b818180806020026020016040519081016040528093929190818152602001838360200280828437600081840152601f19601f82011690508083019250505050505050600073__Recovery______________________________63a6659f26836040518263ffffffff1660e01b81526004016127769190614e71565b60206040518083038186803b15801561278e57600080fd5b505af41580156127a2573d6000803e3d6000fd5b505050506040513d601f19601f820116820180604052508101906127c69190613e02565b9050600073__Recovery______________________________63396c8e65600160020160009054906101000a900460ff16856001875161280691906156b2565b8151811061283d577f4e487b7100000000000000000000000000000000000000000000000000000000600052603260045260246000fd5b60200260200101516040518363ffffffff1660e01b81526004016128629291906153d5565b60206040518083038186803b15801561287a57600080fd5b505af415801561288e573d6000803e3d6000fd5b505050506040513d601f19601f820116820180604052508101906128b291906140cb565b90506001600301548163ffffffff161015612902576040517f08c379a00000000000000000000000000000000000000000000000000000000081526004016128f99061512f565b60405180910390fd5b60326001600301548263ffffffff1661291b91906156b2565b1061295b576040517f08c379a00000000000000000000000000000000000000000000000000000000081526004016129529061516f565b60405180910390fd5b6000805b60018001805490508163ffffffff1610156129e057600180018163ffffffff16815481106129b6577f4e487b7100000000000000000000000000000000000000000000000000000000600052603260045260246000fd5b90600052602060002001548414156129cd57600191505b80806129d8906158f3565b91505061295f565b5080612a21576040517f08c379a0000000000000000000000000000000000000000000000000000000008152600401612a189061506f565b60405180910390fd5b600086866000818110612a5d577f4e487b7100000000000000000000000000000000000000000000000000000000600052603260045260246000fd5b90506020020135604051602001612a749190614c7c565b60405160208183030381529060405280519060200120905060006001600d016000838152602001908152602001600020600101541415612ae9576040517f08c379a0000000000000000000000000000000000000000000000000000000008152600401612ae09061500f565b60405180910390fd5b600015156001600d01600083815260200190815260200160002060020160009054906101000a900460ff16151514612b56576040517f08c379a0000000000000000000000000000000000000000000000000000000008152600401612b4d906150af565b60405180910390fd5b600f6001600d0160008381526020019081526020016000206001015443612b7d91906156b2565b10612bbd576040517f08c379a0000000000000000000000000000000000000000000000000000000008152600401612bb49061520f565b60405180910390fd5b60008888886000818110612bfa577f4e487b7100000000000000000000000000000000000000000000000000000000600052603260045260246000fd5b90506020020135604051602001612c12929190614c50565b6040516020818303038152906040528051906020012090506001600d016000838152602001908152602001600020600001548114612c85576040517f08c379a0000000000000000000000000000000000000000000000000000000008152600401612c7c9061526f565b60405180910390fd5b600180600d01600084815260200190815260200160002060020160006101000a81548160ff02191690831515021790555088600160000160006101000a81548173ffffffffffffffffffffffffffffffffffffffff021916908373ffffffffffffffffffffffffffffffffffffffff16021790555060018060030154612d0b919061562b565b600160030181905550505050505050505050565b896001600e0160006101000a81548173ffffffffffffffffffffffffffffffffffffffff021916908373ffffffffffffffffffffffffffffffffffffffff160217905550600073ffffffffffffffffffffffffffffffffffffffff16600160000160009054906101000a900473ffffffffffffffffffffffffffffffffffffffff1673ffffffffffffffffffffffffffffffffffffffff1614612df7576040517f08c379a0000000000000000000000000000000000000000000000000000000008152600401612dee9061504f565b60405180910390fd5b80471015612e3a576040517f08c379a0000000000000000000000000000000000000000000000000000000008152600401612e31906151cf565b60405180910390fd5b87600160000160006101000a81548173ffffffffffffffffffffffffffffffffffffffff021916908373ffffffffffffffffffffffffffffffffffffffff16021790555060005b878790508163ffffffff161015612f15576001800188888363ffffffff16818110612ed5577f4e487b7100000000000000000000000000000000000000000000000000000000600052603260045260246000fd5b9050602002013590806001815401808255809150506001900390600052602060002001600090919091909150558080612f0d906158f3565b915050612e81565b5084600160020160006101000a81548160ff021916908360ff16021790555083600160040160006101000a81548173ffffffffffffffffffffffffffffffffffffffff021916908373ffffffffffffffffffffffffffffffffffffffff16021790555082600160070181905550600089600060028110612fbe577f4e487b7100000000000000000000000000000000000000000000000000000000600052603260045260246000fd5b602002810190612fce919061547e565b905011156130de573073ffffffffffffffffffffffffffffffffffffffff16632f23a3ab8a60006002811061302c577f4e487b7100000000000000000000000000000000000000000000000000000000600052603260045260246000fd5b60200281019061303c919061547e565b8c600160028110613076577f4e487b7100000000000000000000000000000000000000000000000000000000600052603260045260246000fd5b602002810190613086919061547e565b6301e133806040518663ffffffff1660e01b81526004016130ab959493929190614f84565b600060405180830381600087803b1580156130c557600080fd5b505af11580156130d9573d6000803e3d6000fd5b505050505b600073ffffffffffffffffffffffffffffffffffffffff168273ffffffffffffffffffffffffffffffffffffffff161461313c5761313b818373ffffffffffffffffffffffffffffffffffffffff1661358790919063ffffffff16565b5b50505050505050505050565b3073ffffffffffffffffffffffffffffffffffffffff163373ffffffffffffffffffffffffffffffffffffffff16146131b6576040517f08c379a00000000000000000000000000000000000000000000000000000000081526004016131ad9061518f565b60405180910390fd5b806000806101000a81548173ffffffffffffffffffffffffffffffffffffffff021916908373ffffffffffffffffffffffffffffffffffffffff1602179055507f8a5dcb0249bae905183e794960410c37563e6ab514b1add384425d153972118d816040516132259190614cc5565b60405180910390a150565b600173__Recovery______________________________635fd7224790916040518263ffffffff1660e01b815260040161326a919061528f565b60006040518083038186803b15801561328257600080fd5b505af4158015613296573d6000803e3d6000fd5b50505050565b3073ffffffffffffffffffffffffffffffffffffffff163373ffffffffffffffffffffffffffffffffffffffff161461330a576040517f08c379a00000000000000000000000000000000000000000000000000000000081526004016133019061518f565b60405180910390fd5b600173__Recovery______________________________636ffc1c629091836040518363ffffffff1660e01b81526004016133469291906152aa565b60006040518083038186803b15801561335e57600080fd5b505af4158015613372573d6000803e3d6000fd5b5050505050565b600063f23a6e6160e01b90509695505050505050565b606060008573ffffffffffffffffffffffffffffffffffffffff168585856040516133bb929190614c97565b60006040518083038185875af1925050503d80600081146133f8576040519150601f19603f3d011682016040523d82523d6000602084013e6133fd565b606091505b508093508192505050848673ffffffffffffffffffffffffffffffffffffffff167f79ff2e3e6b1a9fd5afa9ad7b27b6075a3f05484916a94f800548947efa77e83b868685876040516134539493929190614f0d565b60405180910390a38061346a573d6000803e3d6000fd5b50949350505050565b60006004825110156134ba576040517f08c379a00000000000000000000000000000000000000000000000000000000081526004016134b19061508f565b60405180910390fd5b60208201519050919050565b60008082846134d59190615681565b9050600083856134e5919061594e565b14156134f45780915050613505565b600181613501919061562b565b9150505b92915050565b6000620151808360080154613520919061562b565b42111561353b57428360080181905550600083600901819055505b8260070154828460090154613550919061562b565b118061356e5750826009015482846009015461356c919061562b565b105b1561357c5760009050613581565b600190505b92915050565b804710156135ca576040517f08c379a00000000000000000000000000000000000000000000000000000000081526004016135c1906150ef565b60405180910390fd5b60008273ffffffffffffffffffffffffffffffffffffffff16826040516135f090614cb0565b60006040518083038185875af1925050503d806000811461362d576040519150601f19603f3d011682016040523d82523d6000602084013e613632565b606091505b5050905080613676576040517f08c379a000000000000000000000000000000000000000000000000000000000815260040161366d906150cf565b60405180910390fd5b505050565b6040518060400160405280600060ff168152602001600060048111156136ca577f4e487b7100000000000000000000000000000000000000000000000000000000600052602160045260246000fd5b81525090565b8280546136dc90615878565b90600052602060002090601f0160209004810192826136fe5760008555613745565b82601f1061371757803560ff1916838001178555613745565b82800160010185558215613745579182015b82811115613744578235825591602001919060010190613729565b5b5090506137529190613756565b5090565b5b8082111561376f576000816000905550600101613757565b5090565b60008135905061378281615a7a565b92915050565b60008135905061379781615a91565b92915050565b60008083601f8401126137af57600080fd5b8235905067ffffffffffffffff8111156137c857600080fd5b6020830191508360208202830111156137e057600080fd5b9250929050565b6000819050826020600202820111156137ff57600080fd5b92915050565b60008083601f84011261381757600080fd5b8235905067ffffffffffffffff81111561383057600080fd5b60208301915083602082028301111561384857600080fd5b9250929050565b60008083601f84011261386157600080fd5b8235905067ffffffffffffffff81111561387a57600080fd5b60208301915083602082028301111561389257600080fd5b9250929050565b6000815190506138a881615aa8565b92915050565b6000813590506138bd81615abf565b92915050565b6000815190506138d281615abf565b92915050565b6000813590506138e781615ad6565b92915050565b6000815190506138fc81615ad6565b92915050565b60008083601f84011261391457600080fd5b8235905067ffffffffffffffff81111561392d57600080fd5b60208301915083600182028301111561394557600080fd5b9250929050565b60008083601f84011261395e57600080fd5b8235905067ffffffffffffffff81111561397757600080fd5b60208301915083600182028301111561398f57600080fd5b9250929050565b6000813590506139a581615aed565b92915050565b6000815190506139ba81615b04565b92915050565b6000813590506139cf81615b1b565b92915050565b6000602082840312156139e757600080fd5b60006139f584828501613773565b91505092915050565b600060208284031215613a1057600080fd5b6000613a1e84828501613788565b91505092915050565b60008060408385031215613a3a57600080fd5b6000613a4885828601613788565b9250506020613a5985828601613996565b9150509250929050565b60008060008060008060008060a0898b031215613a7f57600080fd5b6000613a8d8b828c01613773565b9850506020613a9e8b828c01613773565b975050604089013567ffffffffffffffff811115613abb57600080fd5b613ac78b828c0161384f565b9650965050606089013567ffffffffffffffff811115613ae657600080fd5b613af28b828c0161384f565b9450945050608089013567ffffffffffffffff811115613b1157600080fd5b613b1d8b828c01613902565b92509250509295985092959890939650565b600080600080600060808688031215613b4757600080fd5b6000613b5588828901613773565b9550506020613b6688828901613773565b9450506040613b7788828901613996565b935050606086013567ffffffffffffffff811115613b9457600080fd5b613ba088828901613902565b92509250509295509295909350565b60008060008060008060a08789031215613bc857600080fd5b6000613bd689828a01613773565b9650506020613be789828a01613773565b9550506040613bf889828a01613996565b9450506060613c0989828a01613996565b935050608087013567ffffffffffffffff811115613c2657600080fd5b613c3289828a01613902565b92509250509295509295509295565b600080600060408486031215613c5657600080fd5b6000613c6486828701613773565b935050602084013567ffffffffffffffff811115613c8157600080fd5b613c8d8682870161379d565b92509250509250925092565b6000806000806000806000806000806101208b8d031215613cb957600080fd5b6000613cc78d828e01613773565b9a505060208b013567ffffffffffffffff811115613ce457600080fd5b613cf08d828e016137e7565b9950506040613d018d828e01613773565b98505060608b013567ffffffffffffffff811115613d1e57600080fd5b613d2a8d828e0161379d565b97509750506080613d3d8d828e016139c0565b95505060a0613d4e8d828e01613788565b94505060c0613d5f8d828e01613996565b93505060e0613d708d828e01613773565b925050610100613d828d828e01613996565b9150509295989b9194979a5092959850565b60008060208385031215613da757600080fd5b600083013567ffffffffffffffff811115613dc157600080fd5b613dcd85828601613805565b92509250509250929050565b600060208284031215613deb57600080fd5b6000613df984828501613899565b91505092915050565b600060208284031215613e1457600080fd5b6000613e22848285016138c3565b91505092915050565b60008060408385031215613e3e57600080fd5b6000613e4c858286016138ae565b9250506020613e5d858286016138ae565b9150509250929050565b600060208284031215613e7957600080fd5b6000613e87848285016138d8565b91505092915050565b600060208284031215613ea257600080fd5b6000613eb0848285016138ed565b91505092915050565b60008060208385031215613ecc57600080fd5b600083013567ffffffffffffffff811115613ee657600080fd5b613ef285828601613902565b92509250509250929050565b600080600080600080600080600060e08a8c031215613f1c57600080fd5b60008a013567ffffffffffffffff811115613f3657600080fd5b613f428c828d01613902565b995099505060208a013567ffffffffffffffff811115613f6157600080fd5b613f6d8c828d01613902565b97509750506040613f808c828d01613996565b9550506060613f918c828d01613996565b9450506080613fa28c828d01613996565b93505060a0613fb38c828d01613773565b92505060c0613fc48c828d01613788565b9150509295985092959850929598565b60008060208385031215613fe757600080fd5b600083013567ffffffffffffffff81111561400157600080fd5b61400d8582860161394c565b92509250509250929050565b60008060008060006060868803121561403157600080fd5b600086013567ffffffffffffffff81111561404b57600080fd5b6140578882890161394c565b9550955050602086013567ffffffffffffffff81111561407657600080fd5b6140828882890161394c565b9350935050604061409588828901613996565b9150509295509295909350565b6000602082840312156140b457600080fd5b60006140c284828501613996565b91505092915050565b6000602082840312156140dd57600080fd5b60006140eb848285016139ab565b91505092915050565b6000614100838361417d565b60208301905092915050565b6000614118838361435f565b60208301905092915050565b6000614130838361437d565b60208301905092915050565b60006141488383614431565b905092915050565b614159816157b0565b82525050565b614168816157b0565b82525050565b614177816156f8565b82525050565b614186816156e6565b82525050565b614195816156e6565b82525050565b6141a4816156e6565b82525050565b6141bb6141b6826156e6565b615920565b82525050565b60006141cc82615529565b6141d68185615587565b93506141e1836154f9565b8060005b838110156142125781516141f988826140f4565b975061420483615560565b9250506001810190506141e5565b5085935050505092915050565b600061422a82615534565b6142348185615598565b935061423f83615509565b8060005b83811015614270578151614257888261410c565b97506142628361556d565b925050600181019050614243565b5085935050505092915050565b600061428882615534565b61429281856155a9565b935061429d83615509565b8060005b838110156142ce5781516142b58882614124565b97506142c08361556d565b9250506001810190506142a1565b5085935050505092915050565b60006142e68261553f565b6142f081856155ba565b93508360208202850161430285615519565b8060005b8581101561433e578484038952815161431f858261413c565b945061432a8361557a565b925060208a01995050600181019050614306565b50829750879550505050505092915050565b6143598161570a565b82525050565b61436881615716565b82525050565b61437781615716565b82525050565b61438681615716565b82525050565b61439d61439882615716565b615932565b82525050565b6143ac81615720565b82525050565b60006143be83856155dc565b93506143cb838584615836565b6143d483615a3b565b840190509392505050565b60006143eb83856155ed565b93506143f8838584615836565b61440183615a3b565b840190509392505050565b600061441883856155fe565b9350614425838584615836565b82840190509392505050565b600061443c8261554a565b61444681856155cb565b9350614456818560208601615845565b61445f81615a3b565b840191505092915050565b60006144758261554a565b61447f81856155dc565b935061448f818560208601615845565b61449881615a3b565b840191505092915050565b6144ac816157c2565b82525050565b6144bb816157c2565b82525050565b6144ca816157d4565b82525050565b6144d9816157ee565b82525050565b60006144eb8385615609565b93506144f8838584615836565b61450183615a3b565b840190509392505050565b6000614518838561561a565b9350614525838584615836565b61452e83615a3b565b840190509392505050565b600061454482615555565b61454e8185615609565b935061455e818560208601615845565b61456781615a3b565b840191505092915050565b600061457f601483615609565b91507f434f4d4d495420414c52454144592045584953540000000000000000000000006000830152602082019050919050565b60006145bf600983615609565b91507f4e4f20434f4d4d495400000000000000000000000000000000000000000000006000830152602082019050919050565b60006145ff601a83615609565b91507f4e4f545f4d4545545f4d494e494d554d5f475541524449414e530000000000006000830152602082019050919050565b600061463f601383615609565b91507f494e495449414c495a45445f414c5245414459000000000000000000000000006000830152602082019050919050565b600061467f601083615609565b91507f554e45585045435445442050524f4f46000000000000000000000000000000006000830152602082019050919050565b60006146bf601d83615609565b91507f5574696c733a20496e76616c69642066756e6374696f6e5072656669780000006000830152602082019050919050565b60006146ff601783615609565b91507f434f4d4d495420414c52454144592052455645414c45440000000000000000006000830152602082019050919050565b600061473f603a83615609565b91507f416464726573733a20756e61626c6520746f2073656e642076616c75652c207260008301527f6563697069656e74206d617920686176652072657665727465640000000000006020830152604082019050919050565b60006147a5601d83615609565b91507f416464726573733a20696e73756666696369656e742062616c616e63650000006000830152602082019050919050565b60006147e5601283615609565b91507f6e6f7420656e6f7567682062616c616e636500000000000000000000000000006000830152602082019050919050565b6000614825602883615609565b91507f50726f766964656420636f756e746572206d757374206265206772656174657260008301527f206f722073616d650000000000000000000000000000000000000000000000006020830152604082019050919050565b600061488b601d83615609565b91507f526563656976653a2045787465726e616c2063616c6c206661696c65640000006000830152602082019050919050565b60006148cb602f83615609565b91507f50726f766964656420636f756e746572206d757374206e6f74206265206d6f7260008301527f65207468616e20353020737465707300000000000000000000000000000000006020830152604082019050919050565b6000614931600e83615609565b91507f6d757374206265206d65746174780000000000000000000000000000000000006000830152602082019050919050565b6000614971602983615609565b91507f4e4f545f46524f4d5f57414c4c45545f4f525f4f574e45525f4f525f57414c4c60008301527f45545f4c4f434b454400000000000000000000000000000000000000000000006020830152604082019050919050565b60006149d7601583615609565b91507f4e4f5420454e4f55474820544f205041592046454500000000000000000000006000830152602082019050919050565b6000614a17602283615609565b91507f4d616b655472616e736665723a2045787465726e616c2063616c6c206661696c60008301527f65640000000000000000000000000000000000000000000000000000000000006020830152604082019050919050565b6000614a7d601183615609565b91507f436f6d6d697420697320746f6f206f6c640000000000000000000000000000006000830152602082019050919050565b6000614abd601583615609565b91507f6f766572207769746864726177616c206c696d697400000000000000000000006000830152602082019050919050565b6000614afd600e83615609565b91507f756e6b6e6f776e206d6574686f640000000000000000000000000000000000006000830152602082019050919050565b6000614b3d6000836155fe565b9150600082019050919050565b6000614b57601783615609565b91507f446174616861736820646f6573206e6f74206d617463680000000000000000006000830152602082019050919050565b604082016000820151614ba0600085018261417d565b506020820151614bb36020850182614bf6565b50505050565b604082016000820151614bcf6000850182614c41565b506020820151614be260208501826144b2565b50505050565b8082525050565b8082525050565b614bff81615789565b82525050565b614c0e81615789565b82525050565b614c1d81615789565b82525050565b614c2c81615824565b82525050565b614c3b816157a3565b82525050565b614c4a816157a3565b82525050565b6000614c5c82856141aa565b601482019150614c6c828461438c565b6020820191508190509392505050565b6000614c88828461438c565b60208201915081905092915050565b6000614ca482848661440c565b91508190509392505050565b6000614cbb82614b30565b9150819050919050565b6000602082019050614cda600083018461418c565b92915050565b6000604082019050614cf56000830185614150565b614d026020830184614c05565b9392505050565b600060a082019050614d1e600083018961418c565b614d2b602083018861418c565b614d386040830187614c05565b614d456060830186614c05565b8181036080830152614d588184866143b2565b9050979650505050505050565b60006101a082019050614d7b600083018f61418c565b614d88602083018e614350565b614d95604083018d614c32565b614da2606083018c614c05565b614daf608083018b61416e565b614dbc60a083018a614c05565b614dc960c0830189614c05565b614dd660e0830188614c05565b818103610100830152614de98187614539565b9050614df9610120830186614b8a565b614e0761016083018561418c565b614e15610180830184614c05565b9d9c50505050505050505050505050565b6000604082019050614e3b600083018561418c565b614e486020830184614c05565b9392505050565b60006020820190508181036000830152614e6981846141c1565b905092915050565b60006020820190508181036000830152614e8b818461427d565b905092915050565b60006020820190508181036000830152614ead818461421f565b905092915050565b60006020820190508181036000830152614ecf81846142db565b905092915050565b6000602082019050614eec6000830184614350565b92915050565b6000602082019050614f0760008301846143a3565b92915050565b60006060820190508181036000830152614f288186886143b2565b9050614f376020830185614350565b8181036040830152614f49818461446a565b905095945050505050565b60006040820190508181036000830152614f6e818561446a565b9050614f7d60208301846144c1565b9392505050565b60006060820190508181036000830152614f9f8187896144df565b90508181036020830152614fb48185876144df565b9050614fc360408301846144d0565b9695505050505050565b60006020820190508181036000830152614fe78184614539565b905092915050565b6000602082019050818103600083015261500881614572565b9050919050565b60006020820190508181036000830152615028816145b2565b9050919050565b60006020820190508181036000830152615048816145f2565b9050919050565b6000602082019050818103600083015261506881614632565b9050919050565b6000602082019050818103600083015261508881614672565b9050919050565b600060208201905081810360008301526150a8816146b2565b9050919050565b600060208201905081810360008301526150c8816146f2565b9050919050565b600060208201905081810360008301526150e881614732565b9050919050565b6000602082019050818103600083015261510881614798565b9050919050565b60006020820190508181036000830152615128816147d8565b9050919050565b6000602082019050818103600083015261514881614818565b9050919050565b600060208201905081810360008301526151688161487e565b9050919050565b60006020820190508181036000830152615188816148be565b9050919050565b600060208201905081810360008301526151a881614924565b9050919050565b600060208201905081810360008301526151c881614964565b9050919050565b600060208201905081810360008301526151e8816149ca565b9050919050565b6000602082019050818103600083015261520881614a0a565b9050919050565b6000602082019050818103600083015261522881614a70565b9050919050565b6000602082019050818103600083015261524881614ab0565b9050919050565b6000602082019050818103600083015261526881614af0565b9050919050565b6000602082019050818103600083015261528881614b4a565b9050919050565b60006020820190506152a46000830184614be8565b92915050565b60006040820190506152bf6000830185614be8565b6152cc602083018461419b565b9392505050565b60006080820190506152e86000830189614be8565b81810360208301526152fb81878961450c565b9050818103604083015261531081858761450c565b905061531f6060830184614c14565b979650505050505050565b600061012082019050615340600083018d614bef565b8181036020830152615353818b8d6143df565b9050818103604083015261536881898b6143df565b90506153776060830188614c14565b6153846080830187614c14565b61539160a0830186614c14565b61539e60c083018561415f565b6153ab60e0830184614bb9565b9b9a5050505050505050505050565b60006020820190506153cf6000830184614c05565b92915050565b60006040820190506153ea6000830185614c23565b6153f7602083018461436e565b9392505050565b60006040820190506154136000830185614c32565b61542060208301846144a3565b9392505050565b6000808335600160200384360303811261544057600080fd5b80840192508235915067ffffffffffffffff82111561545e57600080fd5b60208301925060018202360383131561547657600080fd5b509250929050565b6000808335600160200384360303811261549757600080fd5b80840192508235915067ffffffffffffffff8211156154b557600080fd5b6020830192506001820236038313156154cd57600080fd5b509250929050565b6000823560016060038336030381126154ed57600080fd5b80830191505092915050565b6000819050602082019050919050565b6000819050602082019050919050565b6000819050602082019050919050565b600081519050919050565b600081519050919050565b600081519050919050565b600081519050919050565b600081519050919050565b6000602082019050919050565b6000602082019050919050565b6000602082019050919050565b600082825260208201905092915050565b600082825260208201905092915050565b600082825260208201905092915050565b600082825260208201905092915050565b600082825260208201905092915050565b600082825260208201905092915050565b600082825260208201905092915050565b600081905092915050565b600082825260208201905092915050565b600082825260208201905092915050565b600061563682615789565b915061564183615789565b9250827fffffffffffffffffffffffffffffffffffffffffffffffffffffffffffffffff038211156156765761567561597f565b5b828201905092915050565b600061568c82615789565b915061569783615789565b9250826156a7576156a66159ae565b5b828204905092915050565b60006156bd82615789565b91506156c883615789565b9250828210156156db576156da61597f565b5b828203905092915050565b60006156f182615769565b9050919050565b600061570382615769565b9050919050565b60008115159050919050565b6000819050919050565b60007fffffffff0000000000000000000000000000000000000000000000000000000082169050919050565b600081905061575a82615a66565b919050565b6000819050919050565b600073ffffffffffffffffffffffffffffffffffffffff82169050919050565b6000819050919050565b600063ffffffff82169050919050565b600060ff82169050919050565b60006157bb82615800565b9050919050565b60006157cd8261574c565b9050919050565b60006157e76157e28361575f565b615a4c565b9050919050565b60006157f982615789565b9050919050565b600061580b82615812565b9050919050565b600061581d82615769565b9050919050565b600061582f826157a3565b9050919050565b82818337600083830152505050565b60005b83811015615863578082015181840152602081019050615848565b83811115615872576000848401525b50505050565b6000600282049050600182168061589057607f821691505b602082108114156158a4576158a3615a0c565b5b50919050565b60006158b582615789565b91507fffffffffffffffffffffffffffffffffffffffffffffffffffffffffffffffff8214156158e8576158e761597f565b5b600182019050919050565b60006158fe82615793565b915063ffffffff8214156159155761591461597f565b5b600182019050919050565b600061592b8261593c565b9050919050565b6000819050919050565b600061594782615a59565b9050919050565b600061595982615789565b915061596483615789565b925082615974576159736159ae565b5b828206905092915050565b7f4e487b7100000000000000000000000000000000000000000000000000000000600052601160045260246000fd5b7f4e487b7100000000000000000000000000000000000000000000000000000000600052601260045260246000fd5b7f4e487b7100000000000000000000000000000000000000000000000000000000600052602160045260246000fd5b7f4e487b7100000000000000000000000000000000000000000000000000000000600052602260045260246000fd5b6000601f19601f8301169050919050565b60008160001b9050919050565b60008160601b9050919050565b60058110615a7757615a766159dd565b5b50565b615a83816156e6565b8114615a8e57600080fd5b50565b615a9a816156f8565b8114615aa557600080fd5b50565b615ab18161570a565b8114615abc57600080fd5b50565b615ac881615716565b8114615ad357600080fd5b50565b615adf81615720565b8114615aea57600080fd5b50565b615af681615789565b8114615b0157600080fd5b50565b615b0d81615793565b8114615b1857600080fd5b50565b615b24816157a3565b8114615b2f57600080fd5b5056fea26469706673582212207ba4fd1c637ae92ffd80f89695adc9dab62819d7fa98b70de818a7af72aa8b5364736f6c63430008000033",
  "immutableReferences": {},
  "source": "// SPDX-License-Identifier: GPL-3.0-only\n\npragma solidity >=0.7.6;\npragma experimental ABIEncoderV2;\n\nimport \"@openzeppelin/contracts/token/ERC721/IERC721Receiver.sol\";\nimport \"@openzeppelin/contracts/token/ERC721/IERC721.sol\";\nimport \"@openzeppelin/contracts/token/ERC1155/IERC1155Receiver.sol\";\nimport \"@openzeppelin/contracts/token/ERC1155/IERC1155.sol\";\nimport \"@openzeppelin/contracts/token/ERC20/IERC20.sol\";\nimport \"@openzeppelin/contracts/utils/Address.sol\";\n\nimport \"./core/wallet_data.sol\";\nimport \"./features/guardians.sol\";\nimport \"./features/daily_limit.sol\";\nimport \"./features/recovery.sol\";\nimport \"./features/metatx.sol\";\nimport \"./features/name_service.sol\";\n\ncontract TOTPWallet is IERC721Receiver, IERC1155Receiver {\n\n    using Address for address payable;\n    using Guardians for Core.Wallet;\n    using DailyLimit for Core.Wallet;\n    using Recovery for Core.Wallet;\n    using MetaTx for Core.Wallet;\n    using NameService for Core.Wallet;\n\n    // DATA LAYOUT - ALWAYS ADD NEW VAR TO LAST\n\n    address masterCopy;\n    Core.Wallet public wallet;\n    bool internal isImplementationContract;\n    uint public constant version = 1;\n\n    // END OF DATA LAYOUT\n    struct Call {\n        address to;\n        uint256 value;\n        bytes data;\n    }\n\n    event DebugEvent(bytes16 data);\n    event DebugEvent32(bytes32 data);\n    event DebugEventN(uint32 data);\n    event DebugEventA(address data);    \n    event DebugEvent256(uint256 data);\n    event WalletTransfer(address to, uint amount);\n    event Deposit(address indexed sender, uint value);\n    event WalletUpgraded(address newImpl);\n    event TransactionExecuted(bool indexed success, bytes returnData, bytes32 signedHash);\n    event Invoked(address indexed target, uint indexed value, bytes data, bool success, bytes returnData);\n\n    constructor() {\n        isImplementationContract = true;\n    }\n\n    modifier disableInImplementationContract\n    {\n        require(!isImplementationContract, \"DISALLOWED_ON_IMPLEMENTATION_CONTRACT\");\n        _;\n    }\n\n    // keep methods <= 8 parameters of get stack to deep\n    function initialize(\n        address              resolver_,\n        string[2]   calldata domain_, // empty means no registration\n        address             owner_, \n        bytes32[] calldata    rootHash_, \n        uint8               merkelHeight_, \n        address payable     drainAddr_, \n        uint                dailyLimit_,\n        address             feeRecipient,\n        uint                feeAmount                \n        ) external \n        // disableInImplementationContract()\n    {\n        wallet.resolver = resolver_;\n\n        //emit DebugEvent256(address(this).balance);\n        require(wallet.owner == address(0), \"INITIALIZED_ALREADY\");\n        require(address(this).balance >= feeAmount, \"NOT ENOUGH TO PAY FEE\");\n\n        wallet.owner = owner_;\n        for (uint32 i = 0; i < rootHash_.length; i++) {\n             wallet.rootHash.push(rootHash_[i]);\n        }        \n        wallet.merkelHeight = merkelHeight_;\n        wallet.drainAddr = drainAddr_;\n        wallet.dailyLimit = dailyLimit_;\n\n        // STACK TOO DEEP\n        if(bytes(domain_[0]).length > 0) {\n            this.registerENS(domain_[0], domain_[1], 60 * 60 * 24 * 365);\n        }\n\n        if (feeRecipient != address(0)) {\n            payable(feeRecipient).sendValue(feeAmount);\n        }        \n    }   \n\n    function registerENS(string calldata subdomain, string calldata domain, uint duration) external onlyFromWalletOrOwnerWhenUnlocked() {\n        wallet.registerENS(subdomain, domain, duration);\n    }\n\n    modifier onlyModule() {\n        require(msg.sender == address(this));\n        _;        \n    }\n\n    modifier onlyFromWalletOrOwnerWhenUnlocked()\n    {\n        require(\n            msg.sender == address(this) ||\n            (msg.sender == wallet.owner && !wallet.locked),\n             \"NOT_FROM_WALLET_OR_OWNER_OR_WALLET_LOCKED\"\n        );\n        _;\n    }\n\n    modifier onlySelf() {\n        require(msg.sender == address(this), \"must be metatx\");\n        _;\n    }\n\n    // confirmMaterial contains OTP + intermediatory hashes + sides\n    modifier onlyValidTOTP(bytes32[] memory confirmMaterial) \n    {\n        bytes32 reduced = Recovery._reduceConfirmMaterial(confirmMaterial);\n        uint32 counterProvided = Recovery._deriveChildTreeIdx(wallet.merkelHeight, confirmMaterial[confirmMaterial.length-1]);\n        require(counterProvided >= wallet.counter, \"Provided counter must be greater or same\");\n\n        // Google Authenticator doesn't allow custom counter or change counter back; so we must allow room to fudge\n        // allow some room if the counters were skipped at some point\n        require(counterProvided - wallet.counter  < 50, \"Provided counter must not be more than 50 steps\");\n\n        bool foundMatch = false;\n        for (uint32 i = 0; i < wallet.rootHash.length; i++) {\n            if(reduced==wallet.rootHash[i]) {\n                foundMatch = true;\n            }\n        }\n        require(foundMatch, \"UNEXPECTED PROOF\");\n        _;\n    }\n\n    function getRequiredSignatures(bytes calldata _data) public view returns (uint8, Core.OwnerSignature) {\n        bytes4 methodId = functionPrefix(_data);\n\n        if(methodId == TOTPWallet.makeTransfer.selector ||\n            methodId == TOTPWallet.multiCall.selector ||\n            methodId == TOTPWallet.addGuardian.selector ||\n            methodId == TOTPWallet.revokeGuardian.selector||\n            methodId == TOTPWallet.upgradeMasterCopy.selector ||\n            methodId == TOTPWallet.setDailyLimit.selector ||\n            methodId == TOTPWallet.setDrainAddress.selector ||\n            methodId == TOTPWallet.setHashStorageId.selector) {\n            return (1, Core.OwnerSignature.Required);\n        }\n\n        if(methodId == TOTPWallet.startRecoverGuardianOnly.selector) {\n            require(wallet.guardians.length >= 2, \"NOT_MEET_MINIMUM_GUARDIANS\");\n            uint requiredSignatures = MetaTx.ceil(wallet.guardians.length, 2);\n            return (uint8(requiredSignatures), Core.OwnerSignature.Disallowed);            \n        }\n\n        // 1 of 1 = 0 sig\n        // 2 of 2 = 1 sig + HOTP\n        // 2 of 3 = 1 sig + HOTP\n        if(methodId == TOTPWallet.startRecoverCommit.selector) {\n            uint requiredSignatures = MetaTx.ceil(wallet.guardians.length, 2);\n            return (uint8(requiredSignatures), Core.OwnerSignature.Disallowed);            \n        }\n        if(methodId == TOTPWallet.startRecoveryReveal.selector) {\n            return (0, Core.OwnerSignature.Disallowed);            \n        }\n        \n        revert(\"unknown method\");\n    }    \n\n    function executeMetaTx(\n            bytes   calldata data,\n            bytes   calldata signatures, \n            uint256 nonce,\n            uint256 gasPrice,\n            uint256 gasLimit,\n            address /*refundToken*/,\n            address payable refundAddress            \n        ) external \n    {\n        uint gasLeft = gasleft();        \n        Core.SignatureRequirement memory sigRequirement;        \n        (sigRequirement.requiredSignatures, sigRequirement.ownerSignatureRequirement) = getRequiredSignatures(data);        \n\n        MetaTx.validateTx(wallet, data, signatures, nonce, gasPrice, gasLimit, refundAddress, sigRequirement);\n\n        bool success;\n        bytes memory returnData;\n        (success, returnData) = address(this).call(data);\n\n        if(gasPrice > 0 && success && refundAddress != address(0x0)) {\n            uint gasUsed = gasLeft - gasleft() + 70000; //35k overhead\n            refundAddress.transfer(gasUsed);\n        }\n        emit TransactionExecuted(success, returnData, 0x0);        \n    }\n\n    function multiCall(Call[] calldata _transactions) external onlyFromWalletOrOwnerWhenUnlocked() returns (bytes[] memory) {\n        bytes[] memory results = new bytes[](_transactions.length);\n        for(uint i = 0; i < _transactions.length; i++) {\n            results[i] = invoke(_transactions[i].to, _transactions[i].value, _transactions[i].data);\n        }\n        return results;\n    }\n\n    function makeTransfer(address payable to, uint amount) external onlyFromWalletOrOwnerWhenUnlocked() \n    {\n        require(wallet.isUnderLimit(amount), \"over withdrawal limit\");\n        require(address(this).balance >= amount, \"not enough balance\");  \n\n        wallet.spentToday += amount;\n        (bool success,) = to.call{value: amount, gas: 100000}(\"\");\n        require(success, \"MakeTransfer: External call failed\");\n        emit WalletTransfer(to, amount);             \n    }\n\n    function getOwner()  public\n        view\n        returns (address) \n    {\n        return wallet.owner;  \n    }\n\n    function getCounter()  public\n        view\n        returns (uint) \n    {\n        return wallet.counter;\n    }\n\n    function setHashStorageId(string calldata id) external  onlyFromWalletOrOwnerWhenUnlocked()  {\n        wallet.hashStorageID = id;\n    }\n\n    function getHashStorageId() public view  returns (string memory){\n        return wallet.hashStorageID;\n    }\n    \n    function getRootHashes()\n         public\n         view\n         returns (bytes32[] memory )\n     {\n         return wallet.rootHash;\n     }\n\n    function setDrainAddress(address payable addr) external onlyFromWalletOrOwnerWhenUnlocked() {\n        wallet.drainAddr = addr;\n    }\n\n    function setDailyLimit(uint amount) external onlyFromWalletOrOwnerWhenUnlocked() {\n        wallet.dailyLimit = amount;\n    }\n    //\n    // Guardians functions\n    //\n    function addGuardian(address guardian)\n        external\n        onlyFromWalletOrOwnerWhenUnlocked()\n    {\n        wallet.addGuardian(guardian);\n    }\n\n    function revokeGuardian(address guardian)\n        external\n        onlyFromWalletOrOwnerWhenUnlocked()\n    {\n        wallet.revokeGuardian(guardian);\n    }\n\n    function isGuardian(address addr)\n         public\n         view\n         returns (bool)\n     {\n         return wallet.isGuardian(addr);\n     }\n\n     function getGuardians()\n         public\n         view\n         returns (address[] memory )\n     {\n         return wallet.guardians;\n     }\n\n    //\n    // Recovery functions\n    //\n    // In default setup with only HOTP setup, wallet recovery is done on its own.\n    // In a more secure setup with HOTP + guardians, HOTP is considered as 1 guardian.\n    //\n    // Relay/or other coordinating system will coordinate the signatures collections \n    // from guardian and submit along with the HOTP together. In rare case, HOTP may be ommitted\n    // when greater than 2 guardians can recover without HOTP.\n    function startRecoverGuardianOnly(address newOwner_) onlySelf() external {\n        // move into recovery state\n        wallet.startRecovery(newOwner_);\n    }\n\n    // recover with combination of commithash and signatures\n    function startRecoverCommit(bytes32 secretHash, bytes32 dataHash)  onlySelf() external {\n        require(wallet.commitHash[secretHash].blockNumber == 0, \"COMMIT ALREADY EXIST\");\n        wallet.commitHash[secretHash] = Core.CommitInfo(dataHash, block.number, false);\n    }\n\n    function startRecoveryReveal(address newOwner, bytes32[] calldata confirmMaterial)  onlySelf() onlyValidTOTP(confirmMaterial) external {\n        bytes32 secretHash = keccak256(abi.encodePacked(confirmMaterial[0]));\n        require(wallet.commitHash[secretHash].blockNumber != 0, \"NO COMMIT\");\n        require(wallet.commitHash[secretHash].revealed == false, \"COMMIT ALREADY REVEALED\");\n        require(block.number - wallet.commitHash[secretHash].blockNumber < 15, \"Commit is too old\");\n\n        bytes32 hash = keccak256(abi.encodePacked(newOwner, confirmMaterial[0]));\n        require(hash == wallet.commitHash[secretHash].dataHash, \"Datahash does not match\");\n\n        wallet.commitHash[secretHash].revealed = true;\n        wallet.owner = newOwner;\n        wallet.counter = wallet.counter + 1;\n    }\n\n    function isRecovering() external view returns (bool) {\n        return wallet.pendingRecovery.expiration != 0;\n    }\n\n    function cancelRecovery() external onlyFromWalletOrOwnerWhenUnlocked() {\n        wallet.pendingRecovery = Core.RecoveryInfo(address(0),0);\n    }\n\n    function getRecovery() external view returns (address,uint) {\n        return (wallet.pendingRecovery.newOwner, wallet.pendingRecovery.expiration);\n    }\n\n    function finalizeRecovery() external {\n        wallet.finalizeRecovery();\n    }\n\n    function upgradeMasterCopy(address newMasterCopy) external onlySelf() {\n        masterCopy = newMasterCopy;\n        emit WalletUpgraded(newMasterCopy);\n    }\n\n    function getMasterCopy()\n        public\n        view\n        returns (address)\n    {\n        return masterCopy;\n    }\n\n    //\n    // ERC1155 support\n    //\n    function onERC1155Received(\n        address,\n        address,\n        uint256,\n        uint256,\n        bytes calldata\n    ) external pure override returns (bytes4){\n        return this.onERC1155Received.selector;\n    }\n\n    function onERC1155BatchReceived(address operator, address from, uint256[] calldata ids, uint256[] calldata values, bytes calldata data) external view override returns (bytes4){\n        for (uint32 i = 0; i < ids.length; i++) {\n            this.onERC1155Received(operator, from, ids[i], values[i], data);\n        }\n        return this.onERC1155BatchReceived.selector;\n    }\n\n    function supportsInterface(bytes4 interfaceID) external override pure returns (bool) {\n        return interfaceID == this.supportsInterface.selector ||\n        interfaceID == this.onERC1155Received.selector ||\n        interfaceID == this.onERC721Received.selector;\n    }\n\n    function onERC721Received(\n        address,\n        address,\n        uint256,\n        bytes calldata\n    ) external pure override returns (bytes4){\n        return this.onERC721Received.selector;\n    }\n\n    //\n    // Utility functions\n    //\n\n    /**\n    * @notice Helper method to parse data and extract the method signature.\n    */\n    function functionPrefix(bytes memory _data) internal pure returns (bytes4 prefix) {\n        require(_data.length >= 4, \"Utils: Invalid functionPrefix\");\n        // solhint-disable-next-line no-inline-assembly\n        assembly {\n            prefix := mload(add(_data, 0x20))\n        }\n    }\n    /// @dev Fallback function allows to deposit ether.\n    receive() external payable {\n        if (msg.value > 0) {\n            if(msg.sender == wallet.drainAddr && msg.value == 1 ether) {\n                uint amount = address(this).balance;\n                (bool success,) = wallet.drainAddr.call{value: amount, gas: 100000}(\"\");\n                require(success, \"Receive: External call failed\");\n            }\n            emit Deposit(msg.sender, msg.value);\n        }\n    }\n\n    /**\n     * @notice Performs a generic transaction.\n     * @param _target The address for the transaction.\n     * @param _value The value of the transaction.\n     * @param _data The data of the transaction.\n     */\n    function invoke(address _target, uint _value, bytes calldata _data) internal returns (bytes memory _result) {\n        bool success;\n        (success, _result) = _target.call{value: _value}(_data);\n\n        emit Invoked(_target, _value, _data, success, _result);\n\n        if (!success) {\n            // solhint-disable-next-line no-inline-assembly\n            assembly {\n                returndatacopy(0, 0, returndatasize())\n                revert(0, returndatasize())\n            }\n        }\n    }\n}\n",
  "sourcePath": "/home/quoc/Projects/harmony-totp-pure/contracts/otp_wallet.sol",
  "compiler": {
    "name": "solc",
    "version": "0.8.0+commit.c7dfd78e.Emscripten.clang"
  },
  "schemaVersion": "3.3.4",
  "updatedAt": "2021-09-03T18:50:10.779Z",
  "networkType": "ethereum",
  "devdoc": {
    "kind": "dev",
    "methods": {
      "onERC1155BatchReceived(address,address,uint256[],uint256[],bytes)": {
        "details": "Handles the receipt of a multiple ERC1155 token types. This function is called at the end of a `safeBatchTransferFrom` after the balances have been updated. To accept the transfer(s), this must return `bytes4(keccak256(\"onERC1155BatchReceived(address,address,uint256[],uint256[],bytes)\"))` (i.e. 0xbc197c81, or its own function selector).",
        "params": {
          "data": "Additional data with no specified format",
          "from": "The address which previously owned the token",
          "ids": "An array containing ids of each token being transferred (order and length must match values array)",
          "operator": "The address which initiated the batch transfer (i.e. msg.sender)",
          "values": "An array containing amounts of each token being transferred (order and length must match ids array)"
        },
        "returns": {
          "_0": "`bytes4(keccak256(\"onERC1155BatchReceived(address,address,uint256[],uint256[],bytes)\"))` if transfer is allowed"
        }
      }
    },
    "version": 1
  },
  "userdoc": {
    "kind": "user",
    "methods": {},
    "version": 1
  }
}