{
  "contractName": "TOTPWallet",
  "abi": [
    {
      "inputs": [],
      "stateMutability": "nonpayable",
      "type": "constructor"
    },
    {
      "anonymous": false,
      "inputs": [
        {
          "indexed": true,
          "internalType": "address",
          "name": "sender",
          "type": "address"
        },
        {
          "indexed": false,
          "internalType": "uint256",
          "name": "value",
          "type": "uint256"
        }
      ],
      "name": "Deposit",
      "type": "event"
    },
    {
      "anonymous": false,
      "inputs": [
        {
          "indexed": true,
          "internalType": "address",
          "name": "target",
          "type": "address"
        },
        {
          "indexed": true,
          "internalType": "uint256",
          "name": "value",
          "type": "uint256"
        },
        {
          "indexed": false,
          "internalType": "bytes",
          "name": "data",
          "type": "bytes"
        },
        {
          "indexed": false,
          "internalType": "bool",
          "name": "success",
          "type": "bool"
        },
        {
          "indexed": false,
          "internalType": "bytes",
          "name": "returnData",
          "type": "bytes"
        }
      ],
      "name": "Invoked",
      "type": "event"
    },
    {
      "anonymous": false,
      "inputs": [
        {
          "indexed": true,
          "internalType": "bool",
          "name": "success",
          "type": "bool"
        },
        {
          "indexed": false,
          "internalType": "bytes",
          "name": "returnData",
          "type": "bytes"
        },
        {
          "indexed": false,
          "internalType": "bytes32",
          "name": "signedHash",
          "type": "bytes32"
        }
      ],
      "name": "TransactionExecuted",
      "type": "event"
    },
    {
      "anonymous": false,
      "inputs": [
        {
          "indexed": false,
          "internalType": "address",
          "name": "newImpl",
          "type": "address"
        }
      ],
      "name": "WalletUpgraded",
      "type": "event"
    },
    {
      "inputs": [],
      "name": "version",
      "outputs": [
        {
          "internalType": "uint256",
          "name": "",
          "type": "uint256"
        }
      ],
      "stateMutability": "view",
      "type": "function",
      "constant": true
    },
    {
      "inputs": [],
      "name": "wallet",
      "outputs": [
        {
          "internalType": "address",
          "name": "owner",
          "type": "address"
        },
        {
          "internalType": "bool",
          "name": "locked",
          "type": "bool"
        },
        {
          "internalType": "uint8",
          "name": "merkelHeight",
          "type": "uint8"
        },
        {
          "internalType": "uint256",
          "name": "counter",
          "type": "uint256"
        },
        {
          "internalType": "address payable",
          "name": "drainAddr",
          "type": "address"
        },
        {
          "components": [
            {
              "internalType": "address",
              "name": "key",
              "type": "address"
            },
            {
              "internalType": "uint256",
              "name": "expires",
              "type": "uint256"
            }
          ],
          "internalType": "struct Core.Session",
          "name": "session",
          "type": "tuple"
        },
        {
          "components": [
            {
              "internalType": "uint256",
              "name": "limit",
              "type": "uint256"
            },
            {
              "internalType": "uint256",
              "name": "lastDay",
              "type": "uint256"
            },
            {
              "internalType": "uint256",
              "name": "spentToday",
              "type": "uint256"
            }
          ],
          "internalType": "struct Core.DailyLimit",
          "name": "dailyLimit",
          "type": "tuple"
        },
        {
          "internalType": "string",
          "name": "hashStorageID",
          "type": "string"
        },
        {
          "components": [
            {
              "internalType": "address",
              "name": "newOwner",
              "type": "address"
            },
            {
              "internalType": "uint256",
              "name": "expiration",
              "type": "uint256"
            }
          ],
          "internalType": "struct Core.RecoveryInfo",
          "name": "pendingRecovery",
          "type": "tuple"
        },
        {
          "internalType": "address",
          "name": "resolver",
          "type": "address"
        },
        {
          "internalType": "uint256",
          "name": "nonce",
          "type": "uint256"
        }
      ],
      "stateMutability": "view",
      "type": "function",
      "constant": true
    },
    {
      "stateMutability": "payable",
      "type": "receive",
      "payable": true
    },
    {
      "inputs": [
        {
          "internalType": "address",
          "name": "resolver_",
          "type": "address"
        },
        {
          "internalType": "string[3]",
          "name": "domainAndHashId_",
          "type": "string[3]"
        },
        {
          "internalType": "address",
          "name": "owner_",
          "type": "address"
        },
        {
          "internalType": "bytes32[]",
          "name": "rootHash_",
          "type": "bytes32[]"
        },
        {
          "internalType": "uint8",
          "name": "merkelHeight_",
          "type": "uint8"
        },
        {
          "internalType": "address payable",
          "name": "drainAddr_",
          "type": "address"
        },
        {
          "internalType": "uint256",
          "name": "dailyLimit_",
          "type": "uint256"
        },
        {
          "internalType": "address",
          "name": "feeRecipient",
          "type": "address"
        },
        {
          "internalType": "uint256",
          "name": "feeAmount",
          "type": "uint256"
        }
      ],
      "name": "initialize",
      "outputs": [],
      "stateMutability": "nonpayable",
      "type": "function"
    },
    {
      "inputs": [
        {
          "internalType": "string",
          "name": "subdomain",
          "type": "string"
        },
        {
          "internalType": "string",
          "name": "domain",
          "type": "string"
        },
        {
          "internalType": "uint256",
          "name": "duration",
          "type": "uint256"
        }
      ],
      "name": "registerENS",
      "outputs": [],
      "stateMutability": "nonpayable",
      "type": "function"
    },
    {
      "inputs": [
        {
          "internalType": "bytes",
          "name": "_data",
          "type": "bytes"
        }
      ],
      "name": "getRequiredSignatures",
      "outputs": [
        {
          "internalType": "uint8",
          "name": "",
          "type": "uint8"
        },
        {
          "internalType": "enum Core.OwnerSignature",
          "name": "",
          "type": "uint8"
        }
      ],
      "stateMutability": "view",
      "type": "function",
      "constant": true
    },
    {
      "inputs": [
        {
          "internalType": "bytes",
          "name": "data",
          "type": "bytes"
        },
        {
          "internalType": "bytes",
          "name": "signatures",
          "type": "bytes"
        },
        {
          "internalType": "uint256",
          "name": "nonce",
          "type": "uint256"
        },
        {
          "internalType": "uint256",
          "name": "gasPrice",
          "type": "uint256"
        },
        {
          "internalType": "uint256",
          "name": "gasLimit",
          "type": "uint256"
        },
        {
          "internalType": "address",
          "name": "",
          "type": "address"
        },
        {
          "internalType": "address payable",
          "name": "refundAddress",
          "type": "address"
        }
      ],
      "name": "executeMetaTx",
      "outputs": [],
      "stateMutability": "nonpayable",
      "type": "function"
    },
    {
      "inputs": [
        {
          "components": [
            {
              "internalType": "address",
              "name": "to",
              "type": "address"
            },
            {
              "internalType": "uint256",
              "name": "value",
              "type": "uint256"
            },
            {
              "internalType": "bytes",
              "name": "data",
              "type": "bytes"
            }
          ],
          "internalType": "struct TOTPWallet.Call[]",
          "name": "_transactions",
          "type": "tuple[]"
        }
      ],
      "name": "multiCall",
      "outputs": [
        {
          "internalType": "bytes[]",
          "name": "",
          "type": "bytes[]"
        }
      ],
      "stateMutability": "nonpayable",
      "type": "function"
    },
    {
      "inputs": [
        {
          "components": [
            {
              "internalType": "address",
              "name": "to",
              "type": "address"
            },
            {
              "internalType": "uint256",
              "name": "value",
              "type": "uint256"
            },
            {
              "internalType": "bytes",
              "name": "data",
              "type": "bytes"
            }
          ],
          "internalType": "struct TOTPWallet.Call[]",
          "name": "_transactions",
          "type": "tuple[]"
        }
      ],
      "name": "multiCallWithSession",
      "outputs": [
        {
          "internalType": "bytes[]",
          "name": "",
          "type": "bytes[]"
        }
      ],
      "stateMutability": "nonpayable",
      "type": "function"
    },
    {
      "inputs": [
        {
          "internalType": "uint256",
          "name": "duration",
          "type": "uint256"
        }
      ],
      "name": "startSession",
      "outputs": [],
      "stateMutability": "nonpayable",
      "type": "function"
    },
    {
      "inputs": [],
      "name": "clearSession",
      "outputs": [],
      "stateMutability": "nonpayable",
      "type": "function"
    },
    {
      "inputs": [],
      "name": "getOwner",
      "outputs": [
        {
          "internalType": "address",
          "name": "",
          "type": "address"
        }
      ],
      "stateMutability": "view",
      "type": "function",
      "constant": true
    },
    {
      "inputs": [],
      "name": "getCounter",
      "outputs": [
        {
          "internalType": "uint256",
          "name": "",
          "type": "uint256"
        }
      ],
      "stateMutability": "view",
      "type": "function",
      "constant": true
    },
    {
      "inputs": [
        {
          "internalType": "string",
          "name": "id",
          "type": "string"
        }
      ],
      "name": "setHashStorageId",
      "outputs": [],
      "stateMutability": "nonpayable",
      "type": "function"
    },
    {
      "inputs": [],
      "name": "getHashStorageId",
      "outputs": [
        {
          "internalType": "string",
          "name": "",
          "type": "string"
        }
      ],
      "stateMutability": "view",
      "type": "function",
      "constant": true
    },
    {
      "inputs": [],
      "name": "getRootHashes",
      "outputs": [
        {
          "internalType": "bytes32[]",
          "name": "",
          "type": "bytes32[]"
        }
      ],
      "stateMutability": "view",
      "type": "function",
      "constant": true
    },
    {
      "inputs": [
        {
          "internalType": "address payable",
          "name": "addr",
          "type": "address"
        }
      ],
      "name": "setDrainAddress",
      "outputs": [],
      "stateMutability": "nonpayable",
      "type": "function"
    },
    {
      "inputs": [
        {
          "internalType": "uint256",
          "name": "amount",
          "type": "uint256"
        }
      ],
      "name": "setDailyLimit",
      "outputs": [],
      "stateMutability": "nonpayable",
      "type": "function"
    },
    {
      "inputs": [
        {
          "internalType": "address",
          "name": "guardian",
          "type": "address"
        }
      ],
      "name": "addGuardian",
      "outputs": [],
      "stateMutability": "nonpayable",
      "type": "function"
    },
    {
      "inputs": [
        {
          "internalType": "address",
          "name": "guardian",
          "type": "address"
        }
      ],
      "name": "revokeGuardian",
      "outputs": [],
      "stateMutability": "nonpayable",
      "type": "function"
    },
    {
      "inputs": [
        {
          "internalType": "address",
          "name": "addr",
          "type": "address"
        }
      ],
      "name": "isGuardian",
      "outputs": [
        {
          "internalType": "bool",
          "name": "",
          "type": "bool"
        }
      ],
      "stateMutability": "view",
      "type": "function",
      "constant": true
    },
    {
      "inputs": [],
      "name": "getGuardians",
      "outputs": [
        {
          "internalType": "address[]",
          "name": "",
          "type": "address[]"
        }
      ],
      "stateMutability": "view",
      "type": "function",
      "constant": true
    },
    {
      "inputs": [
        {
          "internalType": "address",
          "name": "newOwner_",
          "type": "address"
        }
      ],
      "name": "startRecoverGuardianOnly",
      "outputs": [],
      "stateMutability": "nonpayable",
      "type": "function"
    },
    {
      "inputs": [
        {
          "internalType": "bytes32",
          "name": "secretHash",
          "type": "bytes32"
        },
        {
          "internalType": "bytes32",
          "name": "dataHash",
          "type": "bytes32"
        }
      ],
      "name": "startRecoverCommit",
      "outputs": [],
      "stateMutability": "nonpayable",
      "type": "function"
    },
    {
      "inputs": [
        {
          "internalType": "address",
          "name": "newOwner",
          "type": "address"
        },
        {
          "internalType": "bytes32[]",
          "name": "confirmMaterial",
          "type": "bytes32[]"
        }
      ],
      "name": "startRecoveryReveal",
      "outputs": [],
      "stateMutability": "nonpayable",
      "type": "function"
    },
    {
      "inputs": [
        {
          "internalType": "address",
          "name": "newMasterCopy",
          "type": "address"
        }
      ],
      "name": "upgradeMasterCopy",
      "outputs": [],
      "stateMutability": "nonpayable",
      "type": "function"
    },
    {
      "inputs": [],
      "name": "getMasterCopy",
      "outputs": [
        {
          "internalType": "address",
          "name": "",
          "type": "address"
        }
      ],
      "stateMutability": "view",
      "type": "function",
      "constant": true
    },
    {
      "inputs": [
        {
          "internalType": "address",
          "name": "",
          "type": "address"
        },
        {
          "internalType": "address",
          "name": "",
          "type": "address"
        },
        {
          "internalType": "uint256",
          "name": "",
          "type": "uint256"
        },
        {
          "internalType": "uint256",
          "name": "",
          "type": "uint256"
        },
        {
          "internalType": "bytes",
          "name": "",
          "type": "bytes"
        }
      ],
      "name": "onERC1155Received",
      "outputs": [
        {
          "internalType": "bytes4",
          "name": "",
          "type": "bytes4"
        }
      ],
      "stateMutability": "pure",
      "type": "function",
      "constant": true
    },
    {
      "inputs": [
        {
          "internalType": "address",
          "name": "operator",
          "type": "address"
        },
        {
          "internalType": "address",
          "name": "from",
          "type": "address"
        },
        {
          "internalType": "uint256[]",
          "name": "ids",
          "type": "uint256[]"
        },
        {
          "internalType": "uint256[]",
          "name": "values",
          "type": "uint256[]"
        },
        {
          "internalType": "bytes",
          "name": "data",
          "type": "bytes"
        }
      ],
      "name": "onERC1155BatchReceived",
      "outputs": [
        {
          "internalType": "bytes4",
          "name": "",
          "type": "bytes4"
        }
      ],
      "stateMutability": "view",
      "type": "function",
      "constant": true
    },
    {
      "inputs": [
        {
          "internalType": "bytes4",
          "name": "interfaceID",
          "type": "bytes4"
        }
      ],
      "name": "supportsInterface",
      "outputs": [
        {
          "internalType": "bool",
          "name": "",
          "type": "bool"
        }
      ],
      "stateMutability": "pure",
      "type": "function",
      "constant": true
    },
    {
      "inputs": [
        {
          "internalType": "address",
          "name": "",
          "type": "address"
        },
        {
          "internalType": "address",
          "name": "",
          "type": "address"
        },
        {
          "internalType": "uint256",
          "name": "",
          "type": "uint256"
        },
        {
          "internalType": "bytes",
          "name": "",
          "type": "bytes"
        }
      ],
      "name": "onERC721Received",
      "outputs": [
        {
          "internalType": "bytes4",
          "name": "",
          "type": "bytes4"
        }
      ],
      "stateMutability": "pure",
      "type": "function",
      "constant": true
    },
    {
      "inputs": [
        {
          "internalType": "bytes32",
          "name": "_msgHash",
          "type": "bytes32"
        },
        {
          "internalType": "bytes",
          "name": "_signature",
          "type": "bytes"
        }
      ],
      "name": "isValidSignature",
      "outputs": [
        {
          "internalType": "bytes4",
          "name": "",
          "type": "bytes4"
        }
      ],
      "stateMutability": "view",
      "type": "function",
      "constant": true
    }
  ],
  "bytecode": "0x608060405234801561001057600080fd5b506001601360006101000a81548160ff021916908315150217905550615f89806200003c6000396000f3fe6080604052600436106101dc5760003560e01c806379d3d98c11610102578063b6c3843211610095578063d86dde5011610064578063d86dde5014610899578063de033715146108b0578063ef24c736146108d9578063f23a6e611461090257610386565b8063b6c38432146107df578063bc197c8114610808578063c832fe5f14610845578063cabd82c51461087057610386565b80638df2730a116100d15780638df2730a1461073b578063a526d83b14610764578063af648c3d1461078d578063b20d30a9146107b657610386565b806379d3d98c1461067f57806383183a1b146106a8578063893d20e8146106e55780638ada066e1461071057610386565b8063248b17011161017a578063693b60a211610149578063693b60a2146105c657806375a3f50d146105ef578063771276121461062d578063782c25bd1461065657610386565b8063248b1701146105005780632f23a3ab1461053d578063521eb2731461056657806354fd4d501461059b57610386565b80630c68ba21116101b65780630c68ba211461041e578063150b7a021461045b5780631626ba7e146104985780631f13938d146104d557610386565b806301ffc9a71461038b57806304e80e90146103c85780630665f04b146103f357610386565b3661038657600034111561038457600160040160009054906101000a900473ffffffffffffffffffffffffffffffffffffffff1673ffffffffffffffffffffffffffffffffffffffff163373ffffffffffffffffffffffffffffffffffffffff161480156102515750670de0b6b3a764000034145b156103355760004790506000600160040160009054906101000a900473ffffffffffffffffffffffffffffffffffffffff1673ffffffffffffffffffffffffffffffffffffffff1682620186a0906040516102ab90615122565b600060405180830381858888f193505050503d80600081146102e9576040519150601f19603f3d011682016040523d82523d6000602084013e6102ee565b606091505b5050905080610332576040517f08c379a00000000000000000000000000000000000000000000000000000000081526004016103299061551d565b60405180910390fd5b50505b3373ffffffffffffffffffffffffffffffffffffffff167fe1fffcc4923d04b559f4d29a8bfc6cda04eb5b0d3c460751c2402c5c5cc9109c3460405161037b919061579d565b60405180910390a25b005b600080fd5b34801561039757600080fd5b506103b260048036038101906103ad9190614361565b61093f565b6040516103bf91906152c7565b60405180910390f35b3480156103d457600080fd5b506103dd610a7d565b6040516103ea9190615137565b60405180910390f35b3480156103ff57600080fd5b50610408610aa6565b6040516104159190615261565b60405180910390f35b34801561042a57600080fd5b5061044560048036038101906104409190613ee0565b610b37565b60405161045291906152c7565b60405180910390f35b34801561046757600080fd5b50610482600480360381019061047d9190613ffe565b610bcc565b60405161048f9190615327565b60405180910390f35b3480156104a457600080fd5b506104bf60048036038101906104ba919061430d565b610be1565b6040516104cc9190615327565b60405180910390f35b3480156104e157600080fd5b506104ea610c84565b6040516104f791906153bb565b60405180910390f35b34801561050c57600080fd5b5061052760048036038101906105229190614263565b610d19565b60405161053491906152a5565b60405180910390f35b34801561054957600080fd5b50610564600480360381019061055f9190614513565b6110fb565b005b34801561057257600080fd5b5061057b61125b565b6040516105929b9a999897969594939291906151ae565b60405180910390f35b3480156105a757600080fd5b506105b06114a1565b6040516105bd919061579d565b60405180910390f35b3480156105d257600080fd5b506105ed60048036038101906105e891906143f8565b6114a6565b005b3480156105fb57600080fd5b50610616600480360381019061061191906143b3565b611733565b6040516106249291906157b8565b60405180910390f35b34801561063957600080fd5b50610654600480360381019061064f919061459c565b611bef565b005b34801561066257600080fd5b5061067d60048036038101906106789190614168565b611ce4565b005b34801561068b57600080fd5b506106a660048036038101906106a191906144ce565b61216d565b005b3480156106b457600080fd5b506106cf60048036038101906106ca9190614263565b61226b565b6040516106dc91906152a5565b60405180910390f35b3480156106f157600080fd5b506106fa6124d4565b6040516107079190615137565b60405180910390f35b34801561071c57600080fd5b50610725612501565b604051610732919061579d565b60405180910390f35b34801561074757600080fd5b50610762600480360381019061075d91906142d1565b61250e565b005b34801561077057600080fd5b5061078b60048036038101906107869190613ee0565b612647565b005b34801561079957600080fd5b506107b460048036038101906107af9190613ee0565b61279b565b005b3480156107c257600080fd5b506107dd60048036038101906107d8919061459c565b6128ef565b005b3480156107eb57600080fd5b5061080660048036038101906108019190613f09565b61296d565b005b34801561081457600080fd5b5061082f600480360381019061082a9190613f32565b612a22565b60405161083c9190615327565b60405180910390f35b34801561085157600080fd5b5061085a612b83565b6040516108679190615283565b60405180910390f35b34801561087c57600080fd5b5061089760048036038101906108929190614110565b612bdd565b005b3480156108a557600080fd5b506108ae612ff4565b005b3480156108bc57600080fd5b506108d760048036038101906108d29190613ee0565b6130e9565b005b3480156108e557600080fd5b5061090060048036038101906108fb9190613ee0565b6131d1565b005b34801561090e57600080fd5b506109296004803603810190610924919061407e565b6132ae565b6040516109369190615327565b60405180910390f35b60006301ffc9a760e01b7bffffffffffffffffffffffffffffffffffffffffffffffffffffffff1916827bffffffffffffffffffffffffffffffffffffffffffffffffffffffff191614806109d8575063f23a6e6160e01b7bffffffffffffffffffffffffffffffffffffffffffffffffffffffff1916827bffffffffffffffffffffffffffffffffffffffffffffffffffffffff1916145b80610a27575063150b7a0260e01b7bffffffffffffffffffffffffffffffffffffffffffffffffffffffff1916827bffffffffffffffffffffffffffffffffffffffffffffffffffffffff1916145b80610a765750631626ba7e60e01b7bffffffffffffffffffffffffffffffffffffffffffffffffffffffff1916827bffffffffffffffffffffffffffffffffffffffffffffffffffffffff1916145b9050919050565b60008060009054906101000a900473ffffffffffffffffffffffffffffffffffffffff16905090565b60606001600501805480602002602001604051908101604052809291908181526020018280548015610b2d57602002820191906000526020600020905b8160009054906101000a900473ffffffffffffffffffffffffffffffffffffffff1673ffffffffffffffffffffffffffffffffffffffff1681526020019060010190808311610ae3575b5050505050905090565b6000600173__Guardians_____________________________63121c95629091846040518363ffffffff1660e01b8152600401610b7592919061565d565b60206040518083038186803b158015610b8d57600080fd5b505af4158015610ba1573d6000803e3d6000fd5b505050506040513d601f19601f82011682018060405250810190610bc591906142a8565b9050919050565b600063150b7a0260e01b905095945050505050565b60006041825114610c27576040517f08c379a0000000000000000000000000000000000000000000000000000000008152600401610c1e906155fd565b60405180910390fd5b610c356001848460016132c4565b610c74576040517f08c379a0000000000000000000000000000000000000000000000000000000008152600401610c6b9061563d565b60405180910390fd5b631626ba7e60e01b905092915050565b60606001600c018054610c9690615c81565b80601f0160208091040260200160405190810160405280929190818152602001828054610cc290615c81565b8015610d0f5780601f10610ce457610100808354040283529160200191610d0f565b820191906000526020600020905b815481529060010190602001808311610cf257829003601f168201915b5050505050905090565b60603073ffffffffffffffffffffffffffffffffffffffff163373ffffffffffffffffffffffffffffffffffffffff161480610dc15750600160000160009054906101000a900473ffffffffffffffffffffffffffffffffffffffff1673ffffffffffffffffffffffffffffffffffffffff163373ffffffffffffffffffffffffffffffffffffffff16148015610dc05750600160000160149054906101000a900460ff16155b5b610e00576040517f08c379a0000000000000000000000000000000000000000000000000000000008152600401610df79061559d565b60405180910390fd5b60008383905067ffffffffffffffff811115610e45577f4e487b7100000000000000000000000000000000000000000000000000000000600052604160045260246000fd5b604051908082528060200260200182016040528015610e7857816020015b6060815260200190600190039081610e635790505b50905060005b848490508110156110f057366000868684818110610ec5577f4e487b7100000000000000000000000000000000000000000000000000000000600052603260045260246000fd5b9050602002810190610ed7919061588f565b8060400190610ee691906157e1565b915091506000878785818110610f25577f4e487b7100000000000000000000000000000000000000000000000000000000600052603260045260246000fd5b9050602002810190610f37919061588f565b6020013590506000600160050180549050111561102e576004838390501080610fb25750610fb0610fab84848080601f016020809104026020016040519081016040528093929190818152602001838380828437600081840152601f19601f82011690508083019250505050505050613550565b6135a3565b155b610fbb57600080fd5b610fcf81600161369290919063ffffffff16565b61100e576040517f08c379a00000000000000000000000000000000000000000000000000000000081526004016110059061541d565b60405180910390fd5b80600160090160020160008282546110269190615a46565b925050819055505b61109688888681811061106a577f4e487b7100000000000000000000000000000000000000000000000000000000600052603260045260246000fd5b905060200281019061107c919061588f565b600001602081019061108e9190613ee0565b828585613723565b8585815181106110cf577f4e487b7100000000000000000000000000000000000000000000000000000000600052603260045260246000fd5b602002602001018190525050505080806110e890615cb3565b915050610e7e565b508091505092915050565b3073ffffffffffffffffffffffffffffffffffffffff163373ffffffffffffffffffffffffffffffffffffffff1614806111a15750600160000160009054906101000a900473ffffffffffffffffffffffffffffffffffffffff1673ffffffffffffffffffffffffffffffffffffffff163373ffffffffffffffffffffffffffffffffffffffff161480156111a05750600160000160149054906101000a900460ff16155b5b6111e0576040517f08c379a00000000000000000000000000000000000000000000000000000000081526004016111d79061559d565b60405180910390fd5b600173__NameService___________________________63145f7620909187878787876040518763ffffffff1660e01b8152600401611224969594939291906156b6565b60006040518083038186803b15801561123c57600080fd5b505af4158015611250573d6000803e3d6000fd5b505050505050505050565b60018060000160009054906101000a900473ffffffffffffffffffffffffffffffffffffffff16908060000160149054906101000a900460ff16908060020160009054906101000a900460ff16908060030154908060040160009054906101000a900473ffffffffffffffffffffffffffffffffffffffff1690806007016040518060400160405290816000820160009054906101000a900473ffffffffffffffffffffffffffffffffffffffff1673ffffffffffffffffffffffffffffffffffffffff1673ffffffffffffffffffffffffffffffffffffffff168152602001600182015481525050908060090160405180606001604052908160008201548152602001600182015481526020016002820154815250509080600c01805461138290615c81565b80601f01602080910402602001604051908101604052809291908181526020018280546113ae90615c81565b80156113fb5780601f106113d0576101008083540402835291602001916113fb565b820191906000526020600020905b8154815290600101906020018083116113de57829003601f168201915b50505050509080600d016040518060400160405290816000820160009054906101000a900473ffffffffffffffffffffffffffffffffffffffff1673ffffffffffffffffffffffffffffffffffffffff1673ffffffffffffffffffffffffffffffffffffffff168152602001600182015481525050908060100160009054906101000a900473ffffffffffffffffffffffffffffffffffffffff1690806011015490508b565b600281565b60005a90506114b3613b48565b6114bd8b8b611733565b82600001836020018260048111156114fe577f4e487b7100000000000000000000000000000000000000000000000000000000600052602160045260246000fd5b6004811115611536577f4e487b7100000000000000000000000000000000000000000000000000000000600052602160045260246000fd5b8152508260ff1660ff16815250505073__MetaTx________________________________631815d80160018d8d8d8d8d8d8d8c8b6040518b63ffffffff1660e01b815260040161158f9a9998979695949392919061570d565b60006040518083038186803b1580156115a757600080fd5b505af41580156115bb573d6000803e3d6000fd5b50505050600060603073ffffffffffffffffffffffffffffffffffffffff168d8d6040516115ea929190615109565b6000604051808303816000865af19150503d8060008114611627576040519150601f19603f3d011682016040523d82523d6000602084013e61162c565b606091505b5080925081935050506000881180156116425750815b801561167b5750600073ffffffffffffffffffffffffffffffffffffffff168573ffffffffffffffffffffffffffffffffffffffff1614155b156116e7576000620111705a866116929190615acd565b61169c9190615a46565b90508573ffffffffffffffffffffffffffffffffffffffff166108fc829081150290604051600060405180830381858888f193505050501580156116e4573d6000803e3d6000fd5b50505b8115157f8e2386b9ce82e5e79311687a54408ad06fa06a338e2057cdcdfaf3a076743f1e82600060405161171c929190615342565b60405180910390a250505050505050505050505050565b600080600061178585858080601f016020809104026020016040519081016040528093929190818152602001838380828437600081840152601f19601f82011690508083019250505050505050613550565b905063248b170160e01b7bffffffffffffffffffffffffffffffffffffffffffffffffffffffff1916817bffffffffffffffffffffffffffffffffffffffffffffffffffffffff1916148061181e575063a526d83b60e01b7bffffffffffffffffffffffffffffffffffffffffffffffffffffffff1916817bffffffffffffffffffffffffffffffffffffffffffffffffffffffff1916145b8061186d575063af648c3d60e01b7bffffffffffffffffffffffffffffffffffffffffffffffffffffffff1916817bffffffffffffffffffffffffffffffffffffffffffffffffffffffff1916145b806118bc575063d86dde5060e01b7bffffffffffffffffffffffffffffffffffffffffffffffffffffffff1916817bffffffffffffffffffffffffffffffffffffffffffffffffffffffff1916145b8061190b57506379d3d98c60e01b7bffffffffffffffffffffffffffffffffffffffffffffffffffffffff1916817bffffffffffffffffffffffffffffffffffffffffffffffffffffffff1916145b1561191d576001809250925050611be8565b6000600160050180549050141561194e57611937816135a3565b15611949576001809250925050611be8565b611a22565b637712761260e01b7bffffffffffffffffffffffffffffffffffffffffffffffffffffffff1916817bffffffffffffffffffffffffffffffffffffffffffffffffffffffff191614156119c65760016119b060016005018054905060026137b2565b6119ba9190615a46565b60019250925050611be8565b6383183a1b60e01b7bffffffffffffffffffffffffffffffffffffffffffffffffffffffff1916817bffffffffffffffffffffffffffffffffffffffffffffffffffffffff19161415611a2157600160049250925050611be8565b5b63ef24c73660e01b7bffffffffffffffffffffffffffffffffffffffffffffffffffffffff1916817bffffffffffffffffffffffffffffffffffffffffffffffffffffffff19161415611ae05760026001600501805490501015611abb576040517f08c379a0000000000000000000000000000000000000000000000000000000008152600401611ab29061545d565b60405180910390fd5b6000611ad060016005018054905060026137b2565b9050806003935093505050611be8565b638df2730a60e01b7bffffffffffffffffffffffffffffffffffffffffffffffffffffffff1916817bffffffffffffffffffffffffffffffffffffffffffffffffffffffff19161415611b52576000611b4260016005018054905060026137b2565b9050806003935093505050611be8565b63cabd82c560e01b7bffffffffffffffffffffffffffffffffffffffffffffffffffffffff1916817bffffffffffffffffffffffffffffffffffffffffffffffffffffffff19161415611bad57600060039250925050611be8565b6040517f08c379a0000000000000000000000000000000000000000000000000000000008152600401611bdf906155dd565b60405180910390fd5b9250929050565b3073ffffffffffffffffffffffffffffffffffffffff163373ffffffffffffffffffffffffffffffffffffffff1614611c5d576040517f08c379a0000000000000000000000000000000000000000000000000000000008152600401611c549061557d565b60405180910390fd5b600160000160009054906101000a900473ffffffffffffffffffffffffffffffffffffffff16600160070160000160006101000a81548173ffffffffffffffffffffffffffffffffffffffff021916908373ffffffffffffffffffffffffffffffffffffffff1602179055508042611cd59190615a46565b60016007016001018190555050565b89600160100160006101000a81548173ffffffffffffffffffffffffffffffffffffffff021916908373ffffffffffffffffffffffffffffffffffffffff160217905550600073ffffffffffffffffffffffffffffffffffffffff16600160000160009054906101000a900473ffffffffffffffffffffffffffffffffffffffff1673ffffffffffffffffffffffffffffffffffffffff1614611dbc576040517f08c379a0000000000000000000000000000000000000000000000000000000008152600401611db39061553d565b60405180910390fd5b80471015611dff576040517f08c379a0000000000000000000000000000000000000000000000000000000008152600401611df6906153dd565b60405180910390fd5b87600160000160006101000a81548173ffffffffffffffffffffffffffffffffffffffff021916908373ffffffffffffffffffffffffffffffffffffffff16021790555060005b878790508163ffffffff161015611eda576001800188888363ffffffff16818110611e9a577f4e487b7100000000000000000000000000000000000000000000000000000000600052603260045260246000fd5b9050602002013590806001815401808255809150506001900390600052602060002001600090919091909150558080611ed290615cfc565b915050611e46565b5084600160020160006101000a81548160ff021916908360ff16021790555083600160040160006101000a81548173ffffffffffffffffffffffffffffffffffffffff021916908373ffffffffffffffffffffffffffffffffffffffff16021790555082600160090160000181905550600089600060038110611f86577f4e487b7100000000000000000000000000000000000000000000000000000000600052603260045260246000fd5b602002810190611f969190615838565b905011156120a6573073ffffffffffffffffffffffffffffffffffffffff16632f23a3ab8a600060038110611ff4577f4e487b7100000000000000000000000000000000000000000000000000000000600052603260045260246000fd5b6020028101906120049190615838565b8c60016003811061203e577f4e487b7100000000000000000000000000000000000000000000000000000000600052603260045260246000fd5b60200281019061204e9190615838565b6301e133806040518663ffffffff1660e01b8152600401612073959493929190615372565b600060405180830381600087803b15801561208d57600080fd5b505af11580156120a1573d6000803e3d6000fd5b505050505b600073ffffffffffffffffffffffffffffffffffffffff168273ffffffffffffffffffffffffffffffffffffffff161461210457612103818373ffffffffffffffffffffffffffffffffffffffff166137f790919063ffffffff16565b5b8860026003811061213e577f4e487b7100000000000000000000000000000000000000000000000000000000600052603260045260246000fd5b60200281019061214e9190615838565b6001600c019190612160929190613b9d565b5050505050505050505050565b3073ffffffffffffffffffffffffffffffffffffffff163373ffffffffffffffffffffffffffffffffffffffff1614806122135750600160000160009054906101000a900473ffffffffffffffffffffffffffffffffffffffff1673ffffffffffffffffffffffffffffffffffffffff163373ffffffffffffffffffffffffffffffffffffffff161480156122125750600160000160149054906101000a900460ff16155b5b612252576040517f08c379a00000000000000000000000000000000000000000000000000000000081526004016122499061559d565b60405180910390fd5b81816001600c019190612266929190613b9d565b505050565b60603073ffffffffffffffffffffffffffffffffffffffff163373ffffffffffffffffffffffffffffffffffffffff16146122db576040517f08c379a00000000000000000000000000000000000000000000000000000000081526004016122d29061557d565b60405180910390fd5b60008383905067ffffffffffffffff811115612320577f4e487b7100000000000000000000000000000000000000000000000000000000600052604160045260246000fd5b60405190808252806020026020018201604052801561235357816020015b606081526020019060019003908161233e5790505b50905060005b848490508110156124c9576124728585838181106123a0577f4e487b7100000000000000000000000000000000000000000000000000000000600052603260045260246000fd5b90506020028101906123b2919061588f565b60000160208101906123c49190613ee0565b8686848181106123fd577f4e487b7100000000000000000000000000000000000000000000000000000000600052603260045260246000fd5b905060200281019061240f919061588f565b6020013587878581811061244c577f4e487b7100000000000000000000000000000000000000000000000000000000600052603260045260246000fd5b905060200281019061245e919061588f565b806040019061246d91906157e1565b613723565b8282815181106124ab577f4e487b7100000000000000000000000000000000000000000000000000000000600052603260045260246000fd5b602002602001018190525080806124c190615cb3565b915050612359565b508091505092915050565b6000600160000160009054906101000a900473ffffffffffffffffffffffffffffffffffffffff16905090565b6000600160030154905090565b3073ffffffffffffffffffffffffffffffffffffffff163373ffffffffffffffffffffffffffffffffffffffff161461257c576040517f08c379a00000000000000000000000000000000000000000000000000000000081526004016125739061557d565b60405180910390fd5b60006001600f01600084815260200190815260200160002060010154146125d8576040517f08c379a00000000000000000000000000000000000000000000000000000000081526004016125cf906153fd565b60405180910390fd5b6040518060600160405280828152602001438152602001600015158152506001600f016000848152602001908152602001600020600082015181600001556020820151816001015560408201518160020160006101000a81548160ff0219169083151502179055509050505050565b3073ffffffffffffffffffffffffffffffffffffffff163373ffffffffffffffffffffffffffffffffffffffff1614806126ed5750600160000160009054906101000a900473ffffffffffffffffffffffffffffffffffffffff1673ffffffffffffffffffffffffffffffffffffffff163373ffffffffffffffffffffffffffffffffffffffff161480156126ec5750600160000160149054906101000a900460ff16155b5b61272c576040517f08c379a00000000000000000000000000000000000000000000000000000000081526004016127239061559d565b60405180910390fd5b600173__Guardians_____________________________6397b9ce099091836040518363ffffffff1660e01b815260040161276892919061565d565b60006040518083038186803b15801561278057600080fd5b505af4158015612794573d6000803e3d6000fd5b5050505050565b3073ffffffffffffffffffffffffffffffffffffffff163373ffffffffffffffffffffffffffffffffffffffff1614806128415750600160000160009054906101000a900473ffffffffffffffffffffffffffffffffffffffff1673ffffffffffffffffffffffffffffffffffffffff163373ffffffffffffffffffffffffffffffffffffffff161480156128405750600160000160149054906101000a900460ff16155b5b612880576040517f08c379a00000000000000000000000000000000000000000000000000000000081526004016128779061559d565b60405180910390fd5b600173__Guardians_____________________________63e98ee0859091836040518363ffffffff1660e01b81526004016128bc92919061565d565b60006040518083038186803b1580156128d457600080fd5b505af41580156128e8573d6000803e3d6000fd5b5050505050565b3073ffffffffffffffffffffffffffffffffffffffff163373ffffffffffffffffffffffffffffffffffffffff161461295d576040517f08c379a00000000000000000000000000000000000000000000000000000000081526004016129549061557d565b60405180910390fd5b8060016009016000018190555050565b3073ffffffffffffffffffffffffffffffffffffffff163373ffffffffffffffffffffffffffffffffffffffff16146129db576040517f08c379a00000000000000000000000000000000000000000000000000000000081526004016129d29061557d565b60405180910390fd5b80600160040160006101000a81548173ffffffffffffffffffffffffffffffffffffffff021916908373ffffffffffffffffffffffffffffffffffffffff16021790555050565b600080600090505b878790508163ffffffff161015612b6c573073ffffffffffffffffffffffffffffffffffffffff1663f23a6e618b8b8b8b8663ffffffff16818110612a98577f4e487b7100000000000000000000000000000000000000000000000000000000600052603260045260246000fd5b905060200201358a8a8763ffffffff16818110612ade577f4e487b7100000000000000000000000000000000000000000000000000000000600052603260045260246000fd5b9050602002013589896040518763ffffffff1660e01b8152600401612b0896959493929190615152565b60206040518083038186803b158015612b2057600080fd5b505afa158015612b34573d6000803e3d6000fd5b505050506040513d601f19601f82011682018060405250810190612b58919061438a565b508080612b6490615cfc565b915050612a2a565b5063bc197c8160e01b905098975050505050505050565b606060018001805480602002602001604051908101604052809291908181526020018280548015612bd357602002820191906000526020600020905b815481526020019060010190808311612bbf575b5050505050905090565b3073ffffffffffffffffffffffffffffffffffffffff163373ffffffffffffffffffffffffffffffffffffffff1614612c4b576040517f08c379a0000000000000000000000000000000000000000000000000000000008152600401612c429061557d565b60405180910390fd5b818180806020026020016040519081016040528093929190818152602001838360200280828437600081840152601f19601f82011690508083019250505050505050600173__Recovery______________________________6321ca866f9091836040518363ffffffff1660e01b8152600401612cc9929190615686565b60006040518083038186803b158015612ce157600080fd5b505af4158015612cf5573d6000803e3d6000fd5b50505050600083836000818110612d35577f4e487b7100000000000000000000000000000000000000000000000000000000600052603260045260246000fd5b90506020020135604051602001612d4c91906150ee565b60405160208183030381529060405280519060200120905060006001600f016000838152602001908152602001600020600101541415612dc1576040517f08c379a0000000000000000000000000000000000000000000000000000000008152600401612db89061543d565b60405180910390fd5b600015156001600f01600083815260200190815260200160002060020160009054906101000a900460ff16151514612e2e576040517f08c379a0000000000000000000000000000000000000000000000000000000008152600401612e25906154bd565b60405180910390fd5b600f6001600f0160008381526020019081526020016000206001015443612e559190615acd565b10612e95576040517f08c379a0000000000000000000000000000000000000000000000000000000008152600401612e8c906155bd565b60405180910390fd5b60008585856000818110612ed2577f4e487b7100000000000000000000000000000000000000000000000000000000600052603260045260246000fd5b90506020020135604051602001612eea9291906150c2565b6040516020818303038152906040528051906020012090506001600f016000838152602001908152602001600020600001548114612f5d576040517f08c379a0000000000000000000000000000000000000000000000000000000008152600401612f549061561d565b60405180910390fd5b600180600f01600084815260200190815260200160002060020160006101000a81548160ff02191690831515021790555085600160000160006101000a81548173ffffffffffffffffffffffffffffffffffffffff021916908373ffffffffffffffffffffffffffffffffffffffff16021790555060018060030154612fe39190615a46565b600160030181905550505050505050565b3073ffffffffffffffffffffffffffffffffffffffff163373ffffffffffffffffffffffffffffffffffffffff16148061309a5750600160000160009054906101000a900473ffffffffffffffffffffffffffffffffffffffff1673ffffffffffffffffffffffffffffffffffffffff163373ffffffffffffffffffffffffffffffffffffffff161480156130995750600160000160149054906101000a900460ff16155b5b6130d9576040517f08c379a00000000000000000000000000000000000000000000000000000000081526004016130d09061559d565b60405180910390fd5b6000600160070160010181905550565b3073ffffffffffffffffffffffffffffffffffffffff163373ffffffffffffffffffffffffffffffffffffffff1614613157576040517f08c379a000000000000000000000000000000000000000000000000000000000815260040161314e9061557d565b60405180910390fd5b806000806101000a81548173ffffffffffffffffffffffffffffffffffffffff021916908373ffffffffffffffffffffffffffffffffffffffff1602179055507f8a5dcb0249bae905183e794960410c37563e6ab514b1add384425d153972118d816040516131c69190615137565b60405180910390a150565b3073ffffffffffffffffffffffffffffffffffffffff163373ffffffffffffffffffffffffffffffffffffffff161461323f576040517f08c379a00000000000000000000000000000000000000000000000000000000081526004016132369061557d565b60405180910390fd5b600173__Recovery______________________________636ffc1c629091836040518363ffffffff1660e01b815260040161327b92919061565d565b60006040518083038186803b15801561329357600080fd5b505af41580156132a7573d6000803e3d6000fd5b5050505050565b600063f23a6e6160e01b90509695505050505050565b600080835114156132d85760019050613548565b6000808660050180548060200260200160405190810160405280929190818152602001828054801561335f57602002820191906000526020600020905b8160009054906101000a900473ffffffffffffffffffffffffffffffffffffffff1673ffffffffffffffffffffffffffffffffffffffff1681526020019060010190808311613315575b50505050509050600080600090505b6041875161337c9190615a9c565b81101561353f5760006133908989846138eb565b905060008214156134c757600160048111156133d5577f4e487b7100000000000000000000000000000000000000000000000000000000600052602160045260246000fd5b87600481111561340e577f4e487b7100000000000000000000000000000000000000000000000000000000600052602160045260246000fd5b14156134375761341e8a82613a3d565b15613429575061352c565b600095505050505050613548565b60026004811115613471577f4e487b7100000000000000000000000000000000000000000000000000000000600052602160045260246000fd5b8760048111156134aa577f4e487b7100000000000000000000000000000000000000000000000000000000600052602160045260246000fd5b14156134c6576134ba8a82613a3d565b156134c5575061352c565b5b5b8473ffffffffffffffffffffffffffffffffffffffff168173ffffffffffffffffffffffffffffffffffffffff161161350857600095505050505050613548565b8094506135158482613a9a565b92508261352a57600095505050505050613548565b505b808061353790615cb3565b91505061336e565b50600193505050505b949350505050565b6000600482511015613597576040517f08c379a000000000000000000000000000000000000000000000000000000000815260040161358e9061549d565b60405180910390fd5b60208201519050919050565b600063de03371560e01b7bffffffffffffffffffffffffffffffffffffffffffffffffffffffff1916827bffffffffffffffffffffffffffffffffffffffffffffffffffffffff1916148061363c575063b20d30a960e01b7bffffffffffffffffffffffffffffffffffffffffffffffffffffffff1916827bffffffffffffffffffffffffffffffffffffffffffffffffffffffff1916145b8061368b575063b6c3843260e01b7bffffffffffffffffffffffffffffffffffffffffffffffffffffffff1916827bffffffffffffffffffffffffffffffffffffffffffffffffffffffff1916145b9050919050565b60006201518083600901600101546136aa9190615a46565b4211156136cb57428360090160010181905550600083600901600201819055505b82600901600001548284600901600201546136e69190615a46565b118061370a575082600901600201548284600901600201546137089190615a46565b105b15613718576000905061371d565b600190505b92915050565b606060008573ffffffffffffffffffffffffffffffffffffffff1685858560405161374f929190615109565b60006040518083038185875af1925050503d806000811461378c576040519150601f19603f3d011682016040523d82523d6000602084013e613791565b606091505b508093508192505050806137a9573d6000803e3d6000fd5b50949350505050565b60008082846137c19190615a9c565b9050600083856137d19190615d57565b14156137e057809150506137f1565b6001816137ed9190615a46565b9150505b92915050565b8047101561383a576040517f08c379a0000000000000000000000000000000000000000000000000000000008152600401613831906154fd565b60405180910390fd5b60008273ffffffffffffffffffffffffffffffffffffffff168260405161386090615122565b60006040518083038185875af1925050503d806000811461389d576040519150601f19603f3d011682016040523d82523d6000602084013e6138a2565b606091505b50509050806138e6576040517f08c379a00000000000000000000000000000000000000000000000000000000081526004016138dd906154dd565b60405180910390fd5b505050565b60008060008084604102602001860151915084604102604001860151905060ff85604102604101870151169250601b8360ff16148061392d5750601c8360ff16145b61396c576040517f08c379a00000000000000000000000000000000000000000000000000000000081526004016139639061555d565b60405180910390fd5b60006001888585856040516000815260200160405260405161399194939291906152e2565b6020604051602081039080840390855afa1580156139b3573d6000803e3d6000fd5b505050602060405103519050600073ffffffffffffffffffffffffffffffffffffffff168173ffffffffffffffffffffffffffffffffffffffff161415613a2f576040517f08c379a0000000000000000000000000000000000000000000000000000000008152600401613a269061547d565b60405180910390fd5b809450505050509392505050565b60008173ffffffffffffffffffffffffffffffffffffffff168360000160009054906101000a900473ffffffffffffffffffffffffffffffffffffffff1673ffffffffffffffffffffffffffffffffffffffff1614905092915050565b600080600090505b8351811015613b3c57838181518110613ae4577f4e487b7100000000000000000000000000000000000000000000000000000000600052603260045260246000fd5b602002602001015173ffffffffffffffffffffffffffffffffffffffff168373ffffffffffffffffffffffffffffffffffffffff161415613b29576001915050613b42565b8080613b3490615cb3565b915050613aa2565b50600090505b92915050565b6040518060400160405280600060ff16815260200160006004811115613b97577f4e487b7100000000000000000000000000000000000000000000000000000000600052602160045260246000fd5b81525090565b828054613ba990615c81565b90600052602060002090601f016020900481019282613bcb5760008555613c12565b82601f10613be457803560ff1916838001178555613c12565b82800160010185558215613c12579182015b82811115613c11578235825591602001919060010190613bf6565b5b509050613c1f9190613c23565b5090565b5b80821115613c3c576000816000905550600101613c24565b5090565b6000613c53613c4e846158e4565b6158b3565b905082815260208101848484011115613c6b57600080fd5b613c76848285615c3f565b509392505050565b600081359050613c8d81615eb2565b92915050565b600081359050613ca281615ec9565b92915050565b60008083601f840112613cba57600080fd5b8235905067ffffffffffffffff811115613cd357600080fd5b602083019150836020820283011115613ceb57600080fd5b9250929050565b600081905082602060030282011115613d0a57600080fd5b92915050565b60008083601f840112613d2257600080fd5b8235905067ffffffffffffffff811115613d3b57600080fd5b602083019150836020820283011115613d5357600080fd5b9250929050565b60008083601f840112613d6c57600080fd5b8235905067ffffffffffffffff811115613d8557600080fd5b602083019150836020820283011115613d9d57600080fd5b9250929050565b600081519050613db381615ee0565b92915050565b600081359050613dc881615ef7565b92915050565b600081359050613ddd81615f0e565b92915050565b600081519050613df281615f0e565b92915050565b60008083601f840112613e0a57600080fd5b8235905067ffffffffffffffff811115613e2357600080fd5b602083019150836001820283011115613e3b57600080fd5b9250929050565b600082601f830112613e5357600080fd5b8135613e63848260208601613c40565b91505092915050565b60008083601f840112613e7e57600080fd5b8235905067ffffffffffffffff811115613e9757600080fd5b602083019150836001820283011115613eaf57600080fd5b9250929050565b600081359050613ec581615f25565b92915050565b600081359050613eda81615f3c565b92915050565b600060208284031215613ef257600080fd5b6000613f0084828501613c7e565b91505092915050565b600060208284031215613f1b57600080fd5b6000613f2984828501613c93565b91505092915050565b60008060008060008060008060a0898b031215613f4e57600080fd5b6000613f5c8b828c01613c7e565b9850506020613f6d8b828c01613c7e565b975050604089013567ffffffffffffffff811115613f8a57600080fd5b613f968b828c01613d5a565b9650965050606089013567ffffffffffffffff811115613fb557600080fd5b613fc18b828c01613d5a565b9450945050608089013567ffffffffffffffff811115613fe057600080fd5b613fec8b828c01613df8565b92509250509295985092959890939650565b60008060008060006080868803121561401657600080fd5b600061402488828901613c7e565b955050602061403588828901613c7e565b945050604061404688828901613eb6565b935050606086013567ffffffffffffffff81111561406357600080fd5b61406f88828901613df8565b92509250509295509295909350565b60008060008060008060a0878903121561409757600080fd5b60006140a589828a01613c7e565b96505060206140b689828a01613c7e565b95505060406140c789828a01613eb6565b94505060606140d889828a01613eb6565b935050608087013567ffffffffffffffff8111156140f557600080fd5b61410189828a01613df8565b92509250509295509295509295565b60008060006040848603121561412557600080fd5b600061413386828701613c7e565b935050602084013567ffffffffffffffff81111561415057600080fd5b61415c86828701613ca8565b92509250509250925092565b6000806000806000806000806000806101208b8d03121561418857600080fd5b60006141968d828e01613c7e565b9a505060208b013567ffffffffffffffff8111156141b357600080fd5b6141bf8d828e01613cf2565b99505060406141d08d828e01613c7e565b98505060608b013567ffffffffffffffff8111156141ed57600080fd5b6141f98d828e01613ca8565b9750975050608061420c8d828e01613ecb565b95505060a061421d8d828e01613c93565b94505060c061422e8d828e01613eb6565b93505060e061423f8d828e01613c7e565b9250506101006142518d828e01613eb6565b9150509295989b9194979a5092959850565b6000806020838503121561427657600080fd5b600083013567ffffffffffffffff81111561429057600080fd5b61429c85828601613d10565b92509250509250929050565b6000602082840312156142ba57600080fd5b60006142c884828501613da4565b91505092915050565b600080604083850312156142e457600080fd5b60006142f285828601613db9565b925050602061430385828601613db9565b9150509250929050565b6000806040838503121561432057600080fd5b600061432e85828601613db9565b925050602083013567ffffffffffffffff81111561434b57600080fd5b61435785828601613e42565b9150509250929050565b60006020828403121561437357600080fd5b600061438184828501613dce565b91505092915050565b60006020828403121561439c57600080fd5b60006143aa84828501613de3565b91505092915050565b600080602083850312156143c657600080fd5b600083013567ffffffffffffffff8111156143e057600080fd5b6143ec85828601613df8565b92509250509250929050565b600080600080600080600080600060e08a8c03121561441657600080fd5b60008a013567ffffffffffffffff81111561443057600080fd5b61443c8c828d01613df8565b995099505060208a013567ffffffffffffffff81111561445b57600080fd5b6144678c828d01613df8565b9750975050604061447a8c828d01613eb6565b955050606061448b8c828d01613eb6565b945050608061449c8c828d01613eb6565b93505060a06144ad8c828d01613c7e565b92505060c06144be8c828d01613c93565b9150509295985092959850929598565b600080602083850312156144e157600080fd5b600083013567ffffffffffffffff8111156144fb57600080fd5b61450785828601613e6c565b92509250509250929050565b60008060008060006060868803121561452b57600080fd5b600086013567ffffffffffffffff81111561454557600080fd5b61455188828901613e6c565b9550955050602086013567ffffffffffffffff81111561457057600080fd5b61457c88828901613e6c565b9350935050604061458f88828901613eb6565b9150509295509295909350565b6000602082840312156145ae57600080fd5b60006145bc84828501613eb6565b91505092915050565b60006145d1838361463f565b60208301905092915050565b60006145e98383614821565b60208301905092915050565b6000614601838361483f565b60208301905092915050565b600061461983836148f3565b905092915050565b61462a81615bcb565b82525050565b61463981615b13565b82525050565b61464881615b01565b82525050565b61465781615b01565b82525050565b61466681615b01565b82525050565b61467d61467882615b01565b615d29565b82525050565b600061468e82615944565b61469881856159a2565b93506146a383615914565b8060005b838110156146d45781516146bb88826145c5565b97506146c68361597b565b9250506001810190506146a7565b5085935050505092915050565b60006146ec8261594f565b6146f681856159b3565b935061470183615924565b8060005b8381101561473257815161471988826145dd565b975061472483615988565b925050600181019050614705565b5085935050505092915050565b600061474a8261594f565b61475481856159c4565b935061475f83615924565b8060005b8381101561479057815161477788826145f5565b975061478283615988565b925050600181019050614763565b5085935050505092915050565b60006147a88261595a565b6147b281856159d5565b9350836020820285016147c485615934565b8060005b8581101561480057848403895281516147e1858261460d565b94506147ec83615995565b925060208a019950506001810190506147c8565b50829750879550505050505092915050565b61481b81615b25565b82525050565b61482a81615b31565b82525050565b61483981615b31565b82525050565b61484881615b31565b82525050565b61485f61485a82615b31565b615d3b565b82525050565b61486e81615b3b565b82525050565b600061488083856159f7565b935061488d838584615c3f565b61489683615e73565b840190509392505050565b60006148ad8385615a08565b93506148ba838584615c3f565b6148c383615e73565b840190509392505050565b60006148da8385615a19565b93506148e7838584615c3f565b82840190509392505050565b60006148fe82615965565b61490881856159e6565b9350614918818560208601615c4e565b61492181615e73565b840191505092915050565b600061493782615965565b61494181856159f7565b9350614951818560208601615c4e565b61495a81615e73565b840191505092915050565b61496e81615bdd565b82525050565b61497d81615bdd565b82525050565b61498c81615bef565b82525050565b61499b81615c09565b82525050565b60006149ad8385615a24565b93506149ba838584615c3f565b6149c383615e73565b840190509392505050565b60006149da8385615a35565b93506149e7838584615c3f565b6149f083615e73565b840190509392505050565b6000614a0682615970565b614a108185615a24565b9350614a20818560208601615c4e565b614a2981615e73565b840191505092915050565b6000614a41601583615a24565b91507f4e4f545f454e4f5547485f544f5f5041595f46454500000000000000000000006000830152602082019050919050565b6000614a81601483615a24565b91507f434f4d4d495420414c52454144592045584953540000000000000000000000006000830152602082019050919050565b6000614ac1600a83615a24565b91507f6f766572206c696d6974000000000000000000000000000000000000000000006000830152602082019050919050565b6000614b01600983615a24565b91507f4e4f20434f4d4d495400000000000000000000000000000000000000000000006000830152602082019050919050565b6000614b41601a83615a24565b91507f4e4f545f4d4545545f4d494e494d554d5f475541524449414e530000000000006000830152602082019050919050565b6000614b81601b83615a24565b91507f5574696c733a2065637265636f7665722072657475726e6564203000000000006000830152602082019050919050565b6000614bc1601d83615a24565b91507f5574696c733a20496e76616c69642066756e6374696f6e5072656669780000006000830152602082019050919050565b6000614c01601783615a24565b91507f434f4d4d495420414c52454144592052455645414c45440000000000000000006000830152602082019050919050565b6000614c41603a83615a24565b91507f416464726573733a20756e61626c6520746f2073656e642076616c75652c207260008301527f6563697069656e74206d617920686176652072657665727465640000000000006020830152604082019050919050565b6000614ca7601d83615a24565b91507f416464726573733a20696e73756666696369656e742062616c616e63650000006000830152602082019050919050565b6000614ce7601d83615a24565b91507f526563656976653a2045787465726e616c2063616c6c206661696c65640000006000830152602082019050919050565b6000614d27600b83615a24565b91507f4e4f545f414c4c4f5745440000000000000000000000000000000000000000006000830152602082019050919050565b6000614d67601f83615a24565b91507f5574696c733a2062616420762076616c756520696e207369676e6174757265006000830152602082019050919050565b6000614da7600e83615a24565b91507f6d757374206265206d65746174780000000000000000000000000000000000006000830152602082019050919050565b6000614de7602983615a24565b91507f4e4f545f46524f4d5f57414c4c45545f4f525f4f574e45525f4f525f57414c4c60008301527f45545f4c4f434b454400000000000000000000000000000000000000000000006020830152604082019050919050565b6000614e4d601183615a24565b91507f436f6d6d697420697320746f6f206f6c640000000000000000000000000000006000830152602082019050919050565b6000614e8d600e83615a24565b91507f756e6b6e6f776e206d6574686f640000000000000000000000000000000000006000830152602082019050919050565b6000614ecd601c83615a24565b91507f544d3a20696e76616c6964207369676e6174757265206c656e677468000000006000830152602082019050919050565b6000614f0d600083615a19565b9150600082019050919050565b6000614f27601783615a24565b91507f446174616861736820646f6573206e6f74206d617463680000000000000000006000830152602082019050919050565b6000614f67601783615a24565b91507f496e76616c6964206f776e6572207369676e61747572650000000000000000006000830152602082019050919050565b606082016000820151614fb06000850182615077565b506020820151614fc36020850182615077565b506040820151614fd66040850182615077565b50505050565b604082016000820151614ff2600085018261463f565b5060208201516150056020850182615077565b50505050565b604082016000820151615021600085018261463f565b5060208201516150346020850182615077565b50505050565b60408201600082015161505060008501826150b3565b5060208201516150636020850182614974565b50505050565b8082525050565b8082525050565b61508081615ba4565b82525050565b61508f81615ba4565b82525050565b61509e81615ba4565b82525050565b6150ad81615bbe565b82525050565b6150bc81615bbe565b82525050565b60006150ce828561466c565b6014820191506150de828461484e565b6020820191508190509392505050565b60006150fa828461484e565b60208201915081905092915050565b60006151168284866148ce565b91508190509392505050565b600061512d82614f00565b9150819050919050565b600060208201905061514c600083018461464e565b92915050565b600060a082019050615167600083018961464e565b615174602083018861464e565b6151816040830187615086565b61518e6060830186615086565b81810360808301526151a1818486614874565b9050979650505050505050565b60006101e0820190506151c4600083018e61464e565b6151d1602083018d614812565b6151de604083018c6150a4565b6151eb606083018b615086565b6151f8608083018a614630565b61520560a083018961500b565b61521260e0830188614f9a565b81810361014083015261522581876149fb565b9050615235610160830186614fdc565b6152436101a083018561464e565b6152516101c0830184615086565b9c9b505050505050505050505050565b6000602082019050818103600083015261527b8184614683565b905092915050565b6000602082019050818103600083015261529d81846146e1565b905092915050565b600060208201905081810360008301526152bf818461479d565b905092915050565b60006020820190506152dc6000830184614812565b92915050565b60006080820190506152f76000830187614830565b61530460208301866150a4565b6153116040830185614830565b61531e6060830184614830565b95945050505050565b600060208201905061533c6000830184614865565b92915050565b6000604082019050818103600083015261535c818561492c565b905061536b6020830184614983565b9392505050565b6000606082019050818103600083015261538d8187896149a1565b905081810360208301526153a28185876149a1565b90506153b16040830184614992565b9695505050505050565b600060208201905081810360008301526153d581846149fb565b905092915050565b600060208201905081810360008301526153f681614a34565b9050919050565b6000602082019050818103600083015261541681614a74565b9050919050565b6000602082019050818103600083015261543681614ab4565b9050919050565b6000602082019050818103600083015261545681614af4565b9050919050565b6000602082019050818103600083015261547681614b34565b9050919050565b6000602082019050818103600083015261549681614b74565b9050919050565b600060208201905081810360008301526154b681614bb4565b9050919050565b600060208201905081810360008301526154d681614bf4565b9050919050565b600060208201905081810360008301526154f681614c34565b9050919050565b6000602082019050818103600083015261551681614c9a565b9050919050565b6000602082019050818103600083015261553681614cda565b9050919050565b6000602082019050818103600083015261555681614d1a565b9050919050565b6000602082019050818103600083015261557681614d5a565b9050919050565b6000602082019050818103600083015261559681614d9a565b9050919050565b600060208201905081810360008301526155b681614dda565b9050919050565b600060208201905081810360008301526155d681614e40565b9050919050565b600060208201905081810360008301526155f681614e80565b9050919050565b6000602082019050818103600083015261561681614ec0565b9050919050565b6000602082019050818103600083015261563681614f1a565b9050919050565b6000602082019050818103600083015261565681614f5a565b9050919050565b60006040820190506156726000830185615069565b61567f602083018461465d565b9392505050565b600060408201905061569b6000830185615069565b81810360208301526156ad818461473f565b90509392505050565b60006080820190506156cb6000830189615069565b81810360208301526156de8187896149ce565b905081810360408301526156f38185876149ce565b90506157026060830184615095565b979650505050505050565b600061012082019050615723600083018d615070565b8181036020830152615736818b8d6148a1565b9050818103604083015261574b81898b6148a1565b905061575a6060830188615095565b6157676080830187615095565b61577460a0830186615095565b61578160c0830185614621565b61578e60e083018461503a565b9b9a5050505050505050505050565b60006020820190506157b26000830184615086565b92915050565b60006040820190506157cd60008301856150a4565b6157da6020830184614965565b9392505050565b600080833560016020038436030381126157fa57600080fd5b80840192508235915067ffffffffffffffff82111561581857600080fd5b60208301925060018202360383131561583057600080fd5b509250929050565b6000808335600160200384360303811261585157600080fd5b80840192508235915067ffffffffffffffff82111561586f57600080fd5b60208301925060018202360383131561588757600080fd5b509250929050565b6000823560016060038336030381126158a757600080fd5b80830191505092915050565b6000604051905081810181811067ffffffffffffffff821117156158da576158d9615e44565b5b8060405250919050565b600067ffffffffffffffff8211156158ff576158fe615e44565b5b601f19601f8301169050602081019050919050565b6000819050602082019050919050565b6000819050602082019050919050565b6000819050602082019050919050565b600081519050919050565b600081519050919050565b600081519050919050565b600081519050919050565b600081519050919050565b6000602082019050919050565b6000602082019050919050565b6000602082019050919050565b600082825260208201905092915050565b600082825260208201905092915050565b600082825260208201905092915050565b600082825260208201905092915050565b600082825260208201905092915050565b600082825260208201905092915050565b600082825260208201905092915050565b600081905092915050565b600082825260208201905092915050565b600082825260208201905092915050565b6000615a5182615ba4565b9150615a5c83615ba4565b9250827fffffffffffffffffffffffffffffffffffffffffffffffffffffffffffffffff03821115615a9157615a90615d88565b5b828201905092915050565b6000615aa782615ba4565b9150615ab283615ba4565b925082615ac257615ac1615db7565b5b828204905092915050565b6000615ad882615ba4565b9150615ae383615ba4565b925082821015615af657615af5615d88565b5b828203905092915050565b6000615b0c82615b84565b9050919050565b6000615b1e82615b84565b9050919050565b60008115159050919050565b6000819050919050565b60007fffffffff0000000000000000000000000000000000000000000000000000000082169050919050565b6000819050615b7582615e9e565b919050565b6000819050919050565b600073ffffffffffffffffffffffffffffffffffffffff82169050919050565b6000819050919050565b600063ffffffff82169050919050565b600060ff82169050919050565b6000615bd682615c1b565b9050919050565b6000615be882615b67565b9050919050565b6000615c02615bfd83615b7a565b615e84565b9050919050565b6000615c1482615ba4565b9050919050565b6000615c2682615c2d565b9050919050565b6000615c3882615b84565b9050919050565b82818337600083830152505050565b60005b83811015615c6c578082015181840152602081019050615c51565b83811115615c7b576000848401525b50505050565b60006002820490506001821680615c9957607f821691505b60208210811415615cad57615cac615e15565b5b50919050565b6000615cbe82615ba4565b91507fffffffffffffffffffffffffffffffffffffffffffffffffffffffffffffffff821415615cf157615cf0615d88565b5b600182019050919050565b6000615d0782615bae565b915063ffffffff821415615d1e57615d1d615d88565b5b600182019050919050565b6000615d3482615d45565b9050919050565b6000819050919050565b6000615d5082615e91565b9050919050565b6000615d6282615ba4565b9150615d6d83615ba4565b925082615d7d57615d7c615db7565b5b828206905092915050565b7f4e487b7100000000000000000000000000000000000000000000000000000000600052601160045260246000fd5b7f4e487b7100000000000000000000000000000000000000000000000000000000600052601260045260246000fd5b7f4e487b7100000000000000000000000000000000000000000000000000000000600052602160045260246000fd5b7f4e487b7100000000000000000000000000000000000000000000000000000000600052602260045260246000fd5b7f4e487b7100000000000000000000000000000000000000000000000000000000600052604160045260246000fd5b6000601f19601f8301169050919050565b60008160001b9050919050565b60008160601b9050919050565b60058110615eaf57615eae615de6565b5b50565b615ebb81615b01565b8114615ec657600080fd5b50565b615ed281615b13565b8114615edd57600080fd5b50565b615ee981615b25565b8114615ef457600080fd5b50565b615f0081615b31565b8114615f0b57600080fd5b50565b615f1781615b3b565b8114615f2257600080fd5b50565b615f2e81615ba4565b8114615f3957600080fd5b50565b615f4581615bbe565b8114615f5057600080fd5b5056fea2646970667358221220618444d5b39ce39d9fd37e224c43491bfe680bdd585cf04e09ed314a55ab06a464736f6c63430008000033",
  "immutableReferences": {},
  "source": "// SPDX-License-Identifier: GPL-3.0-only\n\npragma solidity >=0.7.6;\npragma experimental ABIEncoderV2;\n\nimport \"@openzeppelin/contracts/token/ERC721/IERC721Receiver.sol\";\nimport \"@openzeppelin/contracts/token/ERC1155/IERC1155Receiver.sol\";\nimport \"@openzeppelin/contracts/utils/Address.sol\";\n\nimport \"./core/wallet_data.sol\";\nimport \"./features/guardians.sol\";\nimport \"./features/daily_limit.sol\";\nimport \"./features/recovery.sol\";\nimport \"./features/metatx.sol\";\nimport \"./features/name_service.sol\";\n\ncontract TOTPWallet is IERC721Receiver, IERC1155Receiver {\n\n    using Address for address payable;\n    using Guardians for Core.Wallet;\n    using DailyLimit for Core.Wallet;\n    using Recovery for Core.Wallet;\n    using MetaTx for Core.Wallet;\n    using NameService for Core.Wallet;\n\n    // DATA LAYOUT - ALWAYS ADD NEW VAR TO LAST\n\n    address masterCopy;\n    Core.Wallet public wallet;\n    bool internal isImplementationContract;\n    uint public constant version = 2;\n    bytes4 private constant _INTERFACE_ID_ERC1271 = 0x1626ba7e;\n\n    // END OF DATA LAYOUT\n    struct Call {\n        address to;\n        uint256 value;\n        bytes data;\n    }\n\n    event Deposit(address indexed sender, uint value);\n    event WalletUpgraded(address newImpl);\n    event TransactionExecuted(bool indexed success, bytes returnData, bytes32 signedHash);\n    event Invoked(address indexed target, uint indexed value, bytes data, bool success, bytes returnData);\n\n    constructor() {\n        isImplementationContract = true;\n    }\n\n    modifier disableInImplementationContract\n    {\n        require(!isImplementationContract, \"DISALLOWED\");\n        _;\n    }\n\n    // keep methods <= 8 parameters of get stack to deep\n    function initialize(\n        address              resolver_,\n        string[3]   calldata domainAndHashId_, // empty means no registration\n        address             owner_, \n        bytes32[] calldata    rootHash_, \n        uint8               merkelHeight_, \n        address payable     drainAddr_, \n        uint                dailyLimit_,\n        address             feeRecipient,\n        uint                feeAmount\n        ) external \n        // disableInImplementationContract()\n    {\n        wallet.resolver = resolver_;\n\n        //emit DebugEvent256(address(this).balance);\n        require(wallet.owner == address(0), \"NOT_ALLOWED\");\n        require(address(this).balance >= feeAmount, \"NOT_ENOUGH_TO_PAY_FEE\");\n\n        wallet.owner = owner_;\n        for (uint32 i = 0; i < rootHash_.length; i++) {\n             wallet.rootHash.push(rootHash_[i]);\n        }        \n        wallet.merkelHeight = merkelHeight_;\n        wallet.drainAddr = drainAddr_;\n        wallet.dailyLimit.limit = dailyLimit_;\n\n        // STACK TOO DEEP\n        if(bytes(domainAndHashId_[0]).length > 0) {\n            this.registerENS(domainAndHashId_[0], domainAndHashId_[1], 60 * 60 * 24 * 365);\n        }\n\n        if (feeRecipient != address(0)) {\n            payable(feeRecipient).sendValue(feeAmount);\n        }  \n        \n        wallet.hashStorageID = domainAndHashId_[2];        \n    }   \n\n    function registerENS(string calldata subdomain, string calldata domain, uint duration) external onlyFromWalletOrOwnerWhenUnlocked() {\n        wallet.registerENS(subdomain, domain, duration);\n    }\n\n    modifier onlyFromWalletOrOwnerWhenUnlocked()\n    {\n        require(\n            msg.sender == address(this) ||\n            (msg.sender == wallet.owner && !wallet.locked),\n             \"NOT_FROM_WALLET_OR_OWNER_OR_WALLET_LOCKED\"\n        );\n        _;\n    }\n\n    modifier onlySelf() {\n        require(msg.sender == address(this), \"must be metatx\");\n        _;\n    }\n\n    // confirmMaterial contains OTP + intermediatory hashes + sides\n    modifier onlyValidTOTP(bytes32[] memory confirmMaterial) \n    {\n        // revert if false\n        wallet.isValidHOTP(confirmMaterial);\n        _;\n    }\n\n    function isRestrictedMethod(bytes4 methodId) internal pure returns (bool) {\n        return (methodId == TOTPWallet.upgradeMasterCopy.selector ||\n            methodId == TOTPWallet.setDailyLimit.selector ||\n            methodId == TOTPWallet.setDrainAddress.selector);\n    }\n\n    function getRequiredSignatures(bytes calldata _data) public view returns (uint8, Core.OwnerSignature) {\n        bytes4 methodId = MetaTx.functionPrefix(_data);\n\n        if(methodId == TOTPWallet.multiCall.selector ||\n            methodId == TOTPWallet.addGuardian.selector ||\n            methodId == TOTPWallet.revokeGuardian.selector||\n            methodId == TOTPWallet.clearSession.selector||\n            methodId == TOTPWallet.setHashStorageId.selector) {\n            return (1, Core.OwnerSignature.Required);\n        }\n\n        // these will be called on multiCallWithSession with guardians\n        if(wallet.guardians.length == 0) {\n            if(isRestrictedMethod(methodId)) {\n                return (1, Core.OwnerSignature.Required); \n            }\n        } else {\n            if(methodId == TOTPWallet.startSession.selector) {          \n                // owner + 1 guardian   => require 2\n                // owner + 2 guardian   => require 2\n                // owner + 3 guardian   => require 3            \n                return (uint8(MetaTx.ceil(wallet.guardians.length, 2) + 1), Core.OwnerSignature.Required);  \n            }\n            if(methodId == TOTPWallet.multiCallWithSession.selector) {\n                return (1, Core.OwnerSignature.Session); \n            }\n        }\n\n        if(methodId == TOTPWallet.startRecoverGuardianOnly.selector) {\n            require(wallet.guardians.length >= 2, \"NOT_MEET_MINIMUM_GUARDIANS\");\n            uint requiredSignatures = MetaTx.ceil(wallet.guardians.length, 2);\n            return (uint8(requiredSignatures), Core.OwnerSignature.Disallowed);            \n        }\n\n        // 1 of 1 = 0 sig\n        // 2 of 2 = 1 sig + HOTP\n        // 2 of 3 = 1 sig + HOTP\n        if(methodId == TOTPWallet.startRecoverCommit.selector) {\n            uint requiredSignatures = MetaTx.ceil(wallet.guardians.length, 2);\n            return (uint8(requiredSignatures), Core.OwnerSignature.Disallowed);            \n        }\n        if(methodId == TOTPWallet.startRecoveryReveal.selector) {\n            return (0, Core.OwnerSignature.Disallowed);            \n        }\n        \n        revert(\"unknown method\");\n    }    \n\n    function executeMetaTx(\n            bytes   calldata data,\n            bytes   calldata signatures, \n            uint256 nonce,\n            uint256 gasPrice,\n            uint256 gasLimit,\n            address /*refundToken*/,\n            address payable refundAddress            \n        ) external \n    {\n        uint gasLeft = gasleft();        \n        Core.SignatureRequirement memory sigRequirement;        \n        (sigRequirement.requiredSignatures, sigRequirement.ownerSignatureRequirement) = getRequiredSignatures(data);        \n\n        MetaTx.validateTx(wallet, data, signatures, nonce, gasPrice, gasLimit, refundAddress, sigRequirement);\n\n        bool success;\n        bytes memory returnData;\n        (success, returnData) = address(this).call(data);\n\n        if(gasPrice > 0 && success && refundAddress != address(0x0)) {\n            uint gasUsed = gasLeft - gasleft() + 70000; //35k overhead\n            refundAddress.transfer(gasUsed);\n        }\n        emit TransactionExecuted(success, returnData, 0x0);        \n    }\n\n    function multiCall(Call[] calldata _transactions) external onlyFromWalletOrOwnerWhenUnlocked() returns (bytes[] memory) {\n        bytes[] memory results = new bytes[](_transactions.length);\n        for(uint i = 0; i < _transactions.length; i++) {\n            bytes calldata data = _transactions[i].data;\n            uint value = _transactions[i].value;\n            \n            if(wallet.guardians.length > 0) {\n                require(data.length < 4 || !isRestrictedMethod(MetaTx.functionPrefix(data))); \n                require(wallet.isUnderLimit(value), \"over limit\");\n                wallet.dailyLimit.spentToday += value;\n            }\n            results[i] = MetaTx.invoke(_transactions[i].to, value, data);\n        }\n        return results;\n    }\n\n    function multiCallWithSession(Call[] calldata _transactions) external onlySelf() returns (bytes[] memory) {\n        bytes[] memory results = new bytes[](_transactions.length);\n        for(uint i = 0; i < _transactions.length; i++) {\n            results[i] = MetaTx.invoke(_transactions[i].to, _transactions[i].value, _transactions[i].data);\n        }\n        return results;\n    }\n\n    /**\n     * startSession can only be started by majority of guardians\n     */\n    function startSession(uint duration) external onlySelf() {\n        wallet.session.key = wallet.owner;\n        wallet.session.expires = uint(block.timestamp + duration);\n    }\n\n    function clearSession()  external onlyFromWalletOrOwnerWhenUnlocked() {\n        wallet.session.expires = 0;\n    }\n\n    function getOwner()  public\n        view\n        returns (address) \n    {\n        return wallet.owner;  \n    }\n\n    function getCounter()  public\n        view\n        returns (uint) \n    {\n        return wallet.counter;\n    }    \n\n    function setHashStorageId(string calldata id) external  onlyFromWalletOrOwnerWhenUnlocked()  {\n        wallet.hashStorageID = id;\n    }\n\n    function getHashStorageId() public view  returns (string memory){\n        return wallet.hashStorageID;\n    }\n    \n    function getRootHashes()\n         public\n         view\n         returns (bytes32[] memory )\n     {\n         return wallet.rootHash;\n     }\n\n    function setDrainAddress(address payable addr) external onlySelf() {\n        wallet.drainAddr = addr;\n    }\n\n    function setDailyLimit(uint amount) external onlySelf() {\n        wallet.dailyLimit.limit = amount;\n    }\n    //\n    // Guardians functions\n    //\n    function addGuardian(address guardian)\n        external\n        onlyFromWalletOrOwnerWhenUnlocked()\n    {\n        wallet.addGuardian(guardian);\n    }\n\n    function revokeGuardian(address guardian)\n        external\n        onlyFromWalletOrOwnerWhenUnlocked()\n    {\n        wallet.revokeGuardian(guardian);\n    }\n\n    function isGuardian(address addr)\n         public\n         view\n         returns (bool)\n     {\n         return wallet.isGuardian(addr);\n     }\n\n     function getGuardians()\n         public\n         view\n         returns (address[] memory )\n     {\n         return wallet.guardians;\n     }\n\n    //\n    // Recovery functions\n    //\n    // In default setup with only HOTP setup, wallet recovery is done on its own.\n    // In a more secure setup with HOTP + guardians, HOTP is considered as 1 guardian.\n    //\n    // Relay/or other coordinating system will coordinate the signatures collections \n    // from guardian and submit along with the HOTP together. In rare case, HOTP may be ommitted\n    // when greater than 2 guardians can recover without HOTP.\n    function startRecoverGuardianOnly(address newOwner_) onlySelf() external {\n        // move into recovery state\n        wallet.startRecovery(newOwner_);\n    }\n\n    // recover with combination of commithash and signatures\n    function startRecoverCommit(bytes32 secretHash, bytes32 dataHash)  onlySelf() external {\n        require(wallet.commitHash[secretHash].blockNumber == 0, \"COMMIT ALREADY EXIST\");\n        wallet.commitHash[secretHash] = Core.CommitInfo(dataHash, block.number, false);\n    }\n\n    function startRecoveryReveal(address newOwner, bytes32[] calldata confirmMaterial)  onlySelf() onlyValidTOTP(confirmMaterial) external {\n        bytes32 secretHash = keccak256(abi.encodePacked(confirmMaterial[0]));\n        require(wallet.commitHash[secretHash].blockNumber != 0, \"NO COMMIT\");\n        require(wallet.commitHash[secretHash].revealed == false, \"COMMIT ALREADY REVEALED\");\n        require(block.number - wallet.commitHash[secretHash].blockNumber < 15, \"Commit is too old\");\n\n        bytes32 hash = keccak256(abi.encodePacked(newOwner, confirmMaterial[0]));\n        require(hash == wallet.commitHash[secretHash].dataHash, \"Datahash does not match\");\n\n        wallet.commitHash[secretHash].revealed = true;\n        wallet.owner = newOwner;\n        wallet.counter = wallet.counter + 1;\n    }\n\n    function upgradeMasterCopy(address newMasterCopy) external onlySelf() {\n        masterCopy = newMasterCopy;\n        emit WalletUpgraded(newMasterCopy);\n    }\n\n    function getMasterCopy() public view returns (address) {\n        return masterCopy;\n    }\n\n    //\n    // ERC1155 support\n    //\n    function onERC1155Received(\n        address,\n        address,\n        uint256,\n        uint256,\n        bytes calldata\n    ) external pure override returns (bytes4){\n        return this.onERC1155Received.selector;\n    }\n\n    function onERC1155BatchReceived(address operator, address from, uint256[] calldata ids, uint256[] calldata values, bytes calldata data) external view override returns (bytes4){\n        for (uint32 i = 0; i < ids.length; i++) {\n            this.onERC1155Received(operator, from, ids[i], values[i], data);\n        }\n        return this.onERC1155BatchReceived.selector;\n    }\n\n    function supportsInterface(bytes4 interfaceID) external override pure returns (bool) {\n        return interfaceID == this.supportsInterface.selector ||\n        interfaceID == this.onERC1155Received.selector ||\n        interfaceID == this.onERC721Received.selector ||\n        interfaceID == _INTERFACE_ID_ERC1271;\n    }\n\n    function onERC721Received(\n        address,\n        address,\n        uint256,\n        bytes calldata\n    ) external pure override returns (bytes4){\n        return this.onERC721Received.selector;\n    }\n\n    /**\n    * @notice Implementation of EIP 1271.\n    * Should return whether the signature provided is valid for the provided data.\n    * @param _msgHash Hash of a message signed on the behalf of address(this)\n    * @param _signature Signature byte array associated with _msgHash\n    */\n    function isValidSignature(bytes32 _msgHash, bytes memory _signature) external view returns (bytes4) {\n        require(_signature.length == 65, \"TM: invalid signature length\");\n        require(MetaTx.validateSignatures(wallet, _msgHash, _signature, Core.OwnerSignature.Required), \"Invalid owner signature\");\n        return _INTERFACE_ID_ERC1271;\n    }\n\n    //\n    // Utility functions\n    //\n\n    /// @dev Fallback function allows to deposit ether.\n    receive() external payable {\n        if (msg.value > 0) {\n            if(msg.sender == wallet.drainAddr && msg.value == 1 ether) {\n                uint amount = address(this).balance;\n                (bool success,) = wallet.drainAddr.call{value: amount, gas: 100000}(\"\");\n                require(success, \"Receive: External call failed\");\n            }\n            emit Deposit(msg.sender, msg.value);\n        }\n    }\n\n}\n",
  "sourcePath": "/home/quoc/Projects/harmony-totp-pure/contracts/otp_wallet.sol",
  "compiler": {
    "name": "solc",
    "version": "0.8.0+commit.c7dfd78e.Emscripten.clang"
  },
  "schemaVersion": "3.3.4",
  "updatedAt": "2021-10-07T14:00:03.146Z",
  "networkType": "ethereum",
  "devdoc": {
    "kind": "dev",
    "methods": {
      "isValidSignature(bytes32,bytes)": {
        "params": {
          "_msgHash": "Hash of a message signed on the behalf of address(this)",
          "_signature": "Signature byte array associated with _msgHash"
        }
      },
      "onERC1155BatchReceived(address,address,uint256[],uint256[],bytes)": {
        "details": "Handles the receipt of a multiple ERC1155 token types. This function is called at the end of a `safeBatchTransferFrom` after the balances have been updated. To accept the transfer(s), this must return `bytes4(keccak256(\"onERC1155BatchReceived(address,address,uint256[],uint256[],bytes)\"))` (i.e. 0xbc197c81, or its own function selector).",
        "params": {
          "data": "Additional data with no specified format",
          "from": "The address which previously owned the token",
          "ids": "An array containing ids of each token being transferred (order and length must match values array)",
          "operator": "The address which initiated the batch transfer (i.e. msg.sender)",
          "values": "An array containing amounts of each token being transferred (order and length must match ids array)"
        },
        "returns": {
          "_0": "`bytes4(keccak256(\"onERC1155BatchReceived(address,address,uint256[],uint256[],bytes)\"))` if transfer is allowed"
        }
      }
    },
    "version": 1
  },
  "userdoc": {
    "kind": "user",
    "methods": {
      "isValidSignature(bytes32,bytes)": {
        "notice": "Implementation of EIP 1271. Should return whether the signature provided is valid for the provided data."
      },
      "startSession(uint256)": {
        "notice": "startSession can only be started by majority of guardians"
      }
    },
    "version": 1
  }
}