{
  "contractName": "TOTPWallet",
  "abi": [
    {
      "inputs": [],
      "stateMutability": "nonpayable",
      "type": "constructor"
    },
    {
      "anonymous": false,
      "inputs": [
        {
          "indexed": true,
          "internalType": "address",
          "name": "sender",
          "type": "address"
        },
        {
          "indexed": false,
          "internalType": "uint256",
          "name": "value",
          "type": "uint256"
        }
      ],
      "name": "Deposit",
      "type": "event"
    },
    {
      "anonymous": false,
      "inputs": [
        {
          "indexed": false,
          "internalType": "address",
          "name": "wallet",
          "type": "address"
        },
        {
          "indexed": false,
          "internalType": "address",
          "name": "refundAddress",
          "type": "address"
        },
        {
          "indexed": false,
          "internalType": "uint256",
          "name": "refundFee",
          "type": "uint256"
        }
      ],
      "name": "Initialized",
      "type": "event"
    },
    {
      "anonymous": false,
      "inputs": [
        {
          "indexed": true,
          "internalType": "bool",
          "name": "success",
          "type": "bool"
        },
        {
          "indexed": false,
          "internalType": "bytes",
          "name": "returnData",
          "type": "bytes"
        },
        {
          "indexed": false,
          "internalType": "bytes32",
          "name": "signedHash",
          "type": "bytes32"
        },
        {
          "indexed": false,
          "internalType": "address",
          "name": "refundAddress",
          "type": "address"
        },
        {
          "indexed": false,
          "internalType": "uint256",
          "name": "refundFee",
          "type": "uint256"
        }
      ],
      "name": "TransactionExecuted",
      "type": "event"
    },
    {
      "anonymous": false,
      "inputs": [
        {
          "indexed": false,
          "internalType": "address",
          "name": "newImpl",
          "type": "address"
        }
      ],
      "name": "WalletUpgraded",
      "type": "event"
    },
    {
      "inputs": [],
      "name": "version",
      "outputs": [
        {
          "internalType": "uint256",
          "name": "",
          "type": "uint256"
        }
      ],
      "stateMutability": "view",
      "type": "function",
      "constant": true
    },
    {
      "inputs": [],
      "name": "wallet",
      "outputs": [
        {
          "internalType": "address",
          "name": "owner",
          "type": "address"
        },
        {
          "internalType": "bool",
          "name": "locked",
          "type": "bool"
        },
        {
          "internalType": "uint8",
          "name": "merkelHeight",
          "type": "uint8"
        },
        {
          "internalType": "uint256",
          "name": "counter",
          "type": "uint256"
        },
        {
          "internalType": "address payable",
          "name": "drainAddr",
          "type": "address"
        },
        {
          "components": [
            {
              "internalType": "address",
              "name": "key",
              "type": "address"
            },
            {
              "internalType": "uint256",
              "name": "expires",
              "type": "uint256"
            },
            {
              "internalType": "bool",
              "name": "active",
              "type": "bool"
            },
            {
              "internalType": "address[]",
              "name": "guardiansApproved",
              "type": "address[]"
            }
          ],
          "internalType": "struct Core.Session",
          "name": "session",
          "type": "tuple"
        },
        {
          "components": [
            {
              "internalType": "uint256",
              "name": "limit",
              "type": "uint256"
            },
            {
              "internalType": "uint256",
              "name": "lastDay",
              "type": "uint256"
            },
            {
              "internalType": "uint256",
              "name": "spentToday",
              "type": "uint256"
            }
          ],
          "internalType": "struct Core.DailyLimit",
          "name": "dailyLimit",
          "type": "tuple"
        },
        {
          "internalType": "string",
          "name": "hashStorageID",
          "type": "string"
        },
        {
          "components": [
            {
              "internalType": "bytes32",
              "name": "secretHash",
              "type": "bytes32"
            },
            {
              "internalType": "bytes32",
              "name": "dataHash",
              "type": "bytes32"
            },
            {
              "internalType": "address[]",
              "name": "guardiansApproved",
              "type": "address[]"
            }
          ],
          "internalType": "struct Core.RecoveryInfo",
          "name": "pendingRecovery",
          "type": "tuple"
        },
        {
          "internalType": "address",
          "name": "resolver",
          "type": "address"
        },
        {
          "internalType": "uint256",
          "name": "nonce",
          "type": "uint256"
        }
      ],
      "stateMutability": "view",
      "type": "function",
      "constant": true
    },
    {
      "stateMutability": "payable",
      "type": "receive",
      "payable": true
    },
    {
      "inputs": [
        {
          "internalType": "address",
          "name": "resolver_",
          "type": "address"
        },
        {
          "internalType": "string[3]",
          "name": "domainAndHashId_",
          "type": "string[3]"
        },
        {
          "internalType": "address",
          "name": "owner_",
          "type": "address"
        },
        {
          "internalType": "bytes32[]",
          "name": "rootHash_",
          "type": "bytes32[]"
        },
        {
          "internalType": "uint8",
          "name": "merkelHeight_",
          "type": "uint8"
        },
        {
          "internalType": "address payable",
          "name": "drainAddr_",
          "type": "address"
        },
        {
          "internalType": "uint256",
          "name": "dailyLimit_",
          "type": "uint256"
        },
        {
          "internalType": "address",
          "name": "feeRecipient",
          "type": "address"
        },
        {
          "internalType": "uint256",
          "name": "feeAmount",
          "type": "uint256"
        }
      ],
      "name": "initialize",
      "outputs": [],
      "stateMutability": "nonpayable",
      "type": "function"
    },
    {
      "inputs": [
        {
          "internalType": "string",
          "name": "subdomain",
          "type": "string"
        },
        {
          "internalType": "string",
          "name": "domain",
          "type": "string"
        },
        {
          "internalType": "uint256",
          "name": "duration",
          "type": "uint256"
        }
      ],
      "name": "registerENS",
      "outputs": [],
      "stateMutability": "nonpayable",
      "type": "function"
    },
    {
      "inputs": [
        {
          "internalType": "bytes",
          "name": "_data",
          "type": "bytes"
        }
      ],
      "name": "getRequiredSignatures",
      "outputs": [
        {
          "internalType": "uint8",
          "name": "",
          "type": "uint8"
        },
        {
          "internalType": "enum Core.OwnerSignature",
          "name": "",
          "type": "uint8"
        }
      ],
      "stateMutability": "view",
      "type": "function",
      "constant": true
    },
    {
      "inputs": [
        {
          "internalType": "bytes",
          "name": "data",
          "type": "bytes"
        },
        {
          "internalType": "bytes",
          "name": "signatures",
          "type": "bytes"
        },
        {
          "internalType": "uint256",
          "name": "nonce",
          "type": "uint256"
        },
        {
          "internalType": "uint256",
          "name": "gasPrice",
          "type": "uint256"
        },
        {
          "internalType": "uint256",
          "name": "gasLimit",
          "type": "uint256"
        },
        {
          "internalType": "address",
          "name": "",
          "type": "address"
        },
        {
          "internalType": "address payable",
          "name": "refundAddress",
          "type": "address"
        }
      ],
      "name": "executeMetaTx",
      "outputs": [],
      "stateMutability": "nonpayable",
      "type": "function"
    },
    {
      "inputs": [
        {
          "components": [
            {
              "internalType": "address",
              "name": "to",
              "type": "address"
            },
            {
              "internalType": "uint256",
              "name": "value",
              "type": "uint256"
            },
            {
              "internalType": "bytes",
              "name": "data",
              "type": "bytes"
            }
          ],
          "internalType": "struct TOTPWallet.Call[]",
          "name": "_transactions",
          "type": "tuple[]"
        }
      ],
      "name": "multiCall",
      "outputs": [
        {
          "internalType": "bytes[]",
          "name": "",
          "type": "bytes[]"
        }
      ],
      "stateMutability": "nonpayable",
      "type": "function"
    },
    {
      "inputs": [
        {
          "components": [
            {
              "internalType": "address",
              "name": "to",
              "type": "address"
            },
            {
              "internalType": "uint256",
              "name": "value",
              "type": "uint256"
            },
            {
              "internalType": "bytes",
              "name": "data",
              "type": "bytes"
            }
          ],
          "internalType": "struct TOTPWallet.Call[]",
          "name": "_transactions",
          "type": "tuple[]"
        }
      ],
      "name": "multiCallWithSession",
      "outputs": [
        {
          "internalType": "bytes[]",
          "name": "",
          "type": "bytes[]"
        }
      ],
      "stateMutability": "nonpayable",
      "type": "function"
    },
    {
      "inputs": [
        {
          "internalType": "uint256",
          "name": "duration",
          "type": "uint256"
        }
      ],
      "name": "startSession",
      "outputs": [],
      "stateMutability": "nonpayable",
      "type": "function"
    },
    {
      "inputs": [],
      "name": "clearSession",
      "outputs": [],
      "stateMutability": "nonpayable",
      "type": "function"
    },
    {
      "inputs": [],
      "name": "getOwner",
      "outputs": [
        {
          "internalType": "address",
          "name": "",
          "type": "address"
        }
      ],
      "stateMutability": "view",
      "type": "function",
      "constant": true
    },
    {
      "inputs": [],
      "name": "getCounter",
      "outputs": [
        {
          "internalType": "uint256",
          "name": "",
          "type": "uint256"
        }
      ],
      "stateMutability": "view",
      "type": "function",
      "constant": true
    },
    {
      "inputs": [
        {
          "internalType": "string",
          "name": "id",
          "type": "string"
        }
      ],
      "name": "setHashStorageId",
      "outputs": [],
      "stateMutability": "nonpayable",
      "type": "function"
    },
    {
      "inputs": [],
      "name": "getHashStorageId",
      "outputs": [
        {
          "internalType": "string",
          "name": "",
          "type": "string"
        }
      ],
      "stateMutability": "view",
      "type": "function",
      "constant": true
    },
    {
      "inputs": [],
      "name": "getRootHashes",
      "outputs": [
        {
          "internalType": "bytes32[]",
          "name": "",
          "type": "bytes32[]"
        }
      ],
      "stateMutability": "view",
      "type": "function",
      "constant": true
    },
    {
      "inputs": [
        {
          "internalType": "address payable",
          "name": "addr",
          "type": "address"
        }
      ],
      "name": "setDrainAddress",
      "outputs": [],
      "stateMutability": "nonpayable",
      "type": "function"
    },
    {
      "inputs": [
        {
          "internalType": "uint256",
          "name": "amount",
          "type": "uint256"
        }
      ],
      "name": "setDailyLimit",
      "outputs": [],
      "stateMutability": "nonpayable",
      "type": "function"
    },
    {
      "inputs": [
        {
          "internalType": "address",
          "name": "guardian",
          "type": "address"
        }
      ],
      "name": "addGuardian",
      "outputs": [],
      "stateMutability": "nonpayable",
      "type": "function"
    },
    {
      "inputs": [
        {
          "internalType": "address",
          "name": "guardian",
          "type": "address"
        }
      ],
      "name": "revokeGuardian",
      "outputs": [],
      "stateMutability": "nonpayable",
      "type": "function"
    },
    {
      "inputs": [],
      "name": "getGuardians",
      "outputs": [
        {
          "internalType": "address[]",
          "name": "",
          "type": "address[]"
        }
      ],
      "stateMutability": "view",
      "type": "function",
      "constant": true
    },
    {
      "inputs": [
        {
          "internalType": "address",
          "name": "newOwner_",
          "type": "address"
        }
      ],
      "name": "startRecoverGuardianOnly",
      "outputs": [],
      "stateMutability": "nonpayable",
      "type": "function"
    },
    {
      "inputs": [
        {
          "internalType": "bytes32",
          "name": "secretHash",
          "type": "bytes32"
        },
        {
          "internalType": "bytes32",
          "name": "dataHash",
          "type": "bytes32"
        }
      ],
      "name": "startRecoverCommit",
      "outputs": [],
      "stateMutability": "nonpayable",
      "type": "function"
    },
    {
      "inputs": [
        {
          "internalType": "address",
          "name": "newOwner",
          "type": "address"
        },
        {
          "internalType": "bytes32[]",
          "name": "confirmMaterial",
          "type": "bytes32[]"
        }
      ],
      "name": "startRecoveryReveal",
      "outputs": [],
      "stateMutability": "nonpayable",
      "type": "function"
    },
    {
      "inputs": [
        {
          "internalType": "bytes",
          "name": "data_",
          "type": "bytes"
        }
      ],
      "name": "guardianApprove",
      "outputs": [],
      "stateMutability": "nonpayable",
      "type": "function"
    },
    {
      "inputs": [
        {
          "internalType": "address",
          "name": "newMasterCopy",
          "type": "address"
        }
      ],
      "name": "upgradeMasterCopy",
      "outputs": [],
      "stateMutability": "nonpayable",
      "type": "function"
    },
    {
      "inputs": [],
      "name": "getMasterCopy",
      "outputs": [
        {
          "internalType": "address",
          "name": "",
          "type": "address"
        }
      ],
      "stateMutability": "view",
      "type": "function",
      "constant": true
    },
    {
      "inputs": [
        {
          "internalType": "address",
          "name": "",
          "type": "address"
        },
        {
          "internalType": "address",
          "name": "",
          "type": "address"
        },
        {
          "internalType": "uint256",
          "name": "",
          "type": "uint256"
        },
        {
          "internalType": "uint256",
          "name": "",
          "type": "uint256"
        },
        {
          "internalType": "bytes",
          "name": "",
          "type": "bytes"
        }
      ],
      "name": "onERC1155Received",
      "outputs": [
        {
          "internalType": "bytes4",
          "name": "",
          "type": "bytes4"
        }
      ],
      "stateMutability": "pure",
      "type": "function",
      "constant": true
    },
    {
      "inputs": [
        {
          "internalType": "address",
          "name": "",
          "type": "address"
        },
        {
          "internalType": "address",
          "name": "",
          "type": "address"
        },
        {
          "internalType": "uint256[]",
          "name": "",
          "type": "uint256[]"
        },
        {
          "internalType": "uint256[]",
          "name": "",
          "type": "uint256[]"
        },
        {
          "internalType": "bytes",
          "name": "",
          "type": "bytes"
        }
      ],
      "name": "onERC1155BatchReceived",
      "outputs": [
        {
          "internalType": "bytes4",
          "name": "",
          "type": "bytes4"
        }
      ],
      "stateMutability": "pure",
      "type": "function",
      "constant": true
    },
    {
      "inputs": [
        {
          "internalType": "bytes4",
          "name": "interfaceID",
          "type": "bytes4"
        }
      ],
      "name": "supportsInterface",
      "outputs": [
        {
          "internalType": "bool",
          "name": "",
          "type": "bool"
        }
      ],
      "stateMutability": "pure",
      "type": "function",
      "constant": true
    },
    {
      "inputs": [
        {
          "internalType": "address",
          "name": "",
          "type": "address"
        },
        {
          "internalType": "address",
          "name": "",
          "type": "address"
        },
        {
          "internalType": "uint256",
          "name": "",
          "type": "uint256"
        },
        {
          "internalType": "bytes",
          "name": "",
          "type": "bytes"
        }
      ],
      "name": "onERC721Received",
      "outputs": [
        {
          "internalType": "bytes4",
          "name": "",
          "type": "bytes4"
        }
      ],
      "stateMutability": "pure",
      "type": "function",
      "constant": true
    },
    {
      "inputs": [
        {
          "internalType": "bytes32",
          "name": "_msgHash",
          "type": "bytes32"
        },
        {
          "internalType": "bytes",
          "name": "_signature",
          "type": "bytes"
        }
      ],
      "name": "isValidSignature",
      "outputs": [
        {
          "internalType": "bytes4",
          "name": "",
          "type": "bytes4"
        }
      ],
      "stateMutability": "view",
      "type": "function",
      "constant": true
    }
  ],
  "bytecode": "0x608060405234801561001057600080fd5b506001601660006101000a81548160ff021916908315150217905550615ee2806200003c6000396000f3fe6080604052600436106101dc5760003560e01c806383183a1b11610102578063b6c3843211610095578063d86dde5011610064578063d86dde50146106e2578063de033715146106f9578063ef24c73614610722578063f23a6e611461074b576101e3565b8063b6c3843214610628578063bc197c8114610651578063c832fe5f1461068e578063cabd82c5146106b9576101e3565b80638df2730a116100d15780638df2730a14610584578063a526d83b146105ad578063af648c3d146105d6578063b20d30a9146105ff576101e3565b806383183a1b146104c8578063837c606614610505578063893d20e81461052e5780638ada066e14610559576101e3565b80632f23a3ab1161017a57806375a3f50d1161014957806375a3f50d1461040f578063771276121461044d578063782c25bd1461047657806379d3d98c1461049f576101e3565b80632f23a3ab1461035d578063521eb2731461038657806354fd4d50146103bb578063693b60a2146103e6576101e3565b8063150b7a02116101b6578063150b7a021461027b5780631626ba7e146102b85780631f13938d146102f5578063248b170114610320576101e3565b806301ffc9a7146101e857806304e80e90146102255780630665f04b14610250576101e3565b366101e357005b600080fd5b3480156101f457600080fd5b5061020f600480360381019061020a91906141e6565b610788565b60405161021c919061511e565b60405180910390f35b34801561023157600080fd5b5061023a6108c6565b6040516102479190614fa5565b60405180910390f35b34801561025c57600080fd5b506102656108ef565b60405161027291906150b8565b60405180910390f35b34801561028757600080fd5b506102a2600480360381019061029d9190613e83565b610980565b6040516102af919061517e565b60405180910390f35b3480156102c457600080fd5b506102df60048036038101906102da9190614192565b610995565b6040516102ec919061517e565b60405180910390f35b34801561030157600080fd5b5061030a610a38565b60405161031791906152c1565b60405180910390f35b34801561032c57600080fd5b50610347600480360381019061034291906140e8565b610acd565b60405161035491906150fc565b60405180910390f35b34801561036957600080fd5b50610384600480360381019061037f919061436f565b610ee5565b005b34801561039257600080fd5b5061039b611045565b6040516103b29b9a99989796959493929190614ff7565b60405180910390f35b3480156103c757600080fd5b506103d0611376565b6040516103dd9190615723565b60405180910390f35b3480156103f257600080fd5b5061040d60048036038101906104089190614254565b61137b565b005b34801561041b57600080fd5b506104366004803603810190610431919061420f565b611653565b60405161044492919061573e565b60405180910390f35b34801561045957600080fd5b50610474600480360381019061046f91906143f8565b611a1c565b005b34801561048257600080fd5b5061049d60048036038101906104989190613fed565b611af7565b005b3480156104ab57600080fd5b506104c660048036038101906104c1919061432a565b611fbb565b005b3480156104d457600080fd5b506104ef60048036038101906104ea91906140e8565b6120b9565b6040516104fc91906150fc565b60405180910390f35b34801561051157600080fd5b5061052c6004803603810190610527919061420f565b612322565b005b34801561053a57600080fd5b50610543612679565b6040516105509190614fa5565b60405180910390f35b34801561056557600080fd5b5061056e6126a6565b60405161057b9190615723565b60405180910390f35b34801561059057600080fd5b506105ab60048036038101906105a69190614156565b6126b3565b005b3480156105b957600080fd5b506105d460048036038101906105cf9190613d65565b612850565b005b3480156105e257600080fd5b506105fd60048036038101906105f89190613d65565b6129a4565b005b34801561060b57600080fd5b50610626600480360381019061062191906143f8565b612af8565b005b34801561063457600080fd5b5061064f600480360381019061064a9190613d8e565b612b76565b005b34801561065d57600080fd5b5061067860048036038101906106739190613db7565b612c2b565b604051610685919061517e565b60405180910390f35b34801561069a57600080fd5b506106a3612c43565b6040516106b091906150da565b60405180910390f35b3480156106c557600080fd5b506106e060048036038101906106db9190613f95565b612c9d565b005b3480156106ee57600080fd5b506106f7612e2f565b005b34801561070557600080fd5b50610720600480360381019061071b9190613d65565b612f24565b005b34801561072e57600080fd5b5061074960048036038101906107449190613d65565b61300c565b005b34801561075757600080fd5b50610772600480360381019061076d9190613f03565b61314d565b60405161077f919061517e565b60405180910390f35b60006301ffc9a760e01b7bffffffffffffffffffffffffffffffffffffffffffffffffffffffff1916827bffffffffffffffffffffffffffffffffffffffffffffffffffffffff19161480610821575063f23a6e6160e01b7bffffffffffffffffffffffffffffffffffffffffffffffffffffffff1916827bffffffffffffffffffffffffffffffffffffffffffffffffffffffff1916145b80610870575063150b7a0260e01b7bffffffffffffffffffffffffffffffffffffffffffffffffffffffff1916827bffffffffffffffffffffffffffffffffffffffffffffffffffffffff1916145b806108bf5750631626ba7e60e01b7bffffffffffffffffffffffffffffffffffffffffffffffffffffffff1916827bffffffffffffffffffffffffffffffffffffffffffffffffffffffff1916145b9050919050565b60008060009054906101000a900473ffffffffffffffffffffffffffffffffffffffff16905090565b6060600160050180548060200260200160405190810160405280929190818152602001828054801561097657602002820191906000526020600020905b8160009054906101000a900473ffffffffffffffffffffffffffffffffffffffff1673ffffffffffffffffffffffffffffffffffffffff168152602001906001019080831161092c575b5050505050905090565b600063150b7a0260e01b905095945050505050565b600060418251146109db576040517f08c379a00000000000000000000000000000000000000000000000000000000081526004016109d290615463565b60405180910390fd5b6109e9600184846001613163565b610a28576040517f08c379a0000000000000000000000000000000000000000000000000000000008152600401610a1f906154e3565b60405180910390fd5b631626ba7e60e01b905092915050565b60606001600e018054610a4a90615c5d565b80601f0160208091040260200160405190810160405280929190818152602001828054610a7690615c5d565b8015610ac35780601f10610a9857610100808354040283529160200191610ac3565b820191906000526020600020905b815481529060010190602001808311610aa657829003601f168201915b5050505050905090565b60603073ffffffffffffffffffffffffffffffffffffffff163373ffffffffffffffffffffffffffffffffffffffff161480610b755750600160000160009054906101000a900473ffffffffffffffffffffffffffffffffffffffff1673ffffffffffffffffffffffffffffffffffffffff163373ffffffffffffffffffffffffffffffffffffffff16148015610b745750600160000160149054906101000a900460ff16155b5b610bb4576040517f08c379a0000000000000000000000000000000000000000000000000000000008152600401610bab90615423565b60405180910390fd5b60008383905067ffffffffffffffff811115610bf9577f4e487b7100000000000000000000000000000000000000000000000000000000600052604160045260246000fd5b604051908082528060200260200182016040528015610c2c57816020015b6060815260200190600190039081610c175790505b50905060005b84849050811015610eda57366000868684818110610c79577f4e487b7100000000000000000000000000000000000000000000000000000000600052603260045260246000fd5b9050602002810190610c8b9190615815565b8060400190610c9a9190615767565b915091506000878785818110610cd9577f4e487b7100000000000000000000000000000000000000000000000000000000600052603260045260246000fd5b9050602002810190610ceb9190615815565b60200135905060006001600501805490501115610e18576004838390501080610d665750610d64610d5f84848080601f016020809104026020016040519081016040528093929190818152602001838380828437600081840152601f19601f820116905080830192505050505050506133ef565b613442565b155b610da5576040517f08c379a0000000000000000000000000000000000000000000000000000000008152600401610d9c906154a3565b60405180910390fd5b610db981600161353190919063ffffffff16565b610df8576040517f08c379a0000000000000000000000000000000000000000000000000000000008152600401610def90615323565b60405180910390fd5b806001600b016002016000828254610e109190615a10565b925050819055505b610e80888886818110610e54577f4e487b7100000000000000000000000000000000000000000000000000000000600052603260045260246000fd5b9050602002810190610e669190615815565b6000016020810190610e789190613d65565b8285856135c2565b858581518110610eb9577f4e487b7100000000000000000000000000000000000000000000000000000000600052603260045260246000fd5b60200260200101819052505050508080610ed290615c8f565b915050610c32565b508091505092915050565b3073ffffffffffffffffffffffffffffffffffffffff163373ffffffffffffffffffffffffffffffffffffffff161480610f8b5750600160000160009054906101000a900473ffffffffffffffffffffffffffffffffffffffff1673ffffffffffffffffffffffffffffffffffffffff163373ffffffffffffffffffffffffffffffffffffffff16148015610f8a5750600160000160149054906101000a900460ff16155b5b610fca576040517f08c379a0000000000000000000000000000000000000000000000000000000008152600401610fc190615423565b60405180910390fd5b600173__NameService___________________________63145f7620909187878787876040518763ffffffff1660e01b815260040161100e9695949392919061559c565b60006040518083038186803b15801561102657600080fd5b505af415801561103a573d6000803e3d6000fd5b505050505050505050565b60018060000160009054906101000a900473ffffffffffffffffffffffffffffffffffffffff16908060000160149054906101000a900460ff16908060020160009054906101000a900460ff16908060030154908060040160009054906101000a900473ffffffffffffffffffffffffffffffffffffffff1690806007016040518060800160405290816000820160009054906101000a900473ffffffffffffffffffffffffffffffffffffffff1673ffffffffffffffffffffffffffffffffffffffff1673ffffffffffffffffffffffffffffffffffffffff168152602001600182015481526020016002820160009054906101000a900460ff16151515158152602001600382018054806020026020016040519081016040528092919081815260200182805480156111ce57602002820191906000526020600020905b8160009054906101000a900473ffffffffffffffffffffffffffffffffffffffff1673ffffffffffffffffffffffffffffffffffffffff1681526020019060010190808311611184575b5050505050815250509080600b0160405180606001604052908160008201548152602001600182015481526020016002820154815250509080600e01805461121590615c5d565b80601f016020809104026020016040519081016040528092919081815260200182805461124190615c5d565b801561128e5780601f106112635761010080835404028352916020019161128e565b820191906000526020600020905b81548152906001019060200180831161127157829003601f168201915b50505050509080600f0160405180606001604052908160008201548152602001600182015481526020016002820180548060200260200160405190810160405280929190818152602001828054801561133c57602002820191906000526020600020905b8160009054906101000a900473ffffffffffffffffffffffffffffffffffffffff1673ffffffffffffffffffffffffffffffffffffffff16815260200190600101908083116112f2575b505050505081525050908060130160009054906101000a900473ffffffffffffffffffffffffffffffffffffffff1690806014015490508b565b600381565b60005a90506113886139f7565b6113928b8b611653565b82600001836020018260048111156113d3577f4e487b7100000000000000000000000000000000000000000000000000000000600052602160045260246000fd5b600481111561140b577f4e487b7100000000000000000000000000000000000000000000000000000000600052602160045260246000fd5b8152508260ff1660ff16815250505073__MetaTx________________________________631815d80160018d8d8d8d8d8d8d8c8b6040518b63ffffffff1660e01b81526004016114649a9998979695949392919061566a565b60006040518083038186803b15801561147c57600080fd5b505af4158015611490573d6000803e3d6000fd5b50505050600060603073ffffffffffffffffffffffffffffffffffffffff168d8d6040516114bf929190614f77565b6000604051808303816000865af19150503d80600081146114fc576040519150601f19603f3d011682016040523d82523d6000602084013e611501565b606091505b5080925081935050506000881180156115175750815b80156115505750600073ffffffffffffffffffffffffffffffffffffffff168573ffffffffffffffffffffffffffffffffffffffff1614155b15611601576000620111705a866115679190615a97565b6115719190615a10565b90508573ffffffffffffffffffffffffffffffffffffffff166108fc829081150290604051600060405180830381858888f193505050501580156115b9573d6000803e3d6000fd5b508215157f83fbf939f72733e38e8b90fb507db5b3a43ce5c0967fac7f9bbd2d82f0c62afc83600089856040516115f3949392919061522c565b60405180910390a250611644565b8115157f83fbf939f72733e38e8b90fb507db5b3a43ce5c0967fac7f9bbd2d82f0c62afc82600088600060405161163b94939291906151e0565b60405180910390a25b50505050505050505050505050565b60008060006116a585858080601f016020809104026020016040519081016040528093929190818152602001838380828437600081840152601f19601f820116905080830192505050505050506133ef565b905063248b170160e01b7bffffffffffffffffffffffffffffffffffffffffffffffffffffffff1916817bffffffffffffffffffffffffffffffffffffffffffffffffffffffff1916148061173e575063a526d83b60e01b7bffffffffffffffffffffffffffffffffffffffffffffffffffffffff1916817bffffffffffffffffffffffffffffffffffffffffffffffffffffffff1916145b8061178d575063af648c3d60e01b7bffffffffffffffffffffffffffffffffffffffffffffffffffffffff1916817bffffffffffffffffffffffffffffffffffffffffffffffffffffffff1916145b806117dc575063d86dde5060e01b7bffffffffffffffffffffffffffffffffffffffffffffffffffffffff1916817bffffffffffffffffffffffffffffffffffffffffffffffffffffffff1916145b8061182b57506379d3d98c60e01b7bffffffffffffffffffffffffffffffffffffffffffffffffffffffff1916817bffffffffffffffffffffffffffffffffffffffffffffffffffffffff1916145b1561183d576001809250925050611a15565b6000600160050180549050141561186e5761185781613442565b15611869576001809250925050611a15565b611924565b637712761260e01b7bffffffffffffffffffffffffffffffffffffffffffffffffffffffff1916817bffffffffffffffffffffffffffffffffffffffffffffffffffffffff191614156118c8576001809250925050611a15565b6383183a1b60e01b7bffffffffffffffffffffffffffffffffffffffffffffffffffffffff1916817bffffffffffffffffffffffffffffffffffffffffffffffffffffffff1916141561192357600160049250925050611a15565b5b638df2730a60e01b7bffffffffffffffffffffffffffffffffffffffffffffffffffffffff1916817bffffffffffffffffffffffffffffffffffffffffffffffffffffffff1916141561197f57600060039250925050611a15565b63cabd82c560e01b7bffffffffffffffffffffffffffffffffffffffffffffffffffffffff1916817bffffffffffffffffffffffffffffffffffffffffffffffffffffffff191614156119da57600060039250925050611a15565b6040517f08c379a0000000000000000000000000000000000000000000000000000000008152600401611a0c90615443565b60405180910390fd5b9250929050565b3073ffffffffffffffffffffffffffffffffffffffff163373ffffffffffffffffffffffffffffffffffffffff1614611a8a576040517f08c379a0000000000000000000000000000000000000000000000000000000008152600401611a8190615403565b60405180910390fd5b73__MetaTx________________________________636156ca0a6001836040518363ffffffff1660e01b8152600401611ac49291906156fa565b60006040518083038186803b158015611adc57600080fd5b505af4158015611af0573d6000803e3d6000fd5b5050505050565b89600160130160006101000a81548173ffffffffffffffffffffffffffffffffffffffff021916908373ffffffffffffffffffffffffffffffffffffffff160217905550600073ffffffffffffffffffffffffffffffffffffffff16600160000160009054906101000a900473ffffffffffffffffffffffffffffffffffffffff1673ffffffffffffffffffffffffffffffffffffffff1614611bcf576040517f08c379a0000000000000000000000000000000000000000000000000000000008152600401611bc6906153c3565b60405180910390fd5b80471015611c12576040517f08c379a0000000000000000000000000000000000000000000000000000000008152600401611c09906152e3565b60405180910390fd5b87600160000160006101000a81548173ffffffffffffffffffffffffffffffffffffffff021916908373ffffffffffffffffffffffffffffffffffffffff16021790555060005b878790508163ffffffff161015611ced576001800188888363ffffffff16818110611cad577f4e487b7100000000000000000000000000000000000000000000000000000000600052603260045260246000fd5b9050602002013590806001815401808255809150506001900390600052602060002001600090919091909150558080611ce590615cd8565b915050611c59565b5084600160020160006101000a81548160ff021916908360ff16021790555083600160040160006101000a81548173ffffffffffffffffffffffffffffffffffffffff021916908373ffffffffffffffffffffffffffffffffffffffff160217905550826001600b0160000181905550600089600060038110611d99577f4e487b7100000000000000000000000000000000000000000000000000000000600052603260045260246000fd5b602002810190611da991906157be565b90501115611eb9573073ffffffffffffffffffffffffffffffffffffffff16632f23a3ab8a600060038110611e07577f4e487b7100000000000000000000000000000000000000000000000000000000600052603260045260246000fd5b602002810190611e1791906157be565b8c600160038110611e51577f4e487b7100000000000000000000000000000000000000000000000000000000600052603260045260246000fd5b602002810190611e6191906157be565b630bebc2006040518663ffffffff1660e01b8152600401611e86959493929190615278565b600060405180830381600087803b158015611ea057600080fd5b505af1158015611eb4573d6000803e3d6000fd5b505050505b600073ffffffffffffffffffffffffffffffffffffffff168273ffffffffffffffffffffffffffffffffffffffff1614611f5257611f16818373ffffffffffffffffffffffffffffffffffffffff166136a690919063ffffffff16565b7f10f27652c1015195ca7e6bc9b4c724cbf18e91c42117d92124703a3f49bb240f308383604051611f4993929190614fc0565b60405180910390a15b88600260038110611f8c577f4e487b7100000000000000000000000000000000000000000000000000000000600052603260045260246000fd5b602002810190611f9c91906157be565b6001600e019190611fae929190613a4c565b5050505050505050505050565b3073ffffffffffffffffffffffffffffffffffffffff163373ffffffffffffffffffffffffffffffffffffffff1614806120615750600160000160009054906101000a900473ffffffffffffffffffffffffffffffffffffffff1673ffffffffffffffffffffffffffffffffffffffff163373ffffffffffffffffffffffffffffffffffffffff161480156120605750600160000160149054906101000a900460ff16155b5b6120a0576040517f08c379a000000000000000000000000000000000000000000000000000000000815260040161209790615423565b60405180910390fd5b81816001600e0191906120b4929190613a4c565b505050565b60603073ffffffffffffffffffffffffffffffffffffffff163373ffffffffffffffffffffffffffffffffffffffff1614612129576040517f08c379a000000000000000000000000000000000000000000000000000000000815260040161212090615403565b60405180910390fd5b60008383905067ffffffffffffffff81111561216e577f4e487b7100000000000000000000000000000000000000000000000000000000600052604160045260246000fd5b6040519080825280602002602001820160405280156121a157816020015b606081526020019060019003908161218c5790505b50905060005b84849050811015612317576122c08585838181106121ee577f4e487b7100000000000000000000000000000000000000000000000000000000600052603260045260246000fd5b90506020028101906122009190615815565b60000160208101906122129190613d65565b86868481811061224b577f4e487b7100000000000000000000000000000000000000000000000000000000600052603260045260246000fd5b905060200281019061225d9190615815565b6020013587878581811061229a577f4e487b7100000000000000000000000000000000000000000000000000000000600052603260045260246000fd5b90506020028101906122ac9190615815565b80604001906122bb9190615767565b6135c2565b8282815181106122f9577f4e487b7100000000000000000000000000000000000000000000000000000000600052603260045260246000fd5b6020026020010181905250808061230f90615c8f565b9150506121a7565b508091505092915050565b6123b560016005018054806020026020016040519081016040528092919081815260200182805480156123aa57602002820191906000526020600020905b8160009054906101000a900473ffffffffffffffffffffffffffffffffffffffff1673ffffffffffffffffffffffffffffffffffffffff1681526020019060010190808311612360575b50505050503361379a565b6123f4576040517f08c379a00000000000000000000000000000000000000000000000000000000081526004016123eb906154c3565b60405180910390fd5b600061244383838080601f016020809104026020016040519081016040528093929190818152602001838380828437600081840152601f19601f820116905080830192505050505050506133ef565b9050638df2730a60e01b7bffffffffffffffffffffffffffffffffffffffffffffffffffffffff1916817bffffffffffffffffffffffffffffffffffffffffffffffffffffffff191614806124dc575063ef24c73660e01b7bffffffffffffffffffffffffffffffffffffffffffffffffffffffff1916817bffffffffffffffffffffffffffffffffffffffffffffffffffffffff1916145b1561257857600083836004906024926124f7939291906159dd565b810190612504919061412d565b905073__Recovery______________________________63ff7cf562600183336040518463ffffffff1660e01b8152600401612542939291906155f3565b60006040518083038186803b15801561255a57600080fd5b505af415801561256e573d6000803e3d6000fd5b5050505050612674565b637712761260e01b7bffffffffffffffffffffffffffffffffffffffffffffffffffffffff1916817bffffffffffffffffffffffffffffffffffffffffffffffffffffffff191614156126385773__MetaTx________________________________637c8d159b60018585336040518563ffffffff1660e01b8152600401612603949392919061562a565b60006040518083038186803b15801561261b57600080fd5b505af415801561262f573d6000803e3d6000fd5b50505050612673565b6040517f08c379a000000000000000000000000000000000000000000000000000000000815260040161266a90615483565b60405180910390fd5b5b505050565b6000600160000160009054906101000a900473ffffffffffffffffffffffffffffffffffffffff16905090565b6000600160030154905090565b3073ffffffffffffffffffffffffffffffffffffffff163373ffffffffffffffffffffffffffffffffffffffff1614612721576040517f08c379a000000000000000000000000000000000000000000000000000000000815260040161271890615403565b60405180910390fd5b600060016012016000848152602001908152602001600020600201541461277d576040517f08c379a000000000000000000000000000000000000000000000000000000000815260040161277490615303565b60405180910390fd5b6040518060800160405280828152602001600073ffffffffffffffffffffffffffffffffffffffff16815260200143815260200160001515815250600160120160008481526020019081526020016000206000820151816000015560208201518160010160006101000a81548173ffffffffffffffffffffffffffffffffffffffff021916908373ffffffffffffffffffffffffffffffffffffffff1602179055506040820151816002015560608201518160030160006101000a81548160ff0219169083151502179055509050505050565b3073ffffffffffffffffffffffffffffffffffffffff163373ffffffffffffffffffffffffffffffffffffffff1614806128f65750600160000160009054906101000a900473ffffffffffffffffffffffffffffffffffffffff1673ffffffffffffffffffffffffffffffffffffffff163373ffffffffffffffffffffffffffffffffffffffff161480156128f55750600160000160149054906101000a900460ff16155b5b612935576040517f08c379a000000000000000000000000000000000000000000000000000000000815260040161292c90615423565b60405180910390fd5b600173__Guardians_____________________________6397b9ce099091836040518363ffffffff1660e01b8152600401612971929190615503565b60006040518083038186803b15801561298957600080fd5b505af415801561299d573d6000803e3d6000fd5b5050505050565b3073ffffffffffffffffffffffffffffffffffffffff163373ffffffffffffffffffffffffffffffffffffffff161480612a4a5750600160000160009054906101000a900473ffffffffffffffffffffffffffffffffffffffff1673ffffffffffffffffffffffffffffffffffffffff163373ffffffffffffffffffffffffffffffffffffffff16148015612a495750600160000160149054906101000a900460ff16155b5b612a89576040517f08c379a0000000000000000000000000000000000000000000000000000000008152600401612a8090615423565b60405180910390fd5b600173__Guardians_____________________________63e98ee0859091836040518363ffffffff1660e01b8152600401612ac5929190615503565b60006040518083038186803b158015612add57600080fd5b505af4158015612af1573d6000803e3d6000fd5b5050505050565b3073ffffffffffffffffffffffffffffffffffffffff163373ffffffffffffffffffffffffffffffffffffffff1614612b66576040517f08c379a0000000000000000000000000000000000000000000000000000000008152600401612b5d90615403565b60405180910390fd5b806001600b016000018190555050565b3073ffffffffffffffffffffffffffffffffffffffff163373ffffffffffffffffffffffffffffffffffffffff1614612be4576040517f08c379a0000000000000000000000000000000000000000000000000000000008152600401612bdb90615403565b60405180910390fd5b80600160040160006101000a81548173ffffffffffffffffffffffffffffffffffffffff021916908373ffffffffffffffffffffffffffffffffffffffff16021790555050565b600063bc197c8160e01b905098975050505050505050565b606060018001805480602002602001604051908101604052809291908181526020018280548015612c9357602002820191906000526020600020905b815481526020019060010190808311612c7f575b5050505050905090565b3073ffffffffffffffffffffffffffffffffffffffff163373ffffffffffffffffffffffffffffffffffffffff1614612d0b576040517f08c379a0000000000000000000000000000000000000000000000000000000008152600401612d0290615403565b60405180910390fd5b818180806020026020016040519081016040528093929190818152602001838360200280828437600081840152601f19601f82011690508083019250505050505050600173__Recovery______________________________6321ca866f9091836040518363ffffffff1660e01b8152600401612d8992919061556c565b60006040518083038186803b158015612da157600080fd5b505af4158015612db5573d6000803e3d6000fd5b50505050600173__Recovery______________________________63cc5d24cb90918686866040518563ffffffff1660e01b8152600401612df9949392919061552c565b60006040518083038186803b158015612e1157600080fd5b505af4158015612e25573d6000803e3d6000fd5b5050505050505050565b3073ffffffffffffffffffffffffffffffffffffffff163373ffffffffffffffffffffffffffffffffffffffff161480612ed55750600160000160009054906101000a900473ffffffffffffffffffffffffffffffffffffffff1673ffffffffffffffffffffffffffffffffffffffff163373ffffffffffffffffffffffffffffffffffffffff16148015612ed45750600160000160149054906101000a900460ff16155b5b612f14576040517f08c379a0000000000000000000000000000000000000000000000000000000008152600401612f0b90615423565b60405180910390fd5b6000600160070160010181905550565b3073ffffffffffffffffffffffffffffffffffffffff163373ffffffffffffffffffffffffffffffffffffffff1614612f92576040517f08c379a0000000000000000000000000000000000000000000000000000000008152600401612f8990615403565b60405180910390fd5b806000806101000a81548173ffffffffffffffffffffffffffffffffffffffff021916908373ffffffffffffffffffffffffffffffffffffffff1602179055507f8a5dcb0249bae905183e794960410c37563e6ab514b1add384425d153972118d816040516130019190614fa5565b60405180910390a150565b61309f600160050180548060200260200160405190810160405280929190818152602001828054801561309457602002820191906000526020600020905b8160009054906101000a900473ffffffffffffffffffffffffffffffffffffffff1673ffffffffffffffffffffffffffffffffffffffff168152602001906001019080831161304a575b50505050503361379a565b6130de576040517f08c379a00000000000000000000000000000000000000000000000000000000081526004016130d5906154c3565b60405180910390fd5b600173__Recovery______________________________630e7032629091836040518363ffffffff1660e01b815260040161311a929190615503565b60006040518083038186803b15801561313257600080fd5b505af4158015613146573d6000803e3d6000fd5b5050505050565b600063f23a6e6160e01b90509695505050505050565b6000808351141561317757600190506133e7565b600080866005018054806020026020016040519081016040528092919081815260200182805480156131fe57602002820191906000526020600020905b8160009054906101000a900473ffffffffffffffffffffffffffffffffffffffff1673ffffffffffffffffffffffffffffffffffffffff16815260200190600101908083116131b4575b50505050509050600080600090505b6041875161321b9190615a66565b8110156133de57600061322f898984613848565b905060008214156133665760016004811115613274577f4e487b7100000000000000000000000000000000000000000000000000000000600052602160045260246000fd5b8760048111156132ad577f4e487b7100000000000000000000000000000000000000000000000000000000600052602160045260246000fd5b14156132d6576132bd8a8261399a565b156132c857506133cb565b6000955050505050506133e7565b60026004811115613310577f4e487b7100000000000000000000000000000000000000000000000000000000600052602160045260246000fd5b876004811115613349577f4e487b7100000000000000000000000000000000000000000000000000000000600052602160045260246000fd5b1415613365576133598a8261399a565b1561336457506133cb565b5b5b8473ffffffffffffffffffffffffffffffffffffffff168173ffffffffffffffffffffffffffffffffffffffff16116133a7576000955050505050506133e7565b8094506133b4848261379a565b9250826133c9576000955050505050506133e7565b505b80806133d690615c8f565b91505061320d565b50600193505050505b949350505050565b6000600482511015613436576040517f08c379a000000000000000000000000000000000000000000000000000000000815260040161342d90615363565b60405180910390fd5b60208201519050919050565b600063de03371560e01b7bffffffffffffffffffffffffffffffffffffffffffffffffffffffff1916827bffffffffffffffffffffffffffffffffffffffffffffffffffffffff191614806134db575063b20d30a960e01b7bffffffffffffffffffffffffffffffffffffffffffffffffffffffff1916827bffffffffffffffffffffffffffffffffffffffffffffffffffffffff1916145b8061352a575063b6c3843260e01b7bffffffffffffffffffffffffffffffffffffffffffffffffffffffff1916827bffffffffffffffffffffffffffffffffffffffffffffffffffffffff1916145b9050919050565b60006201518083600b01600101546135499190615a10565b42111561356a574283600b0160010181905550600083600b01600201819055505b82600b01600001548284600b01600201546135859190615a10565b11806135a9575082600b01600201548284600b01600201546135a79190615a10565b105b156135b757600090506135bc565b600190505b92915050565b606060008573ffffffffffffffffffffffffffffffffffffffff168585856040516135ee929190614f77565b60006040518083038185875af1925050503d806000811461362b576040519150601f19603f3d011682016040523d82523d6000602084013e613630565b606091505b508093508192505050848673ffffffffffffffffffffffffffffffffffffffff167f79ff2e3e6b1a9fd5afa9ad7b27b6075a3f05484916a94f800548947efa77e83b868685876040516136869493929190615199565b60405180910390a38061369d573d6000803e3d6000fd5b50949350505050565b804710156136e9576040517f08c379a00000000000000000000000000000000000000000000000000000000081526004016136e0906153a3565b60405180910390fd5b60008273ffffffffffffffffffffffffffffffffffffffff168260405161370f90614f90565b60006040518083038185875af1925050503d806000811461374c576040519150601f19603f3d011682016040523d82523d6000602084013e613751565b606091505b5050905080613795576040517f08c379a000000000000000000000000000000000000000000000000000000000815260040161378c90615383565b60405180910390fd5b505050565b600080600090505b835181101561383c578381815181106137e4577f4e487b7100000000000000000000000000000000000000000000000000000000600052603260045260246000fd5b602002602001015173ffffffffffffffffffffffffffffffffffffffff168373ffffffffffffffffffffffffffffffffffffffff161415613829576001915050613842565b808061383490615c8f565b9150506137a2565b50600090505b92915050565b60008060008084604102602001860151915084604102604001860151905060ff85604102604101870151169250601b8360ff16148061388a5750601c8360ff16145b6138c9576040517f08c379a00000000000000000000000000000000000000000000000000000000081526004016138c0906153e3565b60405180910390fd5b6000600188858585604051600081526020016040526040516138ee9493929190615139565b6020604051602081039080840390855afa158015613910573d6000803e3d6000fd5b505050602060405103519050600073ffffffffffffffffffffffffffffffffffffffff168173ffffffffffffffffffffffffffffffffffffffff16141561398c576040517f08c379a000000000000000000000000000000000000000000000000000000000815260040161398390615343565b60405180910390fd5b809450505050509392505050565b60008173ffffffffffffffffffffffffffffffffffffffff168360000160009054906101000a900473ffffffffffffffffffffffffffffffffffffffff1673ffffffffffffffffffffffffffffffffffffffff1614905092915050565b6040518060400160405280600060ff16815260200160006004811115613a46577f4e487b7100000000000000000000000000000000000000000000000000000000600052602160045260246000fd5b81525090565b828054613a5890615c5d565b90600052602060002090601f016020900481019282613a7a5760008555613ac1565b82601f10613a9357803560ff1916838001178555613ac1565b82800160010185558215613ac1579182015b82811115613ac0578235825591602001919060010190613aa5565b5b509050613ace9190613ad2565b5090565b5b80821115613aeb576000816000905550600101613ad3565b5090565b6000613b02613afd8461586a565b615839565b905082815260208101848484011115613b1a57600080fd5b613b25848285615c1b565b509392505050565b600081359050613b3c81615e22565b92915050565b600081359050613b5181615e39565b92915050565b60008083601f840112613b6957600080fd5b8235905067ffffffffffffffff811115613b8257600080fd5b602083019150836020820283011115613b9a57600080fd5b9250929050565b600081905082602060030282011115613bb957600080fd5b92915050565b60008083601f840112613bd157600080fd5b8235905067ffffffffffffffff811115613bea57600080fd5b602083019150836020820283011115613c0257600080fd5b9250929050565b60008083601f840112613c1b57600080fd5b8235905067ffffffffffffffff811115613c3457600080fd5b602083019150836020820283011115613c4c57600080fd5b9250929050565b600081359050613c6281615e50565b92915050565b600081359050613c7781615e67565b92915050565b60008083601f840112613c8f57600080fd5b8235905067ffffffffffffffff811115613ca857600080fd5b602083019150836001820283011115613cc057600080fd5b9250929050565b600082601f830112613cd857600080fd5b8135613ce8848260208601613aef565b91505092915050565b60008083601f840112613d0357600080fd5b8235905067ffffffffffffffff811115613d1c57600080fd5b602083019150836001820283011115613d3457600080fd5b9250929050565b600081359050613d4a81615e7e565b92915050565b600081359050613d5f81615e95565b92915050565b600060208284031215613d7757600080fd5b6000613d8584828501613b2d565b91505092915050565b600060208284031215613da057600080fd5b6000613dae84828501613b42565b91505092915050565b60008060008060008060008060a0898b031215613dd357600080fd5b6000613de18b828c01613b2d565b9850506020613df28b828c01613b2d565b975050604089013567ffffffffffffffff811115613e0f57600080fd5b613e1b8b828c01613c09565b9650965050606089013567ffffffffffffffff811115613e3a57600080fd5b613e468b828c01613c09565b9450945050608089013567ffffffffffffffff811115613e6557600080fd5b613e718b828c01613c7d565b92509250509295985092959890939650565b600080600080600060808688031215613e9b57600080fd5b6000613ea988828901613b2d565b9550506020613eba88828901613b2d565b9450506040613ecb88828901613d3b565b935050606086013567ffffffffffffffff811115613ee857600080fd5b613ef488828901613c7d565b92509250509295509295909350565b60008060008060008060a08789031215613f1c57600080fd5b6000613f2a89828a01613b2d565b9650506020613f3b89828a01613b2d565b9550506040613f4c89828a01613d3b565b9450506060613f5d89828a01613d3b565b935050608087013567ffffffffffffffff811115613f7a57600080fd5b613f8689828a01613c7d565b92509250509295509295509295565b600080600060408486031215613faa57600080fd5b6000613fb886828701613b2d565b935050602084013567ffffffffffffffff811115613fd557600080fd5b613fe186828701613b57565b92509250509250925092565b6000806000806000806000806000806101208b8d03121561400d57600080fd5b600061401b8d828e01613b2d565b9a505060208b013567ffffffffffffffff81111561403857600080fd5b6140448d828e01613ba1565b99505060406140558d828e01613b2d565b98505060608b013567ffffffffffffffff81111561407257600080fd5b61407e8d828e01613b57565b975097505060806140918d828e01613d50565b95505060a06140a28d828e01613b42565b94505060c06140b38d828e01613d3b565b93505060e06140c48d828e01613b2d565b9250506101006140d68d828e01613d3b565b9150509295989b9194979a5092959850565b600080602083850312156140fb57600080fd5b600083013567ffffffffffffffff81111561411557600080fd5b61412185828601613bbf565b92509250509250929050565b60006020828403121561413f57600080fd5b600061414d84828501613c53565b91505092915050565b6000806040838503121561416957600080fd5b600061417785828601613c53565b925050602061418885828601613c53565b9150509250929050565b600080604083850312156141a557600080fd5b60006141b385828601613c53565b925050602083013567ffffffffffffffff8111156141d057600080fd5b6141dc85828601613cc7565b9150509250929050565b6000602082840312156141f857600080fd5b600061420684828501613c68565b91505092915050565b6000806020838503121561422257600080fd5b600083013567ffffffffffffffff81111561423c57600080fd5b61424885828601613c7d565b92509250509250929050565b600080600080600080600080600060e08a8c03121561427257600080fd5b60008a013567ffffffffffffffff81111561428c57600080fd5b6142988c828d01613c7d565b995099505060208a013567ffffffffffffffff8111156142b757600080fd5b6142c38c828d01613c7d565b975097505060406142d68c828d01613d3b565b95505060606142e78c828d01613d3b565b94505060806142f88c828d01613d3b565b93505060a06143098c828d01613b2d565b92505060c061431a8c828d01613b42565b9150509295985092959850929598565b6000806020838503121561433d57600080fd5b600083013567ffffffffffffffff81111561435757600080fd5b61436385828601613cf1565b92509250509250929050565b60008060008060006060868803121561438757600080fd5b600086013567ffffffffffffffff8111156143a157600080fd5b6143ad88828901613cf1565b9550955050602086013567ffffffffffffffff8111156143cc57600080fd5b6143d888828901613cf1565b935093505060406143eb88828901613d3b565b9150509295509295909350565b60006020828403121561440a57600080fd5b600061441884828501613d3b565b91505092915050565b600061442d83836144aa565b60208301905092915050565b6000614445838361473a565b60208301905092915050565b600061445d8383614767565b60208301905092915050565b60006144758383614804565b905092915050565b61448681615b95565b82525050565b61449581615b95565b82525050565b6144a481615add565b82525050565b6144b381615acb565b82525050565b6144c281615acb565b82525050565b6144d181615acb565b82525050565b60006144e2826158ca565b6144ec8185615928565b93506144f78361589a565b8060005b8381101561452857815161450f8882614421565b975061451a83615901565b9250506001810190506144fb565b5085935050505092915050565b6000614540826158ca565b61454a8185615939565b93506145558361589a565b8060005b8381101561458657815161456d8882614421565b975061457883615901565b925050600181019050614559565b5085935050505092915050565b600061459f838561595b565b93507f07ffffffffffffffffffffffffffffffffffffffffffffffffffffffffffffff8311156145ce57600080fd5b6020830292506145df838584615c1b565b82840190509392505050565b60006145f6826158d5565b614600818561594a565b935061460b836158aa565b8060005b8381101561463c5781516146238882614439565b975061462e8361590e565b92505060018101905061460f565b5085935050505092915050565b6000614654826158d5565b61465e818561595b565b9350614669836158aa565b8060005b8381101561469a5781516146818882614451565b975061468c8361590e565b92505060018101905061466d565b5085935050505092915050565b60006146b2826158e0565b6146bc818561596c565b9350836020820285016146ce856158ba565b8060005b8581101561470a57848403895281516146eb8582614469565b94506146f68361591b565b925060208a019950506001810190506146d2565b50829750879550505050505092915050565b61472581615aef565b82525050565b61473481615aef565b82525050565b61474381615afb565b82525050565b61475281615afb565b82525050565b61476181615afb565b82525050565b61477081615afb565b82525050565b61477f81615b05565b82525050565b6000614791838561598e565b935061479e838584615c1b565b6147a783615df0565b840190509392505050565b60006147be838561599f565b93506147cb838584615c1b565b6147d483615df0565b840190509392505050565b60006147eb83856159b0565b93506147f8838584615c1b565b82840190509392505050565b600061480f826158eb565b614819818561597d565b9350614829818560208601615c2a565b61483281615df0565b840191505092915050565b6000614848826158eb565b614852818561598e565b9350614862818560208601615c2a565b61486b81615df0565b840191505092915050565b61487f81615ba7565b82525050565b61488e81615ba7565b82525050565b61489d81615bb9565b82525050565b6148ac81615bd3565b82525050565b6148bb81615be5565b82525050565b60006148cd83856159bb565b93506148da838584615c1b565b6148e383615df0565b840190509392505050565b60006148fa83856159cc565b9350614907838584615c1b565b61491083615df0565b840190509392505050565b6000614926826158f6565b61493081856159bb565b9350614940818560208601615c2a565b61494981615df0565b840191505092915050565b60006149616015836159bb565b91507f4e4f545f454e4f5547485f544f5f5041595f46454500000000000000000000006000830152602082019050919050565b60006149a16014836159bb565b91507f434f4d4d495420414c52454144592045584953540000000000000000000000006000830152602082019050919050565b60006149e1600a836159bb565b91507f6f766572206c696d6974000000000000000000000000000000000000000000006000830152602082019050919050565b6000614a21601b836159bb565b91507f5574696c733a2065637265636f7665722072657475726e6564203000000000006000830152602082019050919050565b6000614a61601d836159bb565b91507f5574696c733a20496e76616c69642066756e6374696f6e5072656669780000006000830152602082019050919050565b6000614aa1603a836159bb565b91507f416464726573733a20756e61626c6520746f2073656e642076616c75652c207260008301527f6563697069656e74206d617920686176652072657665727465640000000000006020830152604082019050919050565b6000614b07601d836159bb565b91507f416464726573733a20696e73756666696369656e742062616c616e63650000006000830152602082019050919050565b6000614b47600b836159bb565b91507f4e4f545f414c4c4f5745440000000000000000000000000000000000000000006000830152602082019050919050565b6000614b87601f836159bb565b91507f5574696c733a2062616420762076616c756520696e207369676e6174757265006000830152602082019050919050565b6000614bc7600e836159bb565b91507f6d757374206265206d65746174780000000000000000000000000000000000006000830152602082019050919050565b6000614c076029836159bb565b91507f4e4f545f46524f4d5f57414c4c45545f4f525f4f574e45525f4f525f57414c4c60008301527f45545f4c4f434b454400000000000000000000000000000000000000000000006020830152604082019050919050565b6000614c6d600e836159bb565b91507f756e6b6e6f776e206d6574686f640000000000000000000000000000000000006000830152602082019050919050565b6000614cad601c836159bb565b91507f544d3a20696e76616c6964207369676e6174757265206c656e677468000000006000830152602082019050919050565b6000614ced6000836159b0565b9150600082019050919050565b6000614d076016836159bb565b91507f6e6f207265636f676e697a65642066756e6374696f6e000000000000000000006000830152602082019050919050565b6000614d476012836159bb565b91507f72657374726963746564206d6574686f647300000000000000000000000000006000830152602082019050919050565b6000614d876010836159bb565b91507f6d75737420626520677561726469616e000000000000000000000000000000006000830152602082019050919050565b6000614dc76017836159bb565b91507f496e76616c6964206f776e6572207369676e61747572650000000000000000006000830152602082019050919050565b606082016000820151614e106000850182614f2c565b506020820151614e236020850182614f2c565b506040820151614e366040850182614f2c565b50505050565b6000606083016000830151614e54600086018261473a565b506020830151614e67602086018261473a565b5060408301518482036040860152614e7f82826144d7565b9150508091505092915050565b6000608083016000830151614ea460008601826144aa565b506020830151614eb76020860182614f2c565b506040830151614eca604086018261471c565b5060608301518482036060860152614ee282826144d7565b9150508091505092915050565b604082016000820151614f056000850182614f68565b506020820151614f186020850182614885565b50505050565b8082525050565b8082525050565b614f3581615b6e565b82525050565b614f4481615b6e565b82525050565b614f5381615b6e565b82525050565b614f6281615b88565b82525050565b614f7181615b88565b82525050565b6000614f848284866147df565b91508190509392505050565b6000614f9b82614ce0565b9150819050919050565b6000602082019050614fba60008301846144b9565b92915050565b6000606082019050614fd560008301866144b9565b614fe260208301856144b9565b614fef6040830184614f3b565b949350505050565b60006101a08201905061500d600083018e6144b9565b61501a602083018d61472b565b615027604083018c614f59565b615034606083018b614f3b565b615041608083018a61449b565b81810360a08301526150538189614e8c565b905061506260c0830188614dfa565b818103610120830152615075818761491b565b905081810361014083015261508a8186614e3c565b905061509a6101608301856144b9565b6150a8610180830184614f3b565b9c9b505050505050505050505050565b600060208201905081810360008301526150d28184614535565b905092915050565b600060208201905081810360008301526150f481846145eb565b905092915050565b6000602082019050818103600083015261511681846146a7565b905092915050565b6000602082019050615133600083018461472b565b92915050565b600060808201905061514e6000830187614749565b61515b6020830186614f59565b6151686040830185614749565b6151756060830184614749565b95945050505050565b60006020820190506151936000830184614776565b92915050565b600060608201905081810360008301526151b4818688614785565b90506151c3602083018561472b565b81810360408301526151d5818461483d565b905095945050505050565b600060808201905081810360008301526151fa818761483d565b90506152096020830186614894565b615216604083018561447d565b61522360608301846148a3565b95945050505050565b60006080820190508181036000830152615246818761483d565b90506152556020830186614894565b615262604083018561447d565b61526f6060830184614f3b565b95945050505050565b600060608201905081810360008301526152938187896148c1565b905081810360208301526152a88185876148c1565b90506152b760408301846148b2565b9695505050505050565b600060208201905081810360008301526152db818461491b565b905092915050565b600060208201905081810360008301526152fc81614954565b9050919050565b6000602082019050818103600083015261531c81614994565b9050919050565b6000602082019050818103600083015261533c816149d4565b9050919050565b6000602082019050818103600083015261535c81614a14565b9050919050565b6000602082019050818103600083015261537c81614a54565b9050919050565b6000602082019050818103600083015261539c81614a94565b9050919050565b600060208201905081810360008301526153bc81614afa565b9050919050565b600060208201905081810360008301526153dc81614b3a565b9050919050565b600060208201905081810360008301526153fc81614b7a565b9050919050565b6000602082019050818103600083015261541c81614bba565b9050919050565b6000602082019050818103600083015261543c81614bfa565b9050919050565b6000602082019050818103600083015261545c81614c60565b9050919050565b6000602082019050818103600083015261547c81614ca0565b9050919050565b6000602082019050818103600083015261549c81614cfa565b9050919050565b600060208201905081810360008301526154bc81614d3a565b9050919050565b600060208201905081810360008301526154dc81614d7a565b9050919050565b600060208201905081810360008301526154fc81614dba565b9050919050565b60006040820190506155186000830185614f1e565b61552560208301846144c8565b9392505050565b60006060820190506155416000830187614f1e565b61554e60208301866144c8565b8181036040830152615561818486614593565b905095945050505050565b60006040820190506155816000830185614f1e565b81810360208301526155938184614649565b90509392505050565b60006080820190506155b16000830189614f1e565b81810360208301526155c48187896148ee565b905081810360408301526155d98185876148ee565b90506155e86060830184614f4a565b979650505050505050565b60006060820190506156086000830186614f25565b6156156020830185614758565b61562260408301846144c8565b949350505050565b600060608201905061563f6000830187614f25565b81810360208301526156528185876147b2565b905061566160408301846144c8565b95945050505050565b600061012082019050615680600083018d614f25565b8181036020830152615693818b8d6147b2565b905081810360408301526156a881898b6147b2565b90506156b76060830188614f4a565b6156c46080830187614f4a565b6156d160a0830186614f4a565b6156de60c083018561448c565b6156eb60e0830184614eef565b9b9a5050505050505050505050565b600060408201905061570f6000830185614f25565b61571c6020830184614f4a565b9392505050565b60006020820190506157386000830184614f3b565b92915050565b60006040820190506157536000830185614f59565b6157606020830184614876565b9392505050565b6000808335600160200384360303811261578057600080fd5b80840192508235915067ffffffffffffffff82111561579e57600080fd5b6020830192506001820236038313156157b657600080fd5b509250929050565b600080833560016020038436030381126157d757600080fd5b80840192508235915067ffffffffffffffff8211156157f557600080fd5b60208301925060018202360383131561580d57600080fd5b509250929050565b60008235600160600383360303811261582d57600080fd5b80830191505092915050565b6000604051905081810181811067ffffffffffffffff821117156158605761585f615dc1565b5b8060405250919050565b600067ffffffffffffffff82111561588557615884615dc1565b5b601f19601f8301169050602081019050919050565b6000819050602082019050919050565b6000819050602082019050919050565b6000819050602082019050919050565b600081519050919050565b600081519050919050565b600081519050919050565b600081519050919050565b600081519050919050565b6000602082019050919050565b6000602082019050919050565b6000602082019050919050565b600082825260208201905092915050565b600082825260208201905092915050565b600082825260208201905092915050565b600082825260208201905092915050565b600082825260208201905092915050565b600082825260208201905092915050565b600082825260208201905092915050565b600082825260208201905092915050565b600081905092915050565b600082825260208201905092915050565b600082825260208201905092915050565b600080858511156159ed57600080fd5b838611156159fa57600080fd5b6001850283019150848603905094509492505050565b6000615a1b82615b6e565b9150615a2683615b6e565b9250827fffffffffffffffffffffffffffffffffffffffffffffffffffffffffffffffff03821115615a5b57615a5a615d05565b5b828201905092915050565b6000615a7182615b6e565b9150615a7c83615b6e565b925082615a8c57615a8b615d34565b5b828204905092915050565b6000615aa282615b6e565b9150615aad83615b6e565b925082821015615ac057615abf615d05565b5b828203905092915050565b6000615ad682615b4e565b9050919050565b6000615ae882615b4e565b9050919050565b60008115159050919050565b6000819050919050565b60007fffffffff0000000000000000000000000000000000000000000000000000000082169050919050565b6000819050615b3f82615e0e565b919050565b6000819050919050565b600073ffffffffffffffffffffffffffffffffffffffff82169050919050565b6000819050919050565b600063ffffffff82169050919050565b600060ff82169050919050565b6000615ba082615bf7565b9050919050565b6000615bb282615b31565b9050919050565b6000615bcc615bc783615b44565b615e01565b9050919050565b6000615bde82615b6e565b9050919050565b6000615bf082615b6e565b9050919050565b6000615c0282615c09565b9050919050565b6000615c1482615b4e565b9050919050565b82818337600083830152505050565b60005b83811015615c48578082015181840152602081019050615c2d565b83811115615c57576000848401525b50505050565b60006002820490506001821680615c7557607f821691505b60208210811415615c8957615c88615d92565b5b50919050565b6000615c9a82615b6e565b91507fffffffffffffffffffffffffffffffffffffffffffffffffffffffffffffffff821415615ccd57615ccc615d05565b5b600182019050919050565b6000615ce382615b78565b915063ffffffff821415615cfa57615cf9615d05565b5b600182019050919050565b7f4e487b7100000000000000000000000000000000000000000000000000000000600052601160045260246000fd5b7f4e487b7100000000000000000000000000000000000000000000000000000000600052601260045260246000fd5b7f4e487b7100000000000000000000000000000000000000000000000000000000600052602160045260246000fd5b7f4e487b7100000000000000000000000000000000000000000000000000000000600052602260045260246000fd5b7f4e487b7100000000000000000000000000000000000000000000000000000000600052604160045260246000fd5b6000601f19601f8301169050919050565b60008160001b9050919050565b60058110615e1f57615e1e615d63565b5b50565b615e2b81615acb565b8114615e3657600080fd5b50565b615e4281615add565b8114615e4d57600080fd5b50565b615e5981615afb565b8114615e6457600080fd5b50565b615e7081615b05565b8114615e7b57600080fd5b50565b615e8781615b6e565b8114615e9257600080fd5b50565b615e9e81615b88565b8114615ea957600080fd5b5056fea26469706673582212202f8ea9ae1b3cadd96ae56cb6332cd2b050d76a489960568128e1eab62e079c1564736f6c63430008000033",
  "immutableReferences": {},
  "source": "// SPDX-License-Identifier: GPL-3.0-only\n\npragma solidity >=0.7.6;\npragma experimental ABIEncoderV2;\n\nimport \"@openzeppelin/contracts/token/ERC721/IERC721Receiver.sol\";\nimport \"@openzeppelin/contracts/token/ERC1155/IERC1155Receiver.sol\";\nimport \"@openzeppelin/contracts/utils/Address.sol\";\n\nimport \"./core/wallet_data.sol\";\nimport \"./features/guardians.sol\";\nimport \"./features/daily_limit.sol\";\nimport \"./features/recovery.sol\";\nimport \"./features/metatx.sol\";\nimport \"./features/name_service.sol\";\n\ncontract TOTPWallet is IERC721Receiver, IERC1155Receiver {\n\n    using Address for address payable;\n    using Guardians for Core.Wallet;\n    using DailyLimit for Core.Wallet;\n    using Recovery for Core.Wallet;\n    using MetaTx for Core.Wallet;\n    using NameService for Core.Wallet;\n\n    // DATA LAYOUT - ALWAYS ADD NEW VAR TO LAST\n\n    address masterCopy;\n    Core.Wallet public wallet;\n    bool internal isImplementationContract;\n    uint public constant version = 3;\n    bytes4 private constant _INTERFACE_ID_ERC1271 = 0x1626ba7e;\n\n    // END OF DATA LAYOUT\n    struct Call {\n        address to;\n        uint256 value;\n        bytes data;\n    }\n\n    event Deposit(address indexed sender, uint value);\n    event WalletUpgraded(address newImpl);\n    event Initialized(address wallet, address refundAddress, uint refundFee);\n    event TransactionExecuted(bool indexed success, bytes returnData, bytes32 signedHash, address refundAddress, uint refundFee);\n\n    constructor() {\n        isImplementationContract = true;\n    }\n\n    modifier disableInImplementationContract\n    {\n        require(!isImplementationContract, \"DISALLOWED\");\n        _;\n    }\n\n    // keep methods <= 8 parameters of get stack to deep\n    function initialize(\n        address              resolver_,\n        string[3]   calldata domainAndHashId_, // empty means no registration\n        address             owner_, \n        bytes32[] calldata    rootHash_, \n        uint8               merkelHeight_, \n        address payable     drainAddr_, \n        uint                dailyLimit_,\n        address             feeRecipient,\n        uint                feeAmount\n        ) external \n        // disableInImplementationContract()\n    {\n        wallet.resolver = resolver_;\n\n        //emit DebugEvent256(address(this).balance);\n        require(wallet.owner == address(0), \"NOT_ALLOWED\");\n        require(address(this).balance >= feeAmount, \"NOT_ENOUGH_TO_PAY_FEE\");\n\n        wallet.owner = owner_;\n        for (uint32 i = 0; i < rootHash_.length; i++) {\n             wallet.rootHash.push(rootHash_[i]);\n        }        \n        wallet.merkelHeight = merkelHeight_;\n        wallet.drainAddr = drainAddr_;\n        wallet.dailyLimit.limit = dailyLimit_;\n\n        // STACK TOO DEEP\n        if(bytes(domainAndHashId_[0]).length > 0) {\n            this.registerENS(domainAndHashId_[0], domainAndHashId_[1], 200000000);\n        }\n\n        if (feeRecipient != address(0)) {\n            payable(feeRecipient).sendValue(feeAmount);\n            emit Initialized(address(this), feeRecipient, feeAmount);\n        }  \n        \n        wallet.hashStorageID = domainAndHashId_[2];        \n    }   \n\n    function registerENS(string calldata subdomain, string calldata domain, uint duration) external onlyFromWalletOrOwnerWhenUnlocked() {\n        wallet.registerENS(subdomain, domain, duration);\n    }\n\n    modifier onlyFromWalletOrOwnerWhenUnlocked()\n    {\n        require(\n            msg.sender == address(this) ||\n            (msg.sender == wallet.owner && !wallet.locked),\n             \"NOT_FROM_WALLET_OR_OWNER_OR_WALLET_LOCKED\"\n        );\n        _;\n    }\n\n    modifier onlySelf() {\n        require(msg.sender == address(this), \"must be metatx\");\n        _;\n    }\n\n    modifier onlyGuardian() {\n        require(MetaTx.isGuardianAddress(wallet.guardians, msg.sender), \"must be guardian\");\n        _;\n    }\n\n    // confirmMaterial contains OTP + intermediatory hashes + sides\n    modifier onlyValidTOTP(bytes32[] memory confirmMaterial) \n    {\n        // revert if false\n        wallet.isValidHOTP(confirmMaterial);\n        _;\n    }\n\n    function isRestrictedMethod(bytes4 methodId) internal pure returns (bool) {\n        return (methodId == TOTPWallet.upgradeMasterCopy.selector ||\n            methodId == TOTPWallet.setDailyLimit.selector ||\n            methodId == TOTPWallet.setDrainAddress.selector);\n    }\n\n    function getRequiredSignatures(bytes calldata _data) public view returns (uint8, Core.OwnerSignature) {\n        bytes4 methodId = MetaTx.functionPrefix(_data);\n\n        if(methodId == TOTPWallet.multiCall.selector ||\n            methodId == TOTPWallet.addGuardian.selector ||\n            methodId == TOTPWallet.revokeGuardian.selector||\n            methodId == TOTPWallet.clearSession.selector||\n            methodId == TOTPWallet.setHashStorageId.selector) {\n            return (1, Core.OwnerSignature.Required);\n        }\n\n        // these will be called on multiCallWithSession with guardians\n        if(wallet.guardians.length == 0) {\n            if(isRestrictedMethod(methodId)) {\n                return (1, Core.OwnerSignature.Required); \n            }\n        } else {\n            if(methodId == TOTPWallet.startSession.selector) {          \n                // owner + 1 guardian   => require 2\n                // owner + 2 guardian   => require 2\n                // owner + 3 guardian   => require 3            \n                return (1, Core.OwnerSignature.Required);  \n            }\n            if(methodId == TOTPWallet.multiCallWithSession.selector) {\n                return (1, Core.OwnerSignature.Session); \n            }\n        }\n\n        // 1 of 1 = 0 sig\n        // 2 of 2 = 1 sig + HOTP\n        // 2 of 3 = 1 sig + HOTP\n        // we'll check for additional guardian later\n        if(methodId == TOTPWallet.startRecoverCommit.selector) {            \n            return (0, Core.OwnerSignature.Disallowed);            \n        }\n        if(methodId == TOTPWallet.startRecoveryReveal.selector) {\n            return (0, Core.OwnerSignature.Disallowed);            \n        }\n        \n        revert(\"unknown method\");\n    }    \n\n    function executeMetaTx(\n            bytes   calldata data,\n            bytes   calldata signatures, \n            uint256 nonce,\n            uint256 gasPrice,\n            uint256 gasLimit,\n            address /*refundToken*/,\n            address payable refundAddress            \n        ) external \n    {\n        uint gasLeft = gasleft();        \n        Core.SignatureRequirement memory sigRequirement;        \n        (sigRequirement.requiredSignatures, sigRequirement.ownerSignatureRequirement) = getRequiredSignatures(data);        \n\n        MetaTx.validateTx(wallet, data, signatures, nonce, gasPrice, gasLimit, refundAddress, sigRequirement);\n\n        bool success;\n        bytes memory returnData;\n        (success, returnData) = address(this).call(data);\n\n        if(gasPrice > 0 && success && refundAddress != address(0x0)) {\n            uint gasUsed = gasLeft - gasleft() + 70000; //35k overhead\n            refundAddress.transfer(gasUsed);\n            emit TransactionExecuted(success, returnData, 0x0, refundAddress, gasUsed);\n        } else {\n            emit TransactionExecuted(success, returnData, 0x0, refundAddress, 0);        \n        }\n    }\n\n    function multiCall(Call[] calldata _transactions) external onlyFromWalletOrOwnerWhenUnlocked() returns (bytes[] memory) {\n        bytes[] memory results = new bytes[](_transactions.length);\n        for(uint i = 0; i < _transactions.length; i++) {\n            bytes calldata data = _transactions[i].data;\n            uint value = _transactions[i].value;\n            \n            if(wallet.guardians.length > 0) {\n                require(data.length < 4 || !isRestrictedMethod(MetaTx.functionPrefix(data)),\"restricted methods\"); \n                require(wallet.isUnderLimit(value), \"over limit\");\n                wallet.dailyLimit.spentToday += value;\n            }\n            results[i] = MetaTx.invoke(_transactions[i].to, value, data);\n        }\n        return results;\n    }\n\n    function multiCallWithSession(Call[] calldata _transactions) external onlySelf() returns (bytes[] memory) {\n        bytes[] memory results = new bytes[](_transactions.length);\n        for(uint i = 0; i < _transactions.length; i++) {\n            results[i] = MetaTx.invoke(_transactions[i].to, _transactions[i].value, _transactions[i].data);\n        }\n        return results;\n    }\n\n    /**\n     * startSession can only be started by majority of guardians\n     */\n    function startSession(uint duration) external onlySelf() {\n        MetaTx.startSession(wallet, duration);\n    }\n\n    function clearSession()  external onlyFromWalletOrOwnerWhenUnlocked() {\n        wallet.session.expires = 0;\n    }\n\n    function getOwner()  public\n        view\n        returns (address) \n    {\n        return wallet.owner;  \n    }\n\n    function getCounter()  public\n        view\n        returns (uint) \n    {\n        return wallet.counter;\n    }    \n\n    function setHashStorageId(string calldata id) external  onlyFromWalletOrOwnerWhenUnlocked()  {\n        wallet.hashStorageID = id;\n    }\n\n    function getHashStorageId() public view  returns (string memory){\n        return wallet.hashStorageID;\n    }\n    \n    function getRootHashes()\n         public\n         view\n         returns (bytes32[] memory )\n     {\n         return wallet.rootHash;\n     }\n\n    function setDrainAddress(address payable addr) external onlySelf() {\n        wallet.drainAddr = addr;\n    }\n\n    function setDailyLimit(uint amount) external onlySelf() {\n        wallet.dailyLimit.limit = amount;\n    }\n    //\n    // Guardians functions\n    //\n    function addGuardian(address guardian)\n        external\n        onlyFromWalletOrOwnerWhenUnlocked()\n    {\n        wallet.addGuardian(guardian);\n    }\n\n    function revokeGuardian(address guardian)\n        external\n        onlyFromWalletOrOwnerWhenUnlocked()\n    {\n        wallet.revokeGuardian(guardian);\n    }\n\n    function getGuardians()\n         public\n         view\n         returns (address[] memory )\n     {\n         return wallet.guardians;\n     }\n\n    //\n    // Recovery functions\n    //\n    // In default setup with only HOTP setup, wallet recovery is done on its own.\n    // In a more secure setup with HOTP + guardians, HOTP is considered as 1 guardian.\n    //\n    // Relay/or other coordinating system will coordinate the signatures collections \n    // from guardian and submit along with the HOTP together. In rare case, HOTP may be ommitted\n    // when greater than 2 guardians can recover without HOTP.\n    function startRecoverGuardianOnly(address newOwner_) onlyGuardian() external {\n        // move into recovery state\n        wallet.startRecoverGuardianOnly(newOwner_);\n    }\n\n    // recover with combination of commithash and signatures\n    function startRecoverCommit(bytes32 secretHash, bytes32 dataHash)  onlySelf() external {\n        require(wallet.commitHash[secretHash].blockNumber == 0, \"COMMIT ALREADY EXIST\");\n        wallet.commitHash[secretHash] = Core.CommitInfo(dataHash, address(0), block.number, false);\n    }\n\n    function startRecoveryReveal(address newOwner, bytes32[] calldata confirmMaterial)  onlySelf() onlyValidTOTP(confirmMaterial) external {\n        wallet.startRecoveryReveal(newOwner, confirmMaterial);\n    }\n\n    function guardianApprove(bytes calldata data_) external onlyGuardian() {\n        bytes4 methodId = MetaTx.functionPrefix(data_);\n        if(methodId == this.startRecoverCommit.selector || methodId == this.startRecoverGuardianOnly.selector) {\n            bytes32 secretHash = abi.decode(data_[4:36], (bytes32));\n            Recovery.guardianApproveRecovery(wallet, secretHash, msg.sender);            \n        } else if(methodId == this.startSession.selector) {\n            MetaTx.guardianApproveSession(wallet, data_, msg.sender);\n        } else {\n            revert(\"no recognized function\");\n        }\n    }\n\n    function upgradeMasterCopy(address newMasterCopy) external onlySelf() {\n        masterCopy = newMasterCopy;\n        emit WalletUpgraded(newMasterCopy);\n    }\n\n    function getMasterCopy() public view returns (address) {\n        return masterCopy;\n    }\n\n    //\n    // ERC1155 support\n    //\n    function onERC1155Received(address,address,uint256,uint256,bytes calldata) external pure override returns (bytes4){\n        return this.onERC1155Received.selector;\n    }\n\n    function onERC1155BatchReceived(address, address, uint256[] calldata, uint256[] calldata, bytes calldata) external pure override returns (bytes4){\n        return this.onERC1155BatchReceived.selector;\n    }\n\n    function supportsInterface(bytes4 interfaceID) external override pure returns (bool) {\n        return interfaceID == this.supportsInterface.selector ||\n        interfaceID == this.onERC1155Received.selector ||\n        interfaceID == this.onERC721Received.selector ||\n        interfaceID == _INTERFACE_ID_ERC1271;\n    }\n\n    function onERC721Received(address,address,uint256,bytes calldata) external pure override returns (bytes4){\n        return this.onERC721Received.selector;\n    }\n\n    /**\n    * @notice Implementation of EIP 1271.\n    * Should return whether the signature provided is valid for the provided data.\n    * @param _msgHash Hash of a message signed on the behalf of address(this)\n    * @param _signature Signature byte array associated with _msgHash\n    */\n    function isValidSignature(bytes32 _msgHash, bytes memory _signature) external view returns (bytes4) {\n        require(_signature.length == 65, \"TM: invalid signature length\");\n        require(MetaTx.validateSignatures(wallet, _msgHash, _signature, Core.OwnerSignature.Required), \"Invalid owner signature\");\n        return _INTERFACE_ID_ERC1271;\n    }\n\n    //\n    // Utility functions\n    //\n\n    /// @dev Fallback function allows to deposit ether.\n    receive() external payable {\n        /*\n        if (msg.value > 0) {\n            if(msg.sender == wallet.drainAddr && msg.value == 1 ether) {\n                uint amount = address(this).balance;\n                (bool success,) = wallet.drainAddr.call{value: amount, gas: 100000}(\"\");\n                require(success, \"Receive: External call failed\");\n            }\n            emit Deposit(msg.sender, msg.value);\n        }*/\n    }\n\n}\n",
  "sourcePath": "/home/quoc/Projects/harmony-totp-pure/contracts/otp_wallet.sol",
  "compiler": {
    "name": "solc",
    "version": "0.8.0+commit.c7dfd78e.Emscripten.clang"
  },
  "schemaVersion": "3.3.3",
  "updatedAt": "2021-11-18T21:54:33.356Z",
  "networkType": "ethereum",
  "devdoc": {
    "kind": "dev",
    "methods": {
      "isValidSignature(bytes32,bytes)": {
        "params": {
          "_msgHash": "Hash of a message signed on the behalf of address(this)",
          "_signature": "Signature byte array associated with _msgHash"
        }
      }
    },
    "version": 1
  },
  "userdoc": {
    "kind": "user",
    "methods": {
      "isValidSignature(bytes32,bytes)": {
        "notice": "Implementation of EIP 1271. Should return whether the signature provided is valid for the provided data."
      },
      "startSession(uint256)": {
        "notice": "startSession can only be started by majority of guardians"
      }
    },
    "version": 1
  }
}