{
  "contractName": "WalletFactory",
  "abi": [
    {
      "inputs": [
        {
          "internalType": "address",
          "name": "_walletImplementation",
          "type": "address"
        }
      ],
      "stateMutability": "nonpayable",
      "type": "constructor"
    },
    {
      "anonymous": false,
      "inputs": [
        {
          "indexed": false,
          "internalType": "bytes32",
          "name": "signHash",
          "type": "bytes32"
        },
        {
          "indexed": false,
          "internalType": "address",
          "name": "addr",
          "type": "address"
        }
      ],
      "name": "Debug",
      "type": "event"
    },
    {
      "anonymous": false,
      "inputs": [
        {
          "indexed": false,
          "internalType": "address",
          "name": "wallet",
          "type": "address"
        },
        {
          "indexed": false,
          "internalType": "address",
          "name": "owner",
          "type": "address"
        }
      ],
      "name": "WalletCreated",
      "type": "event"
    },
    {
      "inputs": [],
      "name": "WALLET_CREATION",
      "outputs": [
        {
          "internalType": "string",
          "name": "",
          "type": "string"
        }
      ],
      "stateMutability": "view",
      "type": "function",
      "constant": true
    },
    {
      "inputs": [
        {
          "internalType": "uint256",
          "name": "",
          "type": "uint256"
        }
      ],
      "name": "created",
      "outputs": [
        {
          "internalType": "address",
          "name": "wallet",
          "type": "address"
        }
      ],
      "stateMutability": "view",
      "type": "function",
      "constant": true
    },
    {
      "inputs": [],
      "name": "walletImplementation",
      "outputs": [
        {
          "internalType": "address",
          "name": "",
          "type": "address"
        }
      ],
      "stateMutability": "view",
      "type": "function",
      "constant": true
    },
    {
      "inputs": [
        {
          "components": [
            {
              "internalType": "address",
              "name": "resolver",
              "type": "address"
            },
            {
              "internalType": "string[2]",
              "name": "domain",
              "type": "string[2]"
            },
            {
              "internalType": "address",
              "name": "owner",
              "type": "address"
            },
            {
              "internalType": "bytes32[]",
              "name": "rootHash",
              "type": "bytes32[]"
            },
            {
              "internalType": "uint8",
              "name": "merkelHeight",
              "type": "uint8"
            },
            {
              "internalType": "address",
              "name": "drainAddr",
              "type": "address"
            },
            {
              "internalType": "uint256",
              "name": "dailyLimit",
              "type": "uint256"
            },
            {
              "internalType": "uint256",
              "name": "salt",
              "type": "uint256"
            },
            {
              "internalType": "string",
              "name": "password",
              "type": "string"
            },
            {
              "internalType": "string",
              "name": "email",
              "type": "string"
            },
            {
              "internalType": "string",
              "name": "countryOfResidence",
              "type": "string"
            },
            {
              "internalType": "address",
              "name": "feeReceipient",
              "type": "address"
            },
            {
              "internalType": "uint256",
              "name": "feeAmount",
              "type": "uint256"
            }
          ],
          "internalType": "struct WalletFactory.WalletConfig",
          "name": "config",
          "type": "tuple"
        }
      ],
      "name": "createWallet",
      "outputs": [
        {
          "internalType": "address",
          "name": "wallet",
          "type": "address"
        }
      ],
      "stateMutability": "nonpayable",
      "type": "function"
    },
    {
      "inputs": [
        {
          "internalType": "address",
          "name": "owner",
          "type": "address"
        },
        {
          "internalType": "uint256",
          "name": "salt",
          "type": "uint256"
        }
      ],
      "name": "computeWalletAddress",
      "outputs": [
        {
          "internalType": "address",
          "name": "",
          "type": "address"
        }
      ],
      "stateMutability": "view",
      "type": "function",
      "constant": true
    },
    {
      "inputs": [],
      "name": "getCreated",
      "outputs": [
        {
          "components": [
            {
              "internalType": "address",
              "name": "wallet",
              "type": "address"
            },
            {
              "internalType": "string[2]",
              "name": "domain",
              "type": "string[2]"
            }
          ],
          "internalType": "struct WalletFactory.CreateRecord[]",
          "name": "",
          "type": "tuple[]"
        }
      ],
      "stateMutability": "view",
      "type": "function",
      "constant": true
    }
  ],
  "bytecode": "0x60a06040523480156200001157600080fd5b5060405162001e5038038062001e5083398181016040528101906200003791906200008c565b8073ffffffffffffffffffffffffffffffffffffffff1660808173ffffffffffffffffffffffffffffffffffffffff1660601b815250505062000106565b6000815190506200008681620000ec565b92915050565b6000602082840312156200009f57600080fd5b6000620000af8482850162000075565b91505092915050565b6000620000c582620000cc565b9050919050565b600073ffffffffffffffffffffffffffffffffffffffff82169050919050565b620000f781620000b8565b81146200010357600080fd5b50565b60805160601c611d246200012c60003960008181610360015261087c0152611d246000f3fe60806040523480156200001157600080fd5b50600436106200006a5760003560e01c806302b304e4146200006f5780638117abc114620000a557806382cb6b7214620000c75780638ecf0d0b14620000fd57806390610b0e146200011f578063ce1586121462000141575b600080fd5b6200008d600480360381019062000087919062000d00565b62000177565b6040516200009c919062001366565b60405180910390f35b620000af6200035e565b604051620000be919062001366565b60405180910390f35b620000e56004803603810190620000df919062000d45565b62000382565b604051620000f4919062001366565b60405180910390f35b62000107620003d1565b6040516200011691906200145f565b60405180910390f35b6200012962000559565b604051620001389190620014db565b60405180910390f35b6200015f600480360381019062000159919062000cbf565b62000592565b6040516200016e919062001366565b60405180910390f35b6000806200019e83604001602081019062000193919062000c93565b8460e0013562000592565b90508261018001358173ffffffffffffffffffffffffffffffffffffffff1631101562000202576040517f08c379a0000000000000000000000000000000000000000000000000000000008152600401620001f990620014ff565b60405180910390fd5b620002268360400160208101906200021b919062000c93565b8460e0013562000612565b915062000234828462000692565b600060405180604001604052808473ffffffffffffffffffffffffffffffffffffffff1681526020018580602001906200026f91906200159d565b6200027a906200188d565b815250908060018154018082558091505060019003906000526020600020906003020160009091909190915060008201518160000160006101000a81548173ffffffffffffffffffffffffffffffffffffffff021916908373ffffffffffffffffffffffffffffffffffffffff16021790555060208201518160010190600262000306929190620009dd565b5050507f5b03bfed1c14a02bdeceb5fa582eb1a5765fc0bc64ca0e6af4c20afc9487f0818284604001602081019062000340919062000c93565b6040516200035092919062001383565b60405180910390a150919050565b7f000000000000000000000000000000000000000000000000000000000000000081565b600081815481106200039357600080fd5b90600052602060002090600302016000915090508060000160009054906101000a900473ffffffffffffffffffffffffffffffffffffffff16905081565b60606000805480602002602001604051908101604052809291908181526020016000905b828210156200055057838290600052602060002090600302016040518060400160405290816000820160009054906101000a900473ffffffffffffffffffffffffffffffffffffffff1673ffffffffffffffffffffffffffffffffffffffff1673ffffffffffffffffffffffffffffffffffffffff16815260200160018201600280602002604051908101604052809291906000905b8282101562000538578382018054620004a490620018e9565b80601f0160208091040260200160405190810160405280929190818152602001828054620004d290620018e9565b8015620005235780601f10620004f75761010080835404028352916020019162000523565b820191906000526020600020905b8154815290600101906020018083116200050557829003601f168201915b5050505050815260200190600101906200048b565b505050508152505081526020019060010190620003f5565b50505050905090565b6040518060400160405280600f81526020017f57414c4c45545f4352454154494f4e000000000000000000000000000000000081525081565b60006200060a6040518060400160405280600f81526020017f57414c4c45545f4352454154494f4e00000000000000000000000000000000008152508484604051602001620005e49392919062001327565b604051602081830303815290604052805190602001206200060462000852565b620008e3565b905092915050565b60006200068a6040518060400160405280600f81526020017f57414c4c45545f4352454154494f4e00000000000000000000000000000000008152508484604051602001620006649392919062001327565b604051602081830303815290604052805190602001206200068462000852565b620008fa565b905092915050565b8173ffffffffffffffffffffffffffffffffffffffff1663d5073322826000016020810190620006c3919062000c93565b838060200190620006d591906200159d565b846040016020810190620006ea919062000c93565b858060600190620006fc919062001543565b87608001602081019062000711919062000d71565b8860a001602081019062000726919062000c93565b8960c001358a61016001602081019062000741919062000c93565b8b61018001356040518b63ffffffff1660e01b81526004016200076e9a99989796959493929190620013b0565b600060405180830381600087803b1580156200078957600080fd5b505af11580156200079e573d6000803e3d6000fd5b505050508173ffffffffffffffffffffffffffffffffffffffff1663bfbe9beb82806101200190620007d19190620015c2565b84806101000190620007e49190620015c2565b86806101400190620007f79190620015c2565b6040518763ffffffff1660e01b81526004016200081a9695949392919062001483565b600060405180830381600087803b1580156200083557600080fd5b505af11580156200084a573d6000803e3d6000fd5b505050505050565b606060405180602001620008669062000a37565b6020820181038252601f19601f820116604052507f0000000000000000000000000000000000000000000000000000000000000000604051602001620008ad919062001366565b604051602081830303815290604052604051602001620008cf929190620012ff565b604051602081830303815290604052905090565b6000620008f283833062000986565b905092915050565b600080838351602085016000f59050600073ffffffffffffffffffffffffffffffffffffffff168173ffffffffffffffffffffffffffffffffffffffff1614156200097c576040517f08c379a0000000000000000000000000000000000000000000000000000000008152600401620009739062001521565b60405180910390fd5b8091505092915050565b60008083805190602001209050600060ff60f81b848784604051602001620009b29493929190620012a9565b604051602081830303815290604052805190602001209050606081901b60601c925050509392505050565b826002810192821562000a24579160200282015b8281111562000a2357825182908051906020019062000a1292919062000a45565b5091602001919060010190620009f1565b5b50905062000a33919062000ad6565b5090565b6102bf8062001a3083390190565b82805462000a5390620018e9565b90600052602060002090601f01602090048101928262000a77576000855562000ac3565b82601f1062000a9257805160ff191683800117855562000ac3565b8280016001018555821562000ac3579182015b8281111562000ac257825182559160200191906001019062000aa5565b5b50905062000ad2919062000afe565b5090565b5b8082111562000afa576000818162000af0919062000b1d565b5060010162000ad7565b5090565b5b8082111562000b1957600081600090555060010162000aff565b5090565b50805462000b2b90620018e9565b6000825580601f1062000b3f575062000b60565b601f01602090049060005260206000209081019062000b5f919062000afe565b5b50565b600062000b7a62000b748462001650565b6200161c565b9050808260005b8581101562000bb5578135850162000b9a888262000c1b565b84526020840193506020830192505060018101905062000b81565b5050509392505050565b600062000bd662000bd08462001679565b6200161c565b90508281526020810184848401111562000bef57600080fd5b62000bfc848285620018a4565b509392505050565b60008135905062000c1581620019e1565b92915050565b600082601f83011262000c2d57600080fd5b813562000c3f84826020860162000bbf565b91505092915050565b60006101a0828403121562000c5c57600080fd5b81905092915050565b60008135905062000c7681620019fb565b92915050565b60008135905062000c8d8162001a15565b92915050565b60006020828403121562000ca657600080fd5b600062000cb68482850162000c04565b91505092915050565b6000806040838503121562000cd357600080fd5b600062000ce38582860162000c04565b925050602062000cf68582860162000c65565b9150509250929050565b60006020828403121562000d1357600080fd5b600082013567ffffffffffffffff81111562000d2e57600080fd5b62000d3c8482850162000c48565b91505092915050565b60006020828403121562000d5857600080fd5b600062000d688482850162000c65565b91505092915050565b60006020828403121562000d8457600080fd5b600062000d948482850162000c7c565b91505092915050565b600062000dac84848462001088565b90509392505050565b600062000dc38383620010ee565b905092915050565b600062000dd983836200122b565b905092915050565b62000dec816200180c565b82525050565b62000dfd81620017f8565b82525050565b62000e0e81620017f8565b82525050565b62000e2962000e2382620017f8565b6200191f565b82525050565b600062000e3d83856200172e565b93507f07ffffffffffffffffffffffffffffffffffffffffffffffffffffffffffffff83111562000e6d57600080fd5b60208302925062000e80838584620018a4565b82840190509392505050565b600062000e9982620016d0565b62000ea581856200174a565b93508360208202850162000eb985620016ac565b8060005b8581101562000f0757848403895262000ed782846200179e565b62000ee486828462000d9d565b955062000ef18462001707565b935060208b019a50505060018101905062000ebd565b50829750879550505050505092915050565b600062000f2682620016db565b62000f3281856200173f565b93508360208202850162000f4685620016b6565b8060005b8581101562000f88578484038952815162000f66858262000db5565b945062000f738362001714565b925060208a0199505060018101905062000f4a565b50829750879550505050505092915050565b600062000fa782620016e6565b62000fb3818562001755565b93508360208202850162000fc785620016c0565b8060005b8581101562001009578484038952815162000fe7858262000dcb565b945062000ff48362001721565b925060208a0199505060018101905062000fcb565b50829750879550505050505092915050565b620010306200102a8262001820565b62001933565b82525050565b6200104b62001045826200184c565b6200193d565b82525050565b60006200105e82620016f1565b6200106a818562001766565b93506200107c818560208601620018b3565b80840191505092915050565b600062001096838562001771565b9350620010a5838584620018a4565b620010b083620019c3565b840190509392505050565b6000620010c9838562001782565b9350620010d8838584620018a4565b620010e383620019c3565b840190509392505050565b6000620010fb82620016fc565b62001107818562001771565b935062001119818560208601620018b3565b6200112481620019c3565b840191505092915050565b60006200113c82620016fc565b62001148818562001782565b93506200115a818560208601620018b3565b6200116581620019c3565b840191505092915050565b60006200117d82620016fc565b62001189818562001793565b93506200119b818560208601620018b3565b80840191505092915050565b6000620011b660138362001782565b91507f4e4f5420454e4f55474820464f522046454553000000000000000000000000006000830152602082019050919050565b6000620011f8600e8362001782565b91507f435245415445325f4641494c45440000000000000000000000000000000000006000830152602082019050919050565b600060408301600083015162001245600086018262000df2565b50602083015184820360208601526200125f828262000f19565b9150508091505092915050565b620012778162001876565b82525050565b620012926200128c8262001876565b6200195b565b82525050565b620012a38162001880565b82525050565b6000620012b782876200101b565b600182019150620012c9828662000e14565b601482019150620012db828562001036565b602082019150620012ed828462001036565b60208201915081905095945050505050565b60006200130d828562001051565b91506200131b828462001051565b91508190509392505050565b600062001335828662001170565b915062001343828562000e14565b6014820191506200135582846200127d565b602082019150819050949350505050565b60006020820190506200137d600083018462000e03565b92915050565b60006040820190506200139a600083018562000e03565b620013a9602083018462000e03565b9392505050565b600061012082019050620013c8600083018d62000e03565b8181036020830152620013dc818c62000e8c565b9050620013ed604083018b62000e03565b81810360608301526200140281898b62000e2f565b905062001413608083018862001298565b6200142260a083018762000de1565b6200143160c08301866200126c565b6200144060e083018562000e03565b620014506101008301846200126c565b9b9a5050505050505050505050565b600060208201905081810360008301526200147b818462000f9a565b905092915050565b60006060820190508181036000830152620014a081888a620010bb565b90508181036020830152620014b7818688620010bb565b90508181036040830152620014ce818486620010bb565b9050979650505050505050565b60006020820190508181036000830152620014f781846200112f565b905092915050565b600060208201905081810360008301526200151a81620011a7565b9050919050565b600060208201905081810360008301526200153c81620011e9565b9050919050565b600080833560016020038436030381126200155d57600080fd5b80840192508235915067ffffffffffffffff8211156200157c57600080fd5b6020830192506020820236038313156200159557600080fd5b509250929050565b600082356001604003833603038112620015b657600080fd5b80830191505092915050565b60008083356001602003843603038112620015dc57600080fd5b80840192508235915067ffffffffffffffff821115620015fb57600080fd5b6020830192506001820236038313156200161457600080fd5b509250929050565b6000604051905081810181811067ffffffffffffffff8211171562001646576200164562001994565b5b8060405250919050565b600067ffffffffffffffff8211156200166e576200166d62001994565b5b602082029050919050565b600067ffffffffffffffff82111562001697576200169662001994565b5b601f19601f8301169050602081019050919050565b6000819050919050565b6000819050919050565b6000819050602082019050919050565b600060029050919050565b600060029050919050565b600081519050919050565b600081519050919050565b600081519050919050565b6000602082019050919050565b6000602082019050919050565b6000602082019050919050565b600082825260208201905092915050565b600081905092915050565b600081905092915050565b600082825260208201905092915050565b600081905092915050565b600082825260208201905092915050565b600082825260208201905092915050565b600081905092915050565b60008083356001602003843603038112620017b857600080fd5b83810192508235915060208301925067ffffffffffffffff821115620017dd57600080fd5b600182023603841315620017f057600080fd5b509250929050565b6000620018058262001856565b9050919050565b6000620018198262001856565b9050919050565b60007fff0000000000000000000000000000000000000000000000000000000000000082169050919050565b6000819050919050565b600073ffffffffffffffffffffffffffffffffffffffff82169050919050565b6000819050919050565b600060ff82169050919050565b60006200189d3660028462000b63565b9050919050565b82818337600083830152505050565b60005b83811015620018d3578082015181840152602081019050620018b6565b83811115620018e3576000848401525b50505050565b600060028204905060018216806200190257607f821691505b6020821081141562001919576200191862001965565b5b50919050565b60006200192c8262001947565b9050919050565b6000819050919050565b6000819050919050565b60006200195482620019d4565b9050919050565b6000819050919050565b7f4e487b7100000000000000000000000000000000000000000000000000000000600052602260045260246000fd5b7f4e487b7100000000000000000000000000000000000000000000000000000000600052604160045260246000fd5b6000601f19601f8301169050919050565b60008160601b9050919050565b620019ec81620017f8565b8114620019f857600080fd5b50565b62001a068162001876565b811462001a1257600080fd5b50565b62001a208162001880565b811462001a2c57600080fd5b5056fe608060405234801561001057600080fd5b506040516102bf3803806102bf833981810160405281019061003291906100fd565b600073ffffffffffffffffffffffffffffffffffffffff168173ffffffffffffffffffffffffffffffffffffffff1614156100a2576040517f08c379a00000000000000000000000000000000000000000000000000000000081526004016100999061018c565b60405180910390fd5b806000806101000a81548173ffffffffffffffffffffffffffffffffffffffff021916908373ffffffffffffffffffffffffffffffffffffffff16021790555050610206565b6000815190506100f7816101ef565b92915050565b60006020828403121561010f57600080fd5b600061011d848285016100e8565b91505092915050565b60006101336024836101ac565b91507f496e76616c6964206d617374657220636f707920616464726573732070726f7660008301527f69646564000000000000000000000000000000000000000000000000000000006020830152604082019050919050565b600060208201905081810360008301526101a581610126565b9050919050565b600082825260208201905092915050565b60006101c8826101cf565b9050919050565b600073ffffffffffffffffffffffffffffffffffffffff82169050919050565b6101f8816101bd565b811461020357600080fd5b50565b60ab806102146000396000f3fe608060405273ffffffffffffffffffffffffffffffffffffffff600054167fa619486e0000000000000000000000000000000000000000000000000000000060003514156050578060005260206000f35b3660008037600080366000845af43d6000803e60008114156070573d6000fd5b3d6000f3fea2646970667358221220b6e874c87baf6a68e0e687d10910bc4ec0777e93391ee347256674df42f6678e64736f6c63430008000033a26469706673582212205d7a8e0a0cd42f5571d8c90eb2a08b7b4fdaaaedd987c1f7f449503648796cf964736f6c63430008000033",
  "immutableReferences": {
    "7791": [
      {
        "length": 32,
        "start": 864
      },
      {
        "length": 32,
        "start": 2172
      }
    ]
  },
  "source": "// SPDX-License-Identifier: GPL-2.0-or-later\npragma solidity >=0.7.6;\npragma experimental ABIEncoderV2;\n\nimport \"./otp_wallet.sol\";\nimport \"./external/walletproxy.sol\";\nimport \"./external/create2.sol\";\nimport \"./external/signatureutil.sol\";\n\ncontract WalletFactory\n{\n    event WalletCreated (address wallet, address owner);\n    event Debug(bytes32 signHash, address addr);\n\n    address public immutable walletImplementation;\n    string  public constant WALLET_CREATION = \"WALLET_CREATION\";\n\n    struct CreateRecord {\n        address wallet;\n        string[2] domain;\n    }\n\n    CreateRecord[] public created;\n\n    struct WalletConfig\n    {\n        address resolver;\n        string[2]    domain;\n        address   owner;     \n        bytes32[] rootHash;\n        uint8 \t  merkelHeight;\n        address\t  drainAddr;\n        uint \t  dailyLimit;\n        uint      salt;\n        string    password;\n        string    email;\n        string    countryOfResidence;\n        address   feeReceipient;\n        uint256   feeAmount;\n    }\n\n    constructor(\n        address        _walletImplementation\n        )\n    {\n        walletImplementation = _walletImplementation;\n    }\n\n    function createWallet(WalletConfig calldata config)\n        external\n        returns (address wallet)\n    {   \n        // address found;\n        // uint16 ver;\n        // (found, ver) =  NameRegistry(this).getContractDetails(config.name);\n        // require(found == address(0x0), \"REGISTRY MUST BE AVAILABLE\");\n        address addr = computeWalletAddress(config.owner, config.salt);\n        require(addr.balance >= config.feeAmount, \"NOT ENOUGH FOR FEES\");\n        // require(NameRegistry(this).registerName(config.name, addr, 1));\n\n        wallet = _deploy(config.owner, config.salt);\n        _initializeWallet(wallet, config);\n\n        created.push(CreateRecord(address(wallet), config.domain));\n        emit WalletCreated(address(wallet), config.owner);\n    }\n\n    function computeWalletAddress(\n        address owner,\n        uint    salt\n        )\n        public\n        view\n        returns (address)\n    {\n        return Create2.computeAddress(\n            keccak256(abi.encodePacked(WALLET_CREATION, owner, salt)),\n            getWalletCode()\n        );\n    }\n\n    function getCreated() public view returns (CreateRecord[] memory ) {\n        return created;\n    }\n    // --- Internal functions ---\n\n    function _initializeWallet(\n        address                 wallet,\n        WalletConfig calldata   config\n        )\n        internal\n    {\n        TOTPWallet(payable(wallet)).initialize(\n            config.resolver,\n            config.domain,\n            config.owner,\n            config.rootHash,\n            config.merkelHeight,\n            payable(config.drainAddr),\n            config.dailyLimit,\n            config.feeReceipient,\n            config.feeAmount\n        );\n        \n        TOTPWallet(payable(wallet)).initializeUserData(\n            config.email,\n            config.password,\n            config.countryOfResidence\n        );\n        \n        //TOTPWallet(payable(wallet)).registerENS(config.subdomain, config.domain, config.duration);\n    }\n\n    function _deploy(\n        address owner,\n        uint    salt\n        )\n        internal\n        returns (address payable wallet)\n    {\n        // Deploy the wallet proxy\n        wallet = Create2.deploy(\n            keccak256(abi.encodePacked(WALLET_CREATION, owner, salt)),\n            getWalletCode()\n        );\n    }\n\n    function getWalletCode()\n        internal\n        view\n        returns (bytes memory)\n    {\n        return abi.encodePacked(\n            type(WalletProxy).creationCode,\n            abi.encode(walletImplementation)\n        );\n    }\n}",
  "sourcePath": "/Users/okudajunta/Documents/solidity/harmony-totp/contracts/wallet_factory.sol",
  "compiler": {
    "name": "solc",
    "version": "0.8.0+commit.c7dfd78e.Emscripten.clang"
  },
  "schemaVersion": "3.4.2",
  "updatedAt": "2021-09-17T10:32:18.377Z",
  "networkType": "ethereum",
  "devdoc": {
    "kind": "dev",
    "methods": {},
    "version": 1
  },
  "userdoc": {
    "kind": "user",
    "methods": {},
    "version": 1
  }
}