{
  "contractName": "WalletFactory",
  "abi": [
    {
      "inputs": [
        {
          "internalType": "address",
          "name": "_walletImplementation",
          "type": "address"
        }
      ],
      "stateMutability": "nonpayable",
      "type": "constructor"
    },
    {
      "anonymous": false,
      "inputs": [
        {
          "indexed": false,
          "internalType": "bytes32",
          "name": "signHash",
          "type": "bytes32"
        },
        {
          "indexed": false,
          "internalType": "address",
          "name": "addr",
          "type": "address"
        }
      ],
      "name": "Debug",
      "type": "event"
    },
    {
      "anonymous": false,
      "inputs": [
        {
          "indexed": false,
          "internalType": "address",
          "name": "wallet",
          "type": "address"
        },
        {
          "indexed": false,
          "internalType": "address",
          "name": "owner",
          "type": "address"
        }
      ],
      "name": "WalletCreated",
      "type": "event"
    },
    {
      "inputs": [],
      "name": "WALLET_CREATION",
      "outputs": [
        {
          "internalType": "string",
          "name": "",
          "type": "string"
        }
      ],
      "stateMutability": "view",
      "type": "function",
      "constant": true
    },
    {
      "inputs": [
        {
          "internalType": "uint256",
          "name": "",
          "type": "uint256"
        }
      ],
      "name": "created",
      "outputs": [
        {
          "internalType": "address",
          "name": "wallet",
          "type": "address"
        }
      ],
      "stateMutability": "view",
      "type": "function",
      "constant": true
    },
    {
      "inputs": [],
      "name": "walletImplementation",
      "outputs": [
        {
          "internalType": "address",
          "name": "",
          "type": "address"
        }
      ],
      "stateMutability": "view",
      "type": "function",
      "constant": true
    },
    {
      "inputs": [
        {
          "components": [
            {
              "internalType": "address",
              "name": "resolver",
              "type": "address"
            },
            {
              "internalType": "string[2]",
              "name": "domain",
              "type": "string[2]"
            },
            {
              "internalType": "address",
              "name": "owner",
              "type": "address"
            },
            {
              "internalType": "bytes32[]",
              "name": "rootHash",
              "type": "bytes32[]"
            },
            {
              "internalType": "uint8",
              "name": "merkelHeight",
              "type": "uint8"
            },
            {
              "internalType": "address",
              "name": "drainAddr",
              "type": "address"
            },
            {
              "internalType": "uint256",
              "name": "dailyLimit",
              "type": "uint256"
            },
            {
              "internalType": "uint256",
              "name": "salt",
              "type": "uint256"
            },
            {
              "internalType": "address",
              "name": "feeReceipient",
              "type": "address"
            },
            {
              "internalType": "uint256",
              "name": "feeAmount",
              "type": "uint256"
            }
          ],
          "internalType": "struct WalletFactory.WalletConfig",
          "name": "config",
          "type": "tuple"
        }
      ],
      "name": "createWallet",
      "outputs": [
        {
          "internalType": "address",
          "name": "wallet",
          "type": "address"
        }
      ],
      "stateMutability": "nonpayable",
      "type": "function"
    },
    {
      "inputs": [
        {
          "internalType": "address",
          "name": "owner",
          "type": "address"
        },
        {
          "internalType": "uint256",
          "name": "salt",
          "type": "uint256"
        }
      ],
      "name": "computeWalletAddress",
      "outputs": [
        {
          "internalType": "address",
          "name": "",
          "type": "address"
        }
      ],
      "stateMutability": "view",
      "type": "function",
      "constant": true
    },
    {
      "inputs": [],
      "name": "getCreated",
      "outputs": [
        {
          "components": [
            {
              "internalType": "address",
              "name": "wallet",
              "type": "address"
            },
            {
              "internalType": "string[2]",
              "name": "domain",
              "type": "string[2]"
            }
          ],
          "internalType": "struct WalletFactory.CreateRecord[]",
          "name": "",
          "type": "tuple[]"
        }
      ],
      "stateMutability": "view",
      "type": "function",
      "constant": true
    }
  ],
  "bytecode": "0x60a06040523480156200001157600080fd5b5060405162001cbf38038062001cbf83398181016040528101906200003791906200008c565b8073ffffffffffffffffffffffffffffffffffffffff1660808173ffffffffffffffffffffffffffffffffffffffff1660601b815250505062000106565b6000815190506200008681620000ec565b92915050565b6000602082840312156200009f57600080fd5b6000620000af8482850162000075565b91505092915050565b6000620000c582620000cc565b9050919050565b600073ffffffffffffffffffffffffffffffffffffffff82169050919050565b620000f781620000b8565b81146200010357600080fd5b50565b60805160601c611b936200012c6000396000818161017901526107d00152611b936000f3fe60806040523480156200001157600080fd5b50600436106200006a5760003560e01c80638117abc1146200006f57806382cb6b7214620000915780638bb6aa6214620000c75780638ecf0d0b14620000fd57806390610b0e146200011f578063ce1586121462000141575b600080fd5b6200007962000177565b60405162000088919062001287565b60405180910390f35b620000af6004803603810190620000a9919062000c99565b6200019b565b604051620000be919062001287565b60405180910390f35b620000e56004803603810190620000df919062000c54565b620001ea565b604051620000f4919062001287565b60405180910390f35b62000107620003d1565b60405162000116919062001380565b60405180910390f35b6200012962000559565b604051620001389190620013a4565b60405180910390f35b6200015f600480360381019062000159919062000c13565b62000592565b6040516200016e919062001287565b60405180910390f35b7f000000000000000000000000000000000000000000000000000000000000000081565b60008181548110620001ac57600080fd5b90600052602060002090600302016000915090508060000160009054906101000a900473ffffffffffffffffffffffffffffffffffffffff16905081565b6000806200021183604001602081019062000206919062000be7565b8460e0013562000592565b90508261012001358173ffffffffffffffffffffffffffffffffffffffff1631101562000275576040517f08c379a00000000000000000000000000000000000000000000000000000000081526004016200026c90620013c8565b60405180910390fd5b620002998360400160208101906200028e919062000be7565b8460e0013562000612565b9150620002a7828462000692565b600060405180604001604052808473ffffffffffffffffffffffffffffffffffffffff168152602001858060200190620002e2919062001466565b620002ed90620016fc565b815250908060018154018082558091505060019003906000526020600020906003020160009091909190915060008201518160000160006101000a81548173ffffffffffffffffffffffffffffffffffffffff021916908373ffffffffffffffffffffffffffffffffffffffff1602179055506020820151816001019060026200037992919062000931565b5050507f5b03bfed1c14a02bdeceb5fa582eb1a5765fc0bc64ca0e6af4c20afc9487f08182846040016020810190620003b3919062000be7565b604051620003c3929190620012a4565b60405180910390a150919050565b60606000805480602002602001604051908101604052809291908181526020016000905b828210156200055057838290600052602060002090600302016040518060400160405290816000820160009054906101000a900473ffffffffffffffffffffffffffffffffffffffff1673ffffffffffffffffffffffffffffffffffffffff1673ffffffffffffffffffffffffffffffffffffffff16815260200160018201600280602002604051908101604052809291906000905b8282101562000538578382018054620004a49062001758565b80601f0160208091040260200160405190810160405280929190818152602001828054620004d29062001758565b8015620005235780601f10620004f75761010080835404028352916020019162000523565b820191906000526020600020905b8154815290600101906020018083116200050557829003601f168201915b5050505050815260200190600101906200048b565b505050508152505081526020019060010190620003f5565b50505050905090565b6040518060400160405280600f81526020017f57414c4c45545f4352454154494f4e000000000000000000000000000000000081525081565b60006200060a6040518060400160405280600f81526020017f57414c4c45545f4352454154494f4e00000000000000000000000000000000008152508484604051602001620005e49392919062001248565b6040516020818303038152906040528051906020012062000604620007a6565b62000837565b905092915050565b60006200068a6040518060400160405280600f81526020017f57414c4c45545f4352454154494f4e00000000000000000000000000000000008152508484604051602001620006649392919062001248565b6040516020818303038152906040528051906020012062000684620007a6565b6200084e565b905092915050565b8173ffffffffffffffffffffffffffffffffffffffff1663d5073322826000016020810190620006c3919062000be7565b838060200190620006d5919062001466565b846040016020810190620006ea919062000be7565b858060600190620006fc91906200140c565b87608001602081019062000711919062000cc5565b8860a001602081019062000726919062000be7565b8960c001358a61010001602081019062000741919062000be7565b8b61012001356040518b63ffffffff1660e01b81526004016200076e9a99989796959493929190620012d1565b600060405180830381600087803b1580156200078957600080fd5b505af11580156200079e573d6000803e3d6000fd5b505050505050565b606060405180602001620007ba906200098b565b6020820181038252601f19601f820116604052507f000000000000000000000000000000000000000000000000000000000000000060405160200162000801919062001287565b6040516020818303038152906040526040516020016200082392919062001220565b604051602081830303815290604052905090565b600062000846838330620008da565b905092915050565b600080838351602085016000f59050600073ffffffffffffffffffffffffffffffffffffffff168173ffffffffffffffffffffffffffffffffffffffff161415620008d0576040517f08c379a0000000000000000000000000000000000000000000000000000000008152600401620008c790620013ea565b60405180910390fd5b8091505092915050565b60008083805190602001209050600060ff60f81b848784604051602001620009069493929190620011ca565b604051602081830303815290604052805190602001209050606081901b60601c925050509392505050565b826002810192821562000978579160200282015b82811115620009775782518290805190602001906200096692919062000999565b509160200191906001019062000945565b5b50905062000987919062000a2a565b5090565b6102bf806200189f83390190565b828054620009a79062001758565b90600052602060002090601f016020900481019282620009cb576000855562000a17565b82601f10620009e657805160ff191683800117855562000a17565b8280016001018555821562000a17579182015b8281111562000a16578251825591602001919060010190620009f9565b5b50905062000a26919062000a52565b5090565b5b8082111562000a4e576000818162000a44919062000a71565b5060010162000a2b565b5090565b5b8082111562000a6d57600081600090555060010162000a53565b5090565b50805462000a7f9062001758565b6000825580601f1062000a93575062000ab4565b601f01602090049060005260206000209081019062000ab3919062000a52565b5b50565b600062000ace62000ac884620014bf565b6200148b565b9050808260005b8581101562000b09578135850162000aee888262000b6f565b84526020840193506020830192505060018101905062000ad5565b5050509392505050565b600062000b2a62000b2484620014e8565b6200148b565b90508281526020810184848401111562000b4357600080fd5b62000b5084828562001713565b509392505050565b60008135905062000b698162001850565b92915050565b600082601f83011262000b8157600080fd5b813562000b9384826020860162000b13565b91505092915050565b6000610140828403121562000bb057600080fd5b81905092915050565b60008135905062000bca816200186a565b92915050565b60008135905062000be18162001884565b92915050565b60006020828403121562000bfa57600080fd5b600062000c0a8482850162000b58565b91505092915050565b6000806040838503121562000c2757600080fd5b600062000c378582860162000b58565b925050602062000c4a8582860162000bb9565b9150509250929050565b60006020828403121562000c6757600080fd5b600082013567ffffffffffffffff81111562000c8257600080fd5b62000c908482850162000b9c565b91505092915050565b60006020828403121562000cac57600080fd5b600062000cbc8482850162000bb9565b91505092915050565b60006020828403121562000cd857600080fd5b600062000ce88482850162000bd0565b91505092915050565b600062000d0084848462000fdc565b90509392505050565b600062000d1783836200100f565b905092915050565b600062000d2d83836200114c565b905092915050565b62000d40816200167b565b82525050565b62000d518162001667565b82525050565b62000d628162001667565b82525050565b62000d7d62000d778262001667565b6200178e565b82525050565b600062000d9183856200159d565b93507f07ffffffffffffffffffffffffffffffffffffffffffffffffffffffffffffff83111562000dc157600080fd5b60208302925062000dd483858462001713565b82840190509392505050565b600062000ded826200153f565b62000df98185620015b9565b93508360208202850162000e0d856200151b565b8060005b8581101562000e5b57848403895262000e2b82846200160d565b62000e3886828462000cf1565b955062000e458462001576565b935060208b019a50505060018101905062000e11565b50829750879550505050505092915050565b600062000e7a826200154a565b62000e868185620015ae565b93508360208202850162000e9a8562001525565b8060005b8581101562000edc578484038952815162000eba858262000d09565b945062000ec78362001583565b925060208a0199505060018101905062000e9e565b50829750879550505050505092915050565b600062000efb8262001555565b62000f078185620015c4565b93508360208202850162000f1b856200152f565b8060005b8581101562000f5d578484038952815162000f3b858262000d1f565b945062000f488362001590565b925060208a0199505060018101905062000f1f565b50829750879550505050505092915050565b62000f8462000f7e826200168f565b620017a2565b82525050565b62000f9f62000f9982620016bb565b620017ac565b82525050565b600062000fb28262001560565b62000fbe8185620015d5565b935062000fd081856020860162001722565b80840191505092915050565b600062000fea8385620015e0565b935062000ff983858462001713565b620010048362001832565b840190509392505050565b60006200101c826200156b565b620010288185620015e0565b93506200103a81856020860162001722565b620010458162001832565b840191505092915050565b60006200105d826200156b565b620010698185620015f1565b93506200107b81856020860162001722565b620010868162001832565b840191505092915050565b60006200109e826200156b565b620010aa818562001602565b9350620010bc81856020860162001722565b80840191505092915050565b6000620010d7601383620015f1565b91507f4e4f5420454e4f55474820464f522046454553000000000000000000000000006000830152602082019050919050565b600062001119600e83620015f1565b91507f435245415445325f4641494c45440000000000000000000000000000000000006000830152602082019050919050565b600060408301600083015162001166600086018262000d46565b506020830151848203602086015262001180828262000e6d565b9150508091505092915050565b6200119881620016e5565b82525050565b620011b3620011ad82620016e5565b620017ca565b82525050565b620011c481620016ef565b82525050565b6000620011d8828762000f6f565b600182019150620011ea828662000d68565b601482019150620011fc828562000f8a565b6020820191506200120e828462000f8a565b60208201915081905095945050505050565b60006200122e828562000fa5565b91506200123c828462000fa5565b91508190509392505050565b600062001256828662001091565b915062001264828562000d68565b6014820191506200127682846200119e565b602082019150819050949350505050565b60006020820190506200129e600083018462000d57565b92915050565b6000604082019050620012bb600083018562000d57565b620012ca602083018462000d57565b9392505050565b600061012082019050620012e9600083018d62000d57565b8181036020830152620012fd818c62000de0565b90506200130e604083018b62000d57565b81810360608301526200132381898b62000d83565b9050620013346080830188620011b9565b6200134360a083018762000d35565b6200135260c08301866200118d565b6200136160e083018562000d57565b620013716101008301846200118d565b9b9a5050505050505050505050565b600060208201905081810360008301526200139c818462000eee565b905092915050565b60006020820190508181036000830152620013c0818462001050565b905092915050565b60006020820190508181036000830152620013e381620010c8565b9050919050565b6000602082019050818103600083015262001405816200110a565b9050919050565b600080833560016020038436030381126200142657600080fd5b80840192508235915067ffffffffffffffff8211156200144557600080fd5b6020830192506020820236038313156200145e57600080fd5b509250929050565b6000823560016040038336030381126200147f57600080fd5b80830191505092915050565b6000604051905081810181811067ffffffffffffffff82111715620014b557620014b462001803565b5b8060405250919050565b600067ffffffffffffffff821115620014dd57620014dc62001803565b5b602082029050919050565b600067ffffffffffffffff82111562001506576200150562001803565b5b601f19601f8301169050602081019050919050565b6000819050919050565b6000819050919050565b6000819050602082019050919050565b600060029050919050565b600060029050919050565b600081519050919050565b600081519050919050565b600081519050919050565b6000602082019050919050565b6000602082019050919050565b6000602082019050919050565b600082825260208201905092915050565b600081905092915050565b600081905092915050565b600082825260208201905092915050565b600081905092915050565b600082825260208201905092915050565b600082825260208201905092915050565b600081905092915050565b600080833560016020038436030381126200162757600080fd5b83810192508235915060208301925067ffffffffffffffff8211156200164c57600080fd5b6001820236038413156200165f57600080fd5b509250929050565b60006200167482620016c5565b9050919050565b60006200168882620016c5565b9050919050565b60007fff0000000000000000000000000000000000000000000000000000000000000082169050919050565b6000819050919050565b600073ffffffffffffffffffffffffffffffffffffffff82169050919050565b6000819050919050565b600060ff82169050919050565b60006200170c3660028462000ab7565b9050919050565b82818337600083830152505050565b60005b838110156200174257808201518184015260208101905062001725565b8381111562001752576000848401525b50505050565b600060028204905060018216806200177157607f821691505b60208210811415620017885762001787620017d4565b5b50919050565b60006200179b82620017b6565b9050919050565b6000819050919050565b6000819050919050565b6000620017c38262001843565b9050919050565b6000819050919050565b7f4e487b7100000000000000000000000000000000000000000000000000000000600052602260045260246000fd5b7f4e487b7100000000000000000000000000000000000000000000000000000000600052604160045260246000fd5b6000601f19601f8301169050919050565b60008160601b9050919050565b6200185b8162001667565b81146200186757600080fd5b50565b6200187581620016e5565b81146200188157600080fd5b50565b6200188f81620016ef565b81146200189b57600080fd5b5056fe608060405234801561001057600080fd5b506040516102bf3803806102bf833981810160405281019061003291906100fd565b600073ffffffffffffffffffffffffffffffffffffffff168173ffffffffffffffffffffffffffffffffffffffff1614156100a2576040517f08c379a00000000000000000000000000000000000000000000000000000000081526004016100999061018c565b60405180910390fd5b806000806101000a81548173ffffffffffffffffffffffffffffffffffffffff021916908373ffffffffffffffffffffffffffffffffffffffff16021790555050610206565b6000815190506100f7816101ef565b92915050565b60006020828403121561010f57600080fd5b600061011d848285016100e8565b91505092915050565b60006101336024836101ac565b91507f496e76616c6964206d617374657220636f707920616464726573732070726f7660008301527f69646564000000000000000000000000000000000000000000000000000000006020830152604082019050919050565b600060208201905081810360008301526101a581610126565b9050919050565b600082825260208201905092915050565b60006101c8826101cf565b9050919050565b600073ffffffffffffffffffffffffffffffffffffffff82169050919050565b6101f8816101bd565b811461020357600080fd5b50565b60ab806102146000396000f3fe608060405273ffffffffffffffffffffffffffffffffffffffff600054167fa619486e0000000000000000000000000000000000000000000000000000000060003514156050578060005260206000f35b3660008037600080366000845af43d6000803e60008114156070573d6000fd5b3d6000f3fea2646970667358221220a771fe2be42d9587d46997ff8d801ad40319aba6a853d87dc5ef5a80b1e3223d64736f6c63430008000033a2646970667358221220cc2691d66469d170a9252b3bf0351c72cb18baa5062ee62ebbbfc5e7fafc754964736f6c63430008000033",
  "immutableReferences": {
    "3422": [
      {
        "length": 32,
        "start": 377
      },
      {
        "length": 32,
        "start": 2000
      }
    ]
  },
  "source": "// SPDX-License-Identifier: GPL-2.0-or-later\npragma solidity >=0.7.6;\npragma experimental ABIEncoderV2;\n\nimport \"./otp_wallet.sol\";\nimport \"./external/walletproxy.sol\";\nimport \"./external/create2.sol\";\nimport \"./external/signatureutil.sol\";\n\ncontract WalletFactory\n{\n    event WalletCreated (address wallet, address owner);\n    event Debug(bytes32 signHash, address addr);\n\n    address public immutable walletImplementation;\n    string  public constant WALLET_CREATION = \"WALLET_CREATION\";\n\n    struct CreateRecord {\n        address wallet;\n        string[2] domain;\n    }\n\n    CreateRecord[] public created;\n\n    struct WalletConfig\n    {\n        address resolver;\n        string[2]    domain;\n        address   owner;     \n        bytes32[] rootHash;\n        uint8 \t  merkelHeight;\n        address\t  drainAddr;\n        uint \t  dailyLimit;\n        uint      salt;\n        address   feeReceipient;\n        uint256   feeAmount;\n    }\n\n    constructor(\n        address        _walletImplementation\n        )\n    {\n        walletImplementation = _walletImplementation;\n    }\n\n    function createWallet(WalletConfig calldata config)\n        external\n        returns (address wallet)\n    {   \n        // address found;\n        // uint16 ver;\n        // (found, ver) =  NameRegistry(this).getContractDetails(config.name);\n        // require(found == address(0x0), \"REGISTRY MUST BE AVAILABLE\");\n        address addr = computeWalletAddress(config.owner, config.salt);\n        require(addr.balance >= config.feeAmount, \"NOT ENOUGH FOR FEES\");\n        // require(NameRegistry(this).registerName(config.name, addr, 1));\n\n        wallet = _deploy(config.owner, config.salt);\n        _initializeWallet(wallet, config);\n\n        created.push(CreateRecord(address(wallet), config.domain));\n        emit WalletCreated(address(wallet), config.owner);\n    }\n\n    function computeWalletAddress(\n        address owner,\n        uint    salt\n        )\n        public\n        view\n        returns (address)\n    {\n        return Create2.computeAddress(\n            keccak256(abi.encodePacked(WALLET_CREATION, owner, salt)),\n            getWalletCode()\n        );\n    }\n\n    function getCreated() public view returns (CreateRecord[] memory ) {\n        return created;\n    }\n    // --- Internal functions ---\n\n    function _initializeWallet(\n        address                 wallet,\n        WalletConfig calldata   config\n        )\n        internal\n    {\n        TOTPWallet(payable(wallet)).initialize(\n            config.resolver,\n            config.domain,\n            config.owner,\n            config.rootHash,\n            config.merkelHeight,\n            payable(config.drainAddr),\n            config.dailyLimit,\n            config.feeReceipient,\n            config.feeAmount\n        );\n\n        //TOTPWallet(payable(wallet)).registerENS(config.subdomain, config.domain, config.duration);\n    }\n\n    function _deploy(\n        address owner,\n        uint    salt\n        )\n        internal\n        returns (address payable wallet)\n    {\n        // Deploy the wallet proxy\n        wallet = Create2.deploy(\n            keccak256(abi.encodePacked(WALLET_CREATION, owner, salt)),\n            getWalletCode()\n        );\n    }\n\n    function getWalletCode()\n        internal\n        view\n        returns (bytes memory)\n    {\n        return abi.encodePacked(\n            type(WalletProxy).creationCode,\n            abi.encode(walletImplementation)\n        );\n    }\n}",
  "sourcePath": "/home/quoc/Projects/harmony-totp-pure/contracts/wallet_factory.sol",
  "compiler": {
    "name": "solc",
    "version": "0.8.0+commit.c7dfd78e.Emscripten.clang"
  },
  "schemaVersion": "3.3.4",
  "updatedAt": "2021-08-19T15:04:22.100Z",
  "networkType": "ethereum",
  "devdoc": {
    "kind": "dev",
    "methods": {},
    "version": 1
  },
  "userdoc": {
    "kind": "user",
    "methods": {},
    "version": 1
  }
}