{
  "contractName": "WFRegistry",
  "abi": [
    {
      "anonymous": false,
      "inputs": [
        {
          "indexed": false,
          "internalType": "address",
          "name": "factory",
          "type": "address"
        }
      ],
      "name": "FactoryAdded",
      "type": "event"
    },
    {
      "inputs": [
        {
          "internalType": "uint256",
          "name": "",
          "type": "uint256"
        }
      ],
      "name": "factories",
      "outputs": [
        {
          "internalType": "address",
          "name": "",
          "type": "address"
        }
      ],
      "stateMutability": "view",
      "type": "function",
      "constant": true
    },
    {
      "inputs": [],
      "name": "owner",
      "outputs": [
        {
          "internalType": "address",
          "name": "",
          "type": "address"
        }
      ],
      "stateMutability": "view",
      "type": "function",
      "constant": true
    },
    {
      "inputs": [
        {
          "internalType": "address",
          "name": "factory",
          "type": "address"
        }
      ],
      "name": "add",
      "outputs": [],
      "stateMutability": "nonpayable",
      "type": "function"
    }
  ],
  "bytecode": "0x6080604052336000806101000a81548173ffffffffffffffffffffffffffffffffffffffff021916908373ffffffffffffffffffffffffffffffffffffffff16021790555034801561005057600080fd5b5061041b806100606000396000f3fe608060405234801561001057600080fd5b50600436106100415760003560e01c80630a3b0a4f14610046578063672383c4146100625780638da5cb5b14610092575b600080fd5b610060600480360381019061005b9190610268565b6100b0565b005b61007c60048036038101906100779190610291565b6101db565b604051610089919061032f565b60405180910390f35b61009a61021a565b6040516100a7919061032f565b60405180910390f35b60008054906101000a900473ffffffffffffffffffffffffffffffffffffffff1673ffffffffffffffffffffffffffffffffffffffff163373ffffffffffffffffffffffffffffffffffffffff161461013e576040517f08c379a00000000000000000000000000000000000000000000000000000000081526004016101359061034a565b60405180910390fd5b6001819080600181540180825580915050600190039060005260206000200160009091909190916101000a81548173ffffffffffffffffffffffffffffffffffffffff021916908373ffffffffffffffffffffffffffffffffffffffff1602179055507f6fdc0147105e43e21da80a75b42d0fd464060d5e1a34b0cefbf0b4ccfc2e36a1816040516101d0919061032f565b60405180910390a150565b600181815481106101eb57600080fd5b906000526020600020016000915054906101000a900473ffffffffffffffffffffffffffffffffffffffff1681565b60008054906101000a900473ffffffffffffffffffffffffffffffffffffffff1681565b60008135905061024d816103b7565b92915050565b600081359050610262816103ce565b92915050565b60006020828403121561027a57600080fd5b60006102888482850161023e565b91505092915050565b6000602082840312156102a357600080fd5b60006102b184828501610253565b91505092915050565b6102c38161037b565b82525050565b60006102d660338361036a565b91507f546869732066756e6374696f6e206973207265737472696374656420746f207460008301527f686520636f6e74726163742773206f776e6572000000000000000000000000006020830152604082019050919050565b600060208201905061034460008301846102ba565b92915050565b60006020820190508181036000830152610363816102c9565b9050919050565b600082825260208201905092915050565b60006103868261038d565b9050919050565b600073ffffffffffffffffffffffffffffffffffffffff82169050919050565b6000819050919050565b6103c08161037b565b81146103cb57600080fd5b50565b6103d7816103ad565b81146103e257600080fd5b5056fea26469706673582212208ac8fe9bc7d228939f014c3ad0ee84a291e0ae69c460208e370230b7624a483264736f6c63430008000033",
  "immutableReferences": {},
  "source": "// SPDX-License-Identifier: GPL-3.0-only\npragma solidity >=0.7.6;\n\nimport \"./wallet_factory.sol\";\n\ncontract WFRegistry\n{\n  event FactoryAdded (address factory);\n  address public owner = msg.sender;\n  address[] public factories;\n\n  modifier restricted() {\n    require(\n      msg.sender == owner,\n      \"This function is restricted to the contract's owner\"\n    );\n    _;\n  }\n\n\n  function add(address factory) external restricted {\n      factories.push(factory);\n      emit FactoryAdded(factory);\n  }\n}\n",
  "sourcePath": "/home/quoc/Projects/harmony-totp-pure/contracts/registry.sol",
  "compiler": {
    "name": "solc",
    "version": "0.8.0+commit.c7dfd78e.Emscripten.clang"
  },
  "schemaVersion": "3.3.3",
  "updatedAt": "2021-10-29T21:24:25.913Z",
  "networkType": "ethereum",
  "devdoc": {
    "kind": "dev",
    "methods": {},
    "version": 1
  },
  "userdoc": {
    "kind": "user",
    "methods": {},
    "version": 1
  }
}